{"abi":[{"inputs":[{"internalType":"uint256","name":"minimum","type":"uint256"},{"internalType":"address","name":"creator","type":"address"},{"internalType":"string","name":"pName","type":"string"},{"internalType":"string","name":"pAim","type":"string"},{"internalType":"string","name":"imagePath","type":"string"},{"internalType":"uint256","name":"financialGoal","type":"uint256"}],"stateMutability":"nonpayable","type":"constructor"},{"inputs":[{"internalType":"uint256","name":"index","type":"uint256"}],"name":"approveRequest","outputs":[],"stateMutability":"nonpayable","type":"function"},{"inputs":[],"name":"contribute","outputs":[],"stateMutability":"payable","type":"function"},{"inputs":[{"internalType":"string","name":"description","type":"string"},{"internalType":"uint256","name":"value","type":"uint256"},{"internalType":"address payable","name":"recipient","type":"address"}],"name":"createRequest","outputs":[],"stateMutability":"nonpayable","type":"function"},{"inputs":[],"name":"deleteCampaign","outputs":[],"stateMutability":"payable","type":"function"},{"inputs":[{"internalType":"uint256","name":"index","type":"uint256"}],"name":"finalizeRequest","outputs":[],"stateMutability":"nonpayable","type":"function"},{"inputs":[],"name":"financialAim","outputs":[{"internalType":"uint256","name":"","type":"uint256"}],"stateMutability":"view","type":"function"},{"inputs":[],"name":"getSummary","outputs":[{"internalType":"uint256","name":"","type":"uint256"},{"internalType":"uint256","name":"","type":"uint256"},{"internalType":"uint256","name":"","type":"uint256"},{"internalType":"uint256","name":"","type":"uint256"},{"internalType":"address","name":"","type":"address"},{"internalType":"string","name":"","type":"string"},{"internalType":"string","name":"","type":"string"},{"internalType":"uint256","name":"","type":"uint256"},{"internalType":"string","name":"","type":"string"},{"internalType":"uint256","name":"","type":"uint256"}],"stateMutability":"view","type":"function"},{"inputs":[],"name":"imageURL","outputs":[{"internalType":"string","name":"","type":"string"}],"stateMutability":"view","type":"function"},{"inputs":[{"internalType":"address","name":"account","type":"address"},{"internalType":"uint256","name":"index","type":"uint256"}],"name":"isApproved","outputs":[{"internalType":"bool","name":"","type":"bool"}],"stateMutability":"view","type":"function"},{"inputs":[],"name":"manager","outputs":[{"internalType":"address","name":"","type":"address"}],"stateMutability":"view","type":"function"},{"inputs":[],"name":"minimumContribution","outputs":[{"internalType":"uint256","name":"","type":"uint256"}],"stateMutability":"view","type":"function"},{"inputs":[],"name":"numRequests","outputs":[{"internalType":"uint256","name":"","type":"uint256"}],"stateMutability":"view","type":"function"},{"inputs":[],"name":"projectAim","outputs":[{"internalType":"string","name":"","type":"string"}],"stateMutability":"view","type":"function"},{"inputs":[],"name":"projectName","outputs":[{"internalType":"string","name":"","type":"string"}],"stateMutability":"view","type":"function"},{"inputs":[{"internalType":"uint256","name":"","type":"uint256"}],"name":"requests","outputs":[{"internalType":"string","name":"description","type":"string"},{"internalType":"uint256","name":"value","type":"uint256"},{"internalType":"address payable","name":"recipient","type":"address"},{"internalType":"bool","name":"complete","type":"bool"},{"internalType":"uint256","name":"approvalCount","type":"uint256"}],"stateMutability":"view","type":"function"},{"inputs":[],"name":"requestsBalance","outputs":[{"internalType":"uint256","name":"","type":"uint256"}],"stateMutability":"view","type":"function"},{"inputs":[{"internalType":"address","name":"","type":"address"}],"name":"supporterContributionValues","outputs":[{"internalType":"uint256","name":"","type":"uint256"}],"stateMutability":"view","type":"function"},{"inputs":[{"internalType":"address","name":"","type":"address"}],"name":"supporters","outputs":[{"internalType":"bool","name":"","type":"bool"}],"stateMutability":"view","type":"function"},{"inputs":[{"internalType":"uint256","name":"","type":"uint256"}],"name":"supportersAddresses","outputs":[{"internalType":"address payable","name":"","type":"address"}],"stateMutability":"view","type":"function"},{"inputs":[],"name":"supportersCount","outputs":[{"internalType":"uint256","name":"","type":"uint256"}],"stateMutability":"view","type":"function"}],"devdoc":{"kind":"dev","methods":{},"version":1},"evm":{"assembly":"    /* \"Campaign.sol\":1185:5033  contract Campaign {... */\n  mstore(0x40, 0x80)\n    /* \"Campaign.sol\":1907:2233  constructor(uint minimum, address creator, string memory pName, string memory pAim, string memory imagePath, uint financialGoal) {... */\n  callvalue\n  dup1\n  iszero\n  tag_1\n  jumpi\n  0x00\n  dup1\n  revert\ntag_1:\n  pop\n  mload(0x40)\n  sub(codesize, bytecodeSize)\n  dup1\n  bytecodeSize\n  dup4\n  codecopy\n  dup2\n  dup2\n  add\n  0x40\n  mstore\n  dup2\n  add\n  swap1\n  tag_2\n  swap2\n  swap1\n  tag_3\n  jump\t// in\ntag_2:\n    /* \"Campaign.sol\":2056:2063  creator */\n  dup5\n    /* \"Campaign.sol\":2046:2053  manager */\n  0x00\n  dup1\n    /* \"Campaign.sol\":2046:2063  manager = creator */\n  0x0100\n  exp\n  dup2\n  sload\n  dup2\n  0xffffffffffffffffffffffffffffffffffffffff\n  mul\n  not\n  and\n  swap1\n  dup4\n  0xffffffffffffffffffffffffffffffffffffffff\n  and\n  mul\n  or\n  swap1\n  sstore\n  pop\n    /* \"Campaign.sol\":2095:2102  minimum */\n  dup6\n    /* \"Campaign.sol\":2073:2092  minimumContribution */\n  0x05\n    /* \"Campaign.sol\":2073:2102  minimumContribution = minimum */\n  dup2\n  swap1\n  sstore\n  pop\n    /* \"Campaign.sol\":2126:2131  pName */\n  dup4\n    /* \"Campaign.sol\":2112:2123  projectName */\n  0x01\n    /* \"Campaign.sol\":2112:2131  projectName = pName */\n  swap1\n  dup1\n  mload\n  swap1\n  0x20\n  add\n  swap1\n  tag_6\n  swap3\n  swap2\n  swap1\n  tag_7\n  jump\t// in\ntag_6:\n  pop\n    /* \"Campaign.sol\":2154:2158  pAim */\n  dup3\n    /* \"Campaign.sol\":2141:2151  projectAim */\n  0x02\n    /* \"Campaign.sol\":2141:2158  projectAim = pAim */\n  swap1\n  dup1\n  mload\n  swap1\n  0x20\n  add\n  swap1\n  tag_8\n  swap3\n  swap2\n  swap1\n  tag_7\n  jump\t// in\ntag_8:\n  pop\n    /* \"Campaign.sol\":2183:2196  financialGoal */\n  dup1\n    /* \"Campaign.sol\":2168:2180  financialAim */\n  0x04\n    /* \"Campaign.sol\":2168:2196  financialAim = financialGoal */\n  dup2\n  swap1\n  sstore\n  pop\n    /* \"Campaign.sol\":2217:2226  imagePath */\n  dup2\n    /* \"Campaign.sol\":2206:2214  imageURL */\n  0x03\n    /* \"Campaign.sol\":2206:2226  imageURL = imagePath */\n  swap1\n  dup1\n  mload\n  swap1\n  0x20\n  add\n  swap1\n  tag_9\n  swap3\n  swap2\n  swap1\n  tag_7\n  jump\t// in\ntag_9:\n  pop\n    /* \"Campaign.sol\":1907:2233  constructor(uint minimum, address creator, string memory pName, string memory pAim, string memory imagePath, uint financialGoal) {... */\n  pop\n  pop\n  pop\n  pop\n  pop\n  pop\n    /* \"Campaign.sol\":1185:5033  contract Campaign {... */\n  jump(tag_10)\ntag_7:\n  dup3\n  dup1\n  sload\n  tag_11\n  swap1\n  tag_12\n  jump\t// in\ntag_11:\n  swap1\n  0x00\n  mstore\n  keccak256(0x00, 0x20)\n  swap1\n  0x1f\n  add\n  0x20\n  swap1\n  div\n  dup2\n  add\n  swap3\n  dup3\n  tag_14\n  jumpi\n  0x00\n  dup6\n  sstore\n  jump(tag_13)\ntag_14:\n  dup3\n  0x1f\n  lt\n  tag_15\n  jumpi\n  dup1\n  mload\n  not(0xff)\n  and\n  dup4\n  dup1\n  add\n  or\n  dup6\n  sstore\n  jump(tag_13)\ntag_15:\n  dup3\n  dup1\n  add\n  0x01\n  add\n  dup6\n  sstore\n  dup3\n  iszero\n  tag_13\n  jumpi\n  swap2\n  dup3\n  add\ntag_16:\n  dup3\n  dup2\n  gt\n  iszero\n  tag_17\n  jumpi\n  dup3\n  mload\n  dup3\n  sstore\n  swap2\n  0x20\n  add\n  swap2\n  swap1\n  0x01\n  add\n  swap1\n  jump(tag_16)\ntag_17:\ntag_13:\n  pop\n  swap1\n  pop\n  tag_18\n  swap2\n  swap1\n  tag_19\n  jump\t// in\ntag_18:\n  pop\n  swap1\n  jump\t// out\ntag_19:\ntag_20:\n  dup1\n  dup3\n  gt\n  iszero\n  tag_21\n  jumpi\n  0x00\n  dup2\n  0x00\n  swap1\n  sstore\n  pop\n  0x01\n  add\n  jump(tag_20)\ntag_21:\n  pop\n  swap1\n  jump\t// out\n    /* \"#utility.yul\":7:82   */\ntag_22:\n    /* \"#utility.yul\":40:46   */\n  0x00\n    /* \"#utility.yul\":73:75   */\n  0x40\n    /* \"#utility.yul\":67:76   */\n  mload\n    /* \"#utility.yul\":57:76   */\n  swap1\n  pop\n    /* \"#utility.yul\":7:82   */\n  swap1\n  jump\t// out\n    /* \"#utility.yul\":88:205   */\ntag_23:\n    /* \"#utility.yul\":197:198   */\n  0x00\n    /* \"#utility.yul\":194:195   */\n  dup1\n    /* \"#utility.yul\":187:199   */\n  revert\n    /* \"#utility.yul\":211:328   */\ntag_24:\n    /* \"#utility.yul\":320:321   */\n  0x00\n    /* \"#utility.yul\":317:318   */\n  dup1\n    /* \"#utility.yul\":310:322   */\n  revert\n    /* \"#utility.yul\":334:411   */\ntag_25:\n    /* \"#utility.yul\":371:378   */\n  0x00\n    /* \"#utility.yul\":400:405   */\n  dup2\n    /* \"#utility.yul\":389:405   */\n  swap1\n  pop\n    /* \"#utility.yul\":334:411   */\n  swap2\n  swap1\n  pop\n  jump\t// out\n    /* \"#utility.yul\":417:539   */\ntag_26:\n    /* \"#utility.yul\":490:514   */\n  tag_49\n    /* \"#utility.yul\":508:513   */\n  dup2\n    /* \"#utility.yul\":490:514   */\n  tag_25\n  jump\t// in\ntag_49:\n    /* \"#utility.yul\":483:488   */\n  dup2\n    /* \"#utility.yul\":480:515   */\n  eq\n    /* \"#utility.yul\":470:533   */\n  tag_50\n  jumpi\n    /* \"#utility.yul\":529:530   */\n  0x00\n    /* \"#utility.yul\":526:527   */\n  dup1\n    /* \"#utility.yul\":519:531   */\n  revert\n    /* \"#utility.yul\":470:533   */\ntag_50:\n    /* \"#utility.yul\":417:539   */\n  pop\n  jump\t// out\n    /* \"#utility.yul\":545:688   */\ntag_27:\n    /* \"#utility.yul\":602:607   */\n  0x00\n    /* \"#utility.yul\":633:639   */\n  dup2\n    /* \"#utility.yul\":627:640   */\n  mload\n    /* \"#utility.yul\":618:640   */\n  swap1\n  pop\n    /* \"#utility.yul\":649:682   */\n  tag_52\n    /* \"#utility.yul\":676:681   */\n  dup2\n    /* \"#utility.yul\":649:682   */\n  tag_26\n  jump\t// in\ntag_52:\n    /* \"#utility.yul\":545:688   */\n  swap3\n  swap2\n  pop\n  pop\n  jump\t// out\n    /* \"#utility.yul\":694:820   */\ntag_28:\n    /* \"#utility.yul\":731:738   */\n  0x00\n    /* \"#utility.yul\":771:813   */\n  0xffffffffffffffffffffffffffffffffffffffff\n    /* \"#utility.yul\":764:769   */\n  dup3\n    /* \"#utility.yul\":760:814   */\n  and\n    /* \"#utility.yul\":749:814   */\n  swap1\n  pop\n    /* \"#utility.yul\":694:820   */\n  swap2\n  swap1\n  pop\n  jump\t// out\n    /* \"#utility.yul\":826:922   */\ntag_29:\n    /* \"#utility.yul\":863:870   */\n  0x00\n    /* \"#utility.yul\":892:916   */\n  tag_55\n    /* \"#utility.yul\":910:915   */\n  dup3\n    /* \"#utility.yul\":892:916   */\n  tag_28\n  jump\t// in\ntag_55:\n    /* \"#utility.yul\":881:916   */\n  swap1\n  pop\n    /* \"#utility.yul\":826:922   */\n  swap2\n  swap1\n  pop\n  jump\t// out\n    /* \"#utility.yul\":928:1050   */\ntag_30:\n    /* \"#utility.yul\":1001:1025   */\n  tag_57\n    /* \"#utility.yul\":1019:1024   */\n  dup2\n    /* \"#utility.yul\":1001:1025   */\n  tag_29\n  jump\t// in\ntag_57:\n    /* \"#utility.yul\":994:999   */\n  dup2\n    /* \"#utility.yul\":991:1026   */\n  eq\n    /* \"#utility.yul\":981:1044   */\n  tag_58\n  jumpi\n    /* \"#utility.yul\":1040:1041   */\n  0x00\n    /* \"#utility.yul\":1037:1038   */\n  dup1\n    /* \"#utility.yul\":1030:1042   */\n  revert\n    /* \"#utility.yul\":981:1044   */\ntag_58:\n    /* \"#utility.yul\":928:1050   */\n  pop\n  jump\t// out\n    /* \"#utility.yul\":1056:1199   */\ntag_31:\n    /* \"#utility.yul\":1113:1118   */\n  0x00\n    /* \"#utility.yul\":1144:1150   */\n  dup2\n    /* \"#utility.yul\":1138:1151   */\n  mload\n    /* \"#utility.yul\":1129:1151   */\n  swap1\n  pop\n    /* \"#utility.yul\":1160:1193   */\n  tag_60\n    /* \"#utility.yul\":1187:1192   */\n  dup2\n    /* \"#utility.yul\":1160:1193   */\n  tag_30\n  jump\t// in\ntag_60:\n    /* \"#utility.yul\":1056:1199   */\n  swap3\n  swap2\n  pop\n  pop\n  jump\t// out\n    /* \"#utility.yul\":1205:1322   */\ntag_32:\n    /* \"#utility.yul\":1314:1315   */\n  0x00\n    /* \"#utility.yul\":1311:1312   */\n  dup1\n    /* \"#utility.yul\":1304:1316   */\n  revert\n    /* \"#utility.yul\":1328:1445   */\ntag_33:\n    /* \"#utility.yul\":1437:1438   */\n  0x00\n    /* \"#utility.yul\":1434:1435   */\n  dup1\n    /* \"#utility.yul\":1427:1439   */\n  revert\n    /* \"#utility.yul\":1451:1553   */\ntag_34:\n    /* \"#utility.yul\":1492:1498   */\n  0x00\n    /* \"#utility.yul\":1543:1545   */\n  0x1f\n    /* \"#utility.yul\":1539:1546   */\n  not\n    /* \"#utility.yul\":1534:1536   */\n  0x1f\n    /* \"#utility.yul\":1527:1532   */\n  dup4\n    /* \"#utility.yul\":1523:1537   */\n  add\n    /* \"#utility.yul\":1519:1547   */\n  and\n    /* \"#utility.yul\":1509:1547   */\n  swap1\n  pop\n    /* \"#utility.yul\":1451:1553   */\n  swap2\n  swap1\n  pop\n  jump\t// out\n    /* \"#utility.yul\":1559:1739   */\ntag_35:\n    /* \"#utility.yul\":1607:1684   */\n  0x4e487b7100000000000000000000000000000000000000000000000000000000\n    /* \"#utility.yul\":1604:1605   */\n  0x00\n    /* \"#utility.yul\":1597:1685   */\n  mstore\n    /* \"#utility.yul\":1704:1708   */\n  0x41\n    /* \"#utility.yul\":1701:1702   */\n  0x04\n    /* \"#utility.yul\":1694:1709   */\n  mstore\n    /* \"#utility.yul\":1728:1732   */\n  0x24\n    /* \"#utility.yul\":1725:1726   */\n  0x00\n    /* \"#utility.yul\":1718:1733   */\n  revert\n    /* \"#utility.yul\":1745:2026   */\ntag_36:\n    /* \"#utility.yul\":1828:1855   */\n  tag_66\n    /* \"#utility.yul\":1850:1854   */\n  dup3\n    /* \"#utility.yul\":1828:1855   */\n  tag_34\n  jump\t// in\ntag_66:\n    /* \"#utility.yul\":1820:1826   */\n  dup2\n    /* \"#utility.yul\":1816:1856   */\n  add\n    /* \"#utility.yul\":1958:1964   */\n  dup2\n    /* \"#utility.yul\":1946:1956   */\n  dup2\n    /* \"#utility.yul\":1943:1965   */\n  lt\n    /* \"#utility.yul\":1922:1940   */\n  0xffffffffffffffff\n    /* \"#utility.yul\":1910:1920   */\n  dup3\n    /* \"#utility.yul\":1907:1941   */\n  gt\n    /* \"#utility.yul\":1904:1966   */\n  or\n    /* \"#utility.yul\":1901:1989   */\n  iszero\n  tag_67\n  jumpi\n    /* \"#utility.yul\":1969:1987   */\n  tag_68\n  tag_35\n  jump\t// in\ntag_68:\n    /* \"#utility.yul\":1901:1989   */\ntag_67:\n    /* \"#utility.yul\":2009:2019   */\n  dup1\n    /* \"#utility.yul\":2005:2007   */\n  0x40\n    /* \"#utility.yul\":1998:2020   */\n  mstore\n    /* \"#utility.yul\":1788:2026   */\n  pop\n    /* \"#utility.yul\":1745:2026   */\n  pop\n  pop\n  jump\t// out\n    /* \"#utility.yul\":2032:2161   */\ntag_37:\n    /* \"#utility.yul\":2066:2072   */\n  0x00\n    /* \"#utility.yul\":2093:2113   */\n  tag_70\n  tag_22\n  jump\t// in\ntag_70:\n    /* \"#utility.yul\":2083:2113   */\n  swap1\n  pop\n    /* \"#utility.yul\":2122:2155   */\n  tag_71\n    /* \"#utility.yul\":2150:2154   */\n  dup3\n    /* \"#utility.yul\":2142:2148   */\n  dup3\n    /* \"#utility.yul\":2122:2155   */\n  tag_36\n  jump\t// in\ntag_71:\n    /* \"#utility.yul\":2032:2161   */\n  swap2\n  swap1\n  pop\n  jump\t// out\n    /* \"#utility.yul\":2167:2475   */\ntag_38:\n    /* \"#utility.yul\":2229:2233   */\n  0x00\n    /* \"#utility.yul\":2319:2337   */\n  0xffffffffffffffff\n    /* \"#utility.yul\":2311:2317   */\n  dup3\n    /* \"#utility.yul\":2308:2338   */\n  gt\n    /* \"#utility.yul\":2305:2361   */\n  iszero\n  tag_73\n  jumpi\n    /* \"#utility.yul\":2341:2359   */\n  tag_74\n  tag_35\n  jump\t// in\ntag_74:\n    /* \"#utility.yul\":2305:2361   */\ntag_73:\n    /* \"#utility.yul\":2379:2408   */\n  tag_75\n    /* \"#utility.yul\":2401:2407   */\n  dup3\n    /* \"#utility.yul\":2379:2408   */\n  tag_34\n  jump\t// in\ntag_75:\n    /* \"#utility.yul\":2371:2408   */\n  swap1\n  pop\n    /* \"#utility.yul\":2463:2467   */\n  0x20\n    /* \"#utility.yul\":2457:2461   */\n  dup2\n    /* \"#utility.yul\":2453:2468   */\n  add\n    /* \"#utility.yul\":2445:2468   */\n  swap1\n  pop\n    /* \"#utility.yul\":2167:2475   */\n  swap2\n  swap1\n  pop\n  jump\t// out\n    /* \"#utility.yul\":2481:2788   */\ntag_39:\n    /* \"#utility.yul\":2549:2550   */\n  0x00\n    /* \"#utility.yul\":2559:2672   */\ntag_77:\n    /* \"#utility.yul\":2573:2579   */\n  dup4\n    /* \"#utility.yul\":2570:2571   */\n  dup2\n    /* \"#utility.yul\":2567:2580   */\n  lt\n    /* \"#utility.yul\":2559:2672   */\n  iszero\n  tag_79\n  jumpi\n    /* \"#utility.yul\":2658:2659   */\n  dup1\n    /* \"#utility.yul\":2653:2656   */\n  dup3\n    /* \"#utility.yul\":2649:2660   */\n  add\n    /* \"#utility.yul\":2643:2661   */\n  mload\n    /* \"#utility.yul\":2639:2640   */\n  dup2\n    /* \"#utility.yul\":2634:2637   */\n  dup5\n    /* \"#utility.yul\":2630:2641   */\n  add\n    /* \"#utility.yul\":2623:2662   */\n  mstore\n    /* \"#utility.yul\":2595:2597   */\n  0x20\n    /* \"#utility.yul\":2592:2593   */\n  dup2\n    /* \"#utility.yul\":2588:2598   */\n  add\n    /* \"#utility.yul\":2583:2598   */\n  swap1\n  pop\n    /* \"#utility.yul\":2559:2672   */\n  jump(tag_77)\ntag_79:\n    /* \"#utility.yul\":2690:2696   */\n  dup4\n    /* \"#utility.yul\":2687:2688   */\n  dup2\n    /* \"#utility.yul\":2684:2697   */\n  gt\n    /* \"#utility.yul\":2681:2782   */\n  iszero\n  tag_80\n  jumpi\n    /* \"#utility.yul\":2770:2771   */\n  0x00\n    /* \"#utility.yul\":2761:2767   */\n  dup5\n    /* \"#utility.yul\":2756:2759   */\n  dup5\n    /* \"#utility.yul\":2752:2768   */\n  add\n    /* \"#utility.yul\":2745:2772   */\n  mstore\n    /* \"#utility.yul\":2681:2782   */\ntag_80:\n    /* \"#utility.yul\":2530:2788   */\n  pop\n    /* \"#utility.yul\":2481:2788   */\n  pop\n  pop\n  pop\n  jump\t// out\n    /* \"#utility.yul\":2794:3215   */\ntag_40:\n    /* \"#utility.yul\":2883:2888   */\n  0x00\n    /* \"#utility.yul\":2908:2974   */\n  tag_82\n    /* \"#utility.yul\":2924:2973   */\n  tag_83\n    /* \"#utility.yul\":2966:2972   */\n  dup5\n    /* \"#utility.yul\":2924:2973   */\n  tag_38\n  jump\t// in\ntag_83:\n    /* \"#utility.yul\":2908:2974   */\n  tag_37\n  jump\t// in\ntag_82:\n    /* \"#utility.yul\":2899:2974   */\n  swap1\n  pop\n    /* \"#utility.yul\":2997:3003   */\n  dup3\n    /* \"#utility.yul\":2990:2995   */\n  dup2\n    /* \"#utility.yul\":2983:3004   */\n  mstore\n    /* \"#utility.yul\":3035:3039   */\n  0x20\n    /* \"#utility.yul\":3028:3033   */\n  dup2\n    /* \"#utility.yul\":3024:3040   */\n  add\n    /* \"#utility.yul\":3073:3076   */\n  dup5\n    /* \"#utility.yul\":3064:3070   */\n  dup5\n    /* \"#utility.yul\":3059:3062   */\n  dup5\n    /* \"#utility.yul\":3055:3071   */\n  add\n    /* \"#utility.yul\":3052:3077   */\n  gt\n    /* \"#utility.yul\":3049:3161   */\n  iszero\n  tag_84\n  jumpi\n    /* \"#utility.yul\":3080:3159   */\n  tag_85\n  tag_33\n  jump\t// in\ntag_85:\n    /* \"#utility.yul\":3049:3161   */\ntag_84:\n    /* \"#utility.yul\":3170:3209   */\n  tag_86\n    /* \"#utility.yul\":3202:3208   */\n  dup5\n    /* \"#utility.yul\":3197:3200   */\n  dup3\n    /* \"#utility.yul\":3192:3195   */\n  dup6\n    /* \"#utility.yul\":3170:3209   */\n  tag_39\n  jump\t// in\ntag_86:\n    /* \"#utility.yul\":2889:3215   */\n  pop\n    /* \"#utility.yul\":2794:3215   */\n  swap4\n  swap3\n  pop\n  pop\n  pop\n  jump\t// out\n    /* \"#utility.yul\":3235:3590   */\ntag_41:\n    /* \"#utility.yul\":3302:3307   */\n  0x00\n    /* \"#utility.yul\":3351:3354   */\n  dup3\n    /* \"#utility.yul\":3344:3348   */\n  0x1f\n    /* \"#utility.yul\":3336:3342   */\n  dup4\n    /* \"#utility.yul\":3332:3349   */\n  add\n    /* \"#utility.yul\":3328:3355   */\n  slt\n    /* \"#utility.yul\":3318:3440   */\n  tag_88\n  jumpi\n    /* \"#utility.yul\":3359:3438   */\n  tag_89\n  tag_32\n  jump\t// in\ntag_89:\n    /* \"#utility.yul\":3318:3440   */\ntag_88:\n    /* \"#utility.yul\":3469:3475   */\n  dup2\n    /* \"#utility.yul\":3463:3476   */\n  mload\n    /* \"#utility.yul\":3494:3584   */\n  tag_90\n    /* \"#utility.yul\":3580:3583   */\n  dup5\n    /* \"#utility.yul\":3572:3578   */\n  dup3\n    /* \"#utility.yul\":3565:3569   */\n  0x20\n    /* \"#utility.yul\":3557:3563   */\n  dup7\n    /* \"#utility.yul\":3553:3570   */\n  add\n    /* \"#utility.yul\":3494:3584   */\n  tag_40\n  jump\t// in\ntag_90:\n    /* \"#utility.yul\":3485:3584   */\n  swap2\n  pop\n    /* \"#utility.yul\":3308:3590   */\n  pop\n    /* \"#utility.yul\":3235:3590   */\n  swap3\n  swap2\n  pop\n  pop\n  jump\t// out\n    /* \"#utility.yul\":3596:5249   */\ntag_3:\n    /* \"#utility.yul\":3741:3747   */\n  0x00\n    /* \"#utility.yul\":3749:3755   */\n  dup1\n    /* \"#utility.yul\":3757:3763   */\n  0x00\n    /* \"#utility.yul\":3765:3771   */\n  dup1\n    /* \"#utility.yul\":3773:3779   */\n  0x00\n    /* \"#utility.yul\":3781:3787   */\n  dup1\n    /* \"#utility.yul\":3830:3833   */\n  0xc0\n    /* \"#utility.yul\":3818:3827   */\n  dup8\n    /* \"#utility.yul\":3809:3816   */\n  dup10\n    /* \"#utility.yul\":3805:3828   */\n  sub\n    /* \"#utility.yul\":3801:3834   */\n  slt\n    /* \"#utility.yul\":3798:3918   */\n  iszero\n  tag_92\n  jumpi\n    /* \"#utility.yul\":3837:3916   */\n  tag_93\n  tag_23\n  jump\t// in\ntag_93:\n    /* \"#utility.yul\":3798:3918   */\ntag_92:\n    /* \"#utility.yul\":3957:3958   */\n  0x00\n    /* \"#utility.yul\":3982:4046   */\n  tag_94\n    /* \"#utility.yul\":4038:4045   */\n  dup10\n    /* \"#utility.yul\":4029:4035   */\n  dup3\n    /* \"#utility.yul\":4018:4027   */\n  dup11\n    /* \"#utility.yul\":4014:4036   */\n  add\n    /* \"#utility.yul\":3982:4046   */\n  tag_27\n  jump\t// in\ntag_94:\n    /* \"#utility.yul\":3972:4046   */\n  swap7\n  pop\n    /* \"#utility.yul\":3928:4056   */\n  pop\n    /* \"#utility.yul\":4095:4097   */\n  0x20\n    /* \"#utility.yul\":4121:4185   */\n  tag_95\n    /* \"#utility.yul\":4177:4184   */\n  dup10\n    /* \"#utility.yul\":4168:4174   */\n  dup3\n    /* \"#utility.yul\":4157:4166   */\n  dup11\n    /* \"#utility.yul\":4153:4175   */\n  add\n    /* \"#utility.yul\":4121:4185   */\n  tag_31\n  jump\t// in\ntag_95:\n    /* \"#utility.yul\":4111:4185   */\n  swap6\n  pop\n    /* \"#utility.yul\":4066:4195   */\n  pop\n    /* \"#utility.yul\":4255:4257   */\n  0x40\n    /* \"#utility.yul\":4244:4253   */\n  dup8\n    /* \"#utility.yul\":4240:4258   */\n  add\n    /* \"#utility.yul\":4234:4259   */\n  mload\n    /* \"#utility.yul\":4286:4304   */\n  0xffffffffffffffff\n    /* \"#utility.yul\":4278:4284   */\n  dup2\n    /* \"#utility.yul\":4275:4305   */\n  gt\n    /* \"#utility.yul\":4272:4389   */\n  iszero\n  tag_96\n  jumpi\n    /* \"#utility.yul\":4308:4387   */\n  tag_97\n  tag_24\n  jump\t// in\ntag_97:\n    /* \"#utility.yul\":4272:4389   */\ntag_96:\n    /* \"#utility.yul\":4413:4487   */\n  tag_98\n    /* \"#utility.yul\":4479:4486   */\n  dup10\n    /* \"#utility.yul\":4470:4476   */\n  dup3\n    /* \"#utility.yul\":4459:4468   */\n  dup11\n    /* \"#utility.yul\":4455:4477   */\n  add\n    /* \"#utility.yul\":4413:4487   */\n  tag_41\n  jump\t// in\ntag_98:\n    /* \"#utility.yul\":4403:4487   */\n  swap5\n  pop\n    /* \"#utility.yul\":4205:4497   */\n  pop\n    /* \"#utility.yul\":4557:4559   */\n  0x60\n    /* \"#utility.yul\":4546:4555   */\n  dup8\n    /* \"#utility.yul\":4542:4560   */\n  add\n    /* \"#utility.yul\":4536:4561   */\n  mload\n    /* \"#utility.yul\":4588:4606   */\n  0xffffffffffffffff\n    /* \"#utility.yul\":4580:4586   */\n  dup2\n    /* \"#utility.yul\":4577:4607   */\n  gt\n    /* \"#utility.yul\":4574:4691   */\n  iszero\n  tag_99\n  jumpi\n    /* \"#utility.yul\":4610:4689   */\n  tag_100\n  tag_24\n  jump\t// in\ntag_100:\n    /* \"#utility.yul\":4574:4691   */\ntag_99:\n    /* \"#utility.yul\":4715:4789   */\n  tag_101\n    /* \"#utility.yul\":4781:4788   */\n  dup10\n    /* \"#utility.yul\":4772:4778   */\n  dup3\n    /* \"#utility.yul\":4761:4770   */\n  dup11\n    /* \"#utility.yul\":4757:4779   */\n  add\n    /* \"#utility.yul\":4715:4789   */\n  tag_41\n  jump\t// in\ntag_101:\n    /* \"#utility.yul\":4705:4789   */\n  swap4\n  pop\n    /* \"#utility.yul\":4507:4799   */\n  pop\n    /* \"#utility.yul\":4859:4862   */\n  0x80\n    /* \"#utility.yul\":4848:4857   */\n  dup8\n    /* \"#utility.yul\":4844:4863   */\n  add\n    /* \"#utility.yul\":4838:4864   */\n  mload\n    /* \"#utility.yul\":4891:4909   */\n  0xffffffffffffffff\n    /* \"#utility.yul\":4883:4889   */\n  dup2\n    /* \"#utility.yul\":4880:4910   */\n  gt\n    /* \"#utility.yul\":4877:4994   */\n  iszero\n  tag_102\n  jumpi\n    /* \"#utility.yul\":4913:4992   */\n  tag_103\n  tag_24\n  jump\t// in\ntag_103:\n    /* \"#utility.yul\":4877:4994   */\ntag_102:\n    /* \"#utility.yul\":5018:5092   */\n  tag_104\n    /* \"#utility.yul\":5084:5091   */\n  dup10\n    /* \"#utility.yul\":5075:5081   */\n  dup3\n    /* \"#utility.yul\":5064:5073   */\n  dup11\n    /* \"#utility.yul\":5060:5082   */\n  add\n    /* \"#utility.yul\":5018:5092   */\n  tag_41\n  jump\t// in\ntag_104:\n    /* \"#utility.yul\":5008:5092   */\n  swap3\n  pop\n    /* \"#utility.yul\":4809:5102   */\n  pop\n    /* \"#utility.yul\":5141:5144   */\n  0xa0\n    /* \"#utility.yul\":5168:5232   */\n  tag_105\n    /* \"#utility.yul\":5224:5231   */\n  dup10\n    /* \"#utility.yul\":5215:5221   */\n  dup3\n    /* \"#utility.yul\":5204:5213   */\n  dup11\n    /* \"#utility.yul\":5200:5222   */\n  add\n    /* \"#utility.yul\":5168:5232   */\n  tag_27\n  jump\t// in\ntag_105:\n    /* \"#utility.yul\":5158:5232   */\n  swap2\n  pop\n    /* \"#utility.yul\":5112:5242   */\n  pop\n    /* \"#utility.yul\":3596:5249   */\n  swap3\n  swap6\n  pop\n  swap3\n  swap6\n  pop\n  swap3\n  swap6\n  jump\t// out\n    /* \"#utility.yul\":5255:5435   */\ntag_42:\n    /* \"#utility.yul\":5303:5380   */\n  0x4e487b7100000000000000000000000000000000000000000000000000000000\n    /* \"#utility.yul\":5300:5301   */\n  0x00\n    /* \"#utility.yul\":5293:5381   */\n  mstore\n    /* \"#utility.yul\":5400:5404   */\n  0x22\n    /* \"#utility.yul\":5397:5398   */\n  0x04\n    /* \"#utility.yul\":5390:5405   */\n  mstore\n    /* \"#utility.yul\":5424:5428   */\n  0x24\n    /* \"#utility.yul\":5421:5422   */\n  0x00\n    /* \"#utility.yul\":5414:5429   */\n  revert\n    /* \"#utility.yul\":5441:5761   */\ntag_12:\n    /* \"#utility.yul\":5485:5491   */\n  0x00\n    /* \"#utility.yul\":5522:5523   */\n  0x02\n    /* \"#utility.yul\":5516:5520   */\n  dup3\n    /* \"#utility.yul\":5512:5524   */\n  div\n    /* \"#utility.yul\":5502:5524   */\n  swap1\n  pop\n    /* \"#utility.yul\":5569:5570   */\n  0x01\n    /* \"#utility.yul\":5563:5567   */\n  dup3\n    /* \"#utility.yul\":5559:5571   */\n  and\n    /* \"#utility.yul\":5590:5608   */\n  dup1\n    /* \"#utility.yul\":5580:5661   */\n  tag_108\n  jumpi\n    /* \"#utility.yul\":5646:5650   */\n  0x7f\n    /* \"#utility.yul\":5638:5644   */\n  dup3\n    /* \"#utility.yul\":5634:5651   */\n  and\n    /* \"#utility.yul\":5624:5651   */\n  swap2\n  pop\n    /* \"#utility.yul\":5580:5661   */\ntag_108:\n    /* \"#utility.yul\":5708:5710   */\n  0x20\n    /* \"#utility.yul\":5700:5706   */\n  dup3\n    /* \"#utility.yul\":5697:5711   */\n  lt\n    /* \"#utility.yul\":5677:5695   */\n  dup2\n    /* \"#utility.yul\":5674:5712   */\n  eq\n    /* \"#utility.yul\":5671:5755   */\n  iszero\n  tag_109\n  jumpi\n    /* \"#utility.yul\":5727:5745   */\n  tag_110\n  tag_42\n  jump\t// in\ntag_110:\n    /* \"#utility.yul\":5671:5755   */\ntag_109:\n    /* \"#utility.yul\":5492:5761   */\n  pop\n    /* \"#utility.yul\":5441:5761   */\n  swap2\n  swap1\n  pop\n  jump\t// out\n    /* \"Campaign.sol\":1185:5033  contract Campaign {... */\ntag_10:\n  dataSize(sub_0)\n  dup1\n  dataOffset(sub_0)\n  0x00\n  codecopy\n  0x00\n  return\nstop\n\nsub_0: assembly {\n        /* \"Campaign.sol\":1185:5033  contract Campaign {... */\n      mstore(0x40, 0x80)\n      jumpi(tag_1, lt(calldatasize, 0x04))\n      shr(0xe0, calldataload(0x00))\n      dup1\n      0x8a9cfd55\n      gt\n      tag_22\n      jumpi\n      dup1\n      0xd3087b57\n      gt\n      tag_23\n      jumpi\n      dup1\n      0xd3087b57\n      eq\n      tag_17\n      jumpi\n      dup1\n      0xd7bb99ba\n      eq\n      tag_18\n      jumpi\n      dup1\n      0xd7d1bbdb\n      eq\n      tag_19\n      jumpi\n      dup1\n      0xeb7b1312\n      eq\n      tag_20\n      jumpi\n      dup1\n      0xecd1eecf\n      eq\n      tag_21\n      jumpi\n      jump(tag_1)\n    tag_23:\n      dup1\n      0x8a9cfd55\n      eq\n      tag_12\n      jumpi\n      dup1\n      0x937e09b1\n      eq\n      tag_13\n      jumpi\n      dup1\n      0x9a33e300\n      eq\n      tag_14\n      jumpi\n      dup1\n      0x9fb42b1f\n      eq\n      tag_15\n      jumpi\n      dup1\n      0xb90497e0\n      eq\n      tag_16\n      jumpi\n      jump(tag_1)\n    tag_22:\n      dup1\n      0x481c6a75\n      gt\n      tag_24\n      jumpi\n      dup1\n      0x481c6a75\n      eq\n      tag_7\n      jumpi\n      dup1\n      0x4d80e709\n      eq\n      tag_8\n      jumpi\n      dup1\n      0x647c75e2\n      eq\n      tag_9\n      jumpi\n      dup1\n      0x70035047\n      eq\n      tag_10\n      jumpi\n      dup1\n      0x81d12c58\n      eq\n      tag_11\n      jumpi\n      jump(tag_1)\n    tag_24:\n      dup1\n      0x03441006\n      eq\n      tag_2\n      jumpi\n      dup1\n      0x244c3c2c\n      eq\n      tag_3\n      jumpi\n      dup1\n      0x2a16cca4\n      eq\n      tag_4\n      jumpi\n      dup1\n      0x2c5cac63\n      eq\n      tag_5\n      jumpi\n      dup1\n      0x4051ddac\n      eq\n      tag_6\n      jumpi\n    tag_1:\n      0x00\n      dup1\n      revert\n        /* \"Campaign.sol\":4216:4587  function finalizeRequest(uint index) public restricted {... */\n    tag_2:\n      callvalue\n      dup1\n      iszero\n      tag_25\n      jumpi\n      0x00\n      dup1\n      revert\n    tag_25:\n      pop\n      tag_26\n      0x04\n      dup1\n      calldatasize\n      sub\n      dup2\n      add\n      swap1\n      tag_27\n      swap2\n      swap1\n      tag_28\n      jump\t// in\n    tag_27:\n      tag_29\n      jump\t// in\n    tag_26:\n      stop\n        /* \"Campaign.sol\":2807:3099  function deleteCampaign() public payable  {... */\n    tag_3:\n      tag_30\n      tag_31\n      jump\t// in\n    tag_30:\n      stop\n        /* \"Campaign.sol\":4025:4201  function isApproved(address account, uint index) public view returns(bool) {... */\n    tag_4:\n      callvalue\n      dup1\n      iszero\n      tag_32\n      jumpi\n      0x00\n      dup1\n      revert\n    tag_32:\n      pop\n      tag_33\n      0x04\n      dup1\n      calldatasize\n      sub\n      dup2\n      add\n      swap1\n      tag_34\n      swap2\n      swap1\n      tag_35\n      jump\t// in\n    tag_34:\n      tag_36\n      jump\t// in\n    tag_33:\n      mload(0x40)\n      tag_37\n      swap2\n      swap1\n      tag_38\n      jump\t// in\n    tag_37:\n      mload(0x40)\n      dup1\n      swap2\n      sub\n      swap1\n      return\n        /* \"Campaign.sol\":1525:1584  mapping(address => uint) public supporterContributionValues */\n    tag_5:\n      callvalue\n      dup1\n      iszero\n      tag_39\n      jumpi\n      0x00\n      dup1\n      revert\n    tag_39:\n      pop\n      tag_40\n      0x04\n      dup1\n      calldatasize\n      sub\n      dup2\n      add\n      swap1\n      tag_41\n      swap2\n      swap1\n      tag_42\n      jump\t// in\n    tag_41:\n      tag_43\n      jump\t// in\n    tag_40:\n      mload(0x40)\n      tag_44\n      swap2\n      swap1\n      tag_45\n      jump\t// in\n    tag_44:\n      mload(0x40)\n      dup1\n      swap2\n      sub\n      swap1\n      return\n        /* \"Campaign.sol\":4594:5026  function getSummary() public view returns (... */\n    tag_6:\n      callvalue\n      dup1\n      iszero\n      tag_46\n      jumpi\n      0x00\n      dup1\n      revert\n    tag_46:\n      pop\n      tag_47\n      tag_48\n      jump\t// in\n    tag_47:\n      mload(0x40)\n      tag_49\n      swap11\n      swap10\n      swap9\n      swap8\n      swap7\n      swap6\n      swap5\n      swap4\n      swap3\n      swap2\n      swap1\n      tag_50\n      jump\t// in\n    tag_49:\n      mload(0x40)\n      dup1\n      swap2\n      sub\n      swap1\n      return\n        /* \"Campaign.sol\":1209:1231  address public manager */\n    tag_7:\n      callvalue\n      dup1\n      iszero\n      tag_51\n      jumpi\n      0x00\n      dup1\n      revert\n    tag_51:\n      pop\n      tag_52\n      tag_53\n      jump\t// in\n    tag_52:\n      mload(0x40)\n      tag_54\n      swap2\n      swap1\n      tag_55\n      jump\t// in\n    tag_54:\n      mload(0x40)\n      dup1\n      swap2\n      sub\n      swap1\n      return\n        /* \"Campaign.sol\":1474:1519  address payable[] public  supportersAddresses */\n    tag_8:\n      callvalue\n      dup1\n      iszero\n      tag_56\n      jumpi\n      0x00\n      dup1\n      revert\n    tag_56:\n      pop\n      tag_57\n      0x04\n      dup1\n      calldatasize\n      sub\n      dup2\n      add\n      swap1\n      tag_58\n      swap2\n      swap1\n      tag_28\n      jump\t// in\n    tag_58:\n      tag_59\n      jump\t// in\n    tag_57:\n      mload(0x40)\n      tag_60\n      swap2\n      swap1\n      tag_61\n      jump\t// in\n    tag_60:\n      mload(0x40)\n      dup1\n      swap2\n      sub\n      swap1\n      return\n        /* \"Campaign.sol\":1426:1468  mapping(address => bool) public supporters */\n    tag_9:\n      callvalue\n      dup1\n      iszero\n      tag_62\n      jumpi\n      0x00\n      dup1\n      revert\n    tag_62:\n      pop\n      tag_63\n      0x04\n      dup1\n      calldatasize\n      sub\n      dup2\n      add\n      swap1\n      tag_64\n      swap2\n      swap1\n      tag_42\n      jump\t// in\n    tag_64:\n      tag_65\n      jump\t// in\n    tag_63:\n      mload(0x40)\n      tag_66\n      swap2\n      swap1\n      tag_38\n      jump\t// in\n    tag_66:\n      mload(0x40)\n      dup1\n      swap2\n      sub\n      swap1\n      return\n        /* \"Campaign.sol\":1326:1350  uint public financialAim */\n    tag_10:\n      callvalue\n      dup1\n      iszero\n      tag_67\n      jumpi\n      0x00\n      dup1\n      revert\n    tag_67:\n      pop\n      tag_68\n      tag_69\n      jump\t// in\n    tag_68:\n      mload(0x40)\n      tag_70\n      swap2\n      swap1\n      tag_45\n      jump\t// in\n    tag_70:\n      mload(0x40)\n      dup1\n      swap2\n      sub\n      swap1\n      return\n        /* \"Campaign.sol\":1857:1898  mapping (uint => Request) public requests */\n    tag_11:\n      callvalue\n      dup1\n      iszero\n      tag_71\n      jumpi\n      0x00\n      dup1\n      revert\n    tag_71:\n      pop\n      tag_72\n      0x04\n      dup1\n      calldatasize\n      sub\n      dup2\n      add\n      swap1\n      tag_73\n      swap2\n      swap1\n      tag_28\n      jump\t// in\n    tag_73:\n      tag_74\n      jump\t// in\n    tag_72:\n      mload(0x40)\n      tag_75\n      swap6\n      swap5\n      swap4\n      swap3\n      swap2\n      swap1\n      tag_76\n      jump\t// in\n    tag_75:\n      mload(0x40)\n      dup1\n      swap2\n      sub\n      swap1\n      return\n        /* \"Campaign.sol\":3114:3610  function createRequest(string memory description, uint value, address payable recipient)... */\n    tag_12:\n      callvalue\n      dup1\n      iszero\n      tag_77\n      jumpi\n      0x00\n      dup1\n      revert\n    tag_77:\n      pop\n      tag_78\n      0x04\n      dup1\n      calldatasize\n      sub\n      dup2\n      add\n      swap1\n      tag_79\n      swap2\n      swap1\n      tag_80\n      jump\t// in\n    tag_79:\n      tag_81\n      jump\t// in\n    tag_78:\n      stop\n        /* \"Campaign.sol\":1356:1387  uint public minimumContribution */\n    tag_13:\n      callvalue\n      dup1\n      iszero\n      tag_82\n      jumpi\n      0x00\n      dup1\n      revert\n    tag_82:\n      pop\n      tag_83\n      tag_84\n      jump\t// in\n    tag_83:\n      mload(0x40)\n      tag_85\n      swap2\n      swap1\n      tag_45\n      jump\t// in\n    tag_85:\n      mload(0x40)\n      dup1\n      swap2\n      sub\n      swap1\n      return\n        /* \"Campaign.sol\":1237:1262  string public projectName */\n    tag_14:\n      callvalue\n      dup1\n      iszero\n      tag_86\n      jumpi\n      0x00\n      dup1\n      revert\n    tag_86:\n      pop\n      tag_87\n      tag_88\n      jump\t// in\n    tag_87:\n      mload(0x40)\n      tag_89\n      swap2\n      swap1\n      tag_90\n      jump\t// in\n    tag_89:\n      mload(0x40)\n      dup1\n      swap2\n      sub\n      swap1\n      return\n        /* \"Campaign.sol\":1828:1851  uint public numRequests */\n    tag_15:\n      callvalue\n      dup1\n      iszero\n      tag_91\n      jumpi\n      0x00\n      dup1\n      revert\n    tag_91:\n      pop\n      tag_92\n      tag_93\n      jump\t// in\n    tag_92:\n      mload(0x40)\n      tag_94\n      swap2\n      swap1\n      tag_45\n      jump\t// in\n    tag_94:\n      mload(0x40)\n      dup1\n      swap2\n      sub\n      swap1\n      return\n        /* \"Campaign.sol\":1298:1320  string public imageURL */\n    tag_16:\n      callvalue\n      dup1\n      iszero\n      tag_95\n      jumpi\n      0x00\n      dup1\n      revert\n    tag_95:\n      pop\n      tag_96\n      tag_97\n      jump\t// in\n    tag_96:\n      mload(0x40)\n      tag_98\n      swap2\n      swap1\n      tag_90\n      jump\t// in\n    tag_98:\n      mload(0x40)\n      dup1\n      swap2\n      sub\n      swap1\n      return\n        /* \"Campaign.sol\":1268:1292  string public projectAim */\n    tag_17:\n      callvalue\n      dup1\n      iszero\n      tag_99\n      jumpi\n      0x00\n      dup1\n      revert\n    tag_99:\n      pop\n      tag_100\n      tag_101\n      jump\t// in\n    tag_100:\n      mload(0x40)\n      tag_102\n      swap2\n      swap1\n      tag_90\n      jump\t// in\n    tag_102:\n      mload(0x40)\n      dup1\n      swap2\n      sub\n      swap1\n      return\n        /* \"Campaign.sol\":2371:2797  function contribute() public payable {... */\n    tag_18:\n      tag_103\n      tag_104\n      jump\t// in\n    tag_103:\n      stop\n        /* \"Campaign.sol\":3620:4015  function approveRequest(uint index) public {... */\n    tag_19:\n      callvalue\n      dup1\n      iszero\n      tag_105\n      jumpi\n      0x00\n      dup1\n      revert\n    tag_105:\n      pop\n      tag_106\n      0x04\n      dup1\n      calldatasize\n      sub\n      dup2\n      add\n      swap1\n      tag_107\n      swap2\n      swap1\n      tag_28\n      jump\t// in\n    tag_107:\n      tag_108\n      jump\t// in\n    tag_106:\n      stop\n        /* \"Campaign.sol\":1590:1617  uint public supportersCount */\n    tag_20:\n      callvalue\n      dup1\n      iszero\n      tag_109\n      jumpi\n      0x00\n      dup1\n      revert\n    tag_109:\n      pop\n      tag_110\n      tag_111\n      jump\t// in\n    tag_110:\n      mload(0x40)\n      tag_112\n      swap2\n      swap1\n      tag_45\n      jump\t// in\n    tag_112:\n      mload(0x40)\n      dup1\n      swap2\n      sub\n      swap1\n      return\n        /* \"Campaign.sol\":1393:1420  uint public requestsBalance */\n    tag_21:\n      callvalue\n      dup1\n      iszero\n      tag_113\n      jumpi\n      0x00\n      dup1\n      revert\n    tag_113:\n      pop\n      tag_114\n      tag_115\n      jump\t// in\n    tag_114:\n      mload(0x40)\n      tag_116\n      swap2\n      swap1\n      tag_45\n      jump\t// in\n    tag_116:\n      mload(0x40)\n      dup1\n      swap2\n      sub\n      swap1\n      return\n        /* \"Campaign.sol\":4216:4587  function finalizeRequest(uint index) public restricted {... */\n    tag_29:\n        /* \"Campaign.sol\":2297:2304  manager */\n      0x00\n      dup1\n      sload\n      swap1\n      0x0100\n      exp\n      swap1\n      div\n      0xffffffffffffffffffffffffffffffffffffffff\n      and\n        /* \"Campaign.sol\":2283:2304  msg.sender == manager */\n      0xffffffffffffffffffffffffffffffffffffffff\n      and\n        /* \"Campaign.sol\":2283:2293  msg.sender */\n      caller\n        /* \"Campaign.sol\":2283:2304  msg.sender == manager */\n      0xffffffffffffffffffffffffffffffffffffffff\n      and\n      eq\n        /* \"Campaign.sol\":2275:2343  require(msg.sender == manager, \"Only manager can take this action.\") */\n      tag_118\n      jumpi\n      mload(0x40)\n      0x08c379a000000000000000000000000000000000000000000000000000000000\n      dup2\n      mstore\n      0x04\n      add\n      tag_119\n      swap1\n      tag_120\n      jump\t// in\n    tag_119:\n      mload(0x40)\n      dup1\n      swap2\n      sub\n      swap1\n      revert\n    tag_118:\n        /* \"Campaign.sol\":4281:4304  Request storage request */\n      0x00\n        /* \"Campaign.sol\":4307:4315  requests */\n      0x0c\n        /* \"Campaign.sol\":4307:4322  requests[index] */\n      0x00\n        /* \"Campaign.sol\":4316:4321  index */\n      dup4\n        /* \"Campaign.sol\":4307:4322  requests[index] */\n      dup2\n      mstore\n      0x20\n      add\n      swap1\n      dup2\n      mstore\n      0x20\n      add\n      0x00\n      keccak256\n        /* \"Campaign.sol\":4281:4322  Request storage request = requests[index] */\n      swap1\n      pop\n        /* \"Campaign.sol\":4381:4382  2 */\n      0x02\n        /* \"Campaign.sol\":4365:4380  supportersCount */\n      sload(0x0a)\n        /* \"Campaign.sol\":4365:4382  supportersCount/2 */\n      tag_122\n      swap2\n      swap1\n      tag_123\n      jump\t// in\n    tag_122:\n        /* \"Campaign.sol\":4340:4347  request */\n      dup2\n        /* \"Campaign.sol\":4340:4361  request.approvalCount */\n      0x03\n      add\n      sload\n        /* \"Campaign.sol\":4340:4383  request.approvalCount > (supportersCount/2) */\n      gt\n        /* \"Campaign.sol\":4332:4414  require(request.approvalCount > (supportersCount/2), \"Not enough approval ratio.\") */\n      tag_124\n      jumpi\n      mload(0x40)\n      0x08c379a000000000000000000000000000000000000000000000000000000000\n      dup2\n      mstore\n      0x04\n      add\n      tag_125\n      swap1\n      tag_126\n      jump\t// in\n    tag_125:\n      mload(0x40)\n      dup1\n      swap2\n      sub\n      swap1\n      revert\n    tag_124:\n        /* \"Campaign.sol\":4433:4440  request */\n      dup1\n        /* \"Campaign.sol\":4433:4449  request.complete */\n      0x02\n      add\n      0x14\n      swap1\n      sload\n      swap1\n      0x0100\n      exp\n      swap1\n      div\n      0xff\n      and\n        /* \"Campaign.sol\":4432:4449  !request.complete */\n      iszero\n        /* \"Campaign.sol\":4424:4487  require(!request.complete, \"The request is already finalized.\") */\n      tag_127\n      jumpi\n      mload(0x40)\n      0x08c379a000000000000000000000000000000000000000000000000000000000\n      dup2\n      mstore\n      0x04\n      add\n      tag_128\n      swap1\n      tag_129\n      jump\t// in\n    tag_128:\n      mload(0x40)\n      dup1\n      swap2\n      sub\n      swap1\n      revert\n    tag_127:\n        /* \"Campaign.sol\":4506:4513  request */\n      dup1\n        /* \"Campaign.sol\":4506:4523  request.recipient */\n      0x02\n      add\n      0x00\n      swap1\n      sload\n      swap1\n      0x0100\n      exp\n      swap1\n      div\n      0xffffffffffffffffffffffffffffffffffffffff\n      and\n        /* \"Campaign.sol\":4506:4532  request.recipient.transfer */\n      0xffffffffffffffffffffffffffffffffffffffff\n      and\n        /* \"Campaign.sol\":4506:4547  request.recipient.transfer(request.value) */\n      0x08fc\n        /* \"Campaign.sol\":4533:4540  request */\n      dup3\n        /* \"Campaign.sol\":4533:4546  request.value */\n      0x01\n      add\n      sload\n        /* \"Campaign.sol\":4506:4547  request.recipient.transfer(request.value) */\n      swap1\n      dup2\n      iszero\n      mul\n      swap1\n      mload(0x40)\n      0x00\n      mload(0x40)\n      dup1\n      dup4\n      sub\n      dup2\n      dup6\n      dup9\n      dup9\n      call\n      swap4\n      pop\n      pop\n      pop\n      pop\n      iszero\n      dup1\n      iszero\n      tag_131\n      jumpi\n      returndatasize\n      0x00\n      dup1\n      returndatacopy\n      revert(0x00, returndatasize)\n    tag_131:\n      pop\n        /* \"Campaign.sol\":4576:4580  true */\n      0x01\n        /* \"Campaign.sol\":4557:4564  request */\n      dup2\n        /* \"Campaign.sol\":4557:4573  request.complete */\n      0x02\n      add\n      0x14\n        /* \"Campaign.sol\":4557:4580  request.complete = true */\n      0x0100\n      exp\n      dup2\n      sload\n      dup2\n      0xff\n      mul\n      not\n      and\n      swap1\n      dup4\n      iszero\n      iszero\n      mul\n      or\n      swap1\n      sstore\n      pop\n        /* \"Campaign.sol\":4271:4587  {... */\n      pop\n        /* \"Campaign.sol\":4216:4587  function finalizeRequest(uint index) public restricted {... */\n      pop\n      jump\t// out\n        /* \"Campaign.sol\":2807:3099  function deleteCampaign() public payable  {... */\n    tag_31:\n        /* \"Campaign.sol\":2864:2870  uint i */\n      0x00\n        /* \"Campaign.sol\":2859:3018  for (uint i=0; i<supportersAddresses.length; i++) {... */\n    tag_133:\n        /* \"Campaign.sol\":2876:2895  supportersAddresses */\n      0x08\n        /* \"Campaign.sol\":2876:2902  supportersAddresses.length */\n      dup1\n      sload\n      swap1\n      pop\n        /* \"Campaign.sol\":2874:2875  i */\n      dup2\n        /* \"Campaign.sol\":2874:2902  i<supportersAddresses.length */\n      lt\n        /* \"Campaign.sol\":2859:3018  for (uint i=0; i<supportersAddresses.length; i++) {... */\n      iszero\n      tag_134\n      jumpi\n        /* \"Campaign.sol\":2923:2942  supportersAddresses */\n      0x08\n        /* \"Campaign.sol\":2943:2944  i */\n      dup2\n        /* \"Campaign.sol\":2923:2945  supportersAddresses[i] */\n      dup2\n      sload\n      dup2\n      lt\n      tag_136\n      jumpi\n      tag_137\n      tag_138\n      jump\t// in\n    tag_137:\n    tag_136:\n      swap1\n      0x00\n      mstore\n      keccak256(0x00, 0x20)\n      add\n      0x00\n      swap1\n      sload\n      swap1\n      0x0100\n      exp\n      swap1\n      div\n      0xffffffffffffffffffffffffffffffffffffffff\n      and\n        /* \"Campaign.sol\":2923:2954  supportersAddresses[i].transfer */\n      0xffffffffffffffffffffffffffffffffffffffff\n      and\n        /* \"Campaign.sol\":2923:3007  supportersAddresses[i].transfer(supporterContributionValues[supportersAddresses[i]]) */\n      0x08fc\n        /* \"Campaign.sol\":2955:2982  supporterContributionValues */\n      0x09\n        /* \"Campaign.sol\":2955:3006  supporterContributionValues[supportersAddresses[i]] */\n      0x00\n        /* \"Campaign.sol\":2983:3002  supportersAddresses */\n      0x08\n        /* \"Campaign.sol\":3003:3004  i */\n      dup6\n        /* \"Campaign.sol\":2983:3005  supportersAddresses[i] */\n      dup2\n      sload\n      dup2\n      lt\n      tag_140\n      jumpi\n      tag_141\n      tag_138\n      jump\t// in\n    tag_141:\n    tag_140:\n      swap1\n      0x00\n      mstore\n      keccak256(0x00, 0x20)\n      add\n      0x00\n      swap1\n      sload\n      swap1\n      0x0100\n      exp\n      swap1\n      div\n      0xffffffffffffffffffffffffffffffffffffffff\n      and\n        /* \"Campaign.sol\":2955:3006  supporterContributionValues[supportersAddresses[i]] */\n      0xffffffffffffffffffffffffffffffffffffffff\n      and\n      0xffffffffffffffffffffffffffffffffffffffff\n      and\n      dup2\n      mstore\n      0x20\n      add\n      swap1\n      dup2\n      mstore\n      0x20\n      add\n      0x00\n      keccak256\n      sload\n        /* \"Campaign.sol\":2923:3007  supportersAddresses[i].transfer(supporterContributionValues[supportersAddresses[i]]) */\n      swap1\n      dup2\n      iszero\n      mul\n      swap1\n      mload(0x40)\n      0x00\n      mload(0x40)\n      dup1\n      dup4\n      sub\n      dup2\n      dup6\n      dup9\n      dup9\n      call\n      swap4\n      pop\n      pop\n      pop\n      pop\n      iszero\n      dup1\n      iszero\n      tag_144\n      jumpi\n      returndatasize\n      0x00\n      dup1\n      returndatacopy\n      revert(0x00, returndatasize)\n    tag_144:\n      pop\n        /* \"Campaign.sol\":2904:2907  i++ */\n      dup1\n      dup1\n      tag_145\n      swap1\n      tag_146\n      jump\t// in\n    tag_145:\n      swap2\n      pop\n      pop\n        /* \"Campaign.sol\":2859:3018  for (uint i=0; i<supportersAddresses.length; i++) {... */\n      jump(tag_133)\n    tag_134:\n      pop\n        /* \"Campaign.sol\":3048:3090  0x35b2E2b694A6A4c28F6631A905fB87eca330469d */\n      0x35b2e2b694a6a4c28f6631a905fb87eca330469d\n        /* \"Campaign.sol\":3027:3092  selfdestruct(payable(0x35b2E2b694A6A4c28F6631A905fB87eca330469d)) */\n      0xffffffffffffffffffffffffffffffffffffffff\n      and\n      selfdestruct\n        /* \"Campaign.sol\":4025:4201  function isApproved(address account, uint index) public view returns(bool) {... */\n    tag_36:\n        /* \"Campaign.sol\":4094:4098  bool */\n      0x00\n        /* \"Campaign.sol\":4110:4133  Request storage request */\n      dup1\n        /* \"Campaign.sol\":4136:4144  requests */\n      0x0c\n        /* \"Campaign.sol\":4136:4151  requests[index] */\n      0x00\n        /* \"Campaign.sol\":4145:4150  index */\n      dup5\n        /* \"Campaign.sol\":4136:4151  requests[index] */\n      dup2\n      mstore\n      0x20\n      add\n      swap1\n      dup2\n      mstore\n      0x20\n      add\n      0x00\n      keccak256\n        /* \"Campaign.sol\":4110:4151  Request storage request = requests[index] */\n      swap1\n      pop\n        /* \"Campaign.sol\":4168:4175  request */\n      dup1\n        /* \"Campaign.sol\":4168:4185  request.approvals */\n      0x04\n      add\n        /* \"Campaign.sol\":4168:4194  request.approvals[account] */\n      0x00\n        /* \"Campaign.sol\":4186:4193  account */\n      dup6\n        /* \"Campaign.sol\":4168:4194  request.approvals[account] */\n      0xffffffffffffffffffffffffffffffffffffffff\n      and\n      0xffffffffffffffffffffffffffffffffffffffff\n      and\n      dup2\n      mstore\n      0x20\n      add\n      swap1\n      dup2\n      mstore\n      0x20\n      add\n      0x00\n      keccak256\n      0x00\n      swap1\n      sload\n      swap1\n      0x0100\n      exp\n      swap1\n      div\n      0xff\n      and\n        /* \"Campaign.sol\":4161:4194  return request.approvals[account] */\n      swap2\n      pop\n      pop\n        /* \"Campaign.sol\":4025:4201  function isApproved(address account, uint index) public view returns(bool) {... */\n      swap3\n      swap2\n      pop\n      pop\n      jump\t// out\n        /* \"Campaign.sol\":1525:1584  mapping(address => uint) public supporterContributionValues */\n    tag_43:\n      mstore(0x20, 0x09)\n      dup1\n      0x00\n      mstore\n      keccak256(0x00, 0x40)\n      0x00\n      swap2\n      pop\n      swap1\n      pop\n      sload\n      dup2\n      jump\t// out\n        /* \"Campaign.sol\":4594:5026  function getSummary() public view returns (... */\n    tag_48:\n        /* \"Campaign.sol\":4644:4648  uint */\n      0x00\n        /* \"Campaign.sol\":4650:4654  uint */\n      dup1\n        /* \"Campaign.sol\":4656:4660  uint */\n      0x00\n        /* \"Campaign.sol\":4662:4666  uint */\n      dup1\n        /* \"Campaign.sol\":4668:4675  address */\n      0x00\n        /* \"Campaign.sol\":4678:4691  string memory */\n      0x60\n        /* \"Campaign.sol\":4694:4707  string memory */\n      dup1\n        /* \"Campaign.sol\":4709:4713  uint */\n      0x00\n        /* \"Campaign.sol\":4715:4728  string memory */\n      0x60\n        /* \"Campaign.sol\":4730:4734  uint */\n      0x00\n        /* \"Campaign.sol\":4772:4791  minimumContribution */\n      sload(0x05)\n        /* \"Campaign.sol\":4803:4824  address(this).balance */\n      selfbalance\n        /* \"Campaign.sol\":4836:4847  numRequests */\n      sload(0x0b)\n        /* \"Campaign.sol\":4859:4874  supportersCount */\n      sload(0x0a)\n        /* \"Campaign.sol\":4886:4893  manager */\n      0x00\n      dup1\n      sload\n      swap1\n      0x0100\n      exp\n      swap1\n      div\n      0xffffffffffffffffffffffffffffffffffffffff\n      and\n        /* \"Campaign.sol\":4905:4916  projectName */\n      0x01\n        /* \"Campaign.sol\":4928:4938  projectAim */\n      0x02\n        /* \"Campaign.sol\":4950:4962  financialAim */\n      sload(0x04)\n        /* \"Campaign.sol\":4974:4982  imageURL */\n      0x03\n        /* \"Campaign.sol\":4994:5009  requestsBalance */\n      sload(0x06)\n        /* \"Campaign.sol\":4753:5019  return (... */\n      dup5\n      dup1\n      sload\n      tag_149\n      swap1\n      tag_150\n      jump\t// in\n    tag_149:\n      dup1\n      0x1f\n      add\n      0x20\n      dup1\n      swap2\n      div\n      mul\n      0x20\n      add\n      mload(0x40)\n      swap1\n      dup2\n      add\n      0x40\n      mstore\n      dup1\n      swap3\n      swap2\n      swap1\n      dup2\n      dup2\n      mstore\n      0x20\n      add\n      dup3\n      dup1\n      sload\n      tag_151\n      swap1\n      tag_150\n      jump\t// in\n    tag_151:\n      dup1\n      iszero\n      tag_152\n      jumpi\n      dup1\n      0x1f\n      lt\n      tag_153\n      jumpi\n      0x0100\n      dup1\n      dup4\n      sload\n      div\n      mul\n      dup4\n      mstore\n      swap2\n      0x20\n      add\n      swap2\n      jump(tag_152)\n    tag_153:\n      dup3\n      add\n      swap2\n      swap1\n      0x00\n      mstore\n      keccak256(0x00, 0x20)\n      swap1\n    tag_154:\n      dup2\n      sload\n      dup2\n      mstore\n      swap1\n      0x01\n      add\n      swap1\n      0x20\n      add\n      dup1\n      dup4\n      gt\n      tag_154\n      jumpi\n      dup3\n      swap1\n      sub\n      0x1f\n      and\n      dup3\n      add\n      swap2\n    tag_152:\n      pop\n      pop\n      pop\n      pop\n      pop\n      swap5\n      pop\n      dup4\n      dup1\n      sload\n      tag_155\n      swap1\n      tag_150\n      jump\t// in\n    tag_155:\n      dup1\n      0x1f\n      add\n      0x20\n      dup1\n      swap2\n      div\n      mul\n      0x20\n      add\n      mload(0x40)\n      swap1\n      dup2\n      add\n      0x40\n      mstore\n      dup1\n      swap3\n      swap2\n      swap1\n      dup2\n      dup2\n      mstore\n      0x20\n      add\n      dup3\n      dup1\n      sload\n      tag_156\n      swap1\n      tag_150\n      jump\t// in\n    tag_156:\n      dup1\n      iszero\n      tag_157\n      jumpi\n      dup1\n      0x1f\n      lt\n      tag_158\n      jumpi\n      0x0100\n      dup1\n      dup4\n      sload\n      div\n      mul\n      dup4\n      mstore\n      swap2\n      0x20\n      add\n      swap2\n      jump(tag_157)\n    tag_158:\n      dup3\n      add\n      swap2\n      swap1\n      0x00\n      mstore\n      keccak256(0x00, 0x20)\n      swap1\n    tag_159:\n      dup2\n      sload\n      dup2\n      mstore\n      swap1\n      0x01\n      add\n      swap1\n      0x20\n      add\n      dup1\n      dup4\n      gt\n      tag_159\n      jumpi\n      dup3\n      swap1\n      sub\n      0x1f\n      and\n      dup3\n      add\n      swap2\n    tag_157:\n      pop\n      pop\n      pop\n      pop\n      pop\n      swap4\n      pop\n      dup2\n      dup1\n      sload\n      tag_160\n      swap1\n      tag_150\n      jump\t// in\n    tag_160:\n      dup1\n      0x1f\n      add\n      0x20\n      dup1\n      swap2\n      div\n      mul\n      0x20\n      add\n      mload(0x40)\n      swap1\n      dup2\n      add\n      0x40\n      mstore\n      dup1\n      swap3\n      swap2\n      swap1\n      dup2\n      dup2\n      mstore\n      0x20\n      add\n      dup3\n      dup1\n      sload\n      tag_161\n      swap1\n      tag_150\n      jump\t// in\n    tag_161:\n      dup1\n      iszero\n      tag_162\n      jumpi\n      dup1\n      0x1f\n      lt\n      tag_163\n      jumpi\n      0x0100\n      dup1\n      dup4\n      sload\n      div\n      mul\n      dup4\n      mstore\n      swap2\n      0x20\n      add\n      swap2\n      jump(tag_162)\n    tag_163:\n      dup3\n      add\n      swap2\n      swap1\n      0x00\n      mstore\n      keccak256(0x00, 0x20)\n      swap1\n    tag_164:\n      dup2\n      sload\n      dup2\n      mstore\n      swap1\n      0x01\n      add\n      swap1\n      0x20\n      add\n      dup1\n      dup4\n      gt\n      tag_164\n      jumpi\n      dup3\n      swap1\n      sub\n      0x1f\n      and\n      dup3\n      add\n      swap2\n    tag_162:\n      pop\n      pop\n      pop\n      pop\n      pop\n      swap2\n      pop\n      swap10\n      pop\n      swap10\n      pop\n      swap10\n      pop\n      swap10\n      pop\n      swap10\n      pop\n      swap10\n      pop\n      swap10\n      pop\n      swap10\n      pop\n      swap10\n      pop\n      swap10\n      pop\n        /* \"Campaign.sol\":4594:5026  function getSummary() public view returns (... */\n      swap1\n      swap2\n      swap3\n      swap4\n      swap5\n      swap6\n      swap7\n      swap8\n      swap9\n      swap10\n      jump\t// out\n        /* \"Campaign.sol\":1209:1231  address public manager */\n    tag_53:\n      0x00\n      dup1\n      sload\n      swap1\n      0x0100\n      exp\n      swap1\n      div\n      0xffffffffffffffffffffffffffffffffffffffff\n      and\n      dup2\n      jump\t// out\n        /* \"Campaign.sol\":1474:1519  address payable[] public  supportersAddresses */\n    tag_59:\n      0x08\n      dup2\n      dup2\n      sload\n      dup2\n      lt\n      tag_165\n      jumpi\n      0x00\n      dup1\n      revert\n    tag_165:\n      swap1\n      0x00\n      mstore\n      keccak256(0x00, 0x20)\n      add\n      0x00\n      swap2\n      pop\n      sload\n      swap1\n      0x0100\n      exp\n      swap1\n      div\n      0xffffffffffffffffffffffffffffffffffffffff\n      and\n      dup2\n      jump\t// out\n        /* \"Campaign.sol\":1426:1468  mapping(address => bool) public supporters */\n    tag_65:\n      mstore(0x20, 0x07)\n      dup1\n      0x00\n      mstore\n      keccak256(0x00, 0x40)\n      0x00\n      swap2\n      pop\n      sload\n      swap1\n      0x0100\n      exp\n      swap1\n      div\n      0xff\n      and\n      dup2\n      jump\t// out\n        /* \"Campaign.sol\":1326:1350  uint public financialAim */\n    tag_69:\n      sload(0x04)\n      dup2\n      jump\t// out\n        /* \"Campaign.sol\":1857:1898  mapping (uint => Request) public requests */\n    tag_74:\n      mstore(0x20, 0x0c)\n      dup1\n      0x00\n      mstore\n      keccak256(0x00, 0x40)\n      0x00\n      swap2\n      pop\n      swap1\n      pop\n      dup1\n      0x00\n      add\n      dup1\n      sload\n      tag_167\n      swap1\n      tag_150\n      jump\t// in\n    tag_167:\n      dup1\n      0x1f\n      add\n      0x20\n      dup1\n      swap2\n      div\n      mul\n      0x20\n      add\n      mload(0x40)\n      swap1\n      dup2\n      add\n      0x40\n      mstore\n      dup1\n      swap3\n      swap2\n      swap1\n      dup2\n      dup2\n      mstore\n      0x20\n      add\n      dup3\n      dup1\n      sload\n      tag_168\n      swap1\n      tag_150\n      jump\t// in\n    tag_168:\n      dup1\n      iszero\n      tag_169\n      jumpi\n      dup1\n      0x1f\n      lt\n      tag_170\n      jumpi\n      0x0100\n      dup1\n      dup4\n      sload\n      div\n      mul\n      dup4\n      mstore\n      swap2\n      0x20\n      add\n      swap2\n      jump(tag_169)\n    tag_170:\n      dup3\n      add\n      swap2\n      swap1\n      0x00\n      mstore\n      keccak256(0x00, 0x20)\n      swap1\n    tag_171:\n      dup2\n      sload\n      dup2\n      mstore\n      swap1\n      0x01\n      add\n      swap1\n      0x20\n      add\n      dup1\n      dup4\n      gt\n      tag_171\n      jumpi\n      dup3\n      swap1\n      sub\n      0x1f\n      and\n      dup3\n      add\n      swap2\n    tag_169:\n      pop\n      pop\n      pop\n      pop\n      pop\n      swap1\n      dup1\n      0x01\n      add\n      sload\n      swap1\n      dup1\n      0x02\n      add\n      0x00\n      swap1\n      sload\n      swap1\n      0x0100\n      exp\n      swap1\n      div\n      0xffffffffffffffffffffffffffffffffffffffff\n      and\n      swap1\n      dup1\n      0x02\n      add\n      0x14\n      swap1\n      sload\n      swap1\n      0x0100\n      exp\n      swap1\n      div\n      0xff\n      and\n      swap1\n      dup1\n      0x03\n      add\n      sload\n      swap1\n      pop\n      dup6\n      jump\t// out\n        /* \"Campaign.sol\":3114:3610  function createRequest(string memory description, uint value, address payable recipient)... */\n    tag_81:\n        /* \"Campaign.sol\":2297:2304  manager */\n      0x00\n      dup1\n      sload\n      swap1\n      0x0100\n      exp\n      swap1\n      div\n      0xffffffffffffffffffffffffffffffffffffffff\n      and\n        /* \"Campaign.sol\":2283:2304  msg.sender == manager */\n      0xffffffffffffffffffffffffffffffffffffffff\n      and\n        /* \"Campaign.sol\":2283:2293  msg.sender */\n      caller\n        /* \"Campaign.sol\":2283:2304  msg.sender == manager */\n      0xffffffffffffffffffffffffffffffffffffffff\n      and\n      eq\n        /* \"Campaign.sol\":2275:2343  require(msg.sender == manager, \"Only manager can take this action.\") */\n      tag_173\n      jumpi\n      mload(0x40)\n      0x08c379a000000000000000000000000000000000000000000000000000000000\n      dup2\n      mstore\n      0x04\n      add\n      tag_174\n      swap1\n      tag_120\n      jump\t// in\n    tag_174:\n      mload(0x40)\n      dup1\n      swap2\n      sub\n      swap1\n      revert\n    tag_173:\n        /* \"Campaign.sol\":3271:3292  address(this).balance */\n      selfbalance\n        /* \"Campaign.sol\":3262:3267  value */\n      dup3\n        /* \"Campaign.sol\":3244:3259  requestsBalance */\n      sload(0x06)\n        /* \"Campaign.sol\":3244:3267  requestsBalance + value */\n      tag_176\n      swap2\n      swap1\n      tag_177\n      jump\t// in\n    tag_176:\n        /* \"Campaign.sol\":3244:3292  requestsBalance + value <= address(this).balance */\n      gt\n      iszero\n        /* \"Campaign.sol\":3236:3345  require(requestsBalance + value <= address(this).balance, \"You can't request ether more than your balance.\" ) */\n      tag_178\n      jumpi\n      mload(0x40)\n      0x08c379a000000000000000000000000000000000000000000000000000000000\n      dup2\n      mstore\n      0x04\n      add\n      tag_179\n      swap1\n      tag_180\n      jump\t// in\n    tag_179:\n      mload(0x40)\n      dup1\n      swap2\n      sub\n      swap1\n      revert\n    tag_178:\n        /* \"Campaign.sol\":3392:3397  value */\n      dup2\n        /* \"Campaign.sol\":3374:3389  requestsBalance */\n      sload(0x06)\n        /* \"Campaign.sol\":3374:3397  requestsBalance + value */\n      tag_181\n      swap2\n      swap1\n      tag_177\n      jump\t// in\n    tag_181:\n        /* \"Campaign.sol\":3356:3371  requestsBalance */\n      0x06\n        /* \"Campaign.sol\":3356:3397  requestsBalance = requestsBalance + value */\n      dup2\n      swap1\n      sstore\n      pop\n        /* \"Campaign.sol\":3407:3424  Request storage r */\n      0x00\n        /* \"Campaign.sol\":3427:3435  requests */\n      0x0c\n        /* \"Campaign.sol\":3427:3450  requests[numRequests++] */\n      0x00\n        /* \"Campaign.sol\":3436:3447  numRequests */\n      0x0b\n      0x00\n        /* \"Campaign.sol\":3436:3449  numRequests++ */\n      dup2\n      sload\n      dup1\n      swap3\n      swap2\n      swap1\n      tag_182\n      swap1\n      tag_146\n      jump\t// in\n    tag_182:\n      swap2\n      swap1\n      pop\n      sstore\n        /* \"Campaign.sol\":3427:3450  requests[numRequests++] */\n      dup2\n      mstore\n      0x20\n      add\n      swap1\n      dup2\n      mstore\n      0x20\n      add\n      0x00\n      keccak256\n        /* \"Campaign.sol\":3407:3450  Request storage r = requests[numRequests++] */\n      swap1\n      pop\n        /* \"Campaign.sol\":3476:3487  description */\n      dup4\n        /* \"Campaign.sol\":3460:3461  r */\n      dup2\n        /* \"Campaign.sol\":3460:3473  r.description */\n      0x00\n      add\n        /* \"Campaign.sol\":3460:3487  r.description = description */\n      swap1\n      dup1\n      mload\n      swap1\n      0x20\n      add\n      swap1\n      tag_183\n      swap3\n      swap2\n      swap1\n      tag_184\n      jump\t// in\n    tag_183:\n      pop\n        /* \"Campaign.sol\":3507:3512  value */\n      dup3\n        /* \"Campaign.sol\":3497:3498  r */\n      dup2\n        /* \"Campaign.sol\":3497:3504  r.value */\n      0x01\n      add\n        /* \"Campaign.sol\":3497:3512  r.value = value */\n      dup2\n      swap1\n      sstore\n      pop\n        /* \"Campaign.sol\":3536:3545  recipient */\n      dup2\n        /* \"Campaign.sol\":3522:3523  r */\n      dup2\n        /* \"Campaign.sol\":3522:3533  r.recipient */\n      0x02\n      add\n      0x00\n        /* \"Campaign.sol\":3522:3545  r.recipient = recipient */\n      0x0100\n      exp\n      dup2\n      sload\n      dup2\n      0xffffffffffffffffffffffffffffffffffffffff\n      mul\n      not\n      and\n      swap1\n      dup4\n      0xffffffffffffffffffffffffffffffffffffffff\n      and\n      mul\n      or\n      swap1\n      sstore\n      pop\n        /* \"Campaign.sol\":3568:3573  false */\n      0x00\n        /* \"Campaign.sol\":3555:3556  r */\n      dup2\n        /* \"Campaign.sol\":3555:3565  r.complete */\n      0x02\n      add\n      0x14\n        /* \"Campaign.sol\":3555:3573  r.complete = false */\n      0x0100\n      exp\n      dup2\n      sload\n      dup2\n      0xff\n      mul\n      not\n      and\n      swap1\n      dup4\n      iszero\n      iszero\n      mul\n      or\n      swap1\n      sstore\n      pop\n        /* \"Campaign.sol\":3601:3602  0 */\n      0x00\n        /* \"Campaign.sol\":3583:3584  r */\n      dup2\n        /* \"Campaign.sol\":3583:3598  r.approvalCount */\n      0x03\n      add\n        /* \"Campaign.sol\":3583:3602  r.approvalCount = 0 */\n      dup2\n      swap1\n      sstore\n      pop\n        /* \"Campaign.sol\":3226:3610  {... */\n      pop\n        /* \"Campaign.sol\":3114:3610  function createRequest(string memory description, uint value, address payable recipient)... */\n      pop\n      pop\n      pop\n      jump\t// out\n        /* \"Campaign.sol\":1356:1387  uint public minimumContribution */\n    tag_84:\n      sload(0x05)\n      dup2\n      jump\t// out\n        /* \"Campaign.sol\":1237:1262  string public projectName */\n    tag_88:\n      0x01\n      dup1\n      sload\n      tag_185\n      swap1\n      tag_150\n      jump\t// in\n    tag_185:\n      dup1\n      0x1f\n      add\n      0x20\n      dup1\n      swap2\n      div\n      mul\n      0x20\n      add\n      mload(0x40)\n      swap1\n      dup2\n      add\n      0x40\n      mstore\n      dup1\n      swap3\n      swap2\n      swap1\n      dup2\n      dup2\n      mstore\n      0x20\n      add\n      dup3\n      dup1\n      sload\n      tag_186\n      swap1\n      tag_150\n      jump\t// in\n    tag_186:\n      dup1\n      iszero\n      tag_187\n      jumpi\n      dup1\n      0x1f\n      lt\n      tag_188\n      jumpi\n      0x0100\n      dup1\n      dup4\n      sload\n      div\n      mul\n      dup4\n      mstore\n      swap2\n      0x20\n      add\n      swap2\n      jump(tag_187)\n    tag_188:\n      dup3\n      add\n      swap2\n      swap1\n      0x00\n      mstore\n      keccak256(0x00, 0x20)\n      swap1\n    tag_189:\n      dup2\n      sload\n      dup2\n      mstore\n      swap1\n      0x01\n      add\n      swap1\n      0x20\n      add\n      dup1\n      dup4\n      gt\n      tag_189\n      jumpi\n      dup3\n      swap1\n      sub\n      0x1f\n      and\n      dup3\n      add\n      swap2\n    tag_187:\n      pop\n      pop\n      pop\n      pop\n      pop\n      dup2\n      jump\t// out\n        /* \"Campaign.sol\":1828:1851  uint public numRequests */\n    tag_93:\n      sload(0x0b)\n      dup2\n      jump\t// out\n        /* \"Campaign.sol\":1298:1320  string public imageURL */\n    tag_97:\n      0x03\n      dup1\n      sload\n      tag_190\n      swap1\n      tag_150\n      jump\t// in\n    tag_190:\n      dup1\n      0x1f\n      add\n      0x20\n      dup1\n      swap2\n      div\n      mul\n      0x20\n      add\n      mload(0x40)\n      swap1\n      dup2\n      add\n      0x40\n      mstore\n      dup1\n      swap3\n      swap2\n      swap1\n      dup2\n      dup2\n      mstore\n      0x20\n      add\n      dup3\n      dup1\n      sload\n      tag_191\n      swap1\n      tag_150\n      jump\t// in\n    tag_191:\n      dup1\n      iszero\n      tag_192\n      jumpi\n      dup1\n      0x1f\n      lt\n      tag_193\n      jumpi\n      0x0100\n      dup1\n      dup4\n      sload\n      div\n      mul\n      dup4\n      mstore\n      swap2\n      0x20\n      add\n      swap2\n      jump(tag_192)\n    tag_193:\n      dup3\n      add\n      swap2\n      swap1\n      0x00\n      mstore\n      keccak256(0x00, 0x20)\n      swap1\n    tag_194:\n      dup2\n      sload\n      dup2\n      mstore\n      swap1\n      0x01\n      add\n      swap1\n      0x20\n      add\n      dup1\n      dup4\n      gt\n      tag_194\n      jumpi\n      dup3\n      swap1\n      sub\n      0x1f\n      and\n      dup3\n      add\n      swap2\n    tag_192:\n      pop\n      pop\n      pop\n      pop\n      pop\n      dup2\n      jump\t// out\n        /* \"Campaign.sol\":1268:1292  string public projectAim */\n    tag_101:\n      0x02\n      dup1\n      sload\n      tag_195\n      swap1\n      tag_150\n      jump\t// in\n    tag_195:\n      dup1\n      0x1f\n      add\n      0x20\n      dup1\n      swap2\n      div\n      mul\n      0x20\n      add\n      mload(0x40)\n      swap1\n      dup2\n      add\n      0x40\n      mstore\n      dup1\n      swap3\n      swap2\n      swap1\n      dup2\n      dup2\n      mstore\n      0x20\n      add\n      dup3\n      dup1\n      sload\n      tag_196\n      swap1\n      tag_150\n      jump\t// in\n    tag_196:\n      dup1\n      iszero\n      tag_197\n      jumpi\n      dup1\n      0x1f\n      lt\n      tag_198\n      jumpi\n      0x0100\n      dup1\n      dup4\n      sload\n      div\n      mul\n      dup4\n      mstore\n      swap2\n      0x20\n      add\n      swap2\n      jump(tag_197)\n    tag_198:\n      dup3\n      add\n      swap2\n      swap1\n      0x00\n      mstore\n      keccak256(0x00, 0x20)\n      swap1\n    tag_199:\n      dup2\n      sload\n      dup2\n      mstore\n      swap1\n      0x01\n      add\n      swap1\n      0x20\n      add\n      dup1\n      dup4\n      gt\n      tag_199\n      jumpi\n      dup3\n      swap1\n      sub\n      0x1f\n      and\n      dup3\n      add\n      swap2\n    tag_197:\n      pop\n      pop\n      pop\n      pop\n      pop\n      dup2\n      jump\t// out\n        /* \"Campaign.sol\":2371:2797  function contribute() public payable {... */\n    tag_104:\n        /* \"Campaign.sol\":2438:2457  minimumContribution */\n      sload(0x05)\n        /* \"Campaign.sol\":2426:2435  msg.value */\n      callvalue\n        /* \"Campaign.sol\":2426:2457  msg.value > minimumContribution */\n      gt\n        /* \"Campaign.sol\":2418:2509  require(msg.value > minimumContribution, \"You should contribute more than minimum amount.\") */\n      tag_201\n      jumpi\n      mload(0x40)\n      0x08c379a000000000000000000000000000000000000000000000000000000000\n      dup2\n      mstore\n      0x04\n      add\n      tag_202\n      swap1\n      tag_203\n      jump\t// in\n    tag_202:\n      mload(0x40)\n      dup1\n      swap2\n      sub\n      swap1\n      revert\n    tag_201:\n        /* \"Campaign.sol\":2553:2558  false */\n      0x00\n        /* \"Campaign.sol\":2527:2558  supporters[msg.sender] == false */\n      iszero\n      iszero\n        /* \"Campaign.sol\":2527:2537  supporters */\n      0x07\n        /* \"Campaign.sol\":2527:2549  supporters[msg.sender] */\n      0x00\n        /* \"Campaign.sol\":2538:2548  msg.sender */\n      caller\n        /* \"Campaign.sol\":2527:2549  supporters[msg.sender] */\n      0xffffffffffffffffffffffffffffffffffffffff\n      and\n      0xffffffffffffffffffffffffffffffffffffffff\n      and\n      dup2\n      mstore\n      0x20\n      add\n      swap1\n      dup2\n      mstore\n      0x20\n      add\n      0x00\n      keccak256\n      0x00\n      swap1\n      sload\n      swap1\n      0x0100\n      exp\n      swap1\n      div\n      0xff\n      and\n        /* \"Campaign.sol\":2527:2558  supporters[msg.sender] == false */\n      iszero\n      iszero\n      eq\n        /* \"Campaign.sol\":2519:2608  require(supporters[msg.sender] == false, \"You are already contributed to this campaing.\") */\n      tag_204\n      jumpi\n      mload(0x40)\n      0x08c379a000000000000000000000000000000000000000000000000000000000\n      dup2\n      mstore\n      0x04\n      add\n      tag_205\n      swap1\n      tag_206\n      jump\t// in\n    tag_205:\n      mload(0x40)\n      dup1\n      swap2\n      sub\n      swap1\n      revert\n    tag_204:\n        /* \"Campaign.sol\":2643:2647  true */\n      0x01\n        /* \"Campaign.sol\":2618:2628  supporters */\n      0x07\n        /* \"Campaign.sol\":2618:2640  supporters[msg.sender] */\n      0x00\n        /* \"Campaign.sol\":2629:2639  msg.sender */\n      caller\n        /* \"Campaign.sol\":2618:2640  supporters[msg.sender] */\n      0xffffffffffffffffffffffffffffffffffffffff\n      and\n      0xffffffffffffffffffffffffffffffffffffffff\n      and\n      dup2\n      mstore\n      0x20\n      add\n      swap1\n      dup2\n      mstore\n      0x20\n      add\n      0x00\n      keccak256\n      0x00\n        /* \"Campaign.sol\":2618:2647  supporters[msg.sender] = true */\n      0x0100\n      exp\n      dup2\n      sload\n      dup2\n      0xff\n      mul\n      not\n      and\n      swap1\n      dup4\n      iszero\n      iszero\n      mul\n      or\n      swap1\n      sstore\n      pop\n        /* \"Campaign.sol\":2657:2672  supportersCount */\n      0x0a\n      0x00\n        /* \"Campaign.sol\":2657:2674  supportersCount++ */\n      dup2\n      sload\n      dup1\n      swap3\n      swap2\n      swap1\n      tag_207\n      swap1\n      tag_146\n      jump\t// in\n    tag_207:\n      swap2\n      swap1\n      pop\n      sstore\n      pop\n        /* \"Campaign.sol\":2726:2735  msg.value */\n      callvalue\n        /* \"Campaign.sol\":2684:2711  supporterContributionValues */\n      0x09\n        /* \"Campaign.sol\":2684:2723  supporterContributionValues[msg.sender] */\n      0x00\n        /* \"Campaign.sol\":2712:2722  msg.sender */\n      caller\n        /* \"Campaign.sol\":2684:2723  supporterContributionValues[msg.sender] */\n      0xffffffffffffffffffffffffffffffffffffffff\n      and\n      0xffffffffffffffffffffffffffffffffffffffff\n      and\n      dup2\n      mstore\n      0x20\n      add\n      swap1\n      dup2\n      mstore\n      0x20\n      add\n      0x00\n      keccak256\n        /* \"Campaign.sol\":2684:2735  supporterContributionValues[msg.sender] = msg.value */\n      dup2\n      swap1\n      sstore\n      pop\n        /* \"Campaign.sol\":2745:2764  supportersAddresses */\n      0x08\n        /* \"Campaign.sol\":2778:2788  msg.sender */\n      caller\n        /* \"Campaign.sol\":2745:2790  supportersAddresses.push(payable(msg.sender)) */\n      swap1\n      dup1\n      0x01\n      dup2\n      sload\n      add\n      dup1\n      dup3\n      sstore\n      dup1\n      swap2\n      pop\n      pop\n      0x01\n      swap1\n      sub\n      swap1\n      0x00\n      mstore\n      keccak256(0x00, 0x20)\n      add\n      0x00\n      swap1\n      swap2\n      swap1\n      swap2\n      swap1\n      swap2\n      0x0100\n      exp\n      dup2\n      sload\n      dup2\n      0xffffffffffffffffffffffffffffffffffffffff\n      mul\n      not\n      and\n      swap1\n      dup4\n      0xffffffffffffffffffffffffffffffffffffffff\n      and\n      mul\n      or\n      swap1\n      sstore\n      pop\n        /* \"Campaign.sol\":2371:2797  function contribute() public payable {... */\n      jump\t// out\n        /* \"Campaign.sol\":3620:4015  function approveRequest(uint index) public {... */\n    tag_108:\n        /* \"Campaign.sol\":3673:3696  Request storage request */\n      0x00\n        /* \"Campaign.sol\":3699:3707  requests */\n      0x0c\n        /* \"Campaign.sol\":3699:3714  requests[index] */\n      0x00\n        /* \"Campaign.sol\":3708:3713  index */\n      dup4\n        /* \"Campaign.sol\":3699:3714  requests[index] */\n      dup2\n      mstore\n      0x20\n      add\n      swap1\n      dup2\n      mstore\n      0x20\n      add\n      0x00\n      keccak256\n        /* \"Campaign.sol\":3673:3714  Request storage request = requests[index] */\n      swap1\n      pop\n        /* \"Campaign.sol\":3741:3751  supporters */\n      0x07\n        /* \"Campaign.sol\":3741:3763  supporters[msg.sender] */\n      0x00\n        /* \"Campaign.sol\":3752:3762  msg.sender */\n      caller\n        /* \"Campaign.sol\":3741:3763  supporters[msg.sender] */\n      0xffffffffffffffffffffffffffffffffffffffff\n      and\n      0xffffffffffffffffffffffffffffffffffffffff\n      and\n      dup2\n      mstore\n      0x20\n      add\n      swap1\n      dup2\n      mstore\n      0x20\n      add\n      0x00\n      keccak256\n      0x00\n      swap1\n      sload\n      swap1\n      0x0100\n      exp\n      swap1\n      div\n      0xff\n      and\n        /* \"Campaign.sol\":3733:3835  require(supporters[msg.sender], \"You should be a contributor of this campaign to vote for a request.\") */\n      tag_210\n      jumpi\n      mload(0x40)\n      0x08c379a000000000000000000000000000000000000000000000000000000000\n      dup2\n      mstore\n      0x04\n      add\n      tag_211\n      swap1\n      tag_212\n      jump\t// in\n    tag_211:\n      mload(0x40)\n      dup1\n      swap2\n      sub\n      swap1\n      revert\n    tag_210:\n        /* \"Campaign.sol\":3854:3861  request */\n      dup1\n        /* \"Campaign.sol\":3854:3871  request.approvals */\n      0x04\n      add\n        /* \"Campaign.sol\":3854:3883  request.approvals[msg.sender] */\n      0x00\n        /* \"Campaign.sol\":3872:3882  msg.sender */\n      caller\n        /* \"Campaign.sol\":3854:3883  request.approvals[msg.sender] */\n      0xffffffffffffffffffffffffffffffffffffffff\n      and\n      0xffffffffffffffffffffffffffffffffffffffff\n      and\n      dup2\n      mstore\n      0x20\n      add\n      swap1\n      dup2\n      mstore\n      0x20\n      add\n      0x00\n      keccak256\n      0x00\n      swap1\n      sload\n      swap1\n      0x0100\n      exp\n      swap1\n      div\n      0xff\n      and\n        /* \"Campaign.sol\":3853:3883  !request.approvals[msg.sender] */\n      iszero\n        /* \"Campaign.sol\":3845:3911  require(!request.approvals[msg.sender], \"You can vote only once.\") */\n      tag_213\n      jumpi\n      mload(0x40)\n      0x08c379a000000000000000000000000000000000000000000000000000000000\n      dup2\n      mstore\n      0x04\n      add\n      tag_214\n      swap1\n      tag_215\n      jump\t// in\n    tag_214:\n      mload(0x40)\n      dup1\n      swap2\n      sub\n      swap1\n      revert\n    tag_213:\n        /* \"Campaign.sol\":3962:3966  true */\n      0x01\n        /* \"Campaign.sol\":3930:3937  request */\n      dup2\n        /* \"Campaign.sol\":3930:3947  request.approvals */\n      0x04\n      add\n        /* \"Campaign.sol\":3930:3959  request.approvals[msg.sender] */\n      0x00\n        /* \"Campaign.sol\":3948:3958  msg.sender */\n      caller\n        /* \"Campaign.sol\":3930:3959  request.approvals[msg.sender] */\n      0xffffffffffffffffffffffffffffffffffffffff\n      and\n      0xffffffffffffffffffffffffffffffffffffffff\n      and\n      dup2\n      mstore\n      0x20\n      add\n      swap1\n      dup2\n      mstore\n      0x20\n      add\n      0x00\n      keccak256\n      0x00\n        /* \"Campaign.sol\":3930:3966  request.approvals[msg.sender] = true */\n      0x0100\n      exp\n      dup2\n      sload\n      dup2\n      0xff\n      mul\n      not\n      and\n      swap1\n      dup4\n      iszero\n      iszero\n      mul\n      or\n      swap1\n      sstore\n      pop\n        /* \"Campaign.sol\":3976:3983  request */\n      dup1\n        /* \"Campaign.sol\":3976:3997  request.approvalCount */\n      0x03\n      add\n      0x00\n        /* \"Campaign.sol\":3976:3999  request.approvalCount++ */\n      dup2\n      sload\n      dup1\n      swap3\n      swap2\n      swap1\n      tag_216\n      swap1\n      tag_146\n      jump\t// in\n    tag_216:\n      swap2\n      swap1\n      pop\n      sstore\n      pop\n        /* \"Campaign.sol\":3663:4015  {... */\n      pop\n        /* \"Campaign.sol\":3620:4015  function approveRequest(uint index) public {... */\n      pop\n      jump\t// out\n        /* \"Campaign.sol\":1590:1617  uint public supportersCount */\n    tag_111:\n      sload(0x0a)\n      dup2\n      jump\t// out\n        /* \"Campaign.sol\":1393:1420  uint public requestsBalance */\n    tag_115:\n      sload(0x06)\n      dup2\n      jump\t// out\n    tag_184:\n      dup3\n      dup1\n      sload\n      tag_217\n      swap1\n      tag_150\n      jump\t// in\n    tag_217:\n      swap1\n      0x00\n      mstore\n      keccak256(0x00, 0x20)\n      swap1\n      0x1f\n      add\n      0x20\n      swap1\n      div\n      dup2\n      add\n      swap3\n      dup3\n      tag_219\n      jumpi\n      0x00\n      dup6\n      sstore\n      jump(tag_218)\n    tag_219:\n      dup3\n      0x1f\n      lt\n      tag_220\n      jumpi\n      dup1\n      mload\n      not(0xff)\n      and\n      dup4\n      dup1\n      add\n      or\n      dup6\n      sstore\n      jump(tag_218)\n    tag_220:\n      dup3\n      dup1\n      add\n      0x01\n      add\n      dup6\n      sstore\n      dup3\n      iszero\n      tag_218\n      jumpi\n      swap2\n      dup3\n      add\n    tag_221:\n      dup3\n      dup2\n      gt\n      iszero\n      tag_222\n      jumpi\n      dup3\n      mload\n      dup3\n      sstore\n      swap2\n      0x20\n      add\n      swap2\n      swap1\n      0x01\n      add\n      swap1\n      jump(tag_221)\n    tag_222:\n    tag_218:\n      pop\n      swap1\n      pop\n      tag_223\n      swap2\n      swap1\n      tag_224\n      jump\t// in\n    tag_223:\n      pop\n      swap1\n      jump\t// out\n    tag_224:\n    tag_225:\n      dup1\n      dup3\n      gt\n      iszero\n      tag_226\n      jumpi\n      0x00\n      dup2\n      0x00\n      swap1\n      sstore\n      pop\n      0x01\n      add\n      jump(tag_225)\n    tag_226:\n      pop\n      swap1\n      jump\t// out\n        /* \"#utility.yul\":7:82   */\n    tag_227:\n        /* \"#utility.yul\":40:46   */\n      0x00\n        /* \"#utility.yul\":73:75   */\n      0x40\n        /* \"#utility.yul\":67:76   */\n      mload\n        /* \"#utility.yul\":57:76   */\n      swap1\n      pop\n        /* \"#utility.yul\":7:82   */\n      swap1\n      jump\t// out\n        /* \"#utility.yul\":88:205   */\n    tag_228:\n        /* \"#utility.yul\":197:198   */\n      0x00\n        /* \"#utility.yul\":194:195   */\n      dup1\n        /* \"#utility.yul\":187:199   */\n      revert\n        /* \"#utility.yul\":211:328   */\n    tag_229:\n        /* \"#utility.yul\":320:321   */\n      0x00\n        /* \"#utility.yul\":317:318   */\n      dup1\n        /* \"#utility.yul\":310:322   */\n      revert\n        /* \"#utility.yul\":334:411   */\n    tag_230:\n        /* \"#utility.yul\":371:378   */\n      0x00\n        /* \"#utility.yul\":400:405   */\n      dup2\n        /* \"#utility.yul\":389:405   */\n      swap1\n      pop\n        /* \"#utility.yul\":334:411   */\n      swap2\n      swap1\n      pop\n      jump\t// out\n        /* \"#utility.yul\":417:539   */\n    tag_231:\n        /* \"#utility.yul\":490:514   */\n      tag_284\n        /* \"#utility.yul\":508:513   */\n      dup2\n        /* \"#utility.yul\":490:514   */\n      tag_230\n      jump\t// in\n    tag_284:\n        /* \"#utility.yul\":483:488   */\n      dup2\n        /* \"#utility.yul\":480:515   */\n      eq\n        /* \"#utility.yul\":470:533   */\n      tag_285\n      jumpi\n        /* \"#utility.yul\":529:530   */\n      0x00\n        /* \"#utility.yul\":526:527   */\n      dup1\n        /* \"#utility.yul\":519:531   */\n      revert\n        /* \"#utility.yul\":470:533   */\n    tag_285:\n        /* \"#utility.yul\":417:539   */\n      pop\n      jump\t// out\n        /* \"#utility.yul\":545:684   */\n    tag_232:\n        /* \"#utility.yul\":591:596   */\n      0x00\n        /* \"#utility.yul\":629:635   */\n      dup2\n        /* \"#utility.yul\":616:636   */\n      calldataload\n        /* \"#utility.yul\":607:636   */\n      swap1\n      pop\n        /* \"#utility.yul\":645:678   */\n      tag_287\n        /* \"#utility.yul\":672:677   */\n      dup2\n        /* \"#utility.yul\":645:678   */\n      tag_231\n      jump\t// in\n    tag_287:\n        /* \"#utility.yul\":545:684   */\n      swap3\n      swap2\n      pop\n      pop\n      jump\t// out\n        /* \"#utility.yul\":690:1019   */\n    tag_28:\n        /* \"#utility.yul\":749:755   */\n      0x00\n        /* \"#utility.yul\":798:800   */\n      0x20\n        /* \"#utility.yul\":786:795   */\n      dup3\n        /* \"#utility.yul\":777:784   */\n      dup5\n        /* \"#utility.yul\":773:796   */\n      sub\n        /* \"#utility.yul\":769:801   */\n      slt\n        /* \"#utility.yul\":766:885   */\n      iszero\n      tag_289\n      jumpi\n        /* \"#utility.yul\":804:883   */\n      tag_290\n      tag_228\n      jump\t// in\n    tag_290:\n        /* \"#utility.yul\":766:885   */\n    tag_289:\n        /* \"#utility.yul\":924:925   */\n      0x00\n        /* \"#utility.yul\":949:1002   */\n      tag_291\n        /* \"#utility.yul\":994:1001   */\n      dup5\n        /* \"#utility.yul\":985:991   */\n      dup3\n        /* \"#utility.yul\":974:983   */\n      dup6\n        /* \"#utility.yul\":970:992   */\n      add\n        /* \"#utility.yul\":949:1002   */\n      tag_232\n      jump\t// in\n    tag_291:\n        /* \"#utility.yul\":939:1002   */\n      swap2\n      pop\n        /* \"#utility.yul\":895:1012   */\n      pop\n        /* \"#utility.yul\":690:1019   */\n      swap3\n      swap2\n      pop\n      pop\n      jump\t// out\n        /* \"#utility.yul\":1025:1151   */\n    tag_233:\n        /* \"#utility.yul\":1062:1069   */\n      0x00\n        /* \"#utility.yul\":1102:1144   */\n      0xffffffffffffffffffffffffffffffffffffffff\n        /* \"#utility.yul\":1095:1100   */\n      dup3\n        /* \"#utility.yul\":1091:1145   */\n      and\n        /* \"#utility.yul\":1080:1145   */\n      swap1\n      pop\n        /* \"#utility.yul\":1025:1151   */\n      swap2\n      swap1\n      pop\n      jump\t// out\n        /* \"#utility.yul\":1157:1253   */\n    tag_234:\n        /* \"#utility.yul\":1194:1201   */\n      0x00\n        /* \"#utility.yul\":1223:1247   */\n      tag_294\n        /* \"#utility.yul\":1241:1246   */\n      dup3\n        /* \"#utility.yul\":1223:1247   */\n      tag_233\n      jump\t// in\n    tag_294:\n        /* \"#utility.yul\":1212:1247   */\n      swap1\n      pop\n        /* \"#utility.yul\":1157:1253   */\n      swap2\n      swap1\n      pop\n      jump\t// out\n        /* \"#utility.yul\":1259:1381   */\n    tag_235:\n        /* \"#utility.yul\":1332:1356   */\n      tag_296\n        /* \"#utility.yul\":1350:1355   */\n      dup2\n        /* \"#utility.yul\":1332:1356   */\n      tag_234\n      jump\t// in\n    tag_296:\n        /* \"#utility.yul\":1325:1330   */\n      dup2\n        /* \"#utility.yul\":1322:1357   */\n      eq\n        /* \"#utility.yul\":1312:1375   */\n      tag_297\n      jumpi\n        /* \"#utility.yul\":1371:1372   */\n      0x00\n        /* \"#utility.yul\":1368:1369   */\n      dup1\n        /* \"#utility.yul\":1361:1373   */\n      revert\n        /* \"#utility.yul\":1312:1375   */\n    tag_297:\n        /* \"#utility.yul\":1259:1381   */\n      pop\n      jump\t// out\n        /* \"#utility.yul\":1387:1526   */\n    tag_236:\n        /* \"#utility.yul\":1433:1438   */\n      0x00\n        /* \"#utility.yul\":1471:1477   */\n      dup2\n        /* \"#utility.yul\":1458:1478   */\n      calldataload\n        /* \"#utility.yul\":1449:1478   */\n      swap1\n      pop\n        /* \"#utility.yul\":1487:1520   */\n      tag_299\n        /* \"#utility.yul\":1514:1519   */\n      dup2\n        /* \"#utility.yul\":1487:1520   */\n      tag_235\n      jump\t// in\n    tag_299:\n        /* \"#utility.yul\":1387:1526   */\n      swap3\n      swap2\n      pop\n      pop\n      jump\t// out\n        /* \"#utility.yul\":1532:2006   */\n    tag_35:\n        /* \"#utility.yul\":1600:1606   */\n      0x00\n        /* \"#utility.yul\":1608:1614   */\n      dup1\n        /* \"#utility.yul\":1657:1659   */\n      0x40\n        /* \"#utility.yul\":1645:1654   */\n      dup4\n        /* \"#utility.yul\":1636:1643   */\n      dup6\n        /* \"#utility.yul\":1632:1655   */\n      sub\n        /* \"#utility.yul\":1628:1660   */\n      slt\n        /* \"#utility.yul\":1625:1744   */\n      iszero\n      tag_301\n      jumpi\n        /* \"#utility.yul\":1663:1742   */\n      tag_302\n      tag_228\n      jump\t// in\n    tag_302:\n        /* \"#utility.yul\":1625:1744   */\n    tag_301:\n        /* \"#utility.yul\":1783:1784   */\n      0x00\n        /* \"#utility.yul\":1808:1861   */\n      tag_303\n        /* \"#utility.yul\":1853:1860   */\n      dup6\n        /* \"#utility.yul\":1844:1850   */\n      dup3\n        /* \"#utility.yul\":1833:1842   */\n      dup7\n        /* \"#utility.yul\":1829:1851   */\n      add\n        /* \"#utility.yul\":1808:1861   */\n      tag_236\n      jump\t// in\n    tag_303:\n        /* \"#utility.yul\":1798:1861   */\n      swap3\n      pop\n        /* \"#utility.yul\":1754:1871   */\n      pop\n        /* \"#utility.yul\":1910:1912   */\n      0x20\n        /* \"#utility.yul\":1936:1989   */\n      tag_304\n        /* \"#utility.yul\":1981:1988   */\n      dup6\n        /* \"#utility.yul\":1972:1978   */\n      dup3\n        /* \"#utility.yul\":1961:1970   */\n      dup7\n        /* \"#utility.yul\":1957:1979   */\n      add\n        /* \"#utility.yul\":1936:1989   */\n      tag_232\n      jump\t// in\n    tag_304:\n        /* \"#utility.yul\":1926:1989   */\n      swap2\n      pop\n        /* \"#utility.yul\":1881:1999   */\n      pop\n        /* \"#utility.yul\":1532:2006   */\n      swap3\n      pop\n      swap3\n      swap1\n      pop\n      jump\t// out\n        /* \"#utility.yul\":2012:2102   */\n    tag_237:\n        /* \"#utility.yul\":2046:2053   */\n      0x00\n        /* \"#utility.yul\":2089:2094   */\n      dup2\n        /* \"#utility.yul\":2082:2095   */\n      iszero\n        /* \"#utility.yul\":2075:2096   */\n      iszero\n        /* \"#utility.yul\":2064:2096   */\n      swap1\n      pop\n        /* \"#utility.yul\":2012:2102   */\n      swap2\n      swap1\n      pop\n      jump\t// out\n        /* \"#utility.yul\":2108:2217   */\n    tag_238:\n        /* \"#utility.yul\":2189:2210   */\n      tag_307\n        /* \"#utility.yul\":2204:2209   */\n      dup2\n        /* \"#utility.yul\":2189:2210   */\n      tag_237\n      jump\t// in\n    tag_307:\n        /* \"#utility.yul\":2184:2187   */\n      dup3\n        /* \"#utility.yul\":2177:2211   */\n      mstore\n        /* \"#utility.yul\":2108:2217   */\n      pop\n      pop\n      jump\t// out\n        /* \"#utility.yul\":2223:2433   */\n    tag_38:\n        /* \"#utility.yul\":2310:2314   */\n      0x00\n        /* \"#utility.yul\":2348:2350   */\n      0x20\n        /* \"#utility.yul\":2337:2346   */\n      dup3\n        /* \"#utility.yul\":2333:2351   */\n      add\n        /* \"#utility.yul\":2325:2351   */\n      swap1\n      pop\n        /* \"#utility.yul\":2361:2426   */\n      tag_309\n        /* \"#utility.yul\":2423:2424   */\n      0x00\n        /* \"#utility.yul\":2412:2421   */\n      dup4\n        /* \"#utility.yul\":2408:2425   */\n      add\n        /* \"#utility.yul\":2399:2405   */\n      dup5\n        /* \"#utility.yul\":2361:2426   */\n      tag_238\n      jump\t// in\n    tag_309:\n        /* \"#utility.yul\":2223:2433   */\n      swap3\n      swap2\n      pop\n      pop\n      jump\t// out\n        /* \"#utility.yul\":2439:2768   */\n    tag_42:\n        /* \"#utility.yul\":2498:2504   */\n      0x00\n        /* \"#utility.yul\":2547:2549   */\n      0x20\n        /* \"#utility.yul\":2535:2544   */\n      dup3\n        /* \"#utility.yul\":2526:2533   */\n      dup5\n        /* \"#utility.yul\":2522:2545   */\n      sub\n        /* \"#utility.yul\":2518:2550   */\n      slt\n        /* \"#utility.yul\":2515:2634   */\n      iszero\n      tag_311\n      jumpi\n        /* \"#utility.yul\":2553:2632   */\n      tag_312\n      tag_228\n      jump\t// in\n    tag_312:\n        /* \"#utility.yul\":2515:2634   */\n    tag_311:\n        /* \"#utility.yul\":2673:2674   */\n      0x00\n        /* \"#utility.yul\":2698:2751   */\n      tag_313\n        /* \"#utility.yul\":2743:2750   */\n      dup5\n        /* \"#utility.yul\":2734:2740   */\n      dup3\n        /* \"#utility.yul\":2723:2732   */\n      dup6\n        /* \"#utility.yul\":2719:2741   */\n      add\n        /* \"#utility.yul\":2698:2751   */\n      tag_236\n      jump\t// in\n    tag_313:\n        /* \"#utility.yul\":2688:2751   */\n      swap2\n      pop\n        /* \"#utility.yul\":2644:2761   */\n      pop\n        /* \"#utility.yul\":2439:2768   */\n      swap3\n      swap2\n      pop\n      pop\n      jump\t// out\n        /* \"#utility.yul\":2774:2892   */\n    tag_239:\n        /* \"#utility.yul\":2861:2885   */\n      tag_315\n        /* \"#utility.yul\":2879:2884   */\n      dup2\n        /* \"#utility.yul\":2861:2885   */\n      tag_230\n      jump\t// in\n    tag_315:\n        /* \"#utility.yul\":2856:2859   */\n      dup3\n        /* \"#utility.yul\":2849:2886   */\n      mstore\n        /* \"#utility.yul\":2774:2892   */\n      pop\n      pop\n      jump\t// out\n        /* \"#utility.yul\":2898:3120   */\n    tag_45:\n        /* \"#utility.yul\":2991:2995   */\n      0x00\n        /* \"#utility.yul\":3029:3031   */\n      0x20\n        /* \"#utility.yul\":3018:3027   */\n      dup3\n        /* \"#utility.yul\":3014:3032   */\n      add\n        /* \"#utility.yul\":3006:3032   */\n      swap1\n      pop\n        /* \"#utility.yul\":3042:3113   */\n      tag_317\n        /* \"#utility.yul\":3110:3111   */\n      0x00\n        /* \"#utility.yul\":3099:3108   */\n      dup4\n        /* \"#utility.yul\":3095:3112   */\n      add\n        /* \"#utility.yul\":3086:3092   */\n      dup5\n        /* \"#utility.yul\":3042:3113   */\n      tag_239\n      jump\t// in\n    tag_317:\n        /* \"#utility.yul\":2898:3120   */\n      swap3\n      swap2\n      pop\n      pop\n      jump\t// out\n        /* \"#utility.yul\":3126:3244   */\n    tag_240:\n        /* \"#utility.yul\":3213:3237   */\n      tag_319\n        /* \"#utility.yul\":3231:3236   */\n      dup2\n        /* \"#utility.yul\":3213:3237   */\n      tag_234\n      jump\t// in\n    tag_319:\n        /* \"#utility.yul\":3208:3211   */\n      dup3\n        /* \"#utility.yul\":3201:3238   */\n      mstore\n        /* \"#utility.yul\":3126:3244   */\n      pop\n      pop\n      jump\t// out\n        /* \"#utility.yul\":3250:3349   */\n    tag_241:\n        /* \"#utility.yul\":3302:3308   */\n      0x00\n        /* \"#utility.yul\":3336:3341   */\n      dup2\n        /* \"#utility.yul\":3330:3342   */\n      mload\n        /* \"#utility.yul\":3320:3342   */\n      swap1\n      pop\n        /* \"#utility.yul\":3250:3349   */\n      swap2\n      swap1\n      pop\n      jump\t// out\n        /* \"#utility.yul\":3355:3524   */\n    tag_242:\n        /* \"#utility.yul\":3439:3450   */\n      0x00\n        /* \"#utility.yul\":3473:3479   */\n      dup3\n        /* \"#utility.yul\":3468:3471   */\n      dup3\n        /* \"#utility.yul\":3461:3480   */\n      mstore\n        /* \"#utility.yul\":3513:3517   */\n      0x20\n        /* \"#utility.yul\":3508:3511   */\n      dup3\n        /* \"#utility.yul\":3504:3518   */\n      add\n        /* \"#utility.yul\":3489:3518   */\n      swap1\n      pop\n        /* \"#utility.yul\":3355:3524   */\n      swap3\n      swap2\n      pop\n      pop\n      jump\t// out\n        /* \"#utility.yul\":3530:3837   */\n    tag_243:\n        /* \"#utility.yul\":3598:3599   */\n      0x00\n        /* \"#utility.yul\":3608:3721   */\n    tag_323:\n        /* \"#utility.yul\":3622:3628   */\n      dup4\n        /* \"#utility.yul\":3619:3620   */\n      dup2\n        /* \"#utility.yul\":3616:3629   */\n      lt\n        /* \"#utility.yul\":3608:3721   */\n      iszero\n      tag_325\n      jumpi\n        /* \"#utility.yul\":3707:3708   */\n      dup1\n        /* \"#utility.yul\":3702:3705   */\n      dup3\n        /* \"#utility.yul\":3698:3709   */\n      add\n        /* \"#utility.yul\":3692:3710   */\n      mload\n        /* \"#utility.yul\":3688:3689   */\n      dup2\n        /* \"#utility.yul\":3683:3686   */\n      dup5\n        /* \"#utility.yul\":3679:3690   */\n      add\n        /* \"#utility.yul\":3672:3711   */\n      mstore\n        /* \"#utility.yul\":3644:3646   */\n      0x20\n        /* \"#utility.yul\":3641:3642   */\n      dup2\n        /* \"#utility.yul\":3637:3647   */\n      add\n        /* \"#utility.yul\":3632:3647   */\n      swap1\n      pop\n        /* \"#utility.yul\":3608:3721   */\n      jump(tag_323)\n    tag_325:\n        /* \"#utility.yul\":3739:3745   */\n      dup4\n        /* \"#utility.yul\":3736:3737   */\n      dup2\n        /* \"#utility.yul\":3733:3746   */\n      gt\n        /* \"#utility.yul\":3730:3831   */\n      iszero\n      tag_326\n      jumpi\n        /* \"#utility.yul\":3819:3820   */\n      0x00\n        /* \"#utility.yul\":3810:3816   */\n      dup5\n        /* \"#utility.yul\":3805:3808   */\n      dup5\n        /* \"#utility.yul\":3801:3817   */\n      add\n        /* \"#utility.yul\":3794:3821   */\n      mstore\n        /* \"#utility.yul\":3730:3831   */\n    tag_326:\n        /* \"#utility.yul\":3579:3837   */\n      pop\n        /* \"#utility.yul\":3530:3837   */\n      pop\n      pop\n      pop\n      jump\t// out\n        /* \"#utility.yul\":3843:3945   */\n    tag_244:\n        /* \"#utility.yul\":3884:3890   */\n      0x00\n        /* \"#utility.yul\":3935:3937   */\n      0x1f\n        /* \"#utility.yul\":3931:3938   */\n      not\n        /* \"#utility.yul\":3926:3928   */\n      0x1f\n        /* \"#utility.yul\":3919:3924   */\n      dup4\n        /* \"#utility.yul\":3915:3929   */\n      add\n        /* \"#utility.yul\":3911:3939   */\n      and\n        /* \"#utility.yul\":3901:3939   */\n      swap1\n      pop\n        /* \"#utility.yul\":3843:3945   */\n      swap2\n      swap1\n      pop\n      jump\t// out\n        /* \"#utility.yul\":3951:4315   */\n    tag_245:\n        /* \"#utility.yul\":4039:4042   */\n      0x00\n        /* \"#utility.yul\":4067:4106   */\n      tag_329\n        /* \"#utility.yul\":4100:4105   */\n      dup3\n        /* \"#utility.yul\":4067:4106   */\n      tag_241\n      jump\t// in\n    tag_329:\n        /* \"#utility.yul\":4122:4193   */\n      tag_330\n        /* \"#utility.yul\":4186:4192   */\n      dup2\n        /* \"#utility.yul\":4181:4184   */\n      dup6\n        /* \"#utility.yul\":4122:4193   */\n      tag_242\n      jump\t// in\n    tag_330:\n        /* \"#utility.yul\":4115:4193   */\n      swap4\n      pop\n        /* \"#utility.yul\":4202:4254   */\n      tag_331\n        /* \"#utility.yul\":4247:4253   */\n      dup2\n        /* \"#utility.yul\":4242:4245   */\n      dup6\n        /* \"#utility.yul\":4235:4239   */\n      0x20\n        /* \"#utility.yul\":4228:4233   */\n      dup7\n        /* \"#utility.yul\":4224:4240   */\n      add\n        /* \"#utility.yul\":4202:4254   */\n      tag_243\n      jump\t// in\n    tag_331:\n        /* \"#utility.yul\":4279:4308   */\n      tag_332\n        /* \"#utility.yul\":4301:4307   */\n      dup2\n        /* \"#utility.yul\":4279:4308   */\n      tag_244\n      jump\t// in\n    tag_332:\n        /* \"#utility.yul\":4274:4277   */\n      dup5\n        /* \"#utility.yul\":4270:4309   */\n      add\n        /* \"#utility.yul\":4263:4309   */\n      swap2\n      pop\n        /* \"#utility.yul\":4043:4315   */\n      pop\n        /* \"#utility.yul\":3951:4315   */\n      swap3\n      swap2\n      pop\n      pop\n      jump\t// out\n        /* \"#utility.yul\":4321:5813   */\n    tag_50:\n        /* \"#utility.yul\":4726:4730   */\n      0x00\n        /* \"#utility.yul\":4764:4767   */\n      0x0140\n        /* \"#utility.yul\":4753:4762   */\n      dup3\n        /* \"#utility.yul\":4749:4768   */\n      add\n        /* \"#utility.yul\":4741:4768   */\n      swap1\n      pop\n        /* \"#utility.yul\":4778:4849   */\n      tag_334\n        /* \"#utility.yul\":4846:4847   */\n      0x00\n        /* \"#utility.yul\":4835:4844   */\n      dup4\n        /* \"#utility.yul\":4831:4848   */\n      add\n        /* \"#utility.yul\":4822:4828   */\n      dup14\n        /* \"#utility.yul\":4778:4849   */\n      tag_239\n      jump\t// in\n    tag_334:\n        /* \"#utility.yul\":4859:4931   */\n      tag_335\n        /* \"#utility.yul\":4927:4929   */\n      0x20\n        /* \"#utility.yul\":4916:4925   */\n      dup4\n        /* \"#utility.yul\":4912:4930   */\n      add\n        /* \"#utility.yul\":4903:4909   */\n      dup13\n        /* \"#utility.yul\":4859:4931   */\n      tag_239\n      jump\t// in\n    tag_335:\n        /* \"#utility.yul\":4941:5013   */\n      tag_336\n        /* \"#utility.yul\":5009:5011   */\n      0x40\n        /* \"#utility.yul\":4998:5007   */\n      dup4\n        /* \"#utility.yul\":4994:5012   */\n      add\n        /* \"#utility.yul\":4985:4991   */\n      dup12\n        /* \"#utility.yul\":4941:5013   */\n      tag_239\n      jump\t// in\n    tag_336:\n        /* \"#utility.yul\":5023:5095   */\n      tag_337\n        /* \"#utility.yul\":5091:5093   */\n      0x60\n        /* \"#utility.yul\":5080:5089   */\n      dup4\n        /* \"#utility.yul\":5076:5094   */\n      add\n        /* \"#utility.yul\":5067:5073   */\n      dup11\n        /* \"#utility.yul\":5023:5095   */\n      tag_239\n      jump\t// in\n    tag_337:\n        /* \"#utility.yul\":5105:5178   */\n      tag_338\n        /* \"#utility.yul\":5173:5176   */\n      0x80\n        /* \"#utility.yul\":5162:5171   */\n      dup4\n        /* \"#utility.yul\":5158:5177   */\n      add\n        /* \"#utility.yul\":5149:5155   */\n      dup10\n        /* \"#utility.yul\":5105:5178   */\n      tag_240\n      jump\t// in\n    tag_338:\n        /* \"#utility.yul\":5226:5235   */\n      dup2\n        /* \"#utility.yul\":5220:5224   */\n      dup2\n        /* \"#utility.yul\":5216:5236   */\n      sub\n        /* \"#utility.yul\":5210:5213   */\n      0xa0\n        /* \"#utility.yul\":5199:5208   */\n      dup4\n        /* \"#utility.yul\":5195:5214   */\n      add\n        /* \"#utility.yul\":5188:5237   */\n      mstore\n        /* \"#utility.yul\":5254:5332   */\n      tag_339\n        /* \"#utility.yul\":5327:5331   */\n      dup2\n        /* \"#utility.yul\":5318:5324   */\n      dup9\n        /* \"#utility.yul\":5254:5332   */\n      tag_245\n      jump\t// in\n    tag_339:\n        /* \"#utility.yul\":5246:5332   */\n      swap1\n      pop\n        /* \"#utility.yul\":5380:5389   */\n      dup2\n        /* \"#utility.yul\":5374:5378   */\n      dup2\n        /* \"#utility.yul\":5370:5390   */\n      sub\n        /* \"#utility.yul\":5364:5367   */\n      0xc0\n        /* \"#utility.yul\":5353:5362   */\n      dup4\n        /* \"#utility.yul\":5349:5368   */\n      add\n        /* \"#utility.yul\":5342:5391   */\n      mstore\n        /* \"#utility.yul\":5408:5486   */\n      tag_340\n        /* \"#utility.yul\":5481:5485   */\n      dup2\n        /* \"#utility.yul\":5472:5478   */\n      dup8\n        /* \"#utility.yul\":5408:5486   */\n      tag_245\n      jump\t// in\n    tag_340:\n        /* \"#utility.yul\":5400:5486   */\n      swap1\n      pop\n        /* \"#utility.yul\":5496:5569   */\n      tag_341\n        /* \"#utility.yul\":5564:5567   */\n      0xe0\n        /* \"#utility.yul\":5553:5562   */\n      dup4\n        /* \"#utility.yul\":5549:5568   */\n      add\n        /* \"#utility.yul\":5540:5546   */\n      dup7\n        /* \"#utility.yul\":5496:5569   */\n      tag_239\n      jump\t// in\n    tag_341:\n        /* \"#utility.yul\":5617:5626   */\n      dup2\n        /* \"#utility.yul\":5611:5615   */\n      dup2\n        /* \"#utility.yul\":5607:5627   */\n      sub\n        /* \"#utility.yul\":5601:5604   */\n      0x0100\n        /* \"#utility.yul\":5590:5599   */\n      dup4\n        /* \"#utility.yul\":5586:5605   */\n      add\n        /* \"#utility.yul\":5579:5628   */\n      mstore\n        /* \"#utility.yul\":5645:5723   */\n      tag_342\n        /* \"#utility.yul\":5718:5722   */\n      dup2\n        /* \"#utility.yul\":5709:5715   */\n      dup6\n        /* \"#utility.yul\":5645:5723   */\n      tag_245\n      jump\t// in\n    tag_342:\n        /* \"#utility.yul\":5637:5723   */\n      swap1\n      pop\n        /* \"#utility.yul\":5733:5806   */\n      tag_343\n        /* \"#utility.yul\":5801:5804   */\n      0x0120\n        /* \"#utility.yul\":5790:5799   */\n      dup4\n        /* \"#utility.yul\":5786:5805   */\n      add\n        /* \"#utility.yul\":5777:5783   */\n      dup5\n        /* \"#utility.yul\":5733:5806   */\n      tag_239\n      jump\t// in\n    tag_343:\n        /* \"#utility.yul\":4321:5813   */\n      swap12\n      swap11\n      pop\n      pop\n      pop\n      pop\n      pop\n      pop\n      pop\n      pop\n      pop\n      pop\n      pop\n      jump\t// out\n        /* \"#utility.yul\":5819:6041   */\n    tag_55:\n        /* \"#utility.yul\":5912:5916   */\n      0x00\n        /* \"#utility.yul\":5950:5952   */\n      0x20\n        /* \"#utility.yul\":5939:5948   */\n      dup3\n        /* \"#utility.yul\":5935:5953   */\n      add\n        /* \"#utility.yul\":5927:5953   */\n      swap1\n      pop\n        /* \"#utility.yul\":5963:6034   */\n      tag_345\n        /* \"#utility.yul\":6031:6032   */\n      0x00\n        /* \"#utility.yul\":6020:6029   */\n      dup4\n        /* \"#utility.yul\":6016:6033   */\n      add\n        /* \"#utility.yul\":6007:6013   */\n      dup5\n        /* \"#utility.yul\":5963:6034   */\n      tag_240\n      jump\t// in\n    tag_345:\n        /* \"#utility.yul\":5819:6041   */\n      swap3\n      swap2\n      pop\n      pop\n      jump\t// out\n        /* \"#utility.yul\":6047:6151   */\n    tag_246:\n        /* \"#utility.yul\":6092:6099   */\n      0x00\n        /* \"#utility.yul\":6121:6145   */\n      tag_347\n        /* \"#utility.yul\":6139:6144   */\n      dup3\n        /* \"#utility.yul\":6121:6145   */\n      tag_233\n      jump\t// in\n    tag_347:\n        /* \"#utility.yul\":6110:6145   */\n      swap1\n      pop\n        /* \"#utility.yul\":6047:6151   */\n      swap2\n      swap1\n      pop\n      jump\t// out\n        /* \"#utility.yul\":6157:6299   */\n    tag_247:\n        /* \"#utility.yul\":6260:6292   */\n      tag_349\n        /* \"#utility.yul\":6286:6291   */\n      dup2\n        /* \"#utility.yul\":6260:6292   */\n      tag_246\n      jump\t// in\n    tag_349:\n        /* \"#utility.yul\":6255:6258   */\n      dup3\n        /* \"#utility.yul\":6248:6293   */\n      mstore\n        /* \"#utility.yul\":6157:6299   */\n      pop\n      pop\n      jump\t// out\n        /* \"#utility.yul\":6305:6559   */\n    tag_61:\n        /* \"#utility.yul\":6414:6418   */\n      0x00\n        /* \"#utility.yul\":6452:6454   */\n      0x20\n        /* \"#utility.yul\":6441:6450   */\n      dup3\n        /* \"#utility.yul\":6437:6455   */\n      add\n        /* \"#utility.yul\":6429:6455   */\n      swap1\n      pop\n        /* \"#utility.yul\":6465:6552   */\n      tag_351\n        /* \"#utility.yul\":6549:6550   */\n      0x00\n        /* \"#utility.yul\":6538:6547   */\n      dup4\n        /* \"#utility.yul\":6534:6551   */\n      add\n        /* \"#utility.yul\":6525:6531   */\n      dup5\n        /* \"#utility.yul\":6465:6552   */\n      tag_247\n      jump\t// in\n    tag_351:\n        /* \"#utility.yul\":6305:6559   */\n      swap3\n      swap2\n      pop\n      pop\n      jump\t// out\n        /* \"#utility.yul\":6565:7340   */\n    tag_76:\n        /* \"#utility.yul\":6800:6804   */\n      0x00\n        /* \"#utility.yul\":6838:6841   */\n      0xa0\n        /* \"#utility.yul\":6827:6836   */\n      dup3\n        /* \"#utility.yul\":6823:6842   */\n      add\n        /* \"#utility.yul\":6815:6842   */\n      swap1\n      pop\n        /* \"#utility.yul\":6888:6897   */\n      dup2\n        /* \"#utility.yul\":6882:6886   */\n      dup2\n        /* \"#utility.yul\":6878:6898   */\n      sub\n        /* \"#utility.yul\":6874:6875   */\n      0x00\n        /* \"#utility.yul\":6863:6872   */\n      dup4\n        /* \"#utility.yul\":6859:6876   */\n      add\n        /* \"#utility.yul\":6852:6899   */\n      mstore\n        /* \"#utility.yul\":6916:6994   */\n      tag_353\n        /* \"#utility.yul\":6989:6993   */\n      dup2\n        /* \"#utility.yul\":6980:6986   */\n      dup9\n        /* \"#utility.yul\":6916:6994   */\n      tag_245\n      jump\t// in\n    tag_353:\n        /* \"#utility.yul\":6908:6994   */\n      swap1\n      pop\n        /* \"#utility.yul\":7004:7076   */\n      tag_354\n        /* \"#utility.yul\":7072:7074   */\n      0x20\n        /* \"#utility.yul\":7061:7070   */\n      dup4\n        /* \"#utility.yul\":7057:7075   */\n      add\n        /* \"#utility.yul\":7048:7054   */\n      dup8\n        /* \"#utility.yul\":7004:7076   */\n      tag_239\n      jump\t// in\n    tag_354:\n        /* \"#utility.yul\":7086:7174   */\n      tag_355\n        /* \"#utility.yul\":7170:7172   */\n      0x40\n        /* \"#utility.yul\":7159:7168   */\n      dup4\n        /* \"#utility.yul\":7155:7173   */\n      add\n        /* \"#utility.yul\":7146:7152   */\n      dup7\n        /* \"#utility.yul\":7086:7174   */\n      tag_247\n      jump\t// in\n    tag_355:\n        /* \"#utility.yul\":7184:7250   */\n      tag_356\n        /* \"#utility.yul\":7246:7248   */\n      0x60\n        /* \"#utility.yul\":7235:7244   */\n      dup4\n        /* \"#utility.yul\":7231:7249   */\n      add\n        /* \"#utility.yul\":7222:7228   */\n      dup6\n        /* \"#utility.yul\":7184:7250   */\n      tag_238\n      jump\t// in\n    tag_356:\n        /* \"#utility.yul\":7260:7333   */\n      tag_357\n        /* \"#utility.yul\":7328:7331   */\n      0x80\n        /* \"#utility.yul\":7317:7326   */\n      dup4\n        /* \"#utility.yul\":7313:7332   */\n      add\n        /* \"#utility.yul\":7304:7310   */\n      dup5\n        /* \"#utility.yul\":7260:7333   */\n      tag_239\n      jump\t// in\n    tag_357:\n        /* \"#utility.yul\":6565:7340   */\n      swap7\n      swap6\n      pop\n      pop\n      pop\n      pop\n      pop\n      pop\n      jump\t// out\n        /* \"#utility.yul\":7346:7463   */\n    tag_248:\n        /* \"#utility.yul\":7455:7456   */\n      0x00\n        /* \"#utility.yul\":7452:7453   */\n      dup1\n        /* \"#utility.yul\":7445:7457   */\n      revert\n        /* \"#utility.yul\":7469:7586   */\n    tag_249:\n        /* \"#utility.yul\":7578:7579   */\n      0x00\n        /* \"#utility.yul\":7575:7576   */\n      dup1\n        /* \"#utility.yul\":7568:7580   */\n      revert\n        /* \"#utility.yul\":7592:7772   */\n    tag_250:\n        /* \"#utility.yul\":7640:7717   */\n      0x4e487b7100000000000000000000000000000000000000000000000000000000\n        /* \"#utility.yul\":7637:7638   */\n      0x00\n        /* \"#utility.yul\":7630:7718   */\n      mstore\n        /* \"#utility.yul\":7737:7741   */\n      0x41\n        /* \"#utility.yul\":7734:7735   */\n      0x04\n        /* \"#utility.yul\":7727:7742   */\n      mstore\n        /* \"#utility.yul\":7761:7765   */\n      0x24\n        /* \"#utility.yul\":7758:7759   */\n      0x00\n        /* \"#utility.yul\":7751:7766   */\n      revert\n        /* \"#utility.yul\":7778:8059   */\n    tag_251:\n        /* \"#utility.yul\":7861:7888   */\n      tag_362\n        /* \"#utility.yul\":7883:7887   */\n      dup3\n        /* \"#utility.yul\":7861:7888   */\n      tag_244\n      jump\t// in\n    tag_362:\n        /* \"#utility.yul\":7853:7859   */\n      dup2\n        /* \"#utility.yul\":7849:7889   */\n      add\n        /* \"#utility.yul\":7991:7997   */\n      dup2\n        /* \"#utility.yul\":7979:7989   */\n      dup2\n        /* \"#utility.yul\":7976:7998   */\n      lt\n        /* \"#utility.yul\":7955:7973   */\n      0xffffffffffffffff\n        /* \"#utility.yul\":7943:7953   */\n      dup3\n        /* \"#utility.yul\":7940:7974   */\n      gt\n        /* \"#utility.yul\":7937:7999   */\n      or\n        /* \"#utility.yul\":7934:8022   */\n      iszero\n      tag_363\n      jumpi\n        /* \"#utility.yul\":8002:8020   */\n      tag_364\n      tag_250\n      jump\t// in\n    tag_364:\n        /* \"#utility.yul\":7934:8022   */\n    tag_363:\n        /* \"#utility.yul\":8042:8052   */\n      dup1\n        /* \"#utility.yul\":8038:8040   */\n      0x40\n        /* \"#utility.yul\":8031:8053   */\n      mstore\n        /* \"#utility.yul\":7821:8059   */\n      pop\n        /* \"#utility.yul\":7778:8059   */\n      pop\n      pop\n      jump\t// out\n        /* \"#utility.yul\":8065:8194   */\n    tag_252:\n        /* \"#utility.yul\":8099:8105   */\n      0x00\n        /* \"#utility.yul\":8126:8146   */\n      tag_366\n      tag_227\n      jump\t// in\n    tag_366:\n        /* \"#utility.yul\":8116:8146   */\n      swap1\n      pop\n        /* \"#utility.yul\":8155:8188   */\n      tag_367\n        /* \"#utility.yul\":8183:8187   */\n      dup3\n        /* \"#utility.yul\":8175:8181   */\n      dup3\n        /* \"#utility.yul\":8155:8188   */\n      tag_251\n      jump\t// in\n    tag_367:\n        /* \"#utility.yul\":8065:8194   */\n      swap2\n      swap1\n      pop\n      jump\t// out\n        /* \"#utility.yul\":8200:8508   */\n    tag_253:\n        /* \"#utility.yul\":8262:8266   */\n      0x00\n        /* \"#utility.yul\":8352:8370   */\n      0xffffffffffffffff\n        /* \"#utility.yul\":8344:8350   */\n      dup3\n        /* \"#utility.yul\":8341:8371   */\n      gt\n        /* \"#utility.yul\":8338:8394   */\n      iszero\n      tag_369\n      jumpi\n        /* \"#utility.yul\":8374:8392   */\n      tag_370\n      tag_250\n      jump\t// in\n    tag_370:\n        /* \"#utility.yul\":8338:8394   */\n    tag_369:\n        /* \"#utility.yul\":8412:8441   */\n      tag_371\n        /* \"#utility.yul\":8434:8440   */\n      dup3\n        /* \"#utility.yul\":8412:8441   */\n      tag_244\n      jump\t// in\n    tag_371:\n        /* \"#utility.yul\":8404:8441   */\n      swap1\n      pop\n        /* \"#utility.yul\":8496:8500   */\n      0x20\n        /* \"#utility.yul\":8490:8494   */\n      dup2\n        /* \"#utility.yul\":8486:8501   */\n      add\n        /* \"#utility.yul\":8478:8501   */\n      swap1\n      pop\n        /* \"#utility.yul\":8200:8508   */\n      swap2\n      swap1\n      pop\n      jump\t// out\n        /* \"#utility.yul\":8514:8668   */\n    tag_254:\n        /* \"#utility.yul\":8598:8604   */\n      dup3\n        /* \"#utility.yul\":8593:8596   */\n      dup2\n        /* \"#utility.yul\":8588:8591   */\n      dup4\n        /* \"#utility.yul\":8575:8605   */\n      calldatacopy\n        /* \"#utility.yul\":8660:8661   */\n      0x00\n        /* \"#utility.yul\":8651:8657   */\n      dup4\n        /* \"#utility.yul\":8646:8649   */\n      dup4\n        /* \"#utility.yul\":8642:8658   */\n      add\n        /* \"#utility.yul\":8635:8662   */\n      mstore\n        /* \"#utility.yul\":8514:8668   */\n      pop\n      pop\n      pop\n      jump\t// out\n        /* \"#utility.yul\":8674:9086   */\n    tag_255:\n        /* \"#utility.yul\":8752:8757   */\n      0x00\n        /* \"#utility.yul\":8777:8843   */\n      tag_374\n        /* \"#utility.yul\":8793:8842   */\n      tag_375\n        /* \"#utility.yul\":8835:8841   */\n      dup5\n        /* \"#utility.yul\":8793:8842   */\n      tag_253\n      jump\t// in\n    tag_375:\n        /* \"#utility.yul\":8777:8843   */\n      tag_252\n      jump\t// in\n    tag_374:\n        /* \"#utility.yul\":8768:8843   */\n      swap1\n      pop\n        /* \"#utility.yul\":8866:8872   */\n      dup3\n        /* \"#utility.yul\":8859:8864   */\n      dup2\n        /* \"#utility.yul\":8852:8873   */\n      mstore\n        /* \"#utility.yul\":8904:8908   */\n      0x20\n        /* \"#utility.yul\":8897:8902   */\n      dup2\n        /* \"#utility.yul\":8893:8909   */\n      add\n        /* \"#utility.yul\":8942:8945   */\n      dup5\n        /* \"#utility.yul\":8933:8939   */\n      dup5\n        /* \"#utility.yul\":8928:8931   */\n      dup5\n        /* \"#utility.yul\":8924:8940   */\n      add\n        /* \"#utility.yul\":8921:8946   */\n      gt\n        /* \"#utility.yul\":8918:9030   */\n      iszero\n      tag_376\n      jumpi\n        /* \"#utility.yul\":8949:9028   */\n      tag_377\n      tag_249\n      jump\t// in\n    tag_377:\n        /* \"#utility.yul\":8918:9030   */\n    tag_376:\n        /* \"#utility.yul\":9039:9080   */\n      tag_378\n        /* \"#utility.yul\":9073:9079   */\n      dup5\n        /* \"#utility.yul\":9068:9071   */\n      dup3\n        /* \"#utility.yul\":9063:9066   */\n      dup6\n        /* \"#utility.yul\":9039:9080   */\n      tag_254\n      jump\t// in\n    tag_378:\n        /* \"#utility.yul\":8758:9086   */\n      pop\n        /* \"#utility.yul\":8674:9086   */\n      swap4\n      swap3\n      pop\n      pop\n      pop\n      jump\t// out\n        /* \"#utility.yul\":9106:9446   */\n    tag_256:\n        /* \"#utility.yul\":9162:9167   */\n      0x00\n        /* \"#utility.yul\":9211:9214   */\n      dup3\n        /* \"#utility.yul\":9204:9208   */\n      0x1f\n        /* \"#utility.yul\":9196:9202   */\n      dup4\n        /* \"#utility.yul\":9192:9209   */\n      add\n        /* \"#utility.yul\":9188:9215   */\n      slt\n        /* \"#utility.yul\":9178:9300   */\n      tag_380\n      jumpi\n        /* \"#utility.yul\":9219:9298   */\n      tag_381\n      tag_248\n      jump\t// in\n    tag_381:\n        /* \"#utility.yul\":9178:9300   */\n    tag_380:\n        /* \"#utility.yul\":9336:9342   */\n      dup2\n        /* \"#utility.yul\":9323:9343   */\n      calldataload\n        /* \"#utility.yul\":9361:9440   */\n      tag_382\n        /* \"#utility.yul\":9436:9439   */\n      dup5\n        /* \"#utility.yul\":9428:9434   */\n      dup3\n        /* \"#utility.yul\":9421:9425   */\n      0x20\n        /* \"#utility.yul\":9413:9419   */\n      dup7\n        /* \"#utility.yul\":9409:9426   */\n      add\n        /* \"#utility.yul\":9361:9440   */\n      tag_255\n      jump\t// in\n    tag_382:\n        /* \"#utility.yul\":9352:9440   */\n      swap2\n      pop\n        /* \"#utility.yul\":9168:9446   */\n      pop\n        /* \"#utility.yul\":9106:9446   */\n      swap3\n      swap2\n      pop\n      pop\n      jump\t// out\n        /* \"#utility.yul\":9452:9590   */\n    tag_257:\n        /* \"#utility.yul\":9533:9565   */\n      tag_384\n        /* \"#utility.yul\":9559:9564   */\n      dup2\n        /* \"#utility.yul\":9533:9565   */\n      tag_246\n      jump\t// in\n    tag_384:\n        /* \"#utility.yul\":9526:9531   */\n      dup2\n        /* \"#utility.yul\":9523:9566   */\n      eq\n        /* \"#utility.yul\":9513:9584   */\n      tag_385\n      jumpi\n        /* \"#utility.yul\":9580:9581   */\n      0x00\n        /* \"#utility.yul\":9577:9578   */\n      dup1\n        /* \"#utility.yul\":9570:9582   */\n      revert\n        /* \"#utility.yul\":9513:9584   */\n    tag_385:\n        /* \"#utility.yul\":9452:9590   */\n      pop\n      jump\t// out\n        /* \"#utility.yul\":9596:9751   */\n    tag_258:\n        /* \"#utility.yul\":9650:9655   */\n      0x00\n        /* \"#utility.yul\":9688:9694   */\n      dup2\n        /* \"#utility.yul\":9675:9695   */\n      calldataload\n        /* \"#utility.yul\":9666:9695   */\n      swap1\n      pop\n        /* \"#utility.yul\":9704:9745   */\n      tag_387\n        /* \"#utility.yul\":9739:9744   */\n      dup2\n        /* \"#utility.yul\":9704:9745   */\n      tag_257\n      jump\t// in\n    tag_387:\n        /* \"#utility.yul\":9596:9751   */\n      swap3\n      swap2\n      pop\n      pop\n      jump\t// out\n        /* \"#utility.yul\":9757:10572   */\n    tag_80:\n        /* \"#utility.yul\":9852:9858   */\n      0x00\n        /* \"#utility.yul\":9860:9866   */\n      dup1\n        /* \"#utility.yul\":9868:9874   */\n      0x00\n        /* \"#utility.yul\":9917:9919   */\n      0x60\n        /* \"#utility.yul\":9905:9914   */\n      dup5\n        /* \"#utility.yul\":9896:9903   */\n      dup7\n        /* \"#utility.yul\":9892:9915   */\n      sub\n        /* \"#utility.yul\":9888:9920   */\n      slt\n        /* \"#utility.yul\":9885:10004   */\n      iszero\n      tag_389\n      jumpi\n        /* \"#utility.yul\":9923:10002   */\n      tag_390\n      tag_228\n      jump\t// in\n    tag_390:\n        /* \"#utility.yul\":9885:10004   */\n    tag_389:\n        /* \"#utility.yul\":10071:10072   */\n      0x00\n        /* \"#utility.yul\":10060:10069   */\n      dup5\n        /* \"#utility.yul\":10056:10073   */\n      add\n        /* \"#utility.yul\":10043:10074   */\n      calldataload\n        /* \"#utility.yul\":10101:10119   */\n      0xffffffffffffffff\n        /* \"#utility.yul\":10093:10099   */\n      dup2\n        /* \"#utility.yul\":10090:10120   */\n      gt\n        /* \"#utility.yul\":10087:10204   */\n      iszero\n      tag_391\n      jumpi\n        /* \"#utility.yul\":10123:10202   */\n      tag_392\n      tag_229\n      jump\t// in\n    tag_392:\n        /* \"#utility.yul\":10087:10204   */\n    tag_391:\n        /* \"#utility.yul\":10228:10291   */\n      tag_393\n        /* \"#utility.yul\":10283:10290   */\n      dup7\n        /* \"#utility.yul\":10274:10280   */\n      dup3\n        /* \"#utility.yul\":10263:10272   */\n      dup8\n        /* \"#utility.yul\":10259:10281   */\n      add\n        /* \"#utility.yul\":10228:10291   */\n      tag_256\n      jump\t// in\n    tag_393:\n        /* \"#utility.yul\":10218:10291   */\n      swap4\n      pop\n        /* \"#utility.yul\":10014:10301   */\n      pop\n        /* \"#utility.yul\":10340:10342   */\n      0x20\n        /* \"#utility.yul\":10366:10419   */\n      tag_394\n        /* \"#utility.yul\":10411:10418   */\n      dup7\n        /* \"#utility.yul\":10402:10408   */\n      dup3\n        /* \"#utility.yul\":10391:10400   */\n      dup8\n        /* \"#utility.yul\":10387:10409   */\n      add\n        /* \"#utility.yul\":10366:10419   */\n      tag_232\n      jump\t// in\n    tag_394:\n        /* \"#utility.yul\":10356:10419   */\n      swap3\n      pop\n        /* \"#utility.yul\":10311:10429   */\n      pop\n        /* \"#utility.yul\":10468:10470   */\n      0x40\n        /* \"#utility.yul\":10494:10555   */\n      tag_395\n        /* \"#utility.yul\":10547:10554   */\n      dup7\n        /* \"#utility.yul\":10538:10544   */\n      dup3\n        /* \"#utility.yul\":10527:10536   */\n      dup8\n        /* \"#utility.yul\":10523:10545   */\n      add\n        /* \"#utility.yul\":10494:10555   */\n      tag_258\n      jump\t// in\n    tag_395:\n        /* \"#utility.yul\":10484:10555   */\n      swap2\n      pop\n        /* \"#utility.yul\":10439:10565   */\n      pop\n        /* \"#utility.yul\":9757:10572   */\n      swap3\n      pop\n      swap3\n      pop\n      swap3\n      jump\t// out\n        /* \"#utility.yul\":10578:10891   */\n    tag_90:\n        /* \"#utility.yul\":10691:10695   */\n      0x00\n        /* \"#utility.yul\":10729:10731   */\n      0x20\n        /* \"#utility.yul\":10718:10727   */\n      dup3\n        /* \"#utility.yul\":10714:10732   */\n      add\n        /* \"#utility.yul\":10706:10732   */\n      swap1\n      pop\n        /* \"#utility.yul\":10778:10787   */\n      dup2\n        /* \"#utility.yul\":10772:10776   */\n      dup2\n        /* \"#utility.yul\":10768:10788   */\n      sub\n        /* \"#utility.yul\":10764:10765   */\n      0x00\n        /* \"#utility.yul\":10753:10762   */\n      dup4\n        /* \"#utility.yul\":10749:10766   */\n      add\n        /* \"#utility.yul\":10742:10789   */\n      mstore\n        /* \"#utility.yul\":10806:10884   */\n      tag_397\n        /* \"#utility.yul\":10879:10883   */\n      dup2\n        /* \"#utility.yul\":10870:10876   */\n      dup5\n        /* \"#utility.yul\":10806:10884   */\n      tag_245\n      jump\t// in\n    tag_397:\n        /* \"#utility.yul\":10798:10884   */\n      swap1\n      pop\n        /* \"#utility.yul\":10578:10891   */\n      swap3\n      swap2\n      pop\n      pop\n      jump\t// out\n        /* \"#utility.yul\":10897:11118   */\n    tag_259:\n        /* \"#utility.yul\":11037:11071   */\n      0x4f6e6c79206d616e616765722063616e2074616b65207468697320616374696f\n        /* \"#utility.yul\":11033:11034   */\n      0x00\n        /* \"#utility.yul\":11025:11031   */\n      dup3\n        /* \"#utility.yul\":11021:11035   */\n      add\n        /* \"#utility.yul\":11014:11072   */\n      mstore\n        /* \"#utility.yul\":11106:11110   */\n      0x6e2e000000000000000000000000000000000000000000000000000000000000\n        /* \"#utility.yul\":11101:11103   */\n      0x20\n        /* \"#utility.yul\":11093:11099   */\n      dup3\n        /* \"#utility.yul\":11089:11104   */\n      add\n        /* \"#utility.yul\":11082:11111   */\n      mstore\n        /* \"#utility.yul\":10897:11118   */\n      pop\n      jump\t// out\n        /* \"#utility.yul\":11124:11490   */\n    tag_260:\n        /* \"#utility.yul\":11266:11269   */\n      0x00\n        /* \"#utility.yul\":11287:11354   */\n      tag_400\n        /* \"#utility.yul\":11351:11353   */\n      0x22\n        /* \"#utility.yul\":11346:11349   */\n      dup4\n        /* \"#utility.yul\":11287:11354   */\n      tag_242\n      jump\t// in\n    tag_400:\n        /* \"#utility.yul\":11280:11354   */\n      swap2\n      pop\n        /* \"#utility.yul\":11363:11456   */\n      tag_401\n        /* \"#utility.yul\":11452:11455   */\n      dup3\n        /* \"#utility.yul\":11363:11456   */\n      tag_259\n      jump\t// in\n    tag_401:\n        /* \"#utility.yul\":11481:11483   */\n      0x40\n        /* \"#utility.yul\":11476:11479   */\n      dup3\n        /* \"#utility.yul\":11472:11484   */\n      add\n        /* \"#utility.yul\":11465:11484   */\n      swap1\n      pop\n        /* \"#utility.yul\":11124:11490   */\n      swap2\n      swap1\n      pop\n      jump\t// out\n        /* \"#utility.yul\":11496:11915   */\n    tag_120:\n        /* \"#utility.yul\":11662:11666   */\n      0x00\n        /* \"#utility.yul\":11700:11702   */\n      0x20\n        /* \"#utility.yul\":11689:11698   */\n      dup3\n        /* \"#utility.yul\":11685:11703   */\n      add\n        /* \"#utility.yul\":11677:11703   */\n      swap1\n      pop\n        /* \"#utility.yul\":11749:11758   */\n      dup2\n        /* \"#utility.yul\":11743:11747   */\n      dup2\n        /* \"#utility.yul\":11739:11759   */\n      sub\n        /* \"#utility.yul\":11735:11736   */\n      0x00\n        /* \"#utility.yul\":11724:11733   */\n      dup4\n        /* \"#utility.yul\":11720:11737   */\n      add\n        /* \"#utility.yul\":11713:11760   */\n      mstore\n        /* \"#utility.yul\":11777:11908   */\n      tag_403\n        /* \"#utility.yul\":11903:11907   */\n      dup2\n        /* \"#utility.yul\":11777:11908   */\n      tag_260\n      jump\t// in\n    tag_403:\n        /* \"#utility.yul\":11769:11908   */\n      swap1\n      pop\n        /* \"#utility.yul\":11496:11915   */\n      swap2\n      swap1\n      pop\n      jump\t// out\n        /* \"#utility.yul\":11921:12101   */\n    tag_261:\n        /* \"#utility.yul\":11969:12046   */\n      0x4e487b7100000000000000000000000000000000000000000000000000000000\n        /* \"#utility.yul\":11966:11967   */\n      0x00\n        /* \"#utility.yul\":11959:12047   */\n      mstore\n        /* \"#utility.yul\":12066:12070   */\n      0x12\n        /* \"#utility.yul\":12063:12064   */\n      0x04\n        /* \"#utility.yul\":12056:12071   */\n      mstore\n        /* \"#utility.yul\":12090:12094   */\n      0x24\n        /* \"#utility.yul\":12087:12088   */\n      0x00\n        /* \"#utility.yul\":12080:12095   */\n      revert\n        /* \"#utility.yul\":12107:12287   */\n    tag_262:\n        /* \"#utility.yul\":12155:12232   */\n      0x4e487b7100000000000000000000000000000000000000000000000000000000\n        /* \"#utility.yul\":12152:12153   */\n      0x00\n        /* \"#utility.yul\":12145:12233   */\n      mstore\n        /* \"#utility.yul\":12252:12256   */\n      0x11\n        /* \"#utility.yul\":12249:12250   */\n      0x04\n        /* \"#utility.yul\":12242:12257   */\n      mstore\n        /* \"#utility.yul\":12276:12280   */\n      0x24\n        /* \"#utility.yul\":12273:12274   */\n      0x00\n        /* \"#utility.yul\":12266:12281   */\n      revert\n        /* \"#utility.yul\":12293:12478   */\n    tag_123:\n        /* \"#utility.yul\":12333:12334   */\n      0x00\n        /* \"#utility.yul\":12350:12370   */\n      tag_407\n        /* \"#utility.yul\":12368:12369   */\n      dup3\n        /* \"#utility.yul\":12350:12370   */\n      tag_230\n      jump\t// in\n    tag_407:\n        /* \"#utility.yul\":12345:12370   */\n      swap2\n      pop\n        /* \"#utility.yul\":12384:12404   */\n      tag_408\n        /* \"#utility.yul\":12402:12403   */\n      dup4\n        /* \"#utility.yul\":12384:12404   */\n      tag_230\n      jump\t// in\n    tag_408:\n        /* \"#utility.yul\":12379:12404   */\n      swap3\n      pop\n        /* \"#utility.yul\":12423:12424   */\n      dup3\n        /* \"#utility.yul\":12413:12448   */\n      tag_409\n      jumpi\n        /* \"#utility.yul\":12428:12446   */\n      tag_410\n      tag_261\n      jump\t// in\n    tag_410:\n        /* \"#utility.yul\":12413:12448   */\n    tag_409:\n        /* \"#utility.yul\":12470:12471   */\n      dup3\n        /* \"#utility.yul\":12467:12468   */\n      dup3\n        /* \"#utility.yul\":12463:12472   */\n      div\n        /* \"#utility.yul\":12458:12472   */\n      swap1\n      pop\n        /* \"#utility.yul\":12293:12478   */\n      swap3\n      swap2\n      pop\n      pop\n      jump\t// out\n        /* \"#utility.yul\":12484:12660   */\n    tag_263:\n        /* \"#utility.yul\":12624:12652   */\n      0x4e6f7420656e6f75676820617070726f76616c20726174696f2e000000000000\n        /* \"#utility.yul\":12620:12621   */\n      0x00\n        /* \"#utility.yul\":12612:12618   */\n      dup3\n        /* \"#utility.yul\":12608:12622   */\n      add\n        /* \"#utility.yul\":12601:12653   */\n      mstore\n        /* \"#utility.yul\":12484:12660   */\n      pop\n      jump\t// out\n        /* \"#utility.yul\":12666:13032   */\n    tag_264:\n        /* \"#utility.yul\":12808:12811   */\n      0x00\n        /* \"#utility.yul\":12829:12896   */\n      tag_413\n        /* \"#utility.yul\":12893:12895   */\n      0x1a\n        /* \"#utility.yul\":12888:12891   */\n      dup4\n        /* \"#utility.yul\":12829:12896   */\n      tag_242\n      jump\t// in\n    tag_413:\n        /* \"#utility.yul\":12822:12896   */\n      swap2\n      pop\n        /* \"#utility.yul\":12905:12998   */\n      tag_414\n        /* \"#utility.yul\":12994:12997   */\n      dup3\n        /* \"#utility.yul\":12905:12998   */\n      tag_263\n      jump\t// in\n    tag_414:\n        /* \"#utility.yul\":13023:13025   */\n      0x20\n        /* \"#utility.yul\":13018:13021   */\n      dup3\n        /* \"#utility.yul\":13014:13026   */\n      add\n        /* \"#utility.yul\":13007:13026   */\n      swap1\n      pop\n        /* \"#utility.yul\":12666:13032   */\n      swap2\n      swap1\n      pop\n      jump\t// out\n        /* \"#utility.yul\":13038:13457   */\n    tag_126:\n        /* \"#utility.yul\":13204:13208   */\n      0x00\n        /* \"#utility.yul\":13242:13244   */\n      0x20\n        /* \"#utility.yul\":13231:13240   */\n      dup3\n        /* \"#utility.yul\":13227:13245   */\n      add\n        /* \"#utility.yul\":13219:13245   */\n      swap1\n      pop\n        /* \"#utility.yul\":13291:13300   */\n      dup2\n        /* \"#utility.yul\":13285:13289   */\n      dup2\n        /* \"#utility.yul\":13281:13301   */\n      sub\n        /* \"#utility.yul\":13277:13278   */\n      0x00\n        /* \"#utility.yul\":13266:13275   */\n      dup4\n        /* \"#utility.yul\":13262:13279   */\n      add\n        /* \"#utility.yul\":13255:13302   */\n      mstore\n        /* \"#utility.yul\":13319:13450   */\n      tag_416\n        /* \"#utility.yul\":13445:13449   */\n      dup2\n        /* \"#utility.yul\":13319:13450   */\n      tag_264\n      jump\t// in\n    tag_416:\n        /* \"#utility.yul\":13311:13450   */\n      swap1\n      pop\n        /* \"#utility.yul\":13038:13457   */\n      swap2\n      swap1\n      pop\n      jump\t// out\n        /* \"#utility.yul\":13463:13683   */\n    tag_265:\n        /* \"#utility.yul\":13603:13637   */\n      0x546865207265717565737420697320616c72656164792066696e616c697a6564\n        /* \"#utility.yul\":13599:13600   */\n      0x00\n        /* \"#utility.yul\":13591:13597   */\n      dup3\n        /* \"#utility.yul\":13587:13601   */\n      add\n        /* \"#utility.yul\":13580:13638   */\n      mstore\n        /* \"#utility.yul\":13672:13675   */\n      0x2e00000000000000000000000000000000000000000000000000000000000000\n        /* \"#utility.yul\":13667:13669   */\n      0x20\n        /* \"#utility.yul\":13659:13665   */\n      dup3\n        /* \"#utility.yul\":13655:13670   */\n      add\n        /* \"#utility.yul\":13648:13676   */\n      mstore\n        /* \"#utility.yul\":13463:13683   */\n      pop\n      jump\t// out\n        /* \"#utility.yul\":13689:14055   */\n    tag_266:\n        /* \"#utility.yul\":13831:13834   */\n      0x00\n        /* \"#utility.yul\":13852:13919   */\n      tag_419\n        /* \"#utility.yul\":13916:13918   */\n      0x21\n        /* \"#utility.yul\":13911:13914   */\n      dup4\n        /* \"#utility.yul\":13852:13919   */\n      tag_242\n      jump\t// in\n    tag_419:\n        /* \"#utility.yul\":13845:13919   */\n      swap2\n      pop\n        /* \"#utility.yul\":13928:14021   */\n      tag_420\n        /* \"#utility.yul\":14017:14020   */\n      dup3\n        /* \"#utility.yul\":13928:14021   */\n      tag_265\n      jump\t// in\n    tag_420:\n        /* \"#utility.yul\":14046:14048   */\n      0x40\n        /* \"#utility.yul\":14041:14044   */\n      dup3\n        /* \"#utility.yul\":14037:14049   */\n      add\n        /* \"#utility.yul\":14030:14049   */\n      swap1\n      pop\n        /* \"#utility.yul\":13689:14055   */\n      swap2\n      swap1\n      pop\n      jump\t// out\n        /* \"#utility.yul\":14061:14480   */\n    tag_129:\n        /* \"#utility.yul\":14227:14231   */\n      0x00\n        /* \"#utility.yul\":14265:14267   */\n      0x20\n        /* \"#utility.yul\":14254:14263   */\n      dup3\n        /* \"#utility.yul\":14250:14268   */\n      add\n        /* \"#utility.yul\":14242:14268   */\n      swap1\n      pop\n        /* \"#utility.yul\":14314:14323   */\n      dup2\n        /* \"#utility.yul\":14308:14312   */\n      dup2\n        /* \"#utility.yul\":14304:14324   */\n      sub\n        /* \"#utility.yul\":14300:14301   */\n      0x00\n        /* \"#utility.yul\":14289:14298   */\n      dup4\n        /* \"#utility.yul\":14285:14302   */\n      add\n        /* \"#utility.yul\":14278:14325   */\n      mstore\n        /* \"#utility.yul\":14342:14473   */\n      tag_422\n        /* \"#utility.yul\":14468:14472   */\n      dup2\n        /* \"#utility.yul\":14342:14473   */\n      tag_266\n      jump\t// in\n    tag_422:\n        /* \"#utility.yul\":14334:14473   */\n      swap1\n      pop\n        /* \"#utility.yul\":14061:14480   */\n      swap2\n      swap1\n      pop\n      jump\t// out\n        /* \"#utility.yul\":14486:14666   */\n    tag_138:\n        /* \"#utility.yul\":14534:14611   */\n      0x4e487b7100000000000000000000000000000000000000000000000000000000\n        /* \"#utility.yul\":14531:14532   */\n      0x00\n        /* \"#utility.yul\":14524:14612   */\n      mstore\n        /* \"#utility.yul\":14631:14635   */\n      0x32\n        /* \"#utility.yul\":14628:14629   */\n      0x04\n        /* \"#utility.yul\":14621:14636   */\n      mstore\n        /* \"#utility.yul\":14655:14659   */\n      0x24\n        /* \"#utility.yul\":14652:14653   */\n      0x00\n        /* \"#utility.yul\":14645:14660   */\n      revert\n        /* \"#utility.yul\":14672:14905   */\n    tag_146:\n        /* \"#utility.yul\":14711:14714   */\n      0x00\n        /* \"#utility.yul\":14734:14758   */\n      tag_425\n        /* \"#utility.yul\":14752:14757   */\n      dup3\n        /* \"#utility.yul\":14734:14758   */\n      tag_230\n      jump\t// in\n    tag_425:\n        /* \"#utility.yul\":14725:14758   */\n      swap2\n      pop\n        /* \"#utility.yul\":14780:14846   */\n      0xffffffffffffffffffffffffffffffffffffffffffffffffffffffffffffffff\n        /* \"#utility.yul\":14773:14778   */\n      dup3\n        /* \"#utility.yul\":14770:14847   */\n      eq\n        /* \"#utility.yul\":14767:14870   */\n      iszero\n      tag_426\n      jumpi\n        /* \"#utility.yul\":14850:14868   */\n      tag_427\n      tag_262\n      jump\t// in\n    tag_427:\n        /* \"#utility.yul\":14767:14870   */\n    tag_426:\n        /* \"#utility.yul\":14897:14898   */\n      0x01\n        /* \"#utility.yul\":14890:14895   */\n      dup3\n        /* \"#utility.yul\":14886:14899   */\n      add\n        /* \"#utility.yul\":14879:14899   */\n      swap1\n      pop\n        /* \"#utility.yul\":14672:14905   */\n      swap2\n      swap1\n      pop\n      jump\t// out\n        /* \"#utility.yul\":14911:15091   */\n    tag_267:\n        /* \"#utility.yul\":14959:15036   */\n      0x4e487b7100000000000000000000000000000000000000000000000000000000\n        /* \"#utility.yul\":14956:14957   */\n      0x00\n        /* \"#utility.yul\":14949:15037   */\n      mstore\n        /* \"#utility.yul\":15056:15060   */\n      0x22\n        /* \"#utility.yul\":15053:15054   */\n      0x04\n        /* \"#utility.yul\":15046:15061   */\n      mstore\n        /* \"#utility.yul\":15080:15084   */\n      0x24\n        /* \"#utility.yul\":15077:15078   */\n      0x00\n        /* \"#utility.yul\":15070:15085   */\n      revert\n        /* \"#utility.yul\":15097:15417   */\n    tag_150:\n        /* \"#utility.yul\":15141:15147   */\n      0x00\n        /* \"#utility.yul\":15178:15179   */\n      0x02\n        /* \"#utility.yul\":15172:15176   */\n      dup3\n        /* \"#utility.yul\":15168:15180   */\n      div\n        /* \"#utility.yul\":15158:15180   */\n      swap1\n      pop\n        /* \"#utility.yul\":15225:15226   */\n      0x01\n        /* \"#utility.yul\":15219:15223   */\n      dup3\n        /* \"#utility.yul\":15215:15227   */\n      and\n        /* \"#utility.yul\":15246:15264   */\n      dup1\n        /* \"#utility.yul\":15236:15317   */\n      tag_430\n      jumpi\n        /* \"#utility.yul\":15302:15306   */\n      0x7f\n        /* \"#utility.yul\":15294:15300   */\n      dup3\n        /* \"#utility.yul\":15290:15307   */\n      and\n        /* \"#utility.yul\":15280:15307   */\n      swap2\n      pop\n        /* \"#utility.yul\":15236:15317   */\n    tag_430:\n        /* \"#utility.yul\":15364:15366   */\n      0x20\n        /* \"#utility.yul\":15356:15362   */\n      dup3\n        /* \"#utility.yul\":15353:15367   */\n      lt\n        /* \"#utility.yul\":15333:15351   */\n      dup2\n        /* \"#utility.yul\":15330:15368   */\n      eq\n        /* \"#utility.yul\":15327:15411   */\n      iszero\n      tag_431\n      jumpi\n        /* \"#utility.yul\":15383:15401   */\n      tag_432\n      tag_267\n      jump\t// in\n    tag_432:\n        /* \"#utility.yul\":15327:15411   */\n    tag_431:\n        /* \"#utility.yul\":15148:15417   */\n      pop\n        /* \"#utility.yul\":15097:15417   */\n      swap2\n      swap1\n      pop\n      jump\t// out\n        /* \"#utility.yul\":15423:15728   */\n    tag_177:\n        /* \"#utility.yul\":15463:15466   */\n      0x00\n        /* \"#utility.yul\":15482:15502   */\n      tag_434\n        /* \"#utility.yul\":15500:15501   */\n      dup3\n        /* \"#utility.yul\":15482:15502   */\n      tag_230\n      jump\t// in\n    tag_434:\n        /* \"#utility.yul\":15477:15502   */\n      swap2\n      pop\n        /* \"#utility.yul\":15516:15536   */\n      tag_435\n        /* \"#utility.yul\":15534:15535   */\n      dup4\n        /* \"#utility.yul\":15516:15536   */\n      tag_230\n      jump\t// in\n    tag_435:\n        /* \"#utility.yul\":15511:15536   */\n      swap3\n      pop\n        /* \"#utility.yul\":15670:15671   */\n      dup3\n        /* \"#utility.yul\":15602:15668   */\n      0xffffffffffffffffffffffffffffffffffffffffffffffffffffffffffffffff\n        /* \"#utility.yul\":15598:15672   */\n      sub\n        /* \"#utility.yul\":15595:15596   */\n      dup3\n        /* \"#utility.yul\":15592:15673   */\n      gt\n        /* \"#utility.yul\":15589:15696   */\n      iszero\n      tag_436\n      jumpi\n        /* \"#utility.yul\":15676:15694   */\n      tag_437\n      tag_262\n      jump\t// in\n    tag_437:\n        /* \"#utility.yul\":15589:15696   */\n    tag_436:\n        /* \"#utility.yul\":15720:15721   */\n      dup3\n        /* \"#utility.yul\":15717:15718   */\n      dup3\n        /* \"#utility.yul\":15713:15722   */\n      add\n        /* \"#utility.yul\":15706:15722   */\n      swap1\n      pop\n        /* \"#utility.yul\":15423:15728   */\n      swap3\n      swap2\n      pop\n      pop\n      jump\t// out\n        /* \"#utility.yul\":15734:15968   */\n    tag_268:\n        /* \"#utility.yul\":15874:15908   */\n      0x596f752063616e27742072657175657374206574686572206d6f726520746861\n        /* \"#utility.yul\":15870:15871   */\n      0x00\n        /* \"#utility.yul\":15862:15868   */\n      dup3\n        /* \"#utility.yul\":15858:15872   */\n      add\n        /* \"#utility.yul\":15851:15909   */\n      mstore\n        /* \"#utility.yul\":15943:15960   */\n      0x6e20796f75722062616c616e63652e0000000000000000000000000000000000\n        /* \"#utility.yul\":15938:15940   */\n      0x20\n        /* \"#utility.yul\":15930:15936   */\n      dup3\n        /* \"#utility.yul\":15926:15941   */\n      add\n        /* \"#utility.yul\":15919:15961   */\n      mstore\n        /* \"#utility.yul\":15734:15968   */\n      pop\n      jump\t// out\n        /* \"#utility.yul\":15974:16340   */\n    tag_269:\n        /* \"#utility.yul\":16116:16119   */\n      0x00\n        /* \"#utility.yul\":16137:16204   */\n      tag_440\n        /* \"#utility.yul\":16201:16203   */\n      0x2f\n        /* \"#utility.yul\":16196:16199   */\n      dup4\n        /* \"#utility.yul\":16137:16204   */\n      tag_242\n      jump\t// in\n    tag_440:\n        /* \"#utility.yul\":16130:16204   */\n      swap2\n      pop\n        /* \"#utility.yul\":16213:16306   */\n      tag_441\n        /* \"#utility.yul\":16302:16305   */\n      dup3\n        /* \"#utility.yul\":16213:16306   */\n      tag_268\n      jump\t// in\n    tag_441:\n        /* \"#utility.yul\":16331:16333   */\n      0x40\n        /* \"#utility.yul\":16326:16329   */\n      dup3\n        /* \"#utility.yul\":16322:16334   */\n      add\n        /* \"#utility.yul\":16315:16334   */\n      swap1\n      pop\n        /* \"#utility.yul\":15974:16340   */\n      swap2\n      swap1\n      pop\n      jump\t// out\n        /* \"#utility.yul\":16346:16765   */\n    tag_180:\n        /* \"#utility.yul\":16512:16516   */\n      0x00\n        /* \"#utility.yul\":16550:16552   */\n      0x20\n        /* \"#utility.yul\":16539:16548   */\n      dup3\n        /* \"#utility.yul\":16535:16553   */\n      add\n        /* \"#utility.yul\":16527:16553   */\n      swap1\n      pop\n        /* \"#utility.yul\":16599:16608   */\n      dup2\n        /* \"#utility.yul\":16593:16597   */\n      dup2\n        /* \"#utility.yul\":16589:16609   */\n      sub\n        /* \"#utility.yul\":16585:16586   */\n      0x00\n        /* \"#utility.yul\":16574:16583   */\n      dup4\n        /* \"#utility.yul\":16570:16587   */\n      add\n        /* \"#utility.yul\":16563:16610   */\n      mstore\n        /* \"#utility.yul\":16627:16758   */\n      tag_443\n        /* \"#utility.yul\":16753:16757   */\n      dup2\n        /* \"#utility.yul\":16627:16758   */\n      tag_269\n      jump\t// in\n    tag_443:\n        /* \"#utility.yul\":16619:16758   */\n      swap1\n      pop\n        /* \"#utility.yul\":16346:16765   */\n      swap2\n      swap1\n      pop\n      jump\t// out\n        /* \"#utility.yul\":16771:17005   */\n    tag_270:\n        /* \"#utility.yul\":16911:16945   */\n      0x596f752073686f756c6420636f6e74726962757465206d6f7265207468616e20\n        /* \"#utility.yul\":16907:16908   */\n      0x00\n        /* \"#utility.yul\":16899:16905   */\n      dup3\n        /* \"#utility.yul\":16895:16909   */\n      add\n        /* \"#utility.yul\":16888:16946   */\n      mstore\n        /* \"#utility.yul\":16980:16997   */\n      0x6d696e696d756d20616d6f756e742e0000000000000000000000000000000000\n        /* \"#utility.yul\":16975:16977   */\n      0x20\n        /* \"#utility.yul\":16967:16973   */\n      dup3\n        /* \"#utility.yul\":16963:16978   */\n      add\n        /* \"#utility.yul\":16956:16998   */\n      mstore\n        /* \"#utility.yul\":16771:17005   */\n      pop\n      jump\t// out\n        /* \"#utility.yul\":17011:17377   */\n    tag_271:\n        /* \"#utility.yul\":17153:17156   */\n      0x00\n        /* \"#utility.yul\":17174:17241   */\n      tag_446\n        /* \"#utility.yul\":17238:17240   */\n      0x2f\n        /* \"#utility.yul\":17233:17236   */\n      dup4\n        /* \"#utility.yul\":17174:17241   */\n      tag_242\n      jump\t// in\n    tag_446:\n        /* \"#utility.yul\":17167:17241   */\n      swap2\n      pop\n        /* \"#utility.yul\":17250:17343   */\n      tag_447\n        /* \"#utility.yul\":17339:17342   */\n      dup3\n        /* \"#utility.yul\":17250:17343   */\n      tag_270\n      jump\t// in\n    tag_447:\n        /* \"#utility.yul\":17368:17370   */\n      0x40\n        /* \"#utility.yul\":17363:17366   */\n      dup3\n        /* \"#utility.yul\":17359:17371   */\n      add\n        /* \"#utility.yul\":17352:17371   */\n      swap1\n      pop\n        /* \"#utility.yul\":17011:17377   */\n      swap2\n      swap1\n      pop\n      jump\t// out\n        /* \"#utility.yul\":17383:17802   */\n    tag_203:\n        /* \"#utility.yul\":17549:17553   */\n      0x00\n        /* \"#utility.yul\":17587:17589   */\n      0x20\n        /* \"#utility.yul\":17576:17585   */\n      dup3\n        /* \"#utility.yul\":17572:17590   */\n      add\n        /* \"#utility.yul\":17564:17590   */\n      swap1\n      pop\n        /* \"#utility.yul\":17636:17645   */\n      dup2\n        /* \"#utility.yul\":17630:17634   */\n      dup2\n        /* \"#utility.yul\":17626:17646   */\n      sub\n        /* \"#utility.yul\":17622:17623   */\n      0x00\n        /* \"#utility.yul\":17611:17620   */\n      dup4\n        /* \"#utility.yul\":17607:17624   */\n      add\n        /* \"#utility.yul\":17600:17647   */\n      mstore\n        /* \"#utility.yul\":17664:17795   */\n      tag_449\n        /* \"#utility.yul\":17790:17794   */\n      dup2\n        /* \"#utility.yul\":17664:17795   */\n      tag_271\n      jump\t// in\n    tag_449:\n        /* \"#utility.yul\":17656:17795   */\n      swap1\n      pop\n        /* \"#utility.yul\":17383:17802   */\n      swap2\n      swap1\n      pop\n      jump\t// out\n        /* \"#utility.yul\":17808:18040   */\n    tag_272:\n        /* \"#utility.yul\":17948:17982   */\n      0x596f752061726520616c726561647920636f6e747269627574656420746f2074\n        /* \"#utility.yul\":17944:17945   */\n      0x00\n        /* \"#utility.yul\":17936:17942   */\n      dup3\n        /* \"#utility.yul\":17932:17946   */\n      add\n        /* \"#utility.yul\":17925:17983   */\n      mstore\n        /* \"#utility.yul\":18017:18032   */\n      0x6869732063616d7061696e672e00000000000000000000000000000000000000\n        /* \"#utility.yul\":18012:18014   */\n      0x20\n        /* \"#utility.yul\":18004:18010   */\n      dup3\n        /* \"#utility.yul\":18000:18015   */\n      add\n        /* \"#utility.yul\":17993:18033   */\n      mstore\n        /* \"#utility.yul\":17808:18040   */\n      pop\n      jump\t// out\n        /* \"#utility.yul\":18046:18412   */\n    tag_273:\n        /* \"#utility.yul\":18188:18191   */\n      0x00\n        /* \"#utility.yul\":18209:18276   */\n      tag_452\n        /* \"#utility.yul\":18273:18275   */\n      0x2d\n        /* \"#utility.yul\":18268:18271   */\n      dup4\n        /* \"#utility.yul\":18209:18276   */\n      tag_242\n      jump\t// in\n    tag_452:\n        /* \"#utility.yul\":18202:18276   */\n      swap2\n      pop\n        /* \"#utility.yul\":18285:18378   */\n      tag_453\n        /* \"#utility.yul\":18374:18377   */\n      dup3\n        /* \"#utility.yul\":18285:18378   */\n      tag_272\n      jump\t// in\n    tag_453:\n        /* \"#utility.yul\":18403:18405   */\n      0x40\n        /* \"#utility.yul\":18398:18401   */\n      dup3\n        /* \"#utility.yul\":18394:18406   */\n      add\n        /* \"#utility.yul\":18387:18406   */\n      swap1\n      pop\n        /* \"#utility.yul\":18046:18412   */\n      swap2\n      swap1\n      pop\n      jump\t// out\n        /* \"#utility.yul\":18418:18837   */\n    tag_206:\n        /* \"#utility.yul\":18584:18588   */\n      0x00\n        /* \"#utility.yul\":18622:18624   */\n      0x20\n        /* \"#utility.yul\":18611:18620   */\n      dup3\n        /* \"#utility.yul\":18607:18625   */\n      add\n        /* \"#utility.yul\":18599:18625   */\n      swap1\n      pop\n        /* \"#utility.yul\":18671:18680   */\n      dup2\n        /* \"#utility.yul\":18665:18669   */\n      dup2\n        /* \"#utility.yul\":18661:18681   */\n      sub\n        /* \"#utility.yul\":18657:18658   */\n      0x00\n        /* \"#utility.yul\":18646:18655   */\n      dup4\n        /* \"#utility.yul\":18642:18659   */\n      add\n        /* \"#utility.yul\":18635:18682   */\n      mstore\n        /* \"#utility.yul\":18699:18830   */\n      tag_455\n        /* \"#utility.yul\":18825:18829   */\n      dup2\n        /* \"#utility.yul\":18699:18830   */\n      tag_273\n      jump\t// in\n    tag_455:\n        /* \"#utility.yul\":18691:18830   */\n      swap1\n      pop\n        /* \"#utility.yul\":18418:18837   */\n      swap2\n      swap1\n      pop\n      jump\t// out\n        /* \"#utility.yul\":18843:19134   */\n    tag_274:\n        /* \"#utility.yul\":18983:19017   */\n      0x596f752073686f756c64206265206120636f6e7472696275746f72206f662074\n        /* \"#utility.yul\":18979:18980   */\n      0x00\n        /* \"#utility.yul\":18971:18977   */\n      dup3\n        /* \"#utility.yul\":18967:18981   */\n      add\n        /* \"#utility.yul\":18960:19018   */\n      mstore\n        /* \"#utility.yul\":19052:19086   */\n      0x6869732063616d706169676e20746f20766f746520666f722061207265717565\n        /* \"#utility.yul\":19047:19049   */\n      0x20\n        /* \"#utility.yul\":19039:19045   */\n      dup3\n        /* \"#utility.yul\":19035:19050   */\n      add\n        /* \"#utility.yul\":19028:19087   */\n      mstore\n        /* \"#utility.yul\":19121:19126   */\n      0x73742e0000000000000000000000000000000000000000000000000000000000\n        /* \"#utility.yul\":19116:19118   */\n      0x40\n        /* \"#utility.yul\":19108:19114   */\n      dup3\n        /* \"#utility.yul\":19104:19119   */\n      add\n        /* \"#utility.yul\":19097:19127   */\n      mstore\n        /* \"#utility.yul\":18843:19134   */\n      pop\n      jump\t// out\n        /* \"#utility.yul\":19140:19506   */\n    tag_275:\n        /* \"#utility.yul\":19282:19285   */\n      0x00\n        /* \"#utility.yul\":19303:19370   */\n      tag_458\n        /* \"#utility.yul\":19367:19369   */\n      0x43\n        /* \"#utility.yul\":19362:19365   */\n      dup4\n        /* \"#utility.yul\":19303:19370   */\n      tag_242\n      jump\t// in\n    tag_458:\n        /* \"#utility.yul\":19296:19370   */\n      swap2\n      pop\n        /* \"#utility.yul\":19379:19472   */\n      tag_459\n        /* \"#utility.yul\":19468:19471   */\n      dup3\n        /* \"#utility.yul\":19379:19472   */\n      tag_274\n      jump\t// in\n    tag_459:\n        /* \"#utility.yul\":19497:19499   */\n      0x60\n        /* \"#utility.yul\":19492:19495   */\n      dup3\n        /* \"#utility.yul\":19488:19500   */\n      add\n        /* \"#utility.yul\":19481:19500   */\n      swap1\n      pop\n        /* \"#utility.yul\":19140:19506   */\n      swap2\n      swap1\n      pop\n      jump\t// out\n        /* \"#utility.yul\":19512:19931   */\n    tag_212:\n        /* \"#utility.yul\":19678:19682   */\n      0x00\n        /* \"#utility.yul\":19716:19718   */\n      0x20\n        /* \"#utility.yul\":19705:19714   */\n      dup3\n        /* \"#utility.yul\":19701:19719   */\n      add\n        /* \"#utility.yul\":19693:19719   */\n      swap1\n      pop\n        /* \"#utility.yul\":19765:19774   */\n      dup2\n        /* \"#utility.yul\":19759:19763   */\n      dup2\n        /* \"#utility.yul\":19755:19775   */\n      sub\n        /* \"#utility.yul\":19751:19752   */\n      0x00\n        /* \"#utility.yul\":19740:19749   */\n      dup4\n        /* \"#utility.yul\":19736:19753   */\n      add\n        /* \"#utility.yul\":19729:19776   */\n      mstore\n        /* \"#utility.yul\":19793:19924   */\n      tag_461\n        /* \"#utility.yul\":19919:19923   */\n      dup2\n        /* \"#utility.yul\":19793:19924   */\n      tag_275\n      jump\t// in\n    tag_461:\n        /* \"#utility.yul\":19785:19924   */\n      swap1\n      pop\n        /* \"#utility.yul\":19512:19931   */\n      swap2\n      swap1\n      pop\n      jump\t// out\n        /* \"#utility.yul\":19937:20110   */\n    tag_276:\n        /* \"#utility.yul\":20077:20102   */\n      0x596f752063616e20766f7465206f6e6c79206f6e63652e000000000000000000\n        /* \"#utility.yul\":20073:20074   */\n      0x00\n        /* \"#utility.yul\":20065:20071   */\n      dup3\n        /* \"#utility.yul\":20061:20075   */\n      add\n        /* \"#utility.yul\":20054:20103   */\n      mstore\n        /* \"#utility.yul\":19937:20110   */\n      pop\n      jump\t// out\n        /* \"#utility.yul\":20116:20482   */\n    tag_277:\n        /* \"#utility.yul\":20258:20261   */\n      0x00\n        /* \"#utility.yul\":20279:20346   */\n      tag_464\n        /* \"#utility.yul\":20343:20345   */\n      0x17\n        /* \"#utility.yul\":20338:20341   */\n      dup4\n        /* \"#utility.yul\":20279:20346   */\n      tag_242\n      jump\t// in\n    tag_464:\n        /* \"#utility.yul\":20272:20346   */\n      swap2\n      pop\n        /* \"#utility.yul\":20355:20448   */\n      tag_465\n        /* \"#utility.yul\":20444:20447   */\n      dup3\n        /* \"#utility.yul\":20355:20448   */\n      tag_276\n      jump\t// in\n    tag_465:\n        /* \"#utility.yul\":20473:20475   */\n      0x20\n        /* \"#utility.yul\":20468:20471   */\n      dup3\n        /* \"#utility.yul\":20464:20476   */\n      add\n        /* \"#utility.yul\":20457:20476   */\n      swap1\n      pop\n        /* \"#utility.yul\":20116:20482   */\n      swap2\n      swap1\n      pop\n      jump\t// out\n        /* \"#utility.yul\":20488:20907   */\n    tag_215:\n        /* \"#utility.yul\":20654:20658   */\n      0x00\n        /* \"#utility.yul\":20692:20694   */\n      0x20\n        /* \"#utility.yul\":20681:20690   */\n      dup3\n        /* \"#utility.yul\":20677:20695   */\n      add\n        /* \"#utility.yul\":20669:20695   */\n      swap1\n      pop\n        /* \"#utility.yul\":20741:20750   */\n      dup2\n        /* \"#utility.yul\":20735:20739   */\n      dup2\n        /* \"#utility.yul\":20731:20751   */\n      sub\n        /* \"#utility.yul\":20727:20728   */\n      0x00\n        /* \"#utility.yul\":20716:20725   */\n      dup4\n        /* \"#utility.yul\":20712:20729   */\n      add\n        /* \"#utility.yul\":20705:20752   */\n      mstore\n        /* \"#utility.yul\":20769:20900   */\n      tag_467\n        /* \"#utility.yul\":20895:20899   */\n      dup2\n        /* \"#utility.yul\":20769:20900   */\n      tag_277\n      jump\t// in\n    tag_467:\n        /* \"#utility.yul\":20761:20900   */\n      swap1\n      pop\n        /* \"#utility.yul\":20488:20907   */\n      swap2\n      swap1\n      pop\n      jump\t// out\n\n    auxdata: 0xa2646970667358221220c48c854f0e97b0b037cc86ea799ee6e92bd4f9c32c5cd56eb281eb2359db249d64736f6c63430008090033\n}\n","bytecode":{"linkReferences":{},"object":"60806040523480156200001157600080fd5b50604051620024b8380380620024b88339818101604052810190620000379190620003c9565b846000806101000a81548173ffffffffffffffffffffffffffffffffffffffff021916908373ffffffffffffffffffffffffffffffffffffffff16021790555085600581905550836001908051906020019062000096929190620000dc565b508260029080519060200190620000af929190620000dc565b50806004819055508160039080519060200190620000cf929190620000dc565b5050505050505062000527565b828054620000ea90620004f1565b90600052602060002090601f0160209004810192826200010e57600085556200015a565b82601f106200012957805160ff19168380011785556200015a565b828001600101855582156200015a579182015b82811115620001595782518255916020019190600101906200013c565b5b5090506200016991906200016d565b5090565b5b80821115620001885760008160009055506001016200016e565b5090565b6000604051905090565b600080fd5b600080fd5b6000819050919050565b620001b581620001a0565b8114620001c157600080fd5b50565b600081519050620001d581620001aa565b92915050565b600073ffffffffffffffffffffffffffffffffffffffff82169050919050565b60006200020882620001db565b9050919050565b6200021a81620001fb565b81146200022657600080fd5b50565b6000815190506200023a816200020f565b92915050565b600080fd5b600080fd5b6000601f19601f8301169050919050565b7f4e487b7100000000000000000000000000000000000000000000000000000000600052604160045260246000fd5b62000295826200024a565b810181811067ffffffffffffffff82111715620002b757620002b66200025b565b5b80604052505050565b6000620002cc6200018c565b9050620002da82826200028a565b919050565b600067ffffffffffffffff821115620002fd57620002fc6200025b565b5b62000308826200024a565b9050602081019050919050565b60005b838110156200033557808201518184015260208101905062000318565b8381111562000345576000848401525b50505050565b6000620003626200035c84620002df565b620002c0565b90508281526020810184848401111562000381576200038062000245565b5b6200038e84828562000315565b509392505050565b600082601f830112620003ae57620003ad62000240565b5b8151620003c08482602086016200034b565b91505092915050565b60008060008060008060c08789031215620003e957620003e862000196565b5b6000620003f989828a01620001c4565b96505060206200040c89828a0162000229565b955050604087015167ffffffffffffffff81111562000430576200042f6200019b565b5b6200043e89828a0162000396565b945050606087015167ffffffffffffffff8111156200046257620004616200019b565b5b6200047089828a0162000396565b935050608087015167ffffffffffffffff8111156200049457620004936200019b565b5b620004a289828a0162000396565b92505060a0620004b589828a01620001c4565b9150509295509295509295565b7f4e487b7100000000000000000000000000000000000000000000000000000000600052602260045260246000fd5b600060028204905060018216806200050a57607f821691505b60208210811415620005215762000520620004c2565b5b50919050565b611f8180620005376000396000f3fe60806040526004361061011f5760003560e01c80638a9cfd55116100a0578063d3087b5711610064578063d3087b57146103eb578063d7bb99ba14610416578063d7d1bbdb14610420578063eb7b131214610449578063ecd1eecf146104745761011f565b80638a9cfd5514610316578063937e09b11461033f5780639a33e3001461036a5780639fb42b1f14610395578063b90497e0146103c05761011f565b8063481c6a75116100e7578063481c6a75146102055780634d80e70914610230578063647c75e21461026d57806370035047146102aa57806381d12c58146102d55761011f565b80630344100614610124578063244c3c2c1461014d5780632a16cca4146101575780632c5cac63146101945780634051ddac146101d1575b600080fd5b34801561013057600080fd5b5061014b600480360381019061014691906113cf565b61049f565b005b61015561067a565b005b34801561016357600080fd5b5061017e6004803603810190610179919061145a565b6107cd565b60405161018b91906114b5565b60405180910390f35b3480156101a057600080fd5b506101bb60048036038101906101b691906114d0565b61083d565b6040516101c8919061150c565b60405180910390f35b3480156101dd57600080fd5b506101e6610855565b6040516101fc9a999897969594939291906115cf565b60405180910390f35b34801561021157600080fd5b5061021a610a61565b6040516102279190611680565b60405180910390f35b34801561023c57600080fd5b50610257600480360381019061025291906113cf565b610a85565b60405161026491906116bc565b60405180910390f35b34801561027957600080fd5b50610294600480360381019061028f91906114d0565b610ac4565b6040516102a191906114b5565b60405180910390f35b3480156102b657600080fd5b506102bf610ae4565b6040516102cc919061150c565b60405180910390f35b3480156102e157600080fd5b506102fc60048036038101906102f791906113cf565b610aea565b60405161030d9594939291906116d7565b60405180910390f35b34801561032257600080fd5b5061033d60048036038101906103389190611892565b610bd5565b005b34801561034b57600080fd5b50610354610d86565b604051610361919061150c565b60405180910390f35b34801561037657600080fd5b5061037f610d8c565b60405161038c9190611901565b60405180910390f35b3480156103a157600080fd5b506103aa610e1a565b6040516103b7919061150c565b60405180910390f35b3480156103cc57600080fd5b506103d5610e20565b6040516103e29190611901565b60405180910390f35b3480156103f757600080fd5b50610400610eae565b60405161040d9190611901565b60405180910390f35b61041e610f3c565b005b34801561042c57600080fd5b50610447600480360381019061044291906113cf565b61112c565b005b34801561045557600080fd5b5061045e6112d6565b60405161046b919061150c565b60405180910390f35b34801561048057600080fd5b506104896112dc565b604051610496919061150c565b60405180910390f35b60008054906101000a900473ffffffffffffffffffffffffffffffffffffffff1673ffffffffffffffffffffffffffffffffffffffff163373ffffffffffffffffffffffffffffffffffffffff161461052d576040517f08c379a000000000000000000000000000000000000000000000000000000000815260040161052490611995565b60405180910390fd5b6000600c600083815260200190815260200160002090506002600a546105539190611a13565b816003015411610598576040517f08c379a000000000000000000000000000000000000000000000000000000000815260040161058f90611a90565b60405180910390fd5b8060020160149054906101000a900460ff16156105ea576040517f08c379a00000000000000000000000000000000000000000000000000000000081526004016105e190611b22565b60405180910390fd5b8060020160009054906101000a900473ffffffffffffffffffffffffffffffffffffffff1673ffffffffffffffffffffffffffffffffffffffff166108fc82600101549081150290604051600060405180830381858888f19350505050158015610658573d6000803e3d6000fd5b5060018160020160146101000a81548160ff0219169083151502179055505050565b60005b60088054905081101561079f576008818154811061069e5761069d611b42565b5b9060005260206000200160009054906101000a900473ffffffffffffffffffffffffffffffffffffffff1673ffffffffffffffffffffffffffffffffffffffff166108fc60096000600885815481106106fa576106f9611b42565b5b9060005260206000200160009054906101000a900473ffffffffffffffffffffffffffffffffffffffff1673ffffffffffffffffffffffffffffffffffffffff1673ffffffffffffffffffffffffffffffffffffffff168152602001908152602001600020549081150290604051600060405180830381858888f1935050505015801561078b573d6000803e3d6000fd5b50808061079790611b71565b91505061067d565b507335b2e2b694a6a4c28f6631a905fb87eca330469d73ffffffffffffffffffffffffffffffffffffffff16ff5b600080600c600084815260200190815260200160002090508060040160008573ffffffffffffffffffffffffffffffffffffffff1673ffffffffffffffffffffffffffffffffffffffff16815260200190815260200160002060009054906101000a900460ff1691505092915050565b60096020528060005260406000206000915090505481565b600080600080600060608060006060600060055447600b54600a5460008054906101000a900473ffffffffffffffffffffffffffffffffffffffff166001600260045460036006548480546108a990611be9565b80601f01602080910402602001604051908101604052809291908181526020018280546108d590611be9565b80156109225780601f106108f757610100808354040283529160200191610922565b820191906000526020600020905b81548152906001019060200180831161090557829003601f168201915b5050505050945083805461093590611be9565b80601f016020809104026020016040519081016040528092919081815260200182805461096190611be9565b80156109ae5780601f10610983576101008083540402835291602001916109ae565b820191906000526020600020905b81548152906001019060200180831161099157829003601f168201915b505050505093508180546109c190611be9565b80601f01602080910402602001604051908101604052809291908181526020018280546109ed90611be9565b8015610a3a5780601f10610a0f57610100808354040283529160200191610a3a565b820191906000526020600020905b815481529060010190602001808311610a1d57829003601f168201915b50505050509150995099509950995099509950995099509950995090919293949596979899565b60008054906101000a900473ffffffffffffffffffffffffffffffffffffffff1681565b60088181548110610a9557600080fd5b906000526020600020016000915054906101000a900473ffffffffffffffffffffffffffffffffffffffff1681565b60076020528060005260406000206000915054906101000a900460ff1681565b60045481565b600c602052806000526040600020600091509050806000018054610b0d90611be9565b80601f0160208091040260200160405190810160405280929190818152602001828054610b3990611be9565b8015610b865780601f10610b5b57610100808354040283529160200191610b86565b820191906000526020600020905b815481529060010190602001808311610b6957829003601f168201915b5050505050908060010154908060020160009054906101000a900473ffffffffffffffffffffffffffffffffffffffff16908060020160149054906101000a900460ff16908060030154905085565b60008054906101000a900473ffffffffffffffffffffffffffffffffffffffff1673ffffffffffffffffffffffffffffffffffffffff163373ffffffffffffffffffffffffffffffffffffffff1614610c63576040517f08c379a0000000000000000000000000000000000000000000000000000000008152600401610c5a90611995565b60405180910390fd5b4782600654610c729190611c1b565b1115610cb3576040517f08c379a0000000000000000000000000000000000000000000000000000000008152600401610caa90611ce3565b60405180910390fd5b81600654610cc19190611c1b565b6006819055506000600c6000600b6000815480929190610ce090611b71565b919050558152602001908152602001600020905083816000019080519060200190610d0c9291906112e2565b50828160010181905550818160020160006101000a81548173ffffffffffffffffffffffffffffffffffffffff021916908373ffffffffffffffffffffffffffffffffffffffff16021790555060008160020160146101000a81548160ff0219169083151502179055506000816003018190555050505050565b60055481565b60018054610d9990611be9565b80601f0160208091040260200160405190810160405280929190818152602001828054610dc590611be9565b8015610e125780601f10610de757610100808354040283529160200191610e12565b820191906000526020600020905b815481529060010190602001808311610df557829003601f168201915b505050505081565b600b5481565b60038054610e2d90611be9565b80601f0160208091040260200160405190810160405280929190818152602001828054610e5990611be9565b8015610ea65780601f10610e7b57610100808354040283529160200191610ea6565b820191906000526020600020905b815481529060010190602001808311610e8957829003601f168201915b505050505081565b60028054610ebb90611be9565b80601f0160208091040260200160405190810160405280929190818152602001828054610ee790611be9565b8015610f345780601f10610f0957610100808354040283529160200191610f34565b820191906000526020600020905b815481529060010190602001808311610f1757829003601f168201915b505050505081565b6005543411610f80576040517f08c379a0000000000000000000000000000000000000000000000000000000008152600401610f7790611d75565b60405180910390fd5b60001515600760003373ffffffffffffffffffffffffffffffffffffffff1673ffffffffffffffffffffffffffffffffffffffff16815260200190815260200160002060009054906101000a900460ff16151514611013576040517f08c379a000000000000000000000000000000000000000000000000000000000815260040161100a90611e07565b60405180910390fd5b6001600760003373ffffffffffffffffffffffffffffffffffffffff1673ffffffffffffffffffffffffffffffffffffffff16815260200190815260200160002060006101000a81548160ff021916908315150217905550600a600081548092919061107e90611b71565b919050555034600960003373ffffffffffffffffffffffffffffffffffffffff1673ffffffffffffffffffffffffffffffffffffffff168152602001908152602001600020819055506008339080600181540180825580915050600190039060005260206000200160009091909190916101000a81548173ffffffffffffffffffffffffffffffffffffffff021916908373ffffffffffffffffffffffffffffffffffffffff160217905550565b6000600c60008381526020019081526020016000209050600760003373ffffffffffffffffffffffffffffffffffffffff1673ffffffffffffffffffffffffffffffffffffffff16815260200190815260200160002060009054906101000a900460ff166111cf576040517f08c379a00000000000000000000000000000000000000000000000000000000081526004016111c690611ebf565b60405180910390fd5b8060040160003373ffffffffffffffffffffffffffffffffffffffff1673ffffffffffffffffffffffffffffffffffffffff16815260200190815260200160002060009054906101000a900460ff161561125e576040517f08c379a000000000000000000000000000000000000000000000000000000000815260040161125590611f2b565b60405180910390fd5b60018160040160003373ffffffffffffffffffffffffffffffffffffffff1673ffffffffffffffffffffffffffffffffffffffff16815260200190815260200160002060006101000a81548160ff0219169083151502179055508060030160008154809291906112cd90611b71565b91905055505050565b600a5481565b60065481565b8280546112ee90611be9565b90600052602060002090601f0160209004810192826113105760008555611357565b82601f1061132957805160ff1916838001178555611357565b82800160010185558215611357579182015b8281111561135657825182559160200191906001019061133b565b5b5090506113649190611368565b5090565b5b80821115611381576000816000905550600101611369565b5090565b6000604051905090565b600080fd5b600080fd5b6000819050919050565b6113ac81611399565b81146113b757600080fd5b50565b6000813590506113c9816113a3565b92915050565b6000602082840312156113e5576113e461138f565b5b60006113f3848285016113ba565b91505092915050565b600073ffffffffffffffffffffffffffffffffffffffff82169050919050565b6000611427826113fc565b9050919050565b6114378161141c565b811461144257600080fd5b50565b6000813590506114548161142e565b92915050565b600080604083850312156114715761147061138f565b5b600061147f85828601611445565b9250506020611490858286016113ba565b9150509250929050565b60008115159050919050565b6114af8161149a565b82525050565b60006020820190506114ca60008301846114a6565b92915050565b6000602082840312156114e6576114e561138f565b5b60006114f484828501611445565b91505092915050565b61150681611399565b82525050565b600060208201905061152160008301846114fd565b92915050565b6115308161141c565b82525050565b600081519050919050565b600082825260208201905092915050565b60005b83811015611570578082015181840152602081019050611555565b8381111561157f576000848401525b50505050565b6000601f19601f8301169050919050565b60006115a182611536565b6115ab8185611541565b93506115bb818560208601611552565b6115c481611585565b840191505092915050565b6000610140820190506115e5600083018d6114fd565b6115f2602083018c6114fd565b6115ff604083018b6114fd565b61160c606083018a6114fd565b6116196080830189611527565b81810360a083015261162b8188611596565b905081810360c083015261163f8187611596565b905061164e60e08301866114fd565b8181036101008301526116618185611596565b90506116716101208301846114fd565b9b9a5050505050505050505050565b60006020820190506116956000830184611527565b92915050565b60006116a6826113fc565b9050919050565b6116b68161169b565b82525050565b60006020820190506116d160008301846116ad565b92915050565b600060a08201905081810360008301526116f18188611596565b905061170060208301876114fd565b61170d60408301866116ad565b61171a60608301856114a6565b61172760808301846114fd565b9695505050505050565b600080fd5b600080fd5b7f4e487b7100000000000000000000000000000000000000000000000000000000600052604160045260246000fd5b61177382611585565b810181811067ffffffffffffffff821117156117925761179161173b565b5b80604052505050565b60006117a5611385565b90506117b1828261176a565b919050565b600067ffffffffffffffff8211156117d1576117d061173b565b5b6117da82611585565b9050602081019050919050565b82818337600083830152505050565b6000611809611804846117b6565b61179b565b90508281526020810184848401111561182557611824611736565b5b6118308482856117e7565b509392505050565b600082601f83011261184d5761184c611731565b5b813561185d8482602086016117f6565b91505092915050565b61186f8161169b565b811461187a57600080fd5b50565b60008135905061188c81611866565b92915050565b6000806000606084860312156118ab576118aa61138f565b5b600084013567ffffffffffffffff8111156118c9576118c8611394565b5b6118d586828701611838565b93505060206118e6868287016113ba565b92505060406118f78682870161187d565b9150509250925092565b6000602082019050818103600083015261191b8184611596565b905092915050565b7f4f6e6c79206d616e616765722063616e2074616b65207468697320616374696f60008201527f6e2e000000000000000000000000000000000000000000000000000000000000602082015250565b600061197f602283611541565b915061198a82611923565b604082019050919050565b600060208201905081810360008301526119ae81611972565b9050919050565b7f4e487b7100000000000000000000000000000000000000000000000000000000600052601260045260246000fd5b7f4e487b7100000000000000000000000000000000000000000000000000000000600052601160045260246000fd5b6000611a1e82611399565b9150611a2983611399565b925082611a3957611a386119b5565b5b828204905092915050565b7f4e6f7420656e6f75676820617070726f76616c20726174696f2e000000000000600082015250565b6000611a7a601a83611541565b9150611a8582611a44565b602082019050919050565b60006020820190508181036000830152611aa981611a6d565b9050919050565b7f546865207265717565737420697320616c72656164792066696e616c697a656460008201527f2e00000000000000000000000000000000000000000000000000000000000000602082015250565b6000611b0c602183611541565b9150611b1782611ab0565b604082019050919050565b60006020820190508181036000830152611b3b81611aff565b9050919050565b7f4e487b7100000000000000000000000000000000000000000000000000000000600052603260045260246000fd5b6000611b7c82611399565b91507fffffffffffffffffffffffffffffffffffffffffffffffffffffffffffffffff821415611baf57611bae6119e4565b5b600182019050919050565b7f4e487b7100000000000000000000000000000000000000000000000000000000600052602260045260246000fd5b60006002820490506001821680611c0157607f821691505b60208210811415611c1557611c14611bba565b5b50919050565b6000611c2682611399565b9150611c3183611399565b9250827fffffffffffffffffffffffffffffffffffffffffffffffffffffffffffffffff03821115611c6657611c656119e4565b5b828201905092915050565b7f596f752063616e27742072657175657374206574686572206d6f72652074686160008201527f6e20796f75722062616c616e63652e0000000000000000000000000000000000602082015250565b6000611ccd602f83611541565b9150611cd882611c71565b604082019050919050565b60006020820190508181036000830152611cfc81611cc0565b9050919050565b7f596f752073686f756c6420636f6e74726962757465206d6f7265207468616e2060008201527f6d696e696d756d20616d6f756e742e0000000000000000000000000000000000602082015250565b6000611d5f602f83611541565b9150611d6a82611d03565b604082019050919050565b60006020820190508181036000830152611d8e81611d52565b9050919050565b7f596f752061726520616c726561647920636f6e747269627574656420746f207460008201527f6869732063616d7061696e672e00000000000000000000000000000000000000602082015250565b6000611df1602d83611541565b9150611dfc82611d95565b604082019050919050565b60006020820190508181036000830152611e2081611de4565b9050919050565b7f596f752073686f756c64206265206120636f6e7472696275746f72206f66207460008201527f6869732063616d706169676e20746f20766f746520666f72206120726571756560208201527f73742e0000000000000000000000000000000000000000000000000000000000604082015250565b6000611ea9604383611541565b9150611eb482611e27565b606082019050919050565b60006020820190508181036000830152611ed881611e9c565b9050919050565b7f596f752063616e20766f7465206f6e6c79206f6e63652e000000000000000000600082015250565b6000611f15601783611541565b9150611f2082611edf565b602082019050919050565b60006020820190508181036000830152611f4481611f08565b905091905056fea2646970667358221220c48c854f0e97b0b037cc86ea799ee6e92bd4f9c32c5cd56eb281eb2359db249d64736f6c63430008090033","opcodes":"PUSH1 0x80 PUSH1 0x40 MSTORE CALLVALUE DUP1 ISZERO PUSH3 0x11 JUMPI PUSH1 0x0 DUP1 REVERT JUMPDEST POP PUSH1 0x40 MLOAD PUSH3 0x24B8 CODESIZE SUB DUP1 PUSH3 0x24B8 DUP4 CODECOPY DUP2 DUP2 ADD PUSH1 0x40 MSTORE DUP2 ADD SWAP1 PUSH3 0x37 SWAP2 SWAP1 PUSH3 0x3C9 JUMP JUMPDEST DUP5 PUSH1 0x0 DUP1 PUSH2 0x100 EXP DUP2 SLOAD DUP2 PUSH20 0xFFFFFFFFFFFFFFFFFFFFFFFFFFFFFFFFFFFFFFFF MUL NOT AND SWAP1 DUP4 PUSH20 0xFFFFFFFFFFFFFFFFFFFFFFFFFFFFFFFFFFFFFFFF AND MUL OR SWAP1 SSTORE POP DUP6 PUSH1 0x5 DUP2 SWAP1 SSTORE POP DUP4 PUSH1 0x1 SWAP1 DUP1 MLOAD SWAP1 PUSH1 0x20 ADD SWAP1 PUSH3 0x96 SWAP3 SWAP2 SWAP1 PUSH3 0xDC JUMP JUMPDEST POP DUP3 PUSH1 0x2 SWAP1 DUP1 MLOAD SWAP1 PUSH1 0x20 ADD SWAP1 PUSH3 0xAF SWAP3 SWAP2 SWAP1 PUSH3 0xDC JUMP JUMPDEST POP DUP1 PUSH1 0x4 DUP2 SWAP1 SSTORE POP DUP2 PUSH1 0x3 SWAP1 DUP1 MLOAD SWAP1 PUSH1 0x20 ADD SWAP1 PUSH3 0xCF SWAP3 SWAP2 SWAP1 PUSH3 0xDC JUMP JUMPDEST POP POP POP POP POP POP POP PUSH3 0x527 JUMP JUMPDEST DUP3 DUP1 SLOAD PUSH3 0xEA SWAP1 PUSH3 0x4F1 JUMP JUMPDEST SWAP1 PUSH1 0x0 MSTORE PUSH1 0x20 PUSH1 0x0 KECCAK256 SWAP1 PUSH1 0x1F ADD PUSH1 0x20 SWAP1 DIV DUP2 ADD SWAP3 DUP3 PUSH3 0x10E JUMPI PUSH1 0x0 DUP6 SSTORE PUSH3 0x15A JUMP JUMPDEST DUP3 PUSH1 0x1F LT PUSH3 0x129 JUMPI DUP1 MLOAD PUSH1 0xFF NOT AND DUP4 DUP1 ADD OR DUP6 SSTORE PUSH3 0x15A JUMP JUMPDEST DUP3 DUP1 ADD PUSH1 0x1 ADD DUP6 SSTORE DUP3 ISZERO PUSH3 0x15A JUMPI SWAP2 DUP3 ADD JUMPDEST DUP3 DUP2 GT ISZERO PUSH3 0x159 JUMPI DUP3 MLOAD DUP3 SSTORE SWAP2 PUSH1 0x20 ADD SWAP2 SWAP1 PUSH1 0x1 ADD SWAP1 PUSH3 0x13C JUMP JUMPDEST JUMPDEST POP SWAP1 POP PUSH3 0x169 SWAP2 SWAP1 PUSH3 0x16D JUMP JUMPDEST POP SWAP1 JUMP JUMPDEST JUMPDEST DUP1 DUP3 GT ISZERO PUSH3 0x188 JUMPI PUSH1 0x0 DUP2 PUSH1 0x0 SWAP1 SSTORE POP PUSH1 0x1 ADD PUSH3 0x16E JUMP JUMPDEST POP SWAP1 JUMP JUMPDEST PUSH1 0x0 PUSH1 0x40 MLOAD SWAP1 POP SWAP1 JUMP JUMPDEST PUSH1 0x0 DUP1 REVERT JUMPDEST PUSH1 0x0 DUP1 REVERT JUMPDEST PUSH1 0x0 DUP2 SWAP1 POP SWAP2 SWAP1 POP JUMP JUMPDEST PUSH3 0x1B5 DUP2 PUSH3 0x1A0 JUMP JUMPDEST DUP2 EQ PUSH3 0x1C1 JUMPI PUSH1 0x0 DUP1 REVERT JUMPDEST POP JUMP JUMPDEST PUSH1 0x0 DUP2 MLOAD SWAP1 POP PUSH3 0x1D5 DUP2 PUSH3 0x1AA JUMP JUMPDEST SWAP3 SWAP2 POP POP JUMP JUMPDEST PUSH1 0x0 PUSH20 0xFFFFFFFFFFFFFFFFFFFFFFFFFFFFFFFFFFFFFFFF DUP3 AND SWAP1 POP SWAP2 SWAP1 POP JUMP JUMPDEST PUSH1 0x0 PUSH3 0x208 DUP3 PUSH3 0x1DB JUMP JUMPDEST SWAP1 POP SWAP2 SWAP1 POP JUMP JUMPDEST PUSH3 0x21A DUP2 PUSH3 0x1FB JUMP JUMPDEST DUP2 EQ PUSH3 0x226 JUMPI PUSH1 0x0 DUP1 REVERT JUMPDEST POP JUMP JUMPDEST PUSH1 0x0 DUP2 MLOAD SWAP1 POP PUSH3 0x23A DUP2 PUSH3 0x20F JUMP JUMPDEST SWAP3 SWAP2 POP POP JUMP JUMPDEST PUSH1 0x0 DUP1 REVERT JUMPDEST PUSH1 0x0 DUP1 REVERT JUMPDEST PUSH1 0x0 PUSH1 0x1F NOT PUSH1 0x1F DUP4 ADD AND SWAP1 POP SWAP2 SWAP1 POP JUMP JUMPDEST PUSH32 0x4E487B7100000000000000000000000000000000000000000000000000000000 PUSH1 0x0 MSTORE PUSH1 0x41 PUSH1 0x4 MSTORE PUSH1 0x24 PUSH1 0x0 REVERT JUMPDEST PUSH3 0x295 DUP3 PUSH3 0x24A JUMP JUMPDEST DUP2 ADD DUP2 DUP2 LT PUSH8 0xFFFFFFFFFFFFFFFF DUP3 GT OR ISZERO PUSH3 0x2B7 JUMPI PUSH3 0x2B6 PUSH3 0x25B JUMP JUMPDEST JUMPDEST DUP1 PUSH1 0x40 MSTORE POP POP POP JUMP JUMPDEST PUSH1 0x0 PUSH3 0x2CC PUSH3 0x18C JUMP JUMPDEST SWAP1 POP PUSH3 0x2DA DUP3 DUP3 PUSH3 0x28A JUMP JUMPDEST SWAP2 SWAP1 POP JUMP JUMPDEST PUSH1 0x0 PUSH8 0xFFFFFFFFFFFFFFFF DUP3 GT ISZERO PUSH3 0x2FD JUMPI PUSH3 0x2FC PUSH3 0x25B JUMP JUMPDEST JUMPDEST PUSH3 0x308 DUP3 PUSH3 0x24A JUMP JUMPDEST SWAP1 POP PUSH1 0x20 DUP2 ADD SWAP1 POP SWAP2 SWAP1 POP JUMP JUMPDEST PUSH1 0x0 JUMPDEST DUP4 DUP2 LT ISZERO PUSH3 0x335 JUMPI DUP1 DUP3 ADD MLOAD DUP2 DUP5 ADD MSTORE PUSH1 0x20 DUP2 ADD SWAP1 POP PUSH3 0x318 JUMP JUMPDEST DUP4 DUP2 GT ISZERO PUSH3 0x345 JUMPI PUSH1 0x0 DUP5 DUP5 ADD MSTORE JUMPDEST POP POP POP POP JUMP JUMPDEST PUSH1 0x0 PUSH3 0x362 PUSH3 0x35C DUP5 PUSH3 0x2DF JUMP JUMPDEST PUSH3 0x2C0 JUMP JUMPDEST SWAP1 POP DUP3 DUP2 MSTORE PUSH1 0x20 DUP2 ADD DUP5 DUP5 DUP5 ADD GT ISZERO PUSH3 0x381 JUMPI PUSH3 0x380 PUSH3 0x245 JUMP JUMPDEST JUMPDEST PUSH3 0x38E DUP5 DUP3 DUP6 PUSH3 0x315 JUMP JUMPDEST POP SWAP4 SWAP3 POP POP POP JUMP JUMPDEST PUSH1 0x0 DUP3 PUSH1 0x1F DUP4 ADD SLT PUSH3 0x3AE JUMPI PUSH3 0x3AD PUSH3 0x240 JUMP JUMPDEST JUMPDEST DUP2 MLOAD PUSH3 0x3C0 DUP5 DUP3 PUSH1 0x20 DUP7 ADD PUSH3 0x34B JUMP JUMPDEST SWAP2 POP POP SWAP3 SWAP2 POP POP JUMP JUMPDEST PUSH1 0x0 DUP1 PUSH1 0x0 DUP1 PUSH1 0x0 DUP1 PUSH1 0xC0 DUP8 DUP10 SUB SLT ISZERO PUSH3 0x3E9 JUMPI PUSH3 0x3E8 PUSH3 0x196 JUMP JUMPDEST JUMPDEST PUSH1 0x0 PUSH3 0x3F9 DUP10 DUP3 DUP11 ADD PUSH3 0x1C4 JUMP JUMPDEST SWAP7 POP POP PUSH1 0x20 PUSH3 0x40C DUP10 DUP3 DUP11 ADD PUSH3 0x229 JUMP JUMPDEST SWAP6 POP POP PUSH1 0x40 DUP8 ADD MLOAD PUSH8 0xFFFFFFFFFFFFFFFF DUP2 GT ISZERO PUSH3 0x430 JUMPI PUSH3 0x42F PUSH3 0x19B JUMP JUMPDEST JUMPDEST PUSH3 0x43E DUP10 DUP3 DUP11 ADD PUSH3 0x396 JUMP JUMPDEST SWAP5 POP POP PUSH1 0x60 DUP8 ADD MLOAD PUSH8 0xFFFFFFFFFFFFFFFF DUP2 GT ISZERO PUSH3 0x462 JUMPI PUSH3 0x461 PUSH3 0x19B JUMP JUMPDEST JUMPDEST PUSH3 0x470 DUP10 DUP3 DUP11 ADD PUSH3 0x396 JUMP JUMPDEST SWAP4 POP POP PUSH1 0x80 DUP8 ADD MLOAD PUSH8 0xFFFFFFFFFFFFFFFF DUP2 GT ISZERO PUSH3 0x494 JUMPI PUSH3 0x493 PUSH3 0x19B JUMP JUMPDEST JUMPDEST PUSH3 0x4A2 DUP10 DUP3 DUP11 ADD PUSH3 0x396 JUMP JUMPDEST SWAP3 POP POP PUSH1 0xA0 PUSH3 0x4B5 DUP10 DUP3 DUP11 ADD PUSH3 0x1C4 JUMP JUMPDEST SWAP2 POP POP SWAP3 SWAP6 POP SWAP3 SWAP6 POP SWAP3 SWAP6 JUMP JUMPDEST PUSH32 0x4E487B7100000000000000000000000000000000000000000000000000000000 PUSH1 0x0 MSTORE PUSH1 0x22 PUSH1 0x4 MSTORE PUSH1 0x24 PUSH1 0x0 REVERT JUMPDEST PUSH1 0x0 PUSH1 0x2 DUP3 DIV SWAP1 POP PUSH1 0x1 DUP3 AND DUP1 PUSH3 0x50A JUMPI PUSH1 0x7F DUP3 AND SWAP2 POP JUMPDEST PUSH1 0x20 DUP3 LT DUP2 EQ ISZERO PUSH3 0x521 JUMPI PUSH3 0x520 PUSH3 0x4C2 JUMP JUMPDEST JUMPDEST POP SWAP2 SWAP1 POP JUMP JUMPDEST PUSH2 0x1F81 DUP1 PUSH3 0x537 PUSH1 0x0 CODECOPY PUSH1 0x0 RETURN INVALID PUSH1 0x80 PUSH1 0x40 MSTORE PUSH1 0x4 CALLDATASIZE LT PUSH2 0x11F JUMPI PUSH1 0x0 CALLDATALOAD PUSH1 0xE0 SHR DUP1 PUSH4 0x8A9CFD55 GT PUSH2 0xA0 JUMPI DUP1 PUSH4 0xD3087B57 GT PUSH2 0x64 JUMPI DUP1 PUSH4 0xD3087B57 EQ PUSH2 0x3EB JUMPI DUP1 PUSH4 0xD7BB99BA EQ PUSH2 0x416 JUMPI DUP1 PUSH4 0xD7D1BBDB EQ PUSH2 0x420 JUMPI DUP1 PUSH4 0xEB7B1312 EQ PUSH2 0x449 JUMPI DUP1 PUSH4 0xECD1EECF EQ PUSH2 0x474 JUMPI PUSH2 0x11F JUMP JUMPDEST DUP1 PUSH4 0x8A9CFD55 EQ PUSH2 0x316 JUMPI DUP1 PUSH4 0x937E09B1 EQ PUSH2 0x33F JUMPI DUP1 PUSH4 0x9A33E300 EQ PUSH2 0x36A JUMPI DUP1 PUSH4 0x9FB42B1F EQ PUSH2 0x395 JUMPI DUP1 PUSH4 0xB90497E0 EQ PUSH2 0x3C0 JUMPI PUSH2 0x11F JUMP JUMPDEST DUP1 PUSH4 0x481C6A75 GT PUSH2 0xE7 JUMPI DUP1 PUSH4 0x481C6A75 EQ PUSH2 0x205 JUMPI DUP1 PUSH4 0x4D80E709 EQ PUSH2 0x230 JUMPI DUP1 PUSH4 0x647C75E2 EQ PUSH2 0x26D JUMPI DUP1 PUSH4 0x70035047 EQ PUSH2 0x2AA JUMPI DUP1 PUSH4 0x81D12C58 EQ PUSH2 0x2D5 JUMPI PUSH2 0x11F JUMP JUMPDEST DUP1 PUSH4 0x3441006 EQ PUSH2 0x124 JUMPI DUP1 PUSH4 0x244C3C2C EQ PUSH2 0x14D JUMPI DUP1 PUSH4 0x2A16CCA4 EQ PUSH2 0x157 JUMPI DUP1 PUSH4 0x2C5CAC63 EQ PUSH2 0x194 JUMPI DUP1 PUSH4 0x4051DDAC EQ PUSH2 0x1D1 JUMPI JUMPDEST PUSH1 0x0 DUP1 REVERT JUMPDEST CALLVALUE DUP1 ISZERO PUSH2 0x130 JUMPI PUSH1 0x0 DUP1 REVERT JUMPDEST POP PUSH2 0x14B PUSH1 0x4 DUP1 CALLDATASIZE SUB DUP2 ADD SWAP1 PUSH2 0x146 SWAP2 SWAP1 PUSH2 0x13CF JUMP JUMPDEST PUSH2 0x49F JUMP JUMPDEST STOP JUMPDEST PUSH2 0x155 PUSH2 0x67A JUMP JUMPDEST STOP JUMPDEST CALLVALUE DUP1 ISZERO PUSH2 0x163 JUMPI PUSH1 0x0 DUP1 REVERT JUMPDEST POP PUSH2 0x17E PUSH1 0x4 DUP1 CALLDATASIZE SUB DUP2 ADD SWAP1 PUSH2 0x179 SWAP2 SWAP1 PUSH2 0x145A JUMP JUMPDEST PUSH2 0x7CD JUMP JUMPDEST PUSH1 0x40 MLOAD PUSH2 0x18B SWAP2 SWAP1 PUSH2 0x14B5 JUMP JUMPDEST PUSH1 0x40 MLOAD DUP1 SWAP2 SUB SWAP1 RETURN JUMPDEST CALLVALUE DUP1 ISZERO PUSH2 0x1A0 JUMPI PUSH1 0x0 DUP1 REVERT JUMPDEST POP PUSH2 0x1BB PUSH1 0x4 DUP1 CALLDATASIZE SUB DUP2 ADD SWAP1 PUSH2 0x1B6 SWAP2 SWAP1 PUSH2 0x14D0 JUMP JUMPDEST PUSH2 0x83D JUMP JUMPDEST PUSH1 0x40 MLOAD PUSH2 0x1C8 SWAP2 SWAP1 PUSH2 0x150C JUMP JUMPDEST PUSH1 0x40 MLOAD DUP1 SWAP2 SUB SWAP1 RETURN JUMPDEST CALLVALUE DUP1 ISZERO PUSH2 0x1DD JUMPI PUSH1 0x0 DUP1 REVERT JUMPDEST POP PUSH2 0x1E6 PUSH2 0x855 JUMP JUMPDEST PUSH1 0x40 MLOAD PUSH2 0x1FC SWAP11 SWAP10 SWAP9 SWAP8 SWAP7 SWAP6 SWAP5 SWAP4 SWAP3 SWAP2 SWAP1 PUSH2 0x15CF JUMP JUMPDEST PUSH1 0x40 MLOAD DUP1 SWAP2 SUB SWAP1 RETURN JUMPDEST CALLVALUE DUP1 ISZERO PUSH2 0x211 JUMPI PUSH1 0x0 DUP1 REVERT JUMPDEST POP PUSH2 0x21A PUSH2 0xA61 JUMP JUMPDEST PUSH1 0x40 MLOAD PUSH2 0x227 SWAP2 SWAP1 PUSH2 0x1680 JUMP JUMPDEST PUSH1 0x40 MLOAD DUP1 SWAP2 SUB SWAP1 RETURN JUMPDEST CALLVALUE DUP1 ISZERO PUSH2 0x23C JUMPI PUSH1 0x0 DUP1 REVERT JUMPDEST POP PUSH2 0x257 PUSH1 0x4 DUP1 CALLDATASIZE SUB DUP2 ADD SWAP1 PUSH2 0x252 SWAP2 SWAP1 PUSH2 0x13CF JUMP JUMPDEST PUSH2 0xA85 JUMP JUMPDEST PUSH1 0x40 MLOAD PUSH2 0x264 SWAP2 SWAP1 PUSH2 0x16BC JUMP JUMPDEST PUSH1 0x40 MLOAD DUP1 SWAP2 SUB SWAP1 RETURN JUMPDEST CALLVALUE DUP1 ISZERO PUSH2 0x279 JUMPI PUSH1 0x0 DUP1 REVERT JUMPDEST POP PUSH2 0x294 PUSH1 0x4 DUP1 CALLDATASIZE SUB DUP2 ADD SWAP1 PUSH2 0x28F SWAP2 SWAP1 PUSH2 0x14D0 JUMP JUMPDEST PUSH2 0xAC4 JUMP JUMPDEST PUSH1 0x40 MLOAD PUSH2 0x2A1 SWAP2 SWAP1 PUSH2 0x14B5 JUMP JUMPDEST PUSH1 0x40 MLOAD DUP1 SWAP2 SUB SWAP1 RETURN JUMPDEST CALLVALUE DUP1 ISZERO PUSH2 0x2B6 JUMPI PUSH1 0x0 DUP1 REVERT JUMPDEST POP PUSH2 0x2BF PUSH2 0xAE4 JUMP JUMPDEST PUSH1 0x40 MLOAD PUSH2 0x2CC SWAP2 SWAP1 PUSH2 0x150C JUMP JUMPDEST PUSH1 0x40 MLOAD DUP1 SWAP2 SUB SWAP1 RETURN JUMPDEST CALLVALUE DUP1 ISZERO PUSH2 0x2E1 JUMPI PUSH1 0x0 DUP1 REVERT JUMPDEST POP PUSH2 0x2FC PUSH1 0x4 DUP1 CALLDATASIZE SUB DUP2 ADD SWAP1 PUSH2 0x2F7 SWAP2 SWAP1 PUSH2 0x13CF JUMP JUMPDEST PUSH2 0xAEA JUMP JUMPDEST PUSH1 0x40 MLOAD PUSH2 0x30D SWAP6 SWAP5 SWAP4 SWAP3 SWAP2 SWAP1 PUSH2 0x16D7 JUMP JUMPDEST PUSH1 0x40 MLOAD DUP1 SWAP2 SUB SWAP1 RETURN JUMPDEST CALLVALUE DUP1 ISZERO PUSH2 0x322 JUMPI PUSH1 0x0 DUP1 REVERT JUMPDEST POP PUSH2 0x33D PUSH1 0x4 DUP1 CALLDATASIZE SUB DUP2 ADD SWAP1 PUSH2 0x338 SWAP2 SWAP1 PUSH2 0x1892 JUMP JUMPDEST PUSH2 0xBD5 JUMP JUMPDEST STOP JUMPDEST CALLVALUE DUP1 ISZERO PUSH2 0x34B JUMPI PUSH1 0x0 DUP1 REVERT JUMPDEST POP PUSH2 0x354 PUSH2 0xD86 JUMP JUMPDEST PUSH1 0x40 MLOAD PUSH2 0x361 SWAP2 SWAP1 PUSH2 0x150C JUMP JUMPDEST PUSH1 0x40 MLOAD DUP1 SWAP2 SUB SWAP1 RETURN JUMPDEST CALLVALUE DUP1 ISZERO PUSH2 0x376 JUMPI PUSH1 0x0 DUP1 REVERT JUMPDEST POP PUSH2 0x37F PUSH2 0xD8C JUMP JUMPDEST PUSH1 0x40 MLOAD PUSH2 0x38C SWAP2 SWAP1 PUSH2 0x1901 JUMP JUMPDEST PUSH1 0x40 MLOAD DUP1 SWAP2 SUB SWAP1 RETURN JUMPDEST CALLVALUE DUP1 ISZERO PUSH2 0x3A1 JUMPI PUSH1 0x0 DUP1 REVERT JUMPDEST POP PUSH2 0x3AA PUSH2 0xE1A JUMP JUMPDEST PUSH1 0x40 MLOAD PUSH2 0x3B7 SWAP2 SWAP1 PUSH2 0x150C JUMP JUMPDEST PUSH1 0x40 MLOAD DUP1 SWAP2 SUB SWAP1 RETURN JUMPDEST CALLVALUE DUP1 ISZERO PUSH2 0x3CC JUMPI PUSH1 0x0 DUP1 REVERT JUMPDEST POP PUSH2 0x3D5 PUSH2 0xE20 JUMP JUMPDEST PUSH1 0x40 MLOAD PUSH2 0x3E2 SWAP2 SWAP1 PUSH2 0x1901 JUMP JUMPDEST PUSH1 0x40 MLOAD DUP1 SWAP2 SUB SWAP1 RETURN JUMPDEST CALLVALUE DUP1 ISZERO PUSH2 0x3F7 JUMPI PUSH1 0x0 DUP1 REVERT JUMPDEST POP PUSH2 0x400 PUSH2 0xEAE JUMP JUMPDEST PUSH1 0x40 MLOAD PUSH2 0x40D SWAP2 SWAP1 PUSH2 0x1901 JUMP JUMPDEST PUSH1 0x40 MLOAD DUP1 SWAP2 SUB SWAP1 RETURN JUMPDEST PUSH2 0x41E PUSH2 0xF3C JUMP JUMPDEST STOP JUMPDEST CALLVALUE DUP1 ISZERO PUSH2 0x42C JUMPI PUSH1 0x0 DUP1 REVERT JUMPDEST POP PUSH2 0x447 PUSH1 0x4 DUP1 CALLDATASIZE SUB DUP2 ADD SWAP1 PUSH2 0x442 SWAP2 SWAP1 PUSH2 0x13CF JUMP JUMPDEST PUSH2 0x112C JUMP JUMPDEST STOP JUMPDEST CALLVALUE DUP1 ISZERO PUSH2 0x455 JUMPI PUSH1 0x0 DUP1 REVERT JUMPDEST POP PUSH2 0x45E PUSH2 0x12D6 JUMP JUMPDEST PUSH1 0x40 MLOAD PUSH2 0x46B SWAP2 SWAP1 PUSH2 0x150C JUMP JUMPDEST PUSH1 0x40 MLOAD DUP1 SWAP2 SUB SWAP1 RETURN JUMPDEST CALLVALUE DUP1 ISZERO PUSH2 0x480 JUMPI PUSH1 0x0 DUP1 REVERT JUMPDEST POP PUSH2 0x489 PUSH2 0x12DC JUMP JUMPDEST PUSH1 0x40 MLOAD PUSH2 0x496 SWAP2 SWAP1 PUSH2 0x150C JUMP JUMPDEST PUSH1 0x40 MLOAD DUP1 SWAP2 SUB SWAP1 RETURN JUMPDEST PUSH1 0x0 DUP1 SLOAD SWAP1 PUSH2 0x100 EXP SWAP1 DIV PUSH20 0xFFFFFFFFFFFFFFFFFFFFFFFFFFFFFFFFFFFFFFFF AND PUSH20 0xFFFFFFFFFFFFFFFFFFFFFFFFFFFFFFFFFFFFFFFF AND CALLER PUSH20 0xFFFFFFFFFFFFFFFFFFFFFFFFFFFFFFFFFFFFFFFF AND EQ PUSH2 0x52D JUMPI PUSH1 0x40 MLOAD PUSH32 0x8C379A000000000000000000000000000000000000000000000000000000000 DUP2 MSTORE PUSH1 0x4 ADD PUSH2 0x524 SWAP1 PUSH2 0x1995 JUMP JUMPDEST PUSH1 0x40 MLOAD DUP1 SWAP2 SUB SWAP1 REVERT JUMPDEST PUSH1 0x0 PUSH1 0xC PUSH1 0x0 DUP4 DUP2 MSTORE PUSH1 0x20 ADD SWAP1 DUP2 MSTORE PUSH1 0x20 ADD PUSH1 0x0 KECCAK256 SWAP1 POP PUSH1 0x2 PUSH1 0xA SLOAD PUSH2 0x553 SWAP2 SWAP1 PUSH2 0x1A13 JUMP JUMPDEST DUP2 PUSH1 0x3 ADD SLOAD GT PUSH2 0x598 JUMPI PUSH1 0x40 MLOAD PUSH32 0x8C379A000000000000000000000000000000000000000000000000000000000 DUP2 MSTORE PUSH1 0x4 ADD PUSH2 0x58F SWAP1 PUSH2 0x1A90 JUMP JUMPDEST PUSH1 0x40 MLOAD DUP1 SWAP2 SUB SWAP1 REVERT JUMPDEST DUP1 PUSH1 0x2 ADD PUSH1 0x14 SWAP1 SLOAD SWAP1 PUSH2 0x100 EXP SWAP1 DIV PUSH1 0xFF AND ISZERO PUSH2 0x5EA JUMPI PUSH1 0x40 MLOAD PUSH32 0x8C379A000000000000000000000000000000000000000000000000000000000 DUP2 MSTORE PUSH1 0x4 ADD PUSH2 0x5E1 SWAP1 PUSH2 0x1B22 JUMP JUMPDEST PUSH1 0x40 MLOAD DUP1 SWAP2 SUB SWAP1 REVERT JUMPDEST DUP1 PUSH1 0x2 ADD PUSH1 0x0 SWAP1 SLOAD SWAP1 PUSH2 0x100 EXP SWAP1 DIV PUSH20 0xFFFFFFFFFFFFFFFFFFFFFFFFFFFFFFFFFFFFFFFF AND PUSH20 0xFFFFFFFFFFFFFFFFFFFFFFFFFFFFFFFFFFFFFFFF AND PUSH2 0x8FC DUP3 PUSH1 0x1 ADD SLOAD SWAP1 DUP2 ISZERO MUL SWAP1 PUSH1 0x40 MLOAD PUSH1 0x0 PUSH1 0x40 MLOAD DUP1 DUP4 SUB DUP2 DUP6 DUP9 DUP9 CALL SWAP4 POP POP POP POP ISZERO DUP1 ISZERO PUSH2 0x658 JUMPI RETURNDATASIZE PUSH1 0x0 DUP1 RETURNDATACOPY RETURNDATASIZE PUSH1 0x0 REVERT JUMPDEST POP PUSH1 0x1 DUP2 PUSH1 0x2 ADD PUSH1 0x14 PUSH2 0x100 EXP DUP2 SLOAD DUP2 PUSH1 0xFF MUL NOT AND SWAP1 DUP4 ISZERO ISZERO MUL OR SWAP1 SSTORE POP POP POP JUMP JUMPDEST PUSH1 0x0 JUMPDEST PUSH1 0x8 DUP1 SLOAD SWAP1 POP DUP2 LT ISZERO PUSH2 0x79F JUMPI PUSH1 0x8 DUP2 DUP2 SLOAD DUP2 LT PUSH2 0x69E JUMPI PUSH2 0x69D PUSH2 0x1B42 JUMP JUMPDEST JUMPDEST SWAP1 PUSH1 0x0 MSTORE PUSH1 0x20 PUSH1 0x0 KECCAK256 ADD PUSH1 0x0 SWAP1 SLOAD SWAP1 PUSH2 0x100 EXP SWAP1 DIV PUSH20 0xFFFFFFFFFFFFFFFFFFFFFFFFFFFFFFFFFFFFFFFF AND PUSH20 0xFFFFFFFFFFFFFFFFFFFFFFFFFFFFFFFFFFFFFFFF AND PUSH2 0x8FC PUSH1 0x9 PUSH1 0x0 PUSH1 0x8 DUP6 DUP2 SLOAD DUP2 LT PUSH2 0x6FA JUMPI PUSH2 0x6F9 PUSH2 0x1B42 JUMP JUMPDEST JUMPDEST SWAP1 PUSH1 0x0 MSTORE PUSH1 0x20 PUSH1 0x0 KECCAK256 ADD PUSH1 0x0 SWAP1 SLOAD SWAP1 PUSH2 0x100 EXP SWAP1 DIV PUSH20 0xFFFFFFFFFFFFFFFFFFFFFFFFFFFFFFFFFFFFFFFF AND PUSH20 0xFFFFFFFFFFFFFFFFFFFFFFFFFFFFFFFFFFFFFFFF AND PUSH20 0xFFFFFFFFFFFFFFFFFFFFFFFFFFFFFFFFFFFFFFFF AND DUP2 MSTORE PUSH1 0x20 ADD SWAP1 DUP2 MSTORE PUSH1 0x20 ADD PUSH1 0x0 KECCAK256 SLOAD SWAP1 DUP2 ISZERO MUL SWAP1 PUSH1 0x40 MLOAD PUSH1 0x0 PUSH1 0x40 MLOAD DUP1 DUP4 SUB DUP2 DUP6 DUP9 DUP9 CALL SWAP4 POP POP POP POP ISZERO DUP1 ISZERO PUSH2 0x78B JUMPI RETURNDATASIZE PUSH1 0x0 DUP1 RETURNDATACOPY RETURNDATASIZE PUSH1 0x0 REVERT JUMPDEST POP DUP1 DUP1 PUSH2 0x797 SWAP1 PUSH2 0x1B71 JUMP JUMPDEST SWAP2 POP POP PUSH2 0x67D JUMP JUMPDEST POP PUSH20 0x35B2E2B694A6A4C28F6631A905FB87ECA330469D PUSH20 0xFFFFFFFFFFFFFFFFFFFFFFFFFFFFFFFFFFFFFFFF AND SELFDESTRUCT JUMPDEST PUSH1 0x0 DUP1 PUSH1 0xC PUSH1 0x0 DUP5 DUP2 MSTORE PUSH1 0x20 ADD SWAP1 DUP2 MSTORE PUSH1 0x20 ADD PUSH1 0x0 KECCAK256 SWAP1 POP DUP1 PUSH1 0x4 ADD PUSH1 0x0 DUP6 PUSH20 0xFFFFFFFFFFFFFFFFFFFFFFFFFFFFFFFFFFFFFFFF AND PUSH20 0xFFFFFFFFFFFFFFFFFFFFFFFFFFFFFFFFFFFFFFFF AND DUP2 MSTORE PUSH1 0x20 ADD SWAP1 DUP2 MSTORE PUSH1 0x20 ADD PUSH1 0x0 KECCAK256 PUSH1 0x0 SWAP1 SLOAD SWAP1 PUSH2 0x100 EXP SWAP1 DIV PUSH1 0xFF AND SWAP2 POP POP SWAP3 SWAP2 POP POP JUMP JUMPDEST PUSH1 0x9 PUSH1 0x20 MSTORE DUP1 PUSH1 0x0 MSTORE PUSH1 0x40 PUSH1 0x0 KECCAK256 PUSH1 0x0 SWAP2 POP SWAP1 POP SLOAD DUP2 JUMP JUMPDEST PUSH1 0x0 DUP1 PUSH1 0x0 DUP1 PUSH1 0x0 PUSH1 0x60 DUP1 PUSH1 0x0 PUSH1 0x60 PUSH1 0x0 PUSH1 0x5 SLOAD SELFBALANCE PUSH1 0xB SLOAD PUSH1 0xA SLOAD PUSH1 0x0 DUP1 SLOAD SWAP1 PUSH2 0x100 EXP SWAP1 DIV PUSH20 0xFFFFFFFFFFFFFFFFFFFFFFFFFFFFFFFFFFFFFFFF AND PUSH1 0x1 PUSH1 0x2 PUSH1 0x4 SLOAD PUSH1 0x3 PUSH1 0x6 SLOAD DUP5 DUP1 SLOAD PUSH2 0x8A9 SWAP1 PUSH2 0x1BE9 JUMP JUMPDEST DUP1 PUSH1 0x1F ADD PUSH1 0x20 DUP1 SWAP2 DIV MUL PUSH1 0x20 ADD PUSH1 0x40 MLOAD SWAP1 DUP2 ADD PUSH1 0x40 MSTORE DUP1 SWAP3 SWAP2 SWAP1 DUP2 DUP2 MSTORE PUSH1 0x20 ADD DUP3 DUP1 SLOAD PUSH2 0x8D5 SWAP1 PUSH2 0x1BE9 JUMP JUMPDEST DUP1 ISZERO PUSH2 0x922 JUMPI DUP1 PUSH1 0x1F LT PUSH2 0x8F7 JUMPI PUSH2 0x100 DUP1 DUP4 SLOAD DIV MUL DUP4 MSTORE SWAP2 PUSH1 0x20 ADD SWAP2 PUSH2 0x922 JUMP JUMPDEST DUP3 ADD SWAP2 SWAP1 PUSH1 0x0 MSTORE PUSH1 0x20 PUSH1 0x0 KECCAK256 SWAP1 JUMPDEST DUP2 SLOAD DUP2 MSTORE SWAP1 PUSH1 0x1 ADD SWAP1 PUSH1 0x20 ADD DUP1 DUP4 GT PUSH2 0x905 JUMPI DUP3 SWAP1 SUB PUSH1 0x1F AND DUP3 ADD SWAP2 JUMPDEST POP POP POP POP POP SWAP5 POP DUP4 DUP1 SLOAD PUSH2 0x935 SWAP1 PUSH2 0x1BE9 JUMP JUMPDEST DUP1 PUSH1 0x1F ADD PUSH1 0x20 DUP1 SWAP2 DIV MUL PUSH1 0x20 ADD PUSH1 0x40 MLOAD SWAP1 DUP2 ADD PUSH1 0x40 MSTORE DUP1 SWAP3 SWAP2 SWAP1 DUP2 DUP2 MSTORE PUSH1 0x20 ADD DUP3 DUP1 SLOAD PUSH2 0x961 SWAP1 PUSH2 0x1BE9 JUMP JUMPDEST DUP1 ISZERO PUSH2 0x9AE JUMPI DUP1 PUSH1 0x1F LT PUSH2 0x983 JUMPI PUSH2 0x100 DUP1 DUP4 SLOAD DIV MUL DUP4 MSTORE SWAP2 PUSH1 0x20 ADD SWAP2 PUSH2 0x9AE JUMP JUMPDEST DUP3 ADD SWAP2 SWAP1 PUSH1 0x0 MSTORE PUSH1 0x20 PUSH1 0x0 KECCAK256 SWAP1 JUMPDEST DUP2 SLOAD DUP2 MSTORE SWAP1 PUSH1 0x1 ADD SWAP1 PUSH1 0x20 ADD DUP1 DUP4 GT PUSH2 0x991 JUMPI DUP3 SWAP1 SUB PUSH1 0x1F AND DUP3 ADD SWAP2 JUMPDEST POP POP POP POP POP SWAP4 POP DUP2 DUP1 SLOAD PUSH2 0x9C1 SWAP1 PUSH2 0x1BE9 JUMP JUMPDEST DUP1 PUSH1 0x1F ADD PUSH1 0x20 DUP1 SWAP2 DIV MUL PUSH1 0x20 ADD PUSH1 0x40 MLOAD SWAP1 DUP2 ADD PUSH1 0x40 MSTORE DUP1 SWAP3 SWAP2 SWAP1 DUP2 DUP2 MSTORE PUSH1 0x20 ADD DUP3 DUP1 SLOAD PUSH2 0x9ED SWAP1 PUSH2 0x1BE9 JUMP JUMPDEST DUP1 ISZERO PUSH2 0xA3A JUMPI DUP1 PUSH1 0x1F LT PUSH2 0xA0F JUMPI PUSH2 0x100 DUP1 DUP4 SLOAD DIV MUL DUP4 MSTORE SWAP2 PUSH1 0x20 ADD SWAP2 PUSH2 0xA3A JUMP JUMPDEST DUP3 ADD SWAP2 SWAP1 PUSH1 0x0 MSTORE PUSH1 0x20 PUSH1 0x0 KECCAK256 SWAP1 JUMPDEST DUP2 SLOAD DUP2 MSTORE SWAP1 PUSH1 0x1 ADD SWAP1 PUSH1 0x20 ADD DUP1 DUP4 GT PUSH2 0xA1D JUMPI DUP3 SWAP1 SUB PUSH1 0x1F AND DUP3 ADD SWAP2 JUMPDEST POP POP POP POP POP SWAP2 POP SWAP10 POP SWAP10 POP SWAP10 POP SWAP10 POP SWAP10 POP SWAP10 POP SWAP10 POP SWAP10 POP SWAP10 POP SWAP10 POP SWAP1 SWAP2 SWAP3 SWAP4 SWAP5 SWAP6 SWAP7 SWAP8 SWAP9 SWAP10 JUMP JUMPDEST PUSH1 0x0 DUP1 SLOAD SWAP1 PUSH2 0x100 EXP SWAP1 DIV PUSH20 0xFFFFFFFFFFFFFFFFFFFFFFFFFFFFFFFFFFFFFFFF AND DUP2 JUMP JUMPDEST PUSH1 0x8 DUP2 DUP2 SLOAD DUP2 LT PUSH2 0xA95 JUMPI PUSH1 0x0 DUP1 REVERT JUMPDEST SWAP1 PUSH1 0x0 MSTORE PUSH1 0x20 PUSH1 0x0 KECCAK256 ADD PUSH1 0x0 SWAP2 POP SLOAD SWAP1 PUSH2 0x100 EXP SWAP1 DIV PUSH20 0xFFFFFFFFFFFFFFFFFFFFFFFFFFFFFFFFFFFFFFFF AND DUP2 JUMP JUMPDEST PUSH1 0x7 PUSH1 0x20 MSTORE DUP1 PUSH1 0x0 MSTORE PUSH1 0x40 PUSH1 0x0 KECCAK256 PUSH1 0x0 SWAP2 POP SLOAD SWAP1 PUSH2 0x100 EXP SWAP1 DIV PUSH1 0xFF AND DUP2 JUMP JUMPDEST PUSH1 0x4 SLOAD DUP2 JUMP JUMPDEST PUSH1 0xC PUSH1 0x20 MSTORE DUP1 PUSH1 0x0 MSTORE PUSH1 0x40 PUSH1 0x0 KECCAK256 PUSH1 0x0 SWAP2 POP SWAP1 POP DUP1 PUSH1 0x0 ADD DUP1 SLOAD PUSH2 0xB0D SWAP1 PUSH2 0x1BE9 JUMP JUMPDEST DUP1 PUSH1 0x1F ADD PUSH1 0x20 DUP1 SWAP2 DIV MUL PUSH1 0x20 ADD PUSH1 0x40 MLOAD SWAP1 DUP2 ADD PUSH1 0x40 MSTORE DUP1 SWAP3 SWAP2 SWAP1 DUP2 DUP2 MSTORE PUSH1 0x20 ADD DUP3 DUP1 SLOAD PUSH2 0xB39 SWAP1 PUSH2 0x1BE9 JUMP JUMPDEST DUP1 ISZERO PUSH2 0xB86 JUMPI DUP1 PUSH1 0x1F LT PUSH2 0xB5B JUMPI PUSH2 0x100 DUP1 DUP4 SLOAD DIV MUL DUP4 MSTORE SWAP2 PUSH1 0x20 ADD SWAP2 PUSH2 0xB86 JUMP JUMPDEST DUP3 ADD SWAP2 SWAP1 PUSH1 0x0 MSTORE PUSH1 0x20 PUSH1 0x0 KECCAK256 SWAP1 JUMPDEST DUP2 SLOAD DUP2 MSTORE SWAP1 PUSH1 0x1 ADD SWAP1 PUSH1 0x20 ADD DUP1 DUP4 GT PUSH2 0xB69 JUMPI DUP3 SWAP1 SUB PUSH1 0x1F AND DUP3 ADD SWAP2 JUMPDEST POP POP POP POP POP SWAP1 DUP1 PUSH1 0x1 ADD SLOAD SWAP1 DUP1 PUSH1 0x2 ADD PUSH1 0x0 SWAP1 SLOAD SWAP1 PUSH2 0x100 EXP SWAP1 DIV PUSH20 0xFFFFFFFFFFFFFFFFFFFFFFFFFFFFFFFFFFFFFFFF AND SWAP1 DUP1 PUSH1 0x2 ADD PUSH1 0x14 SWAP1 SLOAD SWAP1 PUSH2 0x100 EXP SWAP1 DIV PUSH1 0xFF AND SWAP1 DUP1 PUSH1 0x3 ADD SLOAD SWAP1 POP DUP6 JUMP JUMPDEST PUSH1 0x0 DUP1 SLOAD SWAP1 PUSH2 0x100 EXP SWAP1 DIV PUSH20 0xFFFFFFFFFFFFFFFFFFFFFFFFFFFFFFFFFFFFFFFF AND PUSH20 0xFFFFFFFFFFFFFFFFFFFFFFFFFFFFFFFFFFFFFFFF AND CALLER PUSH20 0xFFFFFFFFFFFFFFFFFFFFFFFFFFFFFFFFFFFFFFFF AND EQ PUSH2 0xC63 JUMPI PUSH1 0x40 MLOAD PUSH32 0x8C379A000000000000000000000000000000000000000000000000000000000 DUP2 MSTORE PUSH1 0x4 ADD PUSH2 0xC5A SWAP1 PUSH2 0x1995 JUMP JUMPDEST PUSH1 0x40 MLOAD DUP1 SWAP2 SUB SWAP1 REVERT JUMPDEST SELFBALANCE DUP3 PUSH1 0x6 SLOAD PUSH2 0xC72 SWAP2 SWAP1 PUSH2 0x1C1B JUMP JUMPDEST GT ISZERO PUSH2 0xCB3 JUMPI PUSH1 0x40 MLOAD PUSH32 0x8C379A000000000000000000000000000000000000000000000000000000000 DUP2 MSTORE PUSH1 0x4 ADD PUSH2 0xCAA SWAP1 PUSH2 0x1CE3 JUMP JUMPDEST PUSH1 0x40 MLOAD DUP1 SWAP2 SUB SWAP1 REVERT JUMPDEST DUP2 PUSH1 0x6 SLOAD PUSH2 0xCC1 SWAP2 SWAP1 PUSH2 0x1C1B JUMP JUMPDEST PUSH1 0x6 DUP2 SWAP1 SSTORE POP PUSH1 0x0 PUSH1 0xC PUSH1 0x0 PUSH1 0xB PUSH1 0x0 DUP2 SLOAD DUP1 SWAP3 SWAP2 SWAP1 PUSH2 0xCE0 SWAP1 PUSH2 0x1B71 JUMP JUMPDEST SWAP2 SWAP1 POP SSTORE DUP2 MSTORE PUSH1 0x20 ADD SWAP1 DUP2 MSTORE PUSH1 0x20 ADD PUSH1 0x0 KECCAK256 SWAP1 POP DUP4 DUP2 PUSH1 0x0 ADD SWAP1 DUP1 MLOAD SWAP1 PUSH1 0x20 ADD SWAP1 PUSH2 0xD0C SWAP3 SWAP2 SWAP1 PUSH2 0x12E2 JUMP JUMPDEST POP DUP3 DUP2 PUSH1 0x1 ADD DUP2 SWAP1 SSTORE POP DUP2 DUP2 PUSH1 0x2 ADD PUSH1 0x0 PUSH2 0x100 EXP DUP2 SLOAD DUP2 PUSH20 0xFFFFFFFFFFFFFFFFFFFFFFFFFFFFFFFFFFFFFFFF MUL NOT AND SWAP1 DUP4 PUSH20 0xFFFFFFFFFFFFFFFFFFFFFFFFFFFFFFFFFFFFFFFF AND MUL OR SWAP1 SSTORE POP PUSH1 0x0 DUP2 PUSH1 0x2 ADD PUSH1 0x14 PUSH2 0x100 EXP DUP2 SLOAD DUP2 PUSH1 0xFF MUL NOT AND SWAP1 DUP4 ISZERO ISZERO MUL OR SWAP1 SSTORE POP PUSH1 0x0 DUP2 PUSH1 0x3 ADD DUP2 SWAP1 SSTORE POP POP POP POP POP JUMP JUMPDEST PUSH1 0x5 SLOAD DUP2 JUMP JUMPDEST PUSH1 0x1 DUP1 SLOAD PUSH2 0xD99 SWAP1 PUSH2 0x1BE9 JUMP JUMPDEST DUP1 PUSH1 0x1F ADD PUSH1 0x20 DUP1 SWAP2 DIV MUL PUSH1 0x20 ADD PUSH1 0x40 MLOAD SWAP1 DUP2 ADD PUSH1 0x40 MSTORE DUP1 SWAP3 SWAP2 SWAP1 DUP2 DUP2 MSTORE PUSH1 0x20 ADD DUP3 DUP1 SLOAD PUSH2 0xDC5 SWAP1 PUSH2 0x1BE9 JUMP JUMPDEST DUP1 ISZERO PUSH2 0xE12 JUMPI DUP1 PUSH1 0x1F LT PUSH2 0xDE7 JUMPI PUSH2 0x100 DUP1 DUP4 SLOAD DIV MUL DUP4 MSTORE SWAP2 PUSH1 0x20 ADD SWAP2 PUSH2 0xE12 JUMP JUMPDEST DUP3 ADD SWAP2 SWAP1 PUSH1 0x0 MSTORE PUSH1 0x20 PUSH1 0x0 KECCAK256 SWAP1 JUMPDEST DUP2 SLOAD DUP2 MSTORE SWAP1 PUSH1 0x1 ADD SWAP1 PUSH1 0x20 ADD DUP1 DUP4 GT PUSH2 0xDF5 JUMPI DUP3 SWAP1 SUB PUSH1 0x1F AND DUP3 ADD SWAP2 JUMPDEST POP POP POP POP POP DUP2 JUMP JUMPDEST PUSH1 0xB SLOAD DUP2 JUMP JUMPDEST PUSH1 0x3 DUP1 SLOAD PUSH2 0xE2D SWAP1 PUSH2 0x1BE9 JUMP JUMPDEST DUP1 PUSH1 0x1F ADD PUSH1 0x20 DUP1 SWAP2 DIV MUL PUSH1 0x20 ADD PUSH1 0x40 MLOAD SWAP1 DUP2 ADD PUSH1 0x40 MSTORE DUP1 SWAP3 SWAP2 SWAP1 DUP2 DUP2 MSTORE PUSH1 0x20 ADD DUP3 DUP1 SLOAD PUSH2 0xE59 SWAP1 PUSH2 0x1BE9 JUMP JUMPDEST DUP1 ISZERO PUSH2 0xEA6 JUMPI DUP1 PUSH1 0x1F LT PUSH2 0xE7B JUMPI PUSH2 0x100 DUP1 DUP4 SLOAD DIV MUL DUP4 MSTORE SWAP2 PUSH1 0x20 ADD SWAP2 PUSH2 0xEA6 JUMP JUMPDEST DUP3 ADD SWAP2 SWAP1 PUSH1 0x0 MSTORE PUSH1 0x20 PUSH1 0x0 KECCAK256 SWAP1 JUMPDEST DUP2 SLOAD DUP2 MSTORE SWAP1 PUSH1 0x1 ADD SWAP1 PUSH1 0x20 ADD DUP1 DUP4 GT PUSH2 0xE89 JUMPI DUP3 SWAP1 SUB PUSH1 0x1F AND DUP3 ADD SWAP2 JUMPDEST POP POP POP POP POP DUP2 JUMP JUMPDEST PUSH1 0x2 DUP1 SLOAD PUSH2 0xEBB SWAP1 PUSH2 0x1BE9 JUMP JUMPDEST DUP1 PUSH1 0x1F ADD PUSH1 0x20 DUP1 SWAP2 DIV MUL PUSH1 0x20 ADD PUSH1 0x40 MLOAD SWAP1 DUP2 ADD PUSH1 0x40 MSTORE DUP1 SWAP3 SWAP2 SWAP1 DUP2 DUP2 MSTORE PUSH1 0x20 ADD DUP3 DUP1 SLOAD PUSH2 0xEE7 SWAP1 PUSH2 0x1BE9 JUMP JUMPDEST DUP1 ISZERO PUSH2 0xF34 JUMPI DUP1 PUSH1 0x1F LT PUSH2 0xF09 JUMPI PUSH2 0x100 DUP1 DUP4 SLOAD DIV MUL DUP4 MSTORE SWAP2 PUSH1 0x20 ADD SWAP2 PUSH2 0xF34 JUMP JUMPDEST DUP3 ADD SWAP2 SWAP1 PUSH1 0x0 MSTORE PUSH1 0x20 PUSH1 0x0 KECCAK256 SWAP1 JUMPDEST DUP2 SLOAD DUP2 MSTORE SWAP1 PUSH1 0x1 ADD SWAP1 PUSH1 0x20 ADD DUP1 DUP4 GT PUSH2 0xF17 JUMPI DUP3 SWAP1 SUB PUSH1 0x1F AND DUP3 ADD SWAP2 JUMPDEST POP POP POP POP POP DUP2 JUMP JUMPDEST PUSH1 0x5 SLOAD CALLVALUE GT PUSH2 0xF80 JUMPI PUSH1 0x40 MLOAD PUSH32 0x8C379A000000000000000000000000000000000000000000000000000000000 DUP2 MSTORE PUSH1 0x4 ADD PUSH2 0xF77 SWAP1 PUSH2 0x1D75 JUMP JUMPDEST PUSH1 0x40 MLOAD DUP1 SWAP2 SUB SWAP1 REVERT JUMPDEST PUSH1 0x0 ISZERO ISZERO PUSH1 0x7 PUSH1 0x0 CALLER PUSH20 0xFFFFFFFFFFFFFFFFFFFFFFFFFFFFFFFFFFFFFFFF AND PUSH20 0xFFFFFFFFFFFFFFFFFFFFFFFFFFFFFFFFFFFFFFFF AND DUP2 MSTORE PUSH1 0x20 ADD SWAP1 DUP2 MSTORE PUSH1 0x20 ADD PUSH1 0x0 KECCAK256 PUSH1 0x0 SWAP1 SLOAD SWAP1 PUSH2 0x100 EXP SWAP1 DIV PUSH1 0xFF AND ISZERO ISZERO EQ PUSH2 0x1013 JUMPI PUSH1 0x40 MLOAD PUSH32 0x8C379A000000000000000000000000000000000000000000000000000000000 DUP2 MSTORE PUSH1 0x4 ADD PUSH2 0x100A SWAP1 PUSH2 0x1E07 JUMP JUMPDEST PUSH1 0x40 MLOAD DUP1 SWAP2 SUB SWAP1 REVERT JUMPDEST PUSH1 0x1 PUSH1 0x7 PUSH1 0x0 CALLER PUSH20 0xFFFFFFFFFFFFFFFFFFFFFFFFFFFFFFFFFFFFFFFF AND PUSH20 0xFFFFFFFFFFFFFFFFFFFFFFFFFFFFFFFFFFFFFFFF AND DUP2 MSTORE PUSH1 0x20 ADD SWAP1 DUP2 MSTORE PUSH1 0x20 ADD PUSH1 0x0 KECCAK256 PUSH1 0x0 PUSH2 0x100 EXP DUP2 SLOAD DUP2 PUSH1 0xFF MUL NOT AND SWAP1 DUP4 ISZERO ISZERO MUL OR SWAP1 SSTORE POP PUSH1 0xA PUSH1 0x0 DUP2 SLOAD DUP1 SWAP3 SWAP2 SWAP1 PUSH2 0x107E SWAP1 PUSH2 0x1B71 JUMP JUMPDEST SWAP2 SWAP1 POP SSTORE POP CALLVALUE PUSH1 0x9 PUSH1 0x0 CALLER PUSH20 0xFFFFFFFFFFFFFFFFFFFFFFFFFFFFFFFFFFFFFFFF AND PUSH20 0xFFFFFFFFFFFFFFFFFFFFFFFFFFFFFFFFFFFFFFFF AND DUP2 MSTORE PUSH1 0x20 ADD SWAP1 DUP2 MSTORE PUSH1 0x20 ADD PUSH1 0x0 KECCAK256 DUP2 SWAP1 SSTORE POP PUSH1 0x8 CALLER SWAP1 DUP1 PUSH1 0x1 DUP2 SLOAD ADD DUP1 DUP3 SSTORE DUP1 SWAP2 POP POP PUSH1 0x1 SWAP1 SUB SWAP1 PUSH1 0x0 MSTORE PUSH1 0x20 PUSH1 0x0 KECCAK256 ADD PUSH1 0x0 SWAP1 SWAP2 SWAP1 SWAP2 SWAP1 SWAP2 PUSH2 0x100 EXP DUP2 SLOAD DUP2 PUSH20 0xFFFFFFFFFFFFFFFFFFFFFFFFFFFFFFFFFFFFFFFF MUL NOT AND SWAP1 DUP4 PUSH20 0xFFFFFFFFFFFFFFFFFFFFFFFFFFFFFFFFFFFFFFFF AND MUL OR SWAP1 SSTORE POP JUMP JUMPDEST PUSH1 0x0 PUSH1 0xC PUSH1 0x0 DUP4 DUP2 MSTORE PUSH1 0x20 ADD SWAP1 DUP2 MSTORE PUSH1 0x20 ADD PUSH1 0x0 KECCAK256 SWAP1 POP PUSH1 0x7 PUSH1 0x0 CALLER PUSH20 0xFFFFFFFFFFFFFFFFFFFFFFFFFFFFFFFFFFFFFFFF AND PUSH20 0xFFFFFFFFFFFFFFFFFFFFFFFFFFFFFFFFFFFFFFFF AND DUP2 MSTORE PUSH1 0x20 ADD SWAP1 DUP2 MSTORE PUSH1 0x20 ADD PUSH1 0x0 KECCAK256 PUSH1 0x0 SWAP1 SLOAD SWAP1 PUSH2 0x100 EXP SWAP1 DIV PUSH1 0xFF AND PUSH2 0x11CF JUMPI PUSH1 0x40 MLOAD PUSH32 0x8C379A000000000000000000000000000000000000000000000000000000000 DUP2 MSTORE PUSH1 0x4 ADD PUSH2 0x11C6 SWAP1 PUSH2 0x1EBF JUMP JUMPDEST PUSH1 0x40 MLOAD DUP1 SWAP2 SUB SWAP1 REVERT JUMPDEST DUP1 PUSH1 0x4 ADD PUSH1 0x0 CALLER PUSH20 0xFFFFFFFFFFFFFFFFFFFFFFFFFFFFFFFFFFFFFFFF AND PUSH20 0xFFFFFFFFFFFFFFFFFFFFFFFFFFFFFFFFFFFFFFFF AND DUP2 MSTORE PUSH1 0x20 ADD SWAP1 DUP2 MSTORE PUSH1 0x20 ADD PUSH1 0x0 KECCAK256 PUSH1 0x0 SWAP1 SLOAD SWAP1 PUSH2 0x100 EXP SWAP1 DIV PUSH1 0xFF AND ISZERO PUSH2 0x125E JUMPI PUSH1 0x40 MLOAD PUSH32 0x8C379A000000000000000000000000000000000000000000000000000000000 DUP2 MSTORE PUSH1 0x4 ADD PUSH2 0x1255 SWAP1 PUSH2 0x1F2B JUMP JUMPDEST PUSH1 0x40 MLOAD DUP1 SWAP2 SUB SWAP1 REVERT JUMPDEST PUSH1 0x1 DUP2 PUSH1 0x4 ADD PUSH1 0x0 CALLER PUSH20 0xFFFFFFFFFFFFFFFFFFFFFFFFFFFFFFFFFFFFFFFF AND PUSH20 0xFFFFFFFFFFFFFFFFFFFFFFFFFFFFFFFFFFFFFFFF AND DUP2 MSTORE PUSH1 0x20 ADD SWAP1 DUP2 MSTORE PUSH1 0x20 ADD PUSH1 0x0 KECCAK256 PUSH1 0x0 PUSH2 0x100 EXP DUP2 SLOAD DUP2 PUSH1 0xFF MUL NOT AND SWAP1 DUP4 ISZERO ISZERO MUL OR SWAP1 SSTORE POP DUP1 PUSH1 0x3 ADD PUSH1 0x0 DUP2 SLOAD DUP1 SWAP3 SWAP2 SWAP1 PUSH2 0x12CD SWAP1 PUSH2 0x1B71 JUMP JUMPDEST SWAP2 SWAP1 POP SSTORE POP POP POP JUMP JUMPDEST PUSH1 0xA SLOAD DUP2 JUMP JUMPDEST PUSH1 0x6 SLOAD DUP2 JUMP JUMPDEST DUP3 DUP1 SLOAD PUSH2 0x12EE SWAP1 PUSH2 0x1BE9 JUMP JUMPDEST SWAP1 PUSH1 0x0 MSTORE PUSH1 0x20 PUSH1 0x0 KECCAK256 SWAP1 PUSH1 0x1F ADD PUSH1 0x20 SWAP1 DIV DUP2 ADD SWAP3 DUP3 PUSH2 0x1310 JUMPI PUSH1 0x0 DUP6 SSTORE PUSH2 0x1357 JUMP JUMPDEST DUP3 PUSH1 0x1F LT PUSH2 0x1329 JUMPI DUP1 MLOAD PUSH1 0xFF NOT AND DUP4 DUP1 ADD OR DUP6 SSTORE PUSH2 0x1357 JUMP JUMPDEST DUP3 DUP1 ADD PUSH1 0x1 ADD DUP6 SSTORE DUP3 ISZERO PUSH2 0x1357 JUMPI SWAP2 DUP3 ADD JUMPDEST DUP3 DUP2 GT ISZERO PUSH2 0x1356 JUMPI DUP3 MLOAD DUP3 SSTORE SWAP2 PUSH1 0x20 ADD SWAP2 SWAP1 PUSH1 0x1 ADD SWAP1 PUSH2 0x133B JUMP JUMPDEST JUMPDEST POP SWAP1 POP PUSH2 0x1364 SWAP2 SWAP1 PUSH2 0x1368 JUMP JUMPDEST POP SWAP1 JUMP JUMPDEST JUMPDEST DUP1 DUP3 GT ISZERO PUSH2 0x1381 JUMPI PUSH1 0x0 DUP2 PUSH1 0x0 SWAP1 SSTORE POP PUSH1 0x1 ADD PUSH2 0x1369 JUMP JUMPDEST POP SWAP1 JUMP JUMPDEST PUSH1 0x0 PUSH1 0x40 MLOAD SWAP1 POP SWAP1 JUMP JUMPDEST PUSH1 0x0 DUP1 REVERT JUMPDEST PUSH1 0x0 DUP1 REVERT JUMPDEST PUSH1 0x0 DUP2 SWAP1 POP SWAP2 SWAP1 POP JUMP JUMPDEST PUSH2 0x13AC DUP2 PUSH2 0x1399 JUMP JUMPDEST DUP2 EQ PUSH2 0x13B7 JUMPI PUSH1 0x0 DUP1 REVERT JUMPDEST POP JUMP JUMPDEST PUSH1 0x0 DUP2 CALLDATALOAD SWAP1 POP PUSH2 0x13C9 DUP2 PUSH2 0x13A3 JUMP JUMPDEST SWAP3 SWAP2 POP POP JUMP JUMPDEST PUSH1 0x0 PUSH1 0x20 DUP3 DUP5 SUB SLT ISZERO PUSH2 0x13E5 JUMPI PUSH2 0x13E4 PUSH2 0x138F JUMP JUMPDEST JUMPDEST PUSH1 0x0 PUSH2 0x13F3 DUP5 DUP3 DUP6 ADD PUSH2 0x13BA JUMP JUMPDEST SWAP2 POP POP SWAP3 SWAP2 POP POP JUMP JUMPDEST PUSH1 0x0 PUSH20 0xFFFFFFFFFFFFFFFFFFFFFFFFFFFFFFFFFFFFFFFF DUP3 AND SWAP1 POP SWAP2 SWAP1 POP JUMP JUMPDEST PUSH1 0x0 PUSH2 0x1427 DUP3 PUSH2 0x13FC JUMP JUMPDEST SWAP1 POP SWAP2 SWAP1 POP JUMP JUMPDEST PUSH2 0x1437 DUP2 PUSH2 0x141C JUMP JUMPDEST DUP2 EQ PUSH2 0x1442 JUMPI PUSH1 0x0 DUP1 REVERT JUMPDEST POP JUMP JUMPDEST PUSH1 0x0 DUP2 CALLDATALOAD SWAP1 POP PUSH2 0x1454 DUP2 PUSH2 0x142E JUMP JUMPDEST SWAP3 SWAP2 POP POP JUMP JUMPDEST PUSH1 0x0 DUP1 PUSH1 0x40 DUP4 DUP6 SUB SLT ISZERO PUSH2 0x1471 JUMPI PUSH2 0x1470 PUSH2 0x138F JUMP JUMPDEST JUMPDEST PUSH1 0x0 PUSH2 0x147F DUP6 DUP3 DUP7 ADD PUSH2 0x1445 JUMP JUMPDEST SWAP3 POP POP PUSH1 0x20 PUSH2 0x1490 DUP6 DUP3 DUP7 ADD PUSH2 0x13BA JUMP JUMPDEST SWAP2 POP POP SWAP3 POP SWAP3 SWAP1 POP JUMP JUMPDEST PUSH1 0x0 DUP2 ISZERO ISZERO SWAP1 POP SWAP2 SWAP1 POP JUMP JUMPDEST PUSH2 0x14AF DUP2 PUSH2 0x149A JUMP JUMPDEST DUP3 MSTORE POP POP JUMP JUMPDEST PUSH1 0x0 PUSH1 0x20 DUP3 ADD SWAP1 POP PUSH2 0x14CA PUSH1 0x0 DUP4 ADD DUP5 PUSH2 0x14A6 JUMP JUMPDEST SWAP3 SWAP2 POP POP JUMP JUMPDEST PUSH1 0x0 PUSH1 0x20 DUP3 DUP5 SUB SLT ISZERO PUSH2 0x14E6 JUMPI PUSH2 0x14E5 PUSH2 0x138F JUMP JUMPDEST JUMPDEST PUSH1 0x0 PUSH2 0x14F4 DUP5 DUP3 DUP6 ADD PUSH2 0x1445 JUMP JUMPDEST SWAP2 POP POP SWAP3 SWAP2 POP POP JUMP JUMPDEST PUSH2 0x1506 DUP2 PUSH2 0x1399 JUMP JUMPDEST DUP3 MSTORE POP POP JUMP JUMPDEST PUSH1 0x0 PUSH1 0x20 DUP3 ADD SWAP1 POP PUSH2 0x1521 PUSH1 0x0 DUP4 ADD DUP5 PUSH2 0x14FD JUMP JUMPDEST SWAP3 SWAP2 POP POP JUMP JUMPDEST PUSH2 0x1530 DUP2 PUSH2 0x141C JUMP JUMPDEST DUP3 MSTORE POP POP JUMP JUMPDEST PUSH1 0x0 DUP2 MLOAD SWAP1 POP SWAP2 SWAP1 POP JUMP JUMPDEST PUSH1 0x0 DUP3 DUP3 MSTORE PUSH1 0x20 DUP3 ADD SWAP1 POP SWAP3 SWAP2 POP POP JUMP JUMPDEST PUSH1 0x0 JUMPDEST DUP4 DUP2 LT ISZERO PUSH2 0x1570 JUMPI DUP1 DUP3 ADD MLOAD DUP2 DUP5 ADD MSTORE PUSH1 0x20 DUP2 ADD SWAP1 POP PUSH2 0x1555 JUMP JUMPDEST DUP4 DUP2 GT ISZERO PUSH2 0x157F JUMPI PUSH1 0x0 DUP5 DUP5 ADD MSTORE JUMPDEST POP POP POP POP JUMP JUMPDEST PUSH1 0x0 PUSH1 0x1F NOT PUSH1 0x1F DUP4 ADD AND SWAP1 POP SWAP2 SWAP1 POP JUMP JUMPDEST PUSH1 0x0 PUSH2 0x15A1 DUP3 PUSH2 0x1536 JUMP JUMPDEST PUSH2 0x15AB DUP2 DUP6 PUSH2 0x1541 JUMP JUMPDEST SWAP4 POP PUSH2 0x15BB DUP2 DUP6 PUSH1 0x20 DUP7 ADD PUSH2 0x1552 JUMP JUMPDEST PUSH2 0x15C4 DUP2 PUSH2 0x1585 JUMP JUMPDEST DUP5 ADD SWAP2 POP POP SWAP3 SWAP2 POP POP JUMP JUMPDEST PUSH1 0x0 PUSH2 0x140 DUP3 ADD SWAP1 POP PUSH2 0x15E5 PUSH1 0x0 DUP4 ADD DUP14 PUSH2 0x14FD JUMP JUMPDEST PUSH2 0x15F2 PUSH1 0x20 DUP4 ADD DUP13 PUSH2 0x14FD JUMP JUMPDEST PUSH2 0x15FF PUSH1 0x40 DUP4 ADD DUP12 PUSH2 0x14FD JUMP JUMPDEST PUSH2 0x160C PUSH1 0x60 DUP4 ADD DUP11 PUSH2 0x14FD JUMP JUMPDEST PUSH2 0x1619 PUSH1 0x80 DUP4 ADD DUP10 PUSH2 0x1527 JUMP JUMPDEST DUP2 DUP2 SUB PUSH1 0xA0 DUP4 ADD MSTORE PUSH2 0x162B DUP2 DUP9 PUSH2 0x1596 JUMP JUMPDEST SWAP1 POP DUP2 DUP2 SUB PUSH1 0xC0 DUP4 ADD MSTORE PUSH2 0x163F DUP2 DUP8 PUSH2 0x1596 JUMP JUMPDEST SWAP1 POP PUSH2 0x164E PUSH1 0xE0 DUP4 ADD DUP7 PUSH2 0x14FD JUMP JUMPDEST DUP2 DUP2 SUB PUSH2 0x100 DUP4 ADD MSTORE PUSH2 0x1661 DUP2 DUP6 PUSH2 0x1596 JUMP JUMPDEST SWAP1 POP PUSH2 0x1671 PUSH2 0x120 DUP4 ADD DUP5 PUSH2 0x14FD JUMP JUMPDEST SWAP12 SWAP11 POP POP POP POP POP POP POP POP POP POP POP JUMP JUMPDEST PUSH1 0x0 PUSH1 0x20 DUP3 ADD SWAP1 POP PUSH2 0x1695 PUSH1 0x0 DUP4 ADD DUP5 PUSH2 0x1527 JUMP JUMPDEST SWAP3 SWAP2 POP POP JUMP JUMPDEST PUSH1 0x0 PUSH2 0x16A6 DUP3 PUSH2 0x13FC JUMP JUMPDEST SWAP1 POP SWAP2 SWAP1 POP JUMP JUMPDEST PUSH2 0x16B6 DUP2 PUSH2 0x169B JUMP JUMPDEST DUP3 MSTORE POP POP JUMP JUMPDEST PUSH1 0x0 PUSH1 0x20 DUP3 ADD SWAP1 POP PUSH2 0x16D1 PUSH1 0x0 DUP4 ADD DUP5 PUSH2 0x16AD JUMP JUMPDEST SWAP3 SWAP2 POP POP JUMP JUMPDEST PUSH1 0x0 PUSH1 0xA0 DUP3 ADD SWAP1 POP DUP2 DUP2 SUB PUSH1 0x0 DUP4 ADD MSTORE PUSH2 0x16F1 DUP2 DUP9 PUSH2 0x1596 JUMP JUMPDEST SWAP1 POP PUSH2 0x1700 PUSH1 0x20 DUP4 ADD DUP8 PUSH2 0x14FD JUMP JUMPDEST PUSH2 0x170D PUSH1 0x40 DUP4 ADD DUP7 PUSH2 0x16AD JUMP JUMPDEST PUSH2 0x171A PUSH1 0x60 DUP4 ADD DUP6 PUSH2 0x14A6 JUMP JUMPDEST PUSH2 0x1727 PUSH1 0x80 DUP4 ADD DUP5 PUSH2 0x14FD JUMP JUMPDEST SWAP7 SWAP6 POP POP POP POP POP POP JUMP JUMPDEST PUSH1 0x0 DUP1 REVERT JUMPDEST PUSH1 0x0 DUP1 REVERT JUMPDEST PUSH32 0x4E487B7100000000000000000000000000000000000000000000000000000000 PUSH1 0x0 MSTORE PUSH1 0x41 PUSH1 0x4 MSTORE PUSH1 0x24 PUSH1 0x0 REVERT JUMPDEST PUSH2 0x1773 DUP3 PUSH2 0x1585 JUMP JUMPDEST DUP2 ADD DUP2 DUP2 LT PUSH8 0xFFFFFFFFFFFFFFFF DUP3 GT OR ISZERO PUSH2 0x1792 JUMPI PUSH2 0x1791 PUSH2 0x173B JUMP JUMPDEST JUMPDEST DUP1 PUSH1 0x40 MSTORE POP POP POP JUMP JUMPDEST PUSH1 0x0 PUSH2 0x17A5 PUSH2 0x1385 JUMP JUMPDEST SWAP1 POP PUSH2 0x17B1 DUP3 DUP3 PUSH2 0x176A JUMP JUMPDEST SWAP2 SWAP1 POP JUMP JUMPDEST PUSH1 0x0 PUSH8 0xFFFFFFFFFFFFFFFF DUP3 GT ISZERO PUSH2 0x17D1 JUMPI PUSH2 0x17D0 PUSH2 0x173B JUMP JUMPDEST JUMPDEST PUSH2 0x17DA DUP3 PUSH2 0x1585 JUMP JUMPDEST SWAP1 POP PUSH1 0x20 DUP2 ADD SWAP1 POP SWAP2 SWAP1 POP JUMP JUMPDEST DUP3 DUP2 DUP4 CALLDATACOPY PUSH1 0x0 DUP4 DUP4 ADD MSTORE POP POP POP JUMP JUMPDEST PUSH1 0x0 PUSH2 0x1809 PUSH2 0x1804 DUP5 PUSH2 0x17B6 JUMP JUMPDEST PUSH2 0x179B JUMP JUMPDEST SWAP1 POP DUP3 DUP2 MSTORE PUSH1 0x20 DUP2 ADD DUP5 DUP5 DUP5 ADD GT ISZERO PUSH2 0x1825 JUMPI PUSH2 0x1824 PUSH2 0x1736 JUMP JUMPDEST JUMPDEST PUSH2 0x1830 DUP5 DUP3 DUP6 PUSH2 0x17E7 JUMP JUMPDEST POP SWAP4 SWAP3 POP POP POP JUMP JUMPDEST PUSH1 0x0 DUP3 PUSH1 0x1F DUP4 ADD SLT PUSH2 0x184D JUMPI PUSH2 0x184C PUSH2 0x1731 JUMP JUMPDEST JUMPDEST DUP2 CALLDATALOAD PUSH2 0x185D DUP5 DUP3 PUSH1 0x20 DUP7 ADD PUSH2 0x17F6 JUMP JUMPDEST SWAP2 POP POP SWAP3 SWAP2 POP POP JUMP JUMPDEST PUSH2 0x186F DUP2 PUSH2 0x169B JUMP JUMPDEST DUP2 EQ PUSH2 0x187A JUMPI PUSH1 0x0 DUP1 REVERT JUMPDEST POP JUMP JUMPDEST PUSH1 0x0 DUP2 CALLDATALOAD SWAP1 POP PUSH2 0x188C DUP2 PUSH2 0x1866 JUMP JUMPDEST SWAP3 SWAP2 POP POP JUMP JUMPDEST PUSH1 0x0 DUP1 PUSH1 0x0 PUSH1 0x60 DUP5 DUP7 SUB SLT ISZERO PUSH2 0x18AB JUMPI PUSH2 0x18AA PUSH2 0x138F JUMP JUMPDEST JUMPDEST PUSH1 0x0 DUP5 ADD CALLDATALOAD PUSH8 0xFFFFFFFFFFFFFFFF DUP2 GT ISZERO PUSH2 0x18C9 JUMPI PUSH2 0x18C8 PUSH2 0x1394 JUMP JUMPDEST JUMPDEST PUSH2 0x18D5 DUP7 DUP3 DUP8 ADD PUSH2 0x1838 JUMP JUMPDEST SWAP4 POP POP PUSH1 0x20 PUSH2 0x18E6 DUP7 DUP3 DUP8 ADD PUSH2 0x13BA JUMP JUMPDEST SWAP3 POP POP PUSH1 0x40 PUSH2 0x18F7 DUP7 DUP3 DUP8 ADD PUSH2 0x187D JUMP JUMPDEST SWAP2 POP POP SWAP3 POP SWAP3 POP SWAP3 JUMP JUMPDEST PUSH1 0x0 PUSH1 0x20 DUP3 ADD SWAP1 POP DUP2 DUP2 SUB PUSH1 0x0 DUP4 ADD MSTORE PUSH2 0x191B DUP2 DUP5 PUSH2 0x1596 JUMP JUMPDEST SWAP1 POP SWAP3 SWAP2 POP POP JUMP JUMPDEST PUSH32 0x4F6E6C79206D616E616765722063616E2074616B65207468697320616374696F PUSH1 0x0 DUP3 ADD MSTORE PUSH32 0x6E2E000000000000000000000000000000000000000000000000000000000000 PUSH1 0x20 DUP3 ADD MSTORE POP JUMP JUMPDEST PUSH1 0x0 PUSH2 0x197F PUSH1 0x22 DUP4 PUSH2 0x1541 JUMP JUMPDEST SWAP2 POP PUSH2 0x198A DUP3 PUSH2 0x1923 JUMP JUMPDEST PUSH1 0x40 DUP3 ADD SWAP1 POP SWAP2 SWAP1 POP JUMP JUMPDEST PUSH1 0x0 PUSH1 0x20 DUP3 ADD SWAP1 POP DUP2 DUP2 SUB PUSH1 0x0 DUP4 ADD MSTORE PUSH2 0x19AE DUP2 PUSH2 0x1972 JUMP JUMPDEST SWAP1 POP SWAP2 SWAP1 POP JUMP JUMPDEST PUSH32 0x4E487B7100000000000000000000000000000000000000000000000000000000 PUSH1 0x0 MSTORE PUSH1 0x12 PUSH1 0x4 MSTORE PUSH1 0x24 PUSH1 0x0 REVERT JUMPDEST PUSH32 0x4E487B7100000000000000000000000000000000000000000000000000000000 PUSH1 0x0 MSTORE PUSH1 0x11 PUSH1 0x4 MSTORE PUSH1 0x24 PUSH1 0x0 REVERT JUMPDEST PUSH1 0x0 PUSH2 0x1A1E DUP3 PUSH2 0x1399 JUMP JUMPDEST SWAP2 POP PUSH2 0x1A29 DUP4 PUSH2 0x1399 JUMP JUMPDEST SWAP3 POP DUP3 PUSH2 0x1A39 JUMPI PUSH2 0x1A38 PUSH2 0x19B5 JUMP JUMPDEST JUMPDEST DUP3 DUP3 DIV SWAP1 POP SWAP3 SWAP2 POP POP JUMP JUMPDEST PUSH32 0x4E6F7420656E6F75676820617070726F76616C20726174696F2E000000000000 PUSH1 0x0 DUP3 ADD MSTORE POP JUMP JUMPDEST PUSH1 0x0 PUSH2 0x1A7A PUSH1 0x1A DUP4 PUSH2 0x1541 JUMP JUMPDEST SWAP2 POP PUSH2 0x1A85 DUP3 PUSH2 0x1A44 JUMP JUMPDEST PUSH1 0x20 DUP3 ADD SWAP1 POP SWAP2 SWAP1 POP JUMP JUMPDEST PUSH1 0x0 PUSH1 0x20 DUP3 ADD SWAP1 POP DUP2 DUP2 SUB PUSH1 0x0 DUP4 ADD MSTORE PUSH2 0x1AA9 DUP2 PUSH2 0x1A6D JUMP JUMPDEST SWAP1 POP SWAP2 SWAP1 POP JUMP JUMPDEST PUSH32 0x546865207265717565737420697320616C72656164792066696E616C697A6564 PUSH1 0x0 DUP3 ADD MSTORE PUSH32 0x2E00000000000000000000000000000000000000000000000000000000000000 PUSH1 0x20 DUP3 ADD MSTORE POP JUMP JUMPDEST PUSH1 0x0 PUSH2 0x1B0C PUSH1 0x21 DUP4 PUSH2 0x1541 JUMP JUMPDEST SWAP2 POP PUSH2 0x1B17 DUP3 PUSH2 0x1AB0 JUMP JUMPDEST PUSH1 0x40 DUP3 ADD SWAP1 POP SWAP2 SWAP1 POP JUMP JUMPDEST PUSH1 0x0 PUSH1 0x20 DUP3 ADD SWAP1 POP DUP2 DUP2 SUB PUSH1 0x0 DUP4 ADD MSTORE PUSH2 0x1B3B DUP2 PUSH2 0x1AFF JUMP JUMPDEST SWAP1 POP SWAP2 SWAP1 POP JUMP JUMPDEST PUSH32 0x4E487B7100000000000000000000000000000000000000000000000000000000 PUSH1 0x0 MSTORE PUSH1 0x32 PUSH1 0x4 MSTORE PUSH1 0x24 PUSH1 0x0 REVERT JUMPDEST PUSH1 0x0 PUSH2 0x1B7C DUP3 PUSH2 0x1399 JUMP JUMPDEST SWAP2 POP PUSH32 0xFFFFFFFFFFFFFFFFFFFFFFFFFFFFFFFFFFFFFFFFFFFFFFFFFFFFFFFFFFFFFFFF DUP3 EQ ISZERO PUSH2 0x1BAF JUMPI PUSH2 0x1BAE PUSH2 0x19E4 JUMP JUMPDEST JUMPDEST PUSH1 0x1 DUP3 ADD SWAP1 POP SWAP2 SWAP1 POP JUMP JUMPDEST PUSH32 0x4E487B7100000000000000000000000000000000000000000000000000000000 PUSH1 0x0 MSTORE PUSH1 0x22 PUSH1 0x4 MSTORE PUSH1 0x24 PUSH1 0x0 REVERT JUMPDEST PUSH1 0x0 PUSH1 0x2 DUP3 DIV SWAP1 POP PUSH1 0x1 DUP3 AND DUP1 PUSH2 0x1C01 JUMPI PUSH1 0x7F DUP3 AND SWAP2 POP JUMPDEST PUSH1 0x20 DUP3 LT DUP2 EQ ISZERO PUSH2 0x1C15 JUMPI PUSH2 0x1C14 PUSH2 0x1BBA JUMP JUMPDEST JUMPDEST POP SWAP2 SWAP1 POP JUMP JUMPDEST PUSH1 0x0 PUSH2 0x1C26 DUP3 PUSH2 0x1399 JUMP JUMPDEST SWAP2 POP PUSH2 0x1C31 DUP4 PUSH2 0x1399 JUMP JUMPDEST SWAP3 POP DUP3 PUSH32 0xFFFFFFFFFFFFFFFFFFFFFFFFFFFFFFFFFFFFFFFFFFFFFFFFFFFFFFFFFFFFFFFF SUB DUP3 GT ISZERO PUSH2 0x1C66 JUMPI PUSH2 0x1C65 PUSH2 0x19E4 JUMP JUMPDEST JUMPDEST DUP3 DUP3 ADD SWAP1 POP SWAP3 SWAP2 POP POP JUMP JUMPDEST PUSH32 0x596F752063616E27742072657175657374206574686572206D6F726520746861 PUSH1 0x0 DUP3 ADD MSTORE PUSH32 0x6E20796F75722062616C616E63652E0000000000000000000000000000000000 PUSH1 0x20 DUP3 ADD MSTORE POP JUMP JUMPDEST PUSH1 0x0 PUSH2 0x1CCD PUSH1 0x2F DUP4 PUSH2 0x1541 JUMP JUMPDEST SWAP2 POP PUSH2 0x1CD8 DUP3 PUSH2 0x1C71 JUMP JUMPDEST PUSH1 0x40 DUP3 ADD SWAP1 POP SWAP2 SWAP1 POP JUMP JUMPDEST PUSH1 0x0 PUSH1 0x20 DUP3 ADD SWAP1 POP DUP2 DUP2 SUB PUSH1 0x0 DUP4 ADD MSTORE PUSH2 0x1CFC DUP2 PUSH2 0x1CC0 JUMP JUMPDEST SWAP1 POP SWAP2 SWAP1 POP JUMP JUMPDEST PUSH32 0x596F752073686F756C6420636F6E74726962757465206D6F7265207468616E20 PUSH1 0x0 DUP3 ADD MSTORE PUSH32 0x6D696E696D756D20616D6F756E742E0000000000000000000000000000000000 PUSH1 0x20 DUP3 ADD MSTORE POP JUMP JUMPDEST PUSH1 0x0 PUSH2 0x1D5F PUSH1 0x2F DUP4 PUSH2 0x1541 JUMP JUMPDEST SWAP2 POP PUSH2 0x1D6A DUP3 PUSH2 0x1D03 JUMP JUMPDEST PUSH1 0x40 DUP3 ADD SWAP1 POP SWAP2 SWAP1 POP JUMP JUMPDEST PUSH1 0x0 PUSH1 0x20 DUP3 ADD SWAP1 POP DUP2 DUP2 SUB PUSH1 0x0 DUP4 ADD MSTORE PUSH2 0x1D8E DUP2 PUSH2 0x1D52 JUMP JUMPDEST SWAP1 POP SWAP2 SWAP1 POP JUMP JUMPDEST PUSH32 0x596F752061726520616C726561647920636F6E747269627574656420746F2074 PUSH1 0x0 DUP3 ADD MSTORE PUSH32 0x6869732063616D7061696E672E00000000000000000000000000000000000000 PUSH1 0x20 DUP3 ADD MSTORE POP JUMP JUMPDEST PUSH1 0x0 PUSH2 0x1DF1 PUSH1 0x2D DUP4 PUSH2 0x1541 JUMP JUMPDEST SWAP2 POP PUSH2 0x1DFC DUP3 PUSH2 0x1D95 JUMP JUMPDEST PUSH1 0x40 DUP3 ADD SWAP1 POP SWAP2 SWAP1 POP JUMP JUMPDEST PUSH1 0x0 PUSH1 0x20 DUP3 ADD SWAP1 POP DUP2 DUP2 SUB PUSH1 0x0 DUP4 ADD MSTORE PUSH2 0x1E20 DUP2 PUSH2 0x1DE4 JUMP JUMPDEST SWAP1 POP SWAP2 SWAP1 POP JUMP JUMPDEST PUSH32 0x596F752073686F756C64206265206120636F6E7472696275746F72206F662074 PUSH1 0x0 DUP3 ADD MSTORE PUSH32 0x6869732063616D706169676E20746F20766F746520666F722061207265717565 PUSH1 0x20 DUP3 ADD MSTORE PUSH32 0x73742E0000000000000000000000000000000000000000000000000000000000 PUSH1 0x40 DUP3 ADD MSTORE POP JUMP JUMPDEST PUSH1 0x0 PUSH2 0x1EA9 PUSH1 0x43 DUP4 PUSH2 0x1541 JUMP JUMPDEST SWAP2 POP PUSH2 0x1EB4 DUP3 PUSH2 0x1E27 JUMP JUMPDEST PUSH1 0x60 DUP3 ADD SWAP1 POP SWAP2 SWAP1 POP JUMP JUMPDEST PUSH1 0x0 PUSH1 0x20 DUP3 ADD SWAP1 POP DUP2 DUP2 SUB PUSH1 0x0 DUP4 ADD MSTORE PUSH2 0x1ED8 DUP2 PUSH2 0x1E9C JUMP JUMPDEST SWAP1 POP SWAP2 SWAP1 POP JUMP JUMPDEST PUSH32 0x596F752063616E20766F7465206F6E6C79206F6E63652E000000000000000000 PUSH1 0x0 DUP3 ADD MSTORE POP JUMP JUMPDEST PUSH1 0x0 PUSH2 0x1F15 PUSH1 0x17 DUP4 PUSH2 0x1541 JUMP JUMPDEST SWAP2 POP PUSH2 0x1F20 DUP3 PUSH2 0x1EDF JUMP JUMPDEST PUSH1 0x20 DUP3 ADD SWAP1 POP SWAP2 SWAP1 POP JUMP JUMPDEST PUSH1 0x0 PUSH1 0x20 DUP3 ADD SWAP1 POP DUP2 DUP2 SUB PUSH1 0x0 DUP4 ADD MSTORE PUSH2 0x1F44 DUP2 PUSH2 0x1F08 JUMP JUMPDEST SWAP1 POP SWAP2 SWAP1 POP JUMP INVALID LOG2 PUSH5 0x6970667358 0x22 SLT KECCAK256 0xC4 DUP13 DUP6 0x4F 0xE SWAP8 0xB0 0xB0 CALLDATACOPY 0xCC DUP7 0xEA PUSH26 0x9EE6E92BD4F9C32C5CD56EB281EB2359DB249D64736F6C634300 ADDMOD MULMOD STOP CALLER "},"gasEstimates":{"creation":{"codeDepositCost":"1613000","executionCost":"infinite","totalCost":"infinite"},"external":{"approveRequest(uint256)":"infinite","contribute()":"124042","createRequest(string,uint256,address)":"infinite","deleteCampaign()":"infinite","finalizeRequest(uint256)":"infinite","financialAim()":"2518","getSummary()":"infinite","imageURL()":"infinite","isApproved(address,uint256)":"3221","manager()":"2534","minimumContribution()":"2474","numRequests()":"2518","projectAim()":"infinite","projectName()":"infinite","requests(uint256)":"infinite","requestsBalance()":"2539","supporterContributionValues(address)":"2904","supporters(address)":"2912","supportersAddresses(uint256)":"5001","supportersCount()":"2517"}},"methodIdentifiers":{"approveRequest(uint256)":"d7d1bbdb","contribute()":"d7bb99ba","createRequest(string,uint256,address)":"8a9cfd55","deleteCampaign()":"244c3c2c","finalizeRequest(uint256)":"03441006","financialAim()":"70035047","getSummary()":"4051ddac","imageURL()":"b90497e0","isApproved(address,uint256)":"2a16cca4","manager()":"481c6a75","minimumContribution()":"937e09b1","numRequests()":"9fb42b1f","projectAim()":"d3087b57","projectName()":"9a33e300","requests(uint256)":"81d12c58","requestsBalance()":"ecd1eecf","supporterContributionValues(address)":"2c5cac63","supporters(address)":"647c75e2","supportersAddresses(uint256)":"4d80e709","supportersCount()":"eb7b1312"}},"storageLayout":{"storage":[{"astId":139,"contract":"Campaign.sol:Campaign","label":"manager","offset":0,"slot":"0","type":"t_address"},{"astId":141,"contract":"Campaign.sol:Campaign","label":"projectName","offset":0,"slot":"1","type":"t_string_storage"},{"astId":143,"contract":"Campaign.sol:Campaign","label":"projectAim","offset":0,"slot":"2","type":"t_string_storage"},{"astId":145,"contract":"Campaign.sol:Campaign","label":"imageURL","offset":0,"slot":"3","type":"t_string_storage"},{"astId":147,"contract":"Campaign.sol:Campaign","label":"financialAim","offset":0,"slot":"4","type":"t_uint256"},{"astId":149,"contract":"Campaign.sol:Campaign","label":"minimumContribution","offset":0,"slot":"5","type":"t_uint256"},{"astId":151,"contract":"Campaign.sol:Campaign","label":"requestsBalance","offset":0,"slot":"6","type":"t_uint256"},{"astId":155,"contract":"Campaign.sol:Campaign","label":"supporters","offset":0,"slot":"7","type":"t_mapping(t_address,t_bool)"},{"astId":158,"contract":"Campaign.sol:Campaign","label":"supportersAddresses","offset":0,"slot":"8","type":"t_array(t_address_payable)dyn_storage"},{"astId":162,"contract":"Campaign.sol:Campaign","label":"supporterContributionValues","offset":0,"slot":"9","type":"t_mapping(t_address,t_uint256)"},{"astId":164,"contract":"Campaign.sol:Campaign","label":"supportersCount","offset":0,"slot":"10","type":"t_uint256"},{"astId":181,"contract":"Campaign.sol:Campaign","label":"numRequests","offset":0,"slot":"11","type":"t_uint256"},{"astId":186,"contract":"Campaign.sol:Campaign","label":"requests","offset":0,"slot":"12","type":"t_mapping(t_uint256,t_struct(Request)179_storage)"}],"types":{"t_address":{"encoding":"inplace","label":"address","numberOfBytes":"20"},"t_address_payable":{"encoding":"inplace","label":"address payable","numberOfBytes":"20"},"t_array(t_address_payable)dyn_storage":{"base":"t_address_payable","encoding":"dynamic_array","label":"address payable[]","numberOfBytes":"32"},"t_bool":{"encoding":"inplace","label":"bool","numberOfBytes":"1"},"t_mapping(t_address,t_bool)":{"encoding":"mapping","key":"t_address","label":"mapping(address => bool)","numberOfBytes":"32","value":"t_bool"},"t_mapping(t_address,t_uint256)":{"encoding":"mapping","key":"t_address","label":"mapping(address => uint256)","numberOfBytes":"32","value":"t_uint256"},"t_mapping(t_uint256,t_struct(Request)179_storage)":{"encoding":"mapping","key":"t_uint256","label":"mapping(uint256 => struct Campaign.Request)","numberOfBytes":"32","value":"t_struct(Request)179_storage"},"t_string_storage":{"encoding":"bytes","label":"string","numberOfBytes":"32"},"t_struct(Request)179_storage":{"encoding":"inplace","label":"struct Campaign.Request","members":[{"astId":166,"contract":"Campaign.sol:Campaign","label":"description","offset":0,"slot":"0","type":"t_string_storage"},{"astId":168,"contract":"Campaign.sol:Campaign","label":"value","offset":0,"slot":"1","type":"t_uint256"},{"astId":170,"contract":"Campaign.sol:Campaign","label":"recipient","offset":0,"slot":"2","type":"t_address_payable"},{"astId":172,"contract":"Campaign.sol:Campaign","label":"complete","offset":20,"slot":"2","type":"t_bool"},{"astId":174,"contract":"Campaign.sol:Campaign","label":"approvalCount","offset":0,"slot":"3","type":"t_uint256"},{"astId":178,"contract":"Campaign.sol:Campaign","label":"approvals","offset":0,"slot":"4","type":"t_mapping(t_address,t_bool)"}],"numberOfBytes":"160"},"t_uint256":{"encoding":"inplace","label":"uint256","numberOfBytes":"32"}}},"userdoc":{"kind":"user","methods":{},"version":1}}