{"abi":[{"inputs":[{"internalType":"uint256","name":"minimum","type":"uint256"},{"internalType":"address","name":"creator","type":"address"},{"internalType":"string","name":"pName","type":"string"},{"internalType":"string","name":"pAim","type":"string"},{"internalType":"string","name":"imagePath","type":"string"},{"internalType":"uint256","name":"financialGoal","type":"uint256"}],"stateMutability":"nonpayable","type":"constructor"},{"inputs":[{"internalType":"uint256","name":"index","type":"uint256"}],"name":"approveRequest","outputs":[],"stateMutability":"nonpayable","type":"function"},{"inputs":[],"name":"contribute","outputs":[],"stateMutability":"payable","type":"function"},{"inputs":[{"internalType":"string","name":"description","type":"string"},{"internalType":"uint256","name":"value","type":"uint256"},{"internalType":"address payable","name":"recipient","type":"address"}],"name":"createRequest","outputs":[],"stateMutability":"nonpayable","type":"function"},{"inputs":[],"name":"deleteCampaign","outputs":[],"stateMutability":"payable","type":"function"},{"inputs":[{"internalType":"uint256","name":"index","type":"uint256"}],"name":"finalizeRequest","outputs":[],"stateMutability":"nonpayable","type":"function"},{"inputs":[],"name":"financialAim","outputs":[{"internalType":"uint256","name":"","type":"uint256"}],"stateMutability":"view","type":"function"},{"inputs":[],"name":"getSummary","outputs":[{"internalType":"uint256","name":"","type":"uint256"},{"internalType":"uint256","name":"","type":"uint256"},{"internalType":"uint256","name":"","type":"uint256"},{"internalType":"uint256","name":"","type":"uint256"},{"internalType":"address","name":"","type":"address"},{"internalType":"string","name":"","type":"string"},{"internalType":"string","name":"","type":"string"},{"internalType":"uint256","name":"","type":"uint256"},{"internalType":"string","name":"","type":"string"}],"stateMutability":"view","type":"function"},{"inputs":[],"name":"imageURL","outputs":[{"internalType":"string","name":"","type":"string"}],"stateMutability":"view","type":"function"},{"inputs":[{"internalType":"address","name":"account","type":"address"},{"internalType":"uint256","name":"index","type":"uint256"}],"name":"isApproved","outputs":[{"internalType":"bool","name":"","type":"bool"}],"stateMutability":"view","type":"function"},{"inputs":[],"name":"manager","outputs":[{"internalType":"address","name":"","type":"address"}],"stateMutability":"view","type":"function"},{"inputs":[],"name":"minimumContribution","outputs":[{"internalType":"uint256","name":"","type":"uint256"}],"stateMutability":"view","type":"function"},{"inputs":[],"name":"numRequests","outputs":[{"internalType":"uint256","name":"","type":"uint256"}],"stateMutability":"view","type":"function"},{"inputs":[],"name":"projectAim","outputs":[{"internalType":"string","name":"","type":"string"}],"stateMutability":"view","type":"function"},{"inputs":[],"name":"projectName","outputs":[{"internalType":"string","name":"","type":"string"}],"stateMutability":"view","type":"function"},{"inputs":[{"internalType":"uint256","name":"","type":"uint256"}],"name":"requests","outputs":[{"internalType":"string","name":"description","type":"string"},{"internalType":"uint256","name":"value","type":"uint256"},{"internalType":"address payable","name":"recipient","type":"address"},{"internalType":"bool","name":"complete","type":"bool"},{"internalType":"uint256","name":"approvalCount","type":"uint256"}],"stateMutability":"view","type":"function"},{"inputs":[{"internalType":"address","name":"","type":"address"}],"name":"supporterContributionValues","outputs":[{"internalType":"uint256","name":"","type":"uint256"}],"stateMutability":"view","type":"function"},{"inputs":[{"internalType":"address","name":"","type":"address"}],"name":"supporters","outputs":[{"internalType":"bool","name":"","type":"bool"}],"stateMutability":"view","type":"function"},{"inputs":[{"internalType":"uint256","name":"","type":"uint256"}],"name":"supportersAddresses","outputs":[{"internalType":"address payable","name":"","type":"address"}],"stateMutability":"view","type":"function"},{"inputs":[],"name":"supportersCount","outputs":[{"internalType":"uint256","name":"","type":"uint256"}],"stateMutability":"view","type":"function"}],"devdoc":{"kind":"dev","methods":{},"version":1},"evm":{"assembly":"    /* \"Campaign.sol\":1185:4535  contract Campaign {... */\n  mstore(0x40, 0x80)\n    /* \"Campaign.sol\":1874:2200  constructor(uint minimum, address creator, string memory pName, string memory pAim, string memory imagePath, uint financialGoal) {... */\n  callvalue\n  dup1\n  iszero\n  tag_1\n  jumpi\n  0x00\n  dup1\n  revert\ntag_1:\n  pop\n  mload(0x40)\n  sub(codesize, bytecodeSize)\n  dup1\n  bytecodeSize\n  dup4\n  codecopy\n  dup2\n  dup2\n  add\n  0x40\n  mstore\n  dup2\n  add\n  swap1\n  tag_2\n  swap2\n  swap1\n  tag_3\n  jump\t// in\ntag_2:\n    /* \"Campaign.sol\":2023:2030  creator */\n  dup5\n    /* \"Campaign.sol\":2013:2020  manager */\n  0x00\n  dup1\n    /* \"Campaign.sol\":2013:2030  manager = creator */\n  0x0100\n  exp\n  dup2\n  sload\n  dup2\n  0xffffffffffffffffffffffffffffffffffffffff\n  mul\n  not\n  and\n  swap1\n  dup4\n  0xffffffffffffffffffffffffffffffffffffffff\n  and\n  mul\n  or\n  swap1\n  sstore\n  pop\n    /* \"Campaign.sol\":2062:2069  minimum */\n  dup6\n    /* \"Campaign.sol\":2040:2059  minimumContribution */\n  0x05\n    /* \"Campaign.sol\":2040:2069  minimumContribution = minimum */\n  dup2\n  swap1\n  sstore\n  pop\n    /* \"Campaign.sol\":2093:2098  pName */\n  dup4\n    /* \"Campaign.sol\":2079:2090  projectName */\n  0x01\n    /* \"Campaign.sol\":2079:2098  projectName = pName */\n  swap1\n  dup1\n  mload\n  swap1\n  0x20\n  add\n  swap1\n  tag_6\n  swap3\n  swap2\n  swap1\n  tag_7\n  jump\t// in\ntag_6:\n  pop\n    /* \"Campaign.sol\":2121:2125  pAim */\n  dup3\n    /* \"Campaign.sol\":2108:2118  projectAim */\n  0x02\n    /* \"Campaign.sol\":2108:2125  projectAim = pAim */\n  swap1\n  dup1\n  mload\n  swap1\n  0x20\n  add\n  swap1\n  tag_8\n  swap3\n  swap2\n  swap1\n  tag_7\n  jump\t// in\ntag_8:\n  pop\n    /* \"Campaign.sol\":2150:2163  financialGoal */\n  dup1\n    /* \"Campaign.sol\":2135:2147  financialAim */\n  0x04\n    /* \"Campaign.sol\":2135:2163  financialAim = financialGoal */\n  dup2\n  swap1\n  sstore\n  pop\n    /* \"Campaign.sol\":2184:2193  imagePath */\n  dup2\n    /* \"Campaign.sol\":2173:2181  imageURL */\n  0x03\n    /* \"Campaign.sol\":2173:2193  imageURL = imagePath */\n  swap1\n  dup1\n  mload\n  swap1\n  0x20\n  add\n  swap1\n  tag_9\n  swap3\n  swap2\n  swap1\n  tag_7\n  jump\t// in\ntag_9:\n  pop\n    /* \"Campaign.sol\":1874:2200  constructor(uint minimum, address creator, string memory pName, string memory pAim, string memory imagePath, uint financialGoal) {... */\n  pop\n  pop\n  pop\n  pop\n  pop\n  pop\n    /* \"Campaign.sol\":1185:4535  contract Campaign {... */\n  jump(tag_10)\ntag_7:\n  dup3\n  dup1\n  sload\n  tag_11\n  swap1\n  tag_12\n  jump\t// in\ntag_11:\n  swap1\n  0x00\n  mstore\n  keccak256(0x00, 0x20)\n  swap1\n  0x1f\n  add\n  0x20\n  swap1\n  div\n  dup2\n  add\n  swap3\n  dup3\n  tag_14\n  jumpi\n  0x00\n  dup6\n  sstore\n  jump(tag_13)\ntag_14:\n  dup3\n  0x1f\n  lt\n  tag_15\n  jumpi\n  dup1\n  mload\n  not(0xff)\n  and\n  dup4\n  dup1\n  add\n  or\n  dup6\n  sstore\n  jump(tag_13)\ntag_15:\n  dup3\n  dup1\n  add\n  0x01\n  add\n  dup6\n  sstore\n  dup3\n  iszero\n  tag_13\n  jumpi\n  swap2\n  dup3\n  add\ntag_16:\n  dup3\n  dup2\n  gt\n  iszero\n  tag_17\n  jumpi\n  dup3\n  mload\n  dup3\n  sstore\n  swap2\n  0x20\n  add\n  swap2\n  swap1\n  0x01\n  add\n  swap1\n  jump(tag_16)\ntag_17:\ntag_13:\n  pop\n  swap1\n  pop\n  tag_18\n  swap2\n  swap1\n  tag_19\n  jump\t// in\ntag_18:\n  pop\n  swap1\n  jump\t// out\ntag_19:\ntag_20:\n  dup1\n  dup3\n  gt\n  iszero\n  tag_21\n  jumpi\n  0x00\n  dup2\n  0x00\n  swap1\n  sstore\n  pop\n  0x01\n  add\n  jump(tag_20)\ntag_21:\n  pop\n  swap1\n  jump\t// out\n    /* \"#utility.yul\":7:82   */\ntag_22:\n    /* \"#utility.yul\":40:46   */\n  0x00\n    /* \"#utility.yul\":73:75   */\n  0x40\n    /* \"#utility.yul\":67:76   */\n  mload\n    /* \"#utility.yul\":57:76   */\n  swap1\n  pop\n    /* \"#utility.yul\":7:82   */\n  swap1\n  jump\t// out\n    /* \"#utility.yul\":88:205   */\ntag_23:\n    /* \"#utility.yul\":197:198   */\n  0x00\n    /* \"#utility.yul\":194:195   */\n  dup1\n    /* \"#utility.yul\":187:199   */\n  revert\n    /* \"#utility.yul\":211:328   */\ntag_24:\n    /* \"#utility.yul\":320:321   */\n  0x00\n    /* \"#utility.yul\":317:318   */\n  dup1\n    /* \"#utility.yul\":310:322   */\n  revert\n    /* \"#utility.yul\":334:411   */\ntag_25:\n    /* \"#utility.yul\":371:378   */\n  0x00\n    /* \"#utility.yul\":400:405   */\n  dup2\n    /* \"#utility.yul\":389:405   */\n  swap1\n  pop\n    /* \"#utility.yul\":334:411   */\n  swap2\n  swap1\n  pop\n  jump\t// out\n    /* \"#utility.yul\":417:539   */\ntag_26:\n    /* \"#utility.yul\":490:514   */\n  tag_49\n    /* \"#utility.yul\":508:513   */\n  dup2\n    /* \"#utility.yul\":490:514   */\n  tag_25\n  jump\t// in\ntag_49:\n    /* \"#utility.yul\":483:488   */\n  dup2\n    /* \"#utility.yul\":480:515   */\n  eq\n    /* \"#utility.yul\":470:533   */\n  tag_50\n  jumpi\n    /* \"#utility.yul\":529:530   */\n  0x00\n    /* \"#utility.yul\":526:527   */\n  dup1\n    /* \"#utility.yul\":519:531   */\n  revert\n    /* \"#utility.yul\":470:533   */\ntag_50:\n    /* \"#utility.yul\":417:539   */\n  pop\n  jump\t// out\n    /* \"#utility.yul\":545:688   */\ntag_27:\n    /* \"#utility.yul\":602:607   */\n  0x00\n    /* \"#utility.yul\":633:639   */\n  dup2\n    /* \"#utility.yul\":627:640   */\n  mload\n    /* \"#utility.yul\":618:640   */\n  swap1\n  pop\n    /* \"#utility.yul\":649:682   */\n  tag_52\n    /* \"#utility.yul\":676:681   */\n  dup2\n    /* \"#utility.yul\":649:682   */\n  tag_26\n  jump\t// in\ntag_52:\n    /* \"#utility.yul\":545:688   */\n  swap3\n  swap2\n  pop\n  pop\n  jump\t// out\n    /* \"#utility.yul\":694:820   */\ntag_28:\n    /* \"#utility.yul\":731:738   */\n  0x00\n    /* \"#utility.yul\":771:813   */\n  0xffffffffffffffffffffffffffffffffffffffff\n    /* \"#utility.yul\":764:769   */\n  dup3\n    /* \"#utility.yul\":760:814   */\n  and\n    /* \"#utility.yul\":749:814   */\n  swap1\n  pop\n    /* \"#utility.yul\":694:820   */\n  swap2\n  swap1\n  pop\n  jump\t// out\n    /* \"#utility.yul\":826:922   */\ntag_29:\n    /* \"#utility.yul\":863:870   */\n  0x00\n    /* \"#utility.yul\":892:916   */\n  tag_55\n    /* \"#utility.yul\":910:915   */\n  dup3\n    /* \"#utility.yul\":892:916   */\n  tag_28\n  jump\t// in\ntag_55:\n    /* \"#utility.yul\":881:916   */\n  swap1\n  pop\n    /* \"#utility.yul\":826:922   */\n  swap2\n  swap1\n  pop\n  jump\t// out\n    /* \"#utility.yul\":928:1050   */\ntag_30:\n    /* \"#utility.yul\":1001:1025   */\n  tag_57\n    /* \"#utility.yul\":1019:1024   */\n  dup2\n    /* \"#utility.yul\":1001:1025   */\n  tag_29\n  jump\t// in\ntag_57:\n    /* \"#utility.yul\":994:999   */\n  dup2\n    /* \"#utility.yul\":991:1026   */\n  eq\n    /* \"#utility.yul\":981:1044   */\n  tag_58\n  jumpi\n    /* \"#utility.yul\":1040:1041   */\n  0x00\n    /* \"#utility.yul\":1037:1038   */\n  dup1\n    /* \"#utility.yul\":1030:1042   */\n  revert\n    /* \"#utility.yul\":981:1044   */\ntag_58:\n    /* \"#utility.yul\":928:1050   */\n  pop\n  jump\t// out\n    /* \"#utility.yul\":1056:1199   */\ntag_31:\n    /* \"#utility.yul\":1113:1118   */\n  0x00\n    /* \"#utility.yul\":1144:1150   */\n  dup2\n    /* \"#utility.yul\":1138:1151   */\n  mload\n    /* \"#utility.yul\":1129:1151   */\n  swap1\n  pop\n    /* \"#utility.yul\":1160:1193   */\n  tag_60\n    /* \"#utility.yul\":1187:1192   */\n  dup2\n    /* \"#utility.yul\":1160:1193   */\n  tag_30\n  jump\t// in\ntag_60:\n    /* \"#utility.yul\":1056:1199   */\n  swap3\n  swap2\n  pop\n  pop\n  jump\t// out\n    /* \"#utility.yul\":1205:1322   */\ntag_32:\n    /* \"#utility.yul\":1314:1315   */\n  0x00\n    /* \"#utility.yul\":1311:1312   */\n  dup1\n    /* \"#utility.yul\":1304:1316   */\n  revert\n    /* \"#utility.yul\":1328:1445   */\ntag_33:\n    /* \"#utility.yul\":1437:1438   */\n  0x00\n    /* \"#utility.yul\":1434:1435   */\n  dup1\n    /* \"#utility.yul\":1427:1439   */\n  revert\n    /* \"#utility.yul\":1451:1553   */\ntag_34:\n    /* \"#utility.yul\":1492:1498   */\n  0x00\n    /* \"#utility.yul\":1543:1545   */\n  0x1f\n    /* \"#utility.yul\":1539:1546   */\n  not\n    /* \"#utility.yul\":1534:1536   */\n  0x1f\n    /* \"#utility.yul\":1527:1532   */\n  dup4\n    /* \"#utility.yul\":1523:1537   */\n  add\n    /* \"#utility.yul\":1519:1547   */\n  and\n    /* \"#utility.yul\":1509:1547   */\n  swap1\n  pop\n    /* \"#utility.yul\":1451:1553   */\n  swap2\n  swap1\n  pop\n  jump\t// out\n    /* \"#utility.yul\":1559:1739   */\ntag_35:\n    /* \"#utility.yul\":1607:1684   */\n  0x4e487b7100000000000000000000000000000000000000000000000000000000\n    /* \"#utility.yul\":1604:1605   */\n  0x00\n    /* \"#utility.yul\":1597:1685   */\n  mstore\n    /* \"#utility.yul\":1704:1708   */\n  0x41\n    /* \"#utility.yul\":1701:1702   */\n  0x04\n    /* \"#utility.yul\":1694:1709   */\n  mstore\n    /* \"#utility.yul\":1728:1732   */\n  0x24\n    /* \"#utility.yul\":1725:1726   */\n  0x00\n    /* \"#utility.yul\":1718:1733   */\n  revert\n    /* \"#utility.yul\":1745:2026   */\ntag_36:\n    /* \"#utility.yul\":1828:1855   */\n  tag_66\n    /* \"#utility.yul\":1850:1854   */\n  dup3\n    /* \"#utility.yul\":1828:1855   */\n  tag_34\n  jump\t// in\ntag_66:\n    /* \"#utility.yul\":1820:1826   */\n  dup2\n    /* \"#utility.yul\":1816:1856   */\n  add\n    /* \"#utility.yul\":1958:1964   */\n  dup2\n    /* \"#utility.yul\":1946:1956   */\n  dup2\n    /* \"#utility.yul\":1943:1965   */\n  lt\n    /* \"#utility.yul\":1922:1940   */\n  0xffffffffffffffff\n    /* \"#utility.yul\":1910:1920   */\n  dup3\n    /* \"#utility.yul\":1907:1941   */\n  gt\n    /* \"#utility.yul\":1904:1966   */\n  or\n    /* \"#utility.yul\":1901:1989   */\n  iszero\n  tag_67\n  jumpi\n    /* \"#utility.yul\":1969:1987   */\n  tag_68\n  tag_35\n  jump\t// in\ntag_68:\n    /* \"#utility.yul\":1901:1989   */\ntag_67:\n    /* \"#utility.yul\":2009:2019   */\n  dup1\n    /* \"#utility.yul\":2005:2007   */\n  0x40\n    /* \"#utility.yul\":1998:2020   */\n  mstore\n    /* \"#utility.yul\":1788:2026   */\n  pop\n    /* \"#utility.yul\":1745:2026   */\n  pop\n  pop\n  jump\t// out\n    /* \"#utility.yul\":2032:2161   */\ntag_37:\n    /* \"#utility.yul\":2066:2072   */\n  0x00\n    /* \"#utility.yul\":2093:2113   */\n  tag_70\n  tag_22\n  jump\t// in\ntag_70:\n    /* \"#utility.yul\":2083:2113   */\n  swap1\n  pop\n    /* \"#utility.yul\":2122:2155   */\n  tag_71\n    /* \"#utility.yul\":2150:2154   */\n  dup3\n    /* \"#utility.yul\":2142:2148   */\n  dup3\n    /* \"#utility.yul\":2122:2155   */\n  tag_36\n  jump\t// in\ntag_71:\n    /* \"#utility.yul\":2032:2161   */\n  swap2\n  swap1\n  pop\n  jump\t// out\n    /* \"#utility.yul\":2167:2475   */\ntag_38:\n    /* \"#utility.yul\":2229:2233   */\n  0x00\n    /* \"#utility.yul\":2319:2337   */\n  0xffffffffffffffff\n    /* \"#utility.yul\":2311:2317   */\n  dup3\n    /* \"#utility.yul\":2308:2338   */\n  gt\n    /* \"#utility.yul\":2305:2361   */\n  iszero\n  tag_73\n  jumpi\n    /* \"#utility.yul\":2341:2359   */\n  tag_74\n  tag_35\n  jump\t// in\ntag_74:\n    /* \"#utility.yul\":2305:2361   */\ntag_73:\n    /* \"#utility.yul\":2379:2408   */\n  tag_75\n    /* \"#utility.yul\":2401:2407   */\n  dup3\n    /* \"#utility.yul\":2379:2408   */\n  tag_34\n  jump\t// in\ntag_75:\n    /* \"#utility.yul\":2371:2408   */\n  swap1\n  pop\n    /* \"#utility.yul\":2463:2467   */\n  0x20\n    /* \"#utility.yul\":2457:2461   */\n  dup2\n    /* \"#utility.yul\":2453:2468   */\n  add\n    /* \"#utility.yul\":2445:2468   */\n  swap1\n  pop\n    /* \"#utility.yul\":2167:2475   */\n  swap2\n  swap1\n  pop\n  jump\t// out\n    /* \"#utility.yul\":2481:2788   */\ntag_39:\n    /* \"#utility.yul\":2549:2550   */\n  0x00\n    /* \"#utility.yul\":2559:2672   */\ntag_77:\n    /* \"#utility.yul\":2573:2579   */\n  dup4\n    /* \"#utility.yul\":2570:2571   */\n  dup2\n    /* \"#utility.yul\":2567:2580   */\n  lt\n    /* \"#utility.yul\":2559:2672   */\n  iszero\n  tag_79\n  jumpi\n    /* \"#utility.yul\":2658:2659   */\n  dup1\n    /* \"#utility.yul\":2653:2656   */\n  dup3\n    /* \"#utility.yul\":2649:2660   */\n  add\n    /* \"#utility.yul\":2643:2661   */\n  mload\n    /* \"#utility.yul\":2639:2640   */\n  dup2\n    /* \"#utility.yul\":2634:2637   */\n  dup5\n    /* \"#utility.yul\":2630:2641   */\n  add\n    /* \"#utility.yul\":2623:2662   */\n  mstore\n    /* \"#utility.yul\":2595:2597   */\n  0x20\n    /* \"#utility.yul\":2592:2593   */\n  dup2\n    /* \"#utility.yul\":2588:2598   */\n  add\n    /* \"#utility.yul\":2583:2598   */\n  swap1\n  pop\n    /* \"#utility.yul\":2559:2672   */\n  jump(tag_77)\ntag_79:\n    /* \"#utility.yul\":2690:2696   */\n  dup4\n    /* \"#utility.yul\":2687:2688   */\n  dup2\n    /* \"#utility.yul\":2684:2697   */\n  gt\n    /* \"#utility.yul\":2681:2782   */\n  iszero\n  tag_80\n  jumpi\n    /* \"#utility.yul\":2770:2771   */\n  0x00\n    /* \"#utility.yul\":2761:2767   */\n  dup5\n    /* \"#utility.yul\":2756:2759   */\n  dup5\n    /* \"#utility.yul\":2752:2768   */\n  add\n    /* \"#utility.yul\":2745:2772   */\n  mstore\n    /* \"#utility.yul\":2681:2782   */\ntag_80:\n    /* \"#utility.yul\":2530:2788   */\n  pop\n    /* \"#utility.yul\":2481:2788   */\n  pop\n  pop\n  pop\n  jump\t// out\n    /* \"#utility.yul\":2794:3215   */\ntag_40:\n    /* \"#utility.yul\":2883:2888   */\n  0x00\n    /* \"#utility.yul\":2908:2974   */\n  tag_82\n    /* \"#utility.yul\":2924:2973   */\n  tag_83\n    /* \"#utility.yul\":2966:2972   */\n  dup5\n    /* \"#utility.yul\":2924:2973   */\n  tag_38\n  jump\t// in\ntag_83:\n    /* \"#utility.yul\":2908:2974   */\n  tag_37\n  jump\t// in\ntag_82:\n    /* \"#utility.yul\":2899:2974   */\n  swap1\n  pop\n    /* \"#utility.yul\":2997:3003   */\n  dup3\n    /* \"#utility.yul\":2990:2995   */\n  dup2\n    /* \"#utility.yul\":2983:3004   */\n  mstore\n    /* \"#utility.yul\":3035:3039   */\n  0x20\n    /* \"#utility.yul\":3028:3033   */\n  dup2\n    /* \"#utility.yul\":3024:3040   */\n  add\n    /* \"#utility.yul\":3073:3076   */\n  dup5\n    /* \"#utility.yul\":3064:3070   */\n  dup5\n    /* \"#utility.yul\":3059:3062   */\n  dup5\n    /* \"#utility.yul\":3055:3071   */\n  add\n    /* \"#utility.yul\":3052:3077   */\n  gt\n    /* \"#utility.yul\":3049:3161   */\n  iszero\n  tag_84\n  jumpi\n    /* \"#utility.yul\":3080:3159   */\n  tag_85\n  tag_33\n  jump\t// in\ntag_85:\n    /* \"#utility.yul\":3049:3161   */\ntag_84:\n    /* \"#utility.yul\":3170:3209   */\n  tag_86\n    /* \"#utility.yul\":3202:3208   */\n  dup5\n    /* \"#utility.yul\":3197:3200   */\n  dup3\n    /* \"#utility.yul\":3192:3195   */\n  dup6\n    /* \"#utility.yul\":3170:3209   */\n  tag_39\n  jump\t// in\ntag_86:\n    /* \"#utility.yul\":2889:3215   */\n  pop\n    /* \"#utility.yul\":2794:3215   */\n  swap4\n  swap3\n  pop\n  pop\n  pop\n  jump\t// out\n    /* \"#utility.yul\":3235:3590   */\ntag_41:\n    /* \"#utility.yul\":3302:3307   */\n  0x00\n    /* \"#utility.yul\":3351:3354   */\n  dup3\n    /* \"#utility.yul\":3344:3348   */\n  0x1f\n    /* \"#utility.yul\":3336:3342   */\n  dup4\n    /* \"#utility.yul\":3332:3349   */\n  add\n    /* \"#utility.yul\":3328:3355   */\n  slt\n    /* \"#utility.yul\":3318:3440   */\n  tag_88\n  jumpi\n    /* \"#utility.yul\":3359:3438   */\n  tag_89\n  tag_32\n  jump\t// in\ntag_89:\n    /* \"#utility.yul\":3318:3440   */\ntag_88:\n    /* \"#utility.yul\":3469:3475   */\n  dup2\n    /* \"#utility.yul\":3463:3476   */\n  mload\n    /* \"#utility.yul\":3494:3584   */\n  tag_90\n    /* \"#utility.yul\":3580:3583   */\n  dup5\n    /* \"#utility.yul\":3572:3578   */\n  dup3\n    /* \"#utility.yul\":3565:3569   */\n  0x20\n    /* \"#utility.yul\":3557:3563   */\n  dup7\n    /* \"#utility.yul\":3553:3570   */\n  add\n    /* \"#utility.yul\":3494:3584   */\n  tag_40\n  jump\t// in\ntag_90:\n    /* \"#utility.yul\":3485:3584   */\n  swap2\n  pop\n    /* \"#utility.yul\":3308:3590   */\n  pop\n    /* \"#utility.yul\":3235:3590   */\n  swap3\n  swap2\n  pop\n  pop\n  jump\t// out\n    /* \"#utility.yul\":3596:5249   */\ntag_3:\n    /* \"#utility.yul\":3741:3747   */\n  0x00\n    /* \"#utility.yul\":3749:3755   */\n  dup1\n    /* \"#utility.yul\":3757:3763   */\n  0x00\n    /* \"#utility.yul\":3765:3771   */\n  dup1\n    /* \"#utility.yul\":3773:3779   */\n  0x00\n    /* \"#utility.yul\":3781:3787   */\n  dup1\n    /* \"#utility.yul\":3830:3833   */\n  0xc0\n    /* \"#utility.yul\":3818:3827   */\n  dup8\n    /* \"#utility.yul\":3809:3816   */\n  dup10\n    /* \"#utility.yul\":3805:3828   */\n  sub\n    /* \"#utility.yul\":3801:3834   */\n  slt\n    /* \"#utility.yul\":3798:3918   */\n  iszero\n  tag_92\n  jumpi\n    /* \"#utility.yul\":3837:3916   */\n  tag_93\n  tag_23\n  jump\t// in\ntag_93:\n    /* \"#utility.yul\":3798:3918   */\ntag_92:\n    /* \"#utility.yul\":3957:3958   */\n  0x00\n    /* \"#utility.yul\":3982:4046   */\n  tag_94\n    /* \"#utility.yul\":4038:4045   */\n  dup10\n    /* \"#utility.yul\":4029:4035   */\n  dup3\n    /* \"#utility.yul\":4018:4027   */\n  dup11\n    /* \"#utility.yul\":4014:4036   */\n  add\n    /* \"#utility.yul\":3982:4046   */\n  tag_27\n  jump\t// in\ntag_94:\n    /* \"#utility.yul\":3972:4046   */\n  swap7\n  pop\n    /* \"#utility.yul\":3928:4056   */\n  pop\n    /* \"#utility.yul\":4095:4097   */\n  0x20\n    /* \"#utility.yul\":4121:4185   */\n  tag_95\n    /* \"#utility.yul\":4177:4184   */\n  dup10\n    /* \"#utility.yul\":4168:4174   */\n  dup3\n    /* \"#utility.yul\":4157:4166   */\n  dup11\n    /* \"#utility.yul\":4153:4175   */\n  add\n    /* \"#utility.yul\":4121:4185   */\n  tag_31\n  jump\t// in\ntag_95:\n    /* \"#utility.yul\":4111:4185   */\n  swap6\n  pop\n    /* \"#utility.yul\":4066:4195   */\n  pop\n    /* \"#utility.yul\":4255:4257   */\n  0x40\n    /* \"#utility.yul\":4244:4253   */\n  dup8\n    /* \"#utility.yul\":4240:4258   */\n  add\n    /* \"#utility.yul\":4234:4259   */\n  mload\n    /* \"#utility.yul\":4286:4304   */\n  0xffffffffffffffff\n    /* \"#utility.yul\":4278:4284   */\n  dup2\n    /* \"#utility.yul\":4275:4305   */\n  gt\n    /* \"#utility.yul\":4272:4389   */\n  iszero\n  tag_96\n  jumpi\n    /* \"#utility.yul\":4308:4387   */\n  tag_97\n  tag_24\n  jump\t// in\ntag_97:\n    /* \"#utility.yul\":4272:4389   */\ntag_96:\n    /* \"#utility.yul\":4413:4487   */\n  tag_98\n    /* \"#utility.yul\":4479:4486   */\n  dup10\n    /* \"#utility.yul\":4470:4476   */\n  dup3\n    /* \"#utility.yul\":4459:4468   */\n  dup11\n    /* \"#utility.yul\":4455:4477   */\n  add\n    /* \"#utility.yul\":4413:4487   */\n  tag_41\n  jump\t// in\ntag_98:\n    /* \"#utility.yul\":4403:4487   */\n  swap5\n  pop\n    /* \"#utility.yul\":4205:4497   */\n  pop\n    /* \"#utility.yul\":4557:4559   */\n  0x60\n    /* \"#utility.yul\":4546:4555   */\n  dup8\n    /* \"#utility.yul\":4542:4560   */\n  add\n    /* \"#utility.yul\":4536:4561   */\n  mload\n    /* \"#utility.yul\":4588:4606   */\n  0xffffffffffffffff\n    /* \"#utility.yul\":4580:4586   */\n  dup2\n    /* \"#utility.yul\":4577:4607   */\n  gt\n    /* \"#utility.yul\":4574:4691   */\n  iszero\n  tag_99\n  jumpi\n    /* \"#utility.yul\":4610:4689   */\n  tag_100\n  tag_24\n  jump\t// in\ntag_100:\n    /* \"#utility.yul\":4574:4691   */\ntag_99:\n    /* \"#utility.yul\":4715:4789   */\n  tag_101\n    /* \"#utility.yul\":4781:4788   */\n  dup10\n    /* \"#utility.yul\":4772:4778   */\n  dup3\n    /* \"#utility.yul\":4761:4770   */\n  dup11\n    /* \"#utility.yul\":4757:4779   */\n  add\n    /* \"#utility.yul\":4715:4789   */\n  tag_41\n  jump\t// in\ntag_101:\n    /* \"#utility.yul\":4705:4789   */\n  swap4\n  pop\n    /* \"#utility.yul\":4507:4799   */\n  pop\n    /* \"#utility.yul\":4859:4862   */\n  0x80\n    /* \"#utility.yul\":4848:4857   */\n  dup8\n    /* \"#utility.yul\":4844:4863   */\n  add\n    /* \"#utility.yul\":4838:4864   */\n  mload\n    /* \"#utility.yul\":4891:4909   */\n  0xffffffffffffffff\n    /* \"#utility.yul\":4883:4889   */\n  dup2\n    /* \"#utility.yul\":4880:4910   */\n  gt\n    /* \"#utility.yul\":4877:4994   */\n  iszero\n  tag_102\n  jumpi\n    /* \"#utility.yul\":4913:4992   */\n  tag_103\n  tag_24\n  jump\t// in\ntag_103:\n    /* \"#utility.yul\":4877:4994   */\ntag_102:\n    /* \"#utility.yul\":5018:5092   */\n  tag_104\n    /* \"#utility.yul\":5084:5091   */\n  dup10\n    /* \"#utility.yul\":5075:5081   */\n  dup3\n    /* \"#utility.yul\":5064:5073   */\n  dup11\n    /* \"#utility.yul\":5060:5082   */\n  add\n    /* \"#utility.yul\":5018:5092   */\n  tag_41\n  jump\t// in\ntag_104:\n    /* \"#utility.yul\":5008:5092   */\n  swap3\n  pop\n    /* \"#utility.yul\":4809:5102   */\n  pop\n    /* \"#utility.yul\":5141:5144   */\n  0xa0\n    /* \"#utility.yul\":5168:5232   */\n  tag_105\n    /* \"#utility.yul\":5224:5231   */\n  dup10\n    /* \"#utility.yul\":5215:5221   */\n  dup3\n    /* \"#utility.yul\":5204:5213   */\n  dup11\n    /* \"#utility.yul\":5200:5222   */\n  add\n    /* \"#utility.yul\":5168:5232   */\n  tag_27\n  jump\t// in\ntag_105:\n    /* \"#utility.yul\":5158:5232   */\n  swap2\n  pop\n    /* \"#utility.yul\":5112:5242   */\n  pop\n    /* \"#utility.yul\":3596:5249   */\n  swap3\n  swap6\n  pop\n  swap3\n  swap6\n  pop\n  swap3\n  swap6\n  jump\t// out\n    /* \"#utility.yul\":5255:5435   */\ntag_42:\n    /* \"#utility.yul\":5303:5380   */\n  0x4e487b7100000000000000000000000000000000000000000000000000000000\n    /* \"#utility.yul\":5300:5301   */\n  0x00\n    /* \"#utility.yul\":5293:5381   */\n  mstore\n    /* \"#utility.yul\":5400:5404   */\n  0x22\n    /* \"#utility.yul\":5397:5398   */\n  0x04\n    /* \"#utility.yul\":5390:5405   */\n  mstore\n    /* \"#utility.yul\":5424:5428   */\n  0x24\n    /* \"#utility.yul\":5421:5422   */\n  0x00\n    /* \"#utility.yul\":5414:5429   */\n  revert\n    /* \"#utility.yul\":5441:5761   */\ntag_12:\n    /* \"#utility.yul\":5485:5491   */\n  0x00\n    /* \"#utility.yul\":5522:5523   */\n  0x02\n    /* \"#utility.yul\":5516:5520   */\n  dup3\n    /* \"#utility.yul\":5512:5524   */\n  div\n    /* \"#utility.yul\":5502:5524   */\n  swap1\n  pop\n    /* \"#utility.yul\":5569:5570   */\n  0x01\n    /* \"#utility.yul\":5563:5567   */\n  dup3\n    /* \"#utility.yul\":5559:5571   */\n  and\n    /* \"#utility.yul\":5590:5608   */\n  dup1\n    /* \"#utility.yul\":5580:5661   */\n  tag_108\n  jumpi\n    /* \"#utility.yul\":5646:5650   */\n  0x7f\n    /* \"#utility.yul\":5638:5644   */\n  dup3\n    /* \"#utility.yul\":5634:5651   */\n  and\n    /* \"#utility.yul\":5624:5651   */\n  swap2\n  pop\n    /* \"#utility.yul\":5580:5661   */\ntag_108:\n    /* \"#utility.yul\":5708:5710   */\n  0x20\n    /* \"#utility.yul\":5700:5706   */\n  dup3\n    /* \"#utility.yul\":5697:5711   */\n  lt\n    /* \"#utility.yul\":5677:5695   */\n  dup2\n    /* \"#utility.yul\":5674:5712   */\n  eq\n    /* \"#utility.yul\":5671:5755   */\n  iszero\n  tag_109\n  jumpi\n    /* \"#utility.yul\":5727:5745   */\n  tag_110\n  tag_42\n  jump\t// in\ntag_110:\n    /* \"#utility.yul\":5671:5755   */\ntag_109:\n    /* \"#utility.yul\":5492:5761   */\n  pop\n    /* \"#utility.yul\":5441:5761   */\n  swap2\n  swap1\n  pop\n  jump\t// out\n    /* \"Campaign.sol\":1185:4535  contract Campaign {... */\ntag_10:\n  dataSize(sub_0)\n  dup1\n  dataOffset(sub_0)\n  0x00\n  codecopy\n  0x00\n  return\nstop\n\nsub_0: assembly {\n        /* \"Campaign.sol\":1185:4535  contract Campaign {... */\n      mstore(0x40, 0x80)\n      jumpi(tag_1, lt(calldatasize, 0x04))\n      shr(0xe0, calldataload(0x00))\n      dup1\n      0x81d12c58\n      gt\n      tag_21\n      jumpi\n      dup1\n      0xb90497e0\n      gt\n      tag_22\n      jumpi\n      dup1\n      0xb90497e0\n      eq\n      tag_16\n      jumpi\n      dup1\n      0xd3087b57\n      eq\n      tag_17\n      jumpi\n      dup1\n      0xd7bb99ba\n      eq\n      tag_18\n      jumpi\n      dup1\n      0xd7d1bbdb\n      eq\n      tag_19\n      jumpi\n      dup1\n      0xeb7b1312\n      eq\n      tag_20\n      jumpi\n      jump(tag_1)\n    tag_22:\n      dup1\n      0x81d12c58\n      eq\n      tag_11\n      jumpi\n      dup1\n      0x8a9cfd55\n      eq\n      tag_12\n      jumpi\n      dup1\n      0x937e09b1\n      eq\n      tag_13\n      jumpi\n      dup1\n      0x9a33e300\n      eq\n      tag_14\n      jumpi\n      dup1\n      0x9fb42b1f\n      eq\n      tag_15\n      jumpi\n      jump(tag_1)\n    tag_21:\n      dup1\n      0x4051ddac\n      gt\n      tag_23\n      jumpi\n      dup1\n      0x4051ddac\n      eq\n      tag_6\n      jumpi\n      dup1\n      0x481c6a75\n      eq\n      tag_7\n      jumpi\n      dup1\n      0x4d80e709\n      eq\n      tag_8\n      jumpi\n      dup1\n      0x647c75e2\n      eq\n      tag_9\n      jumpi\n      dup1\n      0x70035047\n      eq\n      tag_10\n      jumpi\n      jump(tag_1)\n    tag_23:\n      dup1\n      0x03441006\n      eq\n      tag_2\n      jumpi\n      dup1\n      0x244c3c2c\n      eq\n      tag_3\n      jumpi\n      dup1\n      0x2a16cca4\n      eq\n      tag_4\n      jumpi\n      dup1\n      0x2c5cac63\n      eq\n      tag_5\n      jumpi\n    tag_1:\n      0x00\n      dup1\n      revert\n        /* \"Campaign.sol\":3818:4122  function finalizeRequest(uint index) public restricted {... */\n    tag_2:\n      callvalue\n      dup1\n      iszero\n      tag_24\n      jumpi\n      0x00\n      dup1\n      revert\n    tag_24:\n      pop\n      tag_25\n      0x04\n      dup1\n      calldatasize\n      sub\n      dup2\n      add\n      swap1\n      tag_26\n      swap2\n      swap1\n      tag_27\n      jump\t// in\n    tag_26:\n      tag_28\n      jump\t// in\n    tag_25:\n      stop\n        /* \"Campaign.sol\":2636:2928  function deleteCampaign() public payable  {... */\n    tag_3:\n      tag_29\n      tag_30\n      jump\t// in\n    tag_29:\n      stop\n        /* \"Campaign.sol\":3627:3803  function isApproved(address account, uint index) public view returns(bool) {... */\n    tag_4:\n      callvalue\n      dup1\n      iszero\n      tag_31\n      jumpi\n      0x00\n      dup1\n      revert\n    tag_31:\n      pop\n      tag_32\n      0x04\n      dup1\n      calldatasize\n      sub\n      dup2\n      add\n      swap1\n      tag_33\n      swap2\n      swap1\n      tag_34\n      jump\t// in\n    tag_33:\n      tag_35\n      jump\t// in\n    tag_32:\n      mload(0x40)\n      tag_36\n      swap2\n      swap1\n      tag_37\n      jump\t// in\n    tag_36:\n      mload(0x40)\n      dup1\n      swap2\n      sub\n      swap1\n      return\n        /* \"Campaign.sol\":1492:1551  mapping(address => uint) public supporterContributionValues */\n    tag_5:\n      callvalue\n      dup1\n      iszero\n      tag_38\n      jumpi\n      0x00\n      dup1\n      revert\n    tag_38:\n      pop\n      tag_39\n      0x04\n      dup1\n      calldatasize\n      sub\n      dup2\n      add\n      swap1\n      tag_40\n      swap2\n      swap1\n      tag_41\n      jump\t// in\n    tag_40:\n      tag_42\n      jump\t// in\n    tag_39:\n      mload(0x40)\n      tag_43\n      swap2\n      swap1\n      tag_44\n      jump\t// in\n    tag_43:\n      mload(0x40)\n      dup1\n      swap2\n      sub\n      swap1\n      return\n        /* \"Campaign.sol\":4129:4528  function getSummary() public view returns (... */\n    tag_6:\n      callvalue\n      dup1\n      iszero\n      tag_45\n      jumpi\n      0x00\n      dup1\n      revert\n    tag_45:\n      pop\n      tag_46\n      tag_47\n      jump\t// in\n    tag_46:\n      mload(0x40)\n      tag_48\n      swap10\n      swap9\n      swap8\n      swap7\n      swap6\n      swap5\n      swap4\n      swap3\n      swap2\n      swap1\n      tag_49\n      jump\t// in\n    tag_48:\n      mload(0x40)\n      dup1\n      swap2\n      sub\n      swap1\n      return\n        /* \"Campaign.sol\":1209:1231  address public manager */\n    tag_7:\n      callvalue\n      dup1\n      iszero\n      tag_50\n      jumpi\n      0x00\n      dup1\n      revert\n    tag_50:\n      pop\n      tag_51\n      tag_52\n      jump\t// in\n    tag_51:\n      mload(0x40)\n      tag_53\n      swap2\n      swap1\n      tag_54\n      jump\t// in\n    tag_53:\n      mload(0x40)\n      dup1\n      swap2\n      sub\n      swap1\n      return\n        /* \"Campaign.sol\":1441:1486  address payable[] public  supportersAddresses */\n    tag_8:\n      callvalue\n      dup1\n      iszero\n      tag_55\n      jumpi\n      0x00\n      dup1\n      revert\n    tag_55:\n      pop\n      tag_56\n      0x04\n      dup1\n      calldatasize\n      sub\n      dup2\n      add\n      swap1\n      tag_57\n      swap2\n      swap1\n      tag_27\n      jump\t// in\n    tag_57:\n      tag_58\n      jump\t// in\n    tag_56:\n      mload(0x40)\n      tag_59\n      swap2\n      swap1\n      tag_60\n      jump\t// in\n    tag_59:\n      mload(0x40)\n      dup1\n      swap2\n      sub\n      swap1\n      return\n        /* \"Campaign.sol\":1393:1435  mapping(address => bool) public supporters */\n    tag_9:\n      callvalue\n      dup1\n      iszero\n      tag_61\n      jumpi\n      0x00\n      dup1\n      revert\n    tag_61:\n      pop\n      tag_62\n      0x04\n      dup1\n      calldatasize\n      sub\n      dup2\n      add\n      swap1\n      tag_63\n      swap2\n      swap1\n      tag_41\n      jump\t// in\n    tag_63:\n      tag_64\n      jump\t// in\n    tag_62:\n      mload(0x40)\n      tag_65\n      swap2\n      swap1\n      tag_37\n      jump\t// in\n    tag_65:\n      mload(0x40)\n      dup1\n      swap2\n      sub\n      swap1\n      return\n        /* \"Campaign.sol\":1326:1350  uint public financialAim */\n    tag_10:\n      callvalue\n      dup1\n      iszero\n      tag_66\n      jumpi\n      0x00\n      dup1\n      revert\n    tag_66:\n      pop\n      tag_67\n      tag_68\n      jump\t// in\n    tag_67:\n      mload(0x40)\n      tag_69\n      swap2\n      swap1\n      tag_44\n      jump\t// in\n    tag_69:\n      mload(0x40)\n      dup1\n      swap2\n      sub\n      swap1\n      return\n        /* \"Campaign.sol\":1824:1865  mapping (uint => Request) public requests */\n    tag_11:\n      callvalue\n      dup1\n      iszero\n      tag_70\n      jumpi\n      0x00\n      dup1\n      revert\n    tag_70:\n      pop\n      tag_71\n      0x04\n      dup1\n      calldatasize\n      sub\n      dup2\n      add\n      swap1\n      tag_72\n      swap2\n      swap1\n      tag_27\n      jump\t// in\n    tag_72:\n      tag_73\n      jump\t// in\n    tag_71:\n      mload(0x40)\n      tag_74\n      swap6\n      swap5\n      swap4\n      swap3\n      swap2\n      swap1\n      tag_75\n      jump\t// in\n    tag_74:\n      mload(0x40)\n      dup1\n      swap2\n      sub\n      swap1\n      return\n        /* \"Campaign.sol\":2943:3310  function createRequest(string memory description, uint value, address payable recipient)... */\n    tag_12:\n      callvalue\n      dup1\n      iszero\n      tag_76\n      jumpi\n      0x00\n      dup1\n      revert\n    tag_76:\n      pop\n      tag_77\n      0x04\n      dup1\n      calldatasize\n      sub\n      dup2\n      add\n      swap1\n      tag_78\n      swap2\n      swap1\n      tag_79\n      jump\t// in\n    tag_78:\n      tag_80\n      jump\t// in\n    tag_77:\n      stop\n        /* \"Campaign.sol\":1356:1387  uint public minimumContribution */\n    tag_13:\n      callvalue\n      dup1\n      iszero\n      tag_81\n      jumpi\n      0x00\n      dup1\n      revert\n    tag_81:\n      pop\n      tag_82\n      tag_83\n      jump\t// in\n    tag_82:\n      mload(0x40)\n      tag_84\n      swap2\n      swap1\n      tag_44\n      jump\t// in\n    tag_84:\n      mload(0x40)\n      dup1\n      swap2\n      sub\n      swap1\n      return\n        /* \"Campaign.sol\":1237:1262  string public projectName */\n    tag_14:\n      callvalue\n      dup1\n      iszero\n      tag_85\n      jumpi\n      0x00\n      dup1\n      revert\n    tag_85:\n      pop\n      tag_86\n      tag_87\n      jump\t// in\n    tag_86:\n      mload(0x40)\n      tag_88\n      swap2\n      swap1\n      tag_89\n      jump\t// in\n    tag_88:\n      mload(0x40)\n      dup1\n      swap2\n      sub\n      swap1\n      return\n        /* \"Campaign.sol\":1795:1818  uint public numRequests */\n    tag_15:\n      callvalue\n      dup1\n      iszero\n      tag_90\n      jumpi\n      0x00\n      dup1\n      revert\n    tag_90:\n      pop\n      tag_91\n      tag_92\n      jump\t// in\n    tag_91:\n      mload(0x40)\n      tag_93\n      swap2\n      swap1\n      tag_44\n      jump\t// in\n    tag_93:\n      mload(0x40)\n      dup1\n      swap2\n      sub\n      swap1\n      return\n        /* \"Campaign.sol\":1298:1320  string public imageURL */\n    tag_16:\n      callvalue\n      dup1\n      iszero\n      tag_94\n      jumpi\n      0x00\n      dup1\n      revert\n    tag_94:\n      pop\n      tag_95\n      tag_96\n      jump\t// in\n    tag_95:\n      mload(0x40)\n      tag_97\n      swap2\n      swap1\n      tag_89\n      jump\t// in\n    tag_97:\n      mload(0x40)\n      dup1\n      swap2\n      sub\n      swap1\n      return\n        /* \"Campaign.sol\":1268:1292  string public projectAim */\n    tag_17:\n      callvalue\n      dup1\n      iszero\n      tag_98\n      jumpi\n      0x00\n      dup1\n      revert\n    tag_98:\n      pop\n      tag_99\n      tag_100\n      jump\t// in\n    tag_99:\n      mload(0x40)\n      tag_101\n      swap2\n      swap1\n      tag_89\n      jump\t// in\n    tag_101:\n      mload(0x40)\n      dup1\n      swap2\n      sub\n      swap1\n      return\n        /* \"Campaign.sol\":2300:2626  function contribute() public payable {... */\n    tag_18:\n      tag_102\n      tag_103\n      jump\t// in\n    tag_102:\n      stop\n        /* \"Campaign.sol\":3320:3617  function approveRequest(uint index) public {... */\n    tag_19:\n      callvalue\n      dup1\n      iszero\n      tag_104\n      jumpi\n      0x00\n      dup1\n      revert\n    tag_104:\n      pop\n      tag_105\n      0x04\n      dup1\n      calldatasize\n      sub\n      dup2\n      add\n      swap1\n      tag_106\n      swap2\n      swap1\n      tag_27\n      jump\t// in\n    tag_106:\n      tag_107\n      jump\t// in\n    tag_105:\n      stop\n        /* \"Campaign.sol\":1557:1584  uint public supportersCount */\n    tag_20:\n      callvalue\n      dup1\n      iszero\n      tag_108\n      jumpi\n      0x00\n      dup1\n      revert\n    tag_108:\n      pop\n      tag_109\n      tag_110\n      jump\t// in\n    tag_109:\n      mload(0x40)\n      tag_111\n      swap2\n      swap1\n      tag_44\n      jump\t// in\n    tag_111:\n      mload(0x40)\n      dup1\n      swap2\n      sub\n      swap1\n      return\n        /* \"Campaign.sol\":3818:4122  function finalizeRequest(uint index) public restricted {... */\n    tag_28:\n        /* \"Campaign.sol\":2264:2271  manager */\n      0x00\n      dup1\n      sload\n      swap1\n      0x0100\n      exp\n      swap1\n      div\n      0xffffffffffffffffffffffffffffffffffffffff\n      and\n        /* \"Campaign.sol\":2250:2271  msg.sender == manager */\n      0xffffffffffffffffffffffffffffffffffffffff\n      and\n        /* \"Campaign.sol\":2250:2260  msg.sender */\n      caller\n        /* \"Campaign.sol\":2250:2271  msg.sender == manager */\n      0xffffffffffffffffffffffffffffffffffffffff\n      and\n      eq\n        /* \"Campaign.sol\":2242:2272  require(msg.sender == manager) */\n      tag_113\n      jumpi\n      0x00\n      dup1\n      revert\n    tag_113:\n        /* \"Campaign.sol\":3883:3906  Request storage request */\n      0x00\n        /* \"Campaign.sol\":3909:3917  requests */\n      0x0b\n        /* \"Campaign.sol\":3909:3924  requests[index] */\n      0x00\n        /* \"Campaign.sol\":3918:3923  index */\n      dup4\n        /* \"Campaign.sol\":3909:3924  requests[index] */\n      dup2\n      mstore\n      0x20\n      add\n      swap1\n      dup2\n      mstore\n      0x20\n      add\n      0x00\n      keccak256\n        /* \"Campaign.sol\":3883:3924  Request storage request = requests[index] */\n      swap1\n      pop\n        /* \"Campaign.sol\":3983:3984  2 */\n      0x02\n        /* \"Campaign.sol\":3967:3982  supportersCount */\n      sload(0x09)\n        /* \"Campaign.sol\":3967:3984  supportersCount/2 */\n      tag_115\n      swap2\n      swap1\n      tag_116\n      jump\t// in\n    tag_115:\n        /* \"Campaign.sol\":3942:3949  request */\n      dup2\n        /* \"Campaign.sol\":3942:3963  request.approvalCount */\n      0x03\n      add\n      sload\n        /* \"Campaign.sol\":3942:3985  request.approvalCount > (supportersCount/2) */\n      gt\n        /* \"Campaign.sol\":3934:3986  require(request.approvalCount > (supportersCount/2)) */\n      tag_117\n      jumpi\n      0x00\n      dup1\n      revert\n    tag_117:\n        /* \"Campaign.sol\":4005:4012  request */\n      dup1\n        /* \"Campaign.sol\":4005:4021  request.complete */\n      0x02\n      add\n      0x14\n      swap1\n      sload\n      swap1\n      0x0100\n      exp\n      swap1\n      div\n      0xff\n      and\n        /* \"Campaign.sol\":4004:4021  !request.complete */\n      iszero\n        /* \"Campaign.sol\":3996:4022  require(!request.complete) */\n      tag_118\n      jumpi\n      0x00\n      dup1\n      revert\n    tag_118:\n        /* \"Campaign.sol\":4041:4048  request */\n      dup1\n        /* \"Campaign.sol\":4041:4058  request.recipient */\n      0x02\n      add\n      0x00\n      swap1\n      sload\n      swap1\n      0x0100\n      exp\n      swap1\n      div\n      0xffffffffffffffffffffffffffffffffffffffff\n      and\n        /* \"Campaign.sol\":4041:4067  request.recipient.transfer */\n      0xffffffffffffffffffffffffffffffffffffffff\n      and\n        /* \"Campaign.sol\":4041:4082  request.recipient.transfer(request.value) */\n      0x08fc\n        /* \"Campaign.sol\":4068:4075  request */\n      dup3\n        /* \"Campaign.sol\":4068:4081  request.value */\n      0x01\n      add\n      sload\n        /* \"Campaign.sol\":4041:4082  request.recipient.transfer(request.value) */\n      swap1\n      dup2\n      iszero\n      mul\n      swap1\n      mload(0x40)\n      0x00\n      mload(0x40)\n      dup1\n      dup4\n      sub\n      dup2\n      dup6\n      dup9\n      dup9\n      call\n      swap4\n      pop\n      pop\n      pop\n      pop\n      iszero\n      dup1\n      iszero\n      tag_120\n      jumpi\n      returndatasize\n      0x00\n      dup1\n      returndatacopy\n      revert(0x00, returndatasize)\n    tag_120:\n      pop\n        /* \"Campaign.sol\":4111:4115  true */\n      0x01\n        /* \"Campaign.sol\":4092:4099  request */\n      dup2\n        /* \"Campaign.sol\":4092:4108  request.complete */\n      0x02\n      add\n      0x14\n        /* \"Campaign.sol\":4092:4115  request.complete = true */\n      0x0100\n      exp\n      dup2\n      sload\n      dup2\n      0xff\n      mul\n      not\n      and\n      swap1\n      dup4\n      iszero\n      iszero\n      mul\n      or\n      swap1\n      sstore\n      pop\n        /* \"Campaign.sol\":3873:4122  {... */\n      pop\n        /* \"Campaign.sol\":3818:4122  function finalizeRequest(uint index) public restricted {... */\n      pop\n      jump\t// out\n        /* \"Campaign.sol\":2636:2928  function deleteCampaign() public payable  {... */\n    tag_30:\n        /* \"Campaign.sol\":2693:2699  uint i */\n      0x00\n        /* \"Campaign.sol\":2688:2847  for (uint i=0; i<supportersAddresses.length; i++) {... */\n    tag_122:\n        /* \"Campaign.sol\":2705:2724  supportersAddresses */\n      0x07\n        /* \"Campaign.sol\":2705:2731  supportersAddresses.length */\n      dup1\n      sload\n      swap1\n      pop\n        /* \"Campaign.sol\":2703:2704  i */\n      dup2\n        /* \"Campaign.sol\":2703:2731  i<supportersAddresses.length */\n      lt\n        /* \"Campaign.sol\":2688:2847  for (uint i=0; i<supportersAddresses.length; i++) {... */\n      iszero\n      tag_123\n      jumpi\n        /* \"Campaign.sol\":2752:2771  supportersAddresses */\n      0x07\n        /* \"Campaign.sol\":2772:2773  i */\n      dup2\n        /* \"Campaign.sol\":2752:2774  supportersAddresses[i] */\n      dup2\n      sload\n      dup2\n      lt\n      tag_125\n      jumpi\n      tag_126\n      tag_127\n      jump\t// in\n    tag_126:\n    tag_125:\n      swap1\n      0x00\n      mstore\n      keccak256(0x00, 0x20)\n      add\n      0x00\n      swap1\n      sload\n      swap1\n      0x0100\n      exp\n      swap1\n      div\n      0xffffffffffffffffffffffffffffffffffffffff\n      and\n        /* \"Campaign.sol\":2752:2783  supportersAddresses[i].transfer */\n      0xffffffffffffffffffffffffffffffffffffffff\n      and\n        /* \"Campaign.sol\":2752:2836  supportersAddresses[i].transfer(supporterContributionValues[supportersAddresses[i]]) */\n      0x08fc\n        /* \"Campaign.sol\":2784:2811  supporterContributionValues */\n      0x08\n        /* \"Campaign.sol\":2784:2835  supporterContributionValues[supportersAddresses[i]] */\n      0x00\n        /* \"Campaign.sol\":2812:2831  supportersAddresses */\n      0x07\n        /* \"Campaign.sol\":2832:2833  i */\n      dup6\n        /* \"Campaign.sol\":2812:2834  supportersAddresses[i] */\n      dup2\n      sload\n      dup2\n      lt\n      tag_129\n      jumpi\n      tag_130\n      tag_127\n      jump\t// in\n    tag_130:\n    tag_129:\n      swap1\n      0x00\n      mstore\n      keccak256(0x00, 0x20)\n      add\n      0x00\n      swap1\n      sload\n      swap1\n      0x0100\n      exp\n      swap1\n      div\n      0xffffffffffffffffffffffffffffffffffffffff\n      and\n        /* \"Campaign.sol\":2784:2835  supporterContributionValues[supportersAddresses[i]] */\n      0xffffffffffffffffffffffffffffffffffffffff\n      and\n      0xffffffffffffffffffffffffffffffffffffffff\n      and\n      dup2\n      mstore\n      0x20\n      add\n      swap1\n      dup2\n      mstore\n      0x20\n      add\n      0x00\n      keccak256\n      sload\n        /* \"Campaign.sol\":2752:2836  supportersAddresses[i].transfer(supporterContributionValues[supportersAddresses[i]]) */\n      swap1\n      dup2\n      iszero\n      mul\n      swap1\n      mload(0x40)\n      0x00\n      mload(0x40)\n      dup1\n      dup4\n      sub\n      dup2\n      dup6\n      dup9\n      dup9\n      call\n      swap4\n      pop\n      pop\n      pop\n      pop\n      iszero\n      dup1\n      iszero\n      tag_133\n      jumpi\n      returndatasize\n      0x00\n      dup1\n      returndatacopy\n      revert(0x00, returndatasize)\n    tag_133:\n      pop\n        /* \"Campaign.sol\":2733:2736  i++ */\n      dup1\n      dup1\n      tag_134\n      swap1\n      tag_135\n      jump\t// in\n    tag_134:\n      swap2\n      pop\n      pop\n        /* \"Campaign.sol\":2688:2847  for (uint i=0; i<supportersAddresses.length; i++) {... */\n      jump(tag_122)\n    tag_123:\n      pop\n        /* \"Campaign.sol\":2877:2919  0x35b2E2b694A6A4c28F6631A905fB87eca330469d */\n      0x35b2e2b694a6a4c28f6631a905fb87eca330469d\n        /* \"Campaign.sol\":2856:2921  selfdestruct(payable(0x35b2E2b694A6A4c28F6631A905fB87eca330469d)) */\n      0xffffffffffffffffffffffffffffffffffffffff\n      and\n      selfdestruct\n        /* \"Campaign.sol\":3627:3803  function isApproved(address account, uint index) public view returns(bool) {... */\n    tag_35:\n        /* \"Campaign.sol\":3696:3700  bool */\n      0x00\n        /* \"Campaign.sol\":3712:3735  Request storage request */\n      dup1\n        /* \"Campaign.sol\":3738:3746  requests */\n      0x0b\n        /* \"Campaign.sol\":3738:3753  requests[index] */\n      0x00\n        /* \"Campaign.sol\":3747:3752  index */\n      dup5\n        /* \"Campaign.sol\":3738:3753  requests[index] */\n      dup2\n      mstore\n      0x20\n      add\n      swap1\n      dup2\n      mstore\n      0x20\n      add\n      0x00\n      keccak256\n        /* \"Campaign.sol\":3712:3753  Request storage request = requests[index] */\n      swap1\n      pop\n        /* \"Campaign.sol\":3770:3777  request */\n      dup1\n        /* \"Campaign.sol\":3770:3787  request.approvals */\n      0x04\n      add\n        /* \"Campaign.sol\":3770:3796  request.approvals[account] */\n      0x00\n        /* \"Campaign.sol\":3788:3795  account */\n      dup6\n        /* \"Campaign.sol\":3770:3796  request.approvals[account] */\n      0xffffffffffffffffffffffffffffffffffffffff\n      and\n      0xffffffffffffffffffffffffffffffffffffffff\n      and\n      dup2\n      mstore\n      0x20\n      add\n      swap1\n      dup2\n      mstore\n      0x20\n      add\n      0x00\n      keccak256\n      0x00\n      swap1\n      sload\n      swap1\n      0x0100\n      exp\n      swap1\n      div\n      0xff\n      and\n        /* \"Campaign.sol\":3763:3796  return request.approvals[account] */\n      swap2\n      pop\n      pop\n        /* \"Campaign.sol\":3627:3803  function isApproved(address account, uint index) public view returns(bool) {... */\n      swap3\n      swap2\n      pop\n      pop\n      jump\t// out\n        /* \"Campaign.sol\":1492:1551  mapping(address => uint) public supporterContributionValues */\n    tag_42:\n      mstore(0x20, 0x08)\n      dup1\n      0x00\n      mstore\n      keccak256(0x00, 0x40)\n      0x00\n      swap2\n      pop\n      swap1\n      pop\n      sload\n      dup2\n      jump\t// out\n        /* \"Campaign.sol\":4129:4528  function getSummary() public view returns (... */\n    tag_47:\n        /* \"Campaign.sol\":4179:4183  uint */\n      0x00\n        /* \"Campaign.sol\":4185:4189  uint */\n      dup1\n        /* \"Campaign.sol\":4191:4195  uint */\n      0x00\n        /* \"Campaign.sol\":4197:4201  uint */\n      dup1\n        /* \"Campaign.sol\":4203:4210  address */\n      0x00\n        /* \"Campaign.sol\":4213:4226  string memory */\n      0x60\n        /* \"Campaign.sol\":4229:4242  string memory */\n      dup1\n        /* \"Campaign.sol\":4244:4248  uint */\n      0x00\n        /* \"Campaign.sol\":4250:4263  string memory */\n      0x60\n        /* \"Campaign.sol\":4301:4320  minimumContribution */\n      sload(0x05)\n        /* \"Campaign.sol\":4332:4353  address(this).balance */\n      selfbalance\n        /* \"Campaign.sol\":4365:4376  numRequests */\n      sload(0x0a)\n        /* \"Campaign.sol\":4388:4403  supportersCount */\n      sload(0x09)\n        /* \"Campaign.sol\":4415:4422  manager */\n      0x00\n      dup1\n      sload\n      swap1\n      0x0100\n      exp\n      swap1\n      div\n      0xffffffffffffffffffffffffffffffffffffffff\n      and\n        /* \"Campaign.sol\":4434:4445  projectName */\n      0x01\n        /* \"Campaign.sol\":4457:4467  projectAim */\n      0x02\n        /* \"Campaign.sol\":4479:4491  financialAim */\n      sload(0x04)\n        /* \"Campaign.sol\":4503:4511  imageURL */\n      0x03\n        /* \"Campaign.sol\":4282:4521  return (... */\n      dup4\n      dup1\n      sload\n      tag_138\n      swap1\n      tag_139\n      jump\t// in\n    tag_138:\n      dup1\n      0x1f\n      add\n      0x20\n      dup1\n      swap2\n      div\n      mul\n      0x20\n      add\n      mload(0x40)\n      swap1\n      dup2\n      add\n      0x40\n      mstore\n      dup1\n      swap3\n      swap2\n      swap1\n      dup2\n      dup2\n      mstore\n      0x20\n      add\n      dup3\n      dup1\n      sload\n      tag_140\n      swap1\n      tag_139\n      jump\t// in\n    tag_140:\n      dup1\n      iszero\n      tag_141\n      jumpi\n      dup1\n      0x1f\n      lt\n      tag_142\n      jumpi\n      0x0100\n      dup1\n      dup4\n      sload\n      div\n      mul\n      dup4\n      mstore\n      swap2\n      0x20\n      add\n      swap2\n      jump(tag_141)\n    tag_142:\n      dup3\n      add\n      swap2\n      swap1\n      0x00\n      mstore\n      keccak256(0x00, 0x20)\n      swap1\n    tag_143:\n      dup2\n      sload\n      dup2\n      mstore\n      swap1\n      0x01\n      add\n      swap1\n      0x20\n      add\n      dup1\n      dup4\n      gt\n      tag_143\n      jumpi\n      dup3\n      swap1\n      sub\n      0x1f\n      and\n      dup3\n      add\n      swap2\n    tag_141:\n      pop\n      pop\n      pop\n      pop\n      pop\n      swap4\n      pop\n      dup3\n      dup1\n      sload\n      tag_144\n      swap1\n      tag_139\n      jump\t// in\n    tag_144:\n      dup1\n      0x1f\n      add\n      0x20\n      dup1\n      swap2\n      div\n      mul\n      0x20\n      add\n      mload(0x40)\n      swap1\n      dup2\n      add\n      0x40\n      mstore\n      dup1\n      swap3\n      swap2\n      swap1\n      dup2\n      dup2\n      mstore\n      0x20\n      add\n      dup3\n      dup1\n      sload\n      tag_145\n      swap1\n      tag_139\n      jump\t// in\n    tag_145:\n      dup1\n      iszero\n      tag_146\n      jumpi\n      dup1\n      0x1f\n      lt\n      tag_147\n      jumpi\n      0x0100\n      dup1\n      dup4\n      sload\n      div\n      mul\n      dup4\n      mstore\n      swap2\n      0x20\n      add\n      swap2\n      jump(tag_146)\n    tag_147:\n      dup3\n      add\n      swap2\n      swap1\n      0x00\n      mstore\n      keccak256(0x00, 0x20)\n      swap1\n    tag_148:\n      dup2\n      sload\n      dup2\n      mstore\n      swap1\n      0x01\n      add\n      swap1\n      0x20\n      add\n      dup1\n      dup4\n      gt\n      tag_148\n      jumpi\n      dup3\n      swap1\n      sub\n      0x1f\n      and\n      dup3\n      add\n      swap2\n    tag_146:\n      pop\n      pop\n      pop\n      pop\n      pop\n      swap3\n      pop\n      dup1\n      dup1\n      sload\n      tag_149\n      swap1\n      tag_139\n      jump\t// in\n    tag_149:\n      dup1\n      0x1f\n      add\n      0x20\n      dup1\n      swap2\n      div\n      mul\n      0x20\n      add\n      mload(0x40)\n      swap1\n      dup2\n      add\n      0x40\n      mstore\n      dup1\n      swap3\n      swap2\n      swap1\n      dup2\n      dup2\n      mstore\n      0x20\n      add\n      dup3\n      dup1\n      sload\n      tag_150\n      swap1\n      tag_139\n      jump\t// in\n    tag_150:\n      dup1\n      iszero\n      tag_151\n      jumpi\n      dup1\n      0x1f\n      lt\n      tag_152\n      jumpi\n      0x0100\n      dup1\n      dup4\n      sload\n      div\n      mul\n      dup4\n      mstore\n      swap2\n      0x20\n      add\n      swap2\n      jump(tag_151)\n    tag_152:\n      dup3\n      add\n      swap2\n      swap1\n      0x00\n      mstore\n      keccak256(0x00, 0x20)\n      swap1\n    tag_153:\n      dup2\n      sload\n      dup2\n      mstore\n      swap1\n      0x01\n      add\n      swap1\n      0x20\n      add\n      dup1\n      dup4\n      gt\n      tag_153\n      jumpi\n      dup3\n      swap1\n      sub\n      0x1f\n      and\n      dup3\n      add\n      swap2\n    tag_151:\n      pop\n      pop\n      pop\n      pop\n      pop\n      swap1\n      pop\n      swap9\n      pop\n      swap9\n      pop\n      swap9\n      pop\n      swap9\n      pop\n      swap9\n      pop\n      swap9\n      pop\n      swap9\n      pop\n      swap9\n      pop\n      swap9\n      pop\n        /* \"Campaign.sol\":4129:4528  function getSummary() public view returns (... */\n      swap1\n      swap2\n      swap3\n      swap4\n      swap5\n      swap6\n      swap7\n      swap8\n      swap9\n      jump\t// out\n        /* \"Campaign.sol\":1209:1231  address public manager */\n    tag_52:\n      0x00\n      dup1\n      sload\n      swap1\n      0x0100\n      exp\n      swap1\n      div\n      0xffffffffffffffffffffffffffffffffffffffff\n      and\n      dup2\n      jump\t// out\n        /* \"Campaign.sol\":1441:1486  address payable[] public  supportersAddresses */\n    tag_58:\n      0x07\n      dup2\n      dup2\n      sload\n      dup2\n      lt\n      tag_154\n      jumpi\n      0x00\n      dup1\n      revert\n    tag_154:\n      swap1\n      0x00\n      mstore\n      keccak256(0x00, 0x20)\n      add\n      0x00\n      swap2\n      pop\n      sload\n      swap1\n      0x0100\n      exp\n      swap1\n      div\n      0xffffffffffffffffffffffffffffffffffffffff\n      and\n      dup2\n      jump\t// out\n        /* \"Campaign.sol\":1393:1435  mapping(address => bool) public supporters */\n    tag_64:\n      mstore(0x20, 0x06)\n      dup1\n      0x00\n      mstore\n      keccak256(0x00, 0x40)\n      0x00\n      swap2\n      pop\n      sload\n      swap1\n      0x0100\n      exp\n      swap1\n      div\n      0xff\n      and\n      dup2\n      jump\t// out\n        /* \"Campaign.sol\":1326:1350  uint public financialAim */\n    tag_68:\n      sload(0x04)\n      dup2\n      jump\t// out\n        /* \"Campaign.sol\":1824:1865  mapping (uint => Request) public requests */\n    tag_73:\n      mstore(0x20, 0x0b)\n      dup1\n      0x00\n      mstore\n      keccak256(0x00, 0x40)\n      0x00\n      swap2\n      pop\n      swap1\n      pop\n      dup1\n      0x00\n      add\n      dup1\n      sload\n      tag_156\n      swap1\n      tag_139\n      jump\t// in\n    tag_156:\n      dup1\n      0x1f\n      add\n      0x20\n      dup1\n      swap2\n      div\n      mul\n      0x20\n      add\n      mload(0x40)\n      swap1\n      dup2\n      add\n      0x40\n      mstore\n      dup1\n      swap3\n      swap2\n      swap1\n      dup2\n      dup2\n      mstore\n      0x20\n      add\n      dup3\n      dup1\n      sload\n      tag_157\n      swap1\n      tag_139\n      jump\t// in\n    tag_157:\n      dup1\n      iszero\n      tag_158\n      jumpi\n      dup1\n      0x1f\n      lt\n      tag_159\n      jumpi\n      0x0100\n      dup1\n      dup4\n      sload\n      div\n      mul\n      dup4\n      mstore\n      swap2\n      0x20\n      add\n      swap2\n      jump(tag_158)\n    tag_159:\n      dup3\n      add\n      swap2\n      swap1\n      0x00\n      mstore\n      keccak256(0x00, 0x20)\n      swap1\n    tag_160:\n      dup2\n      sload\n      dup2\n      mstore\n      swap1\n      0x01\n      add\n      swap1\n      0x20\n      add\n      dup1\n      dup4\n      gt\n      tag_160\n      jumpi\n      dup3\n      swap1\n      sub\n      0x1f\n      and\n      dup3\n      add\n      swap2\n    tag_158:\n      pop\n      pop\n      pop\n      pop\n      pop\n      swap1\n      dup1\n      0x01\n      add\n      sload\n      swap1\n      dup1\n      0x02\n      add\n      0x00\n      swap1\n      sload\n      swap1\n      0x0100\n      exp\n      swap1\n      div\n      0xffffffffffffffffffffffffffffffffffffffff\n      and\n      swap1\n      dup1\n      0x02\n      add\n      0x14\n      swap1\n      sload\n      swap1\n      0x0100\n      exp\n      swap1\n      div\n      0xff\n      and\n      swap1\n      dup1\n      0x03\n      add\n      sload\n      swap1\n      pop\n      dup6\n      jump\t// out\n        /* \"Campaign.sol\":2943:3310  function createRequest(string memory description, uint value, address payable recipient)... */\n    tag_80:\n        /* \"Campaign.sol\":2264:2271  manager */\n      0x00\n      dup1\n      sload\n      swap1\n      0x0100\n      exp\n      swap1\n      div\n      0xffffffffffffffffffffffffffffffffffffffff\n      and\n        /* \"Campaign.sol\":2250:2271  msg.sender == manager */\n      0xffffffffffffffffffffffffffffffffffffffff\n      and\n        /* \"Campaign.sol\":2250:2260  msg.sender */\n      caller\n        /* \"Campaign.sol\":2250:2271  msg.sender == manager */\n      0xffffffffffffffffffffffffffffffffffffffff\n      and\n      eq\n        /* \"Campaign.sol\":2242:2272  require(msg.sender == manager) */\n      tag_162\n      jumpi\n      0x00\n      dup1\n      revert\n    tag_162:\n        /* \"Campaign.sol\":3082:3094  financialAim */\n      sload(0x04)\n        /* \"Campaign.sol\":3073:3078  value */\n      dup3\n        /* \"Campaign.sol\":3073:3094  value <= financialAim */\n      gt\n      iszero\n        /* \"Campaign.sol\":3065:3096  require(value <= financialAim ) */\n      tag_164\n      jumpi\n      0x00\n      dup1\n      revert\n    tag_164:\n        /* \"Campaign.sol\":3107:3124  Request storage r */\n      0x00\n        /* \"Campaign.sol\":3127:3135  requests */\n      0x0b\n        /* \"Campaign.sol\":3127:3150  requests[numRequests++] */\n      0x00\n        /* \"Campaign.sol\":3136:3147  numRequests */\n      0x0a\n      0x00\n        /* \"Campaign.sol\":3136:3149  numRequests++ */\n      dup2\n      sload\n      dup1\n      swap3\n      swap2\n      swap1\n      tag_165\n      swap1\n      tag_135\n      jump\t// in\n    tag_165:\n      swap2\n      swap1\n      pop\n      sstore\n        /* \"Campaign.sol\":3127:3150  requests[numRequests++] */\n      dup2\n      mstore\n      0x20\n      add\n      swap1\n      dup2\n      mstore\n      0x20\n      add\n      0x00\n      keccak256\n        /* \"Campaign.sol\":3107:3150  Request storage r = requests[numRequests++] */\n      swap1\n      pop\n        /* \"Campaign.sol\":3176:3187  description */\n      dup4\n        /* \"Campaign.sol\":3160:3161  r */\n      dup2\n        /* \"Campaign.sol\":3160:3173  r.description */\n      0x00\n      add\n        /* \"Campaign.sol\":3160:3187  r.description = description */\n      swap1\n      dup1\n      mload\n      swap1\n      0x20\n      add\n      swap1\n      tag_166\n      swap3\n      swap2\n      swap1\n      tag_167\n      jump\t// in\n    tag_166:\n      pop\n        /* \"Campaign.sol\":3207:3212  value */\n      dup3\n        /* \"Campaign.sol\":3197:3198  r */\n      dup2\n        /* \"Campaign.sol\":3197:3204  r.value */\n      0x01\n      add\n        /* \"Campaign.sol\":3197:3212  r.value = value */\n      dup2\n      swap1\n      sstore\n      pop\n        /* \"Campaign.sol\":3236:3245  recipient */\n      dup2\n        /* \"Campaign.sol\":3222:3223  r */\n      dup2\n        /* \"Campaign.sol\":3222:3233  r.recipient */\n      0x02\n      add\n      0x00\n        /* \"Campaign.sol\":3222:3245  r.recipient = recipient */\n      0x0100\n      exp\n      dup2\n      sload\n      dup2\n      0xffffffffffffffffffffffffffffffffffffffff\n      mul\n      not\n      and\n      swap1\n      dup4\n      0xffffffffffffffffffffffffffffffffffffffff\n      and\n      mul\n      or\n      swap1\n      sstore\n      pop\n        /* \"Campaign.sol\":3268:3273  false */\n      0x00\n        /* \"Campaign.sol\":3255:3256  r */\n      dup2\n        /* \"Campaign.sol\":3255:3265  r.complete */\n      0x02\n      add\n      0x14\n        /* \"Campaign.sol\":3255:3273  r.complete = false */\n      0x0100\n      exp\n      dup2\n      sload\n      dup2\n      0xff\n      mul\n      not\n      and\n      swap1\n      dup4\n      iszero\n      iszero\n      mul\n      or\n      swap1\n      sstore\n      pop\n        /* \"Campaign.sol\":3301:3302  0 */\n      0x00\n        /* \"Campaign.sol\":3283:3284  r */\n      dup2\n        /* \"Campaign.sol\":3283:3298  r.approvalCount */\n      0x03\n      add\n        /* \"Campaign.sol\":3283:3302  r.approvalCount = 0 */\n      dup2\n      swap1\n      sstore\n      pop\n        /* \"Campaign.sol\":3055:3310  {... */\n      pop\n        /* \"Campaign.sol\":2943:3310  function createRequest(string memory description, uint value, address payable recipient)... */\n      pop\n      pop\n      pop\n      jump\t// out\n        /* \"Campaign.sol\":1356:1387  uint public minimumContribution */\n    tag_83:\n      sload(0x05)\n      dup2\n      jump\t// out\n        /* \"Campaign.sol\":1237:1262  string public projectName */\n    tag_87:\n      0x01\n      dup1\n      sload\n      tag_168\n      swap1\n      tag_139\n      jump\t// in\n    tag_168:\n      dup1\n      0x1f\n      add\n      0x20\n      dup1\n      swap2\n      div\n      mul\n      0x20\n      add\n      mload(0x40)\n      swap1\n      dup2\n      add\n      0x40\n      mstore\n      dup1\n      swap3\n      swap2\n      swap1\n      dup2\n      dup2\n      mstore\n      0x20\n      add\n      dup3\n      dup1\n      sload\n      tag_169\n      swap1\n      tag_139\n      jump\t// in\n    tag_169:\n      dup1\n      iszero\n      tag_170\n      jumpi\n      dup1\n      0x1f\n      lt\n      tag_171\n      jumpi\n      0x0100\n      dup1\n      dup4\n      sload\n      div\n      mul\n      dup4\n      mstore\n      swap2\n      0x20\n      add\n      swap2\n      jump(tag_170)\n    tag_171:\n      dup3\n      add\n      swap2\n      swap1\n      0x00\n      mstore\n      keccak256(0x00, 0x20)\n      swap1\n    tag_172:\n      dup2\n      sload\n      dup2\n      mstore\n      swap1\n      0x01\n      add\n      swap1\n      0x20\n      add\n      dup1\n      dup4\n      gt\n      tag_172\n      jumpi\n      dup3\n      swap1\n      sub\n      0x1f\n      and\n      dup3\n      add\n      swap2\n    tag_170:\n      pop\n      pop\n      pop\n      pop\n      pop\n      dup2\n      jump\t// out\n        /* \"Campaign.sol\":1795:1818  uint public numRequests */\n    tag_92:\n      sload(0x0a)\n      dup2\n      jump\t// out\n        /* \"Campaign.sol\":1298:1320  string public imageURL */\n    tag_96:\n      0x03\n      dup1\n      sload\n      tag_173\n      swap1\n      tag_139\n      jump\t// in\n    tag_173:\n      dup1\n      0x1f\n      add\n      0x20\n      dup1\n      swap2\n      div\n      mul\n      0x20\n      add\n      mload(0x40)\n      swap1\n      dup2\n      add\n      0x40\n      mstore\n      dup1\n      swap3\n      swap2\n      swap1\n      dup2\n      dup2\n      mstore\n      0x20\n      add\n      dup3\n      dup1\n      sload\n      tag_174\n      swap1\n      tag_139\n      jump\t// in\n    tag_174:\n      dup1\n      iszero\n      tag_175\n      jumpi\n      dup1\n      0x1f\n      lt\n      tag_176\n      jumpi\n      0x0100\n      dup1\n      dup4\n      sload\n      div\n      mul\n      dup4\n      mstore\n      swap2\n      0x20\n      add\n      swap2\n      jump(tag_175)\n    tag_176:\n      dup3\n      add\n      swap2\n      swap1\n      0x00\n      mstore\n      keccak256(0x00, 0x20)\n      swap1\n    tag_177:\n      dup2\n      sload\n      dup2\n      mstore\n      swap1\n      0x01\n      add\n      swap1\n      0x20\n      add\n      dup1\n      dup4\n      gt\n      tag_177\n      jumpi\n      dup3\n      swap1\n      sub\n      0x1f\n      and\n      dup3\n      add\n      swap2\n    tag_175:\n      pop\n      pop\n      pop\n      pop\n      pop\n      dup2\n      jump\t// out\n        /* \"Campaign.sol\":1268:1292  string public projectAim */\n    tag_100:\n      0x02\n      dup1\n      sload\n      tag_178\n      swap1\n      tag_139\n      jump\t// in\n    tag_178:\n      dup1\n      0x1f\n      add\n      0x20\n      dup1\n      swap2\n      div\n      mul\n      0x20\n      add\n      mload(0x40)\n      swap1\n      dup2\n      add\n      0x40\n      mstore\n      dup1\n      swap3\n      swap2\n      swap1\n      dup2\n      dup2\n      mstore\n      0x20\n      add\n      dup3\n      dup1\n      sload\n      tag_179\n      swap1\n      tag_139\n      jump\t// in\n    tag_179:\n      dup1\n      iszero\n      tag_180\n      jumpi\n      dup1\n      0x1f\n      lt\n      tag_181\n      jumpi\n      0x0100\n      dup1\n      dup4\n      sload\n      div\n      mul\n      dup4\n      mstore\n      swap2\n      0x20\n      add\n      swap2\n      jump(tag_180)\n    tag_181:\n      dup3\n      add\n      swap2\n      swap1\n      0x00\n      mstore\n      keccak256(0x00, 0x20)\n      swap1\n    tag_182:\n      dup2\n      sload\n      dup2\n      mstore\n      swap1\n      0x01\n      add\n      swap1\n      0x20\n      add\n      dup1\n      dup4\n      gt\n      tag_182\n      jumpi\n      dup3\n      swap1\n      sub\n      0x1f\n      and\n      dup3\n      add\n      swap2\n    tag_180:\n      pop\n      pop\n      pop\n      pop\n      pop\n      dup2\n      jump\t// out\n        /* \"Campaign.sol\":2300:2626  function contribute() public payable {... */\n    tag_103:\n        /* \"Campaign.sol\":2367:2386  minimumContribution */\n      sload(0x05)\n        /* \"Campaign.sol\":2355:2364  msg.value */\n      callvalue\n        /* \"Campaign.sol\":2355:2386  msg.value > minimumContribution */\n      gt\n        /* \"Campaign.sol\":2347:2387  require(msg.value > minimumContribution) */\n      tag_184\n      jumpi\n      0x00\n      dup1\n      revert\n    tag_184:\n        /* \"Campaign.sol\":2431:2436  false */\n      0x00\n        /* \"Campaign.sol\":2405:2436  supporters[msg.sender] == false */\n      iszero\n      iszero\n        /* \"Campaign.sol\":2405:2415  supporters */\n      0x06\n        /* \"Campaign.sol\":2405:2427  supporters[msg.sender] */\n      0x00\n        /* \"Campaign.sol\":2416:2426  msg.sender */\n      caller\n        /* \"Campaign.sol\":2405:2427  supporters[msg.sender] */\n      0xffffffffffffffffffffffffffffffffffffffff\n      and\n      0xffffffffffffffffffffffffffffffffffffffff\n      and\n      dup2\n      mstore\n      0x20\n      add\n      swap1\n      dup2\n      mstore\n      0x20\n      add\n      0x00\n      keccak256\n      0x00\n      swap1\n      sload\n      swap1\n      0x0100\n      exp\n      swap1\n      div\n      0xff\n      and\n        /* \"Campaign.sol\":2405:2436  supporters[msg.sender] == false */\n      iszero\n      iszero\n      eq\n        /* \"Campaign.sol\":2397:2437  require(supporters[msg.sender] == false) */\n      tag_185\n      jumpi\n      0x00\n      dup1\n      revert\n    tag_185:\n        /* \"Campaign.sol\":2472:2476  true */\n      0x01\n        /* \"Campaign.sol\":2447:2457  supporters */\n      0x06\n        /* \"Campaign.sol\":2447:2469  supporters[msg.sender] */\n      0x00\n        /* \"Campaign.sol\":2458:2468  msg.sender */\n      caller\n        /* \"Campaign.sol\":2447:2469  supporters[msg.sender] */\n      0xffffffffffffffffffffffffffffffffffffffff\n      and\n      0xffffffffffffffffffffffffffffffffffffffff\n      and\n      dup2\n      mstore\n      0x20\n      add\n      swap1\n      dup2\n      mstore\n      0x20\n      add\n      0x00\n      keccak256\n      0x00\n        /* \"Campaign.sol\":2447:2476  supporters[msg.sender] = true */\n      0x0100\n      exp\n      dup2\n      sload\n      dup2\n      0xff\n      mul\n      not\n      and\n      swap1\n      dup4\n      iszero\n      iszero\n      mul\n      or\n      swap1\n      sstore\n      pop\n        /* \"Campaign.sol\":2486:2501  supportersCount */\n      0x09\n      0x00\n        /* \"Campaign.sol\":2486:2503  supportersCount++ */\n      dup2\n      sload\n      dup1\n      swap3\n      swap2\n      swap1\n      tag_186\n      swap1\n      tag_135\n      jump\t// in\n    tag_186:\n      swap2\n      swap1\n      pop\n      sstore\n      pop\n        /* \"Campaign.sol\":2555:2564  msg.value */\n      callvalue\n        /* \"Campaign.sol\":2513:2540  supporterContributionValues */\n      0x08\n        /* \"Campaign.sol\":2513:2552  supporterContributionValues[msg.sender] */\n      0x00\n        /* \"Campaign.sol\":2541:2551  msg.sender */\n      caller\n        /* \"Campaign.sol\":2513:2552  supporterContributionValues[msg.sender] */\n      0xffffffffffffffffffffffffffffffffffffffff\n      and\n      0xffffffffffffffffffffffffffffffffffffffff\n      and\n      dup2\n      mstore\n      0x20\n      add\n      swap1\n      dup2\n      mstore\n      0x20\n      add\n      0x00\n      keccak256\n        /* \"Campaign.sol\":2513:2564  supporterContributionValues[msg.sender] = msg.value */\n      dup2\n      swap1\n      sstore\n      pop\n        /* \"Campaign.sol\":2574:2593  supportersAddresses */\n      0x07\n        /* \"Campaign.sol\":2607:2617  msg.sender */\n      caller\n        /* \"Campaign.sol\":2574:2619  supportersAddresses.push(payable(msg.sender)) */\n      swap1\n      dup1\n      0x01\n      dup2\n      sload\n      add\n      dup1\n      dup3\n      sstore\n      dup1\n      swap2\n      pop\n      pop\n      0x01\n      swap1\n      sub\n      swap1\n      0x00\n      mstore\n      keccak256(0x00, 0x20)\n      add\n      0x00\n      swap1\n      swap2\n      swap1\n      swap2\n      swap1\n      swap2\n      0x0100\n      exp\n      dup2\n      sload\n      dup2\n      0xffffffffffffffffffffffffffffffffffffffff\n      mul\n      not\n      and\n      swap1\n      dup4\n      0xffffffffffffffffffffffffffffffffffffffff\n      and\n      mul\n      or\n      swap1\n      sstore\n      pop\n        /* \"Campaign.sol\":2300:2626  function contribute() public payable {... */\n      jump\t// out\n        /* \"Campaign.sol\":3320:3617  function approveRequest(uint index) public {... */\n    tag_107:\n        /* \"Campaign.sol\":3373:3396  Request storage request */\n      0x00\n        /* \"Campaign.sol\":3399:3407  requests */\n      0x0b\n        /* \"Campaign.sol\":3399:3414  requests[index] */\n      0x00\n        /* \"Campaign.sol\":3408:3413  index */\n      dup4\n        /* \"Campaign.sol\":3399:3414  requests[index] */\n      dup2\n      mstore\n      0x20\n      add\n      swap1\n      dup2\n      mstore\n      0x20\n      add\n      0x00\n      keccak256\n        /* \"Campaign.sol\":3373:3414  Request storage request = requests[index] */\n      swap1\n      pop\n        /* \"Campaign.sol\":3441:3451  supporters */\n      0x06\n        /* \"Campaign.sol\":3441:3463  supporters[msg.sender] */\n      0x00\n        /* \"Campaign.sol\":3452:3462  msg.sender */\n      caller\n        /* \"Campaign.sol\":3441:3463  supporters[msg.sender] */\n      0xffffffffffffffffffffffffffffffffffffffff\n      and\n      0xffffffffffffffffffffffffffffffffffffffff\n      and\n      dup2\n      mstore\n      0x20\n      add\n      swap1\n      dup2\n      mstore\n      0x20\n      add\n      0x00\n      keccak256\n      0x00\n      swap1\n      sload\n      swap1\n      0x0100\n      exp\n      swap1\n      div\n      0xff\n      and\n        /* \"Campaign.sol\":3433:3464  require(supporters[msg.sender]) */\n      tag_189\n      jumpi\n      0x00\n      dup1\n      revert\n    tag_189:\n        /* \"Campaign.sol\":3483:3490  request */\n      dup1\n        /* \"Campaign.sol\":3483:3500  request.approvals */\n      0x04\n      add\n        /* \"Campaign.sol\":3483:3512  request.approvals[msg.sender] */\n      0x00\n        /* \"Campaign.sol\":3501:3511  msg.sender */\n      caller\n        /* \"Campaign.sol\":3483:3512  request.approvals[msg.sender] */\n      0xffffffffffffffffffffffffffffffffffffffff\n      and\n      0xffffffffffffffffffffffffffffffffffffffff\n      and\n      dup2\n      mstore\n      0x20\n      add\n      swap1\n      dup2\n      mstore\n      0x20\n      add\n      0x00\n      keccak256\n      0x00\n      swap1\n      sload\n      swap1\n      0x0100\n      exp\n      swap1\n      div\n      0xff\n      and\n        /* \"Campaign.sol\":3482:3512  !request.approvals[msg.sender] */\n      iszero\n        /* \"Campaign.sol\":3474:3513  require(!request.approvals[msg.sender]) */\n      tag_190\n      jumpi\n      0x00\n      dup1\n      revert\n    tag_190:\n        /* \"Campaign.sol\":3564:3568  true */\n      0x01\n        /* \"Campaign.sol\":3532:3539  request */\n      dup2\n        /* \"Campaign.sol\":3532:3549  request.approvals */\n      0x04\n      add\n        /* \"Campaign.sol\":3532:3561  request.approvals[msg.sender] */\n      0x00\n        /* \"Campaign.sol\":3550:3560  msg.sender */\n      caller\n        /* \"Campaign.sol\":3532:3561  request.approvals[msg.sender] */\n      0xffffffffffffffffffffffffffffffffffffffff\n      and\n      0xffffffffffffffffffffffffffffffffffffffff\n      and\n      dup2\n      mstore\n      0x20\n      add\n      swap1\n      dup2\n      mstore\n      0x20\n      add\n      0x00\n      keccak256\n      0x00\n        /* \"Campaign.sol\":3532:3568  request.approvals[msg.sender] = true */\n      0x0100\n      exp\n      dup2\n      sload\n      dup2\n      0xff\n      mul\n      not\n      and\n      swap1\n      dup4\n      iszero\n      iszero\n      mul\n      or\n      swap1\n      sstore\n      pop\n        /* \"Campaign.sol\":3578:3585  request */\n      dup1\n        /* \"Campaign.sol\":3578:3599  request.approvalCount */\n      0x03\n      add\n      0x00\n        /* \"Campaign.sol\":3578:3601  request.approvalCount++ */\n      dup2\n      sload\n      dup1\n      swap3\n      swap2\n      swap1\n      tag_191\n      swap1\n      tag_135\n      jump\t// in\n    tag_191:\n      swap2\n      swap1\n      pop\n      sstore\n      pop\n        /* \"Campaign.sol\":3363:3617  {... */\n      pop\n        /* \"Campaign.sol\":3320:3617  function approveRequest(uint index) public {... */\n      pop\n      jump\t// out\n        /* \"Campaign.sol\":1557:1584  uint public supportersCount */\n    tag_110:\n      sload(0x09)\n      dup2\n      jump\t// out\n    tag_167:\n      dup3\n      dup1\n      sload\n      tag_192\n      swap1\n      tag_139\n      jump\t// in\n    tag_192:\n      swap1\n      0x00\n      mstore\n      keccak256(0x00, 0x20)\n      swap1\n      0x1f\n      add\n      0x20\n      swap1\n      div\n      dup2\n      add\n      swap3\n      dup3\n      tag_194\n      jumpi\n      0x00\n      dup6\n      sstore\n      jump(tag_193)\n    tag_194:\n      dup3\n      0x1f\n      lt\n      tag_195\n      jumpi\n      dup1\n      mload\n      not(0xff)\n      and\n      dup4\n      dup1\n      add\n      or\n      dup6\n      sstore\n      jump(tag_193)\n    tag_195:\n      dup3\n      dup1\n      add\n      0x01\n      add\n      dup6\n      sstore\n      dup3\n      iszero\n      tag_193\n      jumpi\n      swap2\n      dup3\n      add\n    tag_196:\n      dup3\n      dup2\n      gt\n      iszero\n      tag_197\n      jumpi\n      dup3\n      mload\n      dup3\n      sstore\n      swap2\n      0x20\n      add\n      swap2\n      swap1\n      0x01\n      add\n      swap1\n      jump(tag_196)\n    tag_197:\n    tag_193:\n      pop\n      swap1\n      pop\n      tag_198\n      swap2\n      swap1\n      tag_199\n      jump\t// in\n    tag_198:\n      pop\n      swap1\n      jump\t// out\n    tag_199:\n    tag_200:\n      dup1\n      dup3\n      gt\n      iszero\n      tag_201\n      jumpi\n      0x00\n      dup2\n      0x00\n      swap1\n      sstore\n      pop\n      0x01\n      add\n      jump(tag_200)\n    tag_201:\n      pop\n      swap1\n      jump\t// out\n        /* \"#utility.yul\":7:82   */\n    tag_202:\n        /* \"#utility.yul\":40:46   */\n      0x00\n        /* \"#utility.yul\":73:75   */\n      0x40\n        /* \"#utility.yul\":67:76   */\n      mload\n        /* \"#utility.yul\":57:76   */\n      swap1\n      pop\n        /* \"#utility.yul\":7:82   */\n      swap1\n      jump\t// out\n        /* \"#utility.yul\":88:205   */\n    tag_203:\n        /* \"#utility.yul\":197:198   */\n      0x00\n        /* \"#utility.yul\":194:195   */\n      dup1\n        /* \"#utility.yul\":187:199   */\n      revert\n        /* \"#utility.yul\":211:328   */\n    tag_204:\n        /* \"#utility.yul\":320:321   */\n      0x00\n        /* \"#utility.yul\":317:318   */\n      dup1\n        /* \"#utility.yul\":310:322   */\n      revert\n        /* \"#utility.yul\":334:411   */\n    tag_205:\n        /* \"#utility.yul\":371:378   */\n      0x00\n        /* \"#utility.yul\":400:405   */\n      dup2\n        /* \"#utility.yul\":389:405   */\n      swap1\n      pop\n        /* \"#utility.yul\":334:411   */\n      swap2\n      swap1\n      pop\n      jump\t// out\n        /* \"#utility.yul\":417:539   */\n    tag_206:\n        /* \"#utility.yul\":490:514   */\n      tag_243\n        /* \"#utility.yul\":508:513   */\n      dup2\n        /* \"#utility.yul\":490:514   */\n      tag_205\n      jump\t// in\n    tag_243:\n        /* \"#utility.yul\":483:488   */\n      dup2\n        /* \"#utility.yul\":480:515   */\n      eq\n        /* \"#utility.yul\":470:533   */\n      tag_244\n      jumpi\n        /* \"#utility.yul\":529:530   */\n      0x00\n        /* \"#utility.yul\":526:527   */\n      dup1\n        /* \"#utility.yul\":519:531   */\n      revert\n        /* \"#utility.yul\":470:533   */\n    tag_244:\n        /* \"#utility.yul\":417:539   */\n      pop\n      jump\t// out\n        /* \"#utility.yul\":545:684   */\n    tag_207:\n        /* \"#utility.yul\":591:596   */\n      0x00\n        /* \"#utility.yul\":629:635   */\n      dup2\n        /* \"#utility.yul\":616:636   */\n      calldataload\n        /* \"#utility.yul\":607:636   */\n      swap1\n      pop\n        /* \"#utility.yul\":645:678   */\n      tag_246\n        /* \"#utility.yul\":672:677   */\n      dup2\n        /* \"#utility.yul\":645:678   */\n      tag_206\n      jump\t// in\n    tag_246:\n        /* \"#utility.yul\":545:684   */\n      swap3\n      swap2\n      pop\n      pop\n      jump\t// out\n        /* \"#utility.yul\":690:1019   */\n    tag_27:\n        /* \"#utility.yul\":749:755   */\n      0x00\n        /* \"#utility.yul\":798:800   */\n      0x20\n        /* \"#utility.yul\":786:795   */\n      dup3\n        /* \"#utility.yul\":777:784   */\n      dup5\n        /* \"#utility.yul\":773:796   */\n      sub\n        /* \"#utility.yul\":769:801   */\n      slt\n        /* \"#utility.yul\":766:885   */\n      iszero\n      tag_248\n      jumpi\n        /* \"#utility.yul\":804:883   */\n      tag_249\n      tag_203\n      jump\t// in\n    tag_249:\n        /* \"#utility.yul\":766:885   */\n    tag_248:\n        /* \"#utility.yul\":924:925   */\n      0x00\n        /* \"#utility.yul\":949:1002   */\n      tag_250\n        /* \"#utility.yul\":994:1001   */\n      dup5\n        /* \"#utility.yul\":985:991   */\n      dup3\n        /* \"#utility.yul\":974:983   */\n      dup6\n        /* \"#utility.yul\":970:992   */\n      add\n        /* \"#utility.yul\":949:1002   */\n      tag_207\n      jump\t// in\n    tag_250:\n        /* \"#utility.yul\":939:1002   */\n      swap2\n      pop\n        /* \"#utility.yul\":895:1012   */\n      pop\n        /* \"#utility.yul\":690:1019   */\n      swap3\n      swap2\n      pop\n      pop\n      jump\t// out\n        /* \"#utility.yul\":1025:1151   */\n    tag_208:\n        /* \"#utility.yul\":1062:1069   */\n      0x00\n        /* \"#utility.yul\":1102:1144   */\n      0xffffffffffffffffffffffffffffffffffffffff\n        /* \"#utility.yul\":1095:1100   */\n      dup3\n        /* \"#utility.yul\":1091:1145   */\n      and\n        /* \"#utility.yul\":1080:1145   */\n      swap1\n      pop\n        /* \"#utility.yul\":1025:1151   */\n      swap2\n      swap1\n      pop\n      jump\t// out\n        /* \"#utility.yul\":1157:1253   */\n    tag_209:\n        /* \"#utility.yul\":1194:1201   */\n      0x00\n        /* \"#utility.yul\":1223:1247   */\n      tag_253\n        /* \"#utility.yul\":1241:1246   */\n      dup3\n        /* \"#utility.yul\":1223:1247   */\n      tag_208\n      jump\t// in\n    tag_253:\n        /* \"#utility.yul\":1212:1247   */\n      swap1\n      pop\n        /* \"#utility.yul\":1157:1253   */\n      swap2\n      swap1\n      pop\n      jump\t// out\n        /* \"#utility.yul\":1259:1381   */\n    tag_210:\n        /* \"#utility.yul\":1332:1356   */\n      tag_255\n        /* \"#utility.yul\":1350:1355   */\n      dup2\n        /* \"#utility.yul\":1332:1356   */\n      tag_209\n      jump\t// in\n    tag_255:\n        /* \"#utility.yul\":1325:1330   */\n      dup2\n        /* \"#utility.yul\":1322:1357   */\n      eq\n        /* \"#utility.yul\":1312:1375   */\n      tag_256\n      jumpi\n        /* \"#utility.yul\":1371:1372   */\n      0x00\n        /* \"#utility.yul\":1368:1369   */\n      dup1\n        /* \"#utility.yul\":1361:1373   */\n      revert\n        /* \"#utility.yul\":1312:1375   */\n    tag_256:\n        /* \"#utility.yul\":1259:1381   */\n      pop\n      jump\t// out\n        /* \"#utility.yul\":1387:1526   */\n    tag_211:\n        /* \"#utility.yul\":1433:1438   */\n      0x00\n        /* \"#utility.yul\":1471:1477   */\n      dup2\n        /* \"#utility.yul\":1458:1478   */\n      calldataload\n        /* \"#utility.yul\":1449:1478   */\n      swap1\n      pop\n        /* \"#utility.yul\":1487:1520   */\n      tag_258\n        /* \"#utility.yul\":1514:1519   */\n      dup2\n        /* \"#utility.yul\":1487:1520   */\n      tag_210\n      jump\t// in\n    tag_258:\n        /* \"#utility.yul\":1387:1526   */\n      swap3\n      swap2\n      pop\n      pop\n      jump\t// out\n        /* \"#utility.yul\":1532:2006   */\n    tag_34:\n        /* \"#utility.yul\":1600:1606   */\n      0x00\n        /* \"#utility.yul\":1608:1614   */\n      dup1\n        /* \"#utility.yul\":1657:1659   */\n      0x40\n        /* \"#utility.yul\":1645:1654   */\n      dup4\n        /* \"#utility.yul\":1636:1643   */\n      dup6\n        /* \"#utility.yul\":1632:1655   */\n      sub\n        /* \"#utility.yul\":1628:1660   */\n      slt\n        /* \"#utility.yul\":1625:1744   */\n      iszero\n      tag_260\n      jumpi\n        /* \"#utility.yul\":1663:1742   */\n      tag_261\n      tag_203\n      jump\t// in\n    tag_261:\n        /* \"#utility.yul\":1625:1744   */\n    tag_260:\n        /* \"#utility.yul\":1783:1784   */\n      0x00\n        /* \"#utility.yul\":1808:1861   */\n      tag_262\n        /* \"#utility.yul\":1853:1860   */\n      dup6\n        /* \"#utility.yul\":1844:1850   */\n      dup3\n        /* \"#utility.yul\":1833:1842   */\n      dup7\n        /* \"#utility.yul\":1829:1851   */\n      add\n        /* \"#utility.yul\":1808:1861   */\n      tag_211\n      jump\t// in\n    tag_262:\n        /* \"#utility.yul\":1798:1861   */\n      swap3\n      pop\n        /* \"#utility.yul\":1754:1871   */\n      pop\n        /* \"#utility.yul\":1910:1912   */\n      0x20\n        /* \"#utility.yul\":1936:1989   */\n      tag_263\n        /* \"#utility.yul\":1981:1988   */\n      dup6\n        /* \"#utility.yul\":1972:1978   */\n      dup3\n        /* \"#utility.yul\":1961:1970   */\n      dup7\n        /* \"#utility.yul\":1957:1979   */\n      add\n        /* \"#utility.yul\":1936:1989   */\n      tag_207\n      jump\t// in\n    tag_263:\n        /* \"#utility.yul\":1926:1989   */\n      swap2\n      pop\n        /* \"#utility.yul\":1881:1999   */\n      pop\n        /* \"#utility.yul\":1532:2006   */\n      swap3\n      pop\n      swap3\n      swap1\n      pop\n      jump\t// out\n        /* \"#utility.yul\":2012:2102   */\n    tag_212:\n        /* \"#utility.yul\":2046:2053   */\n      0x00\n        /* \"#utility.yul\":2089:2094   */\n      dup2\n        /* \"#utility.yul\":2082:2095   */\n      iszero\n        /* \"#utility.yul\":2075:2096   */\n      iszero\n        /* \"#utility.yul\":2064:2096   */\n      swap1\n      pop\n        /* \"#utility.yul\":2012:2102   */\n      swap2\n      swap1\n      pop\n      jump\t// out\n        /* \"#utility.yul\":2108:2217   */\n    tag_213:\n        /* \"#utility.yul\":2189:2210   */\n      tag_266\n        /* \"#utility.yul\":2204:2209   */\n      dup2\n        /* \"#utility.yul\":2189:2210   */\n      tag_212\n      jump\t// in\n    tag_266:\n        /* \"#utility.yul\":2184:2187   */\n      dup3\n        /* \"#utility.yul\":2177:2211   */\n      mstore\n        /* \"#utility.yul\":2108:2217   */\n      pop\n      pop\n      jump\t// out\n        /* \"#utility.yul\":2223:2433   */\n    tag_37:\n        /* \"#utility.yul\":2310:2314   */\n      0x00\n        /* \"#utility.yul\":2348:2350   */\n      0x20\n        /* \"#utility.yul\":2337:2346   */\n      dup3\n        /* \"#utility.yul\":2333:2351   */\n      add\n        /* \"#utility.yul\":2325:2351   */\n      swap1\n      pop\n        /* \"#utility.yul\":2361:2426   */\n      tag_268\n        /* \"#utility.yul\":2423:2424   */\n      0x00\n        /* \"#utility.yul\":2412:2421   */\n      dup4\n        /* \"#utility.yul\":2408:2425   */\n      add\n        /* \"#utility.yul\":2399:2405   */\n      dup5\n        /* \"#utility.yul\":2361:2426   */\n      tag_213\n      jump\t// in\n    tag_268:\n        /* \"#utility.yul\":2223:2433   */\n      swap3\n      swap2\n      pop\n      pop\n      jump\t// out\n        /* \"#utility.yul\":2439:2768   */\n    tag_41:\n        /* \"#utility.yul\":2498:2504   */\n      0x00\n        /* \"#utility.yul\":2547:2549   */\n      0x20\n        /* \"#utility.yul\":2535:2544   */\n      dup3\n        /* \"#utility.yul\":2526:2533   */\n      dup5\n        /* \"#utility.yul\":2522:2545   */\n      sub\n        /* \"#utility.yul\":2518:2550   */\n      slt\n        /* \"#utility.yul\":2515:2634   */\n      iszero\n      tag_270\n      jumpi\n        /* \"#utility.yul\":2553:2632   */\n      tag_271\n      tag_203\n      jump\t// in\n    tag_271:\n        /* \"#utility.yul\":2515:2634   */\n    tag_270:\n        /* \"#utility.yul\":2673:2674   */\n      0x00\n        /* \"#utility.yul\":2698:2751   */\n      tag_272\n        /* \"#utility.yul\":2743:2750   */\n      dup5\n        /* \"#utility.yul\":2734:2740   */\n      dup3\n        /* \"#utility.yul\":2723:2732   */\n      dup6\n        /* \"#utility.yul\":2719:2741   */\n      add\n        /* \"#utility.yul\":2698:2751   */\n      tag_211\n      jump\t// in\n    tag_272:\n        /* \"#utility.yul\":2688:2751   */\n      swap2\n      pop\n        /* \"#utility.yul\":2644:2761   */\n      pop\n        /* \"#utility.yul\":2439:2768   */\n      swap3\n      swap2\n      pop\n      pop\n      jump\t// out\n        /* \"#utility.yul\":2774:2892   */\n    tag_214:\n        /* \"#utility.yul\":2861:2885   */\n      tag_274\n        /* \"#utility.yul\":2879:2884   */\n      dup2\n        /* \"#utility.yul\":2861:2885   */\n      tag_205\n      jump\t// in\n    tag_274:\n        /* \"#utility.yul\":2856:2859   */\n      dup3\n        /* \"#utility.yul\":2849:2886   */\n      mstore\n        /* \"#utility.yul\":2774:2892   */\n      pop\n      pop\n      jump\t// out\n        /* \"#utility.yul\":2898:3120   */\n    tag_44:\n        /* \"#utility.yul\":2991:2995   */\n      0x00\n        /* \"#utility.yul\":3029:3031   */\n      0x20\n        /* \"#utility.yul\":3018:3027   */\n      dup3\n        /* \"#utility.yul\":3014:3032   */\n      add\n        /* \"#utility.yul\":3006:3032   */\n      swap1\n      pop\n        /* \"#utility.yul\":3042:3113   */\n      tag_276\n        /* \"#utility.yul\":3110:3111   */\n      0x00\n        /* \"#utility.yul\":3099:3108   */\n      dup4\n        /* \"#utility.yul\":3095:3112   */\n      add\n        /* \"#utility.yul\":3086:3092   */\n      dup5\n        /* \"#utility.yul\":3042:3113   */\n      tag_214\n      jump\t// in\n    tag_276:\n        /* \"#utility.yul\":2898:3120   */\n      swap3\n      swap2\n      pop\n      pop\n      jump\t// out\n        /* \"#utility.yul\":3126:3244   */\n    tag_215:\n        /* \"#utility.yul\":3213:3237   */\n      tag_278\n        /* \"#utility.yul\":3231:3236   */\n      dup2\n        /* \"#utility.yul\":3213:3237   */\n      tag_209\n      jump\t// in\n    tag_278:\n        /* \"#utility.yul\":3208:3211   */\n      dup3\n        /* \"#utility.yul\":3201:3238   */\n      mstore\n        /* \"#utility.yul\":3126:3244   */\n      pop\n      pop\n      jump\t// out\n        /* \"#utility.yul\":3250:3349   */\n    tag_216:\n        /* \"#utility.yul\":3302:3308   */\n      0x00\n        /* \"#utility.yul\":3336:3341   */\n      dup2\n        /* \"#utility.yul\":3330:3342   */\n      mload\n        /* \"#utility.yul\":3320:3342   */\n      swap1\n      pop\n        /* \"#utility.yul\":3250:3349   */\n      swap2\n      swap1\n      pop\n      jump\t// out\n        /* \"#utility.yul\":3355:3524   */\n    tag_217:\n        /* \"#utility.yul\":3439:3450   */\n      0x00\n        /* \"#utility.yul\":3473:3479   */\n      dup3\n        /* \"#utility.yul\":3468:3471   */\n      dup3\n        /* \"#utility.yul\":3461:3480   */\n      mstore\n        /* \"#utility.yul\":3513:3517   */\n      0x20\n        /* \"#utility.yul\":3508:3511   */\n      dup3\n        /* \"#utility.yul\":3504:3518   */\n      add\n        /* \"#utility.yul\":3489:3518   */\n      swap1\n      pop\n        /* \"#utility.yul\":3355:3524   */\n      swap3\n      swap2\n      pop\n      pop\n      jump\t// out\n        /* \"#utility.yul\":3530:3837   */\n    tag_218:\n        /* \"#utility.yul\":3598:3599   */\n      0x00\n        /* \"#utility.yul\":3608:3721   */\n    tag_282:\n        /* \"#utility.yul\":3622:3628   */\n      dup4\n        /* \"#utility.yul\":3619:3620   */\n      dup2\n        /* \"#utility.yul\":3616:3629   */\n      lt\n        /* \"#utility.yul\":3608:3721   */\n      iszero\n      tag_284\n      jumpi\n        /* \"#utility.yul\":3707:3708   */\n      dup1\n        /* \"#utility.yul\":3702:3705   */\n      dup3\n        /* \"#utility.yul\":3698:3709   */\n      add\n        /* \"#utility.yul\":3692:3710   */\n      mload\n        /* \"#utility.yul\":3688:3689   */\n      dup2\n        /* \"#utility.yul\":3683:3686   */\n      dup5\n        /* \"#utility.yul\":3679:3690   */\n      add\n        /* \"#utility.yul\":3672:3711   */\n      mstore\n        /* \"#utility.yul\":3644:3646   */\n      0x20\n        /* \"#utility.yul\":3641:3642   */\n      dup2\n        /* \"#utility.yul\":3637:3647   */\n      add\n        /* \"#utility.yul\":3632:3647   */\n      swap1\n      pop\n        /* \"#utility.yul\":3608:3721   */\n      jump(tag_282)\n    tag_284:\n        /* \"#utility.yul\":3739:3745   */\n      dup4\n        /* \"#utility.yul\":3736:3737   */\n      dup2\n        /* \"#utility.yul\":3733:3746   */\n      gt\n        /* \"#utility.yul\":3730:3831   */\n      iszero\n      tag_285\n      jumpi\n        /* \"#utility.yul\":3819:3820   */\n      0x00\n        /* \"#utility.yul\":3810:3816   */\n      dup5\n        /* \"#utility.yul\":3805:3808   */\n      dup5\n        /* \"#utility.yul\":3801:3817   */\n      add\n        /* \"#utility.yul\":3794:3821   */\n      mstore\n        /* \"#utility.yul\":3730:3831   */\n    tag_285:\n        /* \"#utility.yul\":3579:3837   */\n      pop\n        /* \"#utility.yul\":3530:3837   */\n      pop\n      pop\n      pop\n      jump\t// out\n        /* \"#utility.yul\":3843:3945   */\n    tag_219:\n        /* \"#utility.yul\":3884:3890   */\n      0x00\n        /* \"#utility.yul\":3935:3937   */\n      0x1f\n        /* \"#utility.yul\":3931:3938   */\n      not\n        /* \"#utility.yul\":3926:3928   */\n      0x1f\n        /* \"#utility.yul\":3919:3924   */\n      dup4\n        /* \"#utility.yul\":3915:3929   */\n      add\n        /* \"#utility.yul\":3911:3939   */\n      and\n        /* \"#utility.yul\":3901:3939   */\n      swap1\n      pop\n        /* \"#utility.yul\":3843:3945   */\n      swap2\n      swap1\n      pop\n      jump\t// out\n        /* \"#utility.yul\":3951:4315   */\n    tag_220:\n        /* \"#utility.yul\":4039:4042   */\n      0x00\n        /* \"#utility.yul\":4067:4106   */\n      tag_288\n        /* \"#utility.yul\":4100:4105   */\n      dup3\n        /* \"#utility.yul\":4067:4106   */\n      tag_216\n      jump\t// in\n    tag_288:\n        /* \"#utility.yul\":4122:4193   */\n      tag_289\n        /* \"#utility.yul\":4186:4192   */\n      dup2\n        /* \"#utility.yul\":4181:4184   */\n      dup6\n        /* \"#utility.yul\":4122:4193   */\n      tag_217\n      jump\t// in\n    tag_289:\n        /* \"#utility.yul\":4115:4193   */\n      swap4\n      pop\n        /* \"#utility.yul\":4202:4254   */\n      tag_290\n        /* \"#utility.yul\":4247:4253   */\n      dup2\n        /* \"#utility.yul\":4242:4245   */\n      dup6\n        /* \"#utility.yul\":4235:4239   */\n      0x20\n        /* \"#utility.yul\":4228:4233   */\n      dup7\n        /* \"#utility.yul\":4224:4240   */\n      add\n        /* \"#utility.yul\":4202:4254   */\n      tag_218\n      jump\t// in\n    tag_290:\n        /* \"#utility.yul\":4279:4308   */\n      tag_291\n        /* \"#utility.yul\":4301:4307   */\n      dup2\n        /* \"#utility.yul\":4279:4308   */\n      tag_219\n      jump\t// in\n    tag_291:\n        /* \"#utility.yul\":4274:4277   */\n      dup5\n        /* \"#utility.yul\":4270:4309   */\n      add\n        /* \"#utility.yul\":4263:4309   */\n      swap2\n      pop\n        /* \"#utility.yul\":4043:4315   */\n      pop\n        /* \"#utility.yul\":3951:4315   */\n      swap3\n      swap2\n      pop\n      pop\n      jump\t// out\n        /* \"#utility.yul\":4321:5702   */\n    tag_49:\n        /* \"#utility.yul\":4698:4702   */\n      0x00\n        /* \"#utility.yul\":4736:4739   */\n      0x0120\n        /* \"#utility.yul\":4725:4734   */\n      dup3\n        /* \"#utility.yul\":4721:4740   */\n      add\n        /* \"#utility.yul\":4713:4740   */\n      swap1\n      pop\n        /* \"#utility.yul\":4750:4821   */\n      tag_293\n        /* \"#utility.yul\":4818:4819   */\n      0x00\n        /* \"#utility.yul\":4807:4816   */\n      dup4\n        /* \"#utility.yul\":4803:4820   */\n      add\n        /* \"#utility.yul\":4794:4800   */\n      dup13\n        /* \"#utility.yul\":4750:4821   */\n      tag_214\n      jump\t// in\n    tag_293:\n        /* \"#utility.yul\":4831:4903   */\n      tag_294\n        /* \"#utility.yul\":4899:4901   */\n      0x20\n        /* \"#utility.yul\":4888:4897   */\n      dup4\n        /* \"#utility.yul\":4884:4902   */\n      add\n        /* \"#utility.yul\":4875:4881   */\n      dup12\n        /* \"#utility.yul\":4831:4903   */\n      tag_214\n      jump\t// in\n    tag_294:\n        /* \"#utility.yul\":4913:4985   */\n      tag_295\n        /* \"#utility.yul\":4981:4983   */\n      0x40\n        /* \"#utility.yul\":4970:4979   */\n      dup4\n        /* \"#utility.yul\":4966:4984   */\n      add\n        /* \"#utility.yul\":4957:4963   */\n      dup11\n        /* \"#utility.yul\":4913:4985   */\n      tag_214\n      jump\t// in\n    tag_295:\n        /* \"#utility.yul\":4995:5067   */\n      tag_296\n        /* \"#utility.yul\":5063:5065   */\n      0x60\n        /* \"#utility.yul\":5052:5061   */\n      dup4\n        /* \"#utility.yul\":5048:5066   */\n      add\n        /* \"#utility.yul\":5039:5045   */\n      dup10\n        /* \"#utility.yul\":4995:5067   */\n      tag_214\n      jump\t// in\n    tag_296:\n        /* \"#utility.yul\":5077:5150   */\n      tag_297\n        /* \"#utility.yul\":5145:5148   */\n      0x80\n        /* \"#utility.yul\":5134:5143   */\n      dup4\n        /* \"#utility.yul\":5130:5149   */\n      add\n        /* \"#utility.yul\":5121:5127   */\n      dup9\n        /* \"#utility.yul\":5077:5150   */\n      tag_215\n      jump\t// in\n    tag_297:\n        /* \"#utility.yul\":5198:5207   */\n      dup2\n        /* \"#utility.yul\":5192:5196   */\n      dup2\n        /* \"#utility.yul\":5188:5208   */\n      sub\n        /* \"#utility.yul\":5182:5185   */\n      0xa0\n        /* \"#utility.yul\":5171:5180   */\n      dup4\n        /* \"#utility.yul\":5167:5186   */\n      add\n        /* \"#utility.yul\":5160:5209   */\n      mstore\n        /* \"#utility.yul\":5226:5304   */\n      tag_298\n        /* \"#utility.yul\":5299:5303   */\n      dup2\n        /* \"#utility.yul\":5290:5296   */\n      dup8\n        /* \"#utility.yul\":5226:5304   */\n      tag_220\n      jump\t// in\n    tag_298:\n        /* \"#utility.yul\":5218:5304   */\n      swap1\n      pop\n        /* \"#utility.yul\":5352:5361   */\n      dup2\n        /* \"#utility.yul\":5346:5350   */\n      dup2\n        /* \"#utility.yul\":5342:5362   */\n      sub\n        /* \"#utility.yul\":5336:5339   */\n      0xc0\n        /* \"#utility.yul\":5325:5334   */\n      dup4\n        /* \"#utility.yul\":5321:5340   */\n      add\n        /* \"#utility.yul\":5314:5363   */\n      mstore\n        /* \"#utility.yul\":5380:5458   */\n      tag_299\n        /* \"#utility.yul\":5453:5457   */\n      dup2\n        /* \"#utility.yul\":5444:5450   */\n      dup7\n        /* \"#utility.yul\":5380:5458   */\n      tag_220\n      jump\t// in\n    tag_299:\n        /* \"#utility.yul\":5372:5458   */\n      swap1\n      pop\n        /* \"#utility.yul\":5468:5541   */\n      tag_300\n        /* \"#utility.yul\":5536:5539   */\n      0xe0\n        /* \"#utility.yul\":5525:5534   */\n      dup4\n        /* \"#utility.yul\":5521:5540   */\n      add\n        /* \"#utility.yul\":5512:5518   */\n      dup6\n        /* \"#utility.yul\":5468:5541   */\n      tag_214\n      jump\t// in\n    tag_300:\n        /* \"#utility.yul\":5589:5598   */\n      dup2\n        /* \"#utility.yul\":5583:5587   */\n      dup2\n        /* \"#utility.yul\":5579:5599   */\n      sub\n        /* \"#utility.yul\":5573:5576   */\n      0x0100\n        /* \"#utility.yul\":5562:5571   */\n      dup4\n        /* \"#utility.yul\":5558:5577   */\n      add\n        /* \"#utility.yul\":5551:5600   */\n      mstore\n        /* \"#utility.yul\":5617:5695   */\n      tag_301\n        /* \"#utility.yul\":5690:5694   */\n      dup2\n        /* \"#utility.yul\":5681:5687   */\n      dup5\n        /* \"#utility.yul\":5617:5695   */\n      tag_220\n      jump\t// in\n    tag_301:\n        /* \"#utility.yul\":5609:5695   */\n      swap1\n      pop\n        /* \"#utility.yul\":4321:5702   */\n      swap11\n      swap10\n      pop\n      pop\n      pop\n      pop\n      pop\n      pop\n      pop\n      pop\n      pop\n      pop\n      jump\t// out\n        /* \"#utility.yul\":5708:5930   */\n    tag_54:\n        /* \"#utility.yul\":5801:5805   */\n      0x00\n        /* \"#utility.yul\":5839:5841   */\n      0x20\n        /* \"#utility.yul\":5828:5837   */\n      dup3\n        /* \"#utility.yul\":5824:5842   */\n      add\n        /* \"#utility.yul\":5816:5842   */\n      swap1\n      pop\n        /* \"#utility.yul\":5852:5923   */\n      tag_303\n        /* \"#utility.yul\":5920:5921   */\n      0x00\n        /* \"#utility.yul\":5909:5918   */\n      dup4\n        /* \"#utility.yul\":5905:5922   */\n      add\n        /* \"#utility.yul\":5896:5902   */\n      dup5\n        /* \"#utility.yul\":5852:5923   */\n      tag_215\n      jump\t// in\n    tag_303:\n        /* \"#utility.yul\":5708:5930   */\n      swap3\n      swap2\n      pop\n      pop\n      jump\t// out\n        /* \"#utility.yul\":5936:6040   */\n    tag_221:\n        /* \"#utility.yul\":5981:5988   */\n      0x00\n        /* \"#utility.yul\":6010:6034   */\n      tag_305\n        /* \"#utility.yul\":6028:6033   */\n      dup3\n        /* \"#utility.yul\":6010:6034   */\n      tag_208\n      jump\t// in\n    tag_305:\n        /* \"#utility.yul\":5999:6034   */\n      swap1\n      pop\n        /* \"#utility.yul\":5936:6040   */\n      swap2\n      swap1\n      pop\n      jump\t// out\n        /* \"#utility.yul\":6046:6188   */\n    tag_222:\n        /* \"#utility.yul\":6149:6181   */\n      tag_307\n        /* \"#utility.yul\":6175:6180   */\n      dup2\n        /* \"#utility.yul\":6149:6181   */\n      tag_221\n      jump\t// in\n    tag_307:\n        /* \"#utility.yul\":6144:6147   */\n      dup3\n        /* \"#utility.yul\":6137:6182   */\n      mstore\n        /* \"#utility.yul\":6046:6188   */\n      pop\n      pop\n      jump\t// out\n        /* \"#utility.yul\":6194:6448   */\n    tag_60:\n        /* \"#utility.yul\":6303:6307   */\n      0x00\n        /* \"#utility.yul\":6341:6343   */\n      0x20\n        /* \"#utility.yul\":6330:6339   */\n      dup3\n        /* \"#utility.yul\":6326:6344   */\n      add\n        /* \"#utility.yul\":6318:6344   */\n      swap1\n      pop\n        /* \"#utility.yul\":6354:6441   */\n      tag_309\n        /* \"#utility.yul\":6438:6439   */\n      0x00\n        /* \"#utility.yul\":6427:6436   */\n      dup4\n        /* \"#utility.yul\":6423:6440   */\n      add\n        /* \"#utility.yul\":6414:6420   */\n      dup5\n        /* \"#utility.yul\":6354:6441   */\n      tag_222\n      jump\t// in\n    tag_309:\n        /* \"#utility.yul\":6194:6448   */\n      swap3\n      swap2\n      pop\n      pop\n      jump\t// out\n        /* \"#utility.yul\":6454:7229   */\n    tag_75:\n        /* \"#utility.yul\":6689:6693   */\n      0x00\n        /* \"#utility.yul\":6727:6730   */\n      0xa0\n        /* \"#utility.yul\":6716:6725   */\n      dup3\n        /* \"#utility.yul\":6712:6731   */\n      add\n        /* \"#utility.yul\":6704:6731   */\n      swap1\n      pop\n        /* \"#utility.yul\":6777:6786   */\n      dup2\n        /* \"#utility.yul\":6771:6775   */\n      dup2\n        /* \"#utility.yul\":6767:6787   */\n      sub\n        /* \"#utility.yul\":6763:6764   */\n      0x00\n        /* \"#utility.yul\":6752:6761   */\n      dup4\n        /* \"#utility.yul\":6748:6765   */\n      add\n        /* \"#utility.yul\":6741:6788   */\n      mstore\n        /* \"#utility.yul\":6805:6883   */\n      tag_311\n        /* \"#utility.yul\":6878:6882   */\n      dup2\n        /* \"#utility.yul\":6869:6875   */\n      dup9\n        /* \"#utility.yul\":6805:6883   */\n      tag_220\n      jump\t// in\n    tag_311:\n        /* \"#utility.yul\":6797:6883   */\n      swap1\n      pop\n        /* \"#utility.yul\":6893:6965   */\n      tag_312\n        /* \"#utility.yul\":6961:6963   */\n      0x20\n        /* \"#utility.yul\":6950:6959   */\n      dup4\n        /* \"#utility.yul\":6946:6964   */\n      add\n        /* \"#utility.yul\":6937:6943   */\n      dup8\n        /* \"#utility.yul\":6893:6965   */\n      tag_214\n      jump\t// in\n    tag_312:\n        /* \"#utility.yul\":6975:7063   */\n      tag_313\n        /* \"#utility.yul\":7059:7061   */\n      0x40\n        /* \"#utility.yul\":7048:7057   */\n      dup4\n        /* \"#utility.yul\":7044:7062   */\n      add\n        /* \"#utility.yul\":7035:7041   */\n      dup7\n        /* \"#utility.yul\":6975:7063   */\n      tag_222\n      jump\t// in\n    tag_313:\n        /* \"#utility.yul\":7073:7139   */\n      tag_314\n        /* \"#utility.yul\":7135:7137   */\n      0x60\n        /* \"#utility.yul\":7124:7133   */\n      dup4\n        /* \"#utility.yul\":7120:7138   */\n      add\n        /* \"#utility.yul\":7111:7117   */\n      dup6\n        /* \"#utility.yul\":7073:7139   */\n      tag_213\n      jump\t// in\n    tag_314:\n        /* \"#utility.yul\":7149:7222   */\n      tag_315\n        /* \"#utility.yul\":7217:7220   */\n      0x80\n        /* \"#utility.yul\":7206:7215   */\n      dup4\n        /* \"#utility.yul\":7202:7221   */\n      add\n        /* \"#utility.yul\":7193:7199   */\n      dup5\n        /* \"#utility.yul\":7149:7222   */\n      tag_214\n      jump\t// in\n    tag_315:\n        /* \"#utility.yul\":6454:7229   */\n      swap7\n      swap6\n      pop\n      pop\n      pop\n      pop\n      pop\n      pop\n      jump\t// out\n        /* \"#utility.yul\":7235:7352   */\n    tag_223:\n        /* \"#utility.yul\":7344:7345   */\n      0x00\n        /* \"#utility.yul\":7341:7342   */\n      dup1\n        /* \"#utility.yul\":7334:7346   */\n      revert\n        /* \"#utility.yul\":7358:7475   */\n    tag_224:\n        /* \"#utility.yul\":7467:7468   */\n      0x00\n        /* \"#utility.yul\":7464:7465   */\n      dup1\n        /* \"#utility.yul\":7457:7469   */\n      revert\n        /* \"#utility.yul\":7481:7661   */\n    tag_225:\n        /* \"#utility.yul\":7529:7606   */\n      0x4e487b7100000000000000000000000000000000000000000000000000000000\n        /* \"#utility.yul\":7526:7527   */\n      0x00\n        /* \"#utility.yul\":7519:7607   */\n      mstore\n        /* \"#utility.yul\":7626:7630   */\n      0x41\n        /* \"#utility.yul\":7623:7624   */\n      0x04\n        /* \"#utility.yul\":7616:7631   */\n      mstore\n        /* \"#utility.yul\":7650:7654   */\n      0x24\n        /* \"#utility.yul\":7647:7648   */\n      0x00\n        /* \"#utility.yul\":7640:7655   */\n      revert\n        /* \"#utility.yul\":7667:7948   */\n    tag_226:\n        /* \"#utility.yul\":7750:7777   */\n      tag_320\n        /* \"#utility.yul\":7772:7776   */\n      dup3\n        /* \"#utility.yul\":7750:7777   */\n      tag_219\n      jump\t// in\n    tag_320:\n        /* \"#utility.yul\":7742:7748   */\n      dup2\n        /* \"#utility.yul\":7738:7778   */\n      add\n        /* \"#utility.yul\":7880:7886   */\n      dup2\n        /* \"#utility.yul\":7868:7878   */\n      dup2\n        /* \"#utility.yul\":7865:7887   */\n      lt\n        /* \"#utility.yul\":7844:7862   */\n      0xffffffffffffffff\n        /* \"#utility.yul\":7832:7842   */\n      dup3\n        /* \"#utility.yul\":7829:7863   */\n      gt\n        /* \"#utility.yul\":7826:7888   */\n      or\n        /* \"#utility.yul\":7823:7911   */\n      iszero\n      tag_321\n      jumpi\n        /* \"#utility.yul\":7891:7909   */\n      tag_322\n      tag_225\n      jump\t// in\n    tag_322:\n        /* \"#utility.yul\":7823:7911   */\n    tag_321:\n        /* \"#utility.yul\":7931:7941   */\n      dup1\n        /* \"#utility.yul\":7927:7929   */\n      0x40\n        /* \"#utility.yul\":7920:7942   */\n      mstore\n        /* \"#utility.yul\":7710:7948   */\n      pop\n        /* \"#utility.yul\":7667:7948   */\n      pop\n      pop\n      jump\t// out\n        /* \"#utility.yul\":7954:8083   */\n    tag_227:\n        /* \"#utility.yul\":7988:7994   */\n      0x00\n        /* \"#utility.yul\":8015:8035   */\n      tag_324\n      tag_202\n      jump\t// in\n    tag_324:\n        /* \"#utility.yul\":8005:8035   */\n      swap1\n      pop\n        /* \"#utility.yul\":8044:8077   */\n      tag_325\n        /* \"#utility.yul\":8072:8076   */\n      dup3\n        /* \"#utility.yul\":8064:8070   */\n      dup3\n        /* \"#utility.yul\":8044:8077   */\n      tag_226\n      jump\t// in\n    tag_325:\n        /* \"#utility.yul\":7954:8083   */\n      swap2\n      swap1\n      pop\n      jump\t// out\n        /* \"#utility.yul\":8089:8397   */\n    tag_228:\n        /* \"#utility.yul\":8151:8155   */\n      0x00\n        /* \"#utility.yul\":8241:8259   */\n      0xffffffffffffffff\n        /* \"#utility.yul\":8233:8239   */\n      dup3\n        /* \"#utility.yul\":8230:8260   */\n      gt\n        /* \"#utility.yul\":8227:8283   */\n      iszero\n      tag_327\n      jumpi\n        /* \"#utility.yul\":8263:8281   */\n      tag_328\n      tag_225\n      jump\t// in\n    tag_328:\n        /* \"#utility.yul\":8227:8283   */\n    tag_327:\n        /* \"#utility.yul\":8301:8330   */\n      tag_329\n        /* \"#utility.yul\":8323:8329   */\n      dup3\n        /* \"#utility.yul\":8301:8330   */\n      tag_219\n      jump\t// in\n    tag_329:\n        /* \"#utility.yul\":8293:8330   */\n      swap1\n      pop\n        /* \"#utility.yul\":8385:8389   */\n      0x20\n        /* \"#utility.yul\":8379:8383   */\n      dup2\n        /* \"#utility.yul\":8375:8390   */\n      add\n        /* \"#utility.yul\":8367:8390   */\n      swap1\n      pop\n        /* \"#utility.yul\":8089:8397   */\n      swap2\n      swap1\n      pop\n      jump\t// out\n        /* \"#utility.yul\":8403:8557   */\n    tag_229:\n        /* \"#utility.yul\":8487:8493   */\n      dup3\n        /* \"#utility.yul\":8482:8485   */\n      dup2\n        /* \"#utility.yul\":8477:8480   */\n      dup4\n        /* \"#utility.yul\":8464:8494   */\n      calldatacopy\n        /* \"#utility.yul\":8549:8550   */\n      0x00\n        /* \"#utility.yul\":8540:8546   */\n      dup4\n        /* \"#utility.yul\":8535:8538   */\n      dup4\n        /* \"#utility.yul\":8531:8547   */\n      add\n        /* \"#utility.yul\":8524:8551   */\n      mstore\n        /* \"#utility.yul\":8403:8557   */\n      pop\n      pop\n      pop\n      jump\t// out\n        /* \"#utility.yul\":8563:8975   */\n    tag_230:\n        /* \"#utility.yul\":8641:8646   */\n      0x00\n        /* \"#utility.yul\":8666:8732   */\n      tag_332\n        /* \"#utility.yul\":8682:8731   */\n      tag_333\n        /* \"#utility.yul\":8724:8730   */\n      dup5\n        /* \"#utility.yul\":8682:8731   */\n      tag_228\n      jump\t// in\n    tag_333:\n        /* \"#utility.yul\":8666:8732   */\n      tag_227\n      jump\t// in\n    tag_332:\n        /* \"#utility.yul\":8657:8732   */\n      swap1\n      pop\n        /* \"#utility.yul\":8755:8761   */\n      dup3\n        /* \"#utility.yul\":8748:8753   */\n      dup2\n        /* \"#utility.yul\":8741:8762   */\n      mstore\n        /* \"#utility.yul\":8793:8797   */\n      0x20\n        /* \"#utility.yul\":8786:8791   */\n      dup2\n        /* \"#utility.yul\":8782:8798   */\n      add\n        /* \"#utility.yul\":8831:8834   */\n      dup5\n        /* \"#utility.yul\":8822:8828   */\n      dup5\n        /* \"#utility.yul\":8817:8820   */\n      dup5\n        /* \"#utility.yul\":8813:8829   */\n      add\n        /* \"#utility.yul\":8810:8835   */\n      gt\n        /* \"#utility.yul\":8807:8919   */\n      iszero\n      tag_334\n      jumpi\n        /* \"#utility.yul\":8838:8917   */\n      tag_335\n      tag_224\n      jump\t// in\n    tag_335:\n        /* \"#utility.yul\":8807:8919   */\n    tag_334:\n        /* \"#utility.yul\":8928:8969   */\n      tag_336\n        /* \"#utility.yul\":8962:8968   */\n      dup5\n        /* \"#utility.yul\":8957:8960   */\n      dup3\n        /* \"#utility.yul\":8952:8955   */\n      dup6\n        /* \"#utility.yul\":8928:8969   */\n      tag_229\n      jump\t// in\n    tag_336:\n        /* \"#utility.yul\":8647:8975   */\n      pop\n        /* \"#utility.yul\":8563:8975   */\n      swap4\n      swap3\n      pop\n      pop\n      pop\n      jump\t// out\n        /* \"#utility.yul\":8995:9335   */\n    tag_231:\n        /* \"#utility.yul\":9051:9056   */\n      0x00\n        /* \"#utility.yul\":9100:9103   */\n      dup3\n        /* \"#utility.yul\":9093:9097   */\n      0x1f\n        /* \"#utility.yul\":9085:9091   */\n      dup4\n        /* \"#utility.yul\":9081:9098   */\n      add\n        /* \"#utility.yul\":9077:9104   */\n      slt\n        /* \"#utility.yul\":9067:9189   */\n      tag_338\n      jumpi\n        /* \"#utility.yul\":9108:9187   */\n      tag_339\n      tag_223\n      jump\t// in\n    tag_339:\n        /* \"#utility.yul\":9067:9189   */\n    tag_338:\n        /* \"#utility.yul\":9225:9231   */\n      dup2\n        /* \"#utility.yul\":9212:9232   */\n      calldataload\n        /* \"#utility.yul\":9250:9329   */\n      tag_340\n        /* \"#utility.yul\":9325:9328   */\n      dup5\n        /* \"#utility.yul\":9317:9323   */\n      dup3\n        /* \"#utility.yul\":9310:9314   */\n      0x20\n        /* \"#utility.yul\":9302:9308   */\n      dup7\n        /* \"#utility.yul\":9298:9315   */\n      add\n        /* \"#utility.yul\":9250:9329   */\n      tag_230\n      jump\t// in\n    tag_340:\n        /* \"#utility.yul\":9241:9329   */\n      swap2\n      pop\n        /* \"#utility.yul\":9057:9335   */\n      pop\n        /* \"#utility.yul\":8995:9335   */\n      swap3\n      swap2\n      pop\n      pop\n      jump\t// out\n        /* \"#utility.yul\":9341:9479   */\n    tag_232:\n        /* \"#utility.yul\":9422:9454   */\n      tag_342\n        /* \"#utility.yul\":9448:9453   */\n      dup2\n        /* \"#utility.yul\":9422:9454   */\n      tag_221\n      jump\t// in\n    tag_342:\n        /* \"#utility.yul\":9415:9420   */\n      dup2\n        /* \"#utility.yul\":9412:9455   */\n      eq\n        /* \"#utility.yul\":9402:9473   */\n      tag_343\n      jumpi\n        /* \"#utility.yul\":9469:9470   */\n      0x00\n        /* \"#utility.yul\":9466:9467   */\n      dup1\n        /* \"#utility.yul\":9459:9471   */\n      revert\n        /* \"#utility.yul\":9402:9473   */\n    tag_343:\n        /* \"#utility.yul\":9341:9479   */\n      pop\n      jump\t// out\n        /* \"#utility.yul\":9485:9640   */\n    tag_233:\n        /* \"#utility.yul\":9539:9544   */\n      0x00\n        /* \"#utility.yul\":9577:9583   */\n      dup2\n        /* \"#utility.yul\":9564:9584   */\n      calldataload\n        /* \"#utility.yul\":9555:9584   */\n      swap1\n      pop\n        /* \"#utility.yul\":9593:9634   */\n      tag_345\n        /* \"#utility.yul\":9628:9633   */\n      dup2\n        /* \"#utility.yul\":9593:9634   */\n      tag_232\n      jump\t// in\n    tag_345:\n        /* \"#utility.yul\":9485:9640   */\n      swap3\n      swap2\n      pop\n      pop\n      jump\t// out\n        /* \"#utility.yul\":9646:10461   */\n    tag_79:\n        /* \"#utility.yul\":9741:9747   */\n      0x00\n        /* \"#utility.yul\":9749:9755   */\n      dup1\n        /* \"#utility.yul\":9757:9763   */\n      0x00\n        /* \"#utility.yul\":9806:9808   */\n      0x60\n        /* \"#utility.yul\":9794:9803   */\n      dup5\n        /* \"#utility.yul\":9785:9792   */\n      dup7\n        /* \"#utility.yul\":9781:9804   */\n      sub\n        /* \"#utility.yul\":9777:9809   */\n      slt\n        /* \"#utility.yul\":9774:9893   */\n      iszero\n      tag_347\n      jumpi\n        /* \"#utility.yul\":9812:9891   */\n      tag_348\n      tag_203\n      jump\t// in\n    tag_348:\n        /* \"#utility.yul\":9774:9893   */\n    tag_347:\n        /* \"#utility.yul\":9960:9961   */\n      0x00\n        /* \"#utility.yul\":9949:9958   */\n      dup5\n        /* \"#utility.yul\":9945:9962   */\n      add\n        /* \"#utility.yul\":9932:9963   */\n      calldataload\n        /* \"#utility.yul\":9990:10008   */\n      0xffffffffffffffff\n        /* \"#utility.yul\":9982:9988   */\n      dup2\n        /* \"#utility.yul\":9979:10009   */\n      gt\n        /* \"#utility.yul\":9976:10093   */\n      iszero\n      tag_349\n      jumpi\n        /* \"#utility.yul\":10012:10091   */\n      tag_350\n      tag_204\n      jump\t// in\n    tag_350:\n        /* \"#utility.yul\":9976:10093   */\n    tag_349:\n        /* \"#utility.yul\":10117:10180   */\n      tag_351\n        /* \"#utility.yul\":10172:10179   */\n      dup7\n        /* \"#utility.yul\":10163:10169   */\n      dup3\n        /* \"#utility.yul\":10152:10161   */\n      dup8\n        /* \"#utility.yul\":10148:10170   */\n      add\n        /* \"#utility.yul\":10117:10180   */\n      tag_231\n      jump\t// in\n    tag_351:\n        /* \"#utility.yul\":10107:10180   */\n      swap4\n      pop\n        /* \"#utility.yul\":9903:10190   */\n      pop\n        /* \"#utility.yul\":10229:10231   */\n      0x20\n        /* \"#utility.yul\":10255:10308   */\n      tag_352\n        /* \"#utility.yul\":10300:10307   */\n      dup7\n        /* \"#utility.yul\":10291:10297   */\n      dup3\n        /* \"#utility.yul\":10280:10289   */\n      dup8\n        /* \"#utility.yul\":10276:10298   */\n      add\n        /* \"#utility.yul\":10255:10308   */\n      tag_207\n      jump\t// in\n    tag_352:\n        /* \"#utility.yul\":10245:10308   */\n      swap3\n      pop\n        /* \"#utility.yul\":10200:10318   */\n      pop\n        /* \"#utility.yul\":10357:10359   */\n      0x40\n        /* \"#utility.yul\":10383:10444   */\n      tag_353\n        /* \"#utility.yul\":10436:10443   */\n      dup7\n        /* \"#utility.yul\":10427:10433   */\n      dup3\n        /* \"#utility.yul\":10416:10425   */\n      dup8\n        /* \"#utility.yul\":10412:10434   */\n      add\n        /* \"#utility.yul\":10383:10444   */\n      tag_233\n      jump\t// in\n    tag_353:\n        /* \"#utility.yul\":10373:10444   */\n      swap2\n      pop\n        /* \"#utility.yul\":10328:10454   */\n      pop\n        /* \"#utility.yul\":9646:10461   */\n      swap3\n      pop\n      swap3\n      pop\n      swap3\n      jump\t// out\n        /* \"#utility.yul\":10467:10780   */\n    tag_89:\n        /* \"#utility.yul\":10580:10584   */\n      0x00\n        /* \"#utility.yul\":10618:10620   */\n      0x20\n        /* \"#utility.yul\":10607:10616   */\n      dup3\n        /* \"#utility.yul\":10603:10621   */\n      add\n        /* \"#utility.yul\":10595:10621   */\n      swap1\n      pop\n        /* \"#utility.yul\":10667:10676   */\n      dup2\n        /* \"#utility.yul\":10661:10665   */\n      dup2\n        /* \"#utility.yul\":10657:10677   */\n      sub\n        /* \"#utility.yul\":10653:10654   */\n      0x00\n        /* \"#utility.yul\":10642:10651   */\n      dup4\n        /* \"#utility.yul\":10638:10655   */\n      add\n        /* \"#utility.yul\":10631:10678   */\n      mstore\n        /* \"#utility.yul\":10695:10773   */\n      tag_355\n        /* \"#utility.yul\":10768:10772   */\n      dup2\n        /* \"#utility.yul\":10759:10765   */\n      dup5\n        /* \"#utility.yul\":10695:10773   */\n      tag_220\n      jump\t// in\n    tag_355:\n        /* \"#utility.yul\":10687:10773   */\n      swap1\n      pop\n        /* \"#utility.yul\":10467:10780   */\n      swap3\n      swap2\n      pop\n      pop\n      jump\t// out\n        /* \"#utility.yul\":10786:10966   */\n    tag_234:\n        /* \"#utility.yul\":10834:10911   */\n      0x4e487b7100000000000000000000000000000000000000000000000000000000\n        /* \"#utility.yul\":10831:10832   */\n      0x00\n        /* \"#utility.yul\":10824:10912   */\n      mstore\n        /* \"#utility.yul\":10931:10935   */\n      0x12\n        /* \"#utility.yul\":10928:10929   */\n      0x04\n        /* \"#utility.yul\":10921:10936   */\n      mstore\n        /* \"#utility.yul\":10955:10959   */\n      0x24\n        /* \"#utility.yul\":10952:10953   */\n      0x00\n        /* \"#utility.yul\":10945:10960   */\n      revert\n        /* \"#utility.yul\":10972:11152   */\n    tag_235:\n        /* \"#utility.yul\":11020:11097   */\n      0x4e487b7100000000000000000000000000000000000000000000000000000000\n        /* \"#utility.yul\":11017:11018   */\n      0x00\n        /* \"#utility.yul\":11010:11098   */\n      mstore\n        /* \"#utility.yul\":11117:11121   */\n      0x11\n        /* \"#utility.yul\":11114:11115   */\n      0x04\n        /* \"#utility.yul\":11107:11122   */\n      mstore\n        /* \"#utility.yul\":11141:11145   */\n      0x24\n        /* \"#utility.yul\":11138:11139   */\n      0x00\n        /* \"#utility.yul\":11131:11146   */\n      revert\n        /* \"#utility.yul\":11158:11343   */\n    tag_116:\n        /* \"#utility.yul\":11198:11199   */\n      0x00\n        /* \"#utility.yul\":11215:11235   */\n      tag_359\n        /* \"#utility.yul\":11233:11234   */\n      dup3\n        /* \"#utility.yul\":11215:11235   */\n      tag_205\n      jump\t// in\n    tag_359:\n        /* \"#utility.yul\":11210:11235   */\n      swap2\n      pop\n        /* \"#utility.yul\":11249:11269   */\n      tag_360\n        /* \"#utility.yul\":11267:11268   */\n      dup4\n        /* \"#utility.yul\":11249:11269   */\n      tag_205\n      jump\t// in\n    tag_360:\n        /* \"#utility.yul\":11244:11269   */\n      swap3\n      pop\n        /* \"#utility.yul\":11288:11289   */\n      dup3\n        /* \"#utility.yul\":11278:11313   */\n      tag_361\n      jumpi\n        /* \"#utility.yul\":11293:11311   */\n      tag_362\n      tag_234\n      jump\t// in\n    tag_362:\n        /* \"#utility.yul\":11278:11313   */\n    tag_361:\n        /* \"#utility.yul\":11335:11336   */\n      dup3\n        /* \"#utility.yul\":11332:11333   */\n      dup3\n        /* \"#utility.yul\":11328:11337   */\n      div\n        /* \"#utility.yul\":11323:11337   */\n      swap1\n      pop\n        /* \"#utility.yul\":11158:11343   */\n      swap3\n      swap2\n      pop\n      pop\n      jump\t// out\n        /* \"#utility.yul\":11349:11529   */\n    tag_127:\n        /* \"#utility.yul\":11397:11474   */\n      0x4e487b7100000000000000000000000000000000000000000000000000000000\n        /* \"#utility.yul\":11394:11395   */\n      0x00\n        /* \"#utility.yul\":11387:11475   */\n      mstore\n        /* \"#utility.yul\":11494:11498   */\n      0x32\n        /* \"#utility.yul\":11491:11492   */\n      0x04\n        /* \"#utility.yul\":11484:11499   */\n      mstore\n        /* \"#utility.yul\":11518:11522   */\n      0x24\n        /* \"#utility.yul\":11515:11516   */\n      0x00\n        /* \"#utility.yul\":11508:11523   */\n      revert\n        /* \"#utility.yul\":11535:11768   */\n    tag_135:\n        /* \"#utility.yul\":11574:11577   */\n      0x00\n        /* \"#utility.yul\":11597:11621   */\n      tag_365\n        /* \"#utility.yul\":11615:11620   */\n      dup3\n        /* \"#utility.yul\":11597:11621   */\n      tag_205\n      jump\t// in\n    tag_365:\n        /* \"#utility.yul\":11588:11621   */\n      swap2\n      pop\n        /* \"#utility.yul\":11643:11709   */\n      0xffffffffffffffffffffffffffffffffffffffffffffffffffffffffffffffff\n        /* \"#utility.yul\":11636:11641   */\n      dup3\n        /* \"#utility.yul\":11633:11710   */\n      eq\n        /* \"#utility.yul\":11630:11733   */\n      iszero\n      tag_366\n      jumpi\n        /* \"#utility.yul\":11713:11731   */\n      tag_367\n      tag_235\n      jump\t// in\n    tag_367:\n        /* \"#utility.yul\":11630:11733   */\n    tag_366:\n        /* \"#utility.yul\":11760:11761   */\n      0x01\n        /* \"#utility.yul\":11753:11758   */\n      dup3\n        /* \"#utility.yul\":11749:11762   */\n      add\n        /* \"#utility.yul\":11742:11762   */\n      swap1\n      pop\n        /* \"#utility.yul\":11535:11768   */\n      swap2\n      swap1\n      pop\n      jump\t// out\n        /* \"#utility.yul\":11774:11954   */\n    tag_236:\n        /* \"#utility.yul\":11822:11899   */\n      0x4e487b7100000000000000000000000000000000000000000000000000000000\n        /* \"#utility.yul\":11819:11820   */\n      0x00\n        /* \"#utility.yul\":11812:11900   */\n      mstore\n        /* \"#utility.yul\":11919:11923   */\n      0x22\n        /* \"#utility.yul\":11916:11917   */\n      0x04\n        /* \"#utility.yul\":11909:11924   */\n      mstore\n        /* \"#utility.yul\":11943:11947   */\n      0x24\n        /* \"#utility.yul\":11940:11941   */\n      0x00\n        /* \"#utility.yul\":11933:11948   */\n      revert\n        /* \"#utility.yul\":11960:12280   */\n    tag_139:\n        /* \"#utility.yul\":12004:12010   */\n      0x00\n        /* \"#utility.yul\":12041:12042   */\n      0x02\n        /* \"#utility.yul\":12035:12039   */\n      dup3\n        /* \"#utility.yul\":12031:12043   */\n      div\n        /* \"#utility.yul\":12021:12043   */\n      swap1\n      pop\n        /* \"#utility.yul\":12088:12089   */\n      0x01\n        /* \"#utility.yul\":12082:12086   */\n      dup3\n        /* \"#utility.yul\":12078:12090   */\n      and\n        /* \"#utility.yul\":12109:12127   */\n      dup1\n        /* \"#utility.yul\":12099:12180   */\n      tag_370\n      jumpi\n        /* \"#utility.yul\":12165:12169   */\n      0x7f\n        /* \"#utility.yul\":12157:12163   */\n      dup3\n        /* \"#utility.yul\":12153:12170   */\n      and\n        /* \"#utility.yul\":12143:12170   */\n      swap2\n      pop\n        /* \"#utility.yul\":12099:12180   */\n    tag_370:\n        /* \"#utility.yul\":12227:12229   */\n      0x20\n        /* \"#utility.yul\":12219:12225   */\n      dup3\n        /* \"#utility.yul\":12216:12230   */\n      lt\n        /* \"#utility.yul\":12196:12214   */\n      dup2\n        /* \"#utility.yul\":12193:12231   */\n      eq\n        /* \"#utility.yul\":12190:12274   */\n      iszero\n      tag_371\n      jumpi\n        /* \"#utility.yul\":12246:12264   */\n      tag_372\n      tag_236\n      jump\t// in\n    tag_372:\n        /* \"#utility.yul\":12190:12274   */\n    tag_371:\n        /* \"#utility.yul\":12011:12280   */\n      pop\n        /* \"#utility.yul\":11960:12280   */\n      swap2\n      swap1\n      pop\n      jump\t// out\n\n    auxdata: 0xa2646970667358221220a32240b99e540e03ea81c442c04391b182741579bc90c137b4f4be4fb1633f7564736f6c63430008090033\n}\n","bytecode":{"linkReferences":{},"object":"60806040523480156200001157600080fd5b5060405162001d9f38038062001d9f8339818101604052810190620000379190620003c9565b846000806101000a81548173ffffffffffffffffffffffffffffffffffffffff021916908373ffffffffffffffffffffffffffffffffffffffff16021790555085600581905550836001908051906020019062000096929190620000dc565b508260029080519060200190620000af929190620000dc565b50806004819055508160039080519060200190620000cf929190620000dc565b5050505050505062000527565b828054620000ea90620004f1565b90600052602060002090601f0160209004810192826200010e57600085556200015a565b82601f106200012957805160ff19168380011785556200015a565b828001600101855582156200015a579182015b82811115620001595782518255916020019190600101906200013c565b5b5090506200016991906200016d565b5090565b5b80821115620001885760008160009055506001016200016e565b5090565b6000604051905090565b600080fd5b600080fd5b6000819050919050565b620001b581620001a0565b8114620001c157600080fd5b50565b600081519050620001d581620001aa565b92915050565b600073ffffffffffffffffffffffffffffffffffffffff82169050919050565b60006200020882620001db565b9050919050565b6200021a81620001fb565b81146200022657600080fd5b50565b6000815190506200023a816200020f565b92915050565b600080fd5b600080fd5b6000601f19601f8301169050919050565b7f4e487b7100000000000000000000000000000000000000000000000000000000600052604160045260246000fd5b62000295826200024a565b810181811067ffffffffffffffff82111715620002b757620002b66200025b565b5b80604052505050565b6000620002cc6200018c565b9050620002da82826200028a565b919050565b600067ffffffffffffffff821115620002fd57620002fc6200025b565b5b62000308826200024a565b9050602081019050919050565b60005b838110156200033557808201518184015260208101905062000318565b8381111562000345576000848401525b50505050565b6000620003626200035c84620002df565b620002c0565b90508281526020810184848401111562000381576200038062000245565b5b6200038e84828562000315565b509392505050565b600082601f830112620003ae57620003ad62000240565b5b8151620003c08482602086016200034b565b91505092915050565b60008060008060008060c08789031215620003e957620003e862000196565b5b6000620003f989828a01620001c4565b96505060206200040c89828a0162000229565b955050604087015167ffffffffffffffff81111562000430576200042f6200019b565b5b6200043e89828a0162000396565b945050606087015167ffffffffffffffff8111156200046257620004616200019b565b5b6200047089828a0162000396565b935050608087015167ffffffffffffffff8111156200049457620004936200019b565b5b620004a289828a0162000396565b92505060a0620004b589828a01620001c4565b9150509295509295509295565b7f4e487b7100000000000000000000000000000000000000000000000000000000600052602260045260246000fd5b600060028204905060018216806200050a57607f821691505b60208210811415620005215762000520620004c2565b5b50919050565b61186880620005376000396000f3fe6080604052600436106101145760003560e01c806381d12c58116100a0578063b90497e011610064578063b90497e0146103b4578063d3087b57146103df578063d7bb99ba1461040a578063d7d1bbdb14610414578063eb7b13121461043d57610114565b806381d12c58146102c95780638a9cfd551461030a578063937e09b1146103335780639a33e3001461035e5780639fb42b1f1461038957610114565b80634051ddac116100e75780634051ddac146101c6578063481c6a75146101f95780634d80e70914610224578063647c75e214610261578063700350471461029e57610114565b80630344100614610119578063244c3c2c146101425780632a16cca41461014c5780632c5cac6314610189575b600080fd5b34801561012557600080fd5b50610140600480360381019061013b9190611185565b610468565b005b61014a6105a1565b005b34801561015857600080fd5b50610173600480360381019061016e9190611210565b6106f4565b604051610180919061126b565b60405180910390f35b34801561019557600080fd5b506101b060048036038101906101ab9190611286565b610764565b6040516101bd91906112c2565b60405180910390f35b3480156101d257600080fd5b506101db61077c565b6040516101f099989796959493929190611385565b60405180910390f35b34801561020557600080fd5b5061020e610980565b60405161021b9190611427565b60405180910390f35b34801561023057600080fd5b5061024b60048036038101906102469190611185565b6109a4565b6040516102589190611463565b60405180910390f35b34801561026d57600080fd5b5061028860048036038101906102839190611286565b6109e3565b604051610295919061126b565b60405180910390f35b3480156102aa57600080fd5b506102b3610a03565b6040516102c091906112c2565b60405180910390f35b3480156102d557600080fd5b506102f060048036038101906102eb9190611185565b610a09565b60405161030195949392919061147e565b60405180910390f35b34801561031657600080fd5b50610331600480360381019061032c9190611639565b610af4565b005b34801561033f57600080fd5b50610348610c1a565b60405161035591906112c2565b60405180910390f35b34801561036a57600080fd5b50610373610c20565b60405161038091906116a8565b60405180910390f35b34801561039557600080fd5b5061039e610cae565b6040516103ab91906112c2565b60405180910390f35b3480156103c057600080fd5b506103c9610cb4565b6040516103d691906116a8565b60405180910390f35b3480156103eb57600080fd5b506103f4610d42565b60405161040191906116a8565b60405180910390f35b610412610dd0565b005b34801561042057600080fd5b5061043b60048036038101906104369190611185565b610f54565b005b34801561044957600080fd5b50610452611092565b60405161045f91906112c2565b60405180910390f35b60008054906101000a900473ffffffffffffffffffffffffffffffffffffffff1673ffffffffffffffffffffffffffffffffffffffff163373ffffffffffffffffffffffffffffffffffffffff16146104c057600080fd5b6000600b6000838152602001908152602001600020905060026009546104e69190611728565b8160030154116104f557600080fd5b8060020160149054906101000a900460ff161561051157600080fd5b8060020160009054906101000a900473ffffffffffffffffffffffffffffffffffffffff1673ffffffffffffffffffffffffffffffffffffffff166108fc82600101549081150290604051600060405180830381858888f1935050505015801561057f573d6000803e3d6000fd5b5060018160020160146101000a81548160ff0219169083151502179055505050565b60005b6007805490508110156106c657600781815481106105c5576105c4611759565b5b9060005260206000200160009054906101000a900473ffffffffffffffffffffffffffffffffffffffff1673ffffffffffffffffffffffffffffffffffffffff166108fc600860006007858154811061062157610620611759565b5b9060005260206000200160009054906101000a900473ffffffffffffffffffffffffffffffffffffffff1673ffffffffffffffffffffffffffffffffffffffff1673ffffffffffffffffffffffffffffffffffffffff168152602001908152602001600020549081150290604051600060405180830381858888f193505050501580156106b2573d6000803e3d6000fd5b5080806106be90611788565b9150506105a4565b507335b2e2b694a6a4c28f6631a905fb87eca330469d73ffffffffffffffffffffffffffffffffffffffff16ff5b600080600b600084815260200190815260200160002090508060040160008573ffffffffffffffffffffffffffffffffffffffff1673ffffffffffffffffffffffffffffffffffffffff16815260200190815260200160002060009054906101000a900460ff1691505092915050565b60086020528060005260406000206000915090505481565b60008060008060006060806000606060055447600a5460095460008054906101000a900473ffffffffffffffffffffffffffffffffffffffff166001600260045460038380546107cb90611800565b80601f01602080910402602001604051908101604052809291908181526020018280546107f790611800565b80156108445780601f1061081957610100808354040283529160200191610844565b820191906000526020600020905b81548152906001019060200180831161082757829003601f168201915b5050505050935082805461085790611800565b80601f016020809104026020016040519081016040528092919081815260200182805461088390611800565b80156108d05780601f106108a5576101008083540402835291602001916108d0565b820191906000526020600020905b8154815290600101906020018083116108b357829003601f168201915b505050505092508080546108e390611800565b80601f016020809104026020016040519081016040528092919081815260200182805461090f90611800565b801561095c5780601f106109315761010080835404028352916020019161095c565b820191906000526020600020905b81548152906001019060200180831161093f57829003601f168201915b50505050509050985098509850985098509850985098509850909192939495969798565b60008054906101000a900473ffffffffffffffffffffffffffffffffffffffff1681565b600781815481106109b457600080fd5b906000526020600020016000915054906101000a900473ffffffffffffffffffffffffffffffffffffffff1681565b60066020528060005260406000206000915054906101000a900460ff1681565b60045481565b600b602052806000526040600020600091509050806000018054610a2c90611800565b80601f0160208091040260200160405190810160405280929190818152602001828054610a5890611800565b8015610aa55780601f10610a7a57610100808354040283529160200191610aa5565b820191906000526020600020905b815481529060010190602001808311610a8857829003601f168201915b5050505050908060010154908060020160009054906101000a900473ffffffffffffffffffffffffffffffffffffffff16908060020160149054906101000a900460ff16908060030154905085565b60008054906101000a900473ffffffffffffffffffffffffffffffffffffffff1673ffffffffffffffffffffffffffffffffffffffff163373ffffffffffffffffffffffffffffffffffffffff1614610b4c57600080fd5b600454821115610b5b57600080fd5b6000600b6000600a6000815480929190610b7490611788565b919050558152602001908152602001600020905083816000019080519060200190610ba0929190611098565b50828160010181905550818160020160006101000a81548173ffffffffffffffffffffffffffffffffffffffff021916908373ffffffffffffffffffffffffffffffffffffffff16021790555060008160020160146101000a81548160ff0219169083151502179055506000816003018190555050505050565b60055481565b60018054610c2d90611800565b80601f0160208091040260200160405190810160405280929190818152602001828054610c5990611800565b8015610ca65780601f10610c7b57610100808354040283529160200191610ca6565b820191906000526020600020905b815481529060010190602001808311610c8957829003601f168201915b505050505081565b600a5481565b60038054610cc190611800565b80601f0160208091040260200160405190810160405280929190818152602001828054610ced90611800565b8015610d3a5780601f10610d0f57610100808354040283529160200191610d3a565b820191906000526020600020905b815481529060010190602001808311610d1d57829003601f168201915b505050505081565b60028054610d4f90611800565b80601f0160208091040260200160405190810160405280929190818152602001828054610d7b90611800565b8015610dc85780601f10610d9d57610100808354040283529160200191610dc8565b820191906000526020600020905b815481529060010190602001808311610dab57829003601f168201915b505050505081565b6005543411610dde57600080fd5b60001515600660003373ffffffffffffffffffffffffffffffffffffffff1673ffffffffffffffffffffffffffffffffffffffff16815260200190815260200160002060009054906101000a900460ff16151514610e3b57600080fd5b6001600660003373ffffffffffffffffffffffffffffffffffffffff1673ffffffffffffffffffffffffffffffffffffffff16815260200190815260200160002060006101000a81548160ff02191690831515021790555060096000815480929190610ea690611788565b919050555034600860003373ffffffffffffffffffffffffffffffffffffffff1673ffffffffffffffffffffffffffffffffffffffff168152602001908152602001600020819055506007339080600181540180825580915050600190039060005260206000200160009091909190916101000a81548173ffffffffffffffffffffffffffffffffffffffff021916908373ffffffffffffffffffffffffffffffffffffffff160217905550565b6000600b60008381526020019081526020016000209050600660003373ffffffffffffffffffffffffffffffffffffffff1673ffffffffffffffffffffffffffffffffffffffff16815260200190815260200160002060009054906101000a900460ff16610fc157600080fd5b8060040160003373ffffffffffffffffffffffffffffffffffffffff1673ffffffffffffffffffffffffffffffffffffffff16815260200190815260200160002060009054906101000a900460ff161561101a57600080fd5b60018160040160003373ffffffffffffffffffffffffffffffffffffffff1673ffffffffffffffffffffffffffffffffffffffff16815260200190815260200160002060006101000a81548160ff02191690831515021790555080600301600081548092919061108990611788565b91905055505050565b60095481565b8280546110a490611800565b90600052602060002090601f0160209004810192826110c6576000855561110d565b82601f106110df57805160ff191683800117855561110d565b8280016001018555821561110d579182015b8281111561110c5782518255916020019190600101906110f1565b5b50905061111a919061111e565b5090565b5b8082111561113757600081600090555060010161111f565b5090565b6000604051905090565b600080fd5b600080fd5b6000819050919050565b6111628161114f565b811461116d57600080fd5b50565b60008135905061117f81611159565b92915050565b60006020828403121561119b5761119a611145565b5b60006111a984828501611170565b91505092915050565b600073ffffffffffffffffffffffffffffffffffffffff82169050919050565b60006111dd826111b2565b9050919050565b6111ed816111d2565b81146111f857600080fd5b50565b60008135905061120a816111e4565b92915050565b6000806040838503121561122757611226611145565b5b6000611235858286016111fb565b925050602061124685828601611170565b9150509250929050565b60008115159050919050565b61126581611250565b82525050565b6000602082019050611280600083018461125c565b92915050565b60006020828403121561129c5761129b611145565b5b60006112aa848285016111fb565b91505092915050565b6112bc8161114f565b82525050565b60006020820190506112d760008301846112b3565b92915050565b6112e6816111d2565b82525050565b600081519050919050565b600082825260208201905092915050565b60005b8381101561132657808201518184015260208101905061130b565b83811115611335576000848401525b50505050565b6000601f19601f8301169050919050565b6000611357826112ec565b61136181856112f7565b9350611371818560208601611308565b61137a8161133b565b840191505092915050565b60006101208201905061139b600083018c6112b3565b6113a8602083018b6112b3565b6113b5604083018a6112b3565b6113c260608301896112b3565b6113cf60808301886112dd565b81810360a08301526113e1818761134c565b905081810360c08301526113f5818661134c565b905061140460e08301856112b3565b818103610100830152611417818461134c565b90509a9950505050505050505050565b600060208201905061143c60008301846112dd565b92915050565b600061144d826111b2565b9050919050565b61145d81611442565b82525050565b60006020820190506114786000830184611454565b92915050565b600060a0820190508181036000830152611498818861134c565b90506114a760208301876112b3565b6114b46040830186611454565b6114c1606083018561125c565b6114ce60808301846112b3565b9695505050505050565b600080fd5b600080fd5b7f4e487b7100000000000000000000000000000000000000000000000000000000600052604160045260246000fd5b61151a8261133b565b810181811067ffffffffffffffff82111715611539576115386114e2565b5b80604052505050565b600061154c61113b565b90506115588282611511565b919050565b600067ffffffffffffffff821115611578576115776114e2565b5b6115818261133b565b9050602081019050919050565b82818337600083830152505050565b60006115b06115ab8461155d565b611542565b9050828152602081018484840111156115cc576115cb6114dd565b5b6115d784828561158e565b509392505050565b600082601f8301126115f4576115f36114d8565b5b813561160484826020860161159d565b91505092915050565b61161681611442565b811461162157600080fd5b50565b6000813590506116338161160d565b92915050565b60008060006060848603121561165257611651611145565b5b600084013567ffffffffffffffff8111156116705761166f61114a565b5b61167c868287016115df565b935050602061168d86828701611170565b925050604061169e86828701611624565b9150509250925092565b600060208201905081810360008301526116c2818461134c565b905092915050565b7f4e487b7100000000000000000000000000000000000000000000000000000000600052601260045260246000fd5b7f4e487b7100000000000000000000000000000000000000000000000000000000600052601160045260246000fd5b60006117338261114f565b915061173e8361114f565b92508261174e5761174d6116ca565b5b828204905092915050565b7f4e487b7100000000000000000000000000000000000000000000000000000000600052603260045260246000fd5b60006117938261114f565b91507fffffffffffffffffffffffffffffffffffffffffffffffffffffffffffffffff8214156117c6576117c56116f9565b5b600182019050919050565b7f4e487b7100000000000000000000000000000000000000000000000000000000600052602260045260246000fd5b6000600282049050600182168061181857607f821691505b6020821081141561182c5761182b6117d1565b5b5091905056fea2646970667358221220a32240b99e540e03ea81c442c04391b182741579bc90c137b4f4be4fb1633f7564736f6c63430008090033","opcodes":"PUSH1 0x80 PUSH1 0x40 MSTORE CALLVALUE DUP1 ISZERO PUSH3 0x11 JUMPI PUSH1 0x0 DUP1 REVERT JUMPDEST POP PUSH1 0x40 MLOAD PUSH3 0x1D9F CODESIZE SUB DUP1 PUSH3 0x1D9F DUP4 CODECOPY DUP2 DUP2 ADD PUSH1 0x40 MSTORE DUP2 ADD SWAP1 PUSH3 0x37 SWAP2 SWAP1 PUSH3 0x3C9 JUMP JUMPDEST DUP5 PUSH1 0x0 DUP1 PUSH2 0x100 EXP DUP2 SLOAD DUP2 PUSH20 0xFFFFFFFFFFFFFFFFFFFFFFFFFFFFFFFFFFFFFFFF MUL NOT AND SWAP1 DUP4 PUSH20 0xFFFFFFFFFFFFFFFFFFFFFFFFFFFFFFFFFFFFFFFF AND MUL OR SWAP1 SSTORE POP DUP6 PUSH1 0x5 DUP2 SWAP1 SSTORE POP DUP4 PUSH1 0x1 SWAP1 DUP1 MLOAD SWAP1 PUSH1 0x20 ADD SWAP1 PUSH3 0x96 SWAP3 SWAP2 SWAP1 PUSH3 0xDC JUMP JUMPDEST POP DUP3 PUSH1 0x2 SWAP1 DUP1 MLOAD SWAP1 PUSH1 0x20 ADD SWAP1 PUSH3 0xAF SWAP3 SWAP2 SWAP1 PUSH3 0xDC JUMP JUMPDEST POP DUP1 PUSH1 0x4 DUP2 SWAP1 SSTORE POP DUP2 PUSH1 0x3 SWAP1 DUP1 MLOAD SWAP1 PUSH1 0x20 ADD SWAP1 PUSH3 0xCF SWAP3 SWAP2 SWAP1 PUSH3 0xDC JUMP JUMPDEST POP POP POP POP POP POP POP PUSH3 0x527 JUMP JUMPDEST DUP3 DUP1 SLOAD PUSH3 0xEA SWAP1 PUSH3 0x4F1 JUMP JUMPDEST SWAP1 PUSH1 0x0 MSTORE PUSH1 0x20 PUSH1 0x0 KECCAK256 SWAP1 PUSH1 0x1F ADD PUSH1 0x20 SWAP1 DIV DUP2 ADD SWAP3 DUP3 PUSH3 0x10E JUMPI PUSH1 0x0 DUP6 SSTORE PUSH3 0x15A JUMP JUMPDEST DUP3 PUSH1 0x1F LT PUSH3 0x129 JUMPI DUP1 MLOAD PUSH1 0xFF NOT AND DUP4 DUP1 ADD OR DUP6 SSTORE PUSH3 0x15A JUMP JUMPDEST DUP3 DUP1 ADD PUSH1 0x1 ADD DUP6 SSTORE DUP3 ISZERO PUSH3 0x15A JUMPI SWAP2 DUP3 ADD JUMPDEST DUP3 DUP2 GT ISZERO PUSH3 0x159 JUMPI DUP3 MLOAD DUP3 SSTORE SWAP2 PUSH1 0x20 ADD SWAP2 SWAP1 PUSH1 0x1 ADD SWAP1 PUSH3 0x13C JUMP JUMPDEST JUMPDEST POP SWAP1 POP PUSH3 0x169 SWAP2 SWAP1 PUSH3 0x16D JUMP JUMPDEST POP SWAP1 JUMP JUMPDEST JUMPDEST DUP1 DUP3 GT ISZERO PUSH3 0x188 JUMPI PUSH1 0x0 DUP2 PUSH1 0x0 SWAP1 SSTORE POP PUSH1 0x1 ADD PUSH3 0x16E JUMP JUMPDEST POP SWAP1 JUMP JUMPDEST PUSH1 0x0 PUSH1 0x40 MLOAD SWAP1 POP SWAP1 JUMP JUMPDEST PUSH1 0x0 DUP1 REVERT JUMPDEST PUSH1 0x0 DUP1 REVERT JUMPDEST PUSH1 0x0 DUP2 SWAP1 POP SWAP2 SWAP1 POP JUMP JUMPDEST PUSH3 0x1B5 DUP2 PUSH3 0x1A0 JUMP JUMPDEST DUP2 EQ PUSH3 0x1C1 JUMPI PUSH1 0x0 DUP1 REVERT JUMPDEST POP JUMP JUMPDEST PUSH1 0x0 DUP2 MLOAD SWAP1 POP PUSH3 0x1D5 DUP2 PUSH3 0x1AA JUMP JUMPDEST SWAP3 SWAP2 POP POP JUMP JUMPDEST PUSH1 0x0 PUSH20 0xFFFFFFFFFFFFFFFFFFFFFFFFFFFFFFFFFFFFFFFF DUP3 AND SWAP1 POP SWAP2 SWAP1 POP JUMP JUMPDEST PUSH1 0x0 PUSH3 0x208 DUP3 PUSH3 0x1DB JUMP JUMPDEST SWAP1 POP SWAP2 SWAP1 POP JUMP JUMPDEST PUSH3 0x21A DUP2 PUSH3 0x1FB JUMP JUMPDEST DUP2 EQ PUSH3 0x226 JUMPI PUSH1 0x0 DUP1 REVERT JUMPDEST POP JUMP JUMPDEST PUSH1 0x0 DUP2 MLOAD SWAP1 POP PUSH3 0x23A DUP2 PUSH3 0x20F JUMP JUMPDEST SWAP3 SWAP2 POP POP JUMP JUMPDEST PUSH1 0x0 DUP1 REVERT JUMPDEST PUSH1 0x0 DUP1 REVERT JUMPDEST PUSH1 0x0 PUSH1 0x1F NOT PUSH1 0x1F DUP4 ADD AND SWAP1 POP SWAP2 SWAP1 POP JUMP JUMPDEST PUSH32 0x4E487B7100000000000000000000000000000000000000000000000000000000 PUSH1 0x0 MSTORE PUSH1 0x41 PUSH1 0x4 MSTORE PUSH1 0x24 PUSH1 0x0 REVERT JUMPDEST PUSH3 0x295 DUP3 PUSH3 0x24A JUMP JUMPDEST DUP2 ADD DUP2 DUP2 LT PUSH8 0xFFFFFFFFFFFFFFFF DUP3 GT OR ISZERO PUSH3 0x2B7 JUMPI PUSH3 0x2B6 PUSH3 0x25B JUMP JUMPDEST JUMPDEST DUP1 PUSH1 0x40 MSTORE POP POP POP JUMP JUMPDEST PUSH1 0x0 PUSH3 0x2CC PUSH3 0x18C JUMP JUMPDEST SWAP1 POP PUSH3 0x2DA DUP3 DUP3 PUSH3 0x28A JUMP JUMPDEST SWAP2 SWAP1 POP JUMP JUMPDEST PUSH1 0x0 PUSH8 0xFFFFFFFFFFFFFFFF DUP3 GT ISZERO PUSH3 0x2FD JUMPI PUSH3 0x2FC PUSH3 0x25B JUMP JUMPDEST JUMPDEST PUSH3 0x308 DUP3 PUSH3 0x24A JUMP JUMPDEST SWAP1 POP PUSH1 0x20 DUP2 ADD SWAP1 POP SWAP2 SWAP1 POP JUMP JUMPDEST PUSH1 0x0 JUMPDEST DUP4 DUP2 LT ISZERO PUSH3 0x335 JUMPI DUP1 DUP3 ADD MLOAD DUP2 DUP5 ADD MSTORE PUSH1 0x20 DUP2 ADD SWAP1 POP PUSH3 0x318 JUMP JUMPDEST DUP4 DUP2 GT ISZERO PUSH3 0x345 JUMPI PUSH1 0x0 DUP5 DUP5 ADD MSTORE JUMPDEST POP POP POP POP JUMP JUMPDEST PUSH1 0x0 PUSH3 0x362 PUSH3 0x35C DUP5 PUSH3 0x2DF JUMP JUMPDEST PUSH3 0x2C0 JUMP JUMPDEST SWAP1 POP DUP3 DUP2 MSTORE PUSH1 0x20 DUP2 ADD DUP5 DUP5 DUP5 ADD GT ISZERO PUSH3 0x381 JUMPI PUSH3 0x380 PUSH3 0x245 JUMP JUMPDEST JUMPDEST PUSH3 0x38E DUP5 DUP3 DUP6 PUSH3 0x315 JUMP JUMPDEST POP SWAP4 SWAP3 POP POP POP JUMP JUMPDEST PUSH1 0x0 DUP3 PUSH1 0x1F DUP4 ADD SLT PUSH3 0x3AE JUMPI PUSH3 0x3AD PUSH3 0x240 JUMP JUMPDEST JUMPDEST DUP2 MLOAD PUSH3 0x3C0 DUP5 DUP3 PUSH1 0x20 DUP7 ADD PUSH3 0x34B JUMP JUMPDEST SWAP2 POP POP SWAP3 SWAP2 POP POP JUMP JUMPDEST PUSH1 0x0 DUP1 PUSH1 0x0 DUP1 PUSH1 0x0 DUP1 PUSH1 0xC0 DUP8 DUP10 SUB SLT ISZERO PUSH3 0x3E9 JUMPI PUSH3 0x3E8 PUSH3 0x196 JUMP JUMPDEST JUMPDEST PUSH1 0x0 PUSH3 0x3F9 DUP10 DUP3 DUP11 ADD PUSH3 0x1C4 JUMP JUMPDEST SWAP7 POP POP PUSH1 0x20 PUSH3 0x40C DUP10 DUP3 DUP11 ADD PUSH3 0x229 JUMP JUMPDEST SWAP6 POP POP PUSH1 0x40 DUP8 ADD MLOAD PUSH8 0xFFFFFFFFFFFFFFFF DUP2 GT ISZERO PUSH3 0x430 JUMPI PUSH3 0x42F PUSH3 0x19B JUMP JUMPDEST JUMPDEST PUSH3 0x43E DUP10 DUP3 DUP11 ADD PUSH3 0x396 JUMP JUMPDEST SWAP5 POP POP PUSH1 0x60 DUP8 ADD MLOAD PUSH8 0xFFFFFFFFFFFFFFFF DUP2 GT ISZERO PUSH3 0x462 JUMPI PUSH3 0x461 PUSH3 0x19B JUMP JUMPDEST JUMPDEST PUSH3 0x470 DUP10 DUP3 DUP11 ADD PUSH3 0x396 JUMP JUMPDEST SWAP4 POP POP PUSH1 0x80 DUP8 ADD MLOAD PUSH8 0xFFFFFFFFFFFFFFFF DUP2 GT ISZERO PUSH3 0x494 JUMPI PUSH3 0x493 PUSH3 0x19B JUMP JUMPDEST JUMPDEST PUSH3 0x4A2 DUP10 DUP3 DUP11 ADD PUSH3 0x396 JUMP JUMPDEST SWAP3 POP POP PUSH1 0xA0 PUSH3 0x4B5 DUP10 DUP3 DUP11 ADD PUSH3 0x1C4 JUMP JUMPDEST SWAP2 POP POP SWAP3 SWAP6 POP SWAP3 SWAP6 POP SWAP3 SWAP6 JUMP JUMPDEST PUSH32 0x4E487B7100000000000000000000000000000000000000000000000000000000 PUSH1 0x0 MSTORE PUSH1 0x22 PUSH1 0x4 MSTORE PUSH1 0x24 PUSH1 0x0 REVERT JUMPDEST PUSH1 0x0 PUSH1 0x2 DUP3 DIV SWAP1 POP PUSH1 0x1 DUP3 AND DUP1 PUSH3 0x50A JUMPI PUSH1 0x7F DUP3 AND SWAP2 POP JUMPDEST PUSH1 0x20 DUP3 LT DUP2 EQ ISZERO PUSH3 0x521 JUMPI PUSH3 0x520 PUSH3 0x4C2 JUMP JUMPDEST JUMPDEST POP SWAP2 SWAP1 POP JUMP JUMPDEST PUSH2 0x1868 DUP1 PUSH3 0x537 PUSH1 0x0 CODECOPY PUSH1 0x0 RETURN INVALID PUSH1 0x80 PUSH1 0x40 MSTORE PUSH1 0x4 CALLDATASIZE LT PUSH2 0x114 JUMPI PUSH1 0x0 CALLDATALOAD PUSH1 0xE0 SHR DUP1 PUSH4 0x81D12C58 GT PUSH2 0xA0 JUMPI DUP1 PUSH4 0xB90497E0 GT PUSH2 0x64 JUMPI DUP1 PUSH4 0xB90497E0 EQ PUSH2 0x3B4 JUMPI DUP1 PUSH4 0xD3087B57 EQ PUSH2 0x3DF JUMPI DUP1 PUSH4 0xD7BB99BA EQ PUSH2 0x40A JUMPI DUP1 PUSH4 0xD7D1BBDB EQ PUSH2 0x414 JUMPI DUP1 PUSH4 0xEB7B1312 EQ PUSH2 0x43D JUMPI PUSH2 0x114 JUMP JUMPDEST DUP1 PUSH4 0x81D12C58 EQ PUSH2 0x2C9 JUMPI DUP1 PUSH4 0x8A9CFD55 EQ PUSH2 0x30A JUMPI DUP1 PUSH4 0x937E09B1 EQ PUSH2 0x333 JUMPI DUP1 PUSH4 0x9A33E300 EQ PUSH2 0x35E JUMPI DUP1 PUSH4 0x9FB42B1F EQ PUSH2 0x389 JUMPI PUSH2 0x114 JUMP JUMPDEST DUP1 PUSH4 0x4051DDAC GT PUSH2 0xE7 JUMPI DUP1 PUSH4 0x4051DDAC EQ PUSH2 0x1C6 JUMPI DUP1 PUSH4 0x481C6A75 EQ PUSH2 0x1F9 JUMPI DUP1 PUSH4 0x4D80E709 EQ PUSH2 0x224 JUMPI DUP1 PUSH4 0x647C75E2 EQ PUSH2 0x261 JUMPI DUP1 PUSH4 0x70035047 EQ PUSH2 0x29E JUMPI PUSH2 0x114 JUMP JUMPDEST DUP1 PUSH4 0x3441006 EQ PUSH2 0x119 JUMPI DUP1 PUSH4 0x244C3C2C EQ PUSH2 0x142 JUMPI DUP1 PUSH4 0x2A16CCA4 EQ PUSH2 0x14C JUMPI DUP1 PUSH4 0x2C5CAC63 EQ PUSH2 0x189 JUMPI JUMPDEST PUSH1 0x0 DUP1 REVERT JUMPDEST CALLVALUE DUP1 ISZERO PUSH2 0x125 JUMPI PUSH1 0x0 DUP1 REVERT JUMPDEST POP PUSH2 0x140 PUSH1 0x4 DUP1 CALLDATASIZE SUB DUP2 ADD SWAP1 PUSH2 0x13B SWAP2 SWAP1 PUSH2 0x1185 JUMP JUMPDEST PUSH2 0x468 JUMP JUMPDEST STOP JUMPDEST PUSH2 0x14A PUSH2 0x5A1 JUMP JUMPDEST STOP JUMPDEST CALLVALUE DUP1 ISZERO PUSH2 0x158 JUMPI PUSH1 0x0 DUP1 REVERT JUMPDEST POP PUSH2 0x173 PUSH1 0x4 DUP1 CALLDATASIZE SUB DUP2 ADD SWAP1 PUSH2 0x16E SWAP2 SWAP1 PUSH2 0x1210 JUMP JUMPDEST PUSH2 0x6F4 JUMP JUMPDEST PUSH1 0x40 MLOAD PUSH2 0x180 SWAP2 SWAP1 PUSH2 0x126B JUMP JUMPDEST PUSH1 0x40 MLOAD DUP1 SWAP2 SUB SWAP1 RETURN JUMPDEST CALLVALUE DUP1 ISZERO PUSH2 0x195 JUMPI PUSH1 0x0 DUP1 REVERT JUMPDEST POP PUSH2 0x1B0 PUSH1 0x4 DUP1 CALLDATASIZE SUB DUP2 ADD SWAP1 PUSH2 0x1AB SWAP2 SWAP1 PUSH2 0x1286 JUMP JUMPDEST PUSH2 0x764 JUMP JUMPDEST PUSH1 0x40 MLOAD PUSH2 0x1BD SWAP2 SWAP1 PUSH2 0x12C2 JUMP JUMPDEST PUSH1 0x40 MLOAD DUP1 SWAP2 SUB SWAP1 RETURN JUMPDEST CALLVALUE DUP1 ISZERO PUSH2 0x1D2 JUMPI PUSH1 0x0 DUP1 REVERT JUMPDEST POP PUSH2 0x1DB PUSH2 0x77C JUMP JUMPDEST PUSH1 0x40 MLOAD PUSH2 0x1F0 SWAP10 SWAP9 SWAP8 SWAP7 SWAP6 SWAP5 SWAP4 SWAP3 SWAP2 SWAP1 PUSH2 0x1385 JUMP JUMPDEST PUSH1 0x40 MLOAD DUP1 SWAP2 SUB SWAP1 RETURN JUMPDEST CALLVALUE DUP1 ISZERO PUSH2 0x205 JUMPI PUSH1 0x0 DUP1 REVERT JUMPDEST POP PUSH2 0x20E PUSH2 0x980 JUMP JUMPDEST PUSH1 0x40 MLOAD PUSH2 0x21B SWAP2 SWAP1 PUSH2 0x1427 JUMP JUMPDEST PUSH1 0x40 MLOAD DUP1 SWAP2 SUB SWAP1 RETURN JUMPDEST CALLVALUE DUP1 ISZERO PUSH2 0x230 JUMPI PUSH1 0x0 DUP1 REVERT JUMPDEST POP PUSH2 0x24B PUSH1 0x4 DUP1 CALLDATASIZE SUB DUP2 ADD SWAP1 PUSH2 0x246 SWAP2 SWAP1 PUSH2 0x1185 JUMP JUMPDEST PUSH2 0x9A4 JUMP JUMPDEST PUSH1 0x40 MLOAD PUSH2 0x258 SWAP2 SWAP1 PUSH2 0x1463 JUMP JUMPDEST PUSH1 0x40 MLOAD DUP1 SWAP2 SUB SWAP1 RETURN JUMPDEST CALLVALUE DUP1 ISZERO PUSH2 0x26D JUMPI PUSH1 0x0 DUP1 REVERT JUMPDEST POP PUSH2 0x288 PUSH1 0x4 DUP1 CALLDATASIZE SUB DUP2 ADD SWAP1 PUSH2 0x283 SWAP2 SWAP1 PUSH2 0x1286 JUMP JUMPDEST PUSH2 0x9E3 JUMP JUMPDEST PUSH1 0x40 MLOAD PUSH2 0x295 SWAP2 SWAP1 PUSH2 0x126B JUMP JUMPDEST PUSH1 0x40 MLOAD DUP1 SWAP2 SUB SWAP1 RETURN JUMPDEST CALLVALUE DUP1 ISZERO PUSH2 0x2AA JUMPI PUSH1 0x0 DUP1 REVERT JUMPDEST POP PUSH2 0x2B3 PUSH2 0xA03 JUMP JUMPDEST PUSH1 0x40 MLOAD PUSH2 0x2C0 SWAP2 SWAP1 PUSH2 0x12C2 JUMP JUMPDEST PUSH1 0x40 MLOAD DUP1 SWAP2 SUB SWAP1 RETURN JUMPDEST CALLVALUE DUP1 ISZERO PUSH2 0x2D5 JUMPI PUSH1 0x0 DUP1 REVERT JUMPDEST POP PUSH2 0x2F0 PUSH1 0x4 DUP1 CALLDATASIZE SUB DUP2 ADD SWAP1 PUSH2 0x2EB SWAP2 SWAP1 PUSH2 0x1185 JUMP JUMPDEST PUSH2 0xA09 JUMP JUMPDEST PUSH1 0x40 MLOAD PUSH2 0x301 SWAP6 SWAP5 SWAP4 SWAP3 SWAP2 SWAP1 PUSH2 0x147E JUMP JUMPDEST PUSH1 0x40 MLOAD DUP1 SWAP2 SUB SWAP1 RETURN JUMPDEST CALLVALUE DUP1 ISZERO PUSH2 0x316 JUMPI PUSH1 0x0 DUP1 REVERT JUMPDEST POP PUSH2 0x331 PUSH1 0x4 DUP1 CALLDATASIZE SUB DUP2 ADD SWAP1 PUSH2 0x32C SWAP2 SWAP1 PUSH2 0x1639 JUMP JUMPDEST PUSH2 0xAF4 JUMP JUMPDEST STOP JUMPDEST CALLVALUE DUP1 ISZERO PUSH2 0x33F JUMPI PUSH1 0x0 DUP1 REVERT JUMPDEST POP PUSH2 0x348 PUSH2 0xC1A JUMP JUMPDEST PUSH1 0x40 MLOAD PUSH2 0x355 SWAP2 SWAP1 PUSH2 0x12C2 JUMP JUMPDEST PUSH1 0x40 MLOAD DUP1 SWAP2 SUB SWAP1 RETURN JUMPDEST CALLVALUE DUP1 ISZERO PUSH2 0x36A JUMPI PUSH1 0x0 DUP1 REVERT JUMPDEST POP PUSH2 0x373 PUSH2 0xC20 JUMP JUMPDEST PUSH1 0x40 MLOAD PUSH2 0x380 SWAP2 SWAP1 PUSH2 0x16A8 JUMP JUMPDEST PUSH1 0x40 MLOAD DUP1 SWAP2 SUB SWAP1 RETURN JUMPDEST CALLVALUE DUP1 ISZERO PUSH2 0x395 JUMPI PUSH1 0x0 DUP1 REVERT JUMPDEST POP PUSH2 0x39E PUSH2 0xCAE JUMP JUMPDEST PUSH1 0x40 MLOAD PUSH2 0x3AB SWAP2 SWAP1 PUSH2 0x12C2 JUMP JUMPDEST PUSH1 0x40 MLOAD DUP1 SWAP2 SUB SWAP1 RETURN JUMPDEST CALLVALUE DUP1 ISZERO PUSH2 0x3C0 JUMPI PUSH1 0x0 DUP1 REVERT JUMPDEST POP PUSH2 0x3C9 PUSH2 0xCB4 JUMP JUMPDEST PUSH1 0x40 MLOAD PUSH2 0x3D6 SWAP2 SWAP1 PUSH2 0x16A8 JUMP JUMPDEST PUSH1 0x40 MLOAD DUP1 SWAP2 SUB SWAP1 RETURN JUMPDEST CALLVALUE DUP1 ISZERO PUSH2 0x3EB JUMPI PUSH1 0x0 DUP1 REVERT JUMPDEST POP PUSH2 0x3F4 PUSH2 0xD42 JUMP JUMPDEST PUSH1 0x40 MLOAD PUSH2 0x401 SWAP2 SWAP1 PUSH2 0x16A8 JUMP JUMPDEST PUSH1 0x40 MLOAD DUP1 SWAP2 SUB SWAP1 RETURN JUMPDEST PUSH2 0x412 PUSH2 0xDD0 JUMP JUMPDEST STOP JUMPDEST CALLVALUE DUP1 ISZERO PUSH2 0x420 JUMPI PUSH1 0x0 DUP1 REVERT JUMPDEST POP PUSH2 0x43B PUSH1 0x4 DUP1 CALLDATASIZE SUB DUP2 ADD SWAP1 PUSH2 0x436 SWAP2 SWAP1 PUSH2 0x1185 JUMP JUMPDEST PUSH2 0xF54 JUMP JUMPDEST STOP JUMPDEST CALLVALUE DUP1 ISZERO PUSH2 0x449 JUMPI PUSH1 0x0 DUP1 REVERT JUMPDEST POP PUSH2 0x452 PUSH2 0x1092 JUMP JUMPDEST PUSH1 0x40 MLOAD PUSH2 0x45F SWAP2 SWAP1 PUSH2 0x12C2 JUMP JUMPDEST PUSH1 0x40 MLOAD DUP1 SWAP2 SUB SWAP1 RETURN JUMPDEST PUSH1 0x0 DUP1 SLOAD SWAP1 PUSH2 0x100 EXP SWAP1 DIV PUSH20 0xFFFFFFFFFFFFFFFFFFFFFFFFFFFFFFFFFFFFFFFF AND PUSH20 0xFFFFFFFFFFFFFFFFFFFFFFFFFFFFFFFFFFFFFFFF AND CALLER PUSH20 0xFFFFFFFFFFFFFFFFFFFFFFFFFFFFFFFFFFFFFFFF AND EQ PUSH2 0x4C0 JUMPI PUSH1 0x0 DUP1 REVERT JUMPDEST PUSH1 0x0 PUSH1 0xB PUSH1 0x0 DUP4 DUP2 MSTORE PUSH1 0x20 ADD SWAP1 DUP2 MSTORE PUSH1 0x20 ADD PUSH1 0x0 KECCAK256 SWAP1 POP PUSH1 0x2 PUSH1 0x9 SLOAD PUSH2 0x4E6 SWAP2 SWAP1 PUSH2 0x1728 JUMP JUMPDEST DUP2 PUSH1 0x3 ADD SLOAD GT PUSH2 0x4F5 JUMPI PUSH1 0x0 DUP1 REVERT JUMPDEST DUP1 PUSH1 0x2 ADD PUSH1 0x14 SWAP1 SLOAD SWAP1 PUSH2 0x100 EXP SWAP1 DIV PUSH1 0xFF AND ISZERO PUSH2 0x511 JUMPI PUSH1 0x0 DUP1 REVERT JUMPDEST DUP1 PUSH1 0x2 ADD PUSH1 0x0 SWAP1 SLOAD SWAP1 PUSH2 0x100 EXP SWAP1 DIV PUSH20 0xFFFFFFFFFFFFFFFFFFFFFFFFFFFFFFFFFFFFFFFF AND PUSH20 0xFFFFFFFFFFFFFFFFFFFFFFFFFFFFFFFFFFFFFFFF AND PUSH2 0x8FC DUP3 PUSH1 0x1 ADD SLOAD SWAP1 DUP2 ISZERO MUL SWAP1 PUSH1 0x40 MLOAD PUSH1 0x0 PUSH1 0x40 MLOAD DUP1 DUP4 SUB DUP2 DUP6 DUP9 DUP9 CALL SWAP4 POP POP POP POP ISZERO DUP1 ISZERO PUSH2 0x57F JUMPI RETURNDATASIZE PUSH1 0x0 DUP1 RETURNDATACOPY RETURNDATASIZE PUSH1 0x0 REVERT JUMPDEST POP PUSH1 0x1 DUP2 PUSH1 0x2 ADD PUSH1 0x14 PUSH2 0x100 EXP DUP2 SLOAD DUP2 PUSH1 0xFF MUL NOT AND SWAP1 DUP4 ISZERO ISZERO MUL OR SWAP1 SSTORE POP POP POP JUMP JUMPDEST PUSH1 0x0 JUMPDEST PUSH1 0x7 DUP1 SLOAD SWAP1 POP DUP2 LT ISZERO PUSH2 0x6C6 JUMPI PUSH1 0x7 DUP2 DUP2 SLOAD DUP2 LT PUSH2 0x5C5 JUMPI PUSH2 0x5C4 PUSH2 0x1759 JUMP JUMPDEST JUMPDEST SWAP1 PUSH1 0x0 MSTORE PUSH1 0x20 PUSH1 0x0 KECCAK256 ADD PUSH1 0x0 SWAP1 SLOAD SWAP1 PUSH2 0x100 EXP SWAP1 DIV PUSH20 0xFFFFFFFFFFFFFFFFFFFFFFFFFFFFFFFFFFFFFFFF AND PUSH20 0xFFFFFFFFFFFFFFFFFFFFFFFFFFFFFFFFFFFFFFFF AND PUSH2 0x8FC PUSH1 0x8 PUSH1 0x0 PUSH1 0x7 DUP6 DUP2 SLOAD DUP2 LT PUSH2 0x621 JUMPI PUSH2 0x620 PUSH2 0x1759 JUMP JUMPDEST JUMPDEST SWAP1 PUSH1 0x0 MSTORE PUSH1 0x20 PUSH1 0x0 KECCAK256 ADD PUSH1 0x0 SWAP1 SLOAD SWAP1 PUSH2 0x100 EXP SWAP1 DIV PUSH20 0xFFFFFFFFFFFFFFFFFFFFFFFFFFFFFFFFFFFFFFFF AND PUSH20 0xFFFFFFFFFFFFFFFFFFFFFFFFFFFFFFFFFFFFFFFF AND PUSH20 0xFFFFFFFFFFFFFFFFFFFFFFFFFFFFFFFFFFFFFFFF AND DUP2 MSTORE PUSH1 0x20 ADD SWAP1 DUP2 MSTORE PUSH1 0x20 ADD PUSH1 0x0 KECCAK256 SLOAD SWAP1 DUP2 ISZERO MUL SWAP1 PUSH1 0x40 MLOAD PUSH1 0x0 PUSH1 0x40 MLOAD DUP1 DUP4 SUB DUP2 DUP6 DUP9 DUP9 CALL SWAP4 POP POP POP POP ISZERO DUP1 ISZERO PUSH2 0x6B2 JUMPI RETURNDATASIZE PUSH1 0x0 DUP1 RETURNDATACOPY RETURNDATASIZE PUSH1 0x0 REVERT JUMPDEST POP DUP1 DUP1 PUSH2 0x6BE SWAP1 PUSH2 0x1788 JUMP JUMPDEST SWAP2 POP POP PUSH2 0x5A4 JUMP JUMPDEST POP PUSH20 0x35B2E2B694A6A4C28F6631A905FB87ECA330469D PUSH20 0xFFFFFFFFFFFFFFFFFFFFFFFFFFFFFFFFFFFFFFFF AND SELFDESTRUCT JUMPDEST PUSH1 0x0 DUP1 PUSH1 0xB PUSH1 0x0 DUP5 DUP2 MSTORE PUSH1 0x20 ADD SWAP1 DUP2 MSTORE PUSH1 0x20 ADD PUSH1 0x0 KECCAK256 SWAP1 POP DUP1 PUSH1 0x4 ADD PUSH1 0x0 DUP6 PUSH20 0xFFFFFFFFFFFFFFFFFFFFFFFFFFFFFFFFFFFFFFFF AND PUSH20 0xFFFFFFFFFFFFFFFFFFFFFFFFFFFFFFFFFFFFFFFF AND DUP2 MSTORE PUSH1 0x20 ADD SWAP1 DUP2 MSTORE PUSH1 0x20 ADD PUSH1 0x0 KECCAK256 PUSH1 0x0 SWAP1 SLOAD SWAP1 PUSH2 0x100 EXP SWAP1 DIV PUSH1 0xFF AND SWAP2 POP POP SWAP3 SWAP2 POP POP JUMP JUMPDEST PUSH1 0x8 PUSH1 0x20 MSTORE DUP1 PUSH1 0x0 MSTORE PUSH1 0x40 PUSH1 0x0 KECCAK256 PUSH1 0x0 SWAP2 POP SWAP1 POP SLOAD DUP2 JUMP JUMPDEST PUSH1 0x0 DUP1 PUSH1 0x0 DUP1 PUSH1 0x0 PUSH1 0x60 DUP1 PUSH1 0x0 PUSH1 0x60 PUSH1 0x5 SLOAD SELFBALANCE PUSH1 0xA SLOAD PUSH1 0x9 SLOAD PUSH1 0x0 DUP1 SLOAD SWAP1 PUSH2 0x100 EXP SWAP1 DIV PUSH20 0xFFFFFFFFFFFFFFFFFFFFFFFFFFFFFFFFFFFFFFFF AND PUSH1 0x1 PUSH1 0x2 PUSH1 0x4 SLOAD PUSH1 0x3 DUP4 DUP1 SLOAD PUSH2 0x7CB SWAP1 PUSH2 0x1800 JUMP JUMPDEST DUP1 PUSH1 0x1F ADD PUSH1 0x20 DUP1 SWAP2 DIV MUL PUSH1 0x20 ADD PUSH1 0x40 MLOAD SWAP1 DUP2 ADD PUSH1 0x40 MSTORE DUP1 SWAP3 SWAP2 SWAP1 DUP2 DUP2 MSTORE PUSH1 0x20 ADD DUP3 DUP1 SLOAD PUSH2 0x7F7 SWAP1 PUSH2 0x1800 JUMP JUMPDEST DUP1 ISZERO PUSH2 0x844 JUMPI DUP1 PUSH1 0x1F LT PUSH2 0x819 JUMPI PUSH2 0x100 DUP1 DUP4 SLOAD DIV MUL DUP4 MSTORE SWAP2 PUSH1 0x20 ADD SWAP2 PUSH2 0x844 JUMP JUMPDEST DUP3 ADD SWAP2 SWAP1 PUSH1 0x0 MSTORE PUSH1 0x20 PUSH1 0x0 KECCAK256 SWAP1 JUMPDEST DUP2 SLOAD DUP2 MSTORE SWAP1 PUSH1 0x1 ADD SWAP1 PUSH1 0x20 ADD DUP1 DUP4 GT PUSH2 0x827 JUMPI DUP3 SWAP1 SUB PUSH1 0x1F AND DUP3 ADD SWAP2 JUMPDEST POP POP POP POP POP SWAP4 POP DUP3 DUP1 SLOAD PUSH2 0x857 SWAP1 PUSH2 0x1800 JUMP JUMPDEST DUP1 PUSH1 0x1F ADD PUSH1 0x20 DUP1 SWAP2 DIV MUL PUSH1 0x20 ADD PUSH1 0x40 MLOAD SWAP1 DUP2 ADD PUSH1 0x40 MSTORE DUP1 SWAP3 SWAP2 SWAP1 DUP2 DUP2 MSTORE PUSH1 0x20 ADD DUP3 DUP1 SLOAD PUSH2 0x883 SWAP1 PUSH2 0x1800 JUMP JUMPDEST DUP1 ISZERO PUSH2 0x8D0 JUMPI DUP1 PUSH1 0x1F LT PUSH2 0x8A5 JUMPI PUSH2 0x100 DUP1 DUP4 SLOAD DIV MUL DUP4 MSTORE SWAP2 PUSH1 0x20 ADD SWAP2 PUSH2 0x8D0 JUMP JUMPDEST DUP3 ADD SWAP2 SWAP1 PUSH1 0x0 MSTORE PUSH1 0x20 PUSH1 0x0 KECCAK256 SWAP1 JUMPDEST DUP2 SLOAD DUP2 MSTORE SWAP1 PUSH1 0x1 ADD SWAP1 PUSH1 0x20 ADD DUP1 DUP4 GT PUSH2 0x8B3 JUMPI DUP3 SWAP1 SUB PUSH1 0x1F AND DUP3 ADD SWAP2 JUMPDEST POP POP POP POP POP SWAP3 POP DUP1 DUP1 SLOAD PUSH2 0x8E3 SWAP1 PUSH2 0x1800 JUMP JUMPDEST DUP1 PUSH1 0x1F ADD PUSH1 0x20 DUP1 SWAP2 DIV MUL PUSH1 0x20 ADD PUSH1 0x40 MLOAD SWAP1 DUP2 ADD PUSH1 0x40 MSTORE DUP1 SWAP3 SWAP2 SWAP1 DUP2 DUP2 MSTORE PUSH1 0x20 ADD DUP3 DUP1 SLOAD PUSH2 0x90F SWAP1 PUSH2 0x1800 JUMP JUMPDEST DUP1 ISZERO PUSH2 0x95C JUMPI DUP1 PUSH1 0x1F LT PUSH2 0x931 JUMPI PUSH2 0x100 DUP1 DUP4 SLOAD DIV MUL DUP4 MSTORE SWAP2 PUSH1 0x20 ADD SWAP2 PUSH2 0x95C JUMP JUMPDEST DUP3 ADD SWAP2 SWAP1 PUSH1 0x0 MSTORE PUSH1 0x20 PUSH1 0x0 KECCAK256 SWAP1 JUMPDEST DUP2 SLOAD DUP2 MSTORE SWAP1 PUSH1 0x1 ADD SWAP1 PUSH1 0x20 ADD DUP1 DUP4 GT PUSH2 0x93F JUMPI DUP3 SWAP1 SUB PUSH1 0x1F AND DUP3 ADD SWAP2 JUMPDEST POP POP POP POP POP SWAP1 POP SWAP9 POP SWAP9 POP SWAP9 POP SWAP9 POP SWAP9 POP SWAP9 POP SWAP9 POP SWAP9 POP SWAP9 POP SWAP1 SWAP2 SWAP3 SWAP4 SWAP5 SWAP6 SWAP7 SWAP8 SWAP9 JUMP JUMPDEST PUSH1 0x0 DUP1 SLOAD SWAP1 PUSH2 0x100 EXP SWAP1 DIV PUSH20 0xFFFFFFFFFFFFFFFFFFFFFFFFFFFFFFFFFFFFFFFF AND DUP2 JUMP JUMPDEST PUSH1 0x7 DUP2 DUP2 SLOAD DUP2 LT PUSH2 0x9B4 JUMPI PUSH1 0x0 DUP1 REVERT JUMPDEST SWAP1 PUSH1 0x0 MSTORE PUSH1 0x20 PUSH1 0x0 KECCAK256 ADD PUSH1 0x0 SWAP2 POP SLOAD SWAP1 PUSH2 0x100 EXP SWAP1 DIV PUSH20 0xFFFFFFFFFFFFFFFFFFFFFFFFFFFFFFFFFFFFFFFF AND DUP2 JUMP JUMPDEST PUSH1 0x6 PUSH1 0x20 MSTORE DUP1 PUSH1 0x0 MSTORE PUSH1 0x40 PUSH1 0x0 KECCAK256 PUSH1 0x0 SWAP2 POP SLOAD SWAP1 PUSH2 0x100 EXP SWAP1 DIV PUSH1 0xFF AND DUP2 JUMP JUMPDEST PUSH1 0x4 SLOAD DUP2 JUMP JUMPDEST PUSH1 0xB PUSH1 0x20 MSTORE DUP1 PUSH1 0x0 MSTORE PUSH1 0x40 PUSH1 0x0 KECCAK256 PUSH1 0x0 SWAP2 POP SWAP1 POP DUP1 PUSH1 0x0 ADD DUP1 SLOAD PUSH2 0xA2C SWAP1 PUSH2 0x1800 JUMP JUMPDEST DUP1 PUSH1 0x1F ADD PUSH1 0x20 DUP1 SWAP2 DIV MUL PUSH1 0x20 ADD PUSH1 0x40 MLOAD SWAP1 DUP2 ADD PUSH1 0x40 MSTORE DUP1 SWAP3 SWAP2 SWAP1 DUP2 DUP2 MSTORE PUSH1 0x20 ADD DUP3 DUP1 SLOAD PUSH2 0xA58 SWAP1 PUSH2 0x1800 JUMP JUMPDEST DUP1 ISZERO PUSH2 0xAA5 JUMPI DUP1 PUSH1 0x1F LT PUSH2 0xA7A JUMPI PUSH2 0x100 DUP1 DUP4 SLOAD DIV MUL DUP4 MSTORE SWAP2 PUSH1 0x20 ADD SWAP2 PUSH2 0xAA5 JUMP JUMPDEST DUP3 ADD SWAP2 SWAP1 PUSH1 0x0 MSTORE PUSH1 0x20 PUSH1 0x0 KECCAK256 SWAP1 JUMPDEST DUP2 SLOAD DUP2 MSTORE SWAP1 PUSH1 0x1 ADD SWAP1 PUSH1 0x20 ADD DUP1 DUP4 GT PUSH2 0xA88 JUMPI DUP3 SWAP1 SUB PUSH1 0x1F AND DUP3 ADD SWAP2 JUMPDEST POP POP POP POP POP SWAP1 DUP1 PUSH1 0x1 ADD SLOAD SWAP1 DUP1 PUSH1 0x2 ADD PUSH1 0x0 SWAP1 SLOAD SWAP1 PUSH2 0x100 EXP SWAP1 DIV PUSH20 0xFFFFFFFFFFFFFFFFFFFFFFFFFFFFFFFFFFFFFFFF AND SWAP1 DUP1 PUSH1 0x2 ADD PUSH1 0x14 SWAP1 SLOAD SWAP1 PUSH2 0x100 EXP SWAP1 DIV PUSH1 0xFF AND SWAP1 DUP1 PUSH1 0x3 ADD SLOAD SWAP1 POP DUP6 JUMP JUMPDEST PUSH1 0x0 DUP1 SLOAD SWAP1 PUSH2 0x100 EXP SWAP1 DIV PUSH20 0xFFFFFFFFFFFFFFFFFFFFFFFFFFFFFFFFFFFFFFFF AND PUSH20 0xFFFFFFFFFFFFFFFFFFFFFFFFFFFFFFFFFFFFFFFF AND CALLER PUSH20 0xFFFFFFFFFFFFFFFFFFFFFFFFFFFFFFFFFFFFFFFF AND EQ PUSH2 0xB4C JUMPI PUSH1 0x0 DUP1 REVERT JUMPDEST PUSH1 0x4 SLOAD DUP3 GT ISZERO PUSH2 0xB5B JUMPI PUSH1 0x0 DUP1 REVERT JUMPDEST PUSH1 0x0 PUSH1 0xB PUSH1 0x0 PUSH1 0xA PUSH1 0x0 DUP2 SLOAD DUP1 SWAP3 SWAP2 SWAP1 PUSH2 0xB74 SWAP1 PUSH2 0x1788 JUMP JUMPDEST SWAP2 SWAP1 POP SSTORE DUP2 MSTORE PUSH1 0x20 ADD SWAP1 DUP2 MSTORE PUSH1 0x20 ADD PUSH1 0x0 KECCAK256 SWAP1 POP DUP4 DUP2 PUSH1 0x0 ADD SWAP1 DUP1 MLOAD SWAP1 PUSH1 0x20 ADD SWAP1 PUSH2 0xBA0 SWAP3 SWAP2 SWAP1 PUSH2 0x1098 JUMP JUMPDEST POP DUP3 DUP2 PUSH1 0x1 ADD DUP2 SWAP1 SSTORE POP DUP2 DUP2 PUSH1 0x2 ADD PUSH1 0x0 PUSH2 0x100 EXP DUP2 SLOAD DUP2 PUSH20 0xFFFFFFFFFFFFFFFFFFFFFFFFFFFFFFFFFFFFFFFF MUL NOT AND SWAP1 DUP4 PUSH20 0xFFFFFFFFFFFFFFFFFFFFFFFFFFFFFFFFFFFFFFFF AND MUL OR SWAP1 SSTORE POP PUSH1 0x0 DUP2 PUSH1 0x2 ADD PUSH1 0x14 PUSH2 0x100 EXP DUP2 SLOAD DUP2 PUSH1 0xFF MUL NOT AND SWAP1 DUP4 ISZERO ISZERO MUL OR SWAP1 SSTORE POP PUSH1 0x0 DUP2 PUSH1 0x3 ADD DUP2 SWAP1 SSTORE POP POP POP POP POP JUMP JUMPDEST PUSH1 0x5 SLOAD DUP2 JUMP JUMPDEST PUSH1 0x1 DUP1 SLOAD PUSH2 0xC2D SWAP1 PUSH2 0x1800 JUMP JUMPDEST DUP1 PUSH1 0x1F ADD PUSH1 0x20 DUP1 SWAP2 DIV MUL PUSH1 0x20 ADD PUSH1 0x40 MLOAD SWAP1 DUP2 ADD PUSH1 0x40 MSTORE DUP1 SWAP3 SWAP2 SWAP1 DUP2 DUP2 MSTORE PUSH1 0x20 ADD DUP3 DUP1 SLOAD PUSH2 0xC59 SWAP1 PUSH2 0x1800 JUMP JUMPDEST DUP1 ISZERO PUSH2 0xCA6 JUMPI DUP1 PUSH1 0x1F LT PUSH2 0xC7B JUMPI PUSH2 0x100 DUP1 DUP4 SLOAD DIV MUL DUP4 MSTORE SWAP2 PUSH1 0x20 ADD SWAP2 PUSH2 0xCA6 JUMP JUMPDEST DUP3 ADD SWAP2 SWAP1 PUSH1 0x0 MSTORE PUSH1 0x20 PUSH1 0x0 KECCAK256 SWAP1 JUMPDEST DUP2 SLOAD DUP2 MSTORE SWAP1 PUSH1 0x1 ADD SWAP1 PUSH1 0x20 ADD DUP1 DUP4 GT PUSH2 0xC89 JUMPI DUP3 SWAP1 SUB PUSH1 0x1F AND DUP3 ADD SWAP2 JUMPDEST POP POP POP POP POP DUP2 JUMP JUMPDEST PUSH1 0xA SLOAD DUP2 JUMP JUMPDEST PUSH1 0x3 DUP1 SLOAD PUSH2 0xCC1 SWAP1 PUSH2 0x1800 JUMP JUMPDEST DUP1 PUSH1 0x1F ADD PUSH1 0x20 DUP1 SWAP2 DIV MUL PUSH1 0x20 ADD PUSH1 0x40 MLOAD SWAP1 DUP2 ADD PUSH1 0x40 MSTORE DUP1 SWAP3 SWAP2 SWAP1 DUP2 DUP2 MSTORE PUSH1 0x20 ADD DUP3 DUP1 SLOAD PUSH2 0xCED SWAP1 PUSH2 0x1800 JUMP JUMPDEST DUP1 ISZERO PUSH2 0xD3A JUMPI DUP1 PUSH1 0x1F LT PUSH2 0xD0F JUMPI PUSH2 0x100 DUP1 DUP4 SLOAD DIV MUL DUP4 MSTORE SWAP2 PUSH1 0x20 ADD SWAP2 PUSH2 0xD3A JUMP JUMPDEST DUP3 ADD SWAP2 SWAP1 PUSH1 0x0 MSTORE PUSH1 0x20 PUSH1 0x0 KECCAK256 SWAP1 JUMPDEST DUP2 SLOAD DUP2 MSTORE SWAP1 PUSH1 0x1 ADD SWAP1 PUSH1 0x20 ADD DUP1 DUP4 GT PUSH2 0xD1D JUMPI DUP3 SWAP1 SUB PUSH1 0x1F AND DUP3 ADD SWAP2 JUMPDEST POP POP POP POP POP DUP2 JUMP JUMPDEST PUSH1 0x2 DUP1 SLOAD PUSH2 0xD4F SWAP1 PUSH2 0x1800 JUMP JUMPDEST DUP1 PUSH1 0x1F ADD PUSH1 0x20 DUP1 SWAP2 DIV MUL PUSH1 0x20 ADD PUSH1 0x40 MLOAD SWAP1 DUP2 ADD PUSH1 0x40 MSTORE DUP1 SWAP3 SWAP2 SWAP1 DUP2 DUP2 MSTORE PUSH1 0x20 ADD DUP3 DUP1 SLOAD PUSH2 0xD7B SWAP1 PUSH2 0x1800 JUMP JUMPDEST DUP1 ISZERO PUSH2 0xDC8 JUMPI DUP1 PUSH1 0x1F LT PUSH2 0xD9D JUMPI PUSH2 0x100 DUP1 DUP4 SLOAD DIV MUL DUP4 MSTORE SWAP2 PUSH1 0x20 ADD SWAP2 PUSH2 0xDC8 JUMP JUMPDEST DUP3 ADD SWAP2 SWAP1 PUSH1 0x0 MSTORE PUSH1 0x20 PUSH1 0x0 KECCAK256 SWAP1 JUMPDEST DUP2 SLOAD DUP2 MSTORE SWAP1 PUSH1 0x1 ADD SWAP1 PUSH1 0x20 ADD DUP1 DUP4 GT PUSH2 0xDAB JUMPI DUP3 SWAP1 SUB PUSH1 0x1F AND DUP3 ADD SWAP2 JUMPDEST POP POP POP POP POP DUP2 JUMP JUMPDEST PUSH1 0x5 SLOAD CALLVALUE GT PUSH2 0xDDE JUMPI PUSH1 0x0 DUP1 REVERT JUMPDEST PUSH1 0x0 ISZERO ISZERO PUSH1 0x6 PUSH1 0x0 CALLER PUSH20 0xFFFFFFFFFFFFFFFFFFFFFFFFFFFFFFFFFFFFFFFF AND PUSH20 0xFFFFFFFFFFFFFFFFFFFFFFFFFFFFFFFFFFFFFFFF AND DUP2 MSTORE PUSH1 0x20 ADD SWAP1 DUP2 MSTORE PUSH1 0x20 ADD PUSH1 0x0 KECCAK256 PUSH1 0x0 SWAP1 SLOAD SWAP1 PUSH2 0x100 EXP SWAP1 DIV PUSH1 0xFF AND ISZERO ISZERO EQ PUSH2 0xE3B JUMPI PUSH1 0x0 DUP1 REVERT JUMPDEST PUSH1 0x1 PUSH1 0x6 PUSH1 0x0 CALLER PUSH20 0xFFFFFFFFFFFFFFFFFFFFFFFFFFFFFFFFFFFFFFFF AND PUSH20 0xFFFFFFFFFFFFFFFFFFFFFFFFFFFFFFFFFFFFFFFF AND DUP2 MSTORE PUSH1 0x20 ADD SWAP1 DUP2 MSTORE PUSH1 0x20 ADD PUSH1 0x0 KECCAK256 PUSH1 0x0 PUSH2 0x100 EXP DUP2 SLOAD DUP2 PUSH1 0xFF MUL NOT AND SWAP1 DUP4 ISZERO ISZERO MUL OR SWAP1 SSTORE POP PUSH1 0x9 PUSH1 0x0 DUP2 SLOAD DUP1 SWAP3 SWAP2 SWAP1 PUSH2 0xEA6 SWAP1 PUSH2 0x1788 JUMP JUMPDEST SWAP2 SWAP1 POP SSTORE POP CALLVALUE PUSH1 0x8 PUSH1 0x0 CALLER PUSH20 0xFFFFFFFFFFFFFFFFFFFFFFFFFFFFFFFFFFFFFFFF AND PUSH20 0xFFFFFFFFFFFFFFFFFFFFFFFFFFFFFFFFFFFFFFFF AND DUP2 MSTORE PUSH1 0x20 ADD SWAP1 DUP2 MSTORE PUSH1 0x20 ADD PUSH1 0x0 KECCAK256 DUP2 SWAP1 SSTORE POP PUSH1 0x7 CALLER SWAP1 DUP1 PUSH1 0x1 DUP2 SLOAD ADD DUP1 DUP3 SSTORE DUP1 SWAP2 POP POP PUSH1 0x1 SWAP1 SUB SWAP1 PUSH1 0x0 MSTORE PUSH1 0x20 PUSH1 0x0 KECCAK256 ADD PUSH1 0x0 SWAP1 SWAP2 SWAP1 SWAP2 SWAP1 SWAP2 PUSH2 0x100 EXP DUP2 SLOAD DUP2 PUSH20 0xFFFFFFFFFFFFFFFFFFFFFFFFFFFFFFFFFFFFFFFF MUL NOT AND SWAP1 DUP4 PUSH20 0xFFFFFFFFFFFFFFFFFFFFFFFFFFFFFFFFFFFFFFFF AND MUL OR SWAP1 SSTORE POP JUMP JUMPDEST PUSH1 0x0 PUSH1 0xB PUSH1 0x0 DUP4 DUP2 MSTORE PUSH1 0x20 ADD SWAP1 DUP2 MSTORE PUSH1 0x20 ADD PUSH1 0x0 KECCAK256 SWAP1 POP PUSH1 0x6 PUSH1 0x0 CALLER PUSH20 0xFFFFFFFFFFFFFFFFFFFFFFFFFFFFFFFFFFFFFFFF AND PUSH20 0xFFFFFFFFFFFFFFFFFFFFFFFFFFFFFFFFFFFFFFFF AND DUP2 MSTORE PUSH1 0x20 ADD SWAP1 DUP2 MSTORE PUSH1 0x20 ADD PUSH1 0x0 KECCAK256 PUSH1 0x0 SWAP1 SLOAD SWAP1 PUSH2 0x100 EXP SWAP1 DIV PUSH1 0xFF AND PUSH2 0xFC1 JUMPI PUSH1 0x0 DUP1 REVERT JUMPDEST DUP1 PUSH1 0x4 ADD PUSH1 0x0 CALLER PUSH20 0xFFFFFFFFFFFFFFFFFFFFFFFFFFFFFFFFFFFFFFFF AND PUSH20 0xFFFFFFFFFFFFFFFFFFFFFFFFFFFFFFFFFFFFFFFF AND DUP2 MSTORE PUSH1 0x20 ADD SWAP1 DUP2 MSTORE PUSH1 0x20 ADD PUSH1 0x0 KECCAK256 PUSH1 0x0 SWAP1 SLOAD SWAP1 PUSH2 0x100 EXP SWAP1 DIV PUSH1 0xFF AND ISZERO PUSH2 0x101A JUMPI PUSH1 0x0 DUP1 REVERT JUMPDEST PUSH1 0x1 DUP2 PUSH1 0x4 ADD PUSH1 0x0 CALLER PUSH20 0xFFFFFFFFFFFFFFFFFFFFFFFFFFFFFFFFFFFFFFFF AND PUSH20 0xFFFFFFFFFFFFFFFFFFFFFFFFFFFFFFFFFFFFFFFF AND DUP2 MSTORE PUSH1 0x20 ADD SWAP1 DUP2 MSTORE PUSH1 0x20 ADD PUSH1 0x0 KECCAK256 PUSH1 0x0 PUSH2 0x100 EXP DUP2 SLOAD DUP2 PUSH1 0xFF MUL NOT AND SWAP1 DUP4 ISZERO ISZERO MUL OR SWAP1 SSTORE POP DUP1 PUSH1 0x3 ADD PUSH1 0x0 DUP2 SLOAD DUP1 SWAP3 SWAP2 SWAP1 PUSH2 0x1089 SWAP1 PUSH2 0x1788 JUMP JUMPDEST SWAP2 SWAP1 POP SSTORE POP POP POP JUMP JUMPDEST PUSH1 0x9 SLOAD DUP2 JUMP JUMPDEST DUP3 DUP1 SLOAD PUSH2 0x10A4 SWAP1 PUSH2 0x1800 JUMP JUMPDEST SWAP1 PUSH1 0x0 MSTORE PUSH1 0x20 PUSH1 0x0 KECCAK256 SWAP1 PUSH1 0x1F ADD PUSH1 0x20 SWAP1 DIV DUP2 ADD SWAP3 DUP3 PUSH2 0x10C6 JUMPI PUSH1 0x0 DUP6 SSTORE PUSH2 0x110D JUMP JUMPDEST DUP3 PUSH1 0x1F LT PUSH2 0x10DF JUMPI DUP1 MLOAD PUSH1 0xFF NOT AND DUP4 DUP1 ADD OR DUP6 SSTORE PUSH2 0x110D JUMP JUMPDEST DUP3 DUP1 ADD PUSH1 0x1 ADD DUP6 SSTORE DUP3 ISZERO PUSH2 0x110D JUMPI SWAP2 DUP3 ADD JUMPDEST DUP3 DUP2 GT ISZERO PUSH2 0x110C JUMPI DUP3 MLOAD DUP3 SSTORE SWAP2 PUSH1 0x20 ADD SWAP2 SWAP1 PUSH1 0x1 ADD SWAP1 PUSH2 0x10F1 JUMP JUMPDEST JUMPDEST POP SWAP1 POP PUSH2 0x111A SWAP2 SWAP1 PUSH2 0x111E JUMP JUMPDEST POP SWAP1 JUMP JUMPDEST JUMPDEST DUP1 DUP3 GT ISZERO PUSH2 0x1137 JUMPI PUSH1 0x0 DUP2 PUSH1 0x0 SWAP1 SSTORE POP PUSH1 0x1 ADD PUSH2 0x111F JUMP JUMPDEST POP SWAP1 JUMP JUMPDEST PUSH1 0x0 PUSH1 0x40 MLOAD SWAP1 POP SWAP1 JUMP JUMPDEST PUSH1 0x0 DUP1 REVERT JUMPDEST PUSH1 0x0 DUP1 REVERT JUMPDEST PUSH1 0x0 DUP2 SWAP1 POP SWAP2 SWAP1 POP JUMP JUMPDEST PUSH2 0x1162 DUP2 PUSH2 0x114F JUMP JUMPDEST DUP2 EQ PUSH2 0x116D JUMPI PUSH1 0x0 DUP1 REVERT JUMPDEST POP JUMP JUMPDEST PUSH1 0x0 DUP2 CALLDATALOAD SWAP1 POP PUSH2 0x117F DUP2 PUSH2 0x1159 JUMP JUMPDEST SWAP3 SWAP2 POP POP JUMP JUMPDEST PUSH1 0x0 PUSH1 0x20 DUP3 DUP5 SUB SLT ISZERO PUSH2 0x119B JUMPI PUSH2 0x119A PUSH2 0x1145 JUMP JUMPDEST JUMPDEST PUSH1 0x0 PUSH2 0x11A9 DUP5 DUP3 DUP6 ADD PUSH2 0x1170 JUMP JUMPDEST SWAP2 POP POP SWAP3 SWAP2 POP POP JUMP JUMPDEST PUSH1 0x0 PUSH20 0xFFFFFFFFFFFFFFFFFFFFFFFFFFFFFFFFFFFFFFFF DUP3 AND SWAP1 POP SWAP2 SWAP1 POP JUMP JUMPDEST PUSH1 0x0 PUSH2 0x11DD DUP3 PUSH2 0x11B2 JUMP JUMPDEST SWAP1 POP SWAP2 SWAP1 POP JUMP JUMPDEST PUSH2 0x11ED DUP2 PUSH2 0x11D2 JUMP JUMPDEST DUP2 EQ PUSH2 0x11F8 JUMPI PUSH1 0x0 DUP1 REVERT JUMPDEST POP JUMP JUMPDEST PUSH1 0x0 DUP2 CALLDATALOAD SWAP1 POP PUSH2 0x120A DUP2 PUSH2 0x11E4 JUMP JUMPDEST SWAP3 SWAP2 POP POP JUMP JUMPDEST PUSH1 0x0 DUP1 PUSH1 0x40 DUP4 DUP6 SUB SLT ISZERO PUSH2 0x1227 JUMPI PUSH2 0x1226 PUSH2 0x1145 JUMP JUMPDEST JUMPDEST PUSH1 0x0 PUSH2 0x1235 DUP6 DUP3 DUP7 ADD PUSH2 0x11FB JUMP JUMPDEST SWAP3 POP POP PUSH1 0x20 PUSH2 0x1246 DUP6 DUP3 DUP7 ADD PUSH2 0x1170 JUMP JUMPDEST SWAP2 POP POP SWAP3 POP SWAP3 SWAP1 POP JUMP JUMPDEST PUSH1 0x0 DUP2 ISZERO ISZERO SWAP1 POP SWAP2 SWAP1 POP JUMP JUMPDEST PUSH2 0x1265 DUP2 PUSH2 0x1250 JUMP JUMPDEST DUP3 MSTORE POP POP JUMP JUMPDEST PUSH1 0x0 PUSH1 0x20 DUP3 ADD SWAP1 POP PUSH2 0x1280 PUSH1 0x0 DUP4 ADD DUP5 PUSH2 0x125C JUMP JUMPDEST SWAP3 SWAP2 POP POP JUMP JUMPDEST PUSH1 0x0 PUSH1 0x20 DUP3 DUP5 SUB SLT ISZERO PUSH2 0x129C JUMPI PUSH2 0x129B PUSH2 0x1145 JUMP JUMPDEST JUMPDEST PUSH1 0x0 PUSH2 0x12AA DUP5 DUP3 DUP6 ADD PUSH2 0x11FB JUMP JUMPDEST SWAP2 POP POP SWAP3 SWAP2 POP POP JUMP JUMPDEST PUSH2 0x12BC DUP2 PUSH2 0x114F JUMP JUMPDEST DUP3 MSTORE POP POP JUMP JUMPDEST PUSH1 0x0 PUSH1 0x20 DUP3 ADD SWAP1 POP PUSH2 0x12D7 PUSH1 0x0 DUP4 ADD DUP5 PUSH2 0x12B3 JUMP JUMPDEST SWAP3 SWAP2 POP POP JUMP JUMPDEST PUSH2 0x12E6 DUP2 PUSH2 0x11D2 JUMP JUMPDEST DUP3 MSTORE POP POP JUMP JUMPDEST PUSH1 0x0 DUP2 MLOAD SWAP1 POP SWAP2 SWAP1 POP JUMP JUMPDEST PUSH1 0x0 DUP3 DUP3 MSTORE PUSH1 0x20 DUP3 ADD SWAP1 POP SWAP3 SWAP2 POP POP JUMP JUMPDEST PUSH1 0x0 JUMPDEST DUP4 DUP2 LT ISZERO PUSH2 0x1326 JUMPI DUP1 DUP3 ADD MLOAD DUP2 DUP5 ADD MSTORE PUSH1 0x20 DUP2 ADD SWAP1 POP PUSH2 0x130B JUMP JUMPDEST DUP4 DUP2 GT ISZERO PUSH2 0x1335 JUMPI PUSH1 0x0 DUP5 DUP5 ADD MSTORE JUMPDEST POP POP POP POP JUMP JUMPDEST PUSH1 0x0 PUSH1 0x1F NOT PUSH1 0x1F DUP4 ADD AND SWAP1 POP SWAP2 SWAP1 POP JUMP JUMPDEST PUSH1 0x0 PUSH2 0x1357 DUP3 PUSH2 0x12EC JUMP JUMPDEST PUSH2 0x1361 DUP2 DUP6 PUSH2 0x12F7 JUMP JUMPDEST SWAP4 POP PUSH2 0x1371 DUP2 DUP6 PUSH1 0x20 DUP7 ADD PUSH2 0x1308 JUMP JUMPDEST PUSH2 0x137A DUP2 PUSH2 0x133B JUMP JUMPDEST DUP5 ADD SWAP2 POP POP SWAP3 SWAP2 POP POP JUMP JUMPDEST PUSH1 0x0 PUSH2 0x120 DUP3 ADD SWAP1 POP PUSH2 0x139B PUSH1 0x0 DUP4 ADD DUP13 PUSH2 0x12B3 JUMP JUMPDEST PUSH2 0x13A8 PUSH1 0x20 DUP4 ADD DUP12 PUSH2 0x12B3 JUMP JUMPDEST PUSH2 0x13B5 PUSH1 0x40 DUP4 ADD DUP11 PUSH2 0x12B3 JUMP JUMPDEST PUSH2 0x13C2 PUSH1 0x60 DUP4 ADD DUP10 PUSH2 0x12B3 JUMP JUMPDEST PUSH2 0x13CF PUSH1 0x80 DUP4 ADD DUP9 PUSH2 0x12DD JUMP JUMPDEST DUP2 DUP2 SUB PUSH1 0xA0 DUP4 ADD MSTORE PUSH2 0x13E1 DUP2 DUP8 PUSH2 0x134C JUMP JUMPDEST SWAP1 POP DUP2 DUP2 SUB PUSH1 0xC0 DUP4 ADD MSTORE PUSH2 0x13F5 DUP2 DUP7 PUSH2 0x134C JUMP JUMPDEST SWAP1 POP PUSH2 0x1404 PUSH1 0xE0 DUP4 ADD DUP6 PUSH2 0x12B3 JUMP JUMPDEST DUP2 DUP2 SUB PUSH2 0x100 DUP4 ADD MSTORE PUSH2 0x1417 DUP2 DUP5 PUSH2 0x134C JUMP JUMPDEST SWAP1 POP SWAP11 SWAP10 POP POP POP POP POP POP POP POP POP POP JUMP JUMPDEST PUSH1 0x0 PUSH1 0x20 DUP3 ADD SWAP1 POP PUSH2 0x143C PUSH1 0x0 DUP4 ADD DUP5 PUSH2 0x12DD JUMP JUMPDEST SWAP3 SWAP2 POP POP JUMP JUMPDEST PUSH1 0x0 PUSH2 0x144D DUP3 PUSH2 0x11B2 JUMP JUMPDEST SWAP1 POP SWAP2 SWAP1 POP JUMP JUMPDEST PUSH2 0x145D DUP2 PUSH2 0x1442 JUMP JUMPDEST DUP3 MSTORE POP POP JUMP JUMPDEST PUSH1 0x0 PUSH1 0x20 DUP3 ADD SWAP1 POP PUSH2 0x1478 PUSH1 0x0 DUP4 ADD DUP5 PUSH2 0x1454 JUMP JUMPDEST SWAP3 SWAP2 POP POP JUMP JUMPDEST PUSH1 0x0 PUSH1 0xA0 DUP3 ADD SWAP1 POP DUP2 DUP2 SUB PUSH1 0x0 DUP4 ADD MSTORE PUSH2 0x1498 DUP2 DUP9 PUSH2 0x134C JUMP JUMPDEST SWAP1 POP PUSH2 0x14A7 PUSH1 0x20 DUP4 ADD DUP8 PUSH2 0x12B3 JUMP JUMPDEST PUSH2 0x14B4 PUSH1 0x40 DUP4 ADD DUP7 PUSH2 0x1454 JUMP JUMPDEST PUSH2 0x14C1 PUSH1 0x60 DUP4 ADD DUP6 PUSH2 0x125C JUMP JUMPDEST PUSH2 0x14CE PUSH1 0x80 DUP4 ADD DUP5 PUSH2 0x12B3 JUMP JUMPDEST SWAP7 SWAP6 POP POP POP POP POP POP JUMP JUMPDEST PUSH1 0x0 DUP1 REVERT JUMPDEST PUSH1 0x0 DUP1 REVERT JUMPDEST PUSH32 0x4E487B7100000000000000000000000000000000000000000000000000000000 PUSH1 0x0 MSTORE PUSH1 0x41 PUSH1 0x4 MSTORE PUSH1 0x24 PUSH1 0x0 REVERT JUMPDEST PUSH2 0x151A DUP3 PUSH2 0x133B JUMP JUMPDEST DUP2 ADD DUP2 DUP2 LT PUSH8 0xFFFFFFFFFFFFFFFF DUP3 GT OR ISZERO PUSH2 0x1539 JUMPI PUSH2 0x1538 PUSH2 0x14E2 JUMP JUMPDEST JUMPDEST DUP1 PUSH1 0x40 MSTORE POP POP POP JUMP JUMPDEST PUSH1 0x0 PUSH2 0x154C PUSH2 0x113B JUMP JUMPDEST SWAP1 POP PUSH2 0x1558 DUP3 DUP3 PUSH2 0x1511 JUMP JUMPDEST SWAP2 SWAP1 POP JUMP JUMPDEST PUSH1 0x0 PUSH8 0xFFFFFFFFFFFFFFFF DUP3 GT ISZERO PUSH2 0x1578 JUMPI PUSH2 0x1577 PUSH2 0x14E2 JUMP JUMPDEST JUMPDEST PUSH2 0x1581 DUP3 PUSH2 0x133B JUMP JUMPDEST SWAP1 POP PUSH1 0x20 DUP2 ADD SWAP1 POP SWAP2 SWAP1 POP JUMP JUMPDEST DUP3 DUP2 DUP4 CALLDATACOPY PUSH1 0x0 DUP4 DUP4 ADD MSTORE POP POP POP JUMP JUMPDEST PUSH1 0x0 PUSH2 0x15B0 PUSH2 0x15AB DUP5 PUSH2 0x155D JUMP JUMPDEST PUSH2 0x1542 JUMP JUMPDEST SWAP1 POP DUP3 DUP2 MSTORE PUSH1 0x20 DUP2 ADD DUP5 DUP5 DUP5 ADD GT ISZERO PUSH2 0x15CC JUMPI PUSH2 0x15CB PUSH2 0x14DD JUMP JUMPDEST JUMPDEST PUSH2 0x15D7 DUP5 DUP3 DUP6 PUSH2 0x158E JUMP JUMPDEST POP SWAP4 SWAP3 POP POP POP JUMP JUMPDEST PUSH1 0x0 DUP3 PUSH1 0x1F DUP4 ADD SLT PUSH2 0x15F4 JUMPI PUSH2 0x15F3 PUSH2 0x14D8 JUMP JUMPDEST JUMPDEST DUP2 CALLDATALOAD PUSH2 0x1604 DUP5 DUP3 PUSH1 0x20 DUP7 ADD PUSH2 0x159D JUMP JUMPDEST SWAP2 POP POP SWAP3 SWAP2 POP POP JUMP JUMPDEST PUSH2 0x1616 DUP2 PUSH2 0x1442 JUMP JUMPDEST DUP2 EQ PUSH2 0x1621 JUMPI PUSH1 0x0 DUP1 REVERT JUMPDEST POP JUMP JUMPDEST PUSH1 0x0 DUP2 CALLDATALOAD SWAP1 POP PUSH2 0x1633 DUP2 PUSH2 0x160D JUMP JUMPDEST SWAP3 SWAP2 POP POP JUMP JUMPDEST PUSH1 0x0 DUP1 PUSH1 0x0 PUSH1 0x60 DUP5 DUP7 SUB SLT ISZERO PUSH2 0x1652 JUMPI PUSH2 0x1651 PUSH2 0x1145 JUMP JUMPDEST JUMPDEST PUSH1 0x0 DUP5 ADD CALLDATALOAD PUSH8 0xFFFFFFFFFFFFFFFF DUP2 GT ISZERO PUSH2 0x1670 JUMPI PUSH2 0x166F PUSH2 0x114A JUMP JUMPDEST JUMPDEST PUSH2 0x167C DUP7 DUP3 DUP8 ADD PUSH2 0x15DF JUMP JUMPDEST SWAP4 POP POP PUSH1 0x20 PUSH2 0x168D DUP7 DUP3 DUP8 ADD PUSH2 0x1170 JUMP JUMPDEST SWAP3 POP POP PUSH1 0x40 PUSH2 0x169E DUP7 DUP3 DUP8 ADD PUSH2 0x1624 JUMP JUMPDEST SWAP2 POP POP SWAP3 POP SWAP3 POP SWAP3 JUMP JUMPDEST PUSH1 0x0 PUSH1 0x20 DUP3 ADD SWAP1 POP DUP2 DUP2 SUB PUSH1 0x0 DUP4 ADD MSTORE PUSH2 0x16C2 DUP2 DUP5 PUSH2 0x134C JUMP JUMPDEST SWAP1 POP SWAP3 SWAP2 POP POP JUMP JUMPDEST PUSH32 0x4E487B7100000000000000000000000000000000000000000000000000000000 PUSH1 0x0 MSTORE PUSH1 0x12 PUSH1 0x4 MSTORE PUSH1 0x24 PUSH1 0x0 REVERT JUMPDEST PUSH32 0x4E487B7100000000000000000000000000000000000000000000000000000000 PUSH1 0x0 MSTORE PUSH1 0x11 PUSH1 0x4 MSTORE PUSH1 0x24 PUSH1 0x0 REVERT JUMPDEST PUSH1 0x0 PUSH2 0x1733 DUP3 PUSH2 0x114F JUMP JUMPDEST SWAP2 POP PUSH2 0x173E DUP4 PUSH2 0x114F JUMP JUMPDEST SWAP3 POP DUP3 PUSH2 0x174E JUMPI PUSH2 0x174D PUSH2 0x16CA JUMP JUMPDEST JUMPDEST DUP3 DUP3 DIV SWAP1 POP SWAP3 SWAP2 POP POP JUMP JUMPDEST PUSH32 0x4E487B7100000000000000000000000000000000000000000000000000000000 PUSH1 0x0 MSTORE PUSH1 0x32 PUSH1 0x4 MSTORE PUSH1 0x24 PUSH1 0x0 REVERT JUMPDEST PUSH1 0x0 PUSH2 0x1793 DUP3 PUSH2 0x114F JUMP JUMPDEST SWAP2 POP PUSH32 0xFFFFFFFFFFFFFFFFFFFFFFFFFFFFFFFFFFFFFFFFFFFFFFFFFFFFFFFFFFFFFFFF DUP3 EQ ISZERO PUSH2 0x17C6 JUMPI PUSH2 0x17C5 PUSH2 0x16F9 JUMP JUMPDEST JUMPDEST PUSH1 0x1 DUP3 ADD SWAP1 POP SWAP2 SWAP1 POP JUMP JUMPDEST PUSH32 0x4E487B7100000000000000000000000000000000000000000000000000000000 PUSH1 0x0 MSTORE PUSH1 0x22 PUSH1 0x4 MSTORE PUSH1 0x24 PUSH1 0x0 REVERT JUMPDEST PUSH1 0x0 PUSH1 0x2 DUP3 DIV SWAP1 POP PUSH1 0x1 DUP3 AND DUP1 PUSH2 0x1818 JUMPI PUSH1 0x7F DUP3 AND SWAP2 POP JUMPDEST PUSH1 0x20 DUP3 LT DUP2 EQ ISZERO PUSH2 0x182C JUMPI PUSH2 0x182B PUSH2 0x17D1 JUMP JUMPDEST JUMPDEST POP SWAP2 SWAP1 POP JUMP INVALID LOG2 PUSH5 0x6970667358 0x22 SLT KECCAK256 LOG3 0x22 BLOCKHASH 0xB9 SWAP15 SLOAD 0xE SUB 0xEA DUP2 0xC4 TIMESTAMP 0xC0 NUMBER SWAP2 0xB1 DUP3 PUSH21 0x1579BC90C137B4F4BE4FB1633F7564736F6C634300 ADDMOD MULMOD STOP CALLER "},"gasEstimates":{"creation":{"codeDepositCost":"1249600","executionCost":"infinite","totalCost":"infinite"},"external":{"approveRequest(uint256)":"infinite","contribute()":"124064","createRequest(string,uint256,address)":"infinite","deleteCampaign()":"infinite","finalizeRequest(uint256)":"infinite","financialAim()":"2540","getSummary()":"infinite","imageURL()":"infinite","isApproved(address,uint256)":"3221","manager()":"2556","minimumContribution()":"2496","numRequests()":"2540","projectAim()":"infinite","projectName()":"infinite","requests(uint256)":"infinite","supporterContributionValues(address)":"2904","supporters(address)":"2934","supportersAddresses(uint256)":"5023","supportersCount()":"2539"}},"methodIdentifiers":{"approveRequest(uint256)":"d7d1bbdb","contribute()":"d7bb99ba","createRequest(string,uint256,address)":"8a9cfd55","deleteCampaign()":"244c3c2c","finalizeRequest(uint256)":"03441006","financialAim()":"70035047","getSummary()":"4051ddac","imageURL()":"b90497e0","isApproved(address,uint256)":"2a16cca4","manager()":"481c6a75","minimumContribution()":"937e09b1","numRequests()":"9fb42b1f","projectAim()":"d3087b57","projectName()":"9a33e300","requests(uint256)":"81d12c58","supporterContributionValues(address)":"2c5cac63","supporters(address)":"647c75e2","supportersAddresses(uint256)":"4d80e709","supportersCount()":"eb7b1312"}},"storageLayout":{"storage":[{"astId":139,"contract":"Campaign.sol:Campaign","label":"manager","offset":0,"slot":"0","type":"t_address"},{"astId":141,"contract":"Campaign.sol:Campaign","label":"projectName","offset":0,"slot":"1","type":"t_string_storage"},{"astId":143,"contract":"Campaign.sol:Campaign","label":"projectAim","offset":0,"slot":"2","type":"t_string_storage"},{"astId":145,"contract":"Campaign.sol:Campaign","label":"imageURL","offset":0,"slot":"3","type":"t_string_storage"},{"astId":147,"contract":"Campaign.sol:Campaign","label":"financialAim","offset":0,"slot":"4","type":"t_uint256"},{"astId":149,"contract":"Campaign.sol:Campaign","label":"minimumContribution","offset":0,"slot":"5","type":"t_uint256"},{"astId":153,"contract":"Campaign.sol:Campaign","label":"supporters","offset":0,"slot":"6","type":"t_mapping(t_address,t_bool)"},{"astId":156,"contract":"Campaign.sol:Campaign","label":"supportersAddresses","offset":0,"slot":"7","type":"t_array(t_address_payable)dyn_storage"},{"astId":160,"contract":"Campaign.sol:Campaign","label":"supporterContributionValues","offset":0,"slot":"8","type":"t_mapping(t_address,t_uint256)"},{"astId":162,"contract":"Campaign.sol:Campaign","label":"supportersCount","offset":0,"slot":"9","type":"t_uint256"},{"astId":179,"contract":"Campaign.sol:Campaign","label":"numRequests","offset":0,"slot":"10","type":"t_uint256"},{"astId":184,"contract":"Campaign.sol:Campaign","label":"requests","offset":0,"slot":"11","type":"t_mapping(t_uint256,t_struct(Request)177_storage)"}],"types":{"t_address":{"encoding":"inplace","label":"address","numberOfBytes":"20"},"t_address_payable":{"encoding":"inplace","label":"address payable","numberOfBytes":"20"},"t_array(t_address_payable)dyn_storage":{"base":"t_address_payable","encoding":"dynamic_array","label":"address payable[]","numberOfBytes":"32"},"t_bool":{"encoding":"inplace","label":"bool","numberOfBytes":"1"},"t_mapping(t_address,t_bool)":{"encoding":"mapping","key":"t_address","label":"mapping(address => bool)","numberOfBytes":"32","value":"t_bool"},"t_mapping(t_address,t_uint256)":{"encoding":"mapping","key":"t_address","label":"mapping(address => uint256)","numberOfBytes":"32","value":"t_uint256"},"t_mapping(t_uint256,t_struct(Request)177_storage)":{"encoding":"mapping","key":"t_uint256","label":"mapping(uint256 => struct Campaign.Request)","numberOfBytes":"32","value":"t_struct(Request)177_storage"},"t_string_storage":{"encoding":"bytes","label":"string","numberOfBytes":"32"},"t_struct(Request)177_storage":{"encoding":"inplace","label":"struct Campaign.Request","members":[{"astId":164,"contract":"Campaign.sol:Campaign","label":"description","offset":0,"slot":"0","type":"t_string_storage"},{"astId":166,"contract":"Campaign.sol:Campaign","label":"value","offset":0,"slot":"1","type":"t_uint256"},{"astId":168,"contract":"Campaign.sol:Campaign","label":"recipient","offset":0,"slot":"2","type":"t_address_payable"},{"astId":170,"contract":"Campaign.sol:Campaign","label":"complete","offset":20,"slot":"2","type":"t_bool"},{"astId":172,"contract":"Campaign.sol:Campaign","label":"approvalCount","offset":0,"slot":"3","type":"t_uint256"},{"astId":176,"contract":"Campaign.sol:Campaign","label":"approvals","offset":0,"slot":"4","type":"t_mapping(t_address,t_bool)"}],"numberOfBytes":"160"},"t_uint256":{"encoding":"inplace","label":"uint256","numberOfBytes":"32"}}},"userdoc":{"kind":"user","methods":{},"version":1}}