{"abi":[{"inputs":[{"internalType":"uint256","name":"minimum","type":"uint256"},{"internalType":"address","name":"creator","type":"address"},{"internalType":"string","name":"pName","type":"string"},{"internalType":"string","name":"pAim","type":"string"},{"internalType":"string","name":"imagePath","type":"string"},{"internalType":"uint256","name":"financialGoal","type":"uint256"}],"stateMutability":"nonpayable","type":"constructor"},{"inputs":[{"internalType":"uint256","name":"index","type":"uint256"}],"name":"approveRequest","outputs":[],"stateMutability":"nonpayable","type":"function"},{"inputs":[],"name":"contribute","outputs":[],"stateMutability":"payable","type":"function"},{"inputs":[{"internalType":"string","name":"description","type":"string"},{"internalType":"uint256","name":"value","type":"uint256"},{"internalType":"address payable","name":"recipient","type":"address"}],"name":"createRequest","outputs":[],"stateMutability":"nonpayable","type":"function"},{"inputs":[{"internalType":"uint256","name":"index","type":"uint256"}],"name":"finalizeRequest","outputs":[],"stateMutability":"nonpayable","type":"function"},{"inputs":[],"name":"financialAim","outputs":[{"internalType":"uint256","name":"","type":"uint256"}],"stateMutability":"view","type":"function"},{"inputs":[],"name":"getSummary","outputs":[{"internalType":"uint256","name":"","type":"uint256"},{"internalType":"uint256","name":"","type":"uint256"},{"internalType":"uint256","name":"","type":"uint256"},{"internalType":"uint256","name":"","type":"uint256"},{"internalType":"address","name":"","type":"address"},{"internalType":"string","name":"","type":"string"},{"internalType":"string","name":"","type":"string"},{"internalType":"uint256","name":"","type":"uint256"},{"internalType":"string","name":"","type":"string"}],"stateMutability":"view","type":"function"},{"inputs":[],"name":"imageURL","outputs":[{"internalType":"string","name":"","type":"string"}],"stateMutability":"view","type":"function"},{"inputs":[],"name":"manager","outputs":[{"internalType":"address","name":"","type":"address"}],"stateMutability":"view","type":"function"},{"inputs":[],"name":"minimumContribution","outputs":[{"internalType":"uint256","name":"","type":"uint256"}],"stateMutability":"view","type":"function"},{"inputs":[],"name":"numRequests","outputs":[{"internalType":"uint256","name":"","type":"uint256"}],"stateMutability":"view","type":"function"},{"inputs":[],"name":"projectAim","outputs":[{"internalType":"string","name":"","type":"string"}],"stateMutability":"view","type":"function"},{"inputs":[],"name":"projectName","outputs":[{"internalType":"string","name":"","type":"string"}],"stateMutability":"view","type":"function"},{"inputs":[{"internalType":"uint256","name":"","type":"uint256"}],"name":"requests","outputs":[{"internalType":"string","name":"description","type":"string"},{"internalType":"uint256","name":"value","type":"uint256"},{"internalType":"address payable","name":"recipient","type":"address"},{"internalType":"bool","name":"complete","type":"bool"},{"internalType":"uint256","name":"approvalCount","type":"uint256"}],"stateMutability":"view","type":"function"},{"inputs":[{"internalType":"address","name":"","type":"address"}],"name":"supporters","outputs":[{"internalType":"bool","name":"","type":"bool"}],"stateMutability":"view","type":"function"},{"inputs":[],"name":"supportersCount","outputs":[{"internalType":"uint256","name":"","type":"uint256"}],"stateMutability":"view","type":"function"}],"devdoc":{"kind":"dev","methods":{},"version":1},"evm":{"assembly":"    /* \"Campaign.sol\":557:3080  contract Campaign {... */\n  mstore(0x40, 0x80)\n    /* \"Campaign.sol\":1130:1456  constructor(uint minimum, address creator, string memory pName, string memory pAim, string memory imagePath, uint financialGoal) {... */\n  callvalue\n  dup1\n  iszero\n  tag_1\n  jumpi\n  0x00\n  dup1\n  revert\ntag_1:\n  pop\n  mload(0x40)\n  sub(codesize, bytecodeSize)\n  dup1\n  bytecodeSize\n  dup4\n  codecopy\n  dup2\n  dup2\n  add\n  0x40\n  mstore\n  dup2\n  add\n  swap1\n  tag_2\n  swap2\n  swap1\n  tag_3\n  jump\t// in\ntag_2:\n    /* \"Campaign.sol\":1279:1286  creator */\n  dup5\n    /* \"Campaign.sol\":1269:1276  manager */\n  0x00\n  dup1\n    /* \"Campaign.sol\":1269:1286  manager = creator */\n  0x0100\n  exp\n  dup2\n  sload\n  dup2\n  0xffffffffffffffffffffffffffffffffffffffff\n  mul\n  not\n  and\n  swap1\n  dup4\n  0xffffffffffffffffffffffffffffffffffffffff\n  and\n  mul\n  or\n  swap1\n  sstore\n  pop\n    /* \"Campaign.sol\":1318:1325  minimum */\n  dup6\n    /* \"Campaign.sol\":1296:1315  minimumContribution */\n  0x05\n    /* \"Campaign.sol\":1296:1325  minimumContribution = minimum */\n  dup2\n  swap1\n  sstore\n  pop\n    /* \"Campaign.sol\":1349:1354  pName */\n  dup4\n    /* \"Campaign.sol\":1335:1346  projectName */\n  0x01\n    /* \"Campaign.sol\":1335:1354  projectName = pName */\n  swap1\n  dup1\n  mload\n  swap1\n  0x20\n  add\n  swap1\n  tag_6\n  swap3\n  swap2\n  swap1\n  tag_7\n  jump\t// in\ntag_6:\n  pop\n    /* \"Campaign.sol\":1377:1381  pAim */\n  dup3\n    /* \"Campaign.sol\":1364:1374  projectAim */\n  0x02\n    /* \"Campaign.sol\":1364:1381  projectAim = pAim */\n  swap1\n  dup1\n  mload\n  swap1\n  0x20\n  add\n  swap1\n  tag_8\n  swap3\n  swap2\n  swap1\n  tag_7\n  jump\t// in\ntag_8:\n  pop\n    /* \"Campaign.sol\":1406:1419  financialGoal */\n  dup1\n    /* \"Campaign.sol\":1391:1403  financialAim */\n  0x04\n    /* \"Campaign.sol\":1391:1419  financialAim = financialGoal */\n  dup2\n  swap1\n  sstore\n  pop\n    /* \"Campaign.sol\":1440:1449  imagePath */\n  dup2\n    /* \"Campaign.sol\":1429:1437  imageURL */\n  0x03\n    /* \"Campaign.sol\":1429:1449  imageURL = imagePath */\n  swap1\n  dup1\n  mload\n  swap1\n  0x20\n  add\n  swap1\n  tag_9\n  swap3\n  swap2\n  swap1\n  tag_7\n  jump\t// in\ntag_9:\n  pop\n    /* \"Campaign.sol\":1130:1456  constructor(uint minimum, address creator, string memory pName, string memory pAim, string memory imagePath, uint financialGoal) {... */\n  pop\n  pop\n  pop\n  pop\n  pop\n  pop\n    /* \"Campaign.sol\":557:3080  contract Campaign {... */\n  jump(tag_10)\ntag_7:\n  dup3\n  dup1\n  sload\n  tag_11\n  swap1\n  tag_12\n  jump\t// in\ntag_11:\n  swap1\n  0x00\n  mstore\n  keccak256(0x00, 0x20)\n  swap1\n  0x1f\n  add\n  0x20\n  swap1\n  div\n  dup2\n  add\n  swap3\n  dup3\n  tag_14\n  jumpi\n  0x00\n  dup6\n  sstore\n  jump(tag_13)\ntag_14:\n  dup3\n  0x1f\n  lt\n  tag_15\n  jumpi\n  dup1\n  mload\n  not(0xff)\n  and\n  dup4\n  dup1\n  add\n  or\n  dup6\n  sstore\n  jump(tag_13)\ntag_15:\n  dup3\n  dup1\n  add\n  0x01\n  add\n  dup6\n  sstore\n  dup3\n  iszero\n  tag_13\n  jumpi\n  swap2\n  dup3\n  add\ntag_16:\n  dup3\n  dup2\n  gt\n  iszero\n  tag_17\n  jumpi\n  dup3\n  mload\n  dup3\n  sstore\n  swap2\n  0x20\n  add\n  swap2\n  swap1\n  0x01\n  add\n  swap1\n  jump(tag_16)\ntag_17:\ntag_13:\n  pop\n  swap1\n  pop\n  tag_18\n  swap2\n  swap1\n  tag_19\n  jump\t// in\ntag_18:\n  pop\n  swap1\n  jump\t// out\ntag_19:\ntag_20:\n  dup1\n  dup3\n  gt\n  iszero\n  tag_21\n  jumpi\n  0x00\n  dup2\n  0x00\n  swap1\n  sstore\n  pop\n  0x01\n  add\n  jump(tag_20)\ntag_21:\n  pop\n  swap1\n  jump\t// out\n    /* \"#utility.yul\":7:82   */\ntag_22:\n    /* \"#utility.yul\":40:46   */\n  0x00\n    /* \"#utility.yul\":73:75   */\n  0x40\n    /* \"#utility.yul\":67:76   */\n  mload\n    /* \"#utility.yul\":57:76   */\n  swap1\n  pop\n    /* \"#utility.yul\":7:82   */\n  swap1\n  jump\t// out\n    /* \"#utility.yul\":88:205   */\ntag_23:\n    /* \"#utility.yul\":197:198   */\n  0x00\n    /* \"#utility.yul\":194:195   */\n  dup1\n    /* \"#utility.yul\":187:199   */\n  revert\n    /* \"#utility.yul\":211:328   */\ntag_24:\n    /* \"#utility.yul\":320:321   */\n  0x00\n    /* \"#utility.yul\":317:318   */\n  dup1\n    /* \"#utility.yul\":310:322   */\n  revert\n    /* \"#utility.yul\":334:411   */\ntag_25:\n    /* \"#utility.yul\":371:378   */\n  0x00\n    /* \"#utility.yul\":400:405   */\n  dup2\n    /* \"#utility.yul\":389:405   */\n  swap1\n  pop\n    /* \"#utility.yul\":334:411   */\n  swap2\n  swap1\n  pop\n  jump\t// out\n    /* \"#utility.yul\":417:539   */\ntag_26:\n    /* \"#utility.yul\":490:514   */\n  tag_49\n    /* \"#utility.yul\":508:513   */\n  dup2\n    /* \"#utility.yul\":490:514   */\n  tag_25\n  jump\t// in\ntag_49:\n    /* \"#utility.yul\":483:488   */\n  dup2\n    /* \"#utility.yul\":480:515   */\n  eq\n    /* \"#utility.yul\":470:533   */\n  tag_50\n  jumpi\n    /* \"#utility.yul\":529:530   */\n  0x00\n    /* \"#utility.yul\":526:527   */\n  dup1\n    /* \"#utility.yul\":519:531   */\n  revert\n    /* \"#utility.yul\":470:533   */\ntag_50:\n    /* \"#utility.yul\":417:539   */\n  pop\n  jump\t// out\n    /* \"#utility.yul\":545:688   */\ntag_27:\n    /* \"#utility.yul\":602:607   */\n  0x00\n    /* \"#utility.yul\":633:639   */\n  dup2\n    /* \"#utility.yul\":627:640   */\n  mload\n    /* \"#utility.yul\":618:640   */\n  swap1\n  pop\n    /* \"#utility.yul\":649:682   */\n  tag_52\n    /* \"#utility.yul\":676:681   */\n  dup2\n    /* \"#utility.yul\":649:682   */\n  tag_26\n  jump\t// in\ntag_52:\n    /* \"#utility.yul\":545:688   */\n  swap3\n  swap2\n  pop\n  pop\n  jump\t// out\n    /* \"#utility.yul\":694:820   */\ntag_28:\n    /* \"#utility.yul\":731:738   */\n  0x00\n    /* \"#utility.yul\":771:813   */\n  0xffffffffffffffffffffffffffffffffffffffff\n    /* \"#utility.yul\":764:769   */\n  dup3\n    /* \"#utility.yul\":760:814   */\n  and\n    /* \"#utility.yul\":749:814   */\n  swap1\n  pop\n    /* \"#utility.yul\":694:820   */\n  swap2\n  swap1\n  pop\n  jump\t// out\n    /* \"#utility.yul\":826:922   */\ntag_29:\n    /* \"#utility.yul\":863:870   */\n  0x00\n    /* \"#utility.yul\":892:916   */\n  tag_55\n    /* \"#utility.yul\":910:915   */\n  dup3\n    /* \"#utility.yul\":892:916   */\n  tag_28\n  jump\t// in\ntag_55:\n    /* \"#utility.yul\":881:916   */\n  swap1\n  pop\n    /* \"#utility.yul\":826:922   */\n  swap2\n  swap1\n  pop\n  jump\t// out\n    /* \"#utility.yul\":928:1050   */\ntag_30:\n    /* \"#utility.yul\":1001:1025   */\n  tag_57\n    /* \"#utility.yul\":1019:1024   */\n  dup2\n    /* \"#utility.yul\":1001:1025   */\n  tag_29\n  jump\t// in\ntag_57:\n    /* \"#utility.yul\":994:999   */\n  dup2\n    /* \"#utility.yul\":991:1026   */\n  eq\n    /* \"#utility.yul\":981:1044   */\n  tag_58\n  jumpi\n    /* \"#utility.yul\":1040:1041   */\n  0x00\n    /* \"#utility.yul\":1037:1038   */\n  dup1\n    /* \"#utility.yul\":1030:1042   */\n  revert\n    /* \"#utility.yul\":981:1044   */\ntag_58:\n    /* \"#utility.yul\":928:1050   */\n  pop\n  jump\t// out\n    /* \"#utility.yul\":1056:1199   */\ntag_31:\n    /* \"#utility.yul\":1113:1118   */\n  0x00\n    /* \"#utility.yul\":1144:1150   */\n  dup2\n    /* \"#utility.yul\":1138:1151   */\n  mload\n    /* \"#utility.yul\":1129:1151   */\n  swap1\n  pop\n    /* \"#utility.yul\":1160:1193   */\n  tag_60\n    /* \"#utility.yul\":1187:1192   */\n  dup2\n    /* \"#utility.yul\":1160:1193   */\n  tag_30\n  jump\t// in\ntag_60:\n    /* \"#utility.yul\":1056:1199   */\n  swap3\n  swap2\n  pop\n  pop\n  jump\t// out\n    /* \"#utility.yul\":1205:1322   */\ntag_32:\n    /* \"#utility.yul\":1314:1315   */\n  0x00\n    /* \"#utility.yul\":1311:1312   */\n  dup1\n    /* \"#utility.yul\":1304:1316   */\n  revert\n    /* \"#utility.yul\":1328:1445   */\ntag_33:\n    /* \"#utility.yul\":1437:1438   */\n  0x00\n    /* \"#utility.yul\":1434:1435   */\n  dup1\n    /* \"#utility.yul\":1427:1439   */\n  revert\n    /* \"#utility.yul\":1451:1553   */\ntag_34:\n    /* \"#utility.yul\":1492:1498   */\n  0x00\n    /* \"#utility.yul\":1543:1545   */\n  0x1f\n    /* \"#utility.yul\":1539:1546   */\n  not\n    /* \"#utility.yul\":1534:1536   */\n  0x1f\n    /* \"#utility.yul\":1527:1532   */\n  dup4\n    /* \"#utility.yul\":1523:1537   */\n  add\n    /* \"#utility.yul\":1519:1547   */\n  and\n    /* \"#utility.yul\":1509:1547   */\n  swap1\n  pop\n    /* \"#utility.yul\":1451:1553   */\n  swap2\n  swap1\n  pop\n  jump\t// out\n    /* \"#utility.yul\":1559:1739   */\ntag_35:\n    /* \"#utility.yul\":1607:1684   */\n  0x4e487b7100000000000000000000000000000000000000000000000000000000\n    /* \"#utility.yul\":1604:1605   */\n  0x00\n    /* \"#utility.yul\":1597:1685   */\n  mstore\n    /* \"#utility.yul\":1704:1708   */\n  0x41\n    /* \"#utility.yul\":1701:1702   */\n  0x04\n    /* \"#utility.yul\":1694:1709   */\n  mstore\n    /* \"#utility.yul\":1728:1732   */\n  0x24\n    /* \"#utility.yul\":1725:1726   */\n  0x00\n    /* \"#utility.yul\":1718:1733   */\n  revert\n    /* \"#utility.yul\":1745:2026   */\ntag_36:\n    /* \"#utility.yul\":1828:1855   */\n  tag_66\n    /* \"#utility.yul\":1850:1854   */\n  dup3\n    /* \"#utility.yul\":1828:1855   */\n  tag_34\n  jump\t// in\ntag_66:\n    /* \"#utility.yul\":1820:1826   */\n  dup2\n    /* \"#utility.yul\":1816:1856   */\n  add\n    /* \"#utility.yul\":1958:1964   */\n  dup2\n    /* \"#utility.yul\":1946:1956   */\n  dup2\n    /* \"#utility.yul\":1943:1965   */\n  lt\n    /* \"#utility.yul\":1922:1940   */\n  0xffffffffffffffff\n    /* \"#utility.yul\":1910:1920   */\n  dup3\n    /* \"#utility.yul\":1907:1941   */\n  gt\n    /* \"#utility.yul\":1904:1966   */\n  or\n    /* \"#utility.yul\":1901:1989   */\n  iszero\n  tag_67\n  jumpi\n    /* \"#utility.yul\":1969:1987   */\n  tag_68\n  tag_35\n  jump\t// in\ntag_68:\n    /* \"#utility.yul\":1901:1989   */\ntag_67:\n    /* \"#utility.yul\":2009:2019   */\n  dup1\n    /* \"#utility.yul\":2005:2007   */\n  0x40\n    /* \"#utility.yul\":1998:2020   */\n  mstore\n    /* \"#utility.yul\":1788:2026   */\n  pop\n    /* \"#utility.yul\":1745:2026   */\n  pop\n  pop\n  jump\t// out\n    /* \"#utility.yul\":2032:2161   */\ntag_37:\n    /* \"#utility.yul\":2066:2072   */\n  0x00\n    /* \"#utility.yul\":2093:2113   */\n  tag_70\n  tag_22\n  jump\t// in\ntag_70:\n    /* \"#utility.yul\":2083:2113   */\n  swap1\n  pop\n    /* \"#utility.yul\":2122:2155   */\n  tag_71\n    /* \"#utility.yul\":2150:2154   */\n  dup3\n    /* \"#utility.yul\":2142:2148   */\n  dup3\n    /* \"#utility.yul\":2122:2155   */\n  tag_36\n  jump\t// in\ntag_71:\n    /* \"#utility.yul\":2032:2161   */\n  swap2\n  swap1\n  pop\n  jump\t// out\n    /* \"#utility.yul\":2167:2475   */\ntag_38:\n    /* \"#utility.yul\":2229:2233   */\n  0x00\n    /* \"#utility.yul\":2319:2337   */\n  0xffffffffffffffff\n    /* \"#utility.yul\":2311:2317   */\n  dup3\n    /* \"#utility.yul\":2308:2338   */\n  gt\n    /* \"#utility.yul\":2305:2361   */\n  iszero\n  tag_73\n  jumpi\n    /* \"#utility.yul\":2341:2359   */\n  tag_74\n  tag_35\n  jump\t// in\ntag_74:\n    /* \"#utility.yul\":2305:2361   */\ntag_73:\n    /* \"#utility.yul\":2379:2408   */\n  tag_75\n    /* \"#utility.yul\":2401:2407   */\n  dup3\n    /* \"#utility.yul\":2379:2408   */\n  tag_34\n  jump\t// in\ntag_75:\n    /* \"#utility.yul\":2371:2408   */\n  swap1\n  pop\n    /* \"#utility.yul\":2463:2467   */\n  0x20\n    /* \"#utility.yul\":2457:2461   */\n  dup2\n    /* \"#utility.yul\":2453:2468   */\n  add\n    /* \"#utility.yul\":2445:2468   */\n  swap1\n  pop\n    /* \"#utility.yul\":2167:2475   */\n  swap2\n  swap1\n  pop\n  jump\t// out\n    /* \"#utility.yul\":2481:2788   */\ntag_39:\n    /* \"#utility.yul\":2549:2550   */\n  0x00\n    /* \"#utility.yul\":2559:2672   */\ntag_77:\n    /* \"#utility.yul\":2573:2579   */\n  dup4\n    /* \"#utility.yul\":2570:2571   */\n  dup2\n    /* \"#utility.yul\":2567:2580   */\n  lt\n    /* \"#utility.yul\":2559:2672   */\n  iszero\n  tag_79\n  jumpi\n    /* \"#utility.yul\":2658:2659   */\n  dup1\n    /* \"#utility.yul\":2653:2656   */\n  dup3\n    /* \"#utility.yul\":2649:2660   */\n  add\n    /* \"#utility.yul\":2643:2661   */\n  mload\n    /* \"#utility.yul\":2639:2640   */\n  dup2\n    /* \"#utility.yul\":2634:2637   */\n  dup5\n    /* \"#utility.yul\":2630:2641   */\n  add\n    /* \"#utility.yul\":2623:2662   */\n  mstore\n    /* \"#utility.yul\":2595:2597   */\n  0x20\n    /* \"#utility.yul\":2592:2593   */\n  dup2\n    /* \"#utility.yul\":2588:2598   */\n  add\n    /* \"#utility.yul\":2583:2598   */\n  swap1\n  pop\n    /* \"#utility.yul\":2559:2672   */\n  jump(tag_77)\ntag_79:\n    /* \"#utility.yul\":2690:2696   */\n  dup4\n    /* \"#utility.yul\":2687:2688   */\n  dup2\n    /* \"#utility.yul\":2684:2697   */\n  gt\n    /* \"#utility.yul\":2681:2782   */\n  iszero\n  tag_80\n  jumpi\n    /* \"#utility.yul\":2770:2771   */\n  0x00\n    /* \"#utility.yul\":2761:2767   */\n  dup5\n    /* \"#utility.yul\":2756:2759   */\n  dup5\n    /* \"#utility.yul\":2752:2768   */\n  add\n    /* \"#utility.yul\":2745:2772   */\n  mstore\n    /* \"#utility.yul\":2681:2782   */\ntag_80:\n    /* \"#utility.yul\":2530:2788   */\n  pop\n    /* \"#utility.yul\":2481:2788   */\n  pop\n  pop\n  pop\n  jump\t// out\n    /* \"#utility.yul\":2794:3215   */\ntag_40:\n    /* \"#utility.yul\":2883:2888   */\n  0x00\n    /* \"#utility.yul\":2908:2974   */\n  tag_82\n    /* \"#utility.yul\":2924:2973   */\n  tag_83\n    /* \"#utility.yul\":2966:2972   */\n  dup5\n    /* \"#utility.yul\":2924:2973   */\n  tag_38\n  jump\t// in\ntag_83:\n    /* \"#utility.yul\":2908:2974   */\n  tag_37\n  jump\t// in\ntag_82:\n    /* \"#utility.yul\":2899:2974   */\n  swap1\n  pop\n    /* \"#utility.yul\":2997:3003   */\n  dup3\n    /* \"#utility.yul\":2990:2995   */\n  dup2\n    /* \"#utility.yul\":2983:3004   */\n  mstore\n    /* \"#utility.yul\":3035:3039   */\n  0x20\n    /* \"#utility.yul\":3028:3033   */\n  dup2\n    /* \"#utility.yul\":3024:3040   */\n  add\n    /* \"#utility.yul\":3073:3076   */\n  dup5\n    /* \"#utility.yul\":3064:3070   */\n  dup5\n    /* \"#utility.yul\":3059:3062   */\n  dup5\n    /* \"#utility.yul\":3055:3071   */\n  add\n    /* \"#utility.yul\":3052:3077   */\n  gt\n    /* \"#utility.yul\":3049:3161   */\n  iszero\n  tag_84\n  jumpi\n    /* \"#utility.yul\":3080:3159   */\n  tag_85\n  tag_33\n  jump\t// in\ntag_85:\n    /* \"#utility.yul\":3049:3161   */\ntag_84:\n    /* \"#utility.yul\":3170:3209   */\n  tag_86\n    /* \"#utility.yul\":3202:3208   */\n  dup5\n    /* \"#utility.yul\":3197:3200   */\n  dup3\n    /* \"#utility.yul\":3192:3195   */\n  dup6\n    /* \"#utility.yul\":3170:3209   */\n  tag_39\n  jump\t// in\ntag_86:\n    /* \"#utility.yul\":2889:3215   */\n  pop\n    /* \"#utility.yul\":2794:3215   */\n  swap4\n  swap3\n  pop\n  pop\n  pop\n  jump\t// out\n    /* \"#utility.yul\":3235:3590   */\ntag_41:\n    /* \"#utility.yul\":3302:3307   */\n  0x00\n    /* \"#utility.yul\":3351:3354   */\n  dup3\n    /* \"#utility.yul\":3344:3348   */\n  0x1f\n    /* \"#utility.yul\":3336:3342   */\n  dup4\n    /* \"#utility.yul\":3332:3349   */\n  add\n    /* \"#utility.yul\":3328:3355   */\n  slt\n    /* \"#utility.yul\":3318:3440   */\n  tag_88\n  jumpi\n    /* \"#utility.yul\":3359:3438   */\n  tag_89\n  tag_32\n  jump\t// in\ntag_89:\n    /* \"#utility.yul\":3318:3440   */\ntag_88:\n    /* \"#utility.yul\":3469:3475   */\n  dup2\n    /* \"#utility.yul\":3463:3476   */\n  mload\n    /* \"#utility.yul\":3494:3584   */\n  tag_90\n    /* \"#utility.yul\":3580:3583   */\n  dup5\n    /* \"#utility.yul\":3572:3578   */\n  dup3\n    /* \"#utility.yul\":3565:3569   */\n  0x20\n    /* \"#utility.yul\":3557:3563   */\n  dup7\n    /* \"#utility.yul\":3553:3570   */\n  add\n    /* \"#utility.yul\":3494:3584   */\n  tag_40\n  jump\t// in\ntag_90:\n    /* \"#utility.yul\":3485:3584   */\n  swap2\n  pop\n    /* \"#utility.yul\":3308:3590   */\n  pop\n    /* \"#utility.yul\":3235:3590   */\n  swap3\n  swap2\n  pop\n  pop\n  jump\t// out\n    /* \"#utility.yul\":3596:5249   */\ntag_3:\n    /* \"#utility.yul\":3741:3747   */\n  0x00\n    /* \"#utility.yul\":3749:3755   */\n  dup1\n    /* \"#utility.yul\":3757:3763   */\n  0x00\n    /* \"#utility.yul\":3765:3771   */\n  dup1\n    /* \"#utility.yul\":3773:3779   */\n  0x00\n    /* \"#utility.yul\":3781:3787   */\n  dup1\n    /* \"#utility.yul\":3830:3833   */\n  0xc0\n    /* \"#utility.yul\":3818:3827   */\n  dup8\n    /* \"#utility.yul\":3809:3816   */\n  dup10\n    /* \"#utility.yul\":3805:3828   */\n  sub\n    /* \"#utility.yul\":3801:3834   */\n  slt\n    /* \"#utility.yul\":3798:3918   */\n  iszero\n  tag_92\n  jumpi\n    /* \"#utility.yul\":3837:3916   */\n  tag_93\n  tag_23\n  jump\t// in\ntag_93:\n    /* \"#utility.yul\":3798:3918   */\ntag_92:\n    /* \"#utility.yul\":3957:3958   */\n  0x00\n    /* \"#utility.yul\":3982:4046   */\n  tag_94\n    /* \"#utility.yul\":4038:4045   */\n  dup10\n    /* \"#utility.yul\":4029:4035   */\n  dup3\n    /* \"#utility.yul\":4018:4027   */\n  dup11\n    /* \"#utility.yul\":4014:4036   */\n  add\n    /* \"#utility.yul\":3982:4046   */\n  tag_27\n  jump\t// in\ntag_94:\n    /* \"#utility.yul\":3972:4046   */\n  swap7\n  pop\n    /* \"#utility.yul\":3928:4056   */\n  pop\n    /* \"#utility.yul\":4095:4097   */\n  0x20\n    /* \"#utility.yul\":4121:4185   */\n  tag_95\n    /* \"#utility.yul\":4177:4184   */\n  dup10\n    /* \"#utility.yul\":4168:4174   */\n  dup3\n    /* \"#utility.yul\":4157:4166   */\n  dup11\n    /* \"#utility.yul\":4153:4175   */\n  add\n    /* \"#utility.yul\":4121:4185   */\n  tag_31\n  jump\t// in\ntag_95:\n    /* \"#utility.yul\":4111:4185   */\n  swap6\n  pop\n    /* \"#utility.yul\":4066:4195   */\n  pop\n    /* \"#utility.yul\":4255:4257   */\n  0x40\n    /* \"#utility.yul\":4244:4253   */\n  dup8\n    /* \"#utility.yul\":4240:4258   */\n  add\n    /* \"#utility.yul\":4234:4259   */\n  mload\n    /* \"#utility.yul\":4286:4304   */\n  0xffffffffffffffff\n    /* \"#utility.yul\":4278:4284   */\n  dup2\n    /* \"#utility.yul\":4275:4305   */\n  gt\n    /* \"#utility.yul\":4272:4389   */\n  iszero\n  tag_96\n  jumpi\n    /* \"#utility.yul\":4308:4387   */\n  tag_97\n  tag_24\n  jump\t// in\ntag_97:\n    /* \"#utility.yul\":4272:4389   */\ntag_96:\n    /* \"#utility.yul\":4413:4487   */\n  tag_98\n    /* \"#utility.yul\":4479:4486   */\n  dup10\n    /* \"#utility.yul\":4470:4476   */\n  dup3\n    /* \"#utility.yul\":4459:4468   */\n  dup11\n    /* \"#utility.yul\":4455:4477   */\n  add\n    /* \"#utility.yul\":4413:4487   */\n  tag_41\n  jump\t// in\ntag_98:\n    /* \"#utility.yul\":4403:4487   */\n  swap5\n  pop\n    /* \"#utility.yul\":4205:4497   */\n  pop\n    /* \"#utility.yul\":4557:4559   */\n  0x60\n    /* \"#utility.yul\":4546:4555   */\n  dup8\n    /* \"#utility.yul\":4542:4560   */\n  add\n    /* \"#utility.yul\":4536:4561   */\n  mload\n    /* \"#utility.yul\":4588:4606   */\n  0xffffffffffffffff\n    /* \"#utility.yul\":4580:4586   */\n  dup2\n    /* \"#utility.yul\":4577:4607   */\n  gt\n    /* \"#utility.yul\":4574:4691   */\n  iszero\n  tag_99\n  jumpi\n    /* \"#utility.yul\":4610:4689   */\n  tag_100\n  tag_24\n  jump\t// in\ntag_100:\n    /* \"#utility.yul\":4574:4691   */\ntag_99:\n    /* \"#utility.yul\":4715:4789   */\n  tag_101\n    /* \"#utility.yul\":4781:4788   */\n  dup10\n    /* \"#utility.yul\":4772:4778   */\n  dup3\n    /* \"#utility.yul\":4761:4770   */\n  dup11\n    /* \"#utility.yul\":4757:4779   */\n  add\n    /* \"#utility.yul\":4715:4789   */\n  tag_41\n  jump\t// in\ntag_101:\n    /* \"#utility.yul\":4705:4789   */\n  swap4\n  pop\n    /* \"#utility.yul\":4507:4799   */\n  pop\n    /* \"#utility.yul\":4859:4862   */\n  0x80\n    /* \"#utility.yul\":4848:4857   */\n  dup8\n    /* \"#utility.yul\":4844:4863   */\n  add\n    /* \"#utility.yul\":4838:4864   */\n  mload\n    /* \"#utility.yul\":4891:4909   */\n  0xffffffffffffffff\n    /* \"#utility.yul\":4883:4889   */\n  dup2\n    /* \"#utility.yul\":4880:4910   */\n  gt\n    /* \"#utility.yul\":4877:4994   */\n  iszero\n  tag_102\n  jumpi\n    /* \"#utility.yul\":4913:4992   */\n  tag_103\n  tag_24\n  jump\t// in\ntag_103:\n    /* \"#utility.yul\":4877:4994   */\ntag_102:\n    /* \"#utility.yul\":5018:5092   */\n  tag_104\n    /* \"#utility.yul\":5084:5091   */\n  dup10\n    /* \"#utility.yul\":5075:5081   */\n  dup3\n    /* \"#utility.yul\":5064:5073   */\n  dup11\n    /* \"#utility.yul\":5060:5082   */\n  add\n    /* \"#utility.yul\":5018:5092   */\n  tag_41\n  jump\t// in\ntag_104:\n    /* \"#utility.yul\":5008:5092   */\n  swap3\n  pop\n    /* \"#utility.yul\":4809:5102   */\n  pop\n    /* \"#utility.yul\":5141:5144   */\n  0xa0\n    /* \"#utility.yul\":5168:5232   */\n  tag_105\n    /* \"#utility.yul\":5224:5231   */\n  dup10\n    /* \"#utility.yul\":5215:5221   */\n  dup3\n    /* \"#utility.yul\":5204:5213   */\n  dup11\n    /* \"#utility.yul\":5200:5222   */\n  add\n    /* \"#utility.yul\":5168:5232   */\n  tag_27\n  jump\t// in\ntag_105:\n    /* \"#utility.yul\":5158:5232   */\n  swap2\n  pop\n    /* \"#utility.yul\":5112:5242   */\n  pop\n    /* \"#utility.yul\":3596:5249   */\n  swap3\n  swap6\n  pop\n  swap3\n  swap6\n  pop\n  swap3\n  swap6\n  jump\t// out\n    /* \"#utility.yul\":5255:5435   */\ntag_42:\n    /* \"#utility.yul\":5303:5380   */\n  0x4e487b7100000000000000000000000000000000000000000000000000000000\n    /* \"#utility.yul\":5300:5301   */\n  0x00\n    /* \"#utility.yul\":5293:5381   */\n  mstore\n    /* \"#utility.yul\":5400:5404   */\n  0x22\n    /* \"#utility.yul\":5397:5398   */\n  0x04\n    /* \"#utility.yul\":5390:5405   */\n  mstore\n    /* \"#utility.yul\":5424:5428   */\n  0x24\n    /* \"#utility.yul\":5421:5422   */\n  0x00\n    /* \"#utility.yul\":5414:5429   */\n  revert\n    /* \"#utility.yul\":5441:5761   */\ntag_12:\n    /* \"#utility.yul\":5485:5491   */\n  0x00\n    /* \"#utility.yul\":5522:5523   */\n  0x02\n    /* \"#utility.yul\":5516:5520   */\n  dup3\n    /* \"#utility.yul\":5512:5524   */\n  div\n    /* \"#utility.yul\":5502:5524   */\n  swap1\n  pop\n    /* \"#utility.yul\":5569:5570   */\n  0x01\n    /* \"#utility.yul\":5563:5567   */\n  dup3\n    /* \"#utility.yul\":5559:5571   */\n  and\n    /* \"#utility.yul\":5590:5608   */\n  dup1\n    /* \"#utility.yul\":5580:5661   */\n  tag_108\n  jumpi\n    /* \"#utility.yul\":5646:5650   */\n  0x7f\n    /* \"#utility.yul\":5638:5644   */\n  dup3\n    /* \"#utility.yul\":5634:5651   */\n  and\n    /* \"#utility.yul\":5624:5651   */\n  swap2\n  pop\n    /* \"#utility.yul\":5580:5661   */\ntag_108:\n    /* \"#utility.yul\":5708:5710   */\n  0x20\n    /* \"#utility.yul\":5700:5706   */\n  dup3\n    /* \"#utility.yul\":5697:5711   */\n  lt\n    /* \"#utility.yul\":5677:5695   */\n  dup2\n    /* \"#utility.yul\":5674:5712   */\n  eq\n    /* \"#utility.yul\":5671:5755   */\n  iszero\n  tag_109\n  jumpi\n    /* \"#utility.yul\":5727:5745   */\n  tag_110\n  tag_42\n  jump\t// in\ntag_110:\n    /* \"#utility.yul\":5671:5755   */\ntag_109:\n    /* \"#utility.yul\":5492:5761   */\n  pop\n    /* \"#utility.yul\":5441:5761   */\n  swap2\n  swap1\n  pop\n  jump\t// out\n    /* \"Campaign.sol\":557:3080  contract Campaign {... */\ntag_10:\n  dataSize(sub_0)\n  dup1\n  dataOffset(sub_0)\n  0x00\n  codecopy\n  0x00\n  return\nstop\n\nsub_0: assembly {\n        /* \"Campaign.sol\":557:3080  contract Campaign {... */\n      mstore(0x40, 0x80)\n      jumpi(tag_1, lt(calldatasize, 0x04))\n      shr(0xe0, calldataload(0x00))\n      dup1\n      0x937e09b1\n      gt\n      tag_17\n      jumpi\n      dup1\n      0xd3087b57\n      gt\n      tag_18\n      jumpi\n      dup1\n      0xd3087b57\n      eq\n      tag_13\n      jumpi\n      dup1\n      0xd7bb99ba\n      eq\n      tag_14\n      jumpi\n      dup1\n      0xd7d1bbdb\n      eq\n      tag_15\n      jumpi\n      dup1\n      0xeb7b1312\n      eq\n      tag_16\n      jumpi\n      jump(tag_1)\n    tag_18:\n      dup1\n      0x937e09b1\n      eq\n      tag_9\n      jumpi\n      dup1\n      0x9a33e300\n      eq\n      tag_10\n      jumpi\n      dup1\n      0x9fb42b1f\n      eq\n      tag_11\n      jumpi\n      dup1\n      0xb90497e0\n      eq\n      tag_12\n      jumpi\n      jump(tag_1)\n    tag_17:\n      dup1\n      0x647c75e2\n      gt\n      tag_19\n      jumpi\n      dup1\n      0x647c75e2\n      eq\n      tag_5\n      jumpi\n      dup1\n      0x70035047\n      eq\n      tag_6\n      jumpi\n      dup1\n      0x81d12c58\n      eq\n      tag_7\n      jumpi\n      dup1\n      0x8a9cfd55\n      eq\n      tag_8\n      jumpi\n      jump(tag_1)\n    tag_19:\n      dup1\n      0x03441006\n      eq\n      tag_2\n      jumpi\n      dup1\n      0x4051ddac\n      eq\n      tag_3\n      jumpi\n      dup1\n      0x481c6a75\n      eq\n      tag_4\n      jumpi\n    tag_1:\n      0x00\n      dup1\n      revert\n        /* \"Campaign.sol\":2368:2672  function finalizeRequest(uint index) public restricted {... */\n    tag_2:\n      callvalue\n      dup1\n      iszero\n      tag_20\n      jumpi\n      0x00\n      dup1\n      revert\n    tag_20:\n      pop\n      tag_21\n      0x04\n      dup1\n      calldatasize\n      sub\n      dup2\n      add\n      swap1\n      tag_22\n      swap2\n      swap1\n      tag_23\n      jump\t// in\n    tag_22:\n      tag_24\n      jump\t// in\n    tag_21:\n      stop\n        /* \"Campaign.sol\":2679:3078  function getSummary() public view returns (... */\n    tag_3:\n      callvalue\n      dup1\n      iszero\n      tag_25\n      jumpi\n      0x00\n      dup1\n      revert\n    tag_25:\n      pop\n      tag_26\n      tag_27\n      jump\t// in\n    tag_26:\n      mload(0x40)\n      tag_28\n      swap10\n      swap9\n      swap8\n      swap7\n      swap6\n      swap5\n      swap4\n      swap3\n      swap2\n      swap1\n      tag_29\n      jump\t// in\n    tag_28:\n      mload(0x40)\n      dup1\n      swap2\n      sub\n      swap1\n      return\n        /* \"Campaign.sol\":581:603  address public manager */\n    tag_4:\n      callvalue\n      dup1\n      iszero\n      tag_30\n      jumpi\n      0x00\n      dup1\n      revert\n    tag_30:\n      pop\n      tag_31\n      tag_32\n      jump\t// in\n    tag_31:\n      mload(0x40)\n      tag_33\n      swap2\n      swap1\n      tag_34\n      jump\t// in\n    tag_33:\n      mload(0x40)\n      dup1\n      swap2\n      sub\n      swap1\n      return\n        /* \"Campaign.sol\":765:807  mapping(address => bool) public supporters */\n    tag_5:\n      callvalue\n      dup1\n      iszero\n      tag_35\n      jumpi\n      0x00\n      dup1\n      revert\n    tag_35:\n      pop\n      tag_36\n      0x04\n      dup1\n      calldatasize\n      sub\n      dup2\n      add\n      swap1\n      tag_37\n      swap2\n      swap1\n      tag_38\n      jump\t// in\n    tag_37:\n      tag_39\n      jump\t// in\n    tag_36:\n      mload(0x40)\n      tag_40\n      swap2\n      swap1\n      tag_41\n      jump\t// in\n    tag_40:\n      mload(0x40)\n      dup1\n      swap2\n      sub\n      swap1\n      return\n        /* \"Campaign.sol\":698:722  uint public financialAim */\n    tag_6:\n      callvalue\n      dup1\n      iszero\n      tag_42\n      jumpi\n      0x00\n      dup1\n      revert\n    tag_42:\n      pop\n      tag_43\n      tag_44\n      jump\t// in\n    tag_43:\n      mload(0x40)\n      tag_45\n      swap2\n      swap1\n      tag_46\n      jump\t// in\n    tag_45:\n      mload(0x40)\n      dup1\n      swap2\n      sub\n      swap1\n      return\n        /* \"Campaign.sol\":1080:1121  mapping (uint => Request) public requests */\n    tag_7:\n      callvalue\n      dup1\n      iszero\n      tag_47\n      jumpi\n      0x00\n      dup1\n      revert\n    tag_47:\n      pop\n      tag_48\n      0x04\n      dup1\n      calldatasize\n      sub\n      dup2\n      add\n      swap1\n      tag_49\n      swap2\n      swap1\n      tag_23\n      jump\t// in\n    tag_49:\n      tag_50\n      jump\t// in\n    tag_48:\n      mload(0x40)\n      tag_51\n      swap6\n      swap5\n      swap4\n      swap3\n      swap2\n      swap1\n      tag_52\n      jump\t// in\n    tag_51:\n      mload(0x40)\n      dup1\n      swap2\n      sub\n      swap1\n      return\n        /* \"Campaign.sol\":1726:2051  function createRequest(string memory description, uint value, address payable recipient)... */\n    tag_8:\n      callvalue\n      dup1\n      iszero\n      tag_53\n      jumpi\n      0x00\n      dup1\n      revert\n    tag_53:\n      pop\n      tag_54\n      0x04\n      dup1\n      calldatasize\n      sub\n      dup2\n      add\n      swap1\n      tag_55\n      swap2\n      swap1\n      tag_56\n      jump\t// in\n    tag_55:\n      tag_57\n      jump\t// in\n    tag_54:\n      stop\n        /* \"Campaign.sol\":728:759  uint public minimumContribution */\n    tag_9:\n      callvalue\n      dup1\n      iszero\n      tag_58\n      jumpi\n      0x00\n      dup1\n      revert\n    tag_58:\n      pop\n      tag_59\n      tag_60\n      jump\t// in\n    tag_59:\n      mload(0x40)\n      tag_61\n      swap2\n      swap1\n      tag_46\n      jump\t// in\n    tag_61:\n      mload(0x40)\n      dup1\n      swap2\n      sub\n      swap1\n      return\n        /* \"Campaign.sol\":609:634  string public projectName */\n    tag_10:\n      callvalue\n      dup1\n      iszero\n      tag_62\n      jumpi\n      0x00\n      dup1\n      revert\n    tag_62:\n      pop\n      tag_63\n      tag_64\n      jump\t// in\n    tag_63:\n      mload(0x40)\n      tag_65\n      swap2\n      swap1\n      tag_66\n      jump\t// in\n    tag_65:\n      mload(0x40)\n      dup1\n      swap2\n      sub\n      swap1\n      return\n        /* \"Campaign.sol\":1051:1074  uint public numRequests */\n    tag_11:\n      callvalue\n      dup1\n      iszero\n      tag_67\n      jumpi\n      0x00\n      dup1\n      revert\n    tag_67:\n      pop\n      tag_68\n      tag_69\n      jump\t// in\n    tag_68:\n      mload(0x40)\n      tag_70\n      swap2\n      swap1\n      tag_46\n      jump\t// in\n    tag_70:\n      mload(0x40)\n      dup1\n      swap2\n      sub\n      swap1\n      return\n        /* \"Campaign.sol\":670:692  string public imageURL */\n    tag_12:\n      callvalue\n      dup1\n      iszero\n      tag_71\n      jumpi\n      0x00\n      dup1\n      revert\n    tag_71:\n      pop\n      tag_72\n      tag_73\n      jump\t// in\n    tag_72:\n      mload(0x40)\n      tag_74\n      swap2\n      swap1\n      tag_66\n      jump\t// in\n    tag_74:\n      mload(0x40)\n      dup1\n      swap2\n      sub\n      swap1\n      return\n        /* \"Campaign.sol\":640:664  string public projectAim */\n    tag_13:\n      callvalue\n      dup1\n      iszero\n      tag_75\n      jumpi\n      0x00\n      dup1\n      revert\n    tag_75:\n      pop\n      tag_76\n      tag_77\n      jump\t// in\n    tag_76:\n      mload(0x40)\n      tag_78\n      swap2\n      swap1\n      tag_66\n      jump\t// in\n    tag_78:\n      mload(0x40)\n      dup1\n      swap2\n      sub\n      swap1\n      return\n        /* \"Campaign.sol\":1556:1716  function contribute() public payable {... */\n    tag_14:\n      tag_79\n      tag_80\n      jump\t// in\n    tag_79:\n      stop\n        /* \"Campaign.sol\":2061:2358  function approveRequest(uint index) public {... */\n    tag_15:\n      callvalue\n      dup1\n      iszero\n      tag_81\n      jumpi\n      0x00\n      dup1\n      revert\n    tag_81:\n      pop\n      tag_82\n      0x04\n      dup1\n      calldatasize\n      sub\n      dup2\n      add\n      swap1\n      tag_83\n      swap2\n      swap1\n      tag_23\n      jump\t// in\n    tag_83:\n      tag_84\n      jump\t// in\n    tag_82:\n      stop\n        /* \"Campaign.sol\":813:840  uint public supportersCount */\n    tag_16:\n      callvalue\n      dup1\n      iszero\n      tag_85\n      jumpi\n      0x00\n      dup1\n      revert\n    tag_85:\n      pop\n      tag_86\n      tag_87\n      jump\t// in\n    tag_86:\n      mload(0x40)\n      tag_88\n      swap2\n      swap1\n      tag_46\n      jump\t// in\n    tag_88:\n      mload(0x40)\n      dup1\n      swap2\n      sub\n      swap1\n      return\n        /* \"Campaign.sol\":2368:2672  function finalizeRequest(uint index) public restricted {... */\n    tag_24:\n        /* \"Campaign.sol\":1520:1527  manager */\n      0x00\n      dup1\n      sload\n      swap1\n      0x0100\n      exp\n      swap1\n      div\n      0xffffffffffffffffffffffffffffffffffffffff\n      and\n        /* \"Campaign.sol\":1506:1527  msg.sender == manager */\n      0xffffffffffffffffffffffffffffffffffffffff\n      and\n        /* \"Campaign.sol\":1506:1516  msg.sender */\n      caller\n        /* \"Campaign.sol\":1506:1527  msg.sender == manager */\n      0xffffffffffffffffffffffffffffffffffffffff\n      and\n      eq\n        /* \"Campaign.sol\":1498:1528  require(msg.sender == manager) */\n      tag_90\n      jumpi\n      0x00\n      dup1\n      revert\n    tag_90:\n        /* \"Campaign.sol\":2433:2456  Request storage request */\n      0x00\n        /* \"Campaign.sol\":2459:2467  requests */\n      0x09\n        /* \"Campaign.sol\":2459:2474  requests[index] */\n      0x00\n        /* \"Campaign.sol\":2468:2473  index */\n      dup4\n        /* \"Campaign.sol\":2459:2474  requests[index] */\n      dup2\n      mstore\n      0x20\n      add\n      swap1\n      dup2\n      mstore\n      0x20\n      add\n      0x00\n      keccak256\n        /* \"Campaign.sol\":2433:2474  Request storage request = requests[index] */\n      swap1\n      pop\n        /* \"Campaign.sol\":2533:2534  2 */\n      0x02\n        /* \"Campaign.sol\":2517:2532  supportersCount */\n      sload(0x07)\n        /* \"Campaign.sol\":2517:2534  supportersCount/2 */\n      tag_92\n      swap2\n      swap1\n      tag_93\n      jump\t// in\n    tag_92:\n        /* \"Campaign.sol\":2492:2499  request */\n      dup2\n        /* \"Campaign.sol\":2492:2513  request.approvalCount */\n      0x03\n      add\n      sload\n        /* \"Campaign.sol\":2492:2535  request.approvalCount > (supportersCount/2) */\n      gt\n        /* \"Campaign.sol\":2484:2536  require(request.approvalCount > (supportersCount/2)) */\n      tag_94\n      jumpi\n      0x00\n      dup1\n      revert\n    tag_94:\n        /* \"Campaign.sol\":2555:2562  request */\n      dup1\n        /* \"Campaign.sol\":2555:2571  request.complete */\n      0x02\n      add\n      0x14\n      swap1\n      sload\n      swap1\n      0x0100\n      exp\n      swap1\n      div\n      0xff\n      and\n        /* \"Campaign.sol\":2554:2571  !request.complete */\n      iszero\n        /* \"Campaign.sol\":2546:2572  require(!request.complete) */\n      tag_95\n      jumpi\n      0x00\n      dup1\n      revert\n    tag_95:\n        /* \"Campaign.sol\":2591:2598  request */\n      dup1\n        /* \"Campaign.sol\":2591:2608  request.recipient */\n      0x02\n      add\n      0x00\n      swap1\n      sload\n      swap1\n      0x0100\n      exp\n      swap1\n      div\n      0xffffffffffffffffffffffffffffffffffffffff\n      and\n        /* \"Campaign.sol\":2591:2617  request.recipient.transfer */\n      0xffffffffffffffffffffffffffffffffffffffff\n      and\n        /* \"Campaign.sol\":2591:2632  request.recipient.transfer(request.value) */\n      0x08fc\n        /* \"Campaign.sol\":2618:2625  request */\n      dup3\n        /* \"Campaign.sol\":2618:2631  request.value */\n      0x01\n      add\n      sload\n        /* \"Campaign.sol\":2591:2632  request.recipient.transfer(request.value) */\n      swap1\n      dup2\n      iszero\n      mul\n      swap1\n      mload(0x40)\n      0x00\n      mload(0x40)\n      dup1\n      dup4\n      sub\n      dup2\n      dup6\n      dup9\n      dup9\n      call\n      swap4\n      pop\n      pop\n      pop\n      pop\n      iszero\n      dup1\n      iszero\n      tag_97\n      jumpi\n      returndatasize\n      0x00\n      dup1\n      returndatacopy\n      revert(0x00, returndatasize)\n    tag_97:\n      pop\n        /* \"Campaign.sol\":2661:2665  true */\n      0x01\n        /* \"Campaign.sol\":2642:2649  request */\n      dup2\n        /* \"Campaign.sol\":2642:2658  request.complete */\n      0x02\n      add\n      0x14\n        /* \"Campaign.sol\":2642:2665  request.complete = true */\n      0x0100\n      exp\n      dup2\n      sload\n      dup2\n      0xff\n      mul\n      not\n      and\n      swap1\n      dup4\n      iszero\n      iszero\n      mul\n      or\n      swap1\n      sstore\n      pop\n        /* \"Campaign.sol\":2423:2672  {... */\n      pop\n        /* \"Campaign.sol\":2368:2672  function finalizeRequest(uint index) public restricted {... */\n      pop\n      jump\t// out\n        /* \"Campaign.sol\":2679:3078  function getSummary() public view returns (... */\n    tag_27:\n        /* \"Campaign.sol\":2729:2733  uint */\n      0x00\n        /* \"Campaign.sol\":2735:2739  uint */\n      dup1\n        /* \"Campaign.sol\":2741:2745  uint */\n      0x00\n        /* \"Campaign.sol\":2747:2751  uint */\n      dup1\n        /* \"Campaign.sol\":2753:2760  address */\n      0x00\n        /* \"Campaign.sol\":2763:2776  string memory */\n      0x60\n        /* \"Campaign.sol\":2779:2792  string memory */\n      dup1\n        /* \"Campaign.sol\":2794:2798  uint */\n      0x00\n        /* \"Campaign.sol\":2800:2813  string memory */\n      0x60\n        /* \"Campaign.sol\":2851:2870  minimumContribution */\n      sload(0x05)\n        /* \"Campaign.sol\":2882:2903  address(this).balance */\n      selfbalance\n        /* \"Campaign.sol\":2915:2926  numRequests */\n      sload(0x08)\n        /* \"Campaign.sol\":2938:2953  supportersCount */\n      sload(0x07)\n        /* \"Campaign.sol\":2965:2972  manager */\n      0x00\n      dup1\n      sload\n      swap1\n      0x0100\n      exp\n      swap1\n      div\n      0xffffffffffffffffffffffffffffffffffffffff\n      and\n        /* \"Campaign.sol\":2984:2995  projectName */\n      0x01\n        /* \"Campaign.sol\":3007:3017  projectAim */\n      0x02\n        /* \"Campaign.sol\":3029:3041  financialAim */\n      sload(0x04)\n        /* \"Campaign.sol\":3053:3061  imageURL */\n      0x03\n        /* \"Campaign.sol\":2832:3071  return (... */\n      dup4\n      dup1\n      sload\n      tag_99\n      swap1\n      tag_100\n      jump\t// in\n    tag_99:\n      dup1\n      0x1f\n      add\n      0x20\n      dup1\n      swap2\n      div\n      mul\n      0x20\n      add\n      mload(0x40)\n      swap1\n      dup2\n      add\n      0x40\n      mstore\n      dup1\n      swap3\n      swap2\n      swap1\n      dup2\n      dup2\n      mstore\n      0x20\n      add\n      dup3\n      dup1\n      sload\n      tag_101\n      swap1\n      tag_100\n      jump\t// in\n    tag_101:\n      dup1\n      iszero\n      tag_102\n      jumpi\n      dup1\n      0x1f\n      lt\n      tag_103\n      jumpi\n      0x0100\n      dup1\n      dup4\n      sload\n      div\n      mul\n      dup4\n      mstore\n      swap2\n      0x20\n      add\n      swap2\n      jump(tag_102)\n    tag_103:\n      dup3\n      add\n      swap2\n      swap1\n      0x00\n      mstore\n      keccak256(0x00, 0x20)\n      swap1\n    tag_104:\n      dup2\n      sload\n      dup2\n      mstore\n      swap1\n      0x01\n      add\n      swap1\n      0x20\n      add\n      dup1\n      dup4\n      gt\n      tag_104\n      jumpi\n      dup3\n      swap1\n      sub\n      0x1f\n      and\n      dup3\n      add\n      swap2\n    tag_102:\n      pop\n      pop\n      pop\n      pop\n      pop\n      swap4\n      pop\n      dup3\n      dup1\n      sload\n      tag_105\n      swap1\n      tag_100\n      jump\t// in\n    tag_105:\n      dup1\n      0x1f\n      add\n      0x20\n      dup1\n      swap2\n      div\n      mul\n      0x20\n      add\n      mload(0x40)\n      swap1\n      dup2\n      add\n      0x40\n      mstore\n      dup1\n      swap3\n      swap2\n      swap1\n      dup2\n      dup2\n      mstore\n      0x20\n      add\n      dup3\n      dup1\n      sload\n      tag_106\n      swap1\n      tag_100\n      jump\t// in\n    tag_106:\n      dup1\n      iszero\n      tag_107\n      jumpi\n      dup1\n      0x1f\n      lt\n      tag_108\n      jumpi\n      0x0100\n      dup1\n      dup4\n      sload\n      div\n      mul\n      dup4\n      mstore\n      swap2\n      0x20\n      add\n      swap2\n      jump(tag_107)\n    tag_108:\n      dup3\n      add\n      swap2\n      swap1\n      0x00\n      mstore\n      keccak256(0x00, 0x20)\n      swap1\n    tag_109:\n      dup2\n      sload\n      dup2\n      mstore\n      swap1\n      0x01\n      add\n      swap1\n      0x20\n      add\n      dup1\n      dup4\n      gt\n      tag_109\n      jumpi\n      dup3\n      swap1\n      sub\n      0x1f\n      and\n      dup3\n      add\n      swap2\n    tag_107:\n      pop\n      pop\n      pop\n      pop\n      pop\n      swap3\n      pop\n      dup1\n      dup1\n      sload\n      tag_110\n      swap1\n      tag_100\n      jump\t// in\n    tag_110:\n      dup1\n      0x1f\n      add\n      0x20\n      dup1\n      swap2\n      div\n      mul\n      0x20\n      add\n      mload(0x40)\n      swap1\n      dup2\n      add\n      0x40\n      mstore\n      dup1\n      swap3\n      swap2\n      swap1\n      dup2\n      dup2\n      mstore\n      0x20\n      add\n      dup3\n      dup1\n      sload\n      tag_111\n      swap1\n      tag_100\n      jump\t// in\n    tag_111:\n      dup1\n      iszero\n      tag_112\n      jumpi\n      dup1\n      0x1f\n      lt\n      tag_113\n      jumpi\n      0x0100\n      dup1\n      dup4\n      sload\n      div\n      mul\n      dup4\n      mstore\n      swap2\n      0x20\n      add\n      swap2\n      jump(tag_112)\n    tag_113:\n      dup3\n      add\n      swap2\n      swap1\n      0x00\n      mstore\n      keccak256(0x00, 0x20)\n      swap1\n    tag_114:\n      dup2\n      sload\n      dup2\n      mstore\n      swap1\n      0x01\n      add\n      swap1\n      0x20\n      add\n      dup1\n      dup4\n      gt\n      tag_114\n      jumpi\n      dup3\n      swap1\n      sub\n      0x1f\n      and\n      dup3\n      add\n      swap2\n    tag_112:\n      pop\n      pop\n      pop\n      pop\n      pop\n      swap1\n      pop\n      swap9\n      pop\n      swap9\n      pop\n      swap9\n      pop\n      swap9\n      pop\n      swap9\n      pop\n      swap9\n      pop\n      swap9\n      pop\n      swap9\n      pop\n      swap9\n      pop\n        /* \"Campaign.sol\":2679:3078  function getSummary() public view returns (... */\n      swap1\n      swap2\n      swap3\n      swap4\n      swap5\n      swap6\n      swap7\n      swap8\n      swap9\n      jump\t// out\n        /* \"Campaign.sol\":581:603  address public manager */\n    tag_32:\n      0x00\n      dup1\n      sload\n      swap1\n      0x0100\n      exp\n      swap1\n      div\n      0xffffffffffffffffffffffffffffffffffffffff\n      and\n      dup2\n      jump\t// out\n        /* \"Campaign.sol\":765:807  mapping(address => bool) public supporters */\n    tag_39:\n      mstore(0x20, 0x06)\n      dup1\n      0x00\n      mstore\n      keccak256(0x00, 0x40)\n      0x00\n      swap2\n      pop\n      sload\n      swap1\n      0x0100\n      exp\n      swap1\n      div\n      0xff\n      and\n      dup2\n      jump\t// out\n        /* \"Campaign.sol\":698:722  uint public financialAim */\n    tag_44:\n      sload(0x04)\n      dup2\n      jump\t// out\n        /* \"Campaign.sol\":1080:1121  mapping (uint => Request) public requests */\n    tag_50:\n      mstore(0x20, 0x09)\n      dup1\n      0x00\n      mstore\n      keccak256(0x00, 0x40)\n      0x00\n      swap2\n      pop\n      swap1\n      pop\n      dup1\n      0x00\n      add\n      dup1\n      sload\n      tag_115\n      swap1\n      tag_100\n      jump\t// in\n    tag_115:\n      dup1\n      0x1f\n      add\n      0x20\n      dup1\n      swap2\n      div\n      mul\n      0x20\n      add\n      mload(0x40)\n      swap1\n      dup2\n      add\n      0x40\n      mstore\n      dup1\n      swap3\n      swap2\n      swap1\n      dup2\n      dup2\n      mstore\n      0x20\n      add\n      dup3\n      dup1\n      sload\n      tag_116\n      swap1\n      tag_100\n      jump\t// in\n    tag_116:\n      dup1\n      iszero\n      tag_117\n      jumpi\n      dup1\n      0x1f\n      lt\n      tag_118\n      jumpi\n      0x0100\n      dup1\n      dup4\n      sload\n      div\n      mul\n      dup4\n      mstore\n      swap2\n      0x20\n      add\n      swap2\n      jump(tag_117)\n    tag_118:\n      dup3\n      add\n      swap2\n      swap1\n      0x00\n      mstore\n      keccak256(0x00, 0x20)\n      swap1\n    tag_119:\n      dup2\n      sload\n      dup2\n      mstore\n      swap1\n      0x01\n      add\n      swap1\n      0x20\n      add\n      dup1\n      dup4\n      gt\n      tag_119\n      jumpi\n      dup3\n      swap1\n      sub\n      0x1f\n      and\n      dup3\n      add\n      swap2\n    tag_117:\n      pop\n      pop\n      pop\n      pop\n      pop\n      swap1\n      dup1\n      0x01\n      add\n      sload\n      swap1\n      dup1\n      0x02\n      add\n      0x00\n      swap1\n      sload\n      swap1\n      0x0100\n      exp\n      swap1\n      div\n      0xffffffffffffffffffffffffffffffffffffffff\n      and\n      swap1\n      dup1\n      0x02\n      add\n      0x14\n      swap1\n      sload\n      swap1\n      0x0100\n      exp\n      swap1\n      div\n      0xff\n      and\n      swap1\n      dup1\n      0x03\n      add\n      sload\n      swap1\n      pop\n      dup6\n      jump\t// out\n        /* \"Campaign.sol\":1726:2051  function createRequest(string memory description, uint value, address payable recipient)... */\n    tag_57:\n        /* \"Campaign.sol\":1520:1527  manager */\n      0x00\n      dup1\n      sload\n      swap1\n      0x0100\n      exp\n      swap1\n      div\n      0xffffffffffffffffffffffffffffffffffffffff\n      and\n        /* \"Campaign.sol\":1506:1527  msg.sender == manager */\n      0xffffffffffffffffffffffffffffffffffffffff\n      and\n        /* \"Campaign.sol\":1506:1516  msg.sender */\n      caller\n        /* \"Campaign.sol\":1506:1527  msg.sender == manager */\n      0xffffffffffffffffffffffffffffffffffffffff\n      and\n      eq\n        /* \"Campaign.sol\":1498:1528  require(msg.sender == manager) */\n      tag_121\n      jumpi\n      0x00\n      dup1\n      revert\n    tag_121:\n        /* \"Campaign.sol\":1848:1865  Request storage r */\n      0x00\n        /* \"Campaign.sol\":1868:1876  requests */\n      0x09\n        /* \"Campaign.sol\":1868:1891  requests[numRequests++] */\n      0x00\n        /* \"Campaign.sol\":1877:1888  numRequests */\n      0x08\n      0x00\n        /* \"Campaign.sol\":1877:1890  numRequests++ */\n      dup2\n      sload\n      dup1\n      swap3\n      swap2\n      swap1\n      tag_123\n      swap1\n      tag_124\n      jump\t// in\n    tag_123:\n      swap2\n      swap1\n      pop\n      sstore\n        /* \"Campaign.sol\":1868:1891  requests[numRequests++] */\n      dup2\n      mstore\n      0x20\n      add\n      swap1\n      dup2\n      mstore\n      0x20\n      add\n      0x00\n      keccak256\n        /* \"Campaign.sol\":1848:1891  Request storage r = requests[numRequests++] */\n      swap1\n      pop\n        /* \"Campaign.sol\":1917:1928  description */\n      dup4\n        /* \"Campaign.sol\":1901:1902  r */\n      dup2\n        /* \"Campaign.sol\":1901:1914  r.description */\n      0x00\n      add\n        /* \"Campaign.sol\":1901:1928  r.description = description */\n      swap1\n      dup1\n      mload\n      swap1\n      0x20\n      add\n      swap1\n      tag_125\n      swap3\n      swap2\n      swap1\n      tag_126\n      jump\t// in\n    tag_125:\n      pop\n        /* \"Campaign.sol\":1948:1953  value */\n      dup3\n        /* \"Campaign.sol\":1938:1939  r */\n      dup2\n        /* \"Campaign.sol\":1938:1945  r.value */\n      0x01\n      add\n        /* \"Campaign.sol\":1938:1953  r.value = value */\n      dup2\n      swap1\n      sstore\n      pop\n        /* \"Campaign.sol\":1977:1986  recipient */\n      dup2\n        /* \"Campaign.sol\":1963:1964  r */\n      dup2\n        /* \"Campaign.sol\":1963:1974  r.recipient */\n      0x02\n      add\n      0x00\n        /* \"Campaign.sol\":1963:1986  r.recipient = recipient */\n      0x0100\n      exp\n      dup2\n      sload\n      dup2\n      0xffffffffffffffffffffffffffffffffffffffff\n      mul\n      not\n      and\n      swap1\n      dup4\n      0xffffffffffffffffffffffffffffffffffffffff\n      and\n      mul\n      or\n      swap1\n      sstore\n      pop\n        /* \"Campaign.sol\":2009:2014  false */\n      0x00\n        /* \"Campaign.sol\":1996:1997  r */\n      dup2\n        /* \"Campaign.sol\":1996:2006  r.complete */\n      0x02\n      add\n      0x14\n        /* \"Campaign.sol\":1996:2014  r.complete = false */\n      0x0100\n      exp\n      dup2\n      sload\n      dup2\n      0xff\n      mul\n      not\n      and\n      swap1\n      dup4\n      iszero\n      iszero\n      mul\n      or\n      swap1\n      sstore\n      pop\n        /* \"Campaign.sol\":2042:2043  0 */\n      0x00\n        /* \"Campaign.sol\":2024:2025  r */\n      dup2\n        /* \"Campaign.sol\":2024:2039  r.approvalCount */\n      0x03\n      add\n        /* \"Campaign.sol\":2024:2043  r.approvalCount = 0 */\n      dup2\n      swap1\n      sstore\n      pop\n        /* \"Campaign.sol\":1838:2051  {... */\n      pop\n        /* \"Campaign.sol\":1726:2051  function createRequest(string memory description, uint value, address payable recipient)... */\n      pop\n      pop\n      pop\n      jump\t// out\n        /* \"Campaign.sol\":728:759  uint public minimumContribution */\n    tag_60:\n      sload(0x05)\n      dup2\n      jump\t// out\n        /* \"Campaign.sol\":609:634  string public projectName */\n    tag_64:\n      0x01\n      dup1\n      sload\n      tag_127\n      swap1\n      tag_100\n      jump\t// in\n    tag_127:\n      dup1\n      0x1f\n      add\n      0x20\n      dup1\n      swap2\n      div\n      mul\n      0x20\n      add\n      mload(0x40)\n      swap1\n      dup2\n      add\n      0x40\n      mstore\n      dup1\n      swap3\n      swap2\n      swap1\n      dup2\n      dup2\n      mstore\n      0x20\n      add\n      dup3\n      dup1\n      sload\n      tag_128\n      swap1\n      tag_100\n      jump\t// in\n    tag_128:\n      dup1\n      iszero\n      tag_129\n      jumpi\n      dup1\n      0x1f\n      lt\n      tag_130\n      jumpi\n      0x0100\n      dup1\n      dup4\n      sload\n      div\n      mul\n      dup4\n      mstore\n      swap2\n      0x20\n      add\n      swap2\n      jump(tag_129)\n    tag_130:\n      dup3\n      add\n      swap2\n      swap1\n      0x00\n      mstore\n      keccak256(0x00, 0x20)\n      swap1\n    tag_131:\n      dup2\n      sload\n      dup2\n      mstore\n      swap1\n      0x01\n      add\n      swap1\n      0x20\n      add\n      dup1\n      dup4\n      gt\n      tag_131\n      jumpi\n      dup3\n      swap1\n      sub\n      0x1f\n      and\n      dup3\n      add\n      swap2\n    tag_129:\n      pop\n      pop\n      pop\n      pop\n      pop\n      dup2\n      jump\t// out\n        /* \"Campaign.sol\":1051:1074  uint public numRequests */\n    tag_69:\n      sload(0x08)\n      dup2\n      jump\t// out\n        /* \"Campaign.sol\":670:692  string public imageURL */\n    tag_73:\n      0x03\n      dup1\n      sload\n      tag_132\n      swap1\n      tag_100\n      jump\t// in\n    tag_132:\n      dup1\n      0x1f\n      add\n      0x20\n      dup1\n      swap2\n      div\n      mul\n      0x20\n      add\n      mload(0x40)\n      swap1\n      dup2\n      add\n      0x40\n      mstore\n      dup1\n      swap3\n      swap2\n      swap1\n      dup2\n      dup2\n      mstore\n      0x20\n      add\n      dup3\n      dup1\n      sload\n      tag_133\n      swap1\n      tag_100\n      jump\t// in\n    tag_133:\n      dup1\n      iszero\n      tag_134\n      jumpi\n      dup1\n      0x1f\n      lt\n      tag_135\n      jumpi\n      0x0100\n      dup1\n      dup4\n      sload\n      div\n      mul\n      dup4\n      mstore\n      swap2\n      0x20\n      add\n      swap2\n      jump(tag_134)\n    tag_135:\n      dup3\n      add\n      swap2\n      swap1\n      0x00\n      mstore\n      keccak256(0x00, 0x20)\n      swap1\n    tag_136:\n      dup2\n      sload\n      dup2\n      mstore\n      swap1\n      0x01\n      add\n      swap1\n      0x20\n      add\n      dup1\n      dup4\n      gt\n      tag_136\n      jumpi\n      dup3\n      swap1\n      sub\n      0x1f\n      and\n      dup3\n      add\n      swap2\n    tag_134:\n      pop\n      pop\n      pop\n      pop\n      pop\n      dup2\n      jump\t// out\n        /* \"Campaign.sol\":640:664  string public projectAim */\n    tag_77:\n      0x02\n      dup1\n      sload\n      tag_137\n      swap1\n      tag_100\n      jump\t// in\n    tag_137:\n      dup1\n      0x1f\n      add\n      0x20\n      dup1\n      swap2\n      div\n      mul\n      0x20\n      add\n      mload(0x40)\n      swap1\n      dup2\n      add\n      0x40\n      mstore\n      dup1\n      swap3\n      swap2\n      swap1\n      dup2\n      dup2\n      mstore\n      0x20\n      add\n      dup3\n      dup1\n      sload\n      tag_138\n      swap1\n      tag_100\n      jump\t// in\n    tag_138:\n      dup1\n      iszero\n      tag_139\n      jumpi\n      dup1\n      0x1f\n      lt\n      tag_140\n      jumpi\n      0x0100\n      dup1\n      dup4\n      sload\n      div\n      mul\n      dup4\n      mstore\n      swap2\n      0x20\n      add\n      swap2\n      jump(tag_139)\n    tag_140:\n      dup3\n      add\n      swap2\n      swap1\n      0x00\n      mstore\n      keccak256(0x00, 0x20)\n      swap1\n    tag_141:\n      dup2\n      sload\n      dup2\n      mstore\n      swap1\n      0x01\n      add\n      swap1\n      0x20\n      add\n      dup1\n      dup4\n      gt\n      tag_141\n      jumpi\n      dup3\n      swap1\n      sub\n      0x1f\n      and\n      dup3\n      add\n      swap2\n    tag_139:\n      pop\n      pop\n      pop\n      pop\n      pop\n      dup2\n      jump\t// out\n        /* \"Campaign.sol\":1556:1716  function contribute() public payable {... */\n    tag_80:\n        /* \"Campaign.sol\":1623:1642  minimumContribution */\n      sload(0x05)\n        /* \"Campaign.sol\":1611:1620  msg.value */\n      callvalue\n        /* \"Campaign.sol\":1611:1642  msg.value > minimumContribution */\n      gt\n        /* \"Campaign.sol\":1603:1643  require(msg.value > minimumContribution) */\n      tag_143\n      jumpi\n      0x00\n      dup1\n      revert\n    tag_143:\n        /* \"Campaign.sol\":1678:1682  true */\n      0x01\n        /* \"Campaign.sol\":1653:1663  supporters */\n      0x06\n        /* \"Campaign.sol\":1653:1675  supporters[msg.sender] */\n      0x00\n        /* \"Campaign.sol\":1664:1674  msg.sender */\n      caller\n        /* \"Campaign.sol\":1653:1675  supporters[msg.sender] */\n      0xffffffffffffffffffffffffffffffffffffffff\n      and\n      0xffffffffffffffffffffffffffffffffffffffff\n      and\n      dup2\n      mstore\n      0x20\n      add\n      swap1\n      dup2\n      mstore\n      0x20\n      add\n      0x00\n      keccak256\n      0x00\n        /* \"Campaign.sol\":1653:1682  supporters[msg.sender] = true */\n      0x0100\n      exp\n      dup2\n      sload\n      dup2\n      0xff\n      mul\n      not\n      and\n      swap1\n      dup4\n      iszero\n      iszero\n      mul\n      or\n      swap1\n      sstore\n      pop\n        /* \"Campaign.sol\":1692:1707  supportersCount */\n      0x07\n      0x00\n        /* \"Campaign.sol\":1692:1709  supportersCount++ */\n      dup2\n      sload\n      dup1\n      swap3\n      swap2\n      swap1\n      tag_144\n      swap1\n      tag_124\n      jump\t// in\n    tag_144:\n      swap2\n      swap1\n      pop\n      sstore\n      pop\n        /* \"Campaign.sol\":1556:1716  function contribute() public payable {... */\n      jump\t// out\n        /* \"Campaign.sol\":2061:2358  function approveRequest(uint index) public {... */\n    tag_84:\n        /* \"Campaign.sol\":2114:2137  Request storage request */\n      0x00\n        /* \"Campaign.sol\":2140:2148  requests */\n      0x09\n        /* \"Campaign.sol\":2140:2155  requests[index] */\n      0x00\n        /* \"Campaign.sol\":2149:2154  index */\n      dup4\n        /* \"Campaign.sol\":2140:2155  requests[index] */\n      dup2\n      mstore\n      0x20\n      add\n      swap1\n      dup2\n      mstore\n      0x20\n      add\n      0x00\n      keccak256\n        /* \"Campaign.sol\":2114:2155  Request storage request = requests[index] */\n      swap1\n      pop\n        /* \"Campaign.sol\":2182:2192  supporters */\n      0x06\n        /* \"Campaign.sol\":2182:2204  supporters[msg.sender] */\n      0x00\n        /* \"Campaign.sol\":2193:2203  msg.sender */\n      caller\n        /* \"Campaign.sol\":2182:2204  supporters[msg.sender] */\n      0xffffffffffffffffffffffffffffffffffffffff\n      and\n      0xffffffffffffffffffffffffffffffffffffffff\n      and\n      dup2\n      mstore\n      0x20\n      add\n      swap1\n      dup2\n      mstore\n      0x20\n      add\n      0x00\n      keccak256\n      0x00\n      swap1\n      sload\n      swap1\n      0x0100\n      exp\n      swap1\n      div\n      0xff\n      and\n        /* \"Campaign.sol\":2174:2205  require(supporters[msg.sender]) */\n      tag_146\n      jumpi\n      0x00\n      dup1\n      revert\n    tag_146:\n        /* \"Campaign.sol\":2224:2231  request */\n      dup1\n        /* \"Campaign.sol\":2224:2241  request.approvals */\n      0x04\n      add\n        /* \"Campaign.sol\":2224:2253  request.approvals[msg.sender] */\n      0x00\n        /* \"Campaign.sol\":2242:2252  msg.sender */\n      caller\n        /* \"Campaign.sol\":2224:2253  request.approvals[msg.sender] */\n      0xffffffffffffffffffffffffffffffffffffffff\n      and\n      0xffffffffffffffffffffffffffffffffffffffff\n      and\n      dup2\n      mstore\n      0x20\n      add\n      swap1\n      dup2\n      mstore\n      0x20\n      add\n      0x00\n      keccak256\n      0x00\n      swap1\n      sload\n      swap1\n      0x0100\n      exp\n      swap1\n      div\n      0xff\n      and\n        /* \"Campaign.sol\":2223:2253  !request.approvals[msg.sender] */\n      iszero\n        /* \"Campaign.sol\":2215:2254  require(!request.approvals[msg.sender]) */\n      tag_147\n      jumpi\n      0x00\n      dup1\n      revert\n    tag_147:\n        /* \"Campaign.sol\":2305:2309  true */\n      0x01\n        /* \"Campaign.sol\":2273:2280  request */\n      dup2\n        /* \"Campaign.sol\":2273:2290  request.approvals */\n      0x04\n      add\n        /* \"Campaign.sol\":2273:2302  request.approvals[msg.sender] */\n      0x00\n        /* \"Campaign.sol\":2291:2301  msg.sender */\n      caller\n        /* \"Campaign.sol\":2273:2302  request.approvals[msg.sender] */\n      0xffffffffffffffffffffffffffffffffffffffff\n      and\n      0xffffffffffffffffffffffffffffffffffffffff\n      and\n      dup2\n      mstore\n      0x20\n      add\n      swap1\n      dup2\n      mstore\n      0x20\n      add\n      0x00\n      keccak256\n      0x00\n        /* \"Campaign.sol\":2273:2309  request.approvals[msg.sender] = true */\n      0x0100\n      exp\n      dup2\n      sload\n      dup2\n      0xff\n      mul\n      not\n      and\n      swap1\n      dup4\n      iszero\n      iszero\n      mul\n      or\n      swap1\n      sstore\n      pop\n        /* \"Campaign.sol\":2319:2326  request */\n      dup1\n        /* \"Campaign.sol\":2319:2340  request.approvalCount */\n      0x03\n      add\n      0x00\n        /* \"Campaign.sol\":2319:2342  request.approvalCount++ */\n      dup2\n      sload\n      dup1\n      swap3\n      swap2\n      swap1\n      tag_148\n      swap1\n      tag_124\n      jump\t// in\n    tag_148:\n      swap2\n      swap1\n      pop\n      sstore\n      pop\n        /* \"Campaign.sol\":2104:2358  {... */\n      pop\n        /* \"Campaign.sol\":2061:2358  function approveRequest(uint index) public {... */\n      pop\n      jump\t// out\n        /* \"Campaign.sol\":813:840  uint public supportersCount */\n    tag_87:\n      sload(0x07)\n      dup2\n      jump\t// out\n    tag_126:\n      dup3\n      dup1\n      sload\n      tag_149\n      swap1\n      tag_100\n      jump\t// in\n    tag_149:\n      swap1\n      0x00\n      mstore\n      keccak256(0x00, 0x20)\n      swap1\n      0x1f\n      add\n      0x20\n      swap1\n      div\n      dup2\n      add\n      swap3\n      dup3\n      tag_151\n      jumpi\n      0x00\n      dup6\n      sstore\n      jump(tag_150)\n    tag_151:\n      dup3\n      0x1f\n      lt\n      tag_152\n      jumpi\n      dup1\n      mload\n      not(0xff)\n      and\n      dup4\n      dup1\n      add\n      or\n      dup6\n      sstore\n      jump(tag_150)\n    tag_152:\n      dup3\n      dup1\n      add\n      0x01\n      add\n      dup6\n      sstore\n      dup3\n      iszero\n      tag_150\n      jumpi\n      swap2\n      dup3\n      add\n    tag_153:\n      dup3\n      dup2\n      gt\n      iszero\n      tag_154\n      jumpi\n      dup3\n      mload\n      dup3\n      sstore\n      swap2\n      0x20\n      add\n      swap2\n      swap1\n      0x01\n      add\n      swap1\n      jump(tag_153)\n    tag_154:\n    tag_150:\n      pop\n      swap1\n      pop\n      tag_155\n      swap2\n      swap1\n      tag_156\n      jump\t// in\n    tag_155:\n      pop\n      swap1\n      jump\t// out\n    tag_156:\n    tag_157:\n      dup1\n      dup3\n      gt\n      iszero\n      tag_158\n      jumpi\n      0x00\n      dup2\n      0x00\n      swap1\n      sstore\n      pop\n      0x01\n      add\n      jump(tag_157)\n    tag_158:\n      pop\n      swap1\n      jump\t// out\n        /* \"#utility.yul\":7:82   */\n    tag_159:\n        /* \"#utility.yul\":40:46   */\n      0x00\n        /* \"#utility.yul\":73:75   */\n      0x40\n        /* \"#utility.yul\":67:76   */\n      mload\n        /* \"#utility.yul\":57:76   */\n      swap1\n      pop\n        /* \"#utility.yul\":7:82   */\n      swap1\n      jump\t// out\n        /* \"#utility.yul\":88:205   */\n    tag_160:\n        /* \"#utility.yul\":197:198   */\n      0x00\n        /* \"#utility.yul\":194:195   */\n      dup1\n        /* \"#utility.yul\":187:199   */\n      revert\n        /* \"#utility.yul\":211:328   */\n    tag_161:\n        /* \"#utility.yul\":320:321   */\n      0x00\n        /* \"#utility.yul\":317:318   */\n      dup1\n        /* \"#utility.yul\":310:322   */\n      revert\n        /* \"#utility.yul\":334:411   */\n    tag_162:\n        /* \"#utility.yul\":371:378   */\n      0x00\n        /* \"#utility.yul\":400:405   */\n      dup2\n        /* \"#utility.yul\":389:405   */\n      swap1\n      pop\n        /* \"#utility.yul\":334:411   */\n      swap2\n      swap1\n      pop\n      jump\t// out\n        /* \"#utility.yul\":417:539   */\n    tag_163:\n        /* \"#utility.yul\":490:514   */\n      tag_200\n        /* \"#utility.yul\":508:513   */\n      dup2\n        /* \"#utility.yul\":490:514   */\n      tag_162\n      jump\t// in\n    tag_200:\n        /* \"#utility.yul\":483:488   */\n      dup2\n        /* \"#utility.yul\":480:515   */\n      eq\n        /* \"#utility.yul\":470:533   */\n      tag_201\n      jumpi\n        /* \"#utility.yul\":529:530   */\n      0x00\n        /* \"#utility.yul\":526:527   */\n      dup1\n        /* \"#utility.yul\":519:531   */\n      revert\n        /* \"#utility.yul\":470:533   */\n    tag_201:\n        /* \"#utility.yul\":417:539   */\n      pop\n      jump\t// out\n        /* \"#utility.yul\":545:684   */\n    tag_164:\n        /* \"#utility.yul\":591:596   */\n      0x00\n        /* \"#utility.yul\":629:635   */\n      dup2\n        /* \"#utility.yul\":616:636   */\n      calldataload\n        /* \"#utility.yul\":607:636   */\n      swap1\n      pop\n        /* \"#utility.yul\":645:678   */\n      tag_203\n        /* \"#utility.yul\":672:677   */\n      dup2\n        /* \"#utility.yul\":645:678   */\n      tag_163\n      jump\t// in\n    tag_203:\n        /* \"#utility.yul\":545:684   */\n      swap3\n      swap2\n      pop\n      pop\n      jump\t// out\n        /* \"#utility.yul\":690:1019   */\n    tag_23:\n        /* \"#utility.yul\":749:755   */\n      0x00\n        /* \"#utility.yul\":798:800   */\n      0x20\n        /* \"#utility.yul\":786:795   */\n      dup3\n        /* \"#utility.yul\":777:784   */\n      dup5\n        /* \"#utility.yul\":773:796   */\n      sub\n        /* \"#utility.yul\":769:801   */\n      slt\n        /* \"#utility.yul\":766:885   */\n      iszero\n      tag_205\n      jumpi\n        /* \"#utility.yul\":804:883   */\n      tag_206\n      tag_160\n      jump\t// in\n    tag_206:\n        /* \"#utility.yul\":766:885   */\n    tag_205:\n        /* \"#utility.yul\":924:925   */\n      0x00\n        /* \"#utility.yul\":949:1002   */\n      tag_207\n        /* \"#utility.yul\":994:1001   */\n      dup5\n        /* \"#utility.yul\":985:991   */\n      dup3\n        /* \"#utility.yul\":974:983   */\n      dup6\n        /* \"#utility.yul\":970:992   */\n      add\n        /* \"#utility.yul\":949:1002   */\n      tag_164\n      jump\t// in\n    tag_207:\n        /* \"#utility.yul\":939:1002   */\n      swap2\n      pop\n        /* \"#utility.yul\":895:1012   */\n      pop\n        /* \"#utility.yul\":690:1019   */\n      swap3\n      swap2\n      pop\n      pop\n      jump\t// out\n        /* \"#utility.yul\":1025:1143   */\n    tag_165:\n        /* \"#utility.yul\":1112:1136   */\n      tag_209\n        /* \"#utility.yul\":1130:1135   */\n      dup2\n        /* \"#utility.yul\":1112:1136   */\n      tag_162\n      jump\t// in\n    tag_209:\n        /* \"#utility.yul\":1107:1110   */\n      dup3\n        /* \"#utility.yul\":1100:1137   */\n      mstore\n        /* \"#utility.yul\":1025:1143   */\n      pop\n      pop\n      jump\t// out\n        /* \"#utility.yul\":1149:1275   */\n    tag_166:\n        /* \"#utility.yul\":1186:1193   */\n      0x00\n        /* \"#utility.yul\":1226:1268   */\n      0xffffffffffffffffffffffffffffffffffffffff\n        /* \"#utility.yul\":1219:1224   */\n      dup3\n        /* \"#utility.yul\":1215:1269   */\n      and\n        /* \"#utility.yul\":1204:1269   */\n      swap1\n      pop\n        /* \"#utility.yul\":1149:1275   */\n      swap2\n      swap1\n      pop\n      jump\t// out\n        /* \"#utility.yul\":1281:1377   */\n    tag_167:\n        /* \"#utility.yul\":1318:1325   */\n      0x00\n        /* \"#utility.yul\":1347:1371   */\n      tag_212\n        /* \"#utility.yul\":1365:1370   */\n      dup3\n        /* \"#utility.yul\":1347:1371   */\n      tag_166\n      jump\t// in\n    tag_212:\n        /* \"#utility.yul\":1336:1371   */\n      swap1\n      pop\n        /* \"#utility.yul\":1281:1377   */\n      swap2\n      swap1\n      pop\n      jump\t// out\n        /* \"#utility.yul\":1383:1501   */\n    tag_168:\n        /* \"#utility.yul\":1470:1494   */\n      tag_214\n        /* \"#utility.yul\":1488:1493   */\n      dup2\n        /* \"#utility.yul\":1470:1494   */\n      tag_167\n      jump\t// in\n    tag_214:\n        /* \"#utility.yul\":1465:1468   */\n      dup3\n        /* \"#utility.yul\":1458:1495   */\n      mstore\n        /* \"#utility.yul\":1383:1501   */\n      pop\n      pop\n      jump\t// out\n        /* \"#utility.yul\":1507:1606   */\n    tag_169:\n        /* \"#utility.yul\":1559:1565   */\n      0x00\n        /* \"#utility.yul\":1593:1598   */\n      dup2\n        /* \"#utility.yul\":1587:1599   */\n      mload\n        /* \"#utility.yul\":1577:1599   */\n      swap1\n      pop\n        /* \"#utility.yul\":1507:1606   */\n      swap2\n      swap1\n      pop\n      jump\t// out\n        /* \"#utility.yul\":1612:1781   */\n    tag_170:\n        /* \"#utility.yul\":1696:1707   */\n      0x00\n        /* \"#utility.yul\":1730:1736   */\n      dup3\n        /* \"#utility.yul\":1725:1728   */\n      dup3\n        /* \"#utility.yul\":1718:1737   */\n      mstore\n        /* \"#utility.yul\":1770:1774   */\n      0x20\n        /* \"#utility.yul\":1765:1768   */\n      dup3\n        /* \"#utility.yul\":1761:1775   */\n      add\n        /* \"#utility.yul\":1746:1775   */\n      swap1\n      pop\n        /* \"#utility.yul\":1612:1781   */\n      swap3\n      swap2\n      pop\n      pop\n      jump\t// out\n        /* \"#utility.yul\":1787:2094   */\n    tag_171:\n        /* \"#utility.yul\":1855:1856   */\n      0x00\n        /* \"#utility.yul\":1865:1978   */\n    tag_218:\n        /* \"#utility.yul\":1879:1885   */\n      dup4\n        /* \"#utility.yul\":1876:1877   */\n      dup2\n        /* \"#utility.yul\":1873:1886   */\n      lt\n        /* \"#utility.yul\":1865:1978   */\n      iszero\n      tag_220\n      jumpi\n        /* \"#utility.yul\":1964:1965   */\n      dup1\n        /* \"#utility.yul\":1959:1962   */\n      dup3\n        /* \"#utility.yul\":1955:1966   */\n      add\n        /* \"#utility.yul\":1949:1967   */\n      mload\n        /* \"#utility.yul\":1945:1946   */\n      dup2\n        /* \"#utility.yul\":1940:1943   */\n      dup5\n        /* \"#utility.yul\":1936:1947   */\n      add\n        /* \"#utility.yul\":1929:1968   */\n      mstore\n        /* \"#utility.yul\":1901:1903   */\n      0x20\n        /* \"#utility.yul\":1898:1899   */\n      dup2\n        /* \"#utility.yul\":1894:1904   */\n      add\n        /* \"#utility.yul\":1889:1904   */\n      swap1\n      pop\n        /* \"#utility.yul\":1865:1978   */\n      jump(tag_218)\n    tag_220:\n        /* \"#utility.yul\":1996:2002   */\n      dup4\n        /* \"#utility.yul\":1993:1994   */\n      dup2\n        /* \"#utility.yul\":1990:2003   */\n      gt\n        /* \"#utility.yul\":1987:2088   */\n      iszero\n      tag_221\n      jumpi\n        /* \"#utility.yul\":2076:2077   */\n      0x00\n        /* \"#utility.yul\":2067:2073   */\n      dup5\n        /* \"#utility.yul\":2062:2065   */\n      dup5\n        /* \"#utility.yul\":2058:2074   */\n      add\n        /* \"#utility.yul\":2051:2078   */\n      mstore\n        /* \"#utility.yul\":1987:2088   */\n    tag_221:\n        /* \"#utility.yul\":1836:2094   */\n      pop\n        /* \"#utility.yul\":1787:2094   */\n      pop\n      pop\n      pop\n      jump\t// out\n        /* \"#utility.yul\":2100:2202   */\n    tag_172:\n        /* \"#utility.yul\":2141:2147   */\n      0x00\n        /* \"#utility.yul\":2192:2194   */\n      0x1f\n        /* \"#utility.yul\":2188:2195   */\n      not\n        /* \"#utility.yul\":2183:2185   */\n      0x1f\n        /* \"#utility.yul\":2176:2181   */\n      dup4\n        /* \"#utility.yul\":2172:2186   */\n      add\n        /* \"#utility.yul\":2168:2196   */\n      and\n        /* \"#utility.yul\":2158:2196   */\n      swap1\n      pop\n        /* \"#utility.yul\":2100:2202   */\n      swap2\n      swap1\n      pop\n      jump\t// out\n        /* \"#utility.yul\":2208:2572   */\n    tag_173:\n        /* \"#utility.yul\":2296:2299   */\n      0x00\n        /* \"#utility.yul\":2324:2363   */\n      tag_224\n        /* \"#utility.yul\":2357:2362   */\n      dup3\n        /* \"#utility.yul\":2324:2363   */\n      tag_169\n      jump\t// in\n    tag_224:\n        /* \"#utility.yul\":2379:2450   */\n      tag_225\n        /* \"#utility.yul\":2443:2449   */\n      dup2\n        /* \"#utility.yul\":2438:2441   */\n      dup6\n        /* \"#utility.yul\":2379:2450   */\n      tag_170\n      jump\t// in\n    tag_225:\n        /* \"#utility.yul\":2372:2450   */\n      swap4\n      pop\n        /* \"#utility.yul\":2459:2511   */\n      tag_226\n        /* \"#utility.yul\":2504:2510   */\n      dup2\n        /* \"#utility.yul\":2499:2502   */\n      dup6\n        /* \"#utility.yul\":2492:2496   */\n      0x20\n        /* \"#utility.yul\":2485:2490   */\n      dup7\n        /* \"#utility.yul\":2481:2497   */\n      add\n        /* \"#utility.yul\":2459:2511   */\n      tag_171\n      jump\t// in\n    tag_226:\n        /* \"#utility.yul\":2536:2565   */\n      tag_227\n        /* \"#utility.yul\":2558:2564   */\n      dup2\n        /* \"#utility.yul\":2536:2565   */\n      tag_172\n      jump\t// in\n    tag_227:\n        /* \"#utility.yul\":2531:2534   */\n      dup5\n        /* \"#utility.yul\":2527:2566   */\n      add\n        /* \"#utility.yul\":2520:2566   */\n      swap2\n      pop\n        /* \"#utility.yul\":2300:2572   */\n      pop\n        /* \"#utility.yul\":2208:2572   */\n      swap3\n      swap2\n      pop\n      pop\n      jump\t// out\n        /* \"#utility.yul\":2578:3959   */\n    tag_29:\n        /* \"#utility.yul\":2955:2959   */\n      0x00\n        /* \"#utility.yul\":2993:2996   */\n      0x0120\n        /* \"#utility.yul\":2982:2991   */\n      dup3\n        /* \"#utility.yul\":2978:2997   */\n      add\n        /* \"#utility.yul\":2970:2997   */\n      swap1\n      pop\n        /* \"#utility.yul\":3007:3078   */\n      tag_229\n        /* \"#utility.yul\":3075:3076   */\n      0x00\n        /* \"#utility.yul\":3064:3073   */\n      dup4\n        /* \"#utility.yul\":3060:3077   */\n      add\n        /* \"#utility.yul\":3051:3057   */\n      dup13\n        /* \"#utility.yul\":3007:3078   */\n      tag_165\n      jump\t// in\n    tag_229:\n        /* \"#utility.yul\":3088:3160   */\n      tag_230\n        /* \"#utility.yul\":3156:3158   */\n      0x20\n        /* \"#utility.yul\":3145:3154   */\n      dup4\n        /* \"#utility.yul\":3141:3159   */\n      add\n        /* \"#utility.yul\":3132:3138   */\n      dup12\n        /* \"#utility.yul\":3088:3160   */\n      tag_165\n      jump\t// in\n    tag_230:\n        /* \"#utility.yul\":3170:3242   */\n      tag_231\n        /* \"#utility.yul\":3238:3240   */\n      0x40\n        /* \"#utility.yul\":3227:3236   */\n      dup4\n        /* \"#utility.yul\":3223:3241   */\n      add\n        /* \"#utility.yul\":3214:3220   */\n      dup11\n        /* \"#utility.yul\":3170:3242   */\n      tag_165\n      jump\t// in\n    tag_231:\n        /* \"#utility.yul\":3252:3324   */\n      tag_232\n        /* \"#utility.yul\":3320:3322   */\n      0x60\n        /* \"#utility.yul\":3309:3318   */\n      dup4\n        /* \"#utility.yul\":3305:3323   */\n      add\n        /* \"#utility.yul\":3296:3302   */\n      dup10\n        /* \"#utility.yul\":3252:3324   */\n      tag_165\n      jump\t// in\n    tag_232:\n        /* \"#utility.yul\":3334:3407   */\n      tag_233\n        /* \"#utility.yul\":3402:3405   */\n      0x80\n        /* \"#utility.yul\":3391:3400   */\n      dup4\n        /* \"#utility.yul\":3387:3406   */\n      add\n        /* \"#utility.yul\":3378:3384   */\n      dup9\n        /* \"#utility.yul\":3334:3407   */\n      tag_168\n      jump\t// in\n    tag_233:\n        /* \"#utility.yul\":3455:3464   */\n      dup2\n        /* \"#utility.yul\":3449:3453   */\n      dup2\n        /* \"#utility.yul\":3445:3465   */\n      sub\n        /* \"#utility.yul\":3439:3442   */\n      0xa0\n        /* \"#utility.yul\":3428:3437   */\n      dup4\n        /* \"#utility.yul\":3424:3443   */\n      add\n        /* \"#utility.yul\":3417:3466   */\n      mstore\n        /* \"#utility.yul\":3483:3561   */\n      tag_234\n        /* \"#utility.yul\":3556:3560   */\n      dup2\n        /* \"#utility.yul\":3547:3553   */\n      dup8\n        /* \"#utility.yul\":3483:3561   */\n      tag_173\n      jump\t// in\n    tag_234:\n        /* \"#utility.yul\":3475:3561   */\n      swap1\n      pop\n        /* \"#utility.yul\":3609:3618   */\n      dup2\n        /* \"#utility.yul\":3603:3607   */\n      dup2\n        /* \"#utility.yul\":3599:3619   */\n      sub\n        /* \"#utility.yul\":3593:3596   */\n      0xc0\n        /* \"#utility.yul\":3582:3591   */\n      dup4\n        /* \"#utility.yul\":3578:3597   */\n      add\n        /* \"#utility.yul\":3571:3620   */\n      mstore\n        /* \"#utility.yul\":3637:3715   */\n      tag_235\n        /* \"#utility.yul\":3710:3714   */\n      dup2\n        /* \"#utility.yul\":3701:3707   */\n      dup7\n        /* \"#utility.yul\":3637:3715   */\n      tag_173\n      jump\t// in\n    tag_235:\n        /* \"#utility.yul\":3629:3715   */\n      swap1\n      pop\n        /* \"#utility.yul\":3725:3798   */\n      tag_236\n        /* \"#utility.yul\":3793:3796   */\n      0xe0\n        /* \"#utility.yul\":3782:3791   */\n      dup4\n        /* \"#utility.yul\":3778:3797   */\n      add\n        /* \"#utility.yul\":3769:3775   */\n      dup6\n        /* \"#utility.yul\":3725:3798   */\n      tag_165\n      jump\t// in\n    tag_236:\n        /* \"#utility.yul\":3846:3855   */\n      dup2\n        /* \"#utility.yul\":3840:3844   */\n      dup2\n        /* \"#utility.yul\":3836:3856   */\n      sub\n        /* \"#utility.yul\":3830:3833   */\n      0x0100\n        /* \"#utility.yul\":3819:3828   */\n      dup4\n        /* \"#utility.yul\":3815:3834   */\n      add\n        /* \"#utility.yul\":3808:3857   */\n      mstore\n        /* \"#utility.yul\":3874:3952   */\n      tag_237\n        /* \"#utility.yul\":3947:3951   */\n      dup2\n        /* \"#utility.yul\":3938:3944   */\n      dup5\n        /* \"#utility.yul\":3874:3952   */\n      tag_173\n      jump\t// in\n    tag_237:\n        /* \"#utility.yul\":3866:3952   */\n      swap1\n      pop\n        /* \"#utility.yul\":2578:3959   */\n      swap11\n      swap10\n      pop\n      pop\n      pop\n      pop\n      pop\n      pop\n      pop\n      pop\n      pop\n      pop\n      jump\t// out\n        /* \"#utility.yul\":3965:4187   */\n    tag_34:\n        /* \"#utility.yul\":4058:4062   */\n      0x00\n        /* \"#utility.yul\":4096:4098   */\n      0x20\n        /* \"#utility.yul\":4085:4094   */\n      dup3\n        /* \"#utility.yul\":4081:4099   */\n      add\n        /* \"#utility.yul\":4073:4099   */\n      swap1\n      pop\n        /* \"#utility.yul\":4109:4180   */\n      tag_239\n        /* \"#utility.yul\":4177:4178   */\n      0x00\n        /* \"#utility.yul\":4166:4175   */\n      dup4\n        /* \"#utility.yul\":4162:4179   */\n      add\n        /* \"#utility.yul\":4153:4159   */\n      dup5\n        /* \"#utility.yul\":4109:4180   */\n      tag_168\n      jump\t// in\n    tag_239:\n        /* \"#utility.yul\":3965:4187   */\n      swap3\n      swap2\n      pop\n      pop\n      jump\t// out\n        /* \"#utility.yul\":4193:4315   */\n    tag_174:\n        /* \"#utility.yul\":4266:4290   */\n      tag_241\n        /* \"#utility.yul\":4284:4289   */\n      dup2\n        /* \"#utility.yul\":4266:4290   */\n      tag_167\n      jump\t// in\n    tag_241:\n        /* \"#utility.yul\":4259:4264   */\n      dup2\n        /* \"#utility.yul\":4256:4291   */\n      eq\n        /* \"#utility.yul\":4246:4309   */\n      tag_242\n      jumpi\n        /* \"#utility.yul\":4305:4306   */\n      0x00\n        /* \"#utility.yul\":4302:4303   */\n      dup1\n        /* \"#utility.yul\":4295:4307   */\n      revert\n        /* \"#utility.yul\":4246:4309   */\n    tag_242:\n        /* \"#utility.yul\":4193:4315   */\n      pop\n      jump\t// out\n        /* \"#utility.yul\":4321:4460   */\n    tag_175:\n        /* \"#utility.yul\":4367:4372   */\n      0x00\n        /* \"#utility.yul\":4405:4411   */\n      dup2\n        /* \"#utility.yul\":4392:4412   */\n      calldataload\n        /* \"#utility.yul\":4383:4412   */\n      swap1\n      pop\n        /* \"#utility.yul\":4421:4454   */\n      tag_244\n        /* \"#utility.yul\":4448:4453   */\n      dup2\n        /* \"#utility.yul\":4421:4454   */\n      tag_174\n      jump\t// in\n    tag_244:\n        /* \"#utility.yul\":4321:4460   */\n      swap3\n      swap2\n      pop\n      pop\n      jump\t// out\n        /* \"#utility.yul\":4466:4795   */\n    tag_38:\n        /* \"#utility.yul\":4525:4531   */\n      0x00\n        /* \"#utility.yul\":4574:4576   */\n      0x20\n        /* \"#utility.yul\":4562:4571   */\n      dup3\n        /* \"#utility.yul\":4553:4560   */\n      dup5\n        /* \"#utility.yul\":4549:4572   */\n      sub\n        /* \"#utility.yul\":4545:4577   */\n      slt\n        /* \"#utility.yul\":4542:4661   */\n      iszero\n      tag_246\n      jumpi\n        /* \"#utility.yul\":4580:4659   */\n      tag_247\n      tag_160\n      jump\t// in\n    tag_247:\n        /* \"#utility.yul\":4542:4661   */\n    tag_246:\n        /* \"#utility.yul\":4700:4701   */\n      0x00\n        /* \"#utility.yul\":4725:4778   */\n      tag_248\n        /* \"#utility.yul\":4770:4777   */\n      dup5\n        /* \"#utility.yul\":4761:4767   */\n      dup3\n        /* \"#utility.yul\":4750:4759   */\n      dup6\n        /* \"#utility.yul\":4746:4768   */\n      add\n        /* \"#utility.yul\":4725:4778   */\n      tag_175\n      jump\t// in\n    tag_248:\n        /* \"#utility.yul\":4715:4778   */\n      swap2\n      pop\n        /* \"#utility.yul\":4671:4788   */\n      pop\n        /* \"#utility.yul\":4466:4795   */\n      swap3\n      swap2\n      pop\n      pop\n      jump\t// out\n        /* \"#utility.yul\":4801:4891   */\n    tag_176:\n        /* \"#utility.yul\":4835:4842   */\n      0x00\n        /* \"#utility.yul\":4878:4883   */\n      dup2\n        /* \"#utility.yul\":4871:4884   */\n      iszero\n        /* \"#utility.yul\":4864:4885   */\n      iszero\n        /* \"#utility.yul\":4853:4885   */\n      swap1\n      pop\n        /* \"#utility.yul\":4801:4891   */\n      swap2\n      swap1\n      pop\n      jump\t// out\n        /* \"#utility.yul\":4897:5006   */\n    tag_177:\n        /* \"#utility.yul\":4978:4999   */\n      tag_251\n        /* \"#utility.yul\":4993:4998   */\n      dup2\n        /* \"#utility.yul\":4978:4999   */\n      tag_176\n      jump\t// in\n    tag_251:\n        /* \"#utility.yul\":4973:4976   */\n      dup3\n        /* \"#utility.yul\":4966:5000   */\n      mstore\n        /* \"#utility.yul\":4897:5006   */\n      pop\n      pop\n      jump\t// out\n        /* \"#utility.yul\":5012:5222   */\n    tag_41:\n        /* \"#utility.yul\":5099:5103   */\n      0x00\n        /* \"#utility.yul\":5137:5139   */\n      0x20\n        /* \"#utility.yul\":5126:5135   */\n      dup3\n        /* \"#utility.yul\":5122:5140   */\n      add\n        /* \"#utility.yul\":5114:5140   */\n      swap1\n      pop\n        /* \"#utility.yul\":5150:5215   */\n      tag_253\n        /* \"#utility.yul\":5212:5213   */\n      0x00\n        /* \"#utility.yul\":5201:5210   */\n      dup4\n        /* \"#utility.yul\":5197:5214   */\n      add\n        /* \"#utility.yul\":5188:5194   */\n      dup5\n        /* \"#utility.yul\":5150:5215   */\n      tag_177\n      jump\t// in\n    tag_253:\n        /* \"#utility.yul\":5012:5222   */\n      swap3\n      swap2\n      pop\n      pop\n      jump\t// out\n        /* \"#utility.yul\":5228:5450   */\n    tag_46:\n        /* \"#utility.yul\":5321:5325   */\n      0x00\n        /* \"#utility.yul\":5359:5361   */\n      0x20\n        /* \"#utility.yul\":5348:5357   */\n      dup3\n        /* \"#utility.yul\":5344:5362   */\n      add\n        /* \"#utility.yul\":5336:5362   */\n      swap1\n      pop\n        /* \"#utility.yul\":5372:5443   */\n      tag_255\n        /* \"#utility.yul\":5440:5441   */\n      0x00\n        /* \"#utility.yul\":5429:5438   */\n      dup4\n        /* \"#utility.yul\":5425:5442   */\n      add\n        /* \"#utility.yul\":5416:5422   */\n      dup5\n        /* \"#utility.yul\":5372:5443   */\n      tag_165\n      jump\t// in\n    tag_255:\n        /* \"#utility.yul\":5228:5450   */\n      swap3\n      swap2\n      pop\n      pop\n      jump\t// out\n        /* \"#utility.yul\":5456:5560   */\n    tag_178:\n        /* \"#utility.yul\":5501:5508   */\n      0x00\n        /* \"#utility.yul\":5530:5554   */\n      tag_257\n        /* \"#utility.yul\":5548:5553   */\n      dup3\n        /* \"#utility.yul\":5530:5554   */\n      tag_166\n      jump\t// in\n    tag_257:\n        /* \"#utility.yul\":5519:5554   */\n      swap1\n      pop\n        /* \"#utility.yul\":5456:5560   */\n      swap2\n      swap1\n      pop\n      jump\t// out\n        /* \"#utility.yul\":5566:5708   */\n    tag_179:\n        /* \"#utility.yul\":5669:5701   */\n      tag_259\n        /* \"#utility.yul\":5695:5700   */\n      dup2\n        /* \"#utility.yul\":5669:5701   */\n      tag_178\n      jump\t// in\n    tag_259:\n        /* \"#utility.yul\":5664:5667   */\n      dup3\n        /* \"#utility.yul\":5657:5702   */\n      mstore\n        /* \"#utility.yul\":5566:5708   */\n      pop\n      pop\n      jump\t// out\n        /* \"#utility.yul\":5714:6489   */\n    tag_52:\n        /* \"#utility.yul\":5949:5953   */\n      0x00\n        /* \"#utility.yul\":5987:5990   */\n      0xa0\n        /* \"#utility.yul\":5976:5985   */\n      dup3\n        /* \"#utility.yul\":5972:5991   */\n      add\n        /* \"#utility.yul\":5964:5991   */\n      swap1\n      pop\n        /* \"#utility.yul\":6037:6046   */\n      dup2\n        /* \"#utility.yul\":6031:6035   */\n      dup2\n        /* \"#utility.yul\":6027:6047   */\n      sub\n        /* \"#utility.yul\":6023:6024   */\n      0x00\n        /* \"#utility.yul\":6012:6021   */\n      dup4\n        /* \"#utility.yul\":6008:6025   */\n      add\n        /* \"#utility.yul\":6001:6048   */\n      mstore\n        /* \"#utility.yul\":6065:6143   */\n      tag_261\n        /* \"#utility.yul\":6138:6142   */\n      dup2\n        /* \"#utility.yul\":6129:6135   */\n      dup9\n        /* \"#utility.yul\":6065:6143   */\n      tag_173\n      jump\t// in\n    tag_261:\n        /* \"#utility.yul\":6057:6143   */\n      swap1\n      pop\n        /* \"#utility.yul\":6153:6225   */\n      tag_262\n        /* \"#utility.yul\":6221:6223   */\n      0x20\n        /* \"#utility.yul\":6210:6219   */\n      dup4\n        /* \"#utility.yul\":6206:6224   */\n      add\n        /* \"#utility.yul\":6197:6203   */\n      dup8\n        /* \"#utility.yul\":6153:6225   */\n      tag_165\n      jump\t// in\n    tag_262:\n        /* \"#utility.yul\":6235:6323   */\n      tag_263\n        /* \"#utility.yul\":6319:6321   */\n      0x40\n        /* \"#utility.yul\":6308:6317   */\n      dup4\n        /* \"#utility.yul\":6304:6322   */\n      add\n        /* \"#utility.yul\":6295:6301   */\n      dup7\n        /* \"#utility.yul\":6235:6323   */\n      tag_179\n      jump\t// in\n    tag_263:\n        /* \"#utility.yul\":6333:6399   */\n      tag_264\n        /* \"#utility.yul\":6395:6397   */\n      0x60\n        /* \"#utility.yul\":6384:6393   */\n      dup4\n        /* \"#utility.yul\":6380:6398   */\n      add\n        /* \"#utility.yul\":6371:6377   */\n      dup6\n        /* \"#utility.yul\":6333:6399   */\n      tag_177\n      jump\t// in\n    tag_264:\n        /* \"#utility.yul\":6409:6482   */\n      tag_265\n        /* \"#utility.yul\":6477:6480   */\n      0x80\n        /* \"#utility.yul\":6466:6475   */\n      dup4\n        /* \"#utility.yul\":6462:6481   */\n      add\n        /* \"#utility.yul\":6453:6459   */\n      dup5\n        /* \"#utility.yul\":6409:6482   */\n      tag_165\n      jump\t// in\n    tag_265:\n        /* \"#utility.yul\":5714:6489   */\n      swap7\n      swap6\n      pop\n      pop\n      pop\n      pop\n      pop\n      pop\n      jump\t// out\n        /* \"#utility.yul\":6495:6612   */\n    tag_180:\n        /* \"#utility.yul\":6604:6605   */\n      0x00\n        /* \"#utility.yul\":6601:6602   */\n      dup1\n        /* \"#utility.yul\":6594:6606   */\n      revert\n        /* \"#utility.yul\":6618:6735   */\n    tag_181:\n        /* \"#utility.yul\":6727:6728   */\n      0x00\n        /* \"#utility.yul\":6724:6725   */\n      dup1\n        /* \"#utility.yul\":6717:6729   */\n      revert\n        /* \"#utility.yul\":6741:6921   */\n    tag_182:\n        /* \"#utility.yul\":6789:6866   */\n      0x4e487b7100000000000000000000000000000000000000000000000000000000\n        /* \"#utility.yul\":6786:6787   */\n      0x00\n        /* \"#utility.yul\":6779:6867   */\n      mstore\n        /* \"#utility.yul\":6886:6890   */\n      0x41\n        /* \"#utility.yul\":6883:6884   */\n      0x04\n        /* \"#utility.yul\":6876:6891   */\n      mstore\n        /* \"#utility.yul\":6910:6914   */\n      0x24\n        /* \"#utility.yul\":6907:6908   */\n      0x00\n        /* \"#utility.yul\":6900:6915   */\n      revert\n        /* \"#utility.yul\":6927:7208   */\n    tag_183:\n        /* \"#utility.yul\":7010:7037   */\n      tag_270\n        /* \"#utility.yul\":7032:7036   */\n      dup3\n        /* \"#utility.yul\":7010:7037   */\n      tag_172\n      jump\t// in\n    tag_270:\n        /* \"#utility.yul\":7002:7008   */\n      dup2\n        /* \"#utility.yul\":6998:7038   */\n      add\n        /* \"#utility.yul\":7140:7146   */\n      dup2\n        /* \"#utility.yul\":7128:7138   */\n      dup2\n        /* \"#utility.yul\":7125:7147   */\n      lt\n        /* \"#utility.yul\":7104:7122   */\n      0xffffffffffffffff\n        /* \"#utility.yul\":7092:7102   */\n      dup3\n        /* \"#utility.yul\":7089:7123   */\n      gt\n        /* \"#utility.yul\":7086:7148   */\n      or\n        /* \"#utility.yul\":7083:7171   */\n      iszero\n      tag_271\n      jumpi\n        /* \"#utility.yul\":7151:7169   */\n      tag_272\n      tag_182\n      jump\t// in\n    tag_272:\n        /* \"#utility.yul\":7083:7171   */\n    tag_271:\n        /* \"#utility.yul\":7191:7201   */\n      dup1\n        /* \"#utility.yul\":7187:7189   */\n      0x40\n        /* \"#utility.yul\":7180:7202   */\n      mstore\n        /* \"#utility.yul\":6970:7208   */\n      pop\n        /* \"#utility.yul\":6927:7208   */\n      pop\n      pop\n      jump\t// out\n        /* \"#utility.yul\":7214:7343   */\n    tag_184:\n        /* \"#utility.yul\":7248:7254   */\n      0x00\n        /* \"#utility.yul\":7275:7295   */\n      tag_274\n      tag_159\n      jump\t// in\n    tag_274:\n        /* \"#utility.yul\":7265:7295   */\n      swap1\n      pop\n        /* \"#utility.yul\":7304:7337   */\n      tag_275\n        /* \"#utility.yul\":7332:7336   */\n      dup3\n        /* \"#utility.yul\":7324:7330   */\n      dup3\n        /* \"#utility.yul\":7304:7337   */\n      tag_183\n      jump\t// in\n    tag_275:\n        /* \"#utility.yul\":7214:7343   */\n      swap2\n      swap1\n      pop\n      jump\t// out\n        /* \"#utility.yul\":7349:7657   */\n    tag_185:\n        /* \"#utility.yul\":7411:7415   */\n      0x00\n        /* \"#utility.yul\":7501:7519   */\n      0xffffffffffffffff\n        /* \"#utility.yul\":7493:7499   */\n      dup3\n        /* \"#utility.yul\":7490:7520   */\n      gt\n        /* \"#utility.yul\":7487:7543   */\n      iszero\n      tag_277\n      jumpi\n        /* \"#utility.yul\":7523:7541   */\n      tag_278\n      tag_182\n      jump\t// in\n    tag_278:\n        /* \"#utility.yul\":7487:7543   */\n    tag_277:\n        /* \"#utility.yul\":7561:7590   */\n      tag_279\n        /* \"#utility.yul\":7583:7589   */\n      dup3\n        /* \"#utility.yul\":7561:7590   */\n      tag_172\n      jump\t// in\n    tag_279:\n        /* \"#utility.yul\":7553:7590   */\n      swap1\n      pop\n        /* \"#utility.yul\":7645:7649   */\n      0x20\n        /* \"#utility.yul\":7639:7643   */\n      dup2\n        /* \"#utility.yul\":7635:7650   */\n      add\n        /* \"#utility.yul\":7627:7650   */\n      swap1\n      pop\n        /* \"#utility.yul\":7349:7657   */\n      swap2\n      swap1\n      pop\n      jump\t// out\n        /* \"#utility.yul\":7663:7817   */\n    tag_186:\n        /* \"#utility.yul\":7747:7753   */\n      dup3\n        /* \"#utility.yul\":7742:7745   */\n      dup2\n        /* \"#utility.yul\":7737:7740   */\n      dup4\n        /* \"#utility.yul\":7724:7754   */\n      calldatacopy\n        /* \"#utility.yul\":7809:7810   */\n      0x00\n        /* \"#utility.yul\":7800:7806   */\n      dup4\n        /* \"#utility.yul\":7795:7798   */\n      dup4\n        /* \"#utility.yul\":7791:7807   */\n      add\n        /* \"#utility.yul\":7784:7811   */\n      mstore\n        /* \"#utility.yul\":7663:7817   */\n      pop\n      pop\n      pop\n      jump\t// out\n        /* \"#utility.yul\":7823:8235   */\n    tag_187:\n        /* \"#utility.yul\":7901:7906   */\n      0x00\n        /* \"#utility.yul\":7926:7992   */\n      tag_282\n        /* \"#utility.yul\":7942:7991   */\n      tag_283\n        /* \"#utility.yul\":7984:7990   */\n      dup5\n        /* \"#utility.yul\":7942:7991   */\n      tag_185\n      jump\t// in\n    tag_283:\n        /* \"#utility.yul\":7926:7992   */\n      tag_184\n      jump\t// in\n    tag_282:\n        /* \"#utility.yul\":7917:7992   */\n      swap1\n      pop\n        /* \"#utility.yul\":8015:8021   */\n      dup3\n        /* \"#utility.yul\":8008:8013   */\n      dup2\n        /* \"#utility.yul\":8001:8022   */\n      mstore\n        /* \"#utility.yul\":8053:8057   */\n      0x20\n        /* \"#utility.yul\":8046:8051   */\n      dup2\n        /* \"#utility.yul\":8042:8058   */\n      add\n        /* \"#utility.yul\":8091:8094   */\n      dup5\n        /* \"#utility.yul\":8082:8088   */\n      dup5\n        /* \"#utility.yul\":8077:8080   */\n      dup5\n        /* \"#utility.yul\":8073:8089   */\n      add\n        /* \"#utility.yul\":8070:8095   */\n      gt\n        /* \"#utility.yul\":8067:8179   */\n      iszero\n      tag_284\n      jumpi\n        /* \"#utility.yul\":8098:8177   */\n      tag_285\n      tag_181\n      jump\t// in\n    tag_285:\n        /* \"#utility.yul\":8067:8179   */\n    tag_284:\n        /* \"#utility.yul\":8188:8229   */\n      tag_286\n        /* \"#utility.yul\":8222:8228   */\n      dup5\n        /* \"#utility.yul\":8217:8220   */\n      dup3\n        /* \"#utility.yul\":8212:8215   */\n      dup6\n        /* \"#utility.yul\":8188:8229   */\n      tag_186\n      jump\t// in\n    tag_286:\n        /* \"#utility.yul\":7907:8235   */\n      pop\n        /* \"#utility.yul\":7823:8235   */\n      swap4\n      swap3\n      pop\n      pop\n      pop\n      jump\t// out\n        /* \"#utility.yul\":8255:8595   */\n    tag_188:\n        /* \"#utility.yul\":8311:8316   */\n      0x00\n        /* \"#utility.yul\":8360:8363   */\n      dup3\n        /* \"#utility.yul\":8353:8357   */\n      0x1f\n        /* \"#utility.yul\":8345:8351   */\n      dup4\n        /* \"#utility.yul\":8341:8358   */\n      add\n        /* \"#utility.yul\":8337:8364   */\n      slt\n        /* \"#utility.yul\":8327:8449   */\n      tag_288\n      jumpi\n        /* \"#utility.yul\":8368:8447   */\n      tag_289\n      tag_180\n      jump\t// in\n    tag_289:\n        /* \"#utility.yul\":8327:8449   */\n    tag_288:\n        /* \"#utility.yul\":8485:8491   */\n      dup2\n        /* \"#utility.yul\":8472:8492   */\n      calldataload\n        /* \"#utility.yul\":8510:8589   */\n      tag_290\n        /* \"#utility.yul\":8585:8588   */\n      dup5\n        /* \"#utility.yul\":8577:8583   */\n      dup3\n        /* \"#utility.yul\":8570:8574   */\n      0x20\n        /* \"#utility.yul\":8562:8568   */\n      dup7\n        /* \"#utility.yul\":8558:8575   */\n      add\n        /* \"#utility.yul\":8510:8589   */\n      tag_187\n      jump\t// in\n    tag_290:\n        /* \"#utility.yul\":8501:8589   */\n      swap2\n      pop\n        /* \"#utility.yul\":8317:8595   */\n      pop\n        /* \"#utility.yul\":8255:8595   */\n      swap3\n      swap2\n      pop\n      pop\n      jump\t// out\n        /* \"#utility.yul\":8601:8739   */\n    tag_189:\n        /* \"#utility.yul\":8682:8714   */\n      tag_292\n        /* \"#utility.yul\":8708:8713   */\n      dup2\n        /* \"#utility.yul\":8682:8714   */\n      tag_178\n      jump\t// in\n    tag_292:\n        /* \"#utility.yul\":8675:8680   */\n      dup2\n        /* \"#utility.yul\":8672:8715   */\n      eq\n        /* \"#utility.yul\":8662:8733   */\n      tag_293\n      jumpi\n        /* \"#utility.yul\":8729:8730   */\n      0x00\n        /* \"#utility.yul\":8726:8727   */\n      dup1\n        /* \"#utility.yul\":8719:8731   */\n      revert\n        /* \"#utility.yul\":8662:8733   */\n    tag_293:\n        /* \"#utility.yul\":8601:8739   */\n      pop\n      jump\t// out\n        /* \"#utility.yul\":8745:8900   */\n    tag_190:\n        /* \"#utility.yul\":8799:8804   */\n      0x00\n        /* \"#utility.yul\":8837:8843   */\n      dup2\n        /* \"#utility.yul\":8824:8844   */\n      calldataload\n        /* \"#utility.yul\":8815:8844   */\n      swap1\n      pop\n        /* \"#utility.yul\":8853:8894   */\n      tag_295\n        /* \"#utility.yul\":8888:8893   */\n      dup2\n        /* \"#utility.yul\":8853:8894   */\n      tag_189\n      jump\t// in\n    tag_295:\n        /* \"#utility.yul\":8745:8900   */\n      swap3\n      swap2\n      pop\n      pop\n      jump\t// out\n        /* \"#utility.yul\":8906:9721   */\n    tag_56:\n        /* \"#utility.yul\":9001:9007   */\n      0x00\n        /* \"#utility.yul\":9009:9015   */\n      dup1\n        /* \"#utility.yul\":9017:9023   */\n      0x00\n        /* \"#utility.yul\":9066:9068   */\n      0x60\n        /* \"#utility.yul\":9054:9063   */\n      dup5\n        /* \"#utility.yul\":9045:9052   */\n      dup7\n        /* \"#utility.yul\":9041:9064   */\n      sub\n        /* \"#utility.yul\":9037:9069   */\n      slt\n        /* \"#utility.yul\":9034:9153   */\n      iszero\n      tag_297\n      jumpi\n        /* \"#utility.yul\":9072:9151   */\n      tag_298\n      tag_160\n      jump\t// in\n    tag_298:\n        /* \"#utility.yul\":9034:9153   */\n    tag_297:\n        /* \"#utility.yul\":9220:9221   */\n      0x00\n        /* \"#utility.yul\":9209:9218   */\n      dup5\n        /* \"#utility.yul\":9205:9222   */\n      add\n        /* \"#utility.yul\":9192:9223   */\n      calldataload\n        /* \"#utility.yul\":9250:9268   */\n      0xffffffffffffffff\n        /* \"#utility.yul\":9242:9248   */\n      dup2\n        /* \"#utility.yul\":9239:9269   */\n      gt\n        /* \"#utility.yul\":9236:9353   */\n      iszero\n      tag_299\n      jumpi\n        /* \"#utility.yul\":9272:9351   */\n      tag_300\n      tag_161\n      jump\t// in\n    tag_300:\n        /* \"#utility.yul\":9236:9353   */\n    tag_299:\n        /* \"#utility.yul\":9377:9440   */\n      tag_301\n        /* \"#utility.yul\":9432:9439   */\n      dup7\n        /* \"#utility.yul\":9423:9429   */\n      dup3\n        /* \"#utility.yul\":9412:9421   */\n      dup8\n        /* \"#utility.yul\":9408:9430   */\n      add\n        /* \"#utility.yul\":9377:9440   */\n      tag_188\n      jump\t// in\n    tag_301:\n        /* \"#utility.yul\":9367:9440   */\n      swap4\n      pop\n        /* \"#utility.yul\":9163:9450   */\n      pop\n        /* \"#utility.yul\":9489:9491   */\n      0x20\n        /* \"#utility.yul\":9515:9568   */\n      tag_302\n        /* \"#utility.yul\":9560:9567   */\n      dup7\n        /* \"#utility.yul\":9551:9557   */\n      dup3\n        /* \"#utility.yul\":9540:9549   */\n      dup8\n        /* \"#utility.yul\":9536:9558   */\n      add\n        /* \"#utility.yul\":9515:9568   */\n      tag_164\n      jump\t// in\n    tag_302:\n        /* \"#utility.yul\":9505:9568   */\n      swap3\n      pop\n        /* \"#utility.yul\":9460:9578   */\n      pop\n        /* \"#utility.yul\":9617:9619   */\n      0x40\n        /* \"#utility.yul\":9643:9704   */\n      tag_303\n        /* \"#utility.yul\":9696:9703   */\n      dup7\n        /* \"#utility.yul\":9687:9693   */\n      dup3\n        /* \"#utility.yul\":9676:9685   */\n      dup8\n        /* \"#utility.yul\":9672:9694   */\n      add\n        /* \"#utility.yul\":9643:9704   */\n      tag_190\n      jump\t// in\n    tag_303:\n        /* \"#utility.yul\":9633:9704   */\n      swap2\n      pop\n        /* \"#utility.yul\":9588:9714   */\n      pop\n        /* \"#utility.yul\":8906:9721   */\n      swap3\n      pop\n      swap3\n      pop\n      swap3\n      jump\t// out\n        /* \"#utility.yul\":9727:10040   */\n    tag_66:\n        /* \"#utility.yul\":9840:9844   */\n      0x00\n        /* \"#utility.yul\":9878:9880   */\n      0x20\n        /* \"#utility.yul\":9867:9876   */\n      dup3\n        /* \"#utility.yul\":9863:9881   */\n      add\n        /* \"#utility.yul\":9855:9881   */\n      swap1\n      pop\n        /* \"#utility.yul\":9927:9936   */\n      dup2\n        /* \"#utility.yul\":9921:9925   */\n      dup2\n        /* \"#utility.yul\":9917:9937   */\n      sub\n        /* \"#utility.yul\":9913:9914   */\n      0x00\n        /* \"#utility.yul\":9902:9911   */\n      dup4\n        /* \"#utility.yul\":9898:9915   */\n      add\n        /* \"#utility.yul\":9891:9938   */\n      mstore\n        /* \"#utility.yul\":9955:10033   */\n      tag_305\n        /* \"#utility.yul\":10028:10032   */\n      dup2\n        /* \"#utility.yul\":10019:10025   */\n      dup5\n        /* \"#utility.yul\":9955:10033   */\n      tag_173\n      jump\t// in\n    tag_305:\n        /* \"#utility.yul\":9947:10033   */\n      swap1\n      pop\n        /* \"#utility.yul\":9727:10040   */\n      swap3\n      swap2\n      pop\n      pop\n      jump\t// out\n        /* \"#utility.yul\":10046:10226   */\n    tag_191:\n        /* \"#utility.yul\":10094:10171   */\n      0x4e487b7100000000000000000000000000000000000000000000000000000000\n        /* \"#utility.yul\":10091:10092   */\n      0x00\n        /* \"#utility.yul\":10084:10172   */\n      mstore\n        /* \"#utility.yul\":10191:10195   */\n      0x12\n        /* \"#utility.yul\":10188:10189   */\n      0x04\n        /* \"#utility.yul\":10181:10196   */\n      mstore\n        /* \"#utility.yul\":10215:10219   */\n      0x24\n        /* \"#utility.yul\":10212:10213   */\n      0x00\n        /* \"#utility.yul\":10205:10220   */\n      revert\n        /* \"#utility.yul\":10232:10412   */\n    tag_192:\n        /* \"#utility.yul\":10280:10357   */\n      0x4e487b7100000000000000000000000000000000000000000000000000000000\n        /* \"#utility.yul\":10277:10278   */\n      0x00\n        /* \"#utility.yul\":10270:10358   */\n      mstore\n        /* \"#utility.yul\":10377:10381   */\n      0x11\n        /* \"#utility.yul\":10374:10375   */\n      0x04\n        /* \"#utility.yul\":10367:10382   */\n      mstore\n        /* \"#utility.yul\":10401:10405   */\n      0x24\n        /* \"#utility.yul\":10398:10399   */\n      0x00\n        /* \"#utility.yul\":10391:10406   */\n      revert\n        /* \"#utility.yul\":10418:10603   */\n    tag_93:\n        /* \"#utility.yul\":10458:10459   */\n      0x00\n        /* \"#utility.yul\":10475:10495   */\n      tag_309\n        /* \"#utility.yul\":10493:10494   */\n      dup3\n        /* \"#utility.yul\":10475:10495   */\n      tag_162\n      jump\t// in\n    tag_309:\n        /* \"#utility.yul\":10470:10495   */\n      swap2\n      pop\n        /* \"#utility.yul\":10509:10529   */\n      tag_310\n        /* \"#utility.yul\":10527:10528   */\n      dup4\n        /* \"#utility.yul\":10509:10529   */\n      tag_162\n      jump\t// in\n    tag_310:\n        /* \"#utility.yul\":10504:10529   */\n      swap3\n      pop\n        /* \"#utility.yul\":10548:10549   */\n      dup3\n        /* \"#utility.yul\":10538:10573   */\n      tag_311\n      jumpi\n        /* \"#utility.yul\":10553:10571   */\n      tag_312\n      tag_191\n      jump\t// in\n    tag_312:\n        /* \"#utility.yul\":10538:10573   */\n    tag_311:\n        /* \"#utility.yul\":10595:10596   */\n      dup3\n        /* \"#utility.yul\":10592:10593   */\n      dup3\n        /* \"#utility.yul\":10588:10597   */\n      div\n        /* \"#utility.yul\":10583:10597   */\n      swap1\n      pop\n        /* \"#utility.yul\":10418:10603   */\n      swap3\n      swap2\n      pop\n      pop\n      jump\t// out\n        /* \"#utility.yul\":10609:10789   */\n    tag_193:\n        /* \"#utility.yul\":10657:10734   */\n      0x4e487b7100000000000000000000000000000000000000000000000000000000\n        /* \"#utility.yul\":10654:10655   */\n      0x00\n        /* \"#utility.yul\":10647:10735   */\n      mstore\n        /* \"#utility.yul\":10754:10758   */\n      0x22\n        /* \"#utility.yul\":10751:10752   */\n      0x04\n        /* \"#utility.yul\":10744:10759   */\n      mstore\n        /* \"#utility.yul\":10778:10782   */\n      0x24\n        /* \"#utility.yul\":10775:10776   */\n      0x00\n        /* \"#utility.yul\":10768:10783   */\n      revert\n        /* \"#utility.yul\":10795:11115   */\n    tag_100:\n        /* \"#utility.yul\":10839:10845   */\n      0x00\n        /* \"#utility.yul\":10876:10877   */\n      0x02\n        /* \"#utility.yul\":10870:10874   */\n      dup3\n        /* \"#utility.yul\":10866:10878   */\n      div\n        /* \"#utility.yul\":10856:10878   */\n      swap1\n      pop\n        /* \"#utility.yul\":10923:10924   */\n      0x01\n        /* \"#utility.yul\":10917:10921   */\n      dup3\n        /* \"#utility.yul\":10913:10925   */\n      and\n        /* \"#utility.yul\":10944:10962   */\n      dup1\n        /* \"#utility.yul\":10934:11015   */\n      tag_315\n      jumpi\n        /* \"#utility.yul\":11000:11004   */\n      0x7f\n        /* \"#utility.yul\":10992:10998   */\n      dup3\n        /* \"#utility.yul\":10988:11005   */\n      and\n        /* \"#utility.yul\":10978:11005   */\n      swap2\n      pop\n        /* \"#utility.yul\":10934:11015   */\n    tag_315:\n        /* \"#utility.yul\":11062:11064   */\n      0x20\n        /* \"#utility.yul\":11054:11060   */\n      dup3\n        /* \"#utility.yul\":11051:11065   */\n      lt\n        /* \"#utility.yul\":11031:11049   */\n      dup2\n        /* \"#utility.yul\":11028:11066   */\n      eq\n        /* \"#utility.yul\":11025:11109   */\n      iszero\n      tag_316\n      jumpi\n        /* \"#utility.yul\":11081:11099   */\n      tag_317\n      tag_193\n      jump\t// in\n    tag_317:\n        /* \"#utility.yul\":11025:11109   */\n    tag_316:\n        /* \"#utility.yul\":10846:11115   */\n      pop\n        /* \"#utility.yul\":10795:11115   */\n      swap2\n      swap1\n      pop\n      jump\t// out\n        /* \"#utility.yul\":11121:11354   */\n    tag_124:\n        /* \"#utility.yul\":11160:11163   */\n      0x00\n        /* \"#utility.yul\":11183:11207   */\n      tag_319\n        /* \"#utility.yul\":11201:11206   */\n      dup3\n        /* \"#utility.yul\":11183:11207   */\n      tag_162\n      jump\t// in\n    tag_319:\n        /* \"#utility.yul\":11174:11207   */\n      swap2\n      pop\n        /* \"#utility.yul\":11229:11295   */\n      0xffffffffffffffffffffffffffffffffffffffffffffffffffffffffffffffff\n        /* \"#utility.yul\":11222:11227   */\n      dup3\n        /* \"#utility.yul\":11219:11296   */\n      eq\n        /* \"#utility.yul\":11216:11319   */\n      iszero\n      tag_320\n      jumpi\n        /* \"#utility.yul\":11299:11317   */\n      tag_321\n      tag_192\n      jump\t// in\n    tag_321:\n        /* \"#utility.yul\":11216:11319   */\n    tag_320:\n        /* \"#utility.yul\":11346:11347   */\n      0x01\n        /* \"#utility.yul\":11339:11344   */\n      dup3\n        /* \"#utility.yul\":11335:11348   */\n      add\n        /* \"#utility.yul\":11328:11348   */\n      swap1\n      pop\n        /* \"#utility.yul\":11121:11354   */\n      swap2\n      swap1\n      pop\n      jump\t// out\n\n    auxdata: 0xa2646970667358221220e16823954e6e83b7dc87d675ae4eb20fc9a649e15bdc4694d88b8eee31cd2fd264736f6c63430008090033\n}\n","bytecode":{"linkReferences":{},"object":"60806040523480156200001157600080fd5b50604051620018fb380380620018fb8339818101604052810190620000379190620003c9565b846000806101000a81548173ffffffffffffffffffffffffffffffffffffffff021916908373ffffffffffffffffffffffffffffffffffffffff16021790555085600581905550836001908051906020019062000096929190620000dc565b508260029080519060200190620000af929190620000dc565b50806004819055508160039080519060200190620000cf929190620000dc565b5050505050505062000527565b828054620000ea90620004f1565b90600052602060002090601f0160209004810192826200010e57600085556200015a565b82601f106200012957805160ff19168380011785556200015a565b828001600101855582156200015a579182015b82811115620001595782518255916020019190600101906200013c565b5b5090506200016991906200016d565b5090565b5b80821115620001885760008160009055506001016200016e565b5090565b6000604051905090565b600080fd5b600080fd5b6000819050919050565b620001b581620001a0565b8114620001c157600080fd5b50565b600081519050620001d581620001aa565b92915050565b600073ffffffffffffffffffffffffffffffffffffffff82169050919050565b60006200020882620001db565b9050919050565b6200021a81620001fb565b81146200022657600080fd5b50565b6000815190506200023a816200020f565b92915050565b600080fd5b600080fd5b6000601f19601f8301169050919050565b7f4e487b7100000000000000000000000000000000000000000000000000000000600052604160045260246000fd5b62000295826200024a565b810181811067ffffffffffffffff82111715620002b757620002b66200025b565b5b80604052505050565b6000620002cc6200018c565b9050620002da82826200028a565b919050565b600067ffffffffffffffff821115620002fd57620002fc6200025b565b5b62000308826200024a565b9050602081019050919050565b60005b838110156200033557808201518184015260208101905062000318565b8381111562000345576000848401525b50505050565b6000620003626200035c84620002df565b620002c0565b90508281526020810184848401111562000381576200038062000245565b5b6200038e84828562000315565b509392505050565b600082601f830112620003ae57620003ad62000240565b5b8151620003c08482602086016200034b565b91505092915050565b60008060008060008060c08789031215620003e957620003e862000196565b5b6000620003f989828a01620001c4565b96505060206200040c89828a0162000229565b955050604087015167ffffffffffffffff81111562000430576200042f6200019b565b5b6200043e89828a0162000396565b945050606087015167ffffffffffffffff8111156200046257620004616200019b565b5b6200047089828a0162000396565b935050608087015167ffffffffffffffff8111156200049457620004936200019b565b5b620004a289828a0162000396565b92505060a0620004b589828a01620001c4565b9150509295509295509295565b7f4e487b7100000000000000000000000000000000000000000000000000000000600052602260045260246000fd5b600060028204905060018216806200050a57607f821691505b60208210811415620005215762000520620004c2565b5b50919050565b6113c480620005376000396000f3fe6080604052600436106100e85760003560e01c8063937e09b11161008a578063d3087b5711610059578063d3087b57146102f2578063d7bb99ba1461031d578063d7d1bbdb14610327578063eb7b131214610350576100e8565b8063937e09b1146102465780639a33e300146102715780639fb42b1f1461029c578063b90497e0146102c7576100e8565b8063647c75e2116100c6578063647c75e21461017457806370035047146101b157806381d12c58146101dc5780638a9cfd551461021d576100e8565b806303441006146100ed5780634051ddac14610116578063481c6a7514610149575b600080fd5b3480156100f957600080fd5b50610114600480360381019061010f9190610d6b565b61037b565b005b34801561012257600080fd5b5061012b6104b4565b60405161014099989796959493929190610e81565b60405180910390f35b34801561015557600080fd5b5061015e6106b8565b60405161016b9190610f23565b60405180910390f35b34801561018057600080fd5b5061019b60048036038101906101969190610f6a565b6106dc565b6040516101a89190610fb2565b60405180910390f35b3480156101bd57600080fd5b506101c66106fc565b6040516101d39190610fcd565b60405180910390f35b3480156101e857600080fd5b5061020360048036038101906101fe9190610d6b565b610702565b604051610214959493929190611009565b60405180910390f35b34801561022957600080fd5b50610244600480360381019061023f91906111c4565b6107ed565b005b34801561025257600080fd5b5061025b610904565b6040516102689190610fcd565b60405180910390f35b34801561027d57600080fd5b5061028661090a565b6040516102939190611233565b60405180910390f35b3480156102a857600080fd5b506102b1610998565b6040516102be9190610fcd565b60405180910390f35b3480156102d357600080fd5b506102dc61099e565b6040516102e99190611233565b60405180910390f35b3480156102fe57600080fd5b50610307610a2c565b6040516103149190611233565b60405180910390f35b610325610aba565b005b34801561033357600080fd5b5061034e60048036038101906103499190610d6b565b610b3a565b005b34801561035c57600080fd5b50610365610c78565b6040516103729190610fcd565b60405180910390f35b60008054906101000a900473ffffffffffffffffffffffffffffffffffffffff1673ffffffffffffffffffffffffffffffffffffffff163373ffffffffffffffffffffffffffffffffffffffff16146103d357600080fd5b600060096000838152602001908152602001600020905060026007546103f991906112b3565b81600301541161040857600080fd5b8060020160149054906101000a900460ff161561042457600080fd5b8060020160009054906101000a900473ffffffffffffffffffffffffffffffffffffffff1673ffffffffffffffffffffffffffffffffffffffff166108fc82600101549081150290604051600060405180830381858888f19350505050158015610492573d6000803e3d6000fd5b5060018160020160146101000a81548160ff0219169083151502179055505050565b6000806000806000606080600060606005544760085460075460008054906101000a900473ffffffffffffffffffffffffffffffffffffffff1660016002600454600383805461050390611313565b80601f016020809104026020016040519081016040528092919081815260200182805461052f90611313565b801561057c5780601f106105515761010080835404028352916020019161057c565b820191906000526020600020905b81548152906001019060200180831161055f57829003601f168201915b5050505050935082805461058f90611313565b80601f01602080910402602001604051908101604052809291908181526020018280546105bb90611313565b80156106085780601f106105dd57610100808354040283529160200191610608565b820191906000526020600020905b8154815290600101906020018083116105eb57829003601f168201915b5050505050925080805461061b90611313565b80601f016020809104026020016040519081016040528092919081815260200182805461064790611313565b80156106945780601f1061066957610100808354040283529160200191610694565b820191906000526020600020905b81548152906001019060200180831161067757829003601f168201915b50505050509050985098509850985098509850985098509850909192939495969798565b60008054906101000a900473ffffffffffffffffffffffffffffffffffffffff1681565b60066020528060005260406000206000915054906101000a900460ff1681565b60045481565b600960205280600052604060002060009150905080600001805461072590611313565b80601f016020809104026020016040519081016040528092919081815260200182805461075190611313565b801561079e5780601f106107735761010080835404028352916020019161079e565b820191906000526020600020905b81548152906001019060200180831161078157829003601f168201915b5050505050908060010154908060020160009054906101000a900473ffffffffffffffffffffffffffffffffffffffff16908060020160149054906101000a900460ff16908060030154905085565b60008054906101000a900473ffffffffffffffffffffffffffffffffffffffff1673ffffffffffffffffffffffffffffffffffffffff163373ffffffffffffffffffffffffffffffffffffffff161461084557600080fd5b6000600960006008600081548092919061085e90611345565b91905055815260200190815260200160002090508381600001908051906020019061088a929190610c7e565b50828160010181905550818160020160006101000a81548173ffffffffffffffffffffffffffffffffffffffff021916908373ffffffffffffffffffffffffffffffffffffffff16021790555060008160020160146101000a81548160ff0219169083151502179055506000816003018190555050505050565b60055481565b6001805461091790611313565b80601f016020809104026020016040519081016040528092919081815260200182805461094390611313565b80156109905780601f1061096557610100808354040283529160200191610990565b820191906000526020600020905b81548152906001019060200180831161097357829003601f168201915b505050505081565b60085481565b600380546109ab90611313565b80601f01602080910402602001604051908101604052809291908181526020018280546109d790611313565b8015610a245780601f106109f957610100808354040283529160200191610a24565b820191906000526020600020905b815481529060010190602001808311610a0757829003601f168201915b505050505081565b60028054610a3990611313565b80601f0160208091040260200160405190810160405280929190818152602001828054610a6590611313565b8015610ab25780601f10610a8757610100808354040283529160200191610ab2565b820191906000526020600020905b815481529060010190602001808311610a9557829003601f168201915b505050505081565b6005543411610ac857600080fd5b6001600660003373ffffffffffffffffffffffffffffffffffffffff1673ffffffffffffffffffffffffffffffffffffffff16815260200190815260200160002060006101000a81548160ff02191690831515021790555060076000815480929190610b3390611345565b9190505550565b6000600960008381526020019081526020016000209050600660003373ffffffffffffffffffffffffffffffffffffffff1673ffffffffffffffffffffffffffffffffffffffff16815260200190815260200160002060009054906101000a900460ff16610ba757600080fd5b8060040160003373ffffffffffffffffffffffffffffffffffffffff1673ffffffffffffffffffffffffffffffffffffffff16815260200190815260200160002060009054906101000a900460ff1615610c0057600080fd5b60018160040160003373ffffffffffffffffffffffffffffffffffffffff1673ffffffffffffffffffffffffffffffffffffffff16815260200190815260200160002060006101000a81548160ff021916908315150217905550806003016000815480929190610c6f90611345565b91905055505050565b60075481565b828054610c8a90611313565b90600052602060002090601f016020900481019282610cac5760008555610cf3565b82601f10610cc557805160ff1916838001178555610cf3565b82800160010185558215610cf3579182015b82811115610cf2578251825591602001919060010190610cd7565b5b509050610d009190610d04565b5090565b5b80821115610d1d576000816000905550600101610d05565b5090565b6000604051905090565b600080fd5b600080fd5b6000819050919050565b610d4881610d35565b8114610d5357600080fd5b50565b600081359050610d6581610d3f565b92915050565b600060208284031215610d8157610d80610d2b565b5b6000610d8f84828501610d56565b91505092915050565b610da181610d35565b82525050565b600073ffffffffffffffffffffffffffffffffffffffff82169050919050565b6000610dd282610da7565b9050919050565b610de281610dc7565b82525050565b600081519050919050565b600082825260208201905092915050565b60005b83811015610e22578082015181840152602081019050610e07565b83811115610e31576000848401525b50505050565b6000601f19601f8301169050919050565b6000610e5382610de8565b610e5d8185610df3565b9350610e6d818560208601610e04565b610e7681610e37565b840191505092915050565b600061012082019050610e97600083018c610d98565b610ea4602083018b610d98565b610eb1604083018a610d98565b610ebe6060830189610d98565b610ecb6080830188610dd9565b81810360a0830152610edd8187610e48565b905081810360c0830152610ef18186610e48565b9050610f0060e0830185610d98565b818103610100830152610f138184610e48565b90509a9950505050505050505050565b6000602082019050610f386000830184610dd9565b92915050565b610f4781610dc7565b8114610f5257600080fd5b50565b600081359050610f6481610f3e565b92915050565b600060208284031215610f8057610f7f610d2b565b5b6000610f8e84828501610f55565b91505092915050565b60008115159050919050565b610fac81610f97565b82525050565b6000602082019050610fc76000830184610fa3565b92915050565b6000602082019050610fe26000830184610d98565b92915050565b6000610ff382610da7565b9050919050565b61100381610fe8565b82525050565b600060a08201905081810360008301526110238188610e48565b90506110326020830187610d98565b61103f6040830186610ffa565b61104c6060830185610fa3565b6110596080830184610d98565b9695505050505050565b600080fd5b600080fd5b7f4e487b7100000000000000000000000000000000000000000000000000000000600052604160045260246000fd5b6110a582610e37565b810181811067ffffffffffffffff821117156110c4576110c361106d565b5b80604052505050565b60006110d7610d21565b90506110e3828261109c565b919050565b600067ffffffffffffffff8211156111035761110261106d565b5b61110c82610e37565b9050602081019050919050565b82818337600083830152505050565b600061113b611136846110e8565b6110cd565b90508281526020810184848401111561115757611156611068565b5b611162848285611119565b509392505050565b600082601f83011261117f5761117e611063565b5b813561118f848260208601611128565b91505092915050565b6111a181610fe8565b81146111ac57600080fd5b50565b6000813590506111be81611198565b92915050565b6000806000606084860312156111dd576111dc610d2b565b5b600084013567ffffffffffffffff8111156111fb576111fa610d30565b5b6112078682870161116a565b935050602061121886828701610d56565b9250506040611229868287016111af565b9150509250925092565b6000602082019050818103600083015261124d8184610e48565b905092915050565b7f4e487b7100000000000000000000000000000000000000000000000000000000600052601260045260246000fd5b7f4e487b7100000000000000000000000000000000000000000000000000000000600052601160045260246000fd5b60006112be82610d35565b91506112c983610d35565b9250826112d9576112d8611255565b5b828204905092915050565b7f4e487b7100000000000000000000000000000000000000000000000000000000600052602260045260246000fd5b6000600282049050600182168061132b57607f821691505b6020821081141561133f5761133e6112e4565b5b50919050565b600061135082610d35565b91507fffffffffffffffffffffffffffffffffffffffffffffffffffffffffffffffff82141561138357611382611284565b5b60018201905091905056fea2646970667358221220e16823954e6e83b7dc87d675ae4eb20fc9a649e15bdc4694d88b8eee31cd2fd264736f6c63430008090033","opcodes":"PUSH1 0x80 PUSH1 0x40 MSTORE CALLVALUE DUP1 ISZERO PUSH3 0x11 JUMPI PUSH1 0x0 DUP1 REVERT JUMPDEST POP PUSH1 0x40 MLOAD PUSH3 0x18FB CODESIZE SUB DUP1 PUSH3 0x18FB DUP4 CODECOPY DUP2 DUP2 ADD PUSH1 0x40 MSTORE DUP2 ADD SWAP1 PUSH3 0x37 SWAP2 SWAP1 PUSH3 0x3C9 JUMP JUMPDEST DUP5 PUSH1 0x0 DUP1 PUSH2 0x100 EXP DUP2 SLOAD DUP2 PUSH20 0xFFFFFFFFFFFFFFFFFFFFFFFFFFFFFFFFFFFFFFFF MUL NOT AND SWAP1 DUP4 PUSH20 0xFFFFFFFFFFFFFFFFFFFFFFFFFFFFFFFFFFFFFFFF AND MUL OR SWAP1 SSTORE POP DUP6 PUSH1 0x5 DUP2 SWAP1 SSTORE POP DUP4 PUSH1 0x1 SWAP1 DUP1 MLOAD SWAP1 PUSH1 0x20 ADD SWAP1 PUSH3 0x96 SWAP3 SWAP2 SWAP1 PUSH3 0xDC JUMP JUMPDEST POP DUP3 PUSH1 0x2 SWAP1 DUP1 MLOAD SWAP1 PUSH1 0x20 ADD SWAP1 PUSH3 0xAF SWAP3 SWAP2 SWAP1 PUSH3 0xDC JUMP JUMPDEST POP DUP1 PUSH1 0x4 DUP2 SWAP1 SSTORE POP DUP2 PUSH1 0x3 SWAP1 DUP1 MLOAD SWAP1 PUSH1 0x20 ADD SWAP1 PUSH3 0xCF SWAP3 SWAP2 SWAP1 PUSH3 0xDC JUMP JUMPDEST POP POP POP POP POP POP POP PUSH3 0x527 JUMP JUMPDEST DUP3 DUP1 SLOAD PUSH3 0xEA SWAP1 PUSH3 0x4F1 JUMP JUMPDEST SWAP1 PUSH1 0x0 MSTORE PUSH1 0x20 PUSH1 0x0 KECCAK256 SWAP1 PUSH1 0x1F ADD PUSH1 0x20 SWAP1 DIV DUP2 ADD SWAP3 DUP3 PUSH3 0x10E JUMPI PUSH1 0x0 DUP6 SSTORE PUSH3 0x15A JUMP JUMPDEST DUP3 PUSH1 0x1F LT PUSH3 0x129 JUMPI DUP1 MLOAD PUSH1 0xFF NOT AND DUP4 DUP1 ADD OR DUP6 SSTORE PUSH3 0x15A JUMP JUMPDEST DUP3 DUP1 ADD PUSH1 0x1 ADD DUP6 SSTORE DUP3 ISZERO PUSH3 0x15A JUMPI SWAP2 DUP3 ADD JUMPDEST DUP3 DUP2 GT ISZERO PUSH3 0x159 JUMPI DUP3 MLOAD DUP3 SSTORE SWAP2 PUSH1 0x20 ADD SWAP2 SWAP1 PUSH1 0x1 ADD SWAP1 PUSH3 0x13C JUMP JUMPDEST JUMPDEST POP SWAP1 POP PUSH3 0x169 SWAP2 SWAP1 PUSH3 0x16D JUMP JUMPDEST POP SWAP1 JUMP JUMPDEST JUMPDEST DUP1 DUP3 GT ISZERO PUSH3 0x188 JUMPI PUSH1 0x0 DUP2 PUSH1 0x0 SWAP1 SSTORE POP PUSH1 0x1 ADD PUSH3 0x16E JUMP JUMPDEST POP SWAP1 JUMP JUMPDEST PUSH1 0x0 PUSH1 0x40 MLOAD SWAP1 POP SWAP1 JUMP JUMPDEST PUSH1 0x0 DUP1 REVERT JUMPDEST PUSH1 0x0 DUP1 REVERT JUMPDEST PUSH1 0x0 DUP2 SWAP1 POP SWAP2 SWAP1 POP JUMP JUMPDEST PUSH3 0x1B5 DUP2 PUSH3 0x1A0 JUMP JUMPDEST DUP2 EQ PUSH3 0x1C1 JUMPI PUSH1 0x0 DUP1 REVERT JUMPDEST POP JUMP JUMPDEST PUSH1 0x0 DUP2 MLOAD SWAP1 POP PUSH3 0x1D5 DUP2 PUSH3 0x1AA JUMP JUMPDEST SWAP3 SWAP2 POP POP JUMP JUMPDEST PUSH1 0x0 PUSH20 0xFFFFFFFFFFFFFFFFFFFFFFFFFFFFFFFFFFFFFFFF DUP3 AND SWAP1 POP SWAP2 SWAP1 POP JUMP JUMPDEST PUSH1 0x0 PUSH3 0x208 DUP3 PUSH3 0x1DB JUMP JUMPDEST SWAP1 POP SWAP2 SWAP1 POP JUMP JUMPDEST PUSH3 0x21A DUP2 PUSH3 0x1FB JUMP JUMPDEST DUP2 EQ PUSH3 0x226 JUMPI PUSH1 0x0 DUP1 REVERT JUMPDEST POP JUMP JUMPDEST PUSH1 0x0 DUP2 MLOAD SWAP1 POP PUSH3 0x23A DUP2 PUSH3 0x20F JUMP JUMPDEST SWAP3 SWAP2 POP POP JUMP JUMPDEST PUSH1 0x0 DUP1 REVERT JUMPDEST PUSH1 0x0 DUP1 REVERT JUMPDEST PUSH1 0x0 PUSH1 0x1F NOT PUSH1 0x1F DUP4 ADD AND SWAP1 POP SWAP2 SWAP1 POP JUMP JUMPDEST PUSH32 0x4E487B7100000000000000000000000000000000000000000000000000000000 PUSH1 0x0 MSTORE PUSH1 0x41 PUSH1 0x4 MSTORE PUSH1 0x24 PUSH1 0x0 REVERT JUMPDEST PUSH3 0x295 DUP3 PUSH3 0x24A JUMP JUMPDEST DUP2 ADD DUP2 DUP2 LT PUSH8 0xFFFFFFFFFFFFFFFF DUP3 GT OR ISZERO PUSH3 0x2B7 JUMPI PUSH3 0x2B6 PUSH3 0x25B JUMP JUMPDEST JUMPDEST DUP1 PUSH1 0x40 MSTORE POP POP POP JUMP JUMPDEST PUSH1 0x0 PUSH3 0x2CC PUSH3 0x18C JUMP JUMPDEST SWAP1 POP PUSH3 0x2DA DUP3 DUP3 PUSH3 0x28A JUMP JUMPDEST SWAP2 SWAP1 POP JUMP JUMPDEST PUSH1 0x0 PUSH8 0xFFFFFFFFFFFFFFFF DUP3 GT ISZERO PUSH3 0x2FD JUMPI PUSH3 0x2FC PUSH3 0x25B JUMP JUMPDEST JUMPDEST PUSH3 0x308 DUP3 PUSH3 0x24A JUMP JUMPDEST SWAP1 POP PUSH1 0x20 DUP2 ADD SWAP1 POP SWAP2 SWAP1 POP JUMP JUMPDEST PUSH1 0x0 JUMPDEST DUP4 DUP2 LT ISZERO PUSH3 0x335 JUMPI DUP1 DUP3 ADD MLOAD DUP2 DUP5 ADD MSTORE PUSH1 0x20 DUP2 ADD SWAP1 POP PUSH3 0x318 JUMP JUMPDEST DUP4 DUP2 GT ISZERO PUSH3 0x345 JUMPI PUSH1 0x0 DUP5 DUP5 ADD MSTORE JUMPDEST POP POP POP POP JUMP JUMPDEST PUSH1 0x0 PUSH3 0x362 PUSH3 0x35C DUP5 PUSH3 0x2DF JUMP JUMPDEST PUSH3 0x2C0 JUMP JUMPDEST SWAP1 POP DUP3 DUP2 MSTORE PUSH1 0x20 DUP2 ADD DUP5 DUP5 DUP5 ADD GT ISZERO PUSH3 0x381 JUMPI PUSH3 0x380 PUSH3 0x245 JUMP JUMPDEST JUMPDEST PUSH3 0x38E DUP5 DUP3 DUP6 PUSH3 0x315 JUMP JUMPDEST POP SWAP4 SWAP3 POP POP POP JUMP JUMPDEST PUSH1 0x0 DUP3 PUSH1 0x1F DUP4 ADD SLT PUSH3 0x3AE JUMPI PUSH3 0x3AD PUSH3 0x240 JUMP JUMPDEST JUMPDEST DUP2 MLOAD PUSH3 0x3C0 DUP5 DUP3 PUSH1 0x20 DUP7 ADD PUSH3 0x34B JUMP JUMPDEST SWAP2 POP POP SWAP3 SWAP2 POP POP JUMP JUMPDEST PUSH1 0x0 DUP1 PUSH1 0x0 DUP1 PUSH1 0x0 DUP1 PUSH1 0xC0 DUP8 DUP10 SUB SLT ISZERO PUSH3 0x3E9 JUMPI PUSH3 0x3E8 PUSH3 0x196 JUMP JUMPDEST JUMPDEST PUSH1 0x0 PUSH3 0x3F9 DUP10 DUP3 DUP11 ADD PUSH3 0x1C4 JUMP JUMPDEST SWAP7 POP POP PUSH1 0x20 PUSH3 0x40C DUP10 DUP3 DUP11 ADD PUSH3 0x229 JUMP JUMPDEST SWAP6 POP POP PUSH1 0x40 DUP8 ADD MLOAD PUSH8 0xFFFFFFFFFFFFFFFF DUP2 GT ISZERO PUSH3 0x430 JUMPI PUSH3 0x42F PUSH3 0x19B JUMP JUMPDEST JUMPDEST PUSH3 0x43E DUP10 DUP3 DUP11 ADD PUSH3 0x396 JUMP JUMPDEST SWAP5 POP POP PUSH1 0x60 DUP8 ADD MLOAD PUSH8 0xFFFFFFFFFFFFFFFF DUP2 GT ISZERO PUSH3 0x462 JUMPI PUSH3 0x461 PUSH3 0x19B JUMP JUMPDEST JUMPDEST PUSH3 0x470 DUP10 DUP3 DUP11 ADD PUSH3 0x396 JUMP JUMPDEST SWAP4 POP POP PUSH1 0x80 DUP8 ADD MLOAD PUSH8 0xFFFFFFFFFFFFFFFF DUP2 GT ISZERO PUSH3 0x494 JUMPI PUSH3 0x493 PUSH3 0x19B JUMP JUMPDEST JUMPDEST PUSH3 0x4A2 DUP10 DUP3 DUP11 ADD PUSH3 0x396 JUMP JUMPDEST SWAP3 POP POP PUSH1 0xA0 PUSH3 0x4B5 DUP10 DUP3 DUP11 ADD PUSH3 0x1C4 JUMP JUMPDEST SWAP2 POP POP SWAP3 SWAP6 POP SWAP3 SWAP6 POP SWAP3 SWAP6 JUMP JUMPDEST PUSH32 0x4E487B7100000000000000000000000000000000000000000000000000000000 PUSH1 0x0 MSTORE PUSH1 0x22 PUSH1 0x4 MSTORE PUSH1 0x24 PUSH1 0x0 REVERT JUMPDEST PUSH1 0x0 PUSH1 0x2 DUP3 DIV SWAP1 POP PUSH1 0x1 DUP3 AND DUP1 PUSH3 0x50A JUMPI PUSH1 0x7F DUP3 AND SWAP2 POP JUMPDEST PUSH1 0x20 DUP3 LT DUP2 EQ ISZERO PUSH3 0x521 JUMPI PUSH3 0x520 PUSH3 0x4C2 JUMP JUMPDEST JUMPDEST POP SWAP2 SWAP1 POP JUMP JUMPDEST PUSH2 0x13C4 DUP1 PUSH3 0x537 PUSH1 0x0 CODECOPY PUSH1 0x0 RETURN INVALID PUSH1 0x80 PUSH1 0x40 MSTORE PUSH1 0x4 CALLDATASIZE LT PUSH2 0xE8 JUMPI PUSH1 0x0 CALLDATALOAD PUSH1 0xE0 SHR DUP1 PUSH4 0x937E09B1 GT PUSH2 0x8A JUMPI DUP1 PUSH4 0xD3087B57 GT PUSH2 0x59 JUMPI DUP1 PUSH4 0xD3087B57 EQ PUSH2 0x2F2 JUMPI DUP1 PUSH4 0xD7BB99BA EQ PUSH2 0x31D JUMPI DUP1 PUSH4 0xD7D1BBDB EQ PUSH2 0x327 JUMPI DUP1 PUSH4 0xEB7B1312 EQ PUSH2 0x350 JUMPI PUSH2 0xE8 JUMP JUMPDEST DUP1 PUSH4 0x937E09B1 EQ PUSH2 0x246 JUMPI DUP1 PUSH4 0x9A33E300 EQ PUSH2 0x271 JUMPI DUP1 PUSH4 0x9FB42B1F EQ PUSH2 0x29C JUMPI DUP1 PUSH4 0xB90497E0 EQ PUSH2 0x2C7 JUMPI PUSH2 0xE8 JUMP JUMPDEST DUP1 PUSH4 0x647C75E2 GT PUSH2 0xC6 JUMPI DUP1 PUSH4 0x647C75E2 EQ PUSH2 0x174 JUMPI DUP1 PUSH4 0x70035047 EQ PUSH2 0x1B1 JUMPI DUP1 PUSH4 0x81D12C58 EQ PUSH2 0x1DC JUMPI DUP1 PUSH4 0x8A9CFD55 EQ PUSH2 0x21D JUMPI PUSH2 0xE8 JUMP JUMPDEST DUP1 PUSH4 0x3441006 EQ PUSH2 0xED JUMPI DUP1 PUSH4 0x4051DDAC EQ PUSH2 0x116 JUMPI DUP1 PUSH4 0x481C6A75 EQ PUSH2 0x149 JUMPI JUMPDEST PUSH1 0x0 DUP1 REVERT JUMPDEST CALLVALUE DUP1 ISZERO PUSH2 0xF9 JUMPI PUSH1 0x0 DUP1 REVERT JUMPDEST POP PUSH2 0x114 PUSH1 0x4 DUP1 CALLDATASIZE SUB DUP2 ADD SWAP1 PUSH2 0x10F SWAP2 SWAP1 PUSH2 0xD6B JUMP JUMPDEST PUSH2 0x37B JUMP JUMPDEST STOP JUMPDEST CALLVALUE DUP1 ISZERO PUSH2 0x122 JUMPI PUSH1 0x0 DUP1 REVERT JUMPDEST POP PUSH2 0x12B PUSH2 0x4B4 JUMP JUMPDEST PUSH1 0x40 MLOAD PUSH2 0x140 SWAP10 SWAP9 SWAP8 SWAP7 SWAP6 SWAP5 SWAP4 SWAP3 SWAP2 SWAP1 PUSH2 0xE81 JUMP JUMPDEST PUSH1 0x40 MLOAD DUP1 SWAP2 SUB SWAP1 RETURN JUMPDEST CALLVALUE DUP1 ISZERO PUSH2 0x155 JUMPI PUSH1 0x0 DUP1 REVERT JUMPDEST POP PUSH2 0x15E PUSH2 0x6B8 JUMP JUMPDEST PUSH1 0x40 MLOAD PUSH2 0x16B SWAP2 SWAP1 PUSH2 0xF23 JUMP JUMPDEST PUSH1 0x40 MLOAD DUP1 SWAP2 SUB SWAP1 RETURN JUMPDEST CALLVALUE DUP1 ISZERO PUSH2 0x180 JUMPI PUSH1 0x0 DUP1 REVERT JUMPDEST POP PUSH2 0x19B PUSH1 0x4 DUP1 CALLDATASIZE SUB DUP2 ADD SWAP1 PUSH2 0x196 SWAP2 SWAP1 PUSH2 0xF6A JUMP JUMPDEST PUSH2 0x6DC JUMP JUMPDEST PUSH1 0x40 MLOAD PUSH2 0x1A8 SWAP2 SWAP1 PUSH2 0xFB2 JUMP JUMPDEST PUSH1 0x40 MLOAD DUP1 SWAP2 SUB SWAP1 RETURN JUMPDEST CALLVALUE DUP1 ISZERO PUSH2 0x1BD JUMPI PUSH1 0x0 DUP1 REVERT JUMPDEST POP PUSH2 0x1C6 PUSH2 0x6FC JUMP JUMPDEST PUSH1 0x40 MLOAD PUSH2 0x1D3 SWAP2 SWAP1 PUSH2 0xFCD JUMP JUMPDEST PUSH1 0x40 MLOAD DUP1 SWAP2 SUB SWAP1 RETURN JUMPDEST CALLVALUE DUP1 ISZERO PUSH2 0x1E8 JUMPI PUSH1 0x0 DUP1 REVERT JUMPDEST POP PUSH2 0x203 PUSH1 0x4 DUP1 CALLDATASIZE SUB DUP2 ADD SWAP1 PUSH2 0x1FE SWAP2 SWAP1 PUSH2 0xD6B JUMP JUMPDEST PUSH2 0x702 JUMP JUMPDEST PUSH1 0x40 MLOAD PUSH2 0x214 SWAP6 SWAP5 SWAP4 SWAP3 SWAP2 SWAP1 PUSH2 0x1009 JUMP JUMPDEST PUSH1 0x40 MLOAD DUP1 SWAP2 SUB SWAP1 RETURN JUMPDEST CALLVALUE DUP1 ISZERO PUSH2 0x229 JUMPI PUSH1 0x0 DUP1 REVERT JUMPDEST POP PUSH2 0x244 PUSH1 0x4 DUP1 CALLDATASIZE SUB DUP2 ADD SWAP1 PUSH2 0x23F SWAP2 SWAP1 PUSH2 0x11C4 JUMP JUMPDEST PUSH2 0x7ED JUMP JUMPDEST STOP JUMPDEST CALLVALUE DUP1 ISZERO PUSH2 0x252 JUMPI PUSH1 0x0 DUP1 REVERT JUMPDEST POP PUSH2 0x25B PUSH2 0x904 JUMP JUMPDEST PUSH1 0x40 MLOAD PUSH2 0x268 SWAP2 SWAP1 PUSH2 0xFCD JUMP JUMPDEST PUSH1 0x40 MLOAD DUP1 SWAP2 SUB SWAP1 RETURN JUMPDEST CALLVALUE DUP1 ISZERO PUSH2 0x27D JUMPI PUSH1 0x0 DUP1 REVERT JUMPDEST POP PUSH2 0x286 PUSH2 0x90A JUMP JUMPDEST PUSH1 0x40 MLOAD PUSH2 0x293 SWAP2 SWAP1 PUSH2 0x1233 JUMP JUMPDEST PUSH1 0x40 MLOAD DUP1 SWAP2 SUB SWAP1 RETURN JUMPDEST CALLVALUE DUP1 ISZERO PUSH2 0x2A8 JUMPI PUSH1 0x0 DUP1 REVERT JUMPDEST POP PUSH2 0x2B1 PUSH2 0x998 JUMP JUMPDEST PUSH1 0x40 MLOAD PUSH2 0x2BE SWAP2 SWAP1 PUSH2 0xFCD JUMP JUMPDEST PUSH1 0x40 MLOAD DUP1 SWAP2 SUB SWAP1 RETURN JUMPDEST CALLVALUE DUP1 ISZERO PUSH2 0x2D3 JUMPI PUSH1 0x0 DUP1 REVERT JUMPDEST POP PUSH2 0x2DC PUSH2 0x99E JUMP JUMPDEST PUSH1 0x40 MLOAD PUSH2 0x2E9 SWAP2 SWAP1 PUSH2 0x1233 JUMP JUMPDEST PUSH1 0x40 MLOAD DUP1 SWAP2 SUB SWAP1 RETURN JUMPDEST CALLVALUE DUP1 ISZERO PUSH2 0x2FE JUMPI PUSH1 0x0 DUP1 REVERT JUMPDEST POP PUSH2 0x307 PUSH2 0xA2C JUMP JUMPDEST PUSH1 0x40 MLOAD PUSH2 0x314 SWAP2 SWAP1 PUSH2 0x1233 JUMP JUMPDEST PUSH1 0x40 MLOAD DUP1 SWAP2 SUB SWAP1 RETURN JUMPDEST PUSH2 0x325 PUSH2 0xABA JUMP JUMPDEST STOP JUMPDEST CALLVALUE DUP1 ISZERO PUSH2 0x333 JUMPI PUSH1 0x0 DUP1 REVERT JUMPDEST POP PUSH2 0x34E PUSH1 0x4 DUP1 CALLDATASIZE SUB DUP2 ADD SWAP1 PUSH2 0x349 SWAP2 SWAP1 PUSH2 0xD6B JUMP JUMPDEST PUSH2 0xB3A JUMP JUMPDEST STOP JUMPDEST CALLVALUE DUP1 ISZERO PUSH2 0x35C JUMPI PUSH1 0x0 DUP1 REVERT JUMPDEST POP PUSH2 0x365 PUSH2 0xC78 JUMP JUMPDEST PUSH1 0x40 MLOAD PUSH2 0x372 SWAP2 SWAP1 PUSH2 0xFCD JUMP JUMPDEST PUSH1 0x40 MLOAD DUP1 SWAP2 SUB SWAP1 RETURN JUMPDEST PUSH1 0x0 DUP1 SLOAD SWAP1 PUSH2 0x100 EXP SWAP1 DIV PUSH20 0xFFFFFFFFFFFFFFFFFFFFFFFFFFFFFFFFFFFFFFFF AND PUSH20 0xFFFFFFFFFFFFFFFFFFFFFFFFFFFFFFFFFFFFFFFF AND CALLER PUSH20 0xFFFFFFFFFFFFFFFFFFFFFFFFFFFFFFFFFFFFFFFF AND EQ PUSH2 0x3D3 JUMPI PUSH1 0x0 DUP1 REVERT JUMPDEST PUSH1 0x0 PUSH1 0x9 PUSH1 0x0 DUP4 DUP2 MSTORE PUSH1 0x20 ADD SWAP1 DUP2 MSTORE PUSH1 0x20 ADD PUSH1 0x0 KECCAK256 SWAP1 POP PUSH1 0x2 PUSH1 0x7 SLOAD PUSH2 0x3F9 SWAP2 SWAP1 PUSH2 0x12B3 JUMP JUMPDEST DUP2 PUSH1 0x3 ADD SLOAD GT PUSH2 0x408 JUMPI PUSH1 0x0 DUP1 REVERT JUMPDEST DUP1 PUSH1 0x2 ADD PUSH1 0x14 SWAP1 SLOAD SWAP1 PUSH2 0x100 EXP SWAP1 DIV PUSH1 0xFF AND ISZERO PUSH2 0x424 JUMPI PUSH1 0x0 DUP1 REVERT JUMPDEST DUP1 PUSH1 0x2 ADD PUSH1 0x0 SWAP1 SLOAD SWAP1 PUSH2 0x100 EXP SWAP1 DIV PUSH20 0xFFFFFFFFFFFFFFFFFFFFFFFFFFFFFFFFFFFFFFFF AND PUSH20 0xFFFFFFFFFFFFFFFFFFFFFFFFFFFFFFFFFFFFFFFF AND PUSH2 0x8FC DUP3 PUSH1 0x1 ADD SLOAD SWAP1 DUP2 ISZERO MUL SWAP1 PUSH1 0x40 MLOAD PUSH1 0x0 PUSH1 0x40 MLOAD DUP1 DUP4 SUB DUP2 DUP6 DUP9 DUP9 CALL SWAP4 POP POP POP POP ISZERO DUP1 ISZERO PUSH2 0x492 JUMPI RETURNDATASIZE PUSH1 0x0 DUP1 RETURNDATACOPY RETURNDATASIZE PUSH1 0x0 REVERT JUMPDEST POP PUSH1 0x1 DUP2 PUSH1 0x2 ADD PUSH1 0x14 PUSH2 0x100 EXP DUP2 SLOAD DUP2 PUSH1 0xFF MUL NOT AND SWAP1 DUP4 ISZERO ISZERO MUL OR SWAP1 SSTORE POP POP POP JUMP JUMPDEST PUSH1 0x0 DUP1 PUSH1 0x0 DUP1 PUSH1 0x0 PUSH1 0x60 DUP1 PUSH1 0x0 PUSH1 0x60 PUSH1 0x5 SLOAD SELFBALANCE PUSH1 0x8 SLOAD PUSH1 0x7 SLOAD PUSH1 0x0 DUP1 SLOAD SWAP1 PUSH2 0x100 EXP SWAP1 DIV PUSH20 0xFFFFFFFFFFFFFFFFFFFFFFFFFFFFFFFFFFFFFFFF AND PUSH1 0x1 PUSH1 0x2 PUSH1 0x4 SLOAD PUSH1 0x3 DUP4 DUP1 SLOAD PUSH2 0x503 SWAP1 PUSH2 0x1313 JUMP JUMPDEST DUP1 PUSH1 0x1F ADD PUSH1 0x20 DUP1 SWAP2 DIV MUL PUSH1 0x20 ADD PUSH1 0x40 MLOAD SWAP1 DUP2 ADD PUSH1 0x40 MSTORE DUP1 SWAP3 SWAP2 SWAP1 DUP2 DUP2 MSTORE PUSH1 0x20 ADD DUP3 DUP1 SLOAD PUSH2 0x52F SWAP1 PUSH2 0x1313 JUMP JUMPDEST DUP1 ISZERO PUSH2 0x57C JUMPI DUP1 PUSH1 0x1F LT PUSH2 0x551 JUMPI PUSH2 0x100 DUP1 DUP4 SLOAD DIV MUL DUP4 MSTORE SWAP2 PUSH1 0x20 ADD SWAP2 PUSH2 0x57C JUMP JUMPDEST DUP3 ADD SWAP2 SWAP1 PUSH1 0x0 MSTORE PUSH1 0x20 PUSH1 0x0 KECCAK256 SWAP1 JUMPDEST DUP2 SLOAD DUP2 MSTORE SWAP1 PUSH1 0x1 ADD SWAP1 PUSH1 0x20 ADD DUP1 DUP4 GT PUSH2 0x55F JUMPI DUP3 SWAP1 SUB PUSH1 0x1F AND DUP3 ADD SWAP2 JUMPDEST POP POP POP POP POP SWAP4 POP DUP3 DUP1 SLOAD PUSH2 0x58F SWAP1 PUSH2 0x1313 JUMP JUMPDEST DUP1 PUSH1 0x1F ADD PUSH1 0x20 DUP1 SWAP2 DIV MUL PUSH1 0x20 ADD PUSH1 0x40 MLOAD SWAP1 DUP2 ADD PUSH1 0x40 MSTORE DUP1 SWAP3 SWAP2 SWAP1 DUP2 DUP2 MSTORE PUSH1 0x20 ADD DUP3 DUP1 SLOAD PUSH2 0x5BB SWAP1 PUSH2 0x1313 JUMP JUMPDEST DUP1 ISZERO PUSH2 0x608 JUMPI DUP1 PUSH1 0x1F LT PUSH2 0x5DD JUMPI PUSH2 0x100 DUP1 DUP4 SLOAD DIV MUL DUP4 MSTORE SWAP2 PUSH1 0x20 ADD SWAP2 PUSH2 0x608 JUMP JUMPDEST DUP3 ADD SWAP2 SWAP1 PUSH1 0x0 MSTORE PUSH1 0x20 PUSH1 0x0 KECCAK256 SWAP1 JUMPDEST DUP2 SLOAD DUP2 MSTORE SWAP1 PUSH1 0x1 ADD SWAP1 PUSH1 0x20 ADD DUP1 DUP4 GT PUSH2 0x5EB JUMPI DUP3 SWAP1 SUB PUSH1 0x1F AND DUP3 ADD SWAP2 JUMPDEST POP POP POP POP POP SWAP3 POP DUP1 DUP1 SLOAD PUSH2 0x61B SWAP1 PUSH2 0x1313 JUMP JUMPDEST DUP1 PUSH1 0x1F ADD PUSH1 0x20 DUP1 SWAP2 DIV MUL PUSH1 0x20 ADD PUSH1 0x40 MLOAD SWAP1 DUP2 ADD PUSH1 0x40 MSTORE DUP1 SWAP3 SWAP2 SWAP1 DUP2 DUP2 MSTORE PUSH1 0x20 ADD DUP3 DUP1 SLOAD PUSH2 0x647 SWAP1 PUSH2 0x1313 JUMP JUMPDEST DUP1 ISZERO PUSH2 0x694 JUMPI DUP1 PUSH1 0x1F LT PUSH2 0x669 JUMPI PUSH2 0x100 DUP1 DUP4 SLOAD DIV MUL DUP4 MSTORE SWAP2 PUSH1 0x20 ADD SWAP2 PUSH2 0x694 JUMP JUMPDEST DUP3 ADD SWAP2 SWAP1 PUSH1 0x0 MSTORE PUSH1 0x20 PUSH1 0x0 KECCAK256 SWAP1 JUMPDEST DUP2 SLOAD DUP2 MSTORE SWAP1 PUSH1 0x1 ADD SWAP1 PUSH1 0x20 ADD DUP1 DUP4 GT PUSH2 0x677 JUMPI DUP3 SWAP1 SUB PUSH1 0x1F AND DUP3 ADD SWAP2 JUMPDEST POP POP POP POP POP SWAP1 POP SWAP9 POP SWAP9 POP SWAP9 POP SWAP9 POP SWAP9 POP SWAP9 POP SWAP9 POP SWAP9 POP SWAP9 POP SWAP1 SWAP2 SWAP3 SWAP4 SWAP5 SWAP6 SWAP7 SWAP8 SWAP9 JUMP JUMPDEST PUSH1 0x0 DUP1 SLOAD SWAP1 PUSH2 0x100 EXP SWAP1 DIV PUSH20 0xFFFFFFFFFFFFFFFFFFFFFFFFFFFFFFFFFFFFFFFF AND DUP2 JUMP JUMPDEST PUSH1 0x6 PUSH1 0x20 MSTORE DUP1 PUSH1 0x0 MSTORE PUSH1 0x40 PUSH1 0x0 KECCAK256 PUSH1 0x0 SWAP2 POP SLOAD SWAP1 PUSH2 0x100 EXP SWAP1 DIV PUSH1 0xFF AND DUP2 JUMP JUMPDEST PUSH1 0x4 SLOAD DUP2 JUMP JUMPDEST PUSH1 0x9 PUSH1 0x20 MSTORE DUP1 PUSH1 0x0 MSTORE PUSH1 0x40 PUSH1 0x0 KECCAK256 PUSH1 0x0 SWAP2 POP SWAP1 POP DUP1 PUSH1 0x0 ADD DUP1 SLOAD PUSH2 0x725 SWAP1 PUSH2 0x1313 JUMP JUMPDEST DUP1 PUSH1 0x1F ADD PUSH1 0x20 DUP1 SWAP2 DIV MUL PUSH1 0x20 ADD PUSH1 0x40 MLOAD SWAP1 DUP2 ADD PUSH1 0x40 MSTORE DUP1 SWAP3 SWAP2 SWAP1 DUP2 DUP2 MSTORE PUSH1 0x20 ADD DUP3 DUP1 SLOAD PUSH2 0x751 SWAP1 PUSH2 0x1313 JUMP JUMPDEST DUP1 ISZERO PUSH2 0x79E JUMPI DUP1 PUSH1 0x1F LT PUSH2 0x773 JUMPI PUSH2 0x100 DUP1 DUP4 SLOAD DIV MUL DUP4 MSTORE SWAP2 PUSH1 0x20 ADD SWAP2 PUSH2 0x79E JUMP JUMPDEST DUP3 ADD SWAP2 SWAP1 PUSH1 0x0 MSTORE PUSH1 0x20 PUSH1 0x0 KECCAK256 SWAP1 JUMPDEST DUP2 SLOAD DUP2 MSTORE SWAP1 PUSH1 0x1 ADD SWAP1 PUSH1 0x20 ADD DUP1 DUP4 GT PUSH2 0x781 JUMPI DUP3 SWAP1 SUB PUSH1 0x1F AND DUP3 ADD SWAP2 JUMPDEST POP POP POP POP POP SWAP1 DUP1 PUSH1 0x1 ADD SLOAD SWAP1 DUP1 PUSH1 0x2 ADD PUSH1 0x0 SWAP1 SLOAD SWAP1 PUSH2 0x100 EXP SWAP1 DIV PUSH20 0xFFFFFFFFFFFFFFFFFFFFFFFFFFFFFFFFFFFFFFFF AND SWAP1 DUP1 PUSH1 0x2 ADD PUSH1 0x14 SWAP1 SLOAD SWAP1 PUSH2 0x100 EXP SWAP1 DIV PUSH1 0xFF AND SWAP1 DUP1 PUSH1 0x3 ADD SLOAD SWAP1 POP DUP6 JUMP JUMPDEST PUSH1 0x0 DUP1 SLOAD SWAP1 PUSH2 0x100 EXP SWAP1 DIV PUSH20 0xFFFFFFFFFFFFFFFFFFFFFFFFFFFFFFFFFFFFFFFF AND PUSH20 0xFFFFFFFFFFFFFFFFFFFFFFFFFFFFFFFFFFFFFFFF AND CALLER PUSH20 0xFFFFFFFFFFFFFFFFFFFFFFFFFFFFFFFFFFFFFFFF AND EQ PUSH2 0x845 JUMPI PUSH1 0x0 DUP1 REVERT JUMPDEST PUSH1 0x0 PUSH1 0x9 PUSH1 0x0 PUSH1 0x8 PUSH1 0x0 DUP2 SLOAD DUP1 SWAP3 SWAP2 SWAP1 PUSH2 0x85E SWAP1 PUSH2 0x1345 JUMP JUMPDEST SWAP2 SWAP1 POP SSTORE DUP2 MSTORE PUSH1 0x20 ADD SWAP1 DUP2 MSTORE PUSH1 0x20 ADD PUSH1 0x0 KECCAK256 SWAP1 POP DUP4 DUP2 PUSH1 0x0 ADD SWAP1 DUP1 MLOAD SWAP1 PUSH1 0x20 ADD SWAP1 PUSH2 0x88A SWAP3 SWAP2 SWAP1 PUSH2 0xC7E JUMP JUMPDEST POP DUP3 DUP2 PUSH1 0x1 ADD DUP2 SWAP1 SSTORE POP DUP2 DUP2 PUSH1 0x2 ADD PUSH1 0x0 PUSH2 0x100 EXP DUP2 SLOAD DUP2 PUSH20 0xFFFFFFFFFFFFFFFFFFFFFFFFFFFFFFFFFFFFFFFF MUL NOT AND SWAP1 DUP4 PUSH20 0xFFFFFFFFFFFFFFFFFFFFFFFFFFFFFFFFFFFFFFFF AND MUL OR SWAP1 SSTORE POP PUSH1 0x0 DUP2 PUSH1 0x2 ADD PUSH1 0x14 PUSH2 0x100 EXP DUP2 SLOAD DUP2 PUSH1 0xFF MUL NOT AND SWAP1 DUP4 ISZERO ISZERO MUL OR SWAP1 SSTORE POP PUSH1 0x0 DUP2 PUSH1 0x3 ADD DUP2 SWAP1 SSTORE POP POP POP POP POP JUMP JUMPDEST PUSH1 0x5 SLOAD DUP2 JUMP JUMPDEST PUSH1 0x1 DUP1 SLOAD PUSH2 0x917 SWAP1 PUSH2 0x1313 JUMP JUMPDEST DUP1 PUSH1 0x1F ADD PUSH1 0x20 DUP1 SWAP2 DIV MUL PUSH1 0x20 ADD PUSH1 0x40 MLOAD SWAP1 DUP2 ADD PUSH1 0x40 MSTORE DUP1 SWAP3 SWAP2 SWAP1 DUP2 DUP2 MSTORE PUSH1 0x20 ADD DUP3 DUP1 SLOAD PUSH2 0x943 SWAP1 PUSH2 0x1313 JUMP JUMPDEST DUP1 ISZERO PUSH2 0x990 JUMPI DUP1 PUSH1 0x1F LT PUSH2 0x965 JUMPI PUSH2 0x100 DUP1 DUP4 SLOAD DIV MUL DUP4 MSTORE SWAP2 PUSH1 0x20 ADD SWAP2 PUSH2 0x990 JUMP JUMPDEST DUP3 ADD SWAP2 SWAP1 PUSH1 0x0 MSTORE PUSH1 0x20 PUSH1 0x0 KECCAK256 SWAP1 JUMPDEST DUP2 SLOAD DUP2 MSTORE SWAP1 PUSH1 0x1 ADD SWAP1 PUSH1 0x20 ADD DUP1 DUP4 GT PUSH2 0x973 JUMPI DUP3 SWAP1 SUB PUSH1 0x1F AND DUP3 ADD SWAP2 JUMPDEST POP POP POP POP POP DUP2 JUMP JUMPDEST PUSH1 0x8 SLOAD DUP2 JUMP JUMPDEST PUSH1 0x3 DUP1 SLOAD PUSH2 0x9AB SWAP1 PUSH2 0x1313 JUMP JUMPDEST DUP1 PUSH1 0x1F ADD PUSH1 0x20 DUP1 SWAP2 DIV MUL PUSH1 0x20 ADD PUSH1 0x40 MLOAD SWAP1 DUP2 ADD PUSH1 0x40 MSTORE DUP1 SWAP3 SWAP2 SWAP1 DUP2 DUP2 MSTORE PUSH1 0x20 ADD DUP3 DUP1 SLOAD PUSH2 0x9D7 SWAP1 PUSH2 0x1313 JUMP JUMPDEST DUP1 ISZERO PUSH2 0xA24 JUMPI DUP1 PUSH1 0x1F LT PUSH2 0x9F9 JUMPI PUSH2 0x100 DUP1 DUP4 SLOAD DIV MUL DUP4 MSTORE SWAP2 PUSH1 0x20 ADD SWAP2 PUSH2 0xA24 JUMP JUMPDEST DUP3 ADD SWAP2 SWAP1 PUSH1 0x0 MSTORE PUSH1 0x20 PUSH1 0x0 KECCAK256 SWAP1 JUMPDEST DUP2 SLOAD DUP2 MSTORE SWAP1 PUSH1 0x1 ADD SWAP1 PUSH1 0x20 ADD DUP1 DUP4 GT PUSH2 0xA07 JUMPI DUP3 SWAP1 SUB PUSH1 0x1F AND DUP3 ADD SWAP2 JUMPDEST POP POP POP POP POP DUP2 JUMP JUMPDEST PUSH1 0x2 DUP1 SLOAD PUSH2 0xA39 SWAP1 PUSH2 0x1313 JUMP JUMPDEST DUP1 PUSH1 0x1F ADD PUSH1 0x20 DUP1 SWAP2 DIV MUL PUSH1 0x20 ADD PUSH1 0x40 MLOAD SWAP1 DUP2 ADD PUSH1 0x40 MSTORE DUP1 SWAP3 SWAP2 SWAP1 DUP2 DUP2 MSTORE PUSH1 0x20 ADD DUP3 DUP1 SLOAD PUSH2 0xA65 SWAP1 PUSH2 0x1313 JUMP JUMPDEST DUP1 ISZERO PUSH2 0xAB2 JUMPI DUP1 PUSH1 0x1F LT PUSH2 0xA87 JUMPI PUSH2 0x100 DUP1 DUP4 SLOAD DIV MUL DUP4 MSTORE SWAP2 PUSH1 0x20 ADD SWAP2 PUSH2 0xAB2 JUMP JUMPDEST DUP3 ADD SWAP2 SWAP1 PUSH1 0x0 MSTORE PUSH1 0x20 PUSH1 0x0 KECCAK256 SWAP1 JUMPDEST DUP2 SLOAD DUP2 MSTORE SWAP1 PUSH1 0x1 ADD SWAP1 PUSH1 0x20 ADD DUP1 DUP4 GT PUSH2 0xA95 JUMPI DUP3 SWAP1 SUB PUSH1 0x1F AND DUP3 ADD SWAP2 JUMPDEST POP POP POP POP POP DUP2 JUMP JUMPDEST PUSH1 0x5 SLOAD CALLVALUE GT PUSH2 0xAC8 JUMPI PUSH1 0x0 DUP1 REVERT JUMPDEST PUSH1 0x1 PUSH1 0x6 PUSH1 0x0 CALLER PUSH20 0xFFFFFFFFFFFFFFFFFFFFFFFFFFFFFFFFFFFFFFFF AND PUSH20 0xFFFFFFFFFFFFFFFFFFFFFFFFFFFFFFFFFFFFFFFF AND DUP2 MSTORE PUSH1 0x20 ADD SWAP1 DUP2 MSTORE PUSH1 0x20 ADD PUSH1 0x0 KECCAK256 PUSH1 0x0 PUSH2 0x100 EXP DUP2 SLOAD DUP2 PUSH1 0xFF MUL NOT AND SWAP1 DUP4 ISZERO ISZERO MUL OR SWAP1 SSTORE POP PUSH1 0x7 PUSH1 0x0 DUP2 SLOAD DUP1 SWAP3 SWAP2 SWAP1 PUSH2 0xB33 SWAP1 PUSH2 0x1345 JUMP JUMPDEST SWAP2 SWAP1 POP SSTORE POP JUMP JUMPDEST PUSH1 0x0 PUSH1 0x9 PUSH1 0x0 DUP4 DUP2 MSTORE PUSH1 0x20 ADD SWAP1 DUP2 MSTORE PUSH1 0x20 ADD PUSH1 0x0 KECCAK256 SWAP1 POP PUSH1 0x6 PUSH1 0x0 CALLER PUSH20 0xFFFFFFFFFFFFFFFFFFFFFFFFFFFFFFFFFFFFFFFF AND PUSH20 0xFFFFFFFFFFFFFFFFFFFFFFFFFFFFFFFFFFFFFFFF AND DUP2 MSTORE PUSH1 0x20 ADD SWAP1 DUP2 MSTORE PUSH1 0x20 ADD PUSH1 0x0 KECCAK256 PUSH1 0x0 SWAP1 SLOAD SWAP1 PUSH2 0x100 EXP SWAP1 DIV PUSH1 0xFF AND PUSH2 0xBA7 JUMPI PUSH1 0x0 DUP1 REVERT JUMPDEST DUP1 PUSH1 0x4 ADD PUSH1 0x0 CALLER PUSH20 0xFFFFFFFFFFFFFFFFFFFFFFFFFFFFFFFFFFFFFFFF AND PUSH20 0xFFFFFFFFFFFFFFFFFFFFFFFFFFFFFFFFFFFFFFFF AND DUP2 MSTORE PUSH1 0x20 ADD SWAP1 DUP2 MSTORE PUSH1 0x20 ADD PUSH1 0x0 KECCAK256 PUSH1 0x0 SWAP1 SLOAD SWAP1 PUSH2 0x100 EXP SWAP1 DIV PUSH1 0xFF AND ISZERO PUSH2 0xC00 JUMPI PUSH1 0x0 DUP1 REVERT JUMPDEST PUSH1 0x1 DUP2 PUSH1 0x4 ADD PUSH1 0x0 CALLER PUSH20 0xFFFFFFFFFFFFFFFFFFFFFFFFFFFFFFFFFFFFFFFF AND PUSH20 0xFFFFFFFFFFFFFFFFFFFFFFFFFFFFFFFFFFFFFFFF AND DUP2 MSTORE PUSH1 0x20 ADD SWAP1 DUP2 MSTORE PUSH1 0x20 ADD PUSH1 0x0 KECCAK256 PUSH1 0x0 PUSH2 0x100 EXP DUP2 SLOAD DUP2 PUSH1 0xFF MUL NOT AND SWAP1 DUP4 ISZERO ISZERO MUL OR SWAP1 SSTORE POP DUP1 PUSH1 0x3 ADD PUSH1 0x0 DUP2 SLOAD DUP1 SWAP3 SWAP2 SWAP1 PUSH2 0xC6F SWAP1 PUSH2 0x1345 JUMP JUMPDEST SWAP2 SWAP1 POP SSTORE POP POP POP JUMP JUMPDEST PUSH1 0x7 SLOAD DUP2 JUMP JUMPDEST DUP3 DUP1 SLOAD PUSH2 0xC8A SWAP1 PUSH2 0x1313 JUMP JUMPDEST SWAP1 PUSH1 0x0 MSTORE PUSH1 0x20 PUSH1 0x0 KECCAK256 SWAP1 PUSH1 0x1F ADD PUSH1 0x20 SWAP1 DIV DUP2 ADD SWAP3 DUP3 PUSH2 0xCAC JUMPI PUSH1 0x0 DUP6 SSTORE PUSH2 0xCF3 JUMP JUMPDEST DUP3 PUSH1 0x1F LT PUSH2 0xCC5 JUMPI DUP1 MLOAD PUSH1 0xFF NOT AND DUP4 DUP1 ADD OR DUP6 SSTORE PUSH2 0xCF3 JUMP JUMPDEST DUP3 DUP1 ADD PUSH1 0x1 ADD DUP6 SSTORE DUP3 ISZERO PUSH2 0xCF3 JUMPI SWAP2 DUP3 ADD JUMPDEST DUP3 DUP2 GT ISZERO PUSH2 0xCF2 JUMPI DUP3 MLOAD DUP3 SSTORE SWAP2 PUSH1 0x20 ADD SWAP2 SWAP1 PUSH1 0x1 ADD SWAP1 PUSH2 0xCD7 JUMP JUMPDEST JUMPDEST POP SWAP1 POP PUSH2 0xD00 SWAP2 SWAP1 PUSH2 0xD04 JUMP JUMPDEST POP SWAP1 JUMP JUMPDEST JUMPDEST DUP1 DUP3 GT ISZERO PUSH2 0xD1D JUMPI PUSH1 0x0 DUP2 PUSH1 0x0 SWAP1 SSTORE POP PUSH1 0x1 ADD PUSH2 0xD05 JUMP JUMPDEST POP SWAP1 JUMP JUMPDEST PUSH1 0x0 PUSH1 0x40 MLOAD SWAP1 POP SWAP1 JUMP JUMPDEST PUSH1 0x0 DUP1 REVERT JUMPDEST PUSH1 0x0 DUP1 REVERT JUMPDEST PUSH1 0x0 DUP2 SWAP1 POP SWAP2 SWAP1 POP JUMP JUMPDEST PUSH2 0xD48 DUP2 PUSH2 0xD35 JUMP JUMPDEST DUP2 EQ PUSH2 0xD53 JUMPI PUSH1 0x0 DUP1 REVERT JUMPDEST POP JUMP JUMPDEST PUSH1 0x0 DUP2 CALLDATALOAD SWAP1 POP PUSH2 0xD65 DUP2 PUSH2 0xD3F JUMP JUMPDEST SWAP3 SWAP2 POP POP JUMP JUMPDEST PUSH1 0x0 PUSH1 0x20 DUP3 DUP5 SUB SLT ISZERO PUSH2 0xD81 JUMPI PUSH2 0xD80 PUSH2 0xD2B JUMP JUMPDEST JUMPDEST PUSH1 0x0 PUSH2 0xD8F DUP5 DUP3 DUP6 ADD PUSH2 0xD56 JUMP JUMPDEST SWAP2 POP POP SWAP3 SWAP2 POP POP JUMP JUMPDEST PUSH2 0xDA1 DUP2 PUSH2 0xD35 JUMP JUMPDEST DUP3 MSTORE POP POP JUMP JUMPDEST PUSH1 0x0 PUSH20 0xFFFFFFFFFFFFFFFFFFFFFFFFFFFFFFFFFFFFFFFF DUP3 AND SWAP1 POP SWAP2 SWAP1 POP JUMP JUMPDEST PUSH1 0x0 PUSH2 0xDD2 DUP3 PUSH2 0xDA7 JUMP JUMPDEST SWAP1 POP SWAP2 SWAP1 POP JUMP JUMPDEST PUSH2 0xDE2 DUP2 PUSH2 0xDC7 JUMP JUMPDEST DUP3 MSTORE POP POP JUMP JUMPDEST PUSH1 0x0 DUP2 MLOAD SWAP1 POP SWAP2 SWAP1 POP JUMP JUMPDEST PUSH1 0x0 DUP3 DUP3 MSTORE PUSH1 0x20 DUP3 ADD SWAP1 POP SWAP3 SWAP2 POP POP JUMP JUMPDEST PUSH1 0x0 JUMPDEST DUP4 DUP2 LT ISZERO PUSH2 0xE22 JUMPI DUP1 DUP3 ADD MLOAD DUP2 DUP5 ADD MSTORE PUSH1 0x20 DUP2 ADD SWAP1 POP PUSH2 0xE07 JUMP JUMPDEST DUP4 DUP2 GT ISZERO PUSH2 0xE31 JUMPI PUSH1 0x0 DUP5 DUP5 ADD MSTORE JUMPDEST POP POP POP POP JUMP JUMPDEST PUSH1 0x0 PUSH1 0x1F NOT PUSH1 0x1F DUP4 ADD AND SWAP1 POP SWAP2 SWAP1 POP JUMP JUMPDEST PUSH1 0x0 PUSH2 0xE53 DUP3 PUSH2 0xDE8 JUMP JUMPDEST PUSH2 0xE5D DUP2 DUP6 PUSH2 0xDF3 JUMP JUMPDEST SWAP4 POP PUSH2 0xE6D DUP2 DUP6 PUSH1 0x20 DUP7 ADD PUSH2 0xE04 JUMP JUMPDEST PUSH2 0xE76 DUP2 PUSH2 0xE37 JUMP JUMPDEST DUP5 ADD SWAP2 POP POP SWAP3 SWAP2 POP POP JUMP JUMPDEST PUSH1 0x0 PUSH2 0x120 DUP3 ADD SWAP1 POP PUSH2 0xE97 PUSH1 0x0 DUP4 ADD DUP13 PUSH2 0xD98 JUMP JUMPDEST PUSH2 0xEA4 PUSH1 0x20 DUP4 ADD DUP12 PUSH2 0xD98 JUMP JUMPDEST PUSH2 0xEB1 PUSH1 0x40 DUP4 ADD DUP11 PUSH2 0xD98 JUMP JUMPDEST PUSH2 0xEBE PUSH1 0x60 DUP4 ADD DUP10 PUSH2 0xD98 JUMP JUMPDEST PUSH2 0xECB PUSH1 0x80 DUP4 ADD DUP9 PUSH2 0xDD9 JUMP JUMPDEST DUP2 DUP2 SUB PUSH1 0xA0 DUP4 ADD MSTORE PUSH2 0xEDD DUP2 DUP8 PUSH2 0xE48 JUMP JUMPDEST SWAP1 POP DUP2 DUP2 SUB PUSH1 0xC0 DUP4 ADD MSTORE PUSH2 0xEF1 DUP2 DUP7 PUSH2 0xE48 JUMP JUMPDEST SWAP1 POP PUSH2 0xF00 PUSH1 0xE0 DUP4 ADD DUP6 PUSH2 0xD98 JUMP JUMPDEST DUP2 DUP2 SUB PUSH2 0x100 DUP4 ADD MSTORE PUSH2 0xF13 DUP2 DUP5 PUSH2 0xE48 JUMP JUMPDEST SWAP1 POP SWAP11 SWAP10 POP POP POP POP POP POP POP POP POP POP JUMP JUMPDEST PUSH1 0x0 PUSH1 0x20 DUP3 ADD SWAP1 POP PUSH2 0xF38 PUSH1 0x0 DUP4 ADD DUP5 PUSH2 0xDD9 JUMP JUMPDEST SWAP3 SWAP2 POP POP JUMP JUMPDEST PUSH2 0xF47 DUP2 PUSH2 0xDC7 JUMP JUMPDEST DUP2 EQ PUSH2 0xF52 JUMPI PUSH1 0x0 DUP1 REVERT JUMPDEST POP JUMP JUMPDEST PUSH1 0x0 DUP2 CALLDATALOAD SWAP1 POP PUSH2 0xF64 DUP2 PUSH2 0xF3E JUMP JUMPDEST SWAP3 SWAP2 POP POP JUMP JUMPDEST PUSH1 0x0 PUSH1 0x20 DUP3 DUP5 SUB SLT ISZERO PUSH2 0xF80 JUMPI PUSH2 0xF7F PUSH2 0xD2B JUMP JUMPDEST JUMPDEST PUSH1 0x0 PUSH2 0xF8E DUP5 DUP3 DUP6 ADD PUSH2 0xF55 JUMP JUMPDEST SWAP2 POP POP SWAP3 SWAP2 POP POP JUMP JUMPDEST PUSH1 0x0 DUP2 ISZERO ISZERO SWAP1 POP SWAP2 SWAP1 POP JUMP JUMPDEST PUSH2 0xFAC DUP2 PUSH2 0xF97 JUMP JUMPDEST DUP3 MSTORE POP POP JUMP JUMPDEST PUSH1 0x0 PUSH1 0x20 DUP3 ADD SWAP1 POP PUSH2 0xFC7 PUSH1 0x0 DUP4 ADD DUP5 PUSH2 0xFA3 JUMP JUMPDEST SWAP3 SWAP2 POP POP JUMP JUMPDEST PUSH1 0x0 PUSH1 0x20 DUP3 ADD SWAP1 POP PUSH2 0xFE2 PUSH1 0x0 DUP4 ADD DUP5 PUSH2 0xD98 JUMP JUMPDEST SWAP3 SWAP2 POP POP JUMP JUMPDEST PUSH1 0x0 PUSH2 0xFF3 DUP3 PUSH2 0xDA7 JUMP JUMPDEST SWAP1 POP SWAP2 SWAP1 POP JUMP JUMPDEST PUSH2 0x1003 DUP2 PUSH2 0xFE8 JUMP JUMPDEST DUP3 MSTORE POP POP JUMP JUMPDEST PUSH1 0x0 PUSH1 0xA0 DUP3 ADD SWAP1 POP DUP2 DUP2 SUB PUSH1 0x0 DUP4 ADD MSTORE PUSH2 0x1023 DUP2 DUP9 PUSH2 0xE48 JUMP JUMPDEST SWAP1 POP PUSH2 0x1032 PUSH1 0x20 DUP4 ADD DUP8 PUSH2 0xD98 JUMP JUMPDEST PUSH2 0x103F PUSH1 0x40 DUP4 ADD DUP7 PUSH2 0xFFA JUMP JUMPDEST PUSH2 0x104C PUSH1 0x60 DUP4 ADD DUP6 PUSH2 0xFA3 JUMP JUMPDEST PUSH2 0x1059 PUSH1 0x80 DUP4 ADD DUP5 PUSH2 0xD98 JUMP JUMPDEST SWAP7 SWAP6 POP POP POP POP POP POP JUMP JUMPDEST PUSH1 0x0 DUP1 REVERT JUMPDEST PUSH1 0x0 DUP1 REVERT JUMPDEST PUSH32 0x4E487B7100000000000000000000000000000000000000000000000000000000 PUSH1 0x0 MSTORE PUSH1 0x41 PUSH1 0x4 MSTORE PUSH1 0x24 PUSH1 0x0 REVERT JUMPDEST PUSH2 0x10A5 DUP3 PUSH2 0xE37 JUMP JUMPDEST DUP2 ADD DUP2 DUP2 LT PUSH8 0xFFFFFFFFFFFFFFFF DUP3 GT OR ISZERO PUSH2 0x10C4 JUMPI PUSH2 0x10C3 PUSH2 0x106D JUMP JUMPDEST JUMPDEST DUP1 PUSH1 0x40 MSTORE POP POP POP JUMP JUMPDEST PUSH1 0x0 PUSH2 0x10D7 PUSH2 0xD21 JUMP JUMPDEST SWAP1 POP PUSH2 0x10E3 DUP3 DUP3 PUSH2 0x109C JUMP JUMPDEST SWAP2 SWAP1 POP JUMP JUMPDEST PUSH1 0x0 PUSH8 0xFFFFFFFFFFFFFFFF DUP3 GT ISZERO PUSH2 0x1103 JUMPI PUSH2 0x1102 PUSH2 0x106D JUMP JUMPDEST JUMPDEST PUSH2 0x110C DUP3 PUSH2 0xE37 JUMP JUMPDEST SWAP1 POP PUSH1 0x20 DUP2 ADD SWAP1 POP SWAP2 SWAP1 POP JUMP JUMPDEST DUP3 DUP2 DUP4 CALLDATACOPY PUSH1 0x0 DUP4 DUP4 ADD MSTORE POP POP POP JUMP JUMPDEST PUSH1 0x0 PUSH2 0x113B PUSH2 0x1136 DUP5 PUSH2 0x10E8 JUMP JUMPDEST PUSH2 0x10CD JUMP JUMPDEST SWAP1 POP DUP3 DUP2 MSTORE PUSH1 0x20 DUP2 ADD DUP5 DUP5 DUP5 ADD GT ISZERO PUSH2 0x1157 JUMPI PUSH2 0x1156 PUSH2 0x1068 JUMP JUMPDEST JUMPDEST PUSH2 0x1162 DUP5 DUP3 DUP6 PUSH2 0x1119 JUMP JUMPDEST POP SWAP4 SWAP3 POP POP POP JUMP JUMPDEST PUSH1 0x0 DUP3 PUSH1 0x1F DUP4 ADD SLT PUSH2 0x117F JUMPI PUSH2 0x117E PUSH2 0x1063 JUMP JUMPDEST JUMPDEST DUP2 CALLDATALOAD PUSH2 0x118F DUP5 DUP3 PUSH1 0x20 DUP7 ADD PUSH2 0x1128 JUMP JUMPDEST SWAP2 POP POP SWAP3 SWAP2 POP POP JUMP JUMPDEST PUSH2 0x11A1 DUP2 PUSH2 0xFE8 JUMP JUMPDEST DUP2 EQ PUSH2 0x11AC JUMPI PUSH1 0x0 DUP1 REVERT JUMPDEST POP JUMP JUMPDEST PUSH1 0x0 DUP2 CALLDATALOAD SWAP1 POP PUSH2 0x11BE DUP2 PUSH2 0x1198 JUMP JUMPDEST SWAP3 SWAP2 POP POP JUMP JUMPDEST PUSH1 0x0 DUP1 PUSH1 0x0 PUSH1 0x60 DUP5 DUP7 SUB SLT ISZERO PUSH2 0x11DD JUMPI PUSH2 0x11DC PUSH2 0xD2B JUMP JUMPDEST JUMPDEST PUSH1 0x0 DUP5 ADD CALLDATALOAD PUSH8 0xFFFFFFFFFFFFFFFF DUP2 GT ISZERO PUSH2 0x11FB JUMPI PUSH2 0x11FA PUSH2 0xD30 JUMP JUMPDEST JUMPDEST PUSH2 0x1207 DUP7 DUP3 DUP8 ADD PUSH2 0x116A JUMP JUMPDEST SWAP4 POP POP PUSH1 0x20 PUSH2 0x1218 DUP7 DUP3 DUP8 ADD PUSH2 0xD56 JUMP JUMPDEST SWAP3 POP POP PUSH1 0x40 PUSH2 0x1229 DUP7 DUP3 DUP8 ADD PUSH2 0x11AF JUMP JUMPDEST SWAP2 POP POP SWAP3 POP SWAP3 POP SWAP3 JUMP JUMPDEST PUSH1 0x0 PUSH1 0x20 DUP3 ADD SWAP1 POP DUP2 DUP2 SUB PUSH1 0x0 DUP4 ADD MSTORE PUSH2 0x124D DUP2 DUP5 PUSH2 0xE48 JUMP JUMPDEST SWAP1 POP SWAP3 SWAP2 POP POP JUMP JUMPDEST PUSH32 0x4E487B7100000000000000000000000000000000000000000000000000000000 PUSH1 0x0 MSTORE PUSH1 0x12 PUSH1 0x4 MSTORE PUSH1 0x24 PUSH1 0x0 REVERT JUMPDEST PUSH32 0x4E487B7100000000000000000000000000000000000000000000000000000000 PUSH1 0x0 MSTORE PUSH1 0x11 PUSH1 0x4 MSTORE PUSH1 0x24 PUSH1 0x0 REVERT JUMPDEST PUSH1 0x0 PUSH2 0x12BE DUP3 PUSH2 0xD35 JUMP JUMPDEST SWAP2 POP PUSH2 0x12C9 DUP4 PUSH2 0xD35 JUMP JUMPDEST SWAP3 POP DUP3 PUSH2 0x12D9 JUMPI PUSH2 0x12D8 PUSH2 0x1255 JUMP JUMPDEST JUMPDEST DUP3 DUP3 DIV SWAP1 POP SWAP3 SWAP2 POP POP JUMP JUMPDEST PUSH32 0x4E487B7100000000000000000000000000000000000000000000000000000000 PUSH1 0x0 MSTORE PUSH1 0x22 PUSH1 0x4 MSTORE PUSH1 0x24 PUSH1 0x0 REVERT JUMPDEST PUSH1 0x0 PUSH1 0x2 DUP3 DIV SWAP1 POP PUSH1 0x1 DUP3 AND DUP1 PUSH2 0x132B JUMPI PUSH1 0x7F DUP3 AND SWAP2 POP JUMPDEST PUSH1 0x20 DUP3 LT DUP2 EQ ISZERO PUSH2 0x133F JUMPI PUSH2 0x133E PUSH2 0x12E4 JUMP JUMPDEST JUMPDEST POP SWAP2 SWAP1 POP JUMP JUMPDEST PUSH1 0x0 PUSH2 0x1350 DUP3 PUSH2 0xD35 JUMP JUMPDEST SWAP2 POP PUSH32 0xFFFFFFFFFFFFFFFFFFFFFFFFFFFFFFFFFFFFFFFFFFFFFFFFFFFFFFFFFFFFFFFF DUP3 EQ ISZERO PUSH2 0x1383 JUMPI PUSH2 0x1382 PUSH2 0x1284 JUMP JUMPDEST JUMPDEST PUSH1 0x1 DUP3 ADD SWAP1 POP SWAP2 SWAP1 POP JUMP INVALID LOG2 PUSH5 0x6970667358 0x22 SLT KECCAK256 0xE1 PUSH9 0x23954E6E83B7DC87D6 PUSH22 0xAE4EB20FC9A649E15BDC4694D88B8EEE31CD2FD26473 PUSH16 0x6C634300080900330000000000000000 "},"gasEstimates":{"creation":{"codeDepositCost":"1012000","executionCost":"infinite","totalCost":"infinite"},"external":{"approveRequest(uint256)":"infinite","contribute()":"51002","createRequest(string,uint256,address)":"infinite","finalizeRequest(uint256)":"infinite","financialAim()":"2474","getSummary()":"infinite","imageURL()":"infinite","manager()":"2579","minimumContribution()":"2452","numRequests()":"2496","projectAim()":"infinite","projectName()":"infinite","requests(uint256)":"infinite","supporters(address)":"2868","supportersCount()":"2517"}},"methodIdentifiers":{"approveRequest(uint256)":"d7d1bbdb","contribute()":"d7bb99ba","createRequest(string,uint256,address)":"8a9cfd55","finalizeRequest(uint256)":"03441006","financialAim()":"70035047","getSummary()":"4051ddac","imageURL()":"b90497e0","manager()":"481c6a75","minimumContribution()":"937e09b1","numRequests()":"9fb42b1f","projectAim()":"d3087b57","projectName()":"9a33e300","requests(uint256)":"81d12c58","supporters(address)":"647c75e2","supportersCount()":"eb7b1312"}},"storageLayout":{"storage":[{"astId":53,"contract":"Campaign.sol:Campaign","label":"manager","offset":0,"slot":"0","type":"t_address"},{"astId":55,"contract":"Campaign.sol:Campaign","label":"projectName","offset":0,"slot":"1","type":"t_string_storage"},{"astId":57,"contract":"Campaign.sol:Campaign","label":"projectAim","offset":0,"slot":"2","type":"t_string_storage"},{"astId":59,"contract":"Campaign.sol:Campaign","label":"imageURL","offset":0,"slot":"3","type":"t_string_storage"},{"astId":61,"contract":"Campaign.sol:Campaign","label":"financialAim","offset":0,"slot":"4","type":"t_uint256"},{"astId":63,"contract":"Campaign.sol:Campaign","label":"minimumContribution","offset":0,"slot":"5","type":"t_uint256"},{"astId":67,"contract":"Campaign.sol:Campaign","label":"supporters","offset":0,"slot":"6","type":"t_mapping(t_address,t_bool)"},{"astId":69,"contract":"Campaign.sol:Campaign","label":"supportersCount","offset":0,"slot":"7","type":"t_uint256"},{"astId":86,"contract":"Campaign.sol:Campaign","label":"numRequests","offset":0,"slot":"8","type":"t_uint256"},{"astId":91,"contract":"Campaign.sol:Campaign","label":"requests","offset":0,"slot":"9","type":"t_mapping(t_uint256,t_struct(Request)84_storage)"}],"types":{"t_address":{"encoding":"inplace","label":"address","numberOfBytes":"20"},"t_address_payable":{"encoding":"inplace","label":"address payable","numberOfBytes":"20"},"t_bool":{"encoding":"inplace","label":"bool","numberOfBytes":"1"},"t_mapping(t_address,t_bool)":{"encoding":"mapping","key":"t_address","label":"mapping(address => bool)","numberOfBytes":"32","value":"t_bool"},"t_mapping(t_uint256,t_struct(Request)84_storage)":{"encoding":"mapping","key":"t_uint256","label":"mapping(uint256 => struct Campaign.Request)","numberOfBytes":"32","value":"t_struct(Request)84_storage"},"t_string_storage":{"encoding":"bytes","label":"string","numberOfBytes":"32"},"t_struct(Request)84_storage":{"encoding":"inplace","label":"struct Campaign.Request","members":[{"astId":71,"contract":"Campaign.sol:Campaign","label":"description","offset":0,"slot":"0","type":"t_string_storage"},{"astId":73,"contract":"Campaign.sol:Campaign","label":"value","offset":0,"slot":"1","type":"t_uint256"},{"astId":75,"contract":"Campaign.sol:Campaign","label":"recipient","offset":0,"slot":"2","type":"t_address_payable"},{"astId":77,"contract":"Campaign.sol:Campaign","label":"complete","offset":20,"slot":"2","type":"t_bool"},{"astId":79,"contract":"Campaign.sol:Campaign","label":"approvalCount","offset":0,"slot":"3","type":"t_uint256"},{"astId":83,"contract":"Campaign.sol:Campaign","label":"approvals","offset":0,"slot":"4","type":"t_mapping(t_address,t_bool)"}],"numberOfBytes":"160"},"t_uint256":{"encoding":"inplace","label":"uint256","numberOfBytes":"32"}}},"userdoc":{"kind":"user","methods":{},"version":1}}