{"abi":[{"inputs":[{"internalType":"uint256","name":"minimum","type":"uint256"},{"internalType":"address","name":"creator","type":"address"},{"internalType":"string","name":"pName","type":"string"},{"internalType":"string","name":"pAim","type":"string"},{"internalType":"string","name":"imagePath","type":"string"},{"internalType":"uint256","name":"financialGoal","type":"uint256"}],"stateMutability":"nonpayable","type":"constructor"},{"inputs":[{"internalType":"uint256","name":"index","type":"uint256"}],"name":"approveRequest","outputs":[],"stateMutability":"nonpayable","type":"function"},{"inputs":[],"name":"contribute","outputs":[],"stateMutability":"payable","type":"function"},{"inputs":[{"internalType":"string","name":"description","type":"string"},{"internalType":"uint256","name":"value","type":"uint256"},{"internalType":"address payable","name":"recipient","type":"address"}],"name":"createRequest","outputs":[],"stateMutability":"nonpayable","type":"function"},{"inputs":[],"name":"deleteCampaign","outputs":[],"stateMutability":"payable","type":"function"},{"inputs":[{"internalType":"uint256","name":"index","type":"uint256"}],"name":"finalizeRequest","outputs":[],"stateMutability":"nonpayable","type":"function"},{"inputs":[],"name":"financialAim","outputs":[{"internalType":"uint256","name":"","type":"uint256"}],"stateMutability":"view","type":"function"},{"inputs":[],"name":"getSummary","outputs":[{"internalType":"uint256","name":"","type":"uint256"},{"internalType":"uint256","name":"","type":"uint256"},{"internalType":"uint256","name":"","type":"uint256"},{"internalType":"uint256","name":"","type":"uint256"},{"internalType":"address","name":"","type":"address"},{"internalType":"string","name":"","type":"string"},{"internalType":"string","name":"","type":"string"},{"internalType":"uint256","name":"","type":"uint256"},{"internalType":"string","name":"","type":"string"}],"stateMutability":"view","type":"function"},{"inputs":[],"name":"imageURL","outputs":[{"internalType":"string","name":"","type":"string"}],"stateMutability":"view","type":"function"},{"inputs":[],"name":"manager","outputs":[{"internalType":"address","name":"","type":"address"}],"stateMutability":"view","type":"function"},{"inputs":[],"name":"minimumContribution","outputs":[{"internalType":"uint256","name":"","type":"uint256"}],"stateMutability":"view","type":"function"},{"inputs":[],"name":"numRequests","outputs":[{"internalType":"uint256","name":"","type":"uint256"}],"stateMutability":"view","type":"function"},{"inputs":[],"name":"projectAim","outputs":[{"internalType":"string","name":"","type":"string"}],"stateMutability":"view","type":"function"},{"inputs":[],"name":"projectName","outputs":[{"internalType":"string","name":"","type":"string"}],"stateMutability":"view","type":"function"},{"inputs":[{"internalType":"uint256","name":"","type":"uint256"}],"name":"requests","outputs":[{"internalType":"string","name":"description","type":"string"},{"internalType":"uint256","name":"value","type":"uint256"},{"internalType":"address payable","name":"recipient","type":"address"},{"internalType":"bool","name":"complete","type":"bool"},{"internalType":"uint256","name":"approvalCount","type":"uint256"}],"stateMutability":"view","type":"function"},{"inputs":[{"internalType":"address","name":"","type":"address"}],"name":"supporterContributionValues","outputs":[{"internalType":"uint256","name":"","type":"uint256"}],"stateMutability":"view","type":"function"},{"inputs":[{"internalType":"address","name":"","type":"address"}],"name":"supporters","outputs":[{"internalType":"bool","name":"","type":"bool"}],"stateMutability":"view","type":"function"},{"inputs":[{"internalType":"uint256","name":"","type":"uint256"}],"name":"supportersAddresses","outputs":[{"internalType":"address payable","name":"","type":"address"}],"stateMutability":"view","type":"function"},{"inputs":[],"name":"supportersCount","outputs":[{"internalType":"uint256","name":"","type":"uint256"}],"stateMutability":"view","type":"function"}],"devdoc":{"kind":"dev","methods":{},"version":1},"evm":{"assembly":"    /* \"Campaign.sol\":1070:4148  contract Campaign {... */\n  mstore(0x40, 0x80)\n    /* \"Campaign.sol\":1759:2085  constructor(uint minimum, address creator, string memory pName, string memory pAim, string memory imagePath, uint financialGoal) {... */\n  callvalue\n  dup1\n  iszero\n  tag_1\n  jumpi\n  0x00\n  dup1\n  revert\ntag_1:\n  pop\n  mload(0x40)\n  sub(codesize, bytecodeSize)\n  dup1\n  bytecodeSize\n  dup4\n  codecopy\n  dup2\n  dup2\n  add\n  0x40\n  mstore\n  dup2\n  add\n  swap1\n  tag_2\n  swap2\n  swap1\n  tag_3\n  jump\t// in\ntag_2:\n    /* \"Campaign.sol\":1908:1915  creator */\n  dup5\n    /* \"Campaign.sol\":1898:1905  manager */\n  0x00\n  dup1\n    /* \"Campaign.sol\":1898:1915  manager = creator */\n  0x0100\n  exp\n  dup2\n  sload\n  dup2\n  0xffffffffffffffffffffffffffffffffffffffff\n  mul\n  not\n  and\n  swap1\n  dup4\n  0xffffffffffffffffffffffffffffffffffffffff\n  and\n  mul\n  or\n  swap1\n  sstore\n  pop\n    /* \"Campaign.sol\":1947:1954  minimum */\n  dup6\n    /* \"Campaign.sol\":1925:1944  minimumContribution */\n  0x05\n    /* \"Campaign.sol\":1925:1954  minimumContribution = minimum */\n  dup2\n  swap1\n  sstore\n  pop\n    /* \"Campaign.sol\":1978:1983  pName */\n  dup4\n    /* \"Campaign.sol\":1964:1975  projectName */\n  0x01\n    /* \"Campaign.sol\":1964:1983  projectName = pName */\n  swap1\n  dup1\n  mload\n  swap1\n  0x20\n  add\n  swap1\n  tag_6\n  swap3\n  swap2\n  swap1\n  tag_7\n  jump\t// in\ntag_6:\n  pop\n    /* \"Campaign.sol\":2006:2010  pAim */\n  dup3\n    /* \"Campaign.sol\":1993:2003  projectAim */\n  0x02\n    /* \"Campaign.sol\":1993:2010  projectAim = pAim */\n  swap1\n  dup1\n  mload\n  swap1\n  0x20\n  add\n  swap1\n  tag_8\n  swap3\n  swap2\n  swap1\n  tag_7\n  jump\t// in\ntag_8:\n  pop\n    /* \"Campaign.sol\":2035:2048  financialGoal */\n  dup1\n    /* \"Campaign.sol\":2020:2032  financialAim */\n  0x04\n    /* \"Campaign.sol\":2020:2048  financialAim = financialGoal */\n  dup2\n  swap1\n  sstore\n  pop\n    /* \"Campaign.sol\":2069:2078  imagePath */\n  dup2\n    /* \"Campaign.sol\":2058:2066  imageURL */\n  0x03\n    /* \"Campaign.sol\":2058:2078  imageURL = imagePath */\n  swap1\n  dup1\n  mload\n  swap1\n  0x20\n  add\n  swap1\n  tag_9\n  swap3\n  swap2\n  swap1\n  tag_7\n  jump\t// in\ntag_9:\n  pop\n    /* \"Campaign.sol\":1759:2085  constructor(uint minimum, address creator, string memory pName, string memory pAim, string memory imagePath, uint financialGoal) {... */\n  pop\n  pop\n  pop\n  pop\n  pop\n  pop\n    /* \"Campaign.sol\":1070:4148  contract Campaign {... */\n  jump(tag_10)\ntag_7:\n  dup3\n  dup1\n  sload\n  tag_11\n  swap1\n  tag_12\n  jump\t// in\ntag_11:\n  swap1\n  0x00\n  mstore\n  keccak256(0x00, 0x20)\n  swap1\n  0x1f\n  add\n  0x20\n  swap1\n  div\n  dup2\n  add\n  swap3\n  dup3\n  tag_14\n  jumpi\n  0x00\n  dup6\n  sstore\n  jump(tag_13)\ntag_14:\n  dup3\n  0x1f\n  lt\n  tag_15\n  jumpi\n  dup1\n  mload\n  not(0xff)\n  and\n  dup4\n  dup1\n  add\n  or\n  dup6\n  sstore\n  jump(tag_13)\ntag_15:\n  dup3\n  dup1\n  add\n  0x01\n  add\n  dup6\n  sstore\n  dup3\n  iszero\n  tag_13\n  jumpi\n  swap2\n  dup3\n  add\ntag_16:\n  dup3\n  dup2\n  gt\n  iszero\n  tag_17\n  jumpi\n  dup3\n  mload\n  dup3\n  sstore\n  swap2\n  0x20\n  add\n  swap2\n  swap1\n  0x01\n  add\n  swap1\n  jump(tag_16)\ntag_17:\ntag_13:\n  pop\n  swap1\n  pop\n  tag_18\n  swap2\n  swap1\n  tag_19\n  jump\t// in\ntag_18:\n  pop\n  swap1\n  jump\t// out\ntag_19:\ntag_20:\n  dup1\n  dup3\n  gt\n  iszero\n  tag_21\n  jumpi\n  0x00\n  dup2\n  0x00\n  swap1\n  sstore\n  pop\n  0x01\n  add\n  jump(tag_20)\ntag_21:\n  pop\n  swap1\n  jump\t// out\n    /* \"#utility.yul\":7:82   */\ntag_22:\n    /* \"#utility.yul\":40:46   */\n  0x00\n    /* \"#utility.yul\":73:75   */\n  0x40\n    /* \"#utility.yul\":67:76   */\n  mload\n    /* \"#utility.yul\":57:76   */\n  swap1\n  pop\n    /* \"#utility.yul\":7:82   */\n  swap1\n  jump\t// out\n    /* \"#utility.yul\":88:205   */\ntag_23:\n    /* \"#utility.yul\":197:198   */\n  0x00\n    /* \"#utility.yul\":194:195   */\n  dup1\n    /* \"#utility.yul\":187:199   */\n  revert\n    /* \"#utility.yul\":211:328   */\ntag_24:\n    /* \"#utility.yul\":320:321   */\n  0x00\n    /* \"#utility.yul\":317:318   */\n  dup1\n    /* \"#utility.yul\":310:322   */\n  revert\n    /* \"#utility.yul\":334:411   */\ntag_25:\n    /* \"#utility.yul\":371:378   */\n  0x00\n    /* \"#utility.yul\":400:405   */\n  dup2\n    /* \"#utility.yul\":389:405   */\n  swap1\n  pop\n    /* \"#utility.yul\":334:411   */\n  swap2\n  swap1\n  pop\n  jump\t// out\n    /* \"#utility.yul\":417:539   */\ntag_26:\n    /* \"#utility.yul\":490:514   */\n  tag_49\n    /* \"#utility.yul\":508:513   */\n  dup2\n    /* \"#utility.yul\":490:514   */\n  tag_25\n  jump\t// in\ntag_49:\n    /* \"#utility.yul\":483:488   */\n  dup2\n    /* \"#utility.yul\":480:515   */\n  eq\n    /* \"#utility.yul\":470:533   */\n  tag_50\n  jumpi\n    /* \"#utility.yul\":529:530   */\n  0x00\n    /* \"#utility.yul\":526:527   */\n  dup1\n    /* \"#utility.yul\":519:531   */\n  revert\n    /* \"#utility.yul\":470:533   */\ntag_50:\n    /* \"#utility.yul\":417:539   */\n  pop\n  jump\t// out\n    /* \"#utility.yul\":545:688   */\ntag_27:\n    /* \"#utility.yul\":602:607   */\n  0x00\n    /* \"#utility.yul\":633:639   */\n  dup2\n    /* \"#utility.yul\":627:640   */\n  mload\n    /* \"#utility.yul\":618:640   */\n  swap1\n  pop\n    /* \"#utility.yul\":649:682   */\n  tag_52\n    /* \"#utility.yul\":676:681   */\n  dup2\n    /* \"#utility.yul\":649:682   */\n  tag_26\n  jump\t// in\ntag_52:\n    /* \"#utility.yul\":545:688   */\n  swap3\n  swap2\n  pop\n  pop\n  jump\t// out\n    /* \"#utility.yul\":694:820   */\ntag_28:\n    /* \"#utility.yul\":731:738   */\n  0x00\n    /* \"#utility.yul\":771:813   */\n  0xffffffffffffffffffffffffffffffffffffffff\n    /* \"#utility.yul\":764:769   */\n  dup3\n    /* \"#utility.yul\":760:814   */\n  and\n    /* \"#utility.yul\":749:814   */\n  swap1\n  pop\n    /* \"#utility.yul\":694:820   */\n  swap2\n  swap1\n  pop\n  jump\t// out\n    /* \"#utility.yul\":826:922   */\ntag_29:\n    /* \"#utility.yul\":863:870   */\n  0x00\n    /* \"#utility.yul\":892:916   */\n  tag_55\n    /* \"#utility.yul\":910:915   */\n  dup3\n    /* \"#utility.yul\":892:916   */\n  tag_28\n  jump\t// in\ntag_55:\n    /* \"#utility.yul\":881:916   */\n  swap1\n  pop\n    /* \"#utility.yul\":826:922   */\n  swap2\n  swap1\n  pop\n  jump\t// out\n    /* \"#utility.yul\":928:1050   */\ntag_30:\n    /* \"#utility.yul\":1001:1025   */\n  tag_57\n    /* \"#utility.yul\":1019:1024   */\n  dup2\n    /* \"#utility.yul\":1001:1025   */\n  tag_29\n  jump\t// in\ntag_57:\n    /* \"#utility.yul\":994:999   */\n  dup2\n    /* \"#utility.yul\":991:1026   */\n  eq\n    /* \"#utility.yul\":981:1044   */\n  tag_58\n  jumpi\n    /* \"#utility.yul\":1040:1041   */\n  0x00\n    /* \"#utility.yul\":1037:1038   */\n  dup1\n    /* \"#utility.yul\":1030:1042   */\n  revert\n    /* \"#utility.yul\":981:1044   */\ntag_58:\n    /* \"#utility.yul\":928:1050   */\n  pop\n  jump\t// out\n    /* \"#utility.yul\":1056:1199   */\ntag_31:\n    /* \"#utility.yul\":1113:1118   */\n  0x00\n    /* \"#utility.yul\":1144:1150   */\n  dup2\n    /* \"#utility.yul\":1138:1151   */\n  mload\n    /* \"#utility.yul\":1129:1151   */\n  swap1\n  pop\n    /* \"#utility.yul\":1160:1193   */\n  tag_60\n    /* \"#utility.yul\":1187:1192   */\n  dup2\n    /* \"#utility.yul\":1160:1193   */\n  tag_30\n  jump\t// in\ntag_60:\n    /* \"#utility.yul\":1056:1199   */\n  swap3\n  swap2\n  pop\n  pop\n  jump\t// out\n    /* \"#utility.yul\":1205:1322   */\ntag_32:\n    /* \"#utility.yul\":1314:1315   */\n  0x00\n    /* \"#utility.yul\":1311:1312   */\n  dup1\n    /* \"#utility.yul\":1304:1316   */\n  revert\n    /* \"#utility.yul\":1328:1445   */\ntag_33:\n    /* \"#utility.yul\":1437:1438   */\n  0x00\n    /* \"#utility.yul\":1434:1435   */\n  dup1\n    /* \"#utility.yul\":1427:1439   */\n  revert\n    /* \"#utility.yul\":1451:1553   */\ntag_34:\n    /* \"#utility.yul\":1492:1498   */\n  0x00\n    /* \"#utility.yul\":1543:1545   */\n  0x1f\n    /* \"#utility.yul\":1539:1546   */\n  not\n    /* \"#utility.yul\":1534:1536   */\n  0x1f\n    /* \"#utility.yul\":1527:1532   */\n  dup4\n    /* \"#utility.yul\":1523:1537   */\n  add\n    /* \"#utility.yul\":1519:1547   */\n  and\n    /* \"#utility.yul\":1509:1547   */\n  swap1\n  pop\n    /* \"#utility.yul\":1451:1553   */\n  swap2\n  swap1\n  pop\n  jump\t// out\n    /* \"#utility.yul\":1559:1739   */\ntag_35:\n    /* \"#utility.yul\":1607:1684   */\n  0x4e487b7100000000000000000000000000000000000000000000000000000000\n    /* \"#utility.yul\":1604:1605   */\n  0x00\n    /* \"#utility.yul\":1597:1685   */\n  mstore\n    /* \"#utility.yul\":1704:1708   */\n  0x41\n    /* \"#utility.yul\":1701:1702   */\n  0x04\n    /* \"#utility.yul\":1694:1709   */\n  mstore\n    /* \"#utility.yul\":1728:1732   */\n  0x24\n    /* \"#utility.yul\":1725:1726   */\n  0x00\n    /* \"#utility.yul\":1718:1733   */\n  revert\n    /* \"#utility.yul\":1745:2026   */\ntag_36:\n    /* \"#utility.yul\":1828:1855   */\n  tag_66\n    /* \"#utility.yul\":1850:1854   */\n  dup3\n    /* \"#utility.yul\":1828:1855   */\n  tag_34\n  jump\t// in\ntag_66:\n    /* \"#utility.yul\":1820:1826   */\n  dup2\n    /* \"#utility.yul\":1816:1856   */\n  add\n    /* \"#utility.yul\":1958:1964   */\n  dup2\n    /* \"#utility.yul\":1946:1956   */\n  dup2\n    /* \"#utility.yul\":1943:1965   */\n  lt\n    /* \"#utility.yul\":1922:1940   */\n  0xffffffffffffffff\n    /* \"#utility.yul\":1910:1920   */\n  dup3\n    /* \"#utility.yul\":1907:1941   */\n  gt\n    /* \"#utility.yul\":1904:1966   */\n  or\n    /* \"#utility.yul\":1901:1989   */\n  iszero\n  tag_67\n  jumpi\n    /* \"#utility.yul\":1969:1987   */\n  tag_68\n  tag_35\n  jump\t// in\ntag_68:\n    /* \"#utility.yul\":1901:1989   */\ntag_67:\n    /* \"#utility.yul\":2009:2019   */\n  dup1\n    /* \"#utility.yul\":2005:2007   */\n  0x40\n    /* \"#utility.yul\":1998:2020   */\n  mstore\n    /* \"#utility.yul\":1788:2026   */\n  pop\n    /* \"#utility.yul\":1745:2026   */\n  pop\n  pop\n  jump\t// out\n    /* \"#utility.yul\":2032:2161   */\ntag_37:\n    /* \"#utility.yul\":2066:2072   */\n  0x00\n    /* \"#utility.yul\":2093:2113   */\n  tag_70\n  tag_22\n  jump\t// in\ntag_70:\n    /* \"#utility.yul\":2083:2113   */\n  swap1\n  pop\n    /* \"#utility.yul\":2122:2155   */\n  tag_71\n    /* \"#utility.yul\":2150:2154   */\n  dup3\n    /* \"#utility.yul\":2142:2148   */\n  dup3\n    /* \"#utility.yul\":2122:2155   */\n  tag_36\n  jump\t// in\ntag_71:\n    /* \"#utility.yul\":2032:2161   */\n  swap2\n  swap1\n  pop\n  jump\t// out\n    /* \"#utility.yul\":2167:2475   */\ntag_38:\n    /* \"#utility.yul\":2229:2233   */\n  0x00\n    /* \"#utility.yul\":2319:2337   */\n  0xffffffffffffffff\n    /* \"#utility.yul\":2311:2317   */\n  dup3\n    /* \"#utility.yul\":2308:2338   */\n  gt\n    /* \"#utility.yul\":2305:2361   */\n  iszero\n  tag_73\n  jumpi\n    /* \"#utility.yul\":2341:2359   */\n  tag_74\n  tag_35\n  jump\t// in\ntag_74:\n    /* \"#utility.yul\":2305:2361   */\ntag_73:\n    /* \"#utility.yul\":2379:2408   */\n  tag_75\n    /* \"#utility.yul\":2401:2407   */\n  dup3\n    /* \"#utility.yul\":2379:2408   */\n  tag_34\n  jump\t// in\ntag_75:\n    /* \"#utility.yul\":2371:2408   */\n  swap1\n  pop\n    /* \"#utility.yul\":2463:2467   */\n  0x20\n    /* \"#utility.yul\":2457:2461   */\n  dup2\n    /* \"#utility.yul\":2453:2468   */\n  add\n    /* \"#utility.yul\":2445:2468   */\n  swap1\n  pop\n    /* \"#utility.yul\":2167:2475   */\n  swap2\n  swap1\n  pop\n  jump\t// out\n    /* \"#utility.yul\":2481:2788   */\ntag_39:\n    /* \"#utility.yul\":2549:2550   */\n  0x00\n    /* \"#utility.yul\":2559:2672   */\ntag_77:\n    /* \"#utility.yul\":2573:2579   */\n  dup4\n    /* \"#utility.yul\":2570:2571   */\n  dup2\n    /* \"#utility.yul\":2567:2580   */\n  lt\n    /* \"#utility.yul\":2559:2672   */\n  iszero\n  tag_79\n  jumpi\n    /* \"#utility.yul\":2658:2659   */\n  dup1\n    /* \"#utility.yul\":2653:2656   */\n  dup3\n    /* \"#utility.yul\":2649:2660   */\n  add\n    /* \"#utility.yul\":2643:2661   */\n  mload\n    /* \"#utility.yul\":2639:2640   */\n  dup2\n    /* \"#utility.yul\":2634:2637   */\n  dup5\n    /* \"#utility.yul\":2630:2641   */\n  add\n    /* \"#utility.yul\":2623:2662   */\n  mstore\n    /* \"#utility.yul\":2595:2597   */\n  0x20\n    /* \"#utility.yul\":2592:2593   */\n  dup2\n    /* \"#utility.yul\":2588:2598   */\n  add\n    /* \"#utility.yul\":2583:2598   */\n  swap1\n  pop\n    /* \"#utility.yul\":2559:2672   */\n  jump(tag_77)\ntag_79:\n    /* \"#utility.yul\":2690:2696   */\n  dup4\n    /* \"#utility.yul\":2687:2688   */\n  dup2\n    /* \"#utility.yul\":2684:2697   */\n  gt\n    /* \"#utility.yul\":2681:2782   */\n  iszero\n  tag_80\n  jumpi\n    /* \"#utility.yul\":2770:2771   */\n  0x00\n    /* \"#utility.yul\":2761:2767   */\n  dup5\n    /* \"#utility.yul\":2756:2759   */\n  dup5\n    /* \"#utility.yul\":2752:2768   */\n  add\n    /* \"#utility.yul\":2745:2772   */\n  mstore\n    /* \"#utility.yul\":2681:2782   */\ntag_80:\n    /* \"#utility.yul\":2530:2788   */\n  pop\n    /* \"#utility.yul\":2481:2788   */\n  pop\n  pop\n  pop\n  jump\t// out\n    /* \"#utility.yul\":2794:3215   */\ntag_40:\n    /* \"#utility.yul\":2883:2888   */\n  0x00\n    /* \"#utility.yul\":2908:2974   */\n  tag_82\n    /* \"#utility.yul\":2924:2973   */\n  tag_83\n    /* \"#utility.yul\":2966:2972   */\n  dup5\n    /* \"#utility.yul\":2924:2973   */\n  tag_38\n  jump\t// in\ntag_83:\n    /* \"#utility.yul\":2908:2974   */\n  tag_37\n  jump\t// in\ntag_82:\n    /* \"#utility.yul\":2899:2974   */\n  swap1\n  pop\n    /* \"#utility.yul\":2997:3003   */\n  dup3\n    /* \"#utility.yul\":2990:2995   */\n  dup2\n    /* \"#utility.yul\":2983:3004   */\n  mstore\n    /* \"#utility.yul\":3035:3039   */\n  0x20\n    /* \"#utility.yul\":3028:3033   */\n  dup2\n    /* \"#utility.yul\":3024:3040   */\n  add\n    /* \"#utility.yul\":3073:3076   */\n  dup5\n    /* \"#utility.yul\":3064:3070   */\n  dup5\n    /* \"#utility.yul\":3059:3062   */\n  dup5\n    /* \"#utility.yul\":3055:3071   */\n  add\n    /* \"#utility.yul\":3052:3077   */\n  gt\n    /* \"#utility.yul\":3049:3161   */\n  iszero\n  tag_84\n  jumpi\n    /* \"#utility.yul\":3080:3159   */\n  tag_85\n  tag_33\n  jump\t// in\ntag_85:\n    /* \"#utility.yul\":3049:3161   */\ntag_84:\n    /* \"#utility.yul\":3170:3209   */\n  tag_86\n    /* \"#utility.yul\":3202:3208   */\n  dup5\n    /* \"#utility.yul\":3197:3200   */\n  dup3\n    /* \"#utility.yul\":3192:3195   */\n  dup6\n    /* \"#utility.yul\":3170:3209   */\n  tag_39\n  jump\t// in\ntag_86:\n    /* \"#utility.yul\":2889:3215   */\n  pop\n    /* \"#utility.yul\":2794:3215   */\n  swap4\n  swap3\n  pop\n  pop\n  pop\n  jump\t// out\n    /* \"#utility.yul\":3235:3590   */\ntag_41:\n    /* \"#utility.yul\":3302:3307   */\n  0x00\n    /* \"#utility.yul\":3351:3354   */\n  dup3\n    /* \"#utility.yul\":3344:3348   */\n  0x1f\n    /* \"#utility.yul\":3336:3342   */\n  dup4\n    /* \"#utility.yul\":3332:3349   */\n  add\n    /* \"#utility.yul\":3328:3355   */\n  slt\n    /* \"#utility.yul\":3318:3440   */\n  tag_88\n  jumpi\n    /* \"#utility.yul\":3359:3438   */\n  tag_89\n  tag_32\n  jump\t// in\ntag_89:\n    /* \"#utility.yul\":3318:3440   */\ntag_88:\n    /* \"#utility.yul\":3469:3475   */\n  dup2\n    /* \"#utility.yul\":3463:3476   */\n  mload\n    /* \"#utility.yul\":3494:3584   */\n  tag_90\n    /* \"#utility.yul\":3580:3583   */\n  dup5\n    /* \"#utility.yul\":3572:3578   */\n  dup3\n    /* \"#utility.yul\":3565:3569   */\n  0x20\n    /* \"#utility.yul\":3557:3563   */\n  dup7\n    /* \"#utility.yul\":3553:3570   */\n  add\n    /* \"#utility.yul\":3494:3584   */\n  tag_40\n  jump\t// in\ntag_90:\n    /* \"#utility.yul\":3485:3584   */\n  swap2\n  pop\n    /* \"#utility.yul\":3308:3590   */\n  pop\n    /* \"#utility.yul\":3235:3590   */\n  swap3\n  swap2\n  pop\n  pop\n  jump\t// out\n    /* \"#utility.yul\":3596:5249   */\ntag_3:\n    /* \"#utility.yul\":3741:3747   */\n  0x00\n    /* \"#utility.yul\":3749:3755   */\n  dup1\n    /* \"#utility.yul\":3757:3763   */\n  0x00\n    /* \"#utility.yul\":3765:3771   */\n  dup1\n    /* \"#utility.yul\":3773:3779   */\n  0x00\n    /* \"#utility.yul\":3781:3787   */\n  dup1\n    /* \"#utility.yul\":3830:3833   */\n  0xc0\n    /* \"#utility.yul\":3818:3827   */\n  dup8\n    /* \"#utility.yul\":3809:3816   */\n  dup10\n    /* \"#utility.yul\":3805:3828   */\n  sub\n    /* \"#utility.yul\":3801:3834   */\n  slt\n    /* \"#utility.yul\":3798:3918   */\n  iszero\n  tag_92\n  jumpi\n    /* \"#utility.yul\":3837:3916   */\n  tag_93\n  tag_23\n  jump\t// in\ntag_93:\n    /* \"#utility.yul\":3798:3918   */\ntag_92:\n    /* \"#utility.yul\":3957:3958   */\n  0x00\n    /* \"#utility.yul\":3982:4046   */\n  tag_94\n    /* \"#utility.yul\":4038:4045   */\n  dup10\n    /* \"#utility.yul\":4029:4035   */\n  dup3\n    /* \"#utility.yul\":4018:4027   */\n  dup11\n    /* \"#utility.yul\":4014:4036   */\n  add\n    /* \"#utility.yul\":3982:4046   */\n  tag_27\n  jump\t// in\ntag_94:\n    /* \"#utility.yul\":3972:4046   */\n  swap7\n  pop\n    /* \"#utility.yul\":3928:4056   */\n  pop\n    /* \"#utility.yul\":4095:4097   */\n  0x20\n    /* \"#utility.yul\":4121:4185   */\n  tag_95\n    /* \"#utility.yul\":4177:4184   */\n  dup10\n    /* \"#utility.yul\":4168:4174   */\n  dup3\n    /* \"#utility.yul\":4157:4166   */\n  dup11\n    /* \"#utility.yul\":4153:4175   */\n  add\n    /* \"#utility.yul\":4121:4185   */\n  tag_31\n  jump\t// in\ntag_95:\n    /* \"#utility.yul\":4111:4185   */\n  swap6\n  pop\n    /* \"#utility.yul\":4066:4195   */\n  pop\n    /* \"#utility.yul\":4255:4257   */\n  0x40\n    /* \"#utility.yul\":4244:4253   */\n  dup8\n    /* \"#utility.yul\":4240:4258   */\n  add\n    /* \"#utility.yul\":4234:4259   */\n  mload\n    /* \"#utility.yul\":4286:4304   */\n  0xffffffffffffffff\n    /* \"#utility.yul\":4278:4284   */\n  dup2\n    /* \"#utility.yul\":4275:4305   */\n  gt\n    /* \"#utility.yul\":4272:4389   */\n  iszero\n  tag_96\n  jumpi\n    /* \"#utility.yul\":4308:4387   */\n  tag_97\n  tag_24\n  jump\t// in\ntag_97:\n    /* \"#utility.yul\":4272:4389   */\ntag_96:\n    /* \"#utility.yul\":4413:4487   */\n  tag_98\n    /* \"#utility.yul\":4479:4486   */\n  dup10\n    /* \"#utility.yul\":4470:4476   */\n  dup3\n    /* \"#utility.yul\":4459:4468   */\n  dup11\n    /* \"#utility.yul\":4455:4477   */\n  add\n    /* \"#utility.yul\":4413:4487   */\n  tag_41\n  jump\t// in\ntag_98:\n    /* \"#utility.yul\":4403:4487   */\n  swap5\n  pop\n    /* \"#utility.yul\":4205:4497   */\n  pop\n    /* \"#utility.yul\":4557:4559   */\n  0x60\n    /* \"#utility.yul\":4546:4555   */\n  dup8\n    /* \"#utility.yul\":4542:4560   */\n  add\n    /* \"#utility.yul\":4536:4561   */\n  mload\n    /* \"#utility.yul\":4588:4606   */\n  0xffffffffffffffff\n    /* \"#utility.yul\":4580:4586   */\n  dup2\n    /* \"#utility.yul\":4577:4607   */\n  gt\n    /* \"#utility.yul\":4574:4691   */\n  iszero\n  tag_99\n  jumpi\n    /* \"#utility.yul\":4610:4689   */\n  tag_100\n  tag_24\n  jump\t// in\ntag_100:\n    /* \"#utility.yul\":4574:4691   */\ntag_99:\n    /* \"#utility.yul\":4715:4789   */\n  tag_101\n    /* \"#utility.yul\":4781:4788   */\n  dup10\n    /* \"#utility.yul\":4772:4778   */\n  dup3\n    /* \"#utility.yul\":4761:4770   */\n  dup11\n    /* \"#utility.yul\":4757:4779   */\n  add\n    /* \"#utility.yul\":4715:4789   */\n  tag_41\n  jump\t// in\ntag_101:\n    /* \"#utility.yul\":4705:4789   */\n  swap4\n  pop\n    /* \"#utility.yul\":4507:4799   */\n  pop\n    /* \"#utility.yul\":4859:4862   */\n  0x80\n    /* \"#utility.yul\":4848:4857   */\n  dup8\n    /* \"#utility.yul\":4844:4863   */\n  add\n    /* \"#utility.yul\":4838:4864   */\n  mload\n    /* \"#utility.yul\":4891:4909   */\n  0xffffffffffffffff\n    /* \"#utility.yul\":4883:4889   */\n  dup2\n    /* \"#utility.yul\":4880:4910   */\n  gt\n    /* \"#utility.yul\":4877:4994   */\n  iszero\n  tag_102\n  jumpi\n    /* \"#utility.yul\":4913:4992   */\n  tag_103\n  tag_24\n  jump\t// in\ntag_103:\n    /* \"#utility.yul\":4877:4994   */\ntag_102:\n    /* \"#utility.yul\":5018:5092   */\n  tag_104\n    /* \"#utility.yul\":5084:5091   */\n  dup10\n    /* \"#utility.yul\":5075:5081   */\n  dup3\n    /* \"#utility.yul\":5064:5073   */\n  dup11\n    /* \"#utility.yul\":5060:5082   */\n  add\n    /* \"#utility.yul\":5018:5092   */\n  tag_41\n  jump\t// in\ntag_104:\n    /* \"#utility.yul\":5008:5092   */\n  swap3\n  pop\n    /* \"#utility.yul\":4809:5102   */\n  pop\n    /* \"#utility.yul\":5141:5144   */\n  0xa0\n    /* \"#utility.yul\":5168:5232   */\n  tag_105\n    /* \"#utility.yul\":5224:5231   */\n  dup10\n    /* \"#utility.yul\":5215:5221   */\n  dup3\n    /* \"#utility.yul\":5204:5213   */\n  dup11\n    /* \"#utility.yul\":5200:5222   */\n  add\n    /* \"#utility.yul\":5168:5232   */\n  tag_27\n  jump\t// in\ntag_105:\n    /* \"#utility.yul\":5158:5232   */\n  swap2\n  pop\n    /* \"#utility.yul\":5112:5242   */\n  pop\n    /* \"#utility.yul\":3596:5249   */\n  swap3\n  swap6\n  pop\n  swap3\n  swap6\n  pop\n  swap3\n  swap6\n  jump\t// out\n    /* \"#utility.yul\":5255:5435   */\ntag_42:\n    /* \"#utility.yul\":5303:5380   */\n  0x4e487b7100000000000000000000000000000000000000000000000000000000\n    /* \"#utility.yul\":5300:5301   */\n  0x00\n    /* \"#utility.yul\":5293:5381   */\n  mstore\n    /* \"#utility.yul\":5400:5404   */\n  0x22\n    /* \"#utility.yul\":5397:5398   */\n  0x04\n    /* \"#utility.yul\":5390:5405   */\n  mstore\n    /* \"#utility.yul\":5424:5428   */\n  0x24\n    /* \"#utility.yul\":5421:5422   */\n  0x00\n    /* \"#utility.yul\":5414:5429   */\n  revert\n    /* \"#utility.yul\":5441:5761   */\ntag_12:\n    /* \"#utility.yul\":5485:5491   */\n  0x00\n    /* \"#utility.yul\":5522:5523   */\n  0x02\n    /* \"#utility.yul\":5516:5520   */\n  dup3\n    /* \"#utility.yul\":5512:5524   */\n  div\n    /* \"#utility.yul\":5502:5524   */\n  swap1\n  pop\n    /* \"#utility.yul\":5569:5570   */\n  0x01\n    /* \"#utility.yul\":5563:5567   */\n  dup3\n    /* \"#utility.yul\":5559:5571   */\n  and\n    /* \"#utility.yul\":5590:5608   */\n  dup1\n    /* \"#utility.yul\":5580:5661   */\n  tag_108\n  jumpi\n    /* \"#utility.yul\":5646:5650   */\n  0x7f\n    /* \"#utility.yul\":5638:5644   */\n  dup3\n    /* \"#utility.yul\":5634:5651   */\n  and\n    /* \"#utility.yul\":5624:5651   */\n  swap2\n  pop\n    /* \"#utility.yul\":5580:5661   */\ntag_108:\n    /* \"#utility.yul\":5708:5710   */\n  0x20\n    /* \"#utility.yul\":5700:5706   */\n  dup3\n    /* \"#utility.yul\":5697:5711   */\n  lt\n    /* \"#utility.yul\":5677:5695   */\n  dup2\n    /* \"#utility.yul\":5674:5712   */\n  eq\n    /* \"#utility.yul\":5671:5755   */\n  iszero\n  tag_109\n  jumpi\n    /* \"#utility.yul\":5727:5745   */\n  tag_110\n  tag_42\n  jump\t// in\ntag_110:\n    /* \"#utility.yul\":5671:5755   */\ntag_109:\n    /* \"#utility.yul\":5492:5761   */\n  pop\n    /* \"#utility.yul\":5441:5761   */\n  swap2\n  swap1\n  pop\n  jump\t// out\n    /* \"Campaign.sol\":1070:4148  contract Campaign {... */\ntag_10:\n  dataSize(sub_0)\n  dup1\n  dataOffset(sub_0)\n  0x00\n  codecopy\n  0x00\n  return\nstop\n\nsub_0: assembly {\n        /* \"Campaign.sol\":1070:4148  contract Campaign {... */\n      mstore(0x40, 0x80)\n      jumpi(tag_1, lt(calldatasize, 0x04))\n      shr(0xe0, calldataload(0x00))\n      dup1\n      0x8a9cfd55\n      gt\n      tag_20\n      jumpi\n      dup1\n      0xb90497e0\n      gt\n      tag_21\n      jumpi\n      dup1\n      0xb90497e0\n      eq\n      tag_15\n      jumpi\n      dup1\n      0xd3087b57\n      eq\n      tag_16\n      jumpi\n      dup1\n      0xd7bb99ba\n      eq\n      tag_17\n      jumpi\n      dup1\n      0xd7d1bbdb\n      eq\n      tag_18\n      jumpi\n      dup1\n      0xeb7b1312\n      eq\n      tag_19\n      jumpi\n      jump(tag_1)\n    tag_21:\n      dup1\n      0x8a9cfd55\n      eq\n      tag_11\n      jumpi\n      dup1\n      0x937e09b1\n      eq\n      tag_12\n      jumpi\n      dup1\n      0x9a33e300\n      eq\n      tag_13\n      jumpi\n      dup1\n      0x9fb42b1f\n      eq\n      tag_14\n      jumpi\n      jump(tag_1)\n    tag_20:\n      dup1\n      0x481c6a75\n      gt\n      tag_22\n      jumpi\n      dup1\n      0x481c6a75\n      eq\n      tag_6\n      jumpi\n      dup1\n      0x4d80e709\n      eq\n      tag_7\n      jumpi\n      dup1\n      0x647c75e2\n      eq\n      tag_8\n      jumpi\n      dup1\n      0x70035047\n      eq\n      tag_9\n      jumpi\n      dup1\n      0x81d12c58\n      eq\n      tag_10\n      jumpi\n      jump(tag_1)\n    tag_22:\n      dup1\n      0x03441006\n      eq\n      tag_2\n      jumpi\n      dup1\n      0x244c3c2c\n      eq\n      tag_3\n      jumpi\n      dup1\n      0x2c5cac63\n      eq\n      tag_4\n      jumpi\n      dup1\n      0x4051ddac\n      eq\n      tag_5\n      jumpi\n    tag_1:\n      0x00\n      dup1\n      revert\n        /* \"Campaign.sol\":3431:3735  function finalizeRequest(uint index) public restricted {... */\n    tag_2:\n      callvalue\n      dup1\n      iszero\n      tag_23\n      jumpi\n      0x00\n      dup1\n      revert\n    tag_23:\n      pop\n      tag_24\n      0x04\n      dup1\n      calldatasize\n      sub\n      dup2\n      add\n      swap1\n      tag_25\n      swap2\n      swap1\n      tag_26\n      jump\t// in\n    tag_25:\n      tag_27\n      jump\t// in\n    tag_24:\n      stop\n        /* \"Campaign.sol\":2472:2774  function deleteCampaign() public payable restricted {... */\n    tag_3:\n      tag_28\n      tag_29\n      jump\t// in\n    tag_28:\n      stop\n        /* \"Campaign.sol\":1377:1436  mapping(address => uint) public supporterContributionValues */\n    tag_4:\n      callvalue\n      dup1\n      iszero\n      tag_30\n      jumpi\n      0x00\n      dup1\n      revert\n    tag_30:\n      pop\n      tag_31\n      0x04\n      dup1\n      calldatasize\n      sub\n      dup2\n      add\n      swap1\n      tag_32\n      swap2\n      swap1\n      tag_33\n      jump\t// in\n    tag_32:\n      tag_34\n      jump\t// in\n    tag_31:\n      mload(0x40)\n      tag_35\n      swap2\n      swap1\n      tag_36\n      jump\t// in\n    tag_35:\n      mload(0x40)\n      dup1\n      swap2\n      sub\n      swap1\n      return\n        /* \"Campaign.sol\":3742:4141  function getSummary() public view returns (... */\n    tag_5:\n      callvalue\n      dup1\n      iszero\n      tag_37\n      jumpi\n      0x00\n      dup1\n      revert\n    tag_37:\n      pop\n      tag_38\n      tag_39\n      jump\t// in\n    tag_38:\n      mload(0x40)\n      tag_40\n      swap10\n      swap9\n      swap8\n      swap7\n      swap6\n      swap5\n      swap4\n      swap3\n      swap2\n      swap1\n      tag_41\n      jump\t// in\n    tag_40:\n      mload(0x40)\n      dup1\n      swap2\n      sub\n      swap1\n      return\n        /* \"Campaign.sol\":1094:1116  address public manager */\n    tag_6:\n      callvalue\n      dup1\n      iszero\n      tag_42\n      jumpi\n      0x00\n      dup1\n      revert\n    tag_42:\n      pop\n      tag_43\n      tag_44\n      jump\t// in\n    tag_43:\n      mload(0x40)\n      tag_45\n      swap2\n      swap1\n      tag_46\n      jump\t// in\n    tag_45:\n      mload(0x40)\n      dup1\n      swap2\n      sub\n      swap1\n      return\n        /* \"Campaign.sol\":1326:1371  address payable[] public  supportersAddresses */\n    tag_7:\n      callvalue\n      dup1\n      iszero\n      tag_47\n      jumpi\n      0x00\n      dup1\n      revert\n    tag_47:\n      pop\n      tag_48\n      0x04\n      dup1\n      calldatasize\n      sub\n      dup2\n      add\n      swap1\n      tag_49\n      swap2\n      swap1\n      tag_26\n      jump\t// in\n    tag_49:\n      tag_50\n      jump\t// in\n    tag_48:\n      mload(0x40)\n      tag_51\n      swap2\n      swap1\n      tag_52\n      jump\t// in\n    tag_51:\n      mload(0x40)\n      dup1\n      swap2\n      sub\n      swap1\n      return\n        /* \"Campaign.sol\":1278:1320  mapping(address => bool) public supporters */\n    tag_8:\n      callvalue\n      dup1\n      iszero\n      tag_53\n      jumpi\n      0x00\n      dup1\n      revert\n    tag_53:\n      pop\n      tag_54\n      0x04\n      dup1\n      calldatasize\n      sub\n      dup2\n      add\n      swap1\n      tag_55\n      swap2\n      swap1\n      tag_33\n      jump\t// in\n    tag_55:\n      tag_56\n      jump\t// in\n    tag_54:\n      mload(0x40)\n      tag_57\n      swap2\n      swap1\n      tag_58\n      jump\t// in\n    tag_57:\n      mload(0x40)\n      dup1\n      swap2\n      sub\n      swap1\n      return\n        /* \"Campaign.sol\":1211:1235  uint public financialAim */\n    tag_9:\n      callvalue\n      dup1\n      iszero\n      tag_59\n      jumpi\n      0x00\n      dup1\n      revert\n    tag_59:\n      pop\n      tag_60\n      tag_61\n      jump\t// in\n    tag_60:\n      mload(0x40)\n      tag_62\n      swap2\n      swap1\n      tag_36\n      jump\t// in\n    tag_62:\n      mload(0x40)\n      dup1\n      swap2\n      sub\n      swap1\n      return\n        /* \"Campaign.sol\":1709:1750  mapping (uint => Request) public requests */\n    tag_10:\n      callvalue\n      dup1\n      iszero\n      tag_63\n      jumpi\n      0x00\n      dup1\n      revert\n    tag_63:\n      pop\n      tag_64\n      0x04\n      dup1\n      calldatasize\n      sub\n      dup2\n      add\n      swap1\n      tag_65\n      swap2\n      swap1\n      tag_26\n      jump\t// in\n    tag_65:\n      tag_66\n      jump\t// in\n    tag_64:\n      mload(0x40)\n      tag_67\n      swap6\n      swap5\n      swap4\n      swap3\n      swap2\n      swap1\n      tag_68\n      jump\t// in\n    tag_67:\n      mload(0x40)\n      dup1\n      swap2\n      sub\n      swap1\n      return\n        /* \"Campaign.sol\":2789:3114  function createRequest(string memory description, uint value, address payable recipient)... */\n    tag_11:\n      callvalue\n      dup1\n      iszero\n      tag_69\n      jumpi\n      0x00\n      dup1\n      revert\n    tag_69:\n      pop\n      tag_70\n      0x04\n      dup1\n      calldatasize\n      sub\n      dup2\n      add\n      swap1\n      tag_71\n      swap2\n      swap1\n      tag_72\n      jump\t// in\n    tag_71:\n      tag_73\n      jump\t// in\n    tag_70:\n      stop\n        /* \"Campaign.sol\":1241:1272  uint public minimumContribution */\n    tag_12:\n      callvalue\n      dup1\n      iszero\n      tag_74\n      jumpi\n      0x00\n      dup1\n      revert\n    tag_74:\n      pop\n      tag_75\n      tag_76\n      jump\t// in\n    tag_75:\n      mload(0x40)\n      tag_77\n      swap2\n      swap1\n      tag_36\n      jump\t// in\n    tag_77:\n      mload(0x40)\n      dup1\n      swap2\n      sub\n      swap1\n      return\n        /* \"Campaign.sol\":1122:1147  string public projectName */\n    tag_13:\n      callvalue\n      dup1\n      iszero\n      tag_78\n      jumpi\n      0x00\n      dup1\n      revert\n    tag_78:\n      pop\n      tag_79\n      tag_80\n      jump\t// in\n    tag_79:\n      mload(0x40)\n      tag_81\n      swap2\n      swap1\n      tag_82\n      jump\t// in\n    tag_81:\n      mload(0x40)\n      dup1\n      swap2\n      sub\n      swap1\n      return\n        /* \"Campaign.sol\":1680:1703  uint public numRequests */\n    tag_14:\n      callvalue\n      dup1\n      iszero\n      tag_83\n      jumpi\n      0x00\n      dup1\n      revert\n    tag_83:\n      pop\n      tag_84\n      tag_85\n      jump\t// in\n    tag_84:\n      mload(0x40)\n      tag_86\n      swap2\n      swap1\n      tag_36\n      jump\t// in\n    tag_86:\n      mload(0x40)\n      dup1\n      swap2\n      sub\n      swap1\n      return\n        /* \"Campaign.sol\":1183:1205  string public imageURL */\n    tag_15:\n      callvalue\n      dup1\n      iszero\n      tag_87\n      jumpi\n      0x00\n      dup1\n      revert\n    tag_87:\n      pop\n      tag_88\n      tag_89\n      jump\t// in\n    tag_88:\n      mload(0x40)\n      tag_90\n      swap2\n      swap1\n      tag_82\n      jump\t// in\n    tag_90:\n      mload(0x40)\n      dup1\n      swap2\n      sub\n      swap1\n      return\n        /* \"Campaign.sol\":1153:1177  string public projectAim */\n    tag_16:\n      callvalue\n      dup1\n      iszero\n      tag_91\n      jumpi\n      0x00\n      dup1\n      revert\n    tag_91:\n      pop\n      tag_92\n      tag_93\n      jump\t// in\n    tag_92:\n      mload(0x40)\n      tag_94\n      swap2\n      swap1\n      tag_82\n      jump\t// in\n    tag_94:\n      mload(0x40)\n      dup1\n      swap2\n      sub\n      swap1\n      return\n        /* \"Campaign.sol\":2185:2461  function contribute() public payable {... */\n    tag_17:\n      tag_95\n      tag_96\n      jump\t// in\n    tag_95:\n      stop\n        /* \"Campaign.sol\":3124:3421  function approveRequest(uint index) public {... */\n    tag_18:\n      callvalue\n      dup1\n      iszero\n      tag_97\n      jumpi\n      0x00\n      dup1\n      revert\n    tag_97:\n      pop\n      tag_98\n      0x04\n      dup1\n      calldatasize\n      sub\n      dup2\n      add\n      swap1\n      tag_99\n      swap2\n      swap1\n      tag_26\n      jump\t// in\n    tag_99:\n      tag_100\n      jump\t// in\n    tag_98:\n      stop\n        /* \"Campaign.sol\":1442:1469  uint public supportersCount */\n    tag_19:\n      callvalue\n      dup1\n      iszero\n      tag_101\n      jumpi\n      0x00\n      dup1\n      revert\n    tag_101:\n      pop\n      tag_102\n      tag_103\n      jump\t// in\n    tag_102:\n      mload(0x40)\n      tag_104\n      swap2\n      swap1\n      tag_36\n      jump\t// in\n    tag_104:\n      mload(0x40)\n      dup1\n      swap2\n      sub\n      swap1\n      return\n        /* \"Campaign.sol\":3431:3735  function finalizeRequest(uint index) public restricted {... */\n    tag_27:\n        /* \"Campaign.sol\":2149:2156  manager */\n      0x00\n      dup1\n      sload\n      swap1\n      0x0100\n      exp\n      swap1\n      div\n      0xffffffffffffffffffffffffffffffffffffffff\n      and\n        /* \"Campaign.sol\":2135:2156  msg.sender == manager */\n      0xffffffffffffffffffffffffffffffffffffffff\n      and\n        /* \"Campaign.sol\":2135:2145  msg.sender */\n      caller\n        /* \"Campaign.sol\":2135:2156  msg.sender == manager */\n      0xffffffffffffffffffffffffffffffffffffffff\n      and\n      eq\n        /* \"Campaign.sol\":2127:2157  require(msg.sender == manager) */\n      tag_106\n      jumpi\n      0x00\n      dup1\n      revert\n    tag_106:\n        /* \"Campaign.sol\":3496:3519  Request storage request */\n      0x00\n        /* \"Campaign.sol\":3522:3530  requests */\n      0x0b\n        /* \"Campaign.sol\":3522:3537  requests[index] */\n      0x00\n        /* \"Campaign.sol\":3531:3536  index */\n      dup4\n        /* \"Campaign.sol\":3522:3537  requests[index] */\n      dup2\n      mstore\n      0x20\n      add\n      swap1\n      dup2\n      mstore\n      0x20\n      add\n      0x00\n      keccak256\n        /* \"Campaign.sol\":3496:3537  Request storage request = requests[index] */\n      swap1\n      pop\n        /* \"Campaign.sol\":3596:3597  2 */\n      0x02\n        /* \"Campaign.sol\":3580:3595  supportersCount */\n      sload(0x09)\n        /* \"Campaign.sol\":3580:3597  supportersCount/2 */\n      tag_108\n      swap2\n      swap1\n      tag_109\n      jump\t// in\n    tag_108:\n        /* \"Campaign.sol\":3555:3562  request */\n      dup2\n        /* \"Campaign.sol\":3555:3576  request.approvalCount */\n      0x03\n      add\n      sload\n        /* \"Campaign.sol\":3555:3598  request.approvalCount > (supportersCount/2) */\n      gt\n        /* \"Campaign.sol\":3547:3599  require(request.approvalCount > (supportersCount/2)) */\n      tag_110\n      jumpi\n      0x00\n      dup1\n      revert\n    tag_110:\n        /* \"Campaign.sol\":3618:3625  request */\n      dup1\n        /* \"Campaign.sol\":3618:3634  request.complete */\n      0x02\n      add\n      0x14\n      swap1\n      sload\n      swap1\n      0x0100\n      exp\n      swap1\n      div\n      0xff\n      and\n        /* \"Campaign.sol\":3617:3634  !request.complete */\n      iszero\n        /* \"Campaign.sol\":3609:3635  require(!request.complete) */\n      tag_111\n      jumpi\n      0x00\n      dup1\n      revert\n    tag_111:\n        /* \"Campaign.sol\":3654:3661  request */\n      dup1\n        /* \"Campaign.sol\":3654:3671  request.recipient */\n      0x02\n      add\n      0x00\n      swap1\n      sload\n      swap1\n      0x0100\n      exp\n      swap1\n      div\n      0xffffffffffffffffffffffffffffffffffffffff\n      and\n        /* \"Campaign.sol\":3654:3680  request.recipient.transfer */\n      0xffffffffffffffffffffffffffffffffffffffff\n      and\n        /* \"Campaign.sol\":3654:3695  request.recipient.transfer(request.value) */\n      0x08fc\n        /* \"Campaign.sol\":3681:3688  request */\n      dup3\n        /* \"Campaign.sol\":3681:3694  request.value */\n      0x01\n      add\n      sload\n        /* \"Campaign.sol\":3654:3695  request.recipient.transfer(request.value) */\n      swap1\n      dup2\n      iszero\n      mul\n      swap1\n      mload(0x40)\n      0x00\n      mload(0x40)\n      dup1\n      dup4\n      sub\n      dup2\n      dup6\n      dup9\n      dup9\n      call\n      swap4\n      pop\n      pop\n      pop\n      pop\n      iszero\n      dup1\n      iszero\n      tag_113\n      jumpi\n      returndatasize\n      0x00\n      dup1\n      returndatacopy\n      revert(0x00, returndatasize)\n    tag_113:\n      pop\n        /* \"Campaign.sol\":3724:3728  true */\n      0x01\n        /* \"Campaign.sol\":3705:3712  request */\n      dup2\n        /* \"Campaign.sol\":3705:3721  request.complete */\n      0x02\n      add\n      0x14\n        /* \"Campaign.sol\":3705:3728  request.complete = true */\n      0x0100\n      exp\n      dup2\n      sload\n      dup2\n      0xff\n      mul\n      not\n      and\n      swap1\n      dup4\n      iszero\n      iszero\n      mul\n      or\n      swap1\n      sstore\n      pop\n        /* \"Campaign.sol\":3486:3735  {... */\n      pop\n        /* \"Campaign.sol\":3431:3735  function finalizeRequest(uint index) public restricted {... */\n      pop\n      jump\t// out\n        /* \"Campaign.sol\":2472:2774  function deleteCampaign() public payable restricted {... */\n    tag_29:\n        /* \"Campaign.sol\":2149:2156  manager */\n      0x00\n      dup1\n      sload\n      swap1\n      0x0100\n      exp\n      swap1\n      div\n      0xffffffffffffffffffffffffffffffffffffffff\n      and\n        /* \"Campaign.sol\":2135:2156  msg.sender == manager */\n      0xffffffffffffffffffffffffffffffffffffffff\n      and\n        /* \"Campaign.sol\":2135:2145  msg.sender */\n      caller\n        /* \"Campaign.sol\":2135:2156  msg.sender == manager */\n      0xffffffffffffffffffffffffffffffffffffffff\n      and\n      eq\n        /* \"Campaign.sol\":2127:2157  require(msg.sender == manager) */\n      tag_115\n      jumpi\n      0x00\n      dup1\n      revert\n    tag_115:\n        /* \"Campaign.sol\":2539:2545  uint i */\n      0x00\n        /* \"Campaign.sol\":2534:2693  for (uint i=0; i<supportersAddresses.length; i++) {... */\n    tag_117:\n        /* \"Campaign.sol\":2551:2570  supportersAddresses */\n      0x07\n        /* \"Campaign.sol\":2551:2577  supportersAddresses.length */\n      dup1\n      sload\n      swap1\n      pop\n        /* \"Campaign.sol\":2549:2550  i */\n      dup2\n        /* \"Campaign.sol\":2549:2577  i<supportersAddresses.length */\n      lt\n        /* \"Campaign.sol\":2534:2693  for (uint i=0; i<supportersAddresses.length; i++) {... */\n      iszero\n      tag_118\n      jumpi\n        /* \"Campaign.sol\":2598:2617  supportersAddresses */\n      0x07\n        /* \"Campaign.sol\":2618:2619  i */\n      dup2\n        /* \"Campaign.sol\":2598:2620  supportersAddresses[i] */\n      dup2\n      sload\n      dup2\n      lt\n      tag_120\n      jumpi\n      tag_121\n      tag_122\n      jump\t// in\n    tag_121:\n    tag_120:\n      swap1\n      0x00\n      mstore\n      keccak256(0x00, 0x20)\n      add\n      0x00\n      swap1\n      sload\n      swap1\n      0x0100\n      exp\n      swap1\n      div\n      0xffffffffffffffffffffffffffffffffffffffff\n      and\n        /* \"Campaign.sol\":2598:2629  supportersAddresses[i].transfer */\n      0xffffffffffffffffffffffffffffffffffffffff\n      and\n        /* \"Campaign.sol\":2598:2682  supportersAddresses[i].transfer(supporterContributionValues[supportersAddresses[i]]) */\n      0x08fc\n        /* \"Campaign.sol\":2630:2657  supporterContributionValues */\n      0x08\n        /* \"Campaign.sol\":2630:2681  supporterContributionValues[supportersAddresses[i]] */\n      0x00\n        /* \"Campaign.sol\":2658:2677  supportersAddresses */\n      0x07\n        /* \"Campaign.sol\":2678:2679  i */\n      dup6\n        /* \"Campaign.sol\":2658:2680  supportersAddresses[i] */\n      dup2\n      sload\n      dup2\n      lt\n      tag_124\n      jumpi\n      tag_125\n      tag_122\n      jump\t// in\n    tag_125:\n    tag_124:\n      swap1\n      0x00\n      mstore\n      keccak256(0x00, 0x20)\n      add\n      0x00\n      swap1\n      sload\n      swap1\n      0x0100\n      exp\n      swap1\n      div\n      0xffffffffffffffffffffffffffffffffffffffff\n      and\n        /* \"Campaign.sol\":2630:2681  supporterContributionValues[supportersAddresses[i]] */\n      0xffffffffffffffffffffffffffffffffffffffff\n      and\n      0xffffffffffffffffffffffffffffffffffffffff\n      and\n      dup2\n      mstore\n      0x20\n      add\n      swap1\n      dup2\n      mstore\n      0x20\n      add\n      0x00\n      keccak256\n      sload\n        /* \"Campaign.sol\":2598:2682  supportersAddresses[i].transfer(supporterContributionValues[supportersAddresses[i]]) */\n      swap1\n      dup2\n      iszero\n      mul\n      swap1\n      mload(0x40)\n      0x00\n      mload(0x40)\n      dup1\n      dup4\n      sub\n      dup2\n      dup6\n      dup9\n      dup9\n      call\n      swap4\n      pop\n      pop\n      pop\n      pop\n      iszero\n      dup1\n      iszero\n      tag_128\n      jumpi\n      returndatasize\n      0x00\n      dup1\n      returndatacopy\n      revert(0x00, returndatasize)\n    tag_128:\n      pop\n        /* \"Campaign.sol\":2579:2582  i++ */\n      dup1\n      dup1\n      tag_129\n      swap1\n      tag_130\n      jump\t// in\n    tag_129:\n      swap2\n      pop\n      pop\n        /* \"Campaign.sol\":2534:2693  for (uint i=0; i<supportersAddresses.length; i++) {... */\n      jump(tag_117)\n    tag_118:\n      pop\n        /* \"Campaign.sol\":2723:2765  0x35b2E2b694A6A4c28F6631A905fB87eca330469d */\n      0x35b2e2b694a6a4c28f6631a905fb87eca330469d\n        /* \"Campaign.sol\":2702:2767  selfdestruct(payable(0x35b2E2b694A6A4c28F6631A905fB87eca330469d)) */\n      0xffffffffffffffffffffffffffffffffffffffff\n      and\n      selfdestruct\n        /* \"Campaign.sol\":1377:1436  mapping(address => uint) public supporterContributionValues */\n    tag_34:\n      mstore(0x20, 0x08)\n      dup1\n      0x00\n      mstore\n      keccak256(0x00, 0x40)\n      0x00\n      swap2\n      pop\n      swap1\n      pop\n      sload\n      dup2\n      jump\t// out\n        /* \"Campaign.sol\":3742:4141  function getSummary() public view returns (... */\n    tag_39:\n        /* \"Campaign.sol\":3792:3796  uint */\n      0x00\n        /* \"Campaign.sol\":3798:3802  uint */\n      dup1\n        /* \"Campaign.sol\":3804:3808  uint */\n      0x00\n        /* \"Campaign.sol\":3810:3814  uint */\n      dup1\n        /* \"Campaign.sol\":3816:3823  address */\n      0x00\n        /* \"Campaign.sol\":3826:3839  string memory */\n      0x60\n        /* \"Campaign.sol\":3842:3855  string memory */\n      dup1\n        /* \"Campaign.sol\":3857:3861  uint */\n      0x00\n        /* \"Campaign.sol\":3863:3876  string memory */\n      0x60\n        /* \"Campaign.sol\":3914:3933  minimumContribution */\n      sload(0x05)\n        /* \"Campaign.sol\":3945:3966  address(this).balance */\n      selfbalance\n        /* \"Campaign.sol\":3978:3989  numRequests */\n      sload(0x0a)\n        /* \"Campaign.sol\":4001:4016  supportersCount */\n      sload(0x09)\n        /* \"Campaign.sol\":4028:4035  manager */\n      0x00\n      dup1\n      sload\n      swap1\n      0x0100\n      exp\n      swap1\n      div\n      0xffffffffffffffffffffffffffffffffffffffff\n      and\n        /* \"Campaign.sol\":4047:4058  projectName */\n      0x01\n        /* \"Campaign.sol\":4070:4080  projectAim */\n      0x02\n        /* \"Campaign.sol\":4092:4104  financialAim */\n      sload(0x04)\n        /* \"Campaign.sol\":4116:4124  imageURL */\n      0x03\n        /* \"Campaign.sol\":3895:4134  return (... */\n      dup4\n      dup1\n      sload\n      tag_132\n      swap1\n      tag_133\n      jump\t// in\n    tag_132:\n      dup1\n      0x1f\n      add\n      0x20\n      dup1\n      swap2\n      div\n      mul\n      0x20\n      add\n      mload(0x40)\n      swap1\n      dup2\n      add\n      0x40\n      mstore\n      dup1\n      swap3\n      swap2\n      swap1\n      dup2\n      dup2\n      mstore\n      0x20\n      add\n      dup3\n      dup1\n      sload\n      tag_134\n      swap1\n      tag_133\n      jump\t// in\n    tag_134:\n      dup1\n      iszero\n      tag_135\n      jumpi\n      dup1\n      0x1f\n      lt\n      tag_136\n      jumpi\n      0x0100\n      dup1\n      dup4\n      sload\n      div\n      mul\n      dup4\n      mstore\n      swap2\n      0x20\n      add\n      swap2\n      jump(tag_135)\n    tag_136:\n      dup3\n      add\n      swap2\n      swap1\n      0x00\n      mstore\n      keccak256(0x00, 0x20)\n      swap1\n    tag_137:\n      dup2\n      sload\n      dup2\n      mstore\n      swap1\n      0x01\n      add\n      swap1\n      0x20\n      add\n      dup1\n      dup4\n      gt\n      tag_137\n      jumpi\n      dup3\n      swap1\n      sub\n      0x1f\n      and\n      dup3\n      add\n      swap2\n    tag_135:\n      pop\n      pop\n      pop\n      pop\n      pop\n      swap4\n      pop\n      dup3\n      dup1\n      sload\n      tag_138\n      swap1\n      tag_133\n      jump\t// in\n    tag_138:\n      dup1\n      0x1f\n      add\n      0x20\n      dup1\n      swap2\n      div\n      mul\n      0x20\n      add\n      mload(0x40)\n      swap1\n      dup2\n      add\n      0x40\n      mstore\n      dup1\n      swap3\n      swap2\n      swap1\n      dup2\n      dup2\n      mstore\n      0x20\n      add\n      dup3\n      dup1\n      sload\n      tag_139\n      swap1\n      tag_133\n      jump\t// in\n    tag_139:\n      dup1\n      iszero\n      tag_140\n      jumpi\n      dup1\n      0x1f\n      lt\n      tag_141\n      jumpi\n      0x0100\n      dup1\n      dup4\n      sload\n      div\n      mul\n      dup4\n      mstore\n      swap2\n      0x20\n      add\n      swap2\n      jump(tag_140)\n    tag_141:\n      dup3\n      add\n      swap2\n      swap1\n      0x00\n      mstore\n      keccak256(0x00, 0x20)\n      swap1\n    tag_142:\n      dup2\n      sload\n      dup2\n      mstore\n      swap1\n      0x01\n      add\n      swap1\n      0x20\n      add\n      dup1\n      dup4\n      gt\n      tag_142\n      jumpi\n      dup3\n      swap1\n      sub\n      0x1f\n      and\n      dup3\n      add\n      swap2\n    tag_140:\n      pop\n      pop\n      pop\n      pop\n      pop\n      swap3\n      pop\n      dup1\n      dup1\n      sload\n      tag_143\n      swap1\n      tag_133\n      jump\t// in\n    tag_143:\n      dup1\n      0x1f\n      add\n      0x20\n      dup1\n      swap2\n      div\n      mul\n      0x20\n      add\n      mload(0x40)\n      swap1\n      dup2\n      add\n      0x40\n      mstore\n      dup1\n      swap3\n      swap2\n      swap1\n      dup2\n      dup2\n      mstore\n      0x20\n      add\n      dup3\n      dup1\n      sload\n      tag_144\n      swap1\n      tag_133\n      jump\t// in\n    tag_144:\n      dup1\n      iszero\n      tag_145\n      jumpi\n      dup1\n      0x1f\n      lt\n      tag_146\n      jumpi\n      0x0100\n      dup1\n      dup4\n      sload\n      div\n      mul\n      dup4\n      mstore\n      swap2\n      0x20\n      add\n      swap2\n      jump(tag_145)\n    tag_146:\n      dup3\n      add\n      swap2\n      swap1\n      0x00\n      mstore\n      keccak256(0x00, 0x20)\n      swap1\n    tag_147:\n      dup2\n      sload\n      dup2\n      mstore\n      swap1\n      0x01\n      add\n      swap1\n      0x20\n      add\n      dup1\n      dup4\n      gt\n      tag_147\n      jumpi\n      dup3\n      swap1\n      sub\n      0x1f\n      and\n      dup3\n      add\n      swap2\n    tag_145:\n      pop\n      pop\n      pop\n      pop\n      pop\n      swap1\n      pop\n      swap9\n      pop\n      swap9\n      pop\n      swap9\n      pop\n      swap9\n      pop\n      swap9\n      pop\n      swap9\n      pop\n      swap9\n      pop\n      swap9\n      pop\n      swap9\n      pop\n        /* \"Campaign.sol\":3742:4141  function getSummary() public view returns (... */\n      swap1\n      swap2\n      swap3\n      swap4\n      swap5\n      swap6\n      swap7\n      swap8\n      swap9\n      jump\t// out\n        /* \"Campaign.sol\":1094:1116  address public manager */\n    tag_44:\n      0x00\n      dup1\n      sload\n      swap1\n      0x0100\n      exp\n      swap1\n      div\n      0xffffffffffffffffffffffffffffffffffffffff\n      and\n      dup2\n      jump\t// out\n        /* \"Campaign.sol\":1326:1371  address payable[] public  supportersAddresses */\n    tag_50:\n      0x07\n      dup2\n      dup2\n      sload\n      dup2\n      lt\n      tag_148\n      jumpi\n      0x00\n      dup1\n      revert\n    tag_148:\n      swap1\n      0x00\n      mstore\n      keccak256(0x00, 0x20)\n      add\n      0x00\n      swap2\n      pop\n      sload\n      swap1\n      0x0100\n      exp\n      swap1\n      div\n      0xffffffffffffffffffffffffffffffffffffffff\n      and\n      dup2\n      jump\t// out\n        /* \"Campaign.sol\":1278:1320  mapping(address => bool) public supporters */\n    tag_56:\n      mstore(0x20, 0x06)\n      dup1\n      0x00\n      mstore\n      keccak256(0x00, 0x40)\n      0x00\n      swap2\n      pop\n      sload\n      swap1\n      0x0100\n      exp\n      swap1\n      div\n      0xff\n      and\n      dup2\n      jump\t// out\n        /* \"Campaign.sol\":1211:1235  uint public financialAim */\n    tag_61:\n      sload(0x04)\n      dup2\n      jump\t// out\n        /* \"Campaign.sol\":1709:1750  mapping (uint => Request) public requests */\n    tag_66:\n      mstore(0x20, 0x0b)\n      dup1\n      0x00\n      mstore\n      keccak256(0x00, 0x40)\n      0x00\n      swap2\n      pop\n      swap1\n      pop\n      dup1\n      0x00\n      add\n      dup1\n      sload\n      tag_150\n      swap1\n      tag_133\n      jump\t// in\n    tag_150:\n      dup1\n      0x1f\n      add\n      0x20\n      dup1\n      swap2\n      div\n      mul\n      0x20\n      add\n      mload(0x40)\n      swap1\n      dup2\n      add\n      0x40\n      mstore\n      dup1\n      swap3\n      swap2\n      swap1\n      dup2\n      dup2\n      mstore\n      0x20\n      add\n      dup3\n      dup1\n      sload\n      tag_151\n      swap1\n      tag_133\n      jump\t// in\n    tag_151:\n      dup1\n      iszero\n      tag_152\n      jumpi\n      dup1\n      0x1f\n      lt\n      tag_153\n      jumpi\n      0x0100\n      dup1\n      dup4\n      sload\n      div\n      mul\n      dup4\n      mstore\n      swap2\n      0x20\n      add\n      swap2\n      jump(tag_152)\n    tag_153:\n      dup3\n      add\n      swap2\n      swap1\n      0x00\n      mstore\n      keccak256(0x00, 0x20)\n      swap1\n    tag_154:\n      dup2\n      sload\n      dup2\n      mstore\n      swap1\n      0x01\n      add\n      swap1\n      0x20\n      add\n      dup1\n      dup4\n      gt\n      tag_154\n      jumpi\n      dup3\n      swap1\n      sub\n      0x1f\n      and\n      dup3\n      add\n      swap2\n    tag_152:\n      pop\n      pop\n      pop\n      pop\n      pop\n      swap1\n      dup1\n      0x01\n      add\n      sload\n      swap1\n      dup1\n      0x02\n      add\n      0x00\n      swap1\n      sload\n      swap1\n      0x0100\n      exp\n      swap1\n      div\n      0xffffffffffffffffffffffffffffffffffffffff\n      and\n      swap1\n      dup1\n      0x02\n      add\n      0x14\n      swap1\n      sload\n      swap1\n      0x0100\n      exp\n      swap1\n      div\n      0xff\n      and\n      swap1\n      dup1\n      0x03\n      add\n      sload\n      swap1\n      pop\n      dup6\n      jump\t// out\n        /* \"Campaign.sol\":2789:3114  function createRequest(string memory description, uint value, address payable recipient)... */\n    tag_73:\n        /* \"Campaign.sol\":2149:2156  manager */\n      0x00\n      dup1\n      sload\n      swap1\n      0x0100\n      exp\n      swap1\n      div\n      0xffffffffffffffffffffffffffffffffffffffff\n      and\n        /* \"Campaign.sol\":2135:2156  msg.sender == manager */\n      0xffffffffffffffffffffffffffffffffffffffff\n      and\n        /* \"Campaign.sol\":2135:2145  msg.sender */\n      caller\n        /* \"Campaign.sol\":2135:2156  msg.sender == manager */\n      0xffffffffffffffffffffffffffffffffffffffff\n      and\n      eq\n        /* \"Campaign.sol\":2127:2157  require(msg.sender == manager) */\n      tag_156\n      jumpi\n      0x00\n      dup1\n      revert\n    tag_156:\n        /* \"Campaign.sol\":2911:2928  Request storage r */\n      0x00\n        /* \"Campaign.sol\":2931:2939  requests */\n      0x0b\n        /* \"Campaign.sol\":2931:2954  requests[numRequests++] */\n      0x00\n        /* \"Campaign.sol\":2940:2951  numRequests */\n      0x0a\n      0x00\n        /* \"Campaign.sol\":2940:2953  numRequests++ */\n      dup2\n      sload\n      dup1\n      swap3\n      swap2\n      swap1\n      tag_158\n      swap1\n      tag_130\n      jump\t// in\n    tag_158:\n      swap2\n      swap1\n      pop\n      sstore\n        /* \"Campaign.sol\":2931:2954  requests[numRequests++] */\n      dup2\n      mstore\n      0x20\n      add\n      swap1\n      dup2\n      mstore\n      0x20\n      add\n      0x00\n      keccak256\n        /* \"Campaign.sol\":2911:2954  Request storage r = requests[numRequests++] */\n      swap1\n      pop\n        /* \"Campaign.sol\":2980:2991  description */\n      dup4\n        /* \"Campaign.sol\":2964:2965  r */\n      dup2\n        /* \"Campaign.sol\":2964:2977  r.description */\n      0x00\n      add\n        /* \"Campaign.sol\":2964:2991  r.description = description */\n      swap1\n      dup1\n      mload\n      swap1\n      0x20\n      add\n      swap1\n      tag_159\n      swap3\n      swap2\n      swap1\n      tag_160\n      jump\t// in\n    tag_159:\n      pop\n        /* \"Campaign.sol\":3011:3016  value */\n      dup3\n        /* \"Campaign.sol\":3001:3002  r */\n      dup2\n        /* \"Campaign.sol\":3001:3008  r.value */\n      0x01\n      add\n        /* \"Campaign.sol\":3001:3016  r.value = value */\n      dup2\n      swap1\n      sstore\n      pop\n        /* \"Campaign.sol\":3040:3049  recipient */\n      dup2\n        /* \"Campaign.sol\":3026:3027  r */\n      dup2\n        /* \"Campaign.sol\":3026:3037  r.recipient */\n      0x02\n      add\n      0x00\n        /* \"Campaign.sol\":3026:3049  r.recipient = recipient */\n      0x0100\n      exp\n      dup2\n      sload\n      dup2\n      0xffffffffffffffffffffffffffffffffffffffff\n      mul\n      not\n      and\n      swap1\n      dup4\n      0xffffffffffffffffffffffffffffffffffffffff\n      and\n      mul\n      or\n      swap1\n      sstore\n      pop\n        /* \"Campaign.sol\":3072:3077  false */\n      0x00\n        /* \"Campaign.sol\":3059:3060  r */\n      dup2\n        /* \"Campaign.sol\":3059:3069  r.complete */\n      0x02\n      add\n      0x14\n        /* \"Campaign.sol\":3059:3077  r.complete = false */\n      0x0100\n      exp\n      dup2\n      sload\n      dup2\n      0xff\n      mul\n      not\n      and\n      swap1\n      dup4\n      iszero\n      iszero\n      mul\n      or\n      swap1\n      sstore\n      pop\n        /* \"Campaign.sol\":3105:3106  0 */\n      0x00\n        /* \"Campaign.sol\":3087:3088  r */\n      dup2\n        /* \"Campaign.sol\":3087:3102  r.approvalCount */\n      0x03\n      add\n        /* \"Campaign.sol\":3087:3106  r.approvalCount = 0 */\n      dup2\n      swap1\n      sstore\n      pop\n        /* \"Campaign.sol\":2901:3114  {... */\n      pop\n        /* \"Campaign.sol\":2789:3114  function createRequest(string memory description, uint value, address payable recipient)... */\n      pop\n      pop\n      pop\n      jump\t// out\n        /* \"Campaign.sol\":1241:1272  uint public minimumContribution */\n    tag_76:\n      sload(0x05)\n      dup2\n      jump\t// out\n        /* \"Campaign.sol\":1122:1147  string public projectName */\n    tag_80:\n      0x01\n      dup1\n      sload\n      tag_161\n      swap1\n      tag_133\n      jump\t// in\n    tag_161:\n      dup1\n      0x1f\n      add\n      0x20\n      dup1\n      swap2\n      div\n      mul\n      0x20\n      add\n      mload(0x40)\n      swap1\n      dup2\n      add\n      0x40\n      mstore\n      dup1\n      swap3\n      swap2\n      swap1\n      dup2\n      dup2\n      mstore\n      0x20\n      add\n      dup3\n      dup1\n      sload\n      tag_162\n      swap1\n      tag_133\n      jump\t// in\n    tag_162:\n      dup1\n      iszero\n      tag_163\n      jumpi\n      dup1\n      0x1f\n      lt\n      tag_164\n      jumpi\n      0x0100\n      dup1\n      dup4\n      sload\n      div\n      mul\n      dup4\n      mstore\n      swap2\n      0x20\n      add\n      swap2\n      jump(tag_163)\n    tag_164:\n      dup3\n      add\n      swap2\n      swap1\n      0x00\n      mstore\n      keccak256(0x00, 0x20)\n      swap1\n    tag_165:\n      dup2\n      sload\n      dup2\n      mstore\n      swap1\n      0x01\n      add\n      swap1\n      0x20\n      add\n      dup1\n      dup4\n      gt\n      tag_165\n      jumpi\n      dup3\n      swap1\n      sub\n      0x1f\n      and\n      dup3\n      add\n      swap2\n    tag_163:\n      pop\n      pop\n      pop\n      pop\n      pop\n      dup2\n      jump\t// out\n        /* \"Campaign.sol\":1680:1703  uint public numRequests */\n    tag_85:\n      sload(0x0a)\n      dup2\n      jump\t// out\n        /* \"Campaign.sol\":1183:1205  string public imageURL */\n    tag_89:\n      0x03\n      dup1\n      sload\n      tag_166\n      swap1\n      tag_133\n      jump\t// in\n    tag_166:\n      dup1\n      0x1f\n      add\n      0x20\n      dup1\n      swap2\n      div\n      mul\n      0x20\n      add\n      mload(0x40)\n      swap1\n      dup2\n      add\n      0x40\n      mstore\n      dup1\n      swap3\n      swap2\n      swap1\n      dup2\n      dup2\n      mstore\n      0x20\n      add\n      dup3\n      dup1\n      sload\n      tag_167\n      swap1\n      tag_133\n      jump\t// in\n    tag_167:\n      dup1\n      iszero\n      tag_168\n      jumpi\n      dup1\n      0x1f\n      lt\n      tag_169\n      jumpi\n      0x0100\n      dup1\n      dup4\n      sload\n      div\n      mul\n      dup4\n      mstore\n      swap2\n      0x20\n      add\n      swap2\n      jump(tag_168)\n    tag_169:\n      dup3\n      add\n      swap2\n      swap1\n      0x00\n      mstore\n      keccak256(0x00, 0x20)\n      swap1\n    tag_170:\n      dup2\n      sload\n      dup2\n      mstore\n      swap1\n      0x01\n      add\n      swap1\n      0x20\n      add\n      dup1\n      dup4\n      gt\n      tag_170\n      jumpi\n      dup3\n      swap1\n      sub\n      0x1f\n      and\n      dup3\n      add\n      swap2\n    tag_168:\n      pop\n      pop\n      pop\n      pop\n      pop\n      dup2\n      jump\t// out\n        /* \"Campaign.sol\":1153:1177  string public projectAim */\n    tag_93:\n      0x02\n      dup1\n      sload\n      tag_171\n      swap1\n      tag_133\n      jump\t// in\n    tag_171:\n      dup1\n      0x1f\n      add\n      0x20\n      dup1\n      swap2\n      div\n      mul\n      0x20\n      add\n      mload(0x40)\n      swap1\n      dup2\n      add\n      0x40\n      mstore\n      dup1\n      swap3\n      swap2\n      swap1\n      dup2\n      dup2\n      mstore\n      0x20\n      add\n      dup3\n      dup1\n      sload\n      tag_172\n      swap1\n      tag_133\n      jump\t// in\n    tag_172:\n      dup1\n      iszero\n      tag_173\n      jumpi\n      dup1\n      0x1f\n      lt\n      tag_174\n      jumpi\n      0x0100\n      dup1\n      dup4\n      sload\n      div\n      mul\n      dup4\n      mstore\n      swap2\n      0x20\n      add\n      swap2\n      jump(tag_173)\n    tag_174:\n      dup3\n      add\n      swap2\n      swap1\n      0x00\n      mstore\n      keccak256(0x00, 0x20)\n      swap1\n    tag_175:\n      dup2\n      sload\n      dup2\n      mstore\n      swap1\n      0x01\n      add\n      swap1\n      0x20\n      add\n      dup1\n      dup4\n      gt\n      tag_175\n      jumpi\n      dup3\n      swap1\n      sub\n      0x1f\n      and\n      dup3\n      add\n      swap2\n    tag_173:\n      pop\n      pop\n      pop\n      pop\n      pop\n      dup2\n      jump\t// out\n        /* \"Campaign.sol\":2185:2461  function contribute() public payable {... */\n    tag_96:\n        /* \"Campaign.sol\":2252:2271  minimumContribution */\n      sload(0x05)\n        /* \"Campaign.sol\":2240:2249  msg.value */\n      callvalue\n        /* \"Campaign.sol\":2240:2271  msg.value > minimumContribution */\n      gt\n        /* \"Campaign.sol\":2232:2272  require(msg.value > minimumContribution) */\n      tag_177\n      jumpi\n      0x00\n      dup1\n      revert\n    tag_177:\n        /* \"Campaign.sol\":2307:2311  true */\n      0x01\n        /* \"Campaign.sol\":2282:2292  supporters */\n      0x06\n        /* \"Campaign.sol\":2282:2304  supporters[msg.sender] */\n      0x00\n        /* \"Campaign.sol\":2293:2303  msg.sender */\n      caller\n        /* \"Campaign.sol\":2282:2304  supporters[msg.sender] */\n      0xffffffffffffffffffffffffffffffffffffffff\n      and\n      0xffffffffffffffffffffffffffffffffffffffff\n      and\n      dup2\n      mstore\n      0x20\n      add\n      swap1\n      dup2\n      mstore\n      0x20\n      add\n      0x00\n      keccak256\n      0x00\n        /* \"Campaign.sol\":2282:2311  supporters[msg.sender] = true */\n      0x0100\n      exp\n      dup2\n      sload\n      dup2\n      0xff\n      mul\n      not\n      and\n      swap1\n      dup4\n      iszero\n      iszero\n      mul\n      or\n      swap1\n      sstore\n      pop\n        /* \"Campaign.sol\":2321:2336  supportersCount */\n      0x09\n      0x00\n        /* \"Campaign.sol\":2321:2338  supportersCount++ */\n      dup2\n      sload\n      dup1\n      swap3\n      swap2\n      swap1\n      tag_178\n      swap1\n      tag_130\n      jump\t// in\n    tag_178:\n      swap2\n      swap1\n      pop\n      sstore\n      pop\n        /* \"Campaign.sol\":2390:2399  msg.value */\n      callvalue\n        /* \"Campaign.sol\":2348:2375  supporterContributionValues */\n      0x08\n        /* \"Campaign.sol\":2348:2387  supporterContributionValues[msg.sender] */\n      0x00\n        /* \"Campaign.sol\":2376:2386  msg.sender */\n      caller\n        /* \"Campaign.sol\":2348:2387  supporterContributionValues[msg.sender] */\n      0xffffffffffffffffffffffffffffffffffffffff\n      and\n      0xffffffffffffffffffffffffffffffffffffffff\n      and\n      dup2\n      mstore\n      0x20\n      add\n      swap1\n      dup2\n      mstore\n      0x20\n      add\n      0x00\n      keccak256\n        /* \"Campaign.sol\":2348:2399  supporterContributionValues[msg.sender] = msg.value */\n      dup2\n      swap1\n      sstore\n      pop\n        /* \"Campaign.sol\":2409:2428  supportersAddresses */\n      0x07\n        /* \"Campaign.sol\":2442:2452  msg.sender */\n      caller\n        /* \"Campaign.sol\":2409:2454  supportersAddresses.push(payable(msg.sender)) */\n      swap1\n      dup1\n      0x01\n      dup2\n      sload\n      add\n      dup1\n      dup3\n      sstore\n      dup1\n      swap2\n      pop\n      pop\n      0x01\n      swap1\n      sub\n      swap1\n      0x00\n      mstore\n      keccak256(0x00, 0x20)\n      add\n      0x00\n      swap1\n      swap2\n      swap1\n      swap2\n      swap1\n      swap2\n      0x0100\n      exp\n      dup2\n      sload\n      dup2\n      0xffffffffffffffffffffffffffffffffffffffff\n      mul\n      not\n      and\n      swap1\n      dup4\n      0xffffffffffffffffffffffffffffffffffffffff\n      and\n      mul\n      or\n      swap1\n      sstore\n      pop\n        /* \"Campaign.sol\":2185:2461  function contribute() public payable {... */\n      jump\t// out\n        /* \"Campaign.sol\":3124:3421  function approveRequest(uint index) public {... */\n    tag_100:\n        /* \"Campaign.sol\":3177:3200  Request storage request */\n      0x00\n        /* \"Campaign.sol\":3203:3211  requests */\n      0x0b\n        /* \"Campaign.sol\":3203:3218  requests[index] */\n      0x00\n        /* \"Campaign.sol\":3212:3217  index */\n      dup4\n        /* \"Campaign.sol\":3203:3218  requests[index] */\n      dup2\n      mstore\n      0x20\n      add\n      swap1\n      dup2\n      mstore\n      0x20\n      add\n      0x00\n      keccak256\n        /* \"Campaign.sol\":3177:3218  Request storage request = requests[index] */\n      swap1\n      pop\n        /* \"Campaign.sol\":3245:3255  supporters */\n      0x06\n        /* \"Campaign.sol\":3245:3267  supporters[msg.sender] */\n      0x00\n        /* \"Campaign.sol\":3256:3266  msg.sender */\n      caller\n        /* \"Campaign.sol\":3245:3267  supporters[msg.sender] */\n      0xffffffffffffffffffffffffffffffffffffffff\n      and\n      0xffffffffffffffffffffffffffffffffffffffff\n      and\n      dup2\n      mstore\n      0x20\n      add\n      swap1\n      dup2\n      mstore\n      0x20\n      add\n      0x00\n      keccak256\n      0x00\n      swap1\n      sload\n      swap1\n      0x0100\n      exp\n      swap1\n      div\n      0xff\n      and\n        /* \"Campaign.sol\":3237:3268  require(supporters[msg.sender]) */\n      tag_181\n      jumpi\n      0x00\n      dup1\n      revert\n    tag_181:\n        /* \"Campaign.sol\":3287:3294  request */\n      dup1\n        /* \"Campaign.sol\":3287:3304  request.approvals */\n      0x04\n      add\n        /* \"Campaign.sol\":3287:3316  request.approvals[msg.sender] */\n      0x00\n        /* \"Campaign.sol\":3305:3315  msg.sender */\n      caller\n        /* \"Campaign.sol\":3287:3316  request.approvals[msg.sender] */\n      0xffffffffffffffffffffffffffffffffffffffff\n      and\n      0xffffffffffffffffffffffffffffffffffffffff\n      and\n      dup2\n      mstore\n      0x20\n      add\n      swap1\n      dup2\n      mstore\n      0x20\n      add\n      0x00\n      keccak256\n      0x00\n      swap1\n      sload\n      swap1\n      0x0100\n      exp\n      swap1\n      div\n      0xff\n      and\n        /* \"Campaign.sol\":3286:3316  !request.approvals[msg.sender] */\n      iszero\n        /* \"Campaign.sol\":3278:3317  require(!request.approvals[msg.sender]) */\n      tag_182\n      jumpi\n      0x00\n      dup1\n      revert\n    tag_182:\n        /* \"Campaign.sol\":3368:3372  true */\n      0x01\n        /* \"Campaign.sol\":3336:3343  request */\n      dup2\n        /* \"Campaign.sol\":3336:3353  request.approvals */\n      0x04\n      add\n        /* \"Campaign.sol\":3336:3365  request.approvals[msg.sender] */\n      0x00\n        /* \"Campaign.sol\":3354:3364  msg.sender */\n      caller\n        /* \"Campaign.sol\":3336:3365  request.approvals[msg.sender] */\n      0xffffffffffffffffffffffffffffffffffffffff\n      and\n      0xffffffffffffffffffffffffffffffffffffffff\n      and\n      dup2\n      mstore\n      0x20\n      add\n      swap1\n      dup2\n      mstore\n      0x20\n      add\n      0x00\n      keccak256\n      0x00\n        /* \"Campaign.sol\":3336:3372  request.approvals[msg.sender] = true */\n      0x0100\n      exp\n      dup2\n      sload\n      dup2\n      0xff\n      mul\n      not\n      and\n      swap1\n      dup4\n      iszero\n      iszero\n      mul\n      or\n      swap1\n      sstore\n      pop\n        /* \"Campaign.sol\":3382:3389  request */\n      dup1\n        /* \"Campaign.sol\":3382:3403  request.approvalCount */\n      0x03\n      add\n      0x00\n        /* \"Campaign.sol\":3382:3405  request.approvalCount++ */\n      dup2\n      sload\n      dup1\n      swap3\n      swap2\n      swap1\n      tag_183\n      swap1\n      tag_130\n      jump\t// in\n    tag_183:\n      swap2\n      swap1\n      pop\n      sstore\n      pop\n        /* \"Campaign.sol\":3167:3421  {... */\n      pop\n        /* \"Campaign.sol\":3124:3421  function approveRequest(uint index) public {... */\n      pop\n      jump\t// out\n        /* \"Campaign.sol\":1442:1469  uint public supportersCount */\n    tag_103:\n      sload(0x09)\n      dup2\n      jump\t// out\n    tag_160:\n      dup3\n      dup1\n      sload\n      tag_184\n      swap1\n      tag_133\n      jump\t// in\n    tag_184:\n      swap1\n      0x00\n      mstore\n      keccak256(0x00, 0x20)\n      swap1\n      0x1f\n      add\n      0x20\n      swap1\n      div\n      dup2\n      add\n      swap3\n      dup3\n      tag_186\n      jumpi\n      0x00\n      dup6\n      sstore\n      jump(tag_185)\n    tag_186:\n      dup3\n      0x1f\n      lt\n      tag_187\n      jumpi\n      dup1\n      mload\n      not(0xff)\n      and\n      dup4\n      dup1\n      add\n      or\n      dup6\n      sstore\n      jump(tag_185)\n    tag_187:\n      dup3\n      dup1\n      add\n      0x01\n      add\n      dup6\n      sstore\n      dup3\n      iszero\n      tag_185\n      jumpi\n      swap2\n      dup3\n      add\n    tag_188:\n      dup3\n      dup2\n      gt\n      iszero\n      tag_189\n      jumpi\n      dup3\n      mload\n      dup3\n      sstore\n      swap2\n      0x20\n      add\n      swap2\n      swap1\n      0x01\n      add\n      swap1\n      jump(tag_188)\n    tag_189:\n    tag_185:\n      pop\n      swap1\n      pop\n      tag_190\n      swap2\n      swap1\n      tag_191\n      jump\t// in\n    tag_190:\n      pop\n      swap1\n      jump\t// out\n    tag_191:\n    tag_192:\n      dup1\n      dup3\n      gt\n      iszero\n      tag_193\n      jumpi\n      0x00\n      dup2\n      0x00\n      swap1\n      sstore\n      pop\n      0x01\n      add\n      jump(tag_192)\n    tag_193:\n      pop\n      swap1\n      jump\t// out\n        /* \"#utility.yul\":7:82   */\n    tag_194:\n        /* \"#utility.yul\":40:46   */\n      0x00\n        /* \"#utility.yul\":73:75   */\n      0x40\n        /* \"#utility.yul\":67:76   */\n      mload\n        /* \"#utility.yul\":57:76   */\n      swap1\n      pop\n        /* \"#utility.yul\":7:82   */\n      swap1\n      jump\t// out\n        /* \"#utility.yul\":88:205   */\n    tag_195:\n        /* \"#utility.yul\":197:198   */\n      0x00\n        /* \"#utility.yul\":194:195   */\n      dup1\n        /* \"#utility.yul\":187:199   */\n      revert\n        /* \"#utility.yul\":211:328   */\n    tag_196:\n        /* \"#utility.yul\":320:321   */\n      0x00\n        /* \"#utility.yul\":317:318   */\n      dup1\n        /* \"#utility.yul\":310:322   */\n      revert\n        /* \"#utility.yul\":334:411   */\n    tag_197:\n        /* \"#utility.yul\":371:378   */\n      0x00\n        /* \"#utility.yul\":400:405   */\n      dup2\n        /* \"#utility.yul\":389:405   */\n      swap1\n      pop\n        /* \"#utility.yul\":334:411   */\n      swap2\n      swap1\n      pop\n      jump\t// out\n        /* \"#utility.yul\":417:539   */\n    tag_198:\n        /* \"#utility.yul\":490:514   */\n      tag_235\n        /* \"#utility.yul\":508:513   */\n      dup2\n        /* \"#utility.yul\":490:514   */\n      tag_197\n      jump\t// in\n    tag_235:\n        /* \"#utility.yul\":483:488   */\n      dup2\n        /* \"#utility.yul\":480:515   */\n      eq\n        /* \"#utility.yul\":470:533   */\n      tag_236\n      jumpi\n        /* \"#utility.yul\":529:530   */\n      0x00\n        /* \"#utility.yul\":526:527   */\n      dup1\n        /* \"#utility.yul\":519:531   */\n      revert\n        /* \"#utility.yul\":470:533   */\n    tag_236:\n        /* \"#utility.yul\":417:539   */\n      pop\n      jump\t// out\n        /* \"#utility.yul\":545:684   */\n    tag_199:\n        /* \"#utility.yul\":591:596   */\n      0x00\n        /* \"#utility.yul\":629:635   */\n      dup2\n        /* \"#utility.yul\":616:636   */\n      calldataload\n        /* \"#utility.yul\":607:636   */\n      swap1\n      pop\n        /* \"#utility.yul\":645:678   */\n      tag_238\n        /* \"#utility.yul\":672:677   */\n      dup2\n        /* \"#utility.yul\":645:678   */\n      tag_198\n      jump\t// in\n    tag_238:\n        /* \"#utility.yul\":545:684   */\n      swap3\n      swap2\n      pop\n      pop\n      jump\t// out\n        /* \"#utility.yul\":690:1019   */\n    tag_26:\n        /* \"#utility.yul\":749:755   */\n      0x00\n        /* \"#utility.yul\":798:800   */\n      0x20\n        /* \"#utility.yul\":786:795   */\n      dup3\n        /* \"#utility.yul\":777:784   */\n      dup5\n        /* \"#utility.yul\":773:796   */\n      sub\n        /* \"#utility.yul\":769:801   */\n      slt\n        /* \"#utility.yul\":766:885   */\n      iszero\n      tag_240\n      jumpi\n        /* \"#utility.yul\":804:883   */\n      tag_241\n      tag_195\n      jump\t// in\n    tag_241:\n        /* \"#utility.yul\":766:885   */\n    tag_240:\n        /* \"#utility.yul\":924:925   */\n      0x00\n        /* \"#utility.yul\":949:1002   */\n      tag_242\n        /* \"#utility.yul\":994:1001   */\n      dup5\n        /* \"#utility.yul\":985:991   */\n      dup3\n        /* \"#utility.yul\":974:983   */\n      dup6\n        /* \"#utility.yul\":970:992   */\n      add\n        /* \"#utility.yul\":949:1002   */\n      tag_199\n      jump\t// in\n    tag_242:\n        /* \"#utility.yul\":939:1002   */\n      swap2\n      pop\n        /* \"#utility.yul\":895:1012   */\n      pop\n        /* \"#utility.yul\":690:1019   */\n      swap3\n      swap2\n      pop\n      pop\n      jump\t// out\n        /* \"#utility.yul\":1025:1151   */\n    tag_200:\n        /* \"#utility.yul\":1062:1069   */\n      0x00\n        /* \"#utility.yul\":1102:1144   */\n      0xffffffffffffffffffffffffffffffffffffffff\n        /* \"#utility.yul\":1095:1100   */\n      dup3\n        /* \"#utility.yul\":1091:1145   */\n      and\n        /* \"#utility.yul\":1080:1145   */\n      swap1\n      pop\n        /* \"#utility.yul\":1025:1151   */\n      swap2\n      swap1\n      pop\n      jump\t// out\n        /* \"#utility.yul\":1157:1253   */\n    tag_201:\n        /* \"#utility.yul\":1194:1201   */\n      0x00\n        /* \"#utility.yul\":1223:1247   */\n      tag_245\n        /* \"#utility.yul\":1241:1246   */\n      dup3\n        /* \"#utility.yul\":1223:1247   */\n      tag_200\n      jump\t// in\n    tag_245:\n        /* \"#utility.yul\":1212:1247   */\n      swap1\n      pop\n        /* \"#utility.yul\":1157:1253   */\n      swap2\n      swap1\n      pop\n      jump\t// out\n        /* \"#utility.yul\":1259:1381   */\n    tag_202:\n        /* \"#utility.yul\":1332:1356   */\n      tag_247\n        /* \"#utility.yul\":1350:1355   */\n      dup2\n        /* \"#utility.yul\":1332:1356   */\n      tag_201\n      jump\t// in\n    tag_247:\n        /* \"#utility.yul\":1325:1330   */\n      dup2\n        /* \"#utility.yul\":1322:1357   */\n      eq\n        /* \"#utility.yul\":1312:1375   */\n      tag_248\n      jumpi\n        /* \"#utility.yul\":1371:1372   */\n      0x00\n        /* \"#utility.yul\":1368:1369   */\n      dup1\n        /* \"#utility.yul\":1361:1373   */\n      revert\n        /* \"#utility.yul\":1312:1375   */\n    tag_248:\n        /* \"#utility.yul\":1259:1381   */\n      pop\n      jump\t// out\n        /* \"#utility.yul\":1387:1526   */\n    tag_203:\n        /* \"#utility.yul\":1433:1438   */\n      0x00\n        /* \"#utility.yul\":1471:1477   */\n      dup2\n        /* \"#utility.yul\":1458:1478   */\n      calldataload\n        /* \"#utility.yul\":1449:1478   */\n      swap1\n      pop\n        /* \"#utility.yul\":1487:1520   */\n      tag_250\n        /* \"#utility.yul\":1514:1519   */\n      dup2\n        /* \"#utility.yul\":1487:1520   */\n      tag_202\n      jump\t// in\n    tag_250:\n        /* \"#utility.yul\":1387:1526   */\n      swap3\n      swap2\n      pop\n      pop\n      jump\t// out\n        /* \"#utility.yul\":1532:1861   */\n    tag_33:\n        /* \"#utility.yul\":1591:1597   */\n      0x00\n        /* \"#utility.yul\":1640:1642   */\n      0x20\n        /* \"#utility.yul\":1628:1637   */\n      dup3\n        /* \"#utility.yul\":1619:1626   */\n      dup5\n        /* \"#utility.yul\":1615:1638   */\n      sub\n        /* \"#utility.yul\":1611:1643   */\n      slt\n        /* \"#utility.yul\":1608:1727   */\n      iszero\n      tag_252\n      jumpi\n        /* \"#utility.yul\":1646:1725   */\n      tag_253\n      tag_195\n      jump\t// in\n    tag_253:\n        /* \"#utility.yul\":1608:1727   */\n    tag_252:\n        /* \"#utility.yul\":1766:1767   */\n      0x00\n        /* \"#utility.yul\":1791:1844   */\n      tag_254\n        /* \"#utility.yul\":1836:1843   */\n      dup5\n        /* \"#utility.yul\":1827:1833   */\n      dup3\n        /* \"#utility.yul\":1816:1825   */\n      dup6\n        /* \"#utility.yul\":1812:1834   */\n      add\n        /* \"#utility.yul\":1791:1844   */\n      tag_203\n      jump\t// in\n    tag_254:\n        /* \"#utility.yul\":1781:1844   */\n      swap2\n      pop\n        /* \"#utility.yul\":1737:1854   */\n      pop\n        /* \"#utility.yul\":1532:1861   */\n      swap3\n      swap2\n      pop\n      pop\n      jump\t// out\n        /* \"#utility.yul\":1867:1985   */\n    tag_204:\n        /* \"#utility.yul\":1954:1978   */\n      tag_256\n        /* \"#utility.yul\":1972:1977   */\n      dup2\n        /* \"#utility.yul\":1954:1978   */\n      tag_197\n      jump\t// in\n    tag_256:\n        /* \"#utility.yul\":1949:1952   */\n      dup3\n        /* \"#utility.yul\":1942:1979   */\n      mstore\n        /* \"#utility.yul\":1867:1985   */\n      pop\n      pop\n      jump\t// out\n        /* \"#utility.yul\":1991:2213   */\n    tag_36:\n        /* \"#utility.yul\":2084:2088   */\n      0x00\n        /* \"#utility.yul\":2122:2124   */\n      0x20\n        /* \"#utility.yul\":2111:2120   */\n      dup3\n        /* \"#utility.yul\":2107:2125   */\n      add\n        /* \"#utility.yul\":2099:2125   */\n      swap1\n      pop\n        /* \"#utility.yul\":2135:2206   */\n      tag_258\n        /* \"#utility.yul\":2203:2204   */\n      0x00\n        /* \"#utility.yul\":2192:2201   */\n      dup4\n        /* \"#utility.yul\":2188:2205   */\n      add\n        /* \"#utility.yul\":2179:2185   */\n      dup5\n        /* \"#utility.yul\":2135:2206   */\n      tag_204\n      jump\t// in\n    tag_258:\n        /* \"#utility.yul\":1991:2213   */\n      swap3\n      swap2\n      pop\n      pop\n      jump\t// out\n        /* \"#utility.yul\":2219:2337   */\n    tag_205:\n        /* \"#utility.yul\":2306:2330   */\n      tag_260\n        /* \"#utility.yul\":2324:2329   */\n      dup2\n        /* \"#utility.yul\":2306:2330   */\n      tag_201\n      jump\t// in\n    tag_260:\n        /* \"#utility.yul\":2301:2304   */\n      dup3\n        /* \"#utility.yul\":2294:2331   */\n      mstore\n        /* \"#utility.yul\":2219:2337   */\n      pop\n      pop\n      jump\t// out\n        /* \"#utility.yul\":2343:2442   */\n    tag_206:\n        /* \"#utility.yul\":2395:2401   */\n      0x00\n        /* \"#utility.yul\":2429:2434   */\n      dup2\n        /* \"#utility.yul\":2423:2435   */\n      mload\n        /* \"#utility.yul\":2413:2435   */\n      swap1\n      pop\n        /* \"#utility.yul\":2343:2442   */\n      swap2\n      swap1\n      pop\n      jump\t// out\n        /* \"#utility.yul\":2448:2617   */\n    tag_207:\n        /* \"#utility.yul\":2532:2543   */\n      0x00\n        /* \"#utility.yul\":2566:2572   */\n      dup3\n        /* \"#utility.yul\":2561:2564   */\n      dup3\n        /* \"#utility.yul\":2554:2573   */\n      mstore\n        /* \"#utility.yul\":2606:2610   */\n      0x20\n        /* \"#utility.yul\":2601:2604   */\n      dup3\n        /* \"#utility.yul\":2597:2611   */\n      add\n        /* \"#utility.yul\":2582:2611   */\n      swap1\n      pop\n        /* \"#utility.yul\":2448:2617   */\n      swap3\n      swap2\n      pop\n      pop\n      jump\t// out\n        /* \"#utility.yul\":2623:2930   */\n    tag_208:\n        /* \"#utility.yul\":2691:2692   */\n      0x00\n        /* \"#utility.yul\":2701:2814   */\n    tag_264:\n        /* \"#utility.yul\":2715:2721   */\n      dup4\n        /* \"#utility.yul\":2712:2713   */\n      dup2\n        /* \"#utility.yul\":2709:2722   */\n      lt\n        /* \"#utility.yul\":2701:2814   */\n      iszero\n      tag_266\n      jumpi\n        /* \"#utility.yul\":2800:2801   */\n      dup1\n        /* \"#utility.yul\":2795:2798   */\n      dup3\n        /* \"#utility.yul\":2791:2802   */\n      add\n        /* \"#utility.yul\":2785:2803   */\n      mload\n        /* \"#utility.yul\":2781:2782   */\n      dup2\n        /* \"#utility.yul\":2776:2779   */\n      dup5\n        /* \"#utility.yul\":2772:2783   */\n      add\n        /* \"#utility.yul\":2765:2804   */\n      mstore\n        /* \"#utility.yul\":2737:2739   */\n      0x20\n        /* \"#utility.yul\":2734:2735   */\n      dup2\n        /* \"#utility.yul\":2730:2740   */\n      add\n        /* \"#utility.yul\":2725:2740   */\n      swap1\n      pop\n        /* \"#utility.yul\":2701:2814   */\n      jump(tag_264)\n    tag_266:\n        /* \"#utility.yul\":2832:2838   */\n      dup4\n        /* \"#utility.yul\":2829:2830   */\n      dup2\n        /* \"#utility.yul\":2826:2839   */\n      gt\n        /* \"#utility.yul\":2823:2924   */\n      iszero\n      tag_267\n      jumpi\n        /* \"#utility.yul\":2912:2913   */\n      0x00\n        /* \"#utility.yul\":2903:2909   */\n      dup5\n        /* \"#utility.yul\":2898:2901   */\n      dup5\n        /* \"#utility.yul\":2894:2910   */\n      add\n        /* \"#utility.yul\":2887:2914   */\n      mstore\n        /* \"#utility.yul\":2823:2924   */\n    tag_267:\n        /* \"#utility.yul\":2672:2930   */\n      pop\n        /* \"#utility.yul\":2623:2930   */\n      pop\n      pop\n      pop\n      jump\t// out\n        /* \"#utility.yul\":2936:3038   */\n    tag_209:\n        /* \"#utility.yul\":2977:2983   */\n      0x00\n        /* \"#utility.yul\":3028:3030   */\n      0x1f\n        /* \"#utility.yul\":3024:3031   */\n      not\n        /* \"#utility.yul\":3019:3021   */\n      0x1f\n        /* \"#utility.yul\":3012:3017   */\n      dup4\n        /* \"#utility.yul\":3008:3022   */\n      add\n        /* \"#utility.yul\":3004:3032   */\n      and\n        /* \"#utility.yul\":2994:3032   */\n      swap1\n      pop\n        /* \"#utility.yul\":2936:3038   */\n      swap2\n      swap1\n      pop\n      jump\t// out\n        /* \"#utility.yul\":3044:3408   */\n    tag_210:\n        /* \"#utility.yul\":3132:3135   */\n      0x00\n        /* \"#utility.yul\":3160:3199   */\n      tag_270\n        /* \"#utility.yul\":3193:3198   */\n      dup3\n        /* \"#utility.yul\":3160:3199   */\n      tag_206\n      jump\t// in\n    tag_270:\n        /* \"#utility.yul\":3215:3286   */\n      tag_271\n        /* \"#utility.yul\":3279:3285   */\n      dup2\n        /* \"#utility.yul\":3274:3277   */\n      dup6\n        /* \"#utility.yul\":3215:3286   */\n      tag_207\n      jump\t// in\n    tag_271:\n        /* \"#utility.yul\":3208:3286   */\n      swap4\n      pop\n        /* \"#utility.yul\":3295:3347   */\n      tag_272\n        /* \"#utility.yul\":3340:3346   */\n      dup2\n        /* \"#utility.yul\":3335:3338   */\n      dup6\n        /* \"#utility.yul\":3328:3332   */\n      0x20\n        /* \"#utility.yul\":3321:3326   */\n      dup7\n        /* \"#utility.yul\":3317:3333   */\n      add\n        /* \"#utility.yul\":3295:3347   */\n      tag_208\n      jump\t// in\n    tag_272:\n        /* \"#utility.yul\":3372:3401   */\n      tag_273\n        /* \"#utility.yul\":3394:3400   */\n      dup2\n        /* \"#utility.yul\":3372:3401   */\n      tag_209\n      jump\t// in\n    tag_273:\n        /* \"#utility.yul\":3367:3370   */\n      dup5\n        /* \"#utility.yul\":3363:3402   */\n      add\n        /* \"#utility.yul\":3356:3402   */\n      swap2\n      pop\n        /* \"#utility.yul\":3136:3408   */\n      pop\n        /* \"#utility.yul\":3044:3408   */\n      swap3\n      swap2\n      pop\n      pop\n      jump\t// out\n        /* \"#utility.yul\":3414:4795   */\n    tag_41:\n        /* \"#utility.yul\":3791:3795   */\n      0x00\n        /* \"#utility.yul\":3829:3832   */\n      0x0120\n        /* \"#utility.yul\":3818:3827   */\n      dup3\n        /* \"#utility.yul\":3814:3833   */\n      add\n        /* \"#utility.yul\":3806:3833   */\n      swap1\n      pop\n        /* \"#utility.yul\":3843:3914   */\n      tag_275\n        /* \"#utility.yul\":3911:3912   */\n      0x00\n        /* \"#utility.yul\":3900:3909   */\n      dup4\n        /* \"#utility.yul\":3896:3913   */\n      add\n        /* \"#utility.yul\":3887:3893   */\n      dup13\n        /* \"#utility.yul\":3843:3914   */\n      tag_204\n      jump\t// in\n    tag_275:\n        /* \"#utility.yul\":3924:3996   */\n      tag_276\n        /* \"#utility.yul\":3992:3994   */\n      0x20\n        /* \"#utility.yul\":3981:3990   */\n      dup4\n        /* \"#utility.yul\":3977:3995   */\n      add\n        /* \"#utility.yul\":3968:3974   */\n      dup12\n        /* \"#utility.yul\":3924:3996   */\n      tag_204\n      jump\t// in\n    tag_276:\n        /* \"#utility.yul\":4006:4078   */\n      tag_277\n        /* \"#utility.yul\":4074:4076   */\n      0x40\n        /* \"#utility.yul\":4063:4072   */\n      dup4\n        /* \"#utility.yul\":4059:4077   */\n      add\n        /* \"#utility.yul\":4050:4056   */\n      dup11\n        /* \"#utility.yul\":4006:4078   */\n      tag_204\n      jump\t// in\n    tag_277:\n        /* \"#utility.yul\":4088:4160   */\n      tag_278\n        /* \"#utility.yul\":4156:4158   */\n      0x60\n        /* \"#utility.yul\":4145:4154   */\n      dup4\n        /* \"#utility.yul\":4141:4159   */\n      add\n        /* \"#utility.yul\":4132:4138   */\n      dup10\n        /* \"#utility.yul\":4088:4160   */\n      tag_204\n      jump\t// in\n    tag_278:\n        /* \"#utility.yul\":4170:4243   */\n      tag_279\n        /* \"#utility.yul\":4238:4241   */\n      0x80\n        /* \"#utility.yul\":4227:4236   */\n      dup4\n        /* \"#utility.yul\":4223:4242   */\n      add\n        /* \"#utility.yul\":4214:4220   */\n      dup9\n        /* \"#utility.yul\":4170:4243   */\n      tag_205\n      jump\t// in\n    tag_279:\n        /* \"#utility.yul\":4291:4300   */\n      dup2\n        /* \"#utility.yul\":4285:4289   */\n      dup2\n        /* \"#utility.yul\":4281:4301   */\n      sub\n        /* \"#utility.yul\":4275:4278   */\n      0xa0\n        /* \"#utility.yul\":4264:4273   */\n      dup4\n        /* \"#utility.yul\":4260:4279   */\n      add\n        /* \"#utility.yul\":4253:4302   */\n      mstore\n        /* \"#utility.yul\":4319:4397   */\n      tag_280\n        /* \"#utility.yul\":4392:4396   */\n      dup2\n        /* \"#utility.yul\":4383:4389   */\n      dup8\n        /* \"#utility.yul\":4319:4397   */\n      tag_210\n      jump\t// in\n    tag_280:\n        /* \"#utility.yul\":4311:4397   */\n      swap1\n      pop\n        /* \"#utility.yul\":4445:4454   */\n      dup2\n        /* \"#utility.yul\":4439:4443   */\n      dup2\n        /* \"#utility.yul\":4435:4455   */\n      sub\n        /* \"#utility.yul\":4429:4432   */\n      0xc0\n        /* \"#utility.yul\":4418:4427   */\n      dup4\n        /* \"#utility.yul\":4414:4433   */\n      add\n        /* \"#utility.yul\":4407:4456   */\n      mstore\n        /* \"#utility.yul\":4473:4551   */\n      tag_281\n        /* \"#utility.yul\":4546:4550   */\n      dup2\n        /* \"#utility.yul\":4537:4543   */\n      dup7\n        /* \"#utility.yul\":4473:4551   */\n      tag_210\n      jump\t// in\n    tag_281:\n        /* \"#utility.yul\":4465:4551   */\n      swap1\n      pop\n        /* \"#utility.yul\":4561:4634   */\n      tag_282\n        /* \"#utility.yul\":4629:4632   */\n      0xe0\n        /* \"#utility.yul\":4618:4627   */\n      dup4\n        /* \"#utility.yul\":4614:4633   */\n      add\n        /* \"#utility.yul\":4605:4611   */\n      dup6\n        /* \"#utility.yul\":4561:4634   */\n      tag_204\n      jump\t// in\n    tag_282:\n        /* \"#utility.yul\":4682:4691   */\n      dup2\n        /* \"#utility.yul\":4676:4680   */\n      dup2\n        /* \"#utility.yul\":4672:4692   */\n      sub\n        /* \"#utility.yul\":4666:4669   */\n      0x0100\n        /* \"#utility.yul\":4655:4664   */\n      dup4\n        /* \"#utility.yul\":4651:4670   */\n      add\n        /* \"#utility.yul\":4644:4693   */\n      mstore\n        /* \"#utility.yul\":4710:4788   */\n      tag_283\n        /* \"#utility.yul\":4783:4787   */\n      dup2\n        /* \"#utility.yul\":4774:4780   */\n      dup5\n        /* \"#utility.yul\":4710:4788   */\n      tag_210\n      jump\t// in\n    tag_283:\n        /* \"#utility.yul\":4702:4788   */\n      swap1\n      pop\n        /* \"#utility.yul\":3414:4795   */\n      swap11\n      swap10\n      pop\n      pop\n      pop\n      pop\n      pop\n      pop\n      pop\n      pop\n      pop\n      pop\n      jump\t// out\n        /* \"#utility.yul\":4801:5023   */\n    tag_46:\n        /* \"#utility.yul\":4894:4898   */\n      0x00\n        /* \"#utility.yul\":4932:4934   */\n      0x20\n        /* \"#utility.yul\":4921:4930   */\n      dup3\n        /* \"#utility.yul\":4917:4935   */\n      add\n        /* \"#utility.yul\":4909:4935   */\n      swap1\n      pop\n        /* \"#utility.yul\":4945:5016   */\n      tag_285\n        /* \"#utility.yul\":5013:5014   */\n      0x00\n        /* \"#utility.yul\":5002:5011   */\n      dup4\n        /* \"#utility.yul\":4998:5015   */\n      add\n        /* \"#utility.yul\":4989:4995   */\n      dup5\n        /* \"#utility.yul\":4945:5016   */\n      tag_205\n      jump\t// in\n    tag_285:\n        /* \"#utility.yul\":4801:5023   */\n      swap3\n      swap2\n      pop\n      pop\n      jump\t// out\n        /* \"#utility.yul\":5029:5133   */\n    tag_211:\n        /* \"#utility.yul\":5074:5081   */\n      0x00\n        /* \"#utility.yul\":5103:5127   */\n      tag_287\n        /* \"#utility.yul\":5121:5126   */\n      dup3\n        /* \"#utility.yul\":5103:5127   */\n      tag_200\n      jump\t// in\n    tag_287:\n        /* \"#utility.yul\":5092:5127   */\n      swap1\n      pop\n        /* \"#utility.yul\":5029:5133   */\n      swap2\n      swap1\n      pop\n      jump\t// out\n        /* \"#utility.yul\":5139:5281   */\n    tag_212:\n        /* \"#utility.yul\":5242:5274   */\n      tag_289\n        /* \"#utility.yul\":5268:5273   */\n      dup2\n        /* \"#utility.yul\":5242:5274   */\n      tag_211\n      jump\t// in\n    tag_289:\n        /* \"#utility.yul\":5237:5240   */\n      dup3\n        /* \"#utility.yul\":5230:5275   */\n      mstore\n        /* \"#utility.yul\":5139:5281   */\n      pop\n      pop\n      jump\t// out\n        /* \"#utility.yul\":5287:5541   */\n    tag_52:\n        /* \"#utility.yul\":5396:5400   */\n      0x00\n        /* \"#utility.yul\":5434:5436   */\n      0x20\n        /* \"#utility.yul\":5423:5432   */\n      dup3\n        /* \"#utility.yul\":5419:5437   */\n      add\n        /* \"#utility.yul\":5411:5437   */\n      swap1\n      pop\n        /* \"#utility.yul\":5447:5534   */\n      tag_291\n        /* \"#utility.yul\":5531:5532   */\n      0x00\n        /* \"#utility.yul\":5520:5529   */\n      dup4\n        /* \"#utility.yul\":5516:5533   */\n      add\n        /* \"#utility.yul\":5507:5513   */\n      dup5\n        /* \"#utility.yul\":5447:5534   */\n      tag_212\n      jump\t// in\n    tag_291:\n        /* \"#utility.yul\":5287:5541   */\n      swap3\n      swap2\n      pop\n      pop\n      jump\t// out\n        /* \"#utility.yul\":5547:5637   */\n    tag_213:\n        /* \"#utility.yul\":5581:5588   */\n      0x00\n        /* \"#utility.yul\":5624:5629   */\n      dup2\n        /* \"#utility.yul\":5617:5630   */\n      iszero\n        /* \"#utility.yul\":5610:5631   */\n      iszero\n        /* \"#utility.yul\":5599:5631   */\n      swap1\n      pop\n        /* \"#utility.yul\":5547:5637   */\n      swap2\n      swap1\n      pop\n      jump\t// out\n        /* \"#utility.yul\":5643:5752   */\n    tag_214:\n        /* \"#utility.yul\":5724:5745   */\n      tag_294\n        /* \"#utility.yul\":5739:5744   */\n      dup2\n        /* \"#utility.yul\":5724:5745   */\n      tag_213\n      jump\t// in\n    tag_294:\n        /* \"#utility.yul\":5719:5722   */\n      dup3\n        /* \"#utility.yul\":5712:5746   */\n      mstore\n        /* \"#utility.yul\":5643:5752   */\n      pop\n      pop\n      jump\t// out\n        /* \"#utility.yul\":5758:5968   */\n    tag_58:\n        /* \"#utility.yul\":5845:5849   */\n      0x00\n        /* \"#utility.yul\":5883:5885   */\n      0x20\n        /* \"#utility.yul\":5872:5881   */\n      dup3\n        /* \"#utility.yul\":5868:5886   */\n      add\n        /* \"#utility.yul\":5860:5886   */\n      swap1\n      pop\n        /* \"#utility.yul\":5896:5961   */\n      tag_296\n        /* \"#utility.yul\":5958:5959   */\n      0x00\n        /* \"#utility.yul\":5947:5956   */\n      dup4\n        /* \"#utility.yul\":5943:5960   */\n      add\n        /* \"#utility.yul\":5934:5940   */\n      dup5\n        /* \"#utility.yul\":5896:5961   */\n      tag_214\n      jump\t// in\n    tag_296:\n        /* \"#utility.yul\":5758:5968   */\n      swap3\n      swap2\n      pop\n      pop\n      jump\t// out\n        /* \"#utility.yul\":5974:6749   */\n    tag_68:\n        /* \"#utility.yul\":6209:6213   */\n      0x00\n        /* \"#utility.yul\":6247:6250   */\n      0xa0\n        /* \"#utility.yul\":6236:6245   */\n      dup3\n        /* \"#utility.yul\":6232:6251   */\n      add\n        /* \"#utility.yul\":6224:6251   */\n      swap1\n      pop\n        /* \"#utility.yul\":6297:6306   */\n      dup2\n        /* \"#utility.yul\":6291:6295   */\n      dup2\n        /* \"#utility.yul\":6287:6307   */\n      sub\n        /* \"#utility.yul\":6283:6284   */\n      0x00\n        /* \"#utility.yul\":6272:6281   */\n      dup4\n        /* \"#utility.yul\":6268:6285   */\n      add\n        /* \"#utility.yul\":6261:6308   */\n      mstore\n        /* \"#utility.yul\":6325:6403   */\n      tag_298\n        /* \"#utility.yul\":6398:6402   */\n      dup2\n        /* \"#utility.yul\":6389:6395   */\n      dup9\n        /* \"#utility.yul\":6325:6403   */\n      tag_210\n      jump\t// in\n    tag_298:\n        /* \"#utility.yul\":6317:6403   */\n      swap1\n      pop\n        /* \"#utility.yul\":6413:6485   */\n      tag_299\n        /* \"#utility.yul\":6481:6483   */\n      0x20\n        /* \"#utility.yul\":6470:6479   */\n      dup4\n        /* \"#utility.yul\":6466:6484   */\n      add\n        /* \"#utility.yul\":6457:6463   */\n      dup8\n        /* \"#utility.yul\":6413:6485   */\n      tag_204\n      jump\t// in\n    tag_299:\n        /* \"#utility.yul\":6495:6583   */\n      tag_300\n        /* \"#utility.yul\":6579:6581   */\n      0x40\n        /* \"#utility.yul\":6568:6577   */\n      dup4\n        /* \"#utility.yul\":6564:6582   */\n      add\n        /* \"#utility.yul\":6555:6561   */\n      dup7\n        /* \"#utility.yul\":6495:6583   */\n      tag_212\n      jump\t// in\n    tag_300:\n        /* \"#utility.yul\":6593:6659   */\n      tag_301\n        /* \"#utility.yul\":6655:6657   */\n      0x60\n        /* \"#utility.yul\":6644:6653   */\n      dup4\n        /* \"#utility.yul\":6640:6658   */\n      add\n        /* \"#utility.yul\":6631:6637   */\n      dup6\n        /* \"#utility.yul\":6593:6659   */\n      tag_214\n      jump\t// in\n    tag_301:\n        /* \"#utility.yul\":6669:6742   */\n      tag_302\n        /* \"#utility.yul\":6737:6740   */\n      0x80\n        /* \"#utility.yul\":6726:6735   */\n      dup4\n        /* \"#utility.yul\":6722:6741   */\n      add\n        /* \"#utility.yul\":6713:6719   */\n      dup5\n        /* \"#utility.yul\":6669:6742   */\n      tag_204\n      jump\t// in\n    tag_302:\n        /* \"#utility.yul\":5974:6749   */\n      swap7\n      swap6\n      pop\n      pop\n      pop\n      pop\n      pop\n      pop\n      jump\t// out\n        /* \"#utility.yul\":6755:6872   */\n    tag_215:\n        /* \"#utility.yul\":6864:6865   */\n      0x00\n        /* \"#utility.yul\":6861:6862   */\n      dup1\n        /* \"#utility.yul\":6854:6866   */\n      revert\n        /* \"#utility.yul\":6878:6995   */\n    tag_216:\n        /* \"#utility.yul\":6987:6988   */\n      0x00\n        /* \"#utility.yul\":6984:6985   */\n      dup1\n        /* \"#utility.yul\":6977:6989   */\n      revert\n        /* \"#utility.yul\":7001:7181   */\n    tag_217:\n        /* \"#utility.yul\":7049:7126   */\n      0x4e487b7100000000000000000000000000000000000000000000000000000000\n        /* \"#utility.yul\":7046:7047   */\n      0x00\n        /* \"#utility.yul\":7039:7127   */\n      mstore\n        /* \"#utility.yul\":7146:7150   */\n      0x41\n        /* \"#utility.yul\":7143:7144   */\n      0x04\n        /* \"#utility.yul\":7136:7151   */\n      mstore\n        /* \"#utility.yul\":7170:7174   */\n      0x24\n        /* \"#utility.yul\":7167:7168   */\n      0x00\n        /* \"#utility.yul\":7160:7175   */\n      revert\n        /* \"#utility.yul\":7187:7468   */\n    tag_218:\n        /* \"#utility.yul\":7270:7297   */\n      tag_307\n        /* \"#utility.yul\":7292:7296   */\n      dup3\n        /* \"#utility.yul\":7270:7297   */\n      tag_209\n      jump\t// in\n    tag_307:\n        /* \"#utility.yul\":7262:7268   */\n      dup2\n        /* \"#utility.yul\":7258:7298   */\n      add\n        /* \"#utility.yul\":7400:7406   */\n      dup2\n        /* \"#utility.yul\":7388:7398   */\n      dup2\n        /* \"#utility.yul\":7385:7407   */\n      lt\n        /* \"#utility.yul\":7364:7382   */\n      0xffffffffffffffff\n        /* \"#utility.yul\":7352:7362   */\n      dup3\n        /* \"#utility.yul\":7349:7383   */\n      gt\n        /* \"#utility.yul\":7346:7408   */\n      or\n        /* \"#utility.yul\":7343:7431   */\n      iszero\n      tag_308\n      jumpi\n        /* \"#utility.yul\":7411:7429   */\n      tag_309\n      tag_217\n      jump\t// in\n    tag_309:\n        /* \"#utility.yul\":7343:7431   */\n    tag_308:\n        /* \"#utility.yul\":7451:7461   */\n      dup1\n        /* \"#utility.yul\":7447:7449   */\n      0x40\n        /* \"#utility.yul\":7440:7462   */\n      mstore\n        /* \"#utility.yul\":7230:7468   */\n      pop\n        /* \"#utility.yul\":7187:7468   */\n      pop\n      pop\n      jump\t// out\n        /* \"#utility.yul\":7474:7603   */\n    tag_219:\n        /* \"#utility.yul\":7508:7514   */\n      0x00\n        /* \"#utility.yul\":7535:7555   */\n      tag_311\n      tag_194\n      jump\t// in\n    tag_311:\n        /* \"#utility.yul\":7525:7555   */\n      swap1\n      pop\n        /* \"#utility.yul\":7564:7597   */\n      tag_312\n        /* \"#utility.yul\":7592:7596   */\n      dup3\n        /* \"#utility.yul\":7584:7590   */\n      dup3\n        /* \"#utility.yul\":7564:7597   */\n      tag_218\n      jump\t// in\n    tag_312:\n        /* \"#utility.yul\":7474:7603   */\n      swap2\n      swap1\n      pop\n      jump\t// out\n        /* \"#utility.yul\":7609:7917   */\n    tag_220:\n        /* \"#utility.yul\":7671:7675   */\n      0x00\n        /* \"#utility.yul\":7761:7779   */\n      0xffffffffffffffff\n        /* \"#utility.yul\":7753:7759   */\n      dup3\n        /* \"#utility.yul\":7750:7780   */\n      gt\n        /* \"#utility.yul\":7747:7803   */\n      iszero\n      tag_314\n      jumpi\n        /* \"#utility.yul\":7783:7801   */\n      tag_315\n      tag_217\n      jump\t// in\n    tag_315:\n        /* \"#utility.yul\":7747:7803   */\n    tag_314:\n        /* \"#utility.yul\":7821:7850   */\n      tag_316\n        /* \"#utility.yul\":7843:7849   */\n      dup3\n        /* \"#utility.yul\":7821:7850   */\n      tag_209\n      jump\t// in\n    tag_316:\n        /* \"#utility.yul\":7813:7850   */\n      swap1\n      pop\n        /* \"#utility.yul\":7905:7909   */\n      0x20\n        /* \"#utility.yul\":7899:7903   */\n      dup2\n        /* \"#utility.yul\":7895:7910   */\n      add\n        /* \"#utility.yul\":7887:7910   */\n      swap1\n      pop\n        /* \"#utility.yul\":7609:7917   */\n      swap2\n      swap1\n      pop\n      jump\t// out\n        /* \"#utility.yul\":7923:8077   */\n    tag_221:\n        /* \"#utility.yul\":8007:8013   */\n      dup3\n        /* \"#utility.yul\":8002:8005   */\n      dup2\n        /* \"#utility.yul\":7997:8000   */\n      dup4\n        /* \"#utility.yul\":7984:8014   */\n      calldatacopy\n        /* \"#utility.yul\":8069:8070   */\n      0x00\n        /* \"#utility.yul\":8060:8066   */\n      dup4\n        /* \"#utility.yul\":8055:8058   */\n      dup4\n        /* \"#utility.yul\":8051:8067   */\n      add\n        /* \"#utility.yul\":8044:8071   */\n      mstore\n        /* \"#utility.yul\":7923:8077   */\n      pop\n      pop\n      pop\n      jump\t// out\n        /* \"#utility.yul\":8083:8495   */\n    tag_222:\n        /* \"#utility.yul\":8161:8166   */\n      0x00\n        /* \"#utility.yul\":8186:8252   */\n      tag_319\n        /* \"#utility.yul\":8202:8251   */\n      tag_320\n        /* \"#utility.yul\":8244:8250   */\n      dup5\n        /* \"#utility.yul\":8202:8251   */\n      tag_220\n      jump\t// in\n    tag_320:\n        /* \"#utility.yul\":8186:8252   */\n      tag_219\n      jump\t// in\n    tag_319:\n        /* \"#utility.yul\":8177:8252   */\n      swap1\n      pop\n        /* \"#utility.yul\":8275:8281   */\n      dup3\n        /* \"#utility.yul\":8268:8273   */\n      dup2\n        /* \"#utility.yul\":8261:8282   */\n      mstore\n        /* \"#utility.yul\":8313:8317   */\n      0x20\n        /* \"#utility.yul\":8306:8311   */\n      dup2\n        /* \"#utility.yul\":8302:8318   */\n      add\n        /* \"#utility.yul\":8351:8354   */\n      dup5\n        /* \"#utility.yul\":8342:8348   */\n      dup5\n        /* \"#utility.yul\":8337:8340   */\n      dup5\n        /* \"#utility.yul\":8333:8349   */\n      add\n        /* \"#utility.yul\":8330:8355   */\n      gt\n        /* \"#utility.yul\":8327:8439   */\n      iszero\n      tag_321\n      jumpi\n        /* \"#utility.yul\":8358:8437   */\n      tag_322\n      tag_216\n      jump\t// in\n    tag_322:\n        /* \"#utility.yul\":8327:8439   */\n    tag_321:\n        /* \"#utility.yul\":8448:8489   */\n      tag_323\n        /* \"#utility.yul\":8482:8488   */\n      dup5\n        /* \"#utility.yul\":8477:8480   */\n      dup3\n        /* \"#utility.yul\":8472:8475   */\n      dup6\n        /* \"#utility.yul\":8448:8489   */\n      tag_221\n      jump\t// in\n    tag_323:\n        /* \"#utility.yul\":8167:8495   */\n      pop\n        /* \"#utility.yul\":8083:8495   */\n      swap4\n      swap3\n      pop\n      pop\n      pop\n      jump\t// out\n        /* \"#utility.yul\":8515:8855   */\n    tag_223:\n        /* \"#utility.yul\":8571:8576   */\n      0x00\n        /* \"#utility.yul\":8620:8623   */\n      dup3\n        /* \"#utility.yul\":8613:8617   */\n      0x1f\n        /* \"#utility.yul\":8605:8611   */\n      dup4\n        /* \"#utility.yul\":8601:8618   */\n      add\n        /* \"#utility.yul\":8597:8624   */\n      slt\n        /* \"#utility.yul\":8587:8709   */\n      tag_325\n      jumpi\n        /* \"#utility.yul\":8628:8707   */\n      tag_326\n      tag_215\n      jump\t// in\n    tag_326:\n        /* \"#utility.yul\":8587:8709   */\n    tag_325:\n        /* \"#utility.yul\":8745:8751   */\n      dup2\n        /* \"#utility.yul\":8732:8752   */\n      calldataload\n        /* \"#utility.yul\":8770:8849   */\n      tag_327\n        /* \"#utility.yul\":8845:8848   */\n      dup5\n        /* \"#utility.yul\":8837:8843   */\n      dup3\n        /* \"#utility.yul\":8830:8834   */\n      0x20\n        /* \"#utility.yul\":8822:8828   */\n      dup7\n        /* \"#utility.yul\":8818:8835   */\n      add\n        /* \"#utility.yul\":8770:8849   */\n      tag_222\n      jump\t// in\n    tag_327:\n        /* \"#utility.yul\":8761:8849   */\n      swap2\n      pop\n        /* \"#utility.yul\":8577:8855   */\n      pop\n        /* \"#utility.yul\":8515:8855   */\n      swap3\n      swap2\n      pop\n      pop\n      jump\t// out\n        /* \"#utility.yul\":8861:8999   */\n    tag_224:\n        /* \"#utility.yul\":8942:8974   */\n      tag_329\n        /* \"#utility.yul\":8968:8973   */\n      dup2\n        /* \"#utility.yul\":8942:8974   */\n      tag_211\n      jump\t// in\n    tag_329:\n        /* \"#utility.yul\":8935:8940   */\n      dup2\n        /* \"#utility.yul\":8932:8975   */\n      eq\n        /* \"#utility.yul\":8922:8993   */\n      tag_330\n      jumpi\n        /* \"#utility.yul\":8989:8990   */\n      0x00\n        /* \"#utility.yul\":8986:8987   */\n      dup1\n        /* \"#utility.yul\":8979:8991   */\n      revert\n        /* \"#utility.yul\":8922:8993   */\n    tag_330:\n        /* \"#utility.yul\":8861:8999   */\n      pop\n      jump\t// out\n        /* \"#utility.yul\":9005:9160   */\n    tag_225:\n        /* \"#utility.yul\":9059:9064   */\n      0x00\n        /* \"#utility.yul\":9097:9103   */\n      dup2\n        /* \"#utility.yul\":9084:9104   */\n      calldataload\n        /* \"#utility.yul\":9075:9104   */\n      swap1\n      pop\n        /* \"#utility.yul\":9113:9154   */\n      tag_332\n        /* \"#utility.yul\":9148:9153   */\n      dup2\n        /* \"#utility.yul\":9113:9154   */\n      tag_224\n      jump\t// in\n    tag_332:\n        /* \"#utility.yul\":9005:9160   */\n      swap3\n      swap2\n      pop\n      pop\n      jump\t// out\n        /* \"#utility.yul\":9166:9981   */\n    tag_72:\n        /* \"#utility.yul\":9261:9267   */\n      0x00\n        /* \"#utility.yul\":9269:9275   */\n      dup1\n        /* \"#utility.yul\":9277:9283   */\n      0x00\n        /* \"#utility.yul\":9326:9328   */\n      0x60\n        /* \"#utility.yul\":9314:9323   */\n      dup5\n        /* \"#utility.yul\":9305:9312   */\n      dup7\n        /* \"#utility.yul\":9301:9324   */\n      sub\n        /* \"#utility.yul\":9297:9329   */\n      slt\n        /* \"#utility.yul\":9294:9413   */\n      iszero\n      tag_334\n      jumpi\n        /* \"#utility.yul\":9332:9411   */\n      tag_335\n      tag_195\n      jump\t// in\n    tag_335:\n        /* \"#utility.yul\":9294:9413   */\n    tag_334:\n        /* \"#utility.yul\":9480:9481   */\n      0x00\n        /* \"#utility.yul\":9469:9478   */\n      dup5\n        /* \"#utility.yul\":9465:9482   */\n      add\n        /* \"#utility.yul\":9452:9483   */\n      calldataload\n        /* \"#utility.yul\":9510:9528   */\n      0xffffffffffffffff\n        /* \"#utility.yul\":9502:9508   */\n      dup2\n        /* \"#utility.yul\":9499:9529   */\n      gt\n        /* \"#utility.yul\":9496:9613   */\n      iszero\n      tag_336\n      jumpi\n        /* \"#utility.yul\":9532:9611   */\n      tag_337\n      tag_196\n      jump\t// in\n    tag_337:\n        /* \"#utility.yul\":9496:9613   */\n    tag_336:\n        /* \"#utility.yul\":9637:9700   */\n      tag_338\n        /* \"#utility.yul\":9692:9699   */\n      dup7\n        /* \"#utility.yul\":9683:9689   */\n      dup3\n        /* \"#utility.yul\":9672:9681   */\n      dup8\n        /* \"#utility.yul\":9668:9690   */\n      add\n        /* \"#utility.yul\":9637:9700   */\n      tag_223\n      jump\t// in\n    tag_338:\n        /* \"#utility.yul\":9627:9700   */\n      swap4\n      pop\n        /* \"#utility.yul\":9423:9710   */\n      pop\n        /* \"#utility.yul\":9749:9751   */\n      0x20\n        /* \"#utility.yul\":9775:9828   */\n      tag_339\n        /* \"#utility.yul\":9820:9827   */\n      dup7\n        /* \"#utility.yul\":9811:9817   */\n      dup3\n        /* \"#utility.yul\":9800:9809   */\n      dup8\n        /* \"#utility.yul\":9796:9818   */\n      add\n        /* \"#utility.yul\":9775:9828   */\n      tag_199\n      jump\t// in\n    tag_339:\n        /* \"#utility.yul\":9765:9828   */\n      swap3\n      pop\n        /* \"#utility.yul\":9720:9838   */\n      pop\n        /* \"#utility.yul\":9877:9879   */\n      0x40\n        /* \"#utility.yul\":9903:9964   */\n      tag_340\n        /* \"#utility.yul\":9956:9963   */\n      dup7\n        /* \"#utility.yul\":9947:9953   */\n      dup3\n        /* \"#utility.yul\":9936:9945   */\n      dup8\n        /* \"#utility.yul\":9932:9954   */\n      add\n        /* \"#utility.yul\":9903:9964   */\n      tag_225\n      jump\t// in\n    tag_340:\n        /* \"#utility.yul\":9893:9964   */\n      swap2\n      pop\n        /* \"#utility.yul\":9848:9974   */\n      pop\n        /* \"#utility.yul\":9166:9981   */\n      swap3\n      pop\n      swap3\n      pop\n      swap3\n      jump\t// out\n        /* \"#utility.yul\":9987:10300   */\n    tag_82:\n        /* \"#utility.yul\":10100:10104   */\n      0x00\n        /* \"#utility.yul\":10138:10140   */\n      0x20\n        /* \"#utility.yul\":10127:10136   */\n      dup3\n        /* \"#utility.yul\":10123:10141   */\n      add\n        /* \"#utility.yul\":10115:10141   */\n      swap1\n      pop\n        /* \"#utility.yul\":10187:10196   */\n      dup2\n        /* \"#utility.yul\":10181:10185   */\n      dup2\n        /* \"#utility.yul\":10177:10197   */\n      sub\n        /* \"#utility.yul\":10173:10174   */\n      0x00\n        /* \"#utility.yul\":10162:10171   */\n      dup4\n        /* \"#utility.yul\":10158:10175   */\n      add\n        /* \"#utility.yul\":10151:10198   */\n      mstore\n        /* \"#utility.yul\":10215:10293   */\n      tag_342\n        /* \"#utility.yul\":10288:10292   */\n      dup2\n        /* \"#utility.yul\":10279:10285   */\n      dup5\n        /* \"#utility.yul\":10215:10293   */\n      tag_210\n      jump\t// in\n    tag_342:\n        /* \"#utility.yul\":10207:10293   */\n      swap1\n      pop\n        /* \"#utility.yul\":9987:10300   */\n      swap3\n      swap2\n      pop\n      pop\n      jump\t// out\n        /* \"#utility.yul\":10306:10486   */\n    tag_226:\n        /* \"#utility.yul\":10354:10431   */\n      0x4e487b7100000000000000000000000000000000000000000000000000000000\n        /* \"#utility.yul\":10351:10352   */\n      0x00\n        /* \"#utility.yul\":10344:10432   */\n      mstore\n        /* \"#utility.yul\":10451:10455   */\n      0x12\n        /* \"#utility.yul\":10448:10449   */\n      0x04\n        /* \"#utility.yul\":10441:10456   */\n      mstore\n        /* \"#utility.yul\":10475:10479   */\n      0x24\n        /* \"#utility.yul\":10472:10473   */\n      0x00\n        /* \"#utility.yul\":10465:10480   */\n      revert\n        /* \"#utility.yul\":10492:10672   */\n    tag_227:\n        /* \"#utility.yul\":10540:10617   */\n      0x4e487b7100000000000000000000000000000000000000000000000000000000\n        /* \"#utility.yul\":10537:10538   */\n      0x00\n        /* \"#utility.yul\":10530:10618   */\n      mstore\n        /* \"#utility.yul\":10637:10641   */\n      0x11\n        /* \"#utility.yul\":10634:10635   */\n      0x04\n        /* \"#utility.yul\":10627:10642   */\n      mstore\n        /* \"#utility.yul\":10661:10665   */\n      0x24\n        /* \"#utility.yul\":10658:10659   */\n      0x00\n        /* \"#utility.yul\":10651:10666   */\n      revert\n        /* \"#utility.yul\":10678:10863   */\n    tag_109:\n        /* \"#utility.yul\":10718:10719   */\n      0x00\n        /* \"#utility.yul\":10735:10755   */\n      tag_346\n        /* \"#utility.yul\":10753:10754   */\n      dup3\n        /* \"#utility.yul\":10735:10755   */\n      tag_197\n      jump\t// in\n    tag_346:\n        /* \"#utility.yul\":10730:10755   */\n      swap2\n      pop\n        /* \"#utility.yul\":10769:10789   */\n      tag_347\n        /* \"#utility.yul\":10787:10788   */\n      dup4\n        /* \"#utility.yul\":10769:10789   */\n      tag_197\n      jump\t// in\n    tag_347:\n        /* \"#utility.yul\":10764:10789   */\n      swap3\n      pop\n        /* \"#utility.yul\":10808:10809   */\n      dup3\n        /* \"#utility.yul\":10798:10833   */\n      tag_348\n      jumpi\n        /* \"#utility.yul\":10813:10831   */\n      tag_349\n      tag_226\n      jump\t// in\n    tag_349:\n        /* \"#utility.yul\":10798:10833   */\n    tag_348:\n        /* \"#utility.yul\":10855:10856   */\n      dup3\n        /* \"#utility.yul\":10852:10853   */\n      dup3\n        /* \"#utility.yul\":10848:10857   */\n      div\n        /* \"#utility.yul\":10843:10857   */\n      swap1\n      pop\n        /* \"#utility.yul\":10678:10863   */\n      swap3\n      swap2\n      pop\n      pop\n      jump\t// out\n        /* \"#utility.yul\":10869:11049   */\n    tag_122:\n        /* \"#utility.yul\":10917:10994   */\n      0x4e487b7100000000000000000000000000000000000000000000000000000000\n        /* \"#utility.yul\":10914:10915   */\n      0x00\n        /* \"#utility.yul\":10907:10995   */\n      mstore\n        /* \"#utility.yul\":11014:11018   */\n      0x32\n        /* \"#utility.yul\":11011:11012   */\n      0x04\n        /* \"#utility.yul\":11004:11019   */\n      mstore\n        /* \"#utility.yul\":11038:11042   */\n      0x24\n        /* \"#utility.yul\":11035:11036   */\n      0x00\n        /* \"#utility.yul\":11028:11043   */\n      revert\n        /* \"#utility.yul\":11055:11288   */\n    tag_130:\n        /* \"#utility.yul\":11094:11097   */\n      0x00\n        /* \"#utility.yul\":11117:11141   */\n      tag_352\n        /* \"#utility.yul\":11135:11140   */\n      dup3\n        /* \"#utility.yul\":11117:11141   */\n      tag_197\n      jump\t// in\n    tag_352:\n        /* \"#utility.yul\":11108:11141   */\n      swap2\n      pop\n        /* \"#utility.yul\":11163:11229   */\n      0xffffffffffffffffffffffffffffffffffffffffffffffffffffffffffffffff\n        /* \"#utility.yul\":11156:11161   */\n      dup3\n        /* \"#utility.yul\":11153:11230   */\n      eq\n        /* \"#utility.yul\":11150:11253   */\n      iszero\n      tag_353\n      jumpi\n        /* \"#utility.yul\":11233:11251   */\n      tag_354\n      tag_227\n      jump\t// in\n    tag_354:\n        /* \"#utility.yul\":11150:11253   */\n    tag_353:\n        /* \"#utility.yul\":11280:11281   */\n      0x01\n        /* \"#utility.yul\":11273:11278   */\n      dup3\n        /* \"#utility.yul\":11269:11282   */\n      add\n        /* \"#utility.yul\":11262:11282   */\n      swap1\n      pop\n        /* \"#utility.yul\":11055:11288   */\n      swap2\n      swap1\n      pop\n      jump\t// out\n        /* \"#utility.yul\":11294:11474   */\n    tag_228:\n        /* \"#utility.yul\":11342:11419   */\n      0x4e487b7100000000000000000000000000000000000000000000000000000000\n        /* \"#utility.yul\":11339:11340   */\n      0x00\n        /* \"#utility.yul\":11332:11420   */\n      mstore\n        /* \"#utility.yul\":11439:11443   */\n      0x22\n        /* \"#utility.yul\":11436:11437   */\n      0x04\n        /* \"#utility.yul\":11429:11444   */\n      mstore\n        /* \"#utility.yul\":11463:11467   */\n      0x24\n        /* \"#utility.yul\":11460:11461   */\n      0x00\n        /* \"#utility.yul\":11453:11468   */\n      revert\n        /* \"#utility.yul\":11480:11800   */\n    tag_133:\n        /* \"#utility.yul\":11524:11530   */\n      0x00\n        /* \"#utility.yul\":11561:11562   */\n      0x02\n        /* \"#utility.yul\":11555:11559   */\n      dup3\n        /* \"#utility.yul\":11551:11563   */\n      div\n        /* \"#utility.yul\":11541:11563   */\n      swap1\n      pop\n        /* \"#utility.yul\":11608:11609   */\n      0x01\n        /* \"#utility.yul\":11602:11606   */\n      dup3\n        /* \"#utility.yul\":11598:11610   */\n      and\n        /* \"#utility.yul\":11629:11647   */\n      dup1\n        /* \"#utility.yul\":11619:11700   */\n      tag_357\n      jumpi\n        /* \"#utility.yul\":11685:11689   */\n      0x7f\n        /* \"#utility.yul\":11677:11683   */\n      dup3\n        /* \"#utility.yul\":11673:11690   */\n      and\n        /* \"#utility.yul\":11663:11690   */\n      swap2\n      pop\n        /* \"#utility.yul\":11619:11700   */\n    tag_357:\n        /* \"#utility.yul\":11747:11749   */\n      0x20\n        /* \"#utility.yul\":11739:11745   */\n      dup3\n        /* \"#utility.yul\":11736:11750   */\n      lt\n        /* \"#utility.yul\":11716:11734   */\n      dup2\n        /* \"#utility.yul\":11713:11751   */\n      eq\n        /* \"#utility.yul\":11710:11794   */\n      iszero\n      tag_358\n      jumpi\n        /* \"#utility.yul\":11766:11784   */\n      tag_359\n      tag_228\n      jump\t// in\n    tag_359:\n        /* \"#utility.yul\":11710:11794   */\n    tag_358:\n        /* \"#utility.yul\":11531:11800   */\n      pop\n        /* \"#utility.yul\":11480:11800   */\n      swap2\n      swap1\n      pop\n      jump\t// out\n\n    auxdata: 0xa26469706673582212204384aa6afe961d9bb03d9027db94060a38b4e1923c1d494d383564077a91c3d264736f6c63430008090033\n}\n","bytecode":{"linkReferences":{},"object":"60806040523480156200001157600080fd5b5060405162001c9338038062001c938339818101604052810190620000379190620003c9565b846000806101000a81548173ffffffffffffffffffffffffffffffffffffffff021916908373ffffffffffffffffffffffffffffffffffffffff16021790555085600581905550836001908051906020019062000096929190620000dc565b508260029080519060200190620000af929190620000dc565b50806004819055508160039080519060200190620000cf929190620000dc565b5050505050505062000527565b828054620000ea90620004f1565b90600052602060002090601f0160209004810192826200010e57600085556200015a565b82601f106200012957805160ff19168380011785556200015a565b828001600101855582156200015a579182015b82811115620001595782518255916020019190600101906200013c565b5b5090506200016991906200016d565b5090565b5b80821115620001885760008160009055506001016200016e565b5090565b6000604051905090565b600080fd5b600080fd5b6000819050919050565b620001b581620001a0565b8114620001c157600080fd5b50565b600081519050620001d581620001aa565b92915050565b600073ffffffffffffffffffffffffffffffffffffffff82169050919050565b60006200020882620001db565b9050919050565b6200021a81620001fb565b81146200022657600080fd5b50565b6000815190506200023a816200020f565b92915050565b600080fd5b600080fd5b6000601f19601f8301169050919050565b7f4e487b7100000000000000000000000000000000000000000000000000000000600052604160045260246000fd5b62000295826200024a565b810181811067ffffffffffffffff82111715620002b757620002b66200025b565b5b80604052505050565b6000620002cc6200018c565b9050620002da82826200028a565b919050565b600067ffffffffffffffff821115620002fd57620002fc6200025b565b5b62000308826200024a565b9050602081019050919050565b60005b838110156200033557808201518184015260208101905062000318565b8381111562000345576000848401525b50505050565b6000620003626200035c84620002df565b620002c0565b90508281526020810184848401111562000381576200038062000245565b5b6200038e84828562000315565b509392505050565b600082601f830112620003ae57620003ad62000240565b5b8151620003c08482602086016200034b565b91505092915050565b60008060008060008060c08789031215620003e957620003e862000196565b5b6000620003f989828a01620001c4565b96505060206200040c89828a0162000229565b955050604087015167ffffffffffffffff81111562000430576200042f6200019b565b5b6200043e89828a0162000396565b945050606087015167ffffffffffffffff8111156200046257620004616200019b565b5b6200047089828a0162000396565b935050608087015167ffffffffffffffff8111156200049457620004936200019b565b5b620004a289828a0162000396565b92505060a0620004b589828a01620001c4565b9150509295509295509295565b7f4e487b7100000000000000000000000000000000000000000000000000000000600052602260045260246000fd5b600060028204905060018216806200050a57607f821691505b60208210811415620005215762000520620004c2565b5b50919050565b61175c80620005376000396000f3fe6080604052600436106101095760003560e01c80638a9cfd5511610095578063b90497e011610064578063b90497e01461036c578063d3087b5714610397578063d7bb99ba146103c2578063d7d1bbdb146103cc578063eb7b1312146103f557610109565b80638a9cfd55146102c2578063937e09b1146102eb5780639a33e300146103165780639fb42b1f1461034157610109565b8063481c6a75116100dc578063481c6a75146101b15780634d80e709146101dc578063647c75e214610219578063700350471461025657806381d12c581461028157610109565b8063034410061461010e578063244c3c2c146101375780632c5cac63146101415780634051ddac1461017e575b600080fd5b34801561011a57600080fd5b50610135600480360381019061013091906110b9565b610420565b005b61013f610559565b005b34801561014d57600080fd5b5061016860048036038101906101639190611144565b610704565b6040516101759190611180565b60405180910390f35b34801561018a57600080fd5b5061019361071c565b6040516101a899989796959493929190611243565b60405180910390f35b3480156101bd57600080fd5b506101c6610920565b6040516101d391906112e5565b60405180910390f35b3480156101e857600080fd5b5061020360048036038101906101fe91906110b9565b610944565b6040516102109190611321565b60405180910390f35b34801561022557600080fd5b50610240600480360381019061023b9190611144565b610983565b60405161024d9190611357565b60405180910390f35b34801561026257600080fd5b5061026b6109a3565b6040516102789190611180565b60405180910390f35b34801561028d57600080fd5b506102a860048036038101906102a391906110b9565b6109a9565b6040516102b9959493929190611372565b60405180910390f35b3480156102ce57600080fd5b506102e960048036038101906102e4919061152d565b610a94565b005b3480156102f757600080fd5b50610300610bab565b60405161030d9190611180565b60405180910390f35b34801561032257600080fd5b5061032b610bb1565b604051610338919061159c565b60405180910390f35b34801561034d57600080fd5b50610356610c3f565b6040516103639190611180565b60405180910390f35b34801561037857600080fd5b50610381610c45565b60405161038e919061159c565b60405180910390f35b3480156103a357600080fd5b506103ac610cd3565b6040516103b9919061159c565b60405180910390f35b6103ca610d61565b005b3480156103d857600080fd5b506103f360048036038101906103ee91906110b9565b610e88565b005b34801561040157600080fd5b5061040a610fc6565b6040516104179190611180565b60405180910390f35b60008054906101000a900473ffffffffffffffffffffffffffffffffffffffff1673ffffffffffffffffffffffffffffffffffffffff163373ffffffffffffffffffffffffffffffffffffffff161461047857600080fd5b6000600b60008381526020019081526020016000209050600260095461049e919061161c565b8160030154116104ad57600080fd5b8060020160149054906101000a900460ff16156104c957600080fd5b8060020160009054906101000a900473ffffffffffffffffffffffffffffffffffffffff1673ffffffffffffffffffffffffffffffffffffffff166108fc82600101549081150290604051600060405180830381858888f19350505050158015610537573d6000803e3d6000fd5b5060018160020160146101000a81548160ff0219169083151502179055505050565b60008054906101000a900473ffffffffffffffffffffffffffffffffffffffff1673ffffffffffffffffffffffffffffffffffffffff163373ffffffffffffffffffffffffffffffffffffffff16146105b157600080fd5b60005b6007805490508110156106d657600781815481106105d5576105d461164d565b5b9060005260206000200160009054906101000a900473ffffffffffffffffffffffffffffffffffffffff1673ffffffffffffffffffffffffffffffffffffffff166108fc60086000600785815481106106315761063061164d565b5b9060005260206000200160009054906101000a900473ffffffffffffffffffffffffffffffffffffffff1673ffffffffffffffffffffffffffffffffffffffff1673ffffffffffffffffffffffffffffffffffffffff168152602001908152602001600020549081150290604051600060405180830381858888f193505050501580156106c2573d6000803e3d6000fd5b5080806106ce9061167c565b9150506105b4565b507335b2e2b694a6a4c28f6631a905fb87eca330469d73ffffffffffffffffffffffffffffffffffffffff16ff5b60086020528060005260406000206000915090505481565b60008060008060006060806000606060055447600a5460095460008054906101000a900473ffffffffffffffffffffffffffffffffffffffff1660016002600454600383805461076b906116f4565b80601f0160208091040260200160405190810160405280929190818152602001828054610797906116f4565b80156107e45780601f106107b9576101008083540402835291602001916107e4565b820191906000526020600020905b8154815290600101906020018083116107c757829003601f168201915b505050505093508280546107f7906116f4565b80601f0160208091040260200160405190810160405280929190818152602001828054610823906116f4565b80156108705780601f1061084557610100808354040283529160200191610870565b820191906000526020600020905b81548152906001019060200180831161085357829003601f168201915b50505050509250808054610883906116f4565b80601f01602080910402602001604051908101604052809291908181526020018280546108af906116f4565b80156108fc5780601f106108d1576101008083540402835291602001916108fc565b820191906000526020600020905b8154815290600101906020018083116108df57829003601f168201915b50505050509050985098509850985098509850985098509850909192939495969798565b60008054906101000a900473ffffffffffffffffffffffffffffffffffffffff1681565b6007818154811061095457600080fd5b906000526020600020016000915054906101000a900473ffffffffffffffffffffffffffffffffffffffff1681565b60066020528060005260406000206000915054906101000a900460ff1681565b60045481565b600b6020528060005260406000206000915090508060000180546109cc906116f4565b80601f01602080910402602001604051908101604052809291908181526020018280546109f8906116f4565b8015610a455780601f10610a1a57610100808354040283529160200191610a45565b820191906000526020600020905b815481529060010190602001808311610a2857829003601f168201915b5050505050908060010154908060020160009054906101000a900473ffffffffffffffffffffffffffffffffffffffff16908060020160149054906101000a900460ff16908060030154905085565b60008054906101000a900473ffffffffffffffffffffffffffffffffffffffff1673ffffffffffffffffffffffffffffffffffffffff163373ffffffffffffffffffffffffffffffffffffffff1614610aec57600080fd5b6000600b6000600a6000815480929190610b059061167c565b919050558152602001908152602001600020905083816000019080519060200190610b31929190610fcc565b50828160010181905550818160020160006101000a81548173ffffffffffffffffffffffffffffffffffffffff021916908373ffffffffffffffffffffffffffffffffffffffff16021790555060008160020160146101000a81548160ff0219169083151502179055506000816003018190555050505050565b60055481565b60018054610bbe906116f4565b80601f0160208091040260200160405190810160405280929190818152602001828054610bea906116f4565b8015610c375780601f10610c0c57610100808354040283529160200191610c37565b820191906000526020600020905b815481529060010190602001808311610c1a57829003601f168201915b505050505081565b600a5481565b60038054610c52906116f4565b80601f0160208091040260200160405190810160405280929190818152602001828054610c7e906116f4565b8015610ccb5780601f10610ca057610100808354040283529160200191610ccb565b820191906000526020600020905b815481529060010190602001808311610cae57829003601f168201915b505050505081565b60028054610ce0906116f4565b80601f0160208091040260200160405190810160405280929190818152602001828054610d0c906116f4565b8015610d595780601f10610d2e57610100808354040283529160200191610d59565b820191906000526020600020905b815481529060010190602001808311610d3c57829003601f168201915b505050505081565b6005543411610d6f57600080fd5b6001600660003373ffffffffffffffffffffffffffffffffffffffff1673ffffffffffffffffffffffffffffffffffffffff16815260200190815260200160002060006101000a81548160ff02191690831515021790555060096000815480929190610dda9061167c565b919050555034600860003373ffffffffffffffffffffffffffffffffffffffff1673ffffffffffffffffffffffffffffffffffffffff168152602001908152602001600020819055506007339080600181540180825580915050600190039060005260206000200160009091909190916101000a81548173ffffffffffffffffffffffffffffffffffffffff021916908373ffffffffffffffffffffffffffffffffffffffff160217905550565b6000600b60008381526020019081526020016000209050600660003373ffffffffffffffffffffffffffffffffffffffff1673ffffffffffffffffffffffffffffffffffffffff16815260200190815260200160002060009054906101000a900460ff16610ef557600080fd5b8060040160003373ffffffffffffffffffffffffffffffffffffffff1673ffffffffffffffffffffffffffffffffffffffff16815260200190815260200160002060009054906101000a900460ff1615610f4e57600080fd5b60018160040160003373ffffffffffffffffffffffffffffffffffffffff1673ffffffffffffffffffffffffffffffffffffffff16815260200190815260200160002060006101000a81548160ff021916908315150217905550806003016000815480929190610fbd9061167c565b91905055505050565b60095481565b828054610fd8906116f4565b90600052602060002090601f016020900481019282610ffa5760008555611041565b82601f1061101357805160ff1916838001178555611041565b82800160010185558215611041579182015b82811115611040578251825591602001919060010190611025565b5b50905061104e9190611052565b5090565b5b8082111561106b576000816000905550600101611053565b5090565b6000604051905090565b600080fd5b600080fd5b6000819050919050565b61109681611083565b81146110a157600080fd5b50565b6000813590506110b38161108d565b92915050565b6000602082840312156110cf576110ce611079565b5b60006110dd848285016110a4565b91505092915050565b600073ffffffffffffffffffffffffffffffffffffffff82169050919050565b6000611111826110e6565b9050919050565b61112181611106565b811461112c57600080fd5b50565b60008135905061113e81611118565b92915050565b60006020828403121561115a57611159611079565b5b60006111688482850161112f565b91505092915050565b61117a81611083565b82525050565b60006020820190506111956000830184611171565b92915050565b6111a481611106565b82525050565b600081519050919050565b600082825260208201905092915050565b60005b838110156111e45780820151818401526020810190506111c9565b838111156111f3576000848401525b50505050565b6000601f19601f8301169050919050565b6000611215826111aa565b61121f81856111b5565b935061122f8185602086016111c6565b611238816111f9565b840191505092915050565b600061012082019050611259600083018c611171565b611266602083018b611171565b611273604083018a611171565b6112806060830189611171565b61128d608083018861119b565b81810360a083015261129f818761120a565b905081810360c08301526112b3818661120a565b90506112c260e0830185611171565b8181036101008301526112d5818461120a565b90509a9950505050505050505050565b60006020820190506112fa600083018461119b565b92915050565b600061130b826110e6565b9050919050565b61131b81611300565b82525050565b60006020820190506113366000830184611312565b92915050565b60008115159050919050565b6113518161133c565b82525050565b600060208201905061136c6000830184611348565b92915050565b600060a082019050818103600083015261138c818861120a565b905061139b6020830187611171565b6113a86040830186611312565b6113b56060830185611348565b6113c26080830184611171565b9695505050505050565b600080fd5b600080fd5b7f4e487b7100000000000000000000000000000000000000000000000000000000600052604160045260246000fd5b61140e826111f9565b810181811067ffffffffffffffff8211171561142d5761142c6113d6565b5b80604052505050565b600061144061106f565b905061144c8282611405565b919050565b600067ffffffffffffffff82111561146c5761146b6113d6565b5b611475826111f9565b9050602081019050919050565b82818337600083830152505050565b60006114a461149f84611451565b611436565b9050828152602081018484840111156114c0576114bf6113d1565b5b6114cb848285611482565b509392505050565b600082601f8301126114e8576114e76113cc565b5b81356114f8848260208601611491565b91505092915050565b61150a81611300565b811461151557600080fd5b50565b60008135905061152781611501565b92915050565b60008060006060848603121561154657611545611079565b5b600084013567ffffffffffffffff8111156115645761156361107e565b5b611570868287016114d3565b9350506020611581868287016110a4565b925050604061159286828701611518565b9150509250925092565b600060208201905081810360008301526115b6818461120a565b905092915050565b7f4e487b7100000000000000000000000000000000000000000000000000000000600052601260045260246000fd5b7f4e487b7100000000000000000000000000000000000000000000000000000000600052601160045260246000fd5b600061162782611083565b915061163283611083565b925082611642576116416115be565b5b828204905092915050565b7f4e487b7100000000000000000000000000000000000000000000000000000000600052603260045260246000fd5b600061168782611083565b91507fffffffffffffffffffffffffffffffffffffffffffffffffffffffffffffffff8214156116ba576116b96115ed565b5b600182019050919050565b7f4e487b7100000000000000000000000000000000000000000000000000000000600052602260045260246000fd5b6000600282049050600182168061170c57607f821691505b602082108114156117205761171f6116c5565b5b5091905056fea26469706673582212204384aa6afe961d9bb03d9027db94060a38b4e1923c1d494d383564077a91c3d264736f6c63430008090033","opcodes":"PUSH1 0x80 PUSH1 0x40 MSTORE CALLVALUE DUP1 ISZERO PUSH3 0x11 JUMPI PUSH1 0x0 DUP1 REVERT JUMPDEST POP PUSH1 0x40 MLOAD PUSH3 0x1C93 CODESIZE SUB DUP1 PUSH3 0x1C93 DUP4 CODECOPY DUP2 DUP2 ADD PUSH1 0x40 MSTORE DUP2 ADD SWAP1 PUSH3 0x37 SWAP2 SWAP1 PUSH3 0x3C9 JUMP JUMPDEST DUP5 PUSH1 0x0 DUP1 PUSH2 0x100 EXP DUP2 SLOAD DUP2 PUSH20 0xFFFFFFFFFFFFFFFFFFFFFFFFFFFFFFFFFFFFFFFF MUL NOT AND SWAP1 DUP4 PUSH20 0xFFFFFFFFFFFFFFFFFFFFFFFFFFFFFFFFFFFFFFFF AND MUL OR SWAP1 SSTORE POP DUP6 PUSH1 0x5 DUP2 SWAP1 SSTORE POP DUP4 PUSH1 0x1 SWAP1 DUP1 MLOAD SWAP1 PUSH1 0x20 ADD SWAP1 PUSH3 0x96 SWAP3 SWAP2 SWAP1 PUSH3 0xDC JUMP JUMPDEST POP DUP3 PUSH1 0x2 SWAP1 DUP1 MLOAD SWAP1 PUSH1 0x20 ADD SWAP1 PUSH3 0xAF SWAP3 SWAP2 SWAP1 PUSH3 0xDC JUMP JUMPDEST POP DUP1 PUSH1 0x4 DUP2 SWAP1 SSTORE POP DUP2 PUSH1 0x3 SWAP1 DUP1 MLOAD SWAP1 PUSH1 0x20 ADD SWAP1 PUSH3 0xCF SWAP3 SWAP2 SWAP1 PUSH3 0xDC JUMP JUMPDEST POP POP POP POP POP POP POP PUSH3 0x527 JUMP JUMPDEST DUP3 DUP1 SLOAD PUSH3 0xEA SWAP1 PUSH3 0x4F1 JUMP JUMPDEST SWAP1 PUSH1 0x0 MSTORE PUSH1 0x20 PUSH1 0x0 KECCAK256 SWAP1 PUSH1 0x1F ADD PUSH1 0x20 SWAP1 DIV DUP2 ADD SWAP3 DUP3 PUSH3 0x10E JUMPI PUSH1 0x0 DUP6 SSTORE PUSH3 0x15A JUMP JUMPDEST DUP3 PUSH1 0x1F LT PUSH3 0x129 JUMPI DUP1 MLOAD PUSH1 0xFF NOT AND DUP4 DUP1 ADD OR DUP6 SSTORE PUSH3 0x15A JUMP JUMPDEST DUP3 DUP1 ADD PUSH1 0x1 ADD DUP6 SSTORE DUP3 ISZERO PUSH3 0x15A JUMPI SWAP2 DUP3 ADD JUMPDEST DUP3 DUP2 GT ISZERO PUSH3 0x159 JUMPI DUP3 MLOAD DUP3 SSTORE SWAP2 PUSH1 0x20 ADD SWAP2 SWAP1 PUSH1 0x1 ADD SWAP1 PUSH3 0x13C JUMP JUMPDEST JUMPDEST POP SWAP1 POP PUSH3 0x169 SWAP2 SWAP1 PUSH3 0x16D JUMP JUMPDEST POP SWAP1 JUMP JUMPDEST JUMPDEST DUP1 DUP3 GT ISZERO PUSH3 0x188 JUMPI PUSH1 0x0 DUP2 PUSH1 0x0 SWAP1 SSTORE POP PUSH1 0x1 ADD PUSH3 0x16E JUMP JUMPDEST POP SWAP1 JUMP JUMPDEST PUSH1 0x0 PUSH1 0x40 MLOAD SWAP1 POP SWAP1 JUMP JUMPDEST PUSH1 0x0 DUP1 REVERT JUMPDEST PUSH1 0x0 DUP1 REVERT JUMPDEST PUSH1 0x0 DUP2 SWAP1 POP SWAP2 SWAP1 POP JUMP JUMPDEST PUSH3 0x1B5 DUP2 PUSH3 0x1A0 JUMP JUMPDEST DUP2 EQ PUSH3 0x1C1 JUMPI PUSH1 0x0 DUP1 REVERT JUMPDEST POP JUMP JUMPDEST PUSH1 0x0 DUP2 MLOAD SWAP1 POP PUSH3 0x1D5 DUP2 PUSH3 0x1AA JUMP JUMPDEST SWAP3 SWAP2 POP POP JUMP JUMPDEST PUSH1 0x0 PUSH20 0xFFFFFFFFFFFFFFFFFFFFFFFFFFFFFFFFFFFFFFFF DUP3 AND SWAP1 POP SWAP2 SWAP1 POP JUMP JUMPDEST PUSH1 0x0 PUSH3 0x208 DUP3 PUSH3 0x1DB JUMP JUMPDEST SWAP1 POP SWAP2 SWAP1 POP JUMP JUMPDEST PUSH3 0x21A DUP2 PUSH3 0x1FB JUMP JUMPDEST DUP2 EQ PUSH3 0x226 JUMPI PUSH1 0x0 DUP1 REVERT JUMPDEST POP JUMP JUMPDEST PUSH1 0x0 DUP2 MLOAD SWAP1 POP PUSH3 0x23A DUP2 PUSH3 0x20F JUMP JUMPDEST SWAP3 SWAP2 POP POP JUMP JUMPDEST PUSH1 0x0 DUP1 REVERT JUMPDEST PUSH1 0x0 DUP1 REVERT JUMPDEST PUSH1 0x0 PUSH1 0x1F NOT PUSH1 0x1F DUP4 ADD AND SWAP1 POP SWAP2 SWAP1 POP JUMP JUMPDEST PUSH32 0x4E487B7100000000000000000000000000000000000000000000000000000000 PUSH1 0x0 MSTORE PUSH1 0x41 PUSH1 0x4 MSTORE PUSH1 0x24 PUSH1 0x0 REVERT JUMPDEST PUSH3 0x295 DUP3 PUSH3 0x24A JUMP JUMPDEST DUP2 ADD DUP2 DUP2 LT PUSH8 0xFFFFFFFFFFFFFFFF DUP3 GT OR ISZERO PUSH3 0x2B7 JUMPI PUSH3 0x2B6 PUSH3 0x25B JUMP JUMPDEST JUMPDEST DUP1 PUSH1 0x40 MSTORE POP POP POP JUMP JUMPDEST PUSH1 0x0 PUSH3 0x2CC PUSH3 0x18C JUMP JUMPDEST SWAP1 POP PUSH3 0x2DA DUP3 DUP3 PUSH3 0x28A JUMP JUMPDEST SWAP2 SWAP1 POP JUMP JUMPDEST PUSH1 0x0 PUSH8 0xFFFFFFFFFFFFFFFF DUP3 GT ISZERO PUSH3 0x2FD JUMPI PUSH3 0x2FC PUSH3 0x25B JUMP JUMPDEST JUMPDEST PUSH3 0x308 DUP3 PUSH3 0x24A JUMP JUMPDEST SWAP1 POP PUSH1 0x20 DUP2 ADD SWAP1 POP SWAP2 SWAP1 POP JUMP JUMPDEST PUSH1 0x0 JUMPDEST DUP4 DUP2 LT ISZERO PUSH3 0x335 JUMPI DUP1 DUP3 ADD MLOAD DUP2 DUP5 ADD MSTORE PUSH1 0x20 DUP2 ADD SWAP1 POP PUSH3 0x318 JUMP JUMPDEST DUP4 DUP2 GT ISZERO PUSH3 0x345 JUMPI PUSH1 0x0 DUP5 DUP5 ADD MSTORE JUMPDEST POP POP POP POP JUMP JUMPDEST PUSH1 0x0 PUSH3 0x362 PUSH3 0x35C DUP5 PUSH3 0x2DF JUMP JUMPDEST PUSH3 0x2C0 JUMP JUMPDEST SWAP1 POP DUP3 DUP2 MSTORE PUSH1 0x20 DUP2 ADD DUP5 DUP5 DUP5 ADD GT ISZERO PUSH3 0x381 JUMPI PUSH3 0x380 PUSH3 0x245 JUMP JUMPDEST JUMPDEST PUSH3 0x38E DUP5 DUP3 DUP6 PUSH3 0x315 JUMP JUMPDEST POP SWAP4 SWAP3 POP POP POP JUMP JUMPDEST PUSH1 0x0 DUP3 PUSH1 0x1F DUP4 ADD SLT PUSH3 0x3AE JUMPI PUSH3 0x3AD PUSH3 0x240 JUMP JUMPDEST JUMPDEST DUP2 MLOAD PUSH3 0x3C0 DUP5 DUP3 PUSH1 0x20 DUP7 ADD PUSH3 0x34B JUMP JUMPDEST SWAP2 POP POP SWAP3 SWAP2 POP POP JUMP JUMPDEST PUSH1 0x0 DUP1 PUSH1 0x0 DUP1 PUSH1 0x0 DUP1 PUSH1 0xC0 DUP8 DUP10 SUB SLT ISZERO PUSH3 0x3E9 JUMPI PUSH3 0x3E8 PUSH3 0x196 JUMP JUMPDEST JUMPDEST PUSH1 0x0 PUSH3 0x3F9 DUP10 DUP3 DUP11 ADD PUSH3 0x1C4 JUMP JUMPDEST SWAP7 POP POP PUSH1 0x20 PUSH3 0x40C DUP10 DUP3 DUP11 ADD PUSH3 0x229 JUMP JUMPDEST SWAP6 POP POP PUSH1 0x40 DUP8 ADD MLOAD PUSH8 0xFFFFFFFFFFFFFFFF DUP2 GT ISZERO PUSH3 0x430 JUMPI PUSH3 0x42F PUSH3 0x19B JUMP JUMPDEST JUMPDEST PUSH3 0x43E DUP10 DUP3 DUP11 ADD PUSH3 0x396 JUMP JUMPDEST SWAP5 POP POP PUSH1 0x60 DUP8 ADD MLOAD PUSH8 0xFFFFFFFFFFFFFFFF DUP2 GT ISZERO PUSH3 0x462 JUMPI PUSH3 0x461 PUSH3 0x19B JUMP JUMPDEST JUMPDEST PUSH3 0x470 DUP10 DUP3 DUP11 ADD PUSH3 0x396 JUMP JUMPDEST SWAP4 POP POP PUSH1 0x80 DUP8 ADD MLOAD PUSH8 0xFFFFFFFFFFFFFFFF DUP2 GT ISZERO PUSH3 0x494 JUMPI PUSH3 0x493 PUSH3 0x19B JUMP JUMPDEST JUMPDEST PUSH3 0x4A2 DUP10 DUP3 DUP11 ADD PUSH3 0x396 JUMP JUMPDEST SWAP3 POP POP PUSH1 0xA0 PUSH3 0x4B5 DUP10 DUP3 DUP11 ADD PUSH3 0x1C4 JUMP JUMPDEST SWAP2 POP POP SWAP3 SWAP6 POP SWAP3 SWAP6 POP SWAP3 SWAP6 JUMP JUMPDEST PUSH32 0x4E487B7100000000000000000000000000000000000000000000000000000000 PUSH1 0x0 MSTORE PUSH1 0x22 PUSH1 0x4 MSTORE PUSH1 0x24 PUSH1 0x0 REVERT JUMPDEST PUSH1 0x0 PUSH1 0x2 DUP3 DIV SWAP1 POP PUSH1 0x1 DUP3 AND DUP1 PUSH3 0x50A JUMPI PUSH1 0x7F DUP3 AND SWAP2 POP JUMPDEST PUSH1 0x20 DUP3 LT DUP2 EQ ISZERO PUSH3 0x521 JUMPI PUSH3 0x520 PUSH3 0x4C2 JUMP JUMPDEST JUMPDEST POP SWAP2 SWAP1 POP JUMP JUMPDEST PUSH2 0x175C DUP1 PUSH3 0x537 PUSH1 0x0 CODECOPY PUSH1 0x0 RETURN INVALID PUSH1 0x80 PUSH1 0x40 MSTORE PUSH1 0x4 CALLDATASIZE LT PUSH2 0x109 JUMPI PUSH1 0x0 CALLDATALOAD PUSH1 0xE0 SHR DUP1 PUSH4 0x8A9CFD55 GT PUSH2 0x95 JUMPI DUP1 PUSH4 0xB90497E0 GT PUSH2 0x64 JUMPI DUP1 PUSH4 0xB90497E0 EQ PUSH2 0x36C JUMPI DUP1 PUSH4 0xD3087B57 EQ PUSH2 0x397 JUMPI DUP1 PUSH4 0xD7BB99BA EQ PUSH2 0x3C2 JUMPI DUP1 PUSH4 0xD7D1BBDB EQ PUSH2 0x3CC JUMPI DUP1 PUSH4 0xEB7B1312 EQ PUSH2 0x3F5 JUMPI PUSH2 0x109 JUMP JUMPDEST DUP1 PUSH4 0x8A9CFD55 EQ PUSH2 0x2C2 JUMPI DUP1 PUSH4 0x937E09B1 EQ PUSH2 0x2EB JUMPI DUP1 PUSH4 0x9A33E300 EQ PUSH2 0x316 JUMPI DUP1 PUSH4 0x9FB42B1F EQ PUSH2 0x341 JUMPI PUSH2 0x109 JUMP JUMPDEST DUP1 PUSH4 0x481C6A75 GT PUSH2 0xDC JUMPI DUP1 PUSH4 0x481C6A75 EQ PUSH2 0x1B1 JUMPI DUP1 PUSH4 0x4D80E709 EQ PUSH2 0x1DC JUMPI DUP1 PUSH4 0x647C75E2 EQ PUSH2 0x219 JUMPI DUP1 PUSH4 0x70035047 EQ PUSH2 0x256 JUMPI DUP1 PUSH4 0x81D12C58 EQ PUSH2 0x281 JUMPI PUSH2 0x109 JUMP JUMPDEST DUP1 PUSH4 0x3441006 EQ PUSH2 0x10E JUMPI DUP1 PUSH4 0x244C3C2C EQ PUSH2 0x137 JUMPI DUP1 PUSH4 0x2C5CAC63 EQ PUSH2 0x141 JUMPI DUP1 PUSH4 0x4051DDAC EQ PUSH2 0x17E JUMPI JUMPDEST PUSH1 0x0 DUP1 REVERT JUMPDEST CALLVALUE DUP1 ISZERO PUSH2 0x11A JUMPI PUSH1 0x0 DUP1 REVERT JUMPDEST POP PUSH2 0x135 PUSH1 0x4 DUP1 CALLDATASIZE SUB DUP2 ADD SWAP1 PUSH2 0x130 SWAP2 SWAP1 PUSH2 0x10B9 JUMP JUMPDEST PUSH2 0x420 JUMP JUMPDEST STOP JUMPDEST PUSH2 0x13F PUSH2 0x559 JUMP JUMPDEST STOP JUMPDEST CALLVALUE DUP1 ISZERO PUSH2 0x14D JUMPI PUSH1 0x0 DUP1 REVERT JUMPDEST POP PUSH2 0x168 PUSH1 0x4 DUP1 CALLDATASIZE SUB DUP2 ADD SWAP1 PUSH2 0x163 SWAP2 SWAP1 PUSH2 0x1144 JUMP JUMPDEST PUSH2 0x704 JUMP JUMPDEST PUSH1 0x40 MLOAD PUSH2 0x175 SWAP2 SWAP1 PUSH2 0x1180 JUMP JUMPDEST PUSH1 0x40 MLOAD DUP1 SWAP2 SUB SWAP1 RETURN JUMPDEST CALLVALUE DUP1 ISZERO PUSH2 0x18A JUMPI PUSH1 0x0 DUP1 REVERT JUMPDEST POP PUSH2 0x193 PUSH2 0x71C JUMP JUMPDEST PUSH1 0x40 MLOAD PUSH2 0x1A8 SWAP10 SWAP9 SWAP8 SWAP7 SWAP6 SWAP5 SWAP4 SWAP3 SWAP2 SWAP1 PUSH2 0x1243 JUMP JUMPDEST PUSH1 0x40 MLOAD DUP1 SWAP2 SUB SWAP1 RETURN JUMPDEST CALLVALUE DUP1 ISZERO PUSH2 0x1BD JUMPI PUSH1 0x0 DUP1 REVERT JUMPDEST POP PUSH2 0x1C6 PUSH2 0x920 JUMP JUMPDEST PUSH1 0x40 MLOAD PUSH2 0x1D3 SWAP2 SWAP1 PUSH2 0x12E5 JUMP JUMPDEST PUSH1 0x40 MLOAD DUP1 SWAP2 SUB SWAP1 RETURN JUMPDEST CALLVALUE DUP1 ISZERO PUSH2 0x1E8 JUMPI PUSH1 0x0 DUP1 REVERT JUMPDEST POP PUSH2 0x203 PUSH1 0x4 DUP1 CALLDATASIZE SUB DUP2 ADD SWAP1 PUSH2 0x1FE SWAP2 SWAP1 PUSH2 0x10B9 JUMP JUMPDEST PUSH2 0x944 JUMP JUMPDEST PUSH1 0x40 MLOAD PUSH2 0x210 SWAP2 SWAP1 PUSH2 0x1321 JUMP JUMPDEST PUSH1 0x40 MLOAD DUP1 SWAP2 SUB SWAP1 RETURN JUMPDEST CALLVALUE DUP1 ISZERO PUSH2 0x225 JUMPI PUSH1 0x0 DUP1 REVERT JUMPDEST POP PUSH2 0x240 PUSH1 0x4 DUP1 CALLDATASIZE SUB DUP2 ADD SWAP1 PUSH2 0x23B SWAP2 SWAP1 PUSH2 0x1144 JUMP JUMPDEST PUSH2 0x983 JUMP JUMPDEST PUSH1 0x40 MLOAD PUSH2 0x24D SWAP2 SWAP1 PUSH2 0x1357 JUMP JUMPDEST PUSH1 0x40 MLOAD DUP1 SWAP2 SUB SWAP1 RETURN JUMPDEST CALLVALUE DUP1 ISZERO PUSH2 0x262 JUMPI PUSH1 0x0 DUP1 REVERT JUMPDEST POP PUSH2 0x26B PUSH2 0x9A3 JUMP JUMPDEST PUSH1 0x40 MLOAD PUSH2 0x278 SWAP2 SWAP1 PUSH2 0x1180 JUMP JUMPDEST PUSH1 0x40 MLOAD DUP1 SWAP2 SUB SWAP1 RETURN JUMPDEST CALLVALUE DUP1 ISZERO PUSH2 0x28D JUMPI PUSH1 0x0 DUP1 REVERT JUMPDEST POP PUSH2 0x2A8 PUSH1 0x4 DUP1 CALLDATASIZE SUB DUP2 ADD SWAP1 PUSH2 0x2A3 SWAP2 SWAP1 PUSH2 0x10B9 JUMP JUMPDEST PUSH2 0x9A9 JUMP JUMPDEST PUSH1 0x40 MLOAD PUSH2 0x2B9 SWAP6 SWAP5 SWAP4 SWAP3 SWAP2 SWAP1 PUSH2 0x1372 JUMP JUMPDEST PUSH1 0x40 MLOAD DUP1 SWAP2 SUB SWAP1 RETURN JUMPDEST CALLVALUE DUP1 ISZERO PUSH2 0x2CE JUMPI PUSH1 0x0 DUP1 REVERT JUMPDEST POP PUSH2 0x2E9 PUSH1 0x4 DUP1 CALLDATASIZE SUB DUP2 ADD SWAP1 PUSH2 0x2E4 SWAP2 SWAP1 PUSH2 0x152D JUMP JUMPDEST PUSH2 0xA94 JUMP JUMPDEST STOP JUMPDEST CALLVALUE DUP1 ISZERO PUSH2 0x2F7 JUMPI PUSH1 0x0 DUP1 REVERT JUMPDEST POP PUSH2 0x300 PUSH2 0xBAB JUMP JUMPDEST PUSH1 0x40 MLOAD PUSH2 0x30D SWAP2 SWAP1 PUSH2 0x1180 JUMP JUMPDEST PUSH1 0x40 MLOAD DUP1 SWAP2 SUB SWAP1 RETURN JUMPDEST CALLVALUE DUP1 ISZERO PUSH2 0x322 JUMPI PUSH1 0x0 DUP1 REVERT JUMPDEST POP PUSH2 0x32B PUSH2 0xBB1 JUMP JUMPDEST PUSH1 0x40 MLOAD PUSH2 0x338 SWAP2 SWAP1 PUSH2 0x159C JUMP JUMPDEST PUSH1 0x40 MLOAD DUP1 SWAP2 SUB SWAP1 RETURN JUMPDEST CALLVALUE DUP1 ISZERO PUSH2 0x34D JUMPI PUSH1 0x0 DUP1 REVERT JUMPDEST POP PUSH2 0x356 PUSH2 0xC3F JUMP JUMPDEST PUSH1 0x40 MLOAD PUSH2 0x363 SWAP2 SWAP1 PUSH2 0x1180 JUMP JUMPDEST PUSH1 0x40 MLOAD DUP1 SWAP2 SUB SWAP1 RETURN JUMPDEST CALLVALUE DUP1 ISZERO PUSH2 0x378 JUMPI PUSH1 0x0 DUP1 REVERT JUMPDEST POP PUSH2 0x381 PUSH2 0xC45 JUMP JUMPDEST PUSH1 0x40 MLOAD PUSH2 0x38E SWAP2 SWAP1 PUSH2 0x159C JUMP JUMPDEST PUSH1 0x40 MLOAD DUP1 SWAP2 SUB SWAP1 RETURN JUMPDEST CALLVALUE DUP1 ISZERO PUSH2 0x3A3 JUMPI PUSH1 0x0 DUP1 REVERT JUMPDEST POP PUSH2 0x3AC PUSH2 0xCD3 JUMP JUMPDEST PUSH1 0x40 MLOAD PUSH2 0x3B9 SWAP2 SWAP1 PUSH2 0x159C JUMP JUMPDEST PUSH1 0x40 MLOAD DUP1 SWAP2 SUB SWAP1 RETURN JUMPDEST PUSH2 0x3CA PUSH2 0xD61 JUMP JUMPDEST STOP JUMPDEST CALLVALUE DUP1 ISZERO PUSH2 0x3D8 JUMPI PUSH1 0x0 DUP1 REVERT JUMPDEST POP PUSH2 0x3F3 PUSH1 0x4 DUP1 CALLDATASIZE SUB DUP2 ADD SWAP1 PUSH2 0x3EE SWAP2 SWAP1 PUSH2 0x10B9 JUMP JUMPDEST PUSH2 0xE88 JUMP JUMPDEST STOP JUMPDEST CALLVALUE DUP1 ISZERO PUSH2 0x401 JUMPI PUSH1 0x0 DUP1 REVERT JUMPDEST POP PUSH2 0x40A PUSH2 0xFC6 JUMP JUMPDEST PUSH1 0x40 MLOAD PUSH2 0x417 SWAP2 SWAP1 PUSH2 0x1180 JUMP JUMPDEST PUSH1 0x40 MLOAD DUP1 SWAP2 SUB SWAP1 RETURN JUMPDEST PUSH1 0x0 DUP1 SLOAD SWAP1 PUSH2 0x100 EXP SWAP1 DIV PUSH20 0xFFFFFFFFFFFFFFFFFFFFFFFFFFFFFFFFFFFFFFFF AND PUSH20 0xFFFFFFFFFFFFFFFFFFFFFFFFFFFFFFFFFFFFFFFF AND CALLER PUSH20 0xFFFFFFFFFFFFFFFFFFFFFFFFFFFFFFFFFFFFFFFF AND EQ PUSH2 0x478 JUMPI PUSH1 0x0 DUP1 REVERT JUMPDEST PUSH1 0x0 PUSH1 0xB PUSH1 0x0 DUP4 DUP2 MSTORE PUSH1 0x20 ADD SWAP1 DUP2 MSTORE PUSH1 0x20 ADD PUSH1 0x0 KECCAK256 SWAP1 POP PUSH1 0x2 PUSH1 0x9 SLOAD PUSH2 0x49E SWAP2 SWAP1 PUSH2 0x161C JUMP JUMPDEST DUP2 PUSH1 0x3 ADD SLOAD GT PUSH2 0x4AD JUMPI PUSH1 0x0 DUP1 REVERT JUMPDEST DUP1 PUSH1 0x2 ADD PUSH1 0x14 SWAP1 SLOAD SWAP1 PUSH2 0x100 EXP SWAP1 DIV PUSH1 0xFF AND ISZERO PUSH2 0x4C9 JUMPI PUSH1 0x0 DUP1 REVERT JUMPDEST DUP1 PUSH1 0x2 ADD PUSH1 0x0 SWAP1 SLOAD SWAP1 PUSH2 0x100 EXP SWAP1 DIV PUSH20 0xFFFFFFFFFFFFFFFFFFFFFFFFFFFFFFFFFFFFFFFF AND PUSH20 0xFFFFFFFFFFFFFFFFFFFFFFFFFFFFFFFFFFFFFFFF AND PUSH2 0x8FC DUP3 PUSH1 0x1 ADD SLOAD SWAP1 DUP2 ISZERO MUL SWAP1 PUSH1 0x40 MLOAD PUSH1 0x0 PUSH1 0x40 MLOAD DUP1 DUP4 SUB DUP2 DUP6 DUP9 DUP9 CALL SWAP4 POP POP POP POP ISZERO DUP1 ISZERO PUSH2 0x537 JUMPI RETURNDATASIZE PUSH1 0x0 DUP1 RETURNDATACOPY RETURNDATASIZE PUSH1 0x0 REVERT JUMPDEST POP PUSH1 0x1 DUP2 PUSH1 0x2 ADD PUSH1 0x14 PUSH2 0x100 EXP DUP2 SLOAD DUP2 PUSH1 0xFF MUL NOT AND SWAP1 DUP4 ISZERO ISZERO MUL OR SWAP1 SSTORE POP POP POP JUMP JUMPDEST PUSH1 0x0 DUP1 SLOAD SWAP1 PUSH2 0x100 EXP SWAP1 DIV PUSH20 0xFFFFFFFFFFFFFFFFFFFFFFFFFFFFFFFFFFFFFFFF AND PUSH20 0xFFFFFFFFFFFFFFFFFFFFFFFFFFFFFFFFFFFFFFFF AND CALLER PUSH20 0xFFFFFFFFFFFFFFFFFFFFFFFFFFFFFFFFFFFFFFFF AND EQ PUSH2 0x5B1 JUMPI PUSH1 0x0 DUP1 REVERT JUMPDEST PUSH1 0x0 JUMPDEST PUSH1 0x7 DUP1 SLOAD SWAP1 POP DUP2 LT ISZERO PUSH2 0x6D6 JUMPI PUSH1 0x7 DUP2 DUP2 SLOAD DUP2 LT PUSH2 0x5D5 JUMPI PUSH2 0x5D4 PUSH2 0x164D JUMP JUMPDEST JUMPDEST SWAP1 PUSH1 0x0 MSTORE PUSH1 0x20 PUSH1 0x0 KECCAK256 ADD PUSH1 0x0 SWAP1 SLOAD SWAP1 PUSH2 0x100 EXP SWAP1 DIV PUSH20 0xFFFFFFFFFFFFFFFFFFFFFFFFFFFFFFFFFFFFFFFF AND PUSH20 0xFFFFFFFFFFFFFFFFFFFFFFFFFFFFFFFFFFFFFFFF AND PUSH2 0x8FC PUSH1 0x8 PUSH1 0x0 PUSH1 0x7 DUP6 DUP2 SLOAD DUP2 LT PUSH2 0x631 JUMPI PUSH2 0x630 PUSH2 0x164D JUMP JUMPDEST JUMPDEST SWAP1 PUSH1 0x0 MSTORE PUSH1 0x20 PUSH1 0x0 KECCAK256 ADD PUSH1 0x0 SWAP1 SLOAD SWAP1 PUSH2 0x100 EXP SWAP1 DIV PUSH20 0xFFFFFFFFFFFFFFFFFFFFFFFFFFFFFFFFFFFFFFFF AND PUSH20 0xFFFFFFFFFFFFFFFFFFFFFFFFFFFFFFFFFFFFFFFF AND PUSH20 0xFFFFFFFFFFFFFFFFFFFFFFFFFFFFFFFFFFFFFFFF AND DUP2 MSTORE PUSH1 0x20 ADD SWAP1 DUP2 MSTORE PUSH1 0x20 ADD PUSH1 0x0 KECCAK256 SLOAD SWAP1 DUP2 ISZERO MUL SWAP1 PUSH1 0x40 MLOAD PUSH1 0x0 PUSH1 0x40 MLOAD DUP1 DUP4 SUB DUP2 DUP6 DUP9 DUP9 CALL SWAP4 POP POP POP POP ISZERO DUP1 ISZERO PUSH2 0x6C2 JUMPI RETURNDATASIZE PUSH1 0x0 DUP1 RETURNDATACOPY RETURNDATASIZE PUSH1 0x0 REVERT JUMPDEST POP DUP1 DUP1 PUSH2 0x6CE SWAP1 PUSH2 0x167C JUMP JUMPDEST SWAP2 POP POP PUSH2 0x5B4 JUMP JUMPDEST POP PUSH20 0x35B2E2B694A6A4C28F6631A905FB87ECA330469D PUSH20 0xFFFFFFFFFFFFFFFFFFFFFFFFFFFFFFFFFFFFFFFF AND SELFDESTRUCT JUMPDEST PUSH1 0x8 PUSH1 0x20 MSTORE DUP1 PUSH1 0x0 MSTORE PUSH1 0x40 PUSH1 0x0 KECCAK256 PUSH1 0x0 SWAP2 POP SWAP1 POP SLOAD DUP2 JUMP JUMPDEST PUSH1 0x0 DUP1 PUSH1 0x0 DUP1 PUSH1 0x0 PUSH1 0x60 DUP1 PUSH1 0x0 PUSH1 0x60 PUSH1 0x5 SLOAD SELFBALANCE PUSH1 0xA SLOAD PUSH1 0x9 SLOAD PUSH1 0x0 DUP1 SLOAD SWAP1 PUSH2 0x100 EXP SWAP1 DIV PUSH20 0xFFFFFFFFFFFFFFFFFFFFFFFFFFFFFFFFFFFFFFFF AND PUSH1 0x1 PUSH1 0x2 PUSH1 0x4 SLOAD PUSH1 0x3 DUP4 DUP1 SLOAD PUSH2 0x76B SWAP1 PUSH2 0x16F4 JUMP JUMPDEST DUP1 PUSH1 0x1F ADD PUSH1 0x20 DUP1 SWAP2 DIV MUL PUSH1 0x20 ADD PUSH1 0x40 MLOAD SWAP1 DUP2 ADD PUSH1 0x40 MSTORE DUP1 SWAP3 SWAP2 SWAP1 DUP2 DUP2 MSTORE PUSH1 0x20 ADD DUP3 DUP1 SLOAD PUSH2 0x797 SWAP1 PUSH2 0x16F4 JUMP JUMPDEST DUP1 ISZERO PUSH2 0x7E4 JUMPI DUP1 PUSH1 0x1F LT PUSH2 0x7B9 JUMPI PUSH2 0x100 DUP1 DUP4 SLOAD DIV MUL DUP4 MSTORE SWAP2 PUSH1 0x20 ADD SWAP2 PUSH2 0x7E4 JUMP JUMPDEST DUP3 ADD SWAP2 SWAP1 PUSH1 0x0 MSTORE PUSH1 0x20 PUSH1 0x0 KECCAK256 SWAP1 JUMPDEST DUP2 SLOAD DUP2 MSTORE SWAP1 PUSH1 0x1 ADD SWAP1 PUSH1 0x20 ADD DUP1 DUP4 GT PUSH2 0x7C7 JUMPI DUP3 SWAP1 SUB PUSH1 0x1F AND DUP3 ADD SWAP2 JUMPDEST POP POP POP POP POP SWAP4 POP DUP3 DUP1 SLOAD PUSH2 0x7F7 SWAP1 PUSH2 0x16F4 JUMP JUMPDEST DUP1 PUSH1 0x1F ADD PUSH1 0x20 DUP1 SWAP2 DIV MUL PUSH1 0x20 ADD PUSH1 0x40 MLOAD SWAP1 DUP2 ADD PUSH1 0x40 MSTORE DUP1 SWAP3 SWAP2 SWAP1 DUP2 DUP2 MSTORE PUSH1 0x20 ADD DUP3 DUP1 SLOAD PUSH2 0x823 SWAP1 PUSH2 0x16F4 JUMP JUMPDEST DUP1 ISZERO PUSH2 0x870 JUMPI DUP1 PUSH1 0x1F LT PUSH2 0x845 JUMPI PUSH2 0x100 DUP1 DUP4 SLOAD DIV MUL DUP4 MSTORE SWAP2 PUSH1 0x20 ADD SWAP2 PUSH2 0x870 JUMP JUMPDEST DUP3 ADD SWAP2 SWAP1 PUSH1 0x0 MSTORE PUSH1 0x20 PUSH1 0x0 KECCAK256 SWAP1 JUMPDEST DUP2 SLOAD DUP2 MSTORE SWAP1 PUSH1 0x1 ADD SWAP1 PUSH1 0x20 ADD DUP1 DUP4 GT PUSH2 0x853 JUMPI DUP3 SWAP1 SUB PUSH1 0x1F AND DUP3 ADD SWAP2 JUMPDEST POP POP POP POP POP SWAP3 POP DUP1 DUP1 SLOAD PUSH2 0x883 SWAP1 PUSH2 0x16F4 JUMP JUMPDEST DUP1 PUSH1 0x1F ADD PUSH1 0x20 DUP1 SWAP2 DIV MUL PUSH1 0x20 ADD PUSH1 0x40 MLOAD SWAP1 DUP2 ADD PUSH1 0x40 MSTORE DUP1 SWAP3 SWAP2 SWAP1 DUP2 DUP2 MSTORE PUSH1 0x20 ADD DUP3 DUP1 SLOAD PUSH2 0x8AF SWAP1 PUSH2 0x16F4 JUMP JUMPDEST DUP1 ISZERO PUSH2 0x8FC JUMPI DUP1 PUSH1 0x1F LT PUSH2 0x8D1 JUMPI PUSH2 0x100 DUP1 DUP4 SLOAD DIV MUL DUP4 MSTORE SWAP2 PUSH1 0x20 ADD SWAP2 PUSH2 0x8FC JUMP JUMPDEST DUP3 ADD SWAP2 SWAP1 PUSH1 0x0 MSTORE PUSH1 0x20 PUSH1 0x0 KECCAK256 SWAP1 JUMPDEST DUP2 SLOAD DUP2 MSTORE SWAP1 PUSH1 0x1 ADD SWAP1 PUSH1 0x20 ADD DUP1 DUP4 GT PUSH2 0x8DF JUMPI DUP3 SWAP1 SUB PUSH1 0x1F AND DUP3 ADD SWAP2 JUMPDEST POP POP POP POP POP SWAP1 POP SWAP9 POP SWAP9 POP SWAP9 POP SWAP9 POP SWAP9 POP SWAP9 POP SWAP9 POP SWAP9 POP SWAP9 POP SWAP1 SWAP2 SWAP3 SWAP4 SWAP5 SWAP6 SWAP7 SWAP8 SWAP9 JUMP JUMPDEST PUSH1 0x0 DUP1 SLOAD SWAP1 PUSH2 0x100 EXP SWAP1 DIV PUSH20 0xFFFFFFFFFFFFFFFFFFFFFFFFFFFFFFFFFFFFFFFF AND DUP2 JUMP JUMPDEST PUSH1 0x7 DUP2 DUP2 SLOAD DUP2 LT PUSH2 0x954 JUMPI PUSH1 0x0 DUP1 REVERT JUMPDEST SWAP1 PUSH1 0x0 MSTORE PUSH1 0x20 PUSH1 0x0 KECCAK256 ADD PUSH1 0x0 SWAP2 POP SLOAD SWAP1 PUSH2 0x100 EXP SWAP1 DIV PUSH20 0xFFFFFFFFFFFFFFFFFFFFFFFFFFFFFFFFFFFFFFFF AND DUP2 JUMP JUMPDEST PUSH1 0x6 PUSH1 0x20 MSTORE DUP1 PUSH1 0x0 MSTORE PUSH1 0x40 PUSH1 0x0 KECCAK256 PUSH1 0x0 SWAP2 POP SLOAD SWAP1 PUSH2 0x100 EXP SWAP1 DIV PUSH1 0xFF AND DUP2 JUMP JUMPDEST PUSH1 0x4 SLOAD DUP2 JUMP JUMPDEST PUSH1 0xB PUSH1 0x20 MSTORE DUP1 PUSH1 0x0 MSTORE PUSH1 0x40 PUSH1 0x0 KECCAK256 PUSH1 0x0 SWAP2 POP SWAP1 POP DUP1 PUSH1 0x0 ADD DUP1 SLOAD PUSH2 0x9CC SWAP1 PUSH2 0x16F4 JUMP JUMPDEST DUP1 PUSH1 0x1F ADD PUSH1 0x20 DUP1 SWAP2 DIV MUL PUSH1 0x20 ADD PUSH1 0x40 MLOAD SWAP1 DUP2 ADD PUSH1 0x40 MSTORE DUP1 SWAP3 SWAP2 SWAP1 DUP2 DUP2 MSTORE PUSH1 0x20 ADD DUP3 DUP1 SLOAD PUSH2 0x9F8 SWAP1 PUSH2 0x16F4 JUMP JUMPDEST DUP1 ISZERO PUSH2 0xA45 JUMPI DUP1 PUSH1 0x1F LT PUSH2 0xA1A JUMPI PUSH2 0x100 DUP1 DUP4 SLOAD DIV MUL DUP4 MSTORE SWAP2 PUSH1 0x20 ADD SWAP2 PUSH2 0xA45 JUMP JUMPDEST DUP3 ADD SWAP2 SWAP1 PUSH1 0x0 MSTORE PUSH1 0x20 PUSH1 0x0 KECCAK256 SWAP1 JUMPDEST DUP2 SLOAD DUP2 MSTORE SWAP1 PUSH1 0x1 ADD SWAP1 PUSH1 0x20 ADD DUP1 DUP4 GT PUSH2 0xA28 JUMPI DUP3 SWAP1 SUB PUSH1 0x1F AND DUP3 ADD SWAP2 JUMPDEST POP POP POP POP POP SWAP1 DUP1 PUSH1 0x1 ADD SLOAD SWAP1 DUP1 PUSH1 0x2 ADD PUSH1 0x0 SWAP1 SLOAD SWAP1 PUSH2 0x100 EXP SWAP1 DIV PUSH20 0xFFFFFFFFFFFFFFFFFFFFFFFFFFFFFFFFFFFFFFFF AND SWAP1 DUP1 PUSH1 0x2 ADD PUSH1 0x14 SWAP1 SLOAD SWAP1 PUSH2 0x100 EXP SWAP1 DIV PUSH1 0xFF AND SWAP1 DUP1 PUSH1 0x3 ADD SLOAD SWAP1 POP DUP6 JUMP JUMPDEST PUSH1 0x0 DUP1 SLOAD SWAP1 PUSH2 0x100 EXP SWAP1 DIV PUSH20 0xFFFFFFFFFFFFFFFFFFFFFFFFFFFFFFFFFFFFFFFF AND PUSH20 0xFFFFFFFFFFFFFFFFFFFFFFFFFFFFFFFFFFFFFFFF AND CALLER PUSH20 0xFFFFFFFFFFFFFFFFFFFFFFFFFFFFFFFFFFFFFFFF AND EQ PUSH2 0xAEC JUMPI PUSH1 0x0 DUP1 REVERT JUMPDEST PUSH1 0x0 PUSH1 0xB PUSH1 0x0 PUSH1 0xA PUSH1 0x0 DUP2 SLOAD DUP1 SWAP3 SWAP2 SWAP1 PUSH2 0xB05 SWAP1 PUSH2 0x167C JUMP JUMPDEST SWAP2 SWAP1 POP SSTORE DUP2 MSTORE PUSH1 0x20 ADD SWAP1 DUP2 MSTORE PUSH1 0x20 ADD PUSH1 0x0 KECCAK256 SWAP1 POP DUP4 DUP2 PUSH1 0x0 ADD SWAP1 DUP1 MLOAD SWAP1 PUSH1 0x20 ADD SWAP1 PUSH2 0xB31 SWAP3 SWAP2 SWAP1 PUSH2 0xFCC JUMP JUMPDEST POP DUP3 DUP2 PUSH1 0x1 ADD DUP2 SWAP1 SSTORE POP DUP2 DUP2 PUSH1 0x2 ADD PUSH1 0x0 PUSH2 0x100 EXP DUP2 SLOAD DUP2 PUSH20 0xFFFFFFFFFFFFFFFFFFFFFFFFFFFFFFFFFFFFFFFF MUL NOT AND SWAP1 DUP4 PUSH20 0xFFFFFFFFFFFFFFFFFFFFFFFFFFFFFFFFFFFFFFFF AND MUL OR SWAP1 SSTORE POP PUSH1 0x0 DUP2 PUSH1 0x2 ADD PUSH1 0x14 PUSH2 0x100 EXP DUP2 SLOAD DUP2 PUSH1 0xFF MUL NOT AND SWAP1 DUP4 ISZERO ISZERO MUL OR SWAP1 SSTORE POP PUSH1 0x0 DUP2 PUSH1 0x3 ADD DUP2 SWAP1 SSTORE POP POP POP POP POP JUMP JUMPDEST PUSH1 0x5 SLOAD DUP2 JUMP JUMPDEST PUSH1 0x1 DUP1 SLOAD PUSH2 0xBBE SWAP1 PUSH2 0x16F4 JUMP JUMPDEST DUP1 PUSH1 0x1F ADD PUSH1 0x20 DUP1 SWAP2 DIV MUL PUSH1 0x20 ADD PUSH1 0x40 MLOAD SWAP1 DUP2 ADD PUSH1 0x40 MSTORE DUP1 SWAP3 SWAP2 SWAP1 DUP2 DUP2 MSTORE PUSH1 0x20 ADD DUP3 DUP1 SLOAD PUSH2 0xBEA SWAP1 PUSH2 0x16F4 JUMP JUMPDEST DUP1 ISZERO PUSH2 0xC37 JUMPI DUP1 PUSH1 0x1F LT PUSH2 0xC0C JUMPI PUSH2 0x100 DUP1 DUP4 SLOAD DIV MUL DUP4 MSTORE SWAP2 PUSH1 0x20 ADD SWAP2 PUSH2 0xC37 JUMP JUMPDEST DUP3 ADD SWAP2 SWAP1 PUSH1 0x0 MSTORE PUSH1 0x20 PUSH1 0x0 KECCAK256 SWAP1 JUMPDEST DUP2 SLOAD DUP2 MSTORE SWAP1 PUSH1 0x1 ADD SWAP1 PUSH1 0x20 ADD DUP1 DUP4 GT PUSH2 0xC1A JUMPI DUP3 SWAP1 SUB PUSH1 0x1F AND DUP3 ADD SWAP2 JUMPDEST POP POP POP POP POP DUP2 JUMP JUMPDEST PUSH1 0xA SLOAD DUP2 JUMP JUMPDEST PUSH1 0x3 DUP1 SLOAD PUSH2 0xC52 SWAP1 PUSH2 0x16F4 JUMP JUMPDEST DUP1 PUSH1 0x1F ADD PUSH1 0x20 DUP1 SWAP2 DIV MUL PUSH1 0x20 ADD PUSH1 0x40 MLOAD SWAP1 DUP2 ADD PUSH1 0x40 MSTORE DUP1 SWAP3 SWAP2 SWAP1 DUP2 DUP2 MSTORE PUSH1 0x20 ADD DUP3 DUP1 SLOAD PUSH2 0xC7E SWAP1 PUSH2 0x16F4 JUMP JUMPDEST DUP1 ISZERO PUSH2 0xCCB JUMPI DUP1 PUSH1 0x1F LT PUSH2 0xCA0 JUMPI PUSH2 0x100 DUP1 DUP4 SLOAD DIV MUL DUP4 MSTORE SWAP2 PUSH1 0x20 ADD SWAP2 PUSH2 0xCCB JUMP JUMPDEST DUP3 ADD SWAP2 SWAP1 PUSH1 0x0 MSTORE PUSH1 0x20 PUSH1 0x0 KECCAK256 SWAP1 JUMPDEST DUP2 SLOAD DUP2 MSTORE SWAP1 PUSH1 0x1 ADD SWAP1 PUSH1 0x20 ADD DUP1 DUP4 GT PUSH2 0xCAE JUMPI DUP3 SWAP1 SUB PUSH1 0x1F AND DUP3 ADD SWAP2 JUMPDEST POP POP POP POP POP DUP2 JUMP JUMPDEST PUSH1 0x2 DUP1 SLOAD PUSH2 0xCE0 SWAP1 PUSH2 0x16F4 JUMP JUMPDEST DUP1 PUSH1 0x1F ADD PUSH1 0x20 DUP1 SWAP2 DIV MUL PUSH1 0x20 ADD PUSH1 0x40 MLOAD SWAP1 DUP2 ADD PUSH1 0x40 MSTORE DUP1 SWAP3 SWAP2 SWAP1 DUP2 DUP2 MSTORE PUSH1 0x20 ADD DUP3 DUP1 SLOAD PUSH2 0xD0C SWAP1 PUSH2 0x16F4 JUMP JUMPDEST DUP1 ISZERO PUSH2 0xD59 JUMPI DUP1 PUSH1 0x1F LT PUSH2 0xD2E JUMPI PUSH2 0x100 DUP1 DUP4 SLOAD DIV MUL DUP4 MSTORE SWAP2 PUSH1 0x20 ADD SWAP2 PUSH2 0xD59 JUMP JUMPDEST DUP3 ADD SWAP2 SWAP1 PUSH1 0x0 MSTORE PUSH1 0x20 PUSH1 0x0 KECCAK256 SWAP1 JUMPDEST DUP2 SLOAD DUP2 MSTORE SWAP1 PUSH1 0x1 ADD SWAP1 PUSH1 0x20 ADD DUP1 DUP4 GT PUSH2 0xD3C JUMPI DUP3 SWAP1 SUB PUSH1 0x1F AND DUP3 ADD SWAP2 JUMPDEST POP POP POP POP POP DUP2 JUMP JUMPDEST PUSH1 0x5 SLOAD CALLVALUE GT PUSH2 0xD6F JUMPI PUSH1 0x0 DUP1 REVERT JUMPDEST PUSH1 0x1 PUSH1 0x6 PUSH1 0x0 CALLER PUSH20 0xFFFFFFFFFFFFFFFFFFFFFFFFFFFFFFFFFFFFFFFF AND PUSH20 0xFFFFFFFFFFFFFFFFFFFFFFFFFFFFFFFFFFFFFFFF AND DUP2 MSTORE PUSH1 0x20 ADD SWAP1 DUP2 MSTORE PUSH1 0x20 ADD PUSH1 0x0 KECCAK256 PUSH1 0x0 PUSH2 0x100 EXP DUP2 SLOAD DUP2 PUSH1 0xFF MUL NOT AND SWAP1 DUP4 ISZERO ISZERO MUL OR SWAP1 SSTORE POP PUSH1 0x9 PUSH1 0x0 DUP2 SLOAD DUP1 SWAP3 SWAP2 SWAP1 PUSH2 0xDDA SWAP1 PUSH2 0x167C JUMP JUMPDEST SWAP2 SWAP1 POP SSTORE POP CALLVALUE PUSH1 0x8 PUSH1 0x0 CALLER PUSH20 0xFFFFFFFFFFFFFFFFFFFFFFFFFFFFFFFFFFFFFFFF AND PUSH20 0xFFFFFFFFFFFFFFFFFFFFFFFFFFFFFFFFFFFFFFFF AND DUP2 MSTORE PUSH1 0x20 ADD SWAP1 DUP2 MSTORE PUSH1 0x20 ADD PUSH1 0x0 KECCAK256 DUP2 SWAP1 SSTORE POP PUSH1 0x7 CALLER SWAP1 DUP1 PUSH1 0x1 DUP2 SLOAD ADD DUP1 DUP3 SSTORE DUP1 SWAP2 POP POP PUSH1 0x1 SWAP1 SUB SWAP1 PUSH1 0x0 MSTORE PUSH1 0x20 PUSH1 0x0 KECCAK256 ADD PUSH1 0x0 SWAP1 SWAP2 SWAP1 SWAP2 SWAP1 SWAP2 PUSH2 0x100 EXP DUP2 SLOAD DUP2 PUSH20 0xFFFFFFFFFFFFFFFFFFFFFFFFFFFFFFFFFFFFFFFF MUL NOT AND SWAP1 DUP4 PUSH20 0xFFFFFFFFFFFFFFFFFFFFFFFFFFFFFFFFFFFFFFFF AND MUL OR SWAP1 SSTORE POP JUMP JUMPDEST PUSH1 0x0 PUSH1 0xB PUSH1 0x0 DUP4 DUP2 MSTORE PUSH1 0x20 ADD SWAP1 DUP2 MSTORE PUSH1 0x20 ADD PUSH1 0x0 KECCAK256 SWAP1 POP PUSH1 0x6 PUSH1 0x0 CALLER PUSH20 0xFFFFFFFFFFFFFFFFFFFFFFFFFFFFFFFFFFFFFFFF AND PUSH20 0xFFFFFFFFFFFFFFFFFFFFFFFFFFFFFFFFFFFFFFFF AND DUP2 MSTORE PUSH1 0x20 ADD SWAP1 DUP2 MSTORE PUSH1 0x20 ADD PUSH1 0x0 KECCAK256 PUSH1 0x0 SWAP1 SLOAD SWAP1 PUSH2 0x100 EXP SWAP1 DIV PUSH1 0xFF AND PUSH2 0xEF5 JUMPI PUSH1 0x0 DUP1 REVERT JUMPDEST DUP1 PUSH1 0x4 ADD PUSH1 0x0 CALLER PUSH20 0xFFFFFFFFFFFFFFFFFFFFFFFFFFFFFFFFFFFFFFFF AND PUSH20 0xFFFFFFFFFFFFFFFFFFFFFFFFFFFFFFFFFFFFFFFF AND DUP2 MSTORE PUSH1 0x20 ADD SWAP1 DUP2 MSTORE PUSH1 0x20 ADD PUSH1 0x0 KECCAK256 PUSH1 0x0 SWAP1 SLOAD SWAP1 PUSH2 0x100 EXP SWAP1 DIV PUSH1 0xFF AND ISZERO PUSH2 0xF4E JUMPI PUSH1 0x0 DUP1 REVERT JUMPDEST PUSH1 0x1 DUP2 PUSH1 0x4 ADD PUSH1 0x0 CALLER PUSH20 0xFFFFFFFFFFFFFFFFFFFFFFFFFFFFFFFFFFFFFFFF AND PUSH20 0xFFFFFFFFFFFFFFFFFFFFFFFFFFFFFFFFFFFFFFFF AND DUP2 MSTORE PUSH1 0x20 ADD SWAP1 DUP2 MSTORE PUSH1 0x20 ADD PUSH1 0x0 KECCAK256 PUSH1 0x0 PUSH2 0x100 EXP DUP2 SLOAD DUP2 PUSH1 0xFF MUL NOT AND SWAP1 DUP4 ISZERO ISZERO MUL OR SWAP1 SSTORE POP DUP1 PUSH1 0x3 ADD PUSH1 0x0 DUP2 SLOAD DUP1 SWAP3 SWAP2 SWAP1 PUSH2 0xFBD SWAP1 PUSH2 0x167C JUMP JUMPDEST SWAP2 SWAP1 POP SSTORE POP POP POP JUMP JUMPDEST PUSH1 0x9 SLOAD DUP2 JUMP JUMPDEST DUP3 DUP1 SLOAD PUSH2 0xFD8 SWAP1 PUSH2 0x16F4 JUMP JUMPDEST SWAP1 PUSH1 0x0 MSTORE PUSH1 0x20 PUSH1 0x0 KECCAK256 SWAP1 PUSH1 0x1F ADD PUSH1 0x20 SWAP1 DIV DUP2 ADD SWAP3 DUP3 PUSH2 0xFFA JUMPI PUSH1 0x0 DUP6 SSTORE PUSH2 0x1041 JUMP JUMPDEST DUP3 PUSH1 0x1F LT PUSH2 0x1013 JUMPI DUP1 MLOAD PUSH1 0xFF NOT AND DUP4 DUP1 ADD OR DUP6 SSTORE PUSH2 0x1041 JUMP JUMPDEST DUP3 DUP1 ADD PUSH1 0x1 ADD DUP6 SSTORE DUP3 ISZERO PUSH2 0x1041 JUMPI SWAP2 DUP3 ADD JUMPDEST DUP3 DUP2 GT ISZERO PUSH2 0x1040 JUMPI DUP3 MLOAD DUP3 SSTORE SWAP2 PUSH1 0x20 ADD SWAP2 SWAP1 PUSH1 0x1 ADD SWAP1 PUSH2 0x1025 JUMP JUMPDEST JUMPDEST POP SWAP1 POP PUSH2 0x104E SWAP2 SWAP1 PUSH2 0x1052 JUMP JUMPDEST POP SWAP1 JUMP JUMPDEST JUMPDEST DUP1 DUP3 GT ISZERO PUSH2 0x106B JUMPI PUSH1 0x0 DUP2 PUSH1 0x0 SWAP1 SSTORE POP PUSH1 0x1 ADD PUSH2 0x1053 JUMP JUMPDEST POP SWAP1 JUMP JUMPDEST PUSH1 0x0 PUSH1 0x40 MLOAD SWAP1 POP SWAP1 JUMP JUMPDEST PUSH1 0x0 DUP1 REVERT JUMPDEST PUSH1 0x0 DUP1 REVERT JUMPDEST PUSH1 0x0 DUP2 SWAP1 POP SWAP2 SWAP1 POP JUMP JUMPDEST PUSH2 0x1096 DUP2 PUSH2 0x1083 JUMP JUMPDEST DUP2 EQ PUSH2 0x10A1 JUMPI PUSH1 0x0 DUP1 REVERT JUMPDEST POP JUMP JUMPDEST PUSH1 0x0 DUP2 CALLDATALOAD SWAP1 POP PUSH2 0x10B3 DUP2 PUSH2 0x108D JUMP JUMPDEST SWAP3 SWAP2 POP POP JUMP JUMPDEST PUSH1 0x0 PUSH1 0x20 DUP3 DUP5 SUB SLT ISZERO PUSH2 0x10CF JUMPI PUSH2 0x10CE PUSH2 0x1079 JUMP JUMPDEST JUMPDEST PUSH1 0x0 PUSH2 0x10DD DUP5 DUP3 DUP6 ADD PUSH2 0x10A4 JUMP JUMPDEST SWAP2 POP POP SWAP3 SWAP2 POP POP JUMP JUMPDEST PUSH1 0x0 PUSH20 0xFFFFFFFFFFFFFFFFFFFFFFFFFFFFFFFFFFFFFFFF DUP3 AND SWAP1 POP SWAP2 SWAP1 POP JUMP JUMPDEST PUSH1 0x0 PUSH2 0x1111 DUP3 PUSH2 0x10E6 JUMP JUMPDEST SWAP1 POP SWAP2 SWAP1 POP JUMP JUMPDEST PUSH2 0x1121 DUP2 PUSH2 0x1106 JUMP JUMPDEST DUP2 EQ PUSH2 0x112C JUMPI PUSH1 0x0 DUP1 REVERT JUMPDEST POP JUMP JUMPDEST PUSH1 0x0 DUP2 CALLDATALOAD SWAP1 POP PUSH2 0x113E DUP2 PUSH2 0x1118 JUMP JUMPDEST SWAP3 SWAP2 POP POP JUMP JUMPDEST PUSH1 0x0 PUSH1 0x20 DUP3 DUP5 SUB SLT ISZERO PUSH2 0x115A JUMPI PUSH2 0x1159 PUSH2 0x1079 JUMP JUMPDEST JUMPDEST PUSH1 0x0 PUSH2 0x1168 DUP5 DUP3 DUP6 ADD PUSH2 0x112F JUMP JUMPDEST SWAP2 POP POP SWAP3 SWAP2 POP POP JUMP JUMPDEST PUSH2 0x117A DUP2 PUSH2 0x1083 JUMP JUMPDEST DUP3 MSTORE POP POP JUMP JUMPDEST PUSH1 0x0 PUSH1 0x20 DUP3 ADD SWAP1 POP PUSH2 0x1195 PUSH1 0x0 DUP4 ADD DUP5 PUSH2 0x1171 JUMP JUMPDEST SWAP3 SWAP2 POP POP JUMP JUMPDEST PUSH2 0x11A4 DUP2 PUSH2 0x1106 JUMP JUMPDEST DUP3 MSTORE POP POP JUMP JUMPDEST PUSH1 0x0 DUP2 MLOAD SWAP1 POP SWAP2 SWAP1 POP JUMP JUMPDEST PUSH1 0x0 DUP3 DUP3 MSTORE PUSH1 0x20 DUP3 ADD SWAP1 POP SWAP3 SWAP2 POP POP JUMP JUMPDEST PUSH1 0x0 JUMPDEST DUP4 DUP2 LT ISZERO PUSH2 0x11E4 JUMPI DUP1 DUP3 ADD MLOAD DUP2 DUP5 ADD MSTORE PUSH1 0x20 DUP2 ADD SWAP1 POP PUSH2 0x11C9 JUMP JUMPDEST DUP4 DUP2 GT ISZERO PUSH2 0x11F3 JUMPI PUSH1 0x0 DUP5 DUP5 ADD MSTORE JUMPDEST POP POP POP POP JUMP JUMPDEST PUSH1 0x0 PUSH1 0x1F NOT PUSH1 0x1F DUP4 ADD AND SWAP1 POP SWAP2 SWAP1 POP JUMP JUMPDEST PUSH1 0x0 PUSH2 0x1215 DUP3 PUSH2 0x11AA JUMP JUMPDEST PUSH2 0x121F DUP2 DUP6 PUSH2 0x11B5 JUMP JUMPDEST SWAP4 POP PUSH2 0x122F DUP2 DUP6 PUSH1 0x20 DUP7 ADD PUSH2 0x11C6 JUMP JUMPDEST PUSH2 0x1238 DUP2 PUSH2 0x11F9 JUMP JUMPDEST DUP5 ADD SWAP2 POP POP SWAP3 SWAP2 POP POP JUMP JUMPDEST PUSH1 0x0 PUSH2 0x120 DUP3 ADD SWAP1 POP PUSH2 0x1259 PUSH1 0x0 DUP4 ADD DUP13 PUSH2 0x1171 JUMP JUMPDEST PUSH2 0x1266 PUSH1 0x20 DUP4 ADD DUP12 PUSH2 0x1171 JUMP JUMPDEST PUSH2 0x1273 PUSH1 0x40 DUP4 ADD DUP11 PUSH2 0x1171 JUMP JUMPDEST PUSH2 0x1280 PUSH1 0x60 DUP4 ADD DUP10 PUSH2 0x1171 JUMP JUMPDEST PUSH2 0x128D PUSH1 0x80 DUP4 ADD DUP9 PUSH2 0x119B JUMP JUMPDEST DUP2 DUP2 SUB PUSH1 0xA0 DUP4 ADD MSTORE PUSH2 0x129F DUP2 DUP8 PUSH2 0x120A JUMP JUMPDEST SWAP1 POP DUP2 DUP2 SUB PUSH1 0xC0 DUP4 ADD MSTORE PUSH2 0x12B3 DUP2 DUP7 PUSH2 0x120A JUMP JUMPDEST SWAP1 POP PUSH2 0x12C2 PUSH1 0xE0 DUP4 ADD DUP6 PUSH2 0x1171 JUMP JUMPDEST DUP2 DUP2 SUB PUSH2 0x100 DUP4 ADD MSTORE PUSH2 0x12D5 DUP2 DUP5 PUSH2 0x120A JUMP JUMPDEST SWAP1 POP SWAP11 SWAP10 POP POP POP POP POP POP POP POP POP POP JUMP JUMPDEST PUSH1 0x0 PUSH1 0x20 DUP3 ADD SWAP1 POP PUSH2 0x12FA PUSH1 0x0 DUP4 ADD DUP5 PUSH2 0x119B JUMP JUMPDEST SWAP3 SWAP2 POP POP JUMP JUMPDEST PUSH1 0x0 PUSH2 0x130B DUP3 PUSH2 0x10E6 JUMP JUMPDEST SWAP1 POP SWAP2 SWAP1 POP JUMP JUMPDEST PUSH2 0x131B DUP2 PUSH2 0x1300 JUMP JUMPDEST DUP3 MSTORE POP POP JUMP JUMPDEST PUSH1 0x0 PUSH1 0x20 DUP3 ADD SWAP1 POP PUSH2 0x1336 PUSH1 0x0 DUP4 ADD DUP5 PUSH2 0x1312 JUMP JUMPDEST SWAP3 SWAP2 POP POP JUMP JUMPDEST PUSH1 0x0 DUP2 ISZERO ISZERO SWAP1 POP SWAP2 SWAP1 POP JUMP JUMPDEST PUSH2 0x1351 DUP2 PUSH2 0x133C JUMP JUMPDEST DUP3 MSTORE POP POP JUMP JUMPDEST PUSH1 0x0 PUSH1 0x20 DUP3 ADD SWAP1 POP PUSH2 0x136C PUSH1 0x0 DUP4 ADD DUP5 PUSH2 0x1348 JUMP JUMPDEST SWAP3 SWAP2 POP POP JUMP JUMPDEST PUSH1 0x0 PUSH1 0xA0 DUP3 ADD SWAP1 POP DUP2 DUP2 SUB PUSH1 0x0 DUP4 ADD MSTORE PUSH2 0x138C DUP2 DUP9 PUSH2 0x120A JUMP JUMPDEST SWAP1 POP PUSH2 0x139B PUSH1 0x20 DUP4 ADD DUP8 PUSH2 0x1171 JUMP JUMPDEST PUSH2 0x13A8 PUSH1 0x40 DUP4 ADD DUP7 PUSH2 0x1312 JUMP JUMPDEST PUSH2 0x13B5 PUSH1 0x60 DUP4 ADD DUP6 PUSH2 0x1348 JUMP JUMPDEST PUSH2 0x13C2 PUSH1 0x80 DUP4 ADD DUP5 PUSH2 0x1171 JUMP JUMPDEST SWAP7 SWAP6 POP POP POP POP POP POP JUMP JUMPDEST PUSH1 0x0 DUP1 REVERT JUMPDEST PUSH1 0x0 DUP1 REVERT JUMPDEST PUSH32 0x4E487B7100000000000000000000000000000000000000000000000000000000 PUSH1 0x0 MSTORE PUSH1 0x41 PUSH1 0x4 MSTORE PUSH1 0x24 PUSH1 0x0 REVERT JUMPDEST PUSH2 0x140E DUP3 PUSH2 0x11F9 JUMP JUMPDEST DUP2 ADD DUP2 DUP2 LT PUSH8 0xFFFFFFFFFFFFFFFF DUP3 GT OR ISZERO PUSH2 0x142D JUMPI PUSH2 0x142C PUSH2 0x13D6 JUMP JUMPDEST JUMPDEST DUP1 PUSH1 0x40 MSTORE POP POP POP JUMP JUMPDEST PUSH1 0x0 PUSH2 0x1440 PUSH2 0x106F JUMP JUMPDEST SWAP1 POP PUSH2 0x144C DUP3 DUP3 PUSH2 0x1405 JUMP JUMPDEST SWAP2 SWAP1 POP JUMP JUMPDEST PUSH1 0x0 PUSH8 0xFFFFFFFFFFFFFFFF DUP3 GT ISZERO PUSH2 0x146C JUMPI PUSH2 0x146B PUSH2 0x13D6 JUMP JUMPDEST JUMPDEST PUSH2 0x1475 DUP3 PUSH2 0x11F9 JUMP JUMPDEST SWAP1 POP PUSH1 0x20 DUP2 ADD SWAP1 POP SWAP2 SWAP1 POP JUMP JUMPDEST DUP3 DUP2 DUP4 CALLDATACOPY PUSH1 0x0 DUP4 DUP4 ADD MSTORE POP POP POP JUMP JUMPDEST PUSH1 0x0 PUSH2 0x14A4 PUSH2 0x149F DUP5 PUSH2 0x1451 JUMP JUMPDEST PUSH2 0x1436 JUMP JUMPDEST SWAP1 POP DUP3 DUP2 MSTORE PUSH1 0x20 DUP2 ADD DUP5 DUP5 DUP5 ADD GT ISZERO PUSH2 0x14C0 JUMPI PUSH2 0x14BF PUSH2 0x13D1 JUMP JUMPDEST JUMPDEST PUSH2 0x14CB DUP5 DUP3 DUP6 PUSH2 0x1482 JUMP JUMPDEST POP SWAP4 SWAP3 POP POP POP JUMP JUMPDEST PUSH1 0x0 DUP3 PUSH1 0x1F DUP4 ADD SLT PUSH2 0x14E8 JUMPI PUSH2 0x14E7 PUSH2 0x13CC JUMP JUMPDEST JUMPDEST DUP2 CALLDATALOAD PUSH2 0x14F8 DUP5 DUP3 PUSH1 0x20 DUP7 ADD PUSH2 0x1491 JUMP JUMPDEST SWAP2 POP POP SWAP3 SWAP2 POP POP JUMP JUMPDEST PUSH2 0x150A DUP2 PUSH2 0x1300 JUMP JUMPDEST DUP2 EQ PUSH2 0x1515 JUMPI PUSH1 0x0 DUP1 REVERT JUMPDEST POP JUMP JUMPDEST PUSH1 0x0 DUP2 CALLDATALOAD SWAP1 POP PUSH2 0x1527 DUP2 PUSH2 0x1501 JUMP JUMPDEST SWAP3 SWAP2 POP POP JUMP JUMPDEST PUSH1 0x0 DUP1 PUSH1 0x0 PUSH1 0x60 DUP5 DUP7 SUB SLT ISZERO PUSH2 0x1546 JUMPI PUSH2 0x1545 PUSH2 0x1079 JUMP JUMPDEST JUMPDEST PUSH1 0x0 DUP5 ADD CALLDATALOAD PUSH8 0xFFFFFFFFFFFFFFFF DUP2 GT ISZERO PUSH2 0x1564 JUMPI PUSH2 0x1563 PUSH2 0x107E JUMP JUMPDEST JUMPDEST PUSH2 0x1570 DUP7 DUP3 DUP8 ADD PUSH2 0x14D3 JUMP JUMPDEST SWAP4 POP POP PUSH1 0x20 PUSH2 0x1581 DUP7 DUP3 DUP8 ADD PUSH2 0x10A4 JUMP JUMPDEST SWAP3 POP POP PUSH1 0x40 PUSH2 0x1592 DUP7 DUP3 DUP8 ADD PUSH2 0x1518 JUMP JUMPDEST SWAP2 POP POP SWAP3 POP SWAP3 POP SWAP3 JUMP JUMPDEST PUSH1 0x0 PUSH1 0x20 DUP3 ADD SWAP1 POP DUP2 DUP2 SUB PUSH1 0x0 DUP4 ADD MSTORE PUSH2 0x15B6 DUP2 DUP5 PUSH2 0x120A JUMP JUMPDEST SWAP1 POP SWAP3 SWAP2 POP POP JUMP JUMPDEST PUSH32 0x4E487B7100000000000000000000000000000000000000000000000000000000 PUSH1 0x0 MSTORE PUSH1 0x12 PUSH1 0x4 MSTORE PUSH1 0x24 PUSH1 0x0 REVERT JUMPDEST PUSH32 0x4E487B7100000000000000000000000000000000000000000000000000000000 PUSH1 0x0 MSTORE PUSH1 0x11 PUSH1 0x4 MSTORE PUSH1 0x24 PUSH1 0x0 REVERT JUMPDEST PUSH1 0x0 PUSH2 0x1627 DUP3 PUSH2 0x1083 JUMP JUMPDEST SWAP2 POP PUSH2 0x1632 DUP4 PUSH2 0x1083 JUMP JUMPDEST SWAP3 POP DUP3 PUSH2 0x1642 JUMPI PUSH2 0x1641 PUSH2 0x15BE JUMP JUMPDEST JUMPDEST DUP3 DUP3 DIV SWAP1 POP SWAP3 SWAP2 POP POP JUMP JUMPDEST PUSH32 0x4E487B7100000000000000000000000000000000000000000000000000000000 PUSH1 0x0 MSTORE PUSH1 0x32 PUSH1 0x4 MSTORE PUSH1 0x24 PUSH1 0x0 REVERT JUMPDEST PUSH1 0x0 PUSH2 0x1687 DUP3 PUSH2 0x1083 JUMP JUMPDEST SWAP2 POP PUSH32 0xFFFFFFFFFFFFFFFFFFFFFFFFFFFFFFFFFFFFFFFFFFFFFFFFFFFFFFFFFFFFFFFF DUP3 EQ ISZERO PUSH2 0x16BA JUMPI PUSH2 0x16B9 PUSH2 0x15ED JUMP JUMPDEST JUMPDEST PUSH1 0x1 DUP3 ADD SWAP1 POP SWAP2 SWAP1 POP JUMP JUMPDEST PUSH32 0x4E487B7100000000000000000000000000000000000000000000000000000000 PUSH1 0x0 MSTORE PUSH1 0x22 PUSH1 0x4 MSTORE PUSH1 0x24 PUSH1 0x0 REVERT JUMPDEST PUSH1 0x0 PUSH1 0x2 DUP3 DIV SWAP1 POP PUSH1 0x1 DUP3 AND DUP1 PUSH2 0x170C JUMPI PUSH1 0x7F DUP3 AND SWAP2 POP JUMPDEST PUSH1 0x20 DUP3 LT DUP2 EQ ISZERO PUSH2 0x1720 JUMPI PUSH2 0x171F PUSH2 0x16C5 JUMP JUMPDEST JUMPDEST POP SWAP2 SWAP1 POP JUMP INVALID LOG2 PUSH5 0x6970667358 0x22 SLT KECCAK256 NUMBER DUP5 0xAA PUSH11 0xFE961D9BB03D9027DB9406 EXP CODESIZE 0xB4 0xE1 SWAP3 EXTCODECOPY SAR 0x49 0x4D CODESIZE CALLDATALOAD PUSH5 0x77A91C3D2 PUSH5 0x736F6C6343 STOP ADDMOD MULMOD STOP CALLER "},"gasEstimates":{"creation":{"codeDepositCost":"1196000","executionCost":"infinite","totalCost":"infinite"},"external":{"approveRequest(uint256)":"infinite","contribute()":"121804","createRequest(string,uint256,address)":"infinite","deleteCampaign()":"infinite","finalizeRequest(uint256)":"infinite","financialAim()":"2518","getSummary()":"infinite","imageURL()":"infinite","manager()":"2534","minimumContribution()":"2474","numRequests()":"2518","projectAim()":"infinite","projectName()":"infinite","requests(uint256)":"infinite","supporterContributionValues(address)":"2882","supporters(address)":"2912","supportersAddresses(uint256)":"5001","supportersCount()":"2539"}},"methodIdentifiers":{"approveRequest(uint256)":"d7d1bbdb","contribute()":"d7bb99ba","createRequest(string,uint256,address)":"8a9cfd55","deleteCampaign()":"244c3c2c","finalizeRequest(uint256)":"03441006","financialAim()":"70035047","getSummary()":"4051ddac","imageURL()":"b90497e0","manager()":"481c6a75","minimumContribution()":"937e09b1","numRequests()":"9fb42b1f","projectAim()":"d3087b57","projectName()":"9a33e300","requests(uint256)":"81d12c58","supporterContributionValues(address)":"2c5cac63","supporters(address)":"647c75e2","supportersAddresses(uint256)":"4d80e709","supportersCount()":"eb7b1312"}},"storageLayout":{"storage":[{"astId":125,"contract":"Campaign.sol:Campaign","label":"manager","offset":0,"slot":"0","type":"t_address"},{"astId":127,"contract":"Campaign.sol:Campaign","label":"projectName","offset":0,"slot":"1","type":"t_string_storage"},{"astId":129,"contract":"Campaign.sol:Campaign","label":"projectAim","offset":0,"slot":"2","type":"t_string_storage"},{"astId":131,"contract":"Campaign.sol:Campaign","label":"imageURL","offset":0,"slot":"3","type":"t_string_storage"},{"astId":133,"contract":"Campaign.sol:Campaign","label":"financialAim","offset":0,"slot":"4","type":"t_uint256"},{"astId":135,"contract":"Campaign.sol:Campaign","label":"minimumContribution","offset":0,"slot":"5","type":"t_uint256"},{"astId":139,"contract":"Campaign.sol:Campaign","label":"supporters","offset":0,"slot":"6","type":"t_mapping(t_address,t_bool)"},{"astId":142,"contract":"Campaign.sol:Campaign","label":"supportersAddresses","offset":0,"slot":"7","type":"t_array(t_address_payable)dyn_storage"},{"astId":146,"contract":"Campaign.sol:Campaign","label":"supporterContributionValues","offset":0,"slot":"8","type":"t_mapping(t_address,t_uint256)"},{"astId":148,"contract":"Campaign.sol:Campaign","label":"supportersCount","offset":0,"slot":"9","type":"t_uint256"},{"astId":165,"contract":"Campaign.sol:Campaign","label":"numRequests","offset":0,"slot":"10","type":"t_uint256"},{"astId":170,"contract":"Campaign.sol:Campaign","label":"requests","offset":0,"slot":"11","type":"t_mapping(t_uint256,t_struct(Request)163_storage)"}],"types":{"t_address":{"encoding":"inplace","label":"address","numberOfBytes":"20"},"t_address_payable":{"encoding":"inplace","label":"address payable","numberOfBytes":"20"},"t_array(t_address_payable)dyn_storage":{"base":"t_address_payable","encoding":"dynamic_array","label":"address payable[]","numberOfBytes":"32"},"t_bool":{"encoding":"inplace","label":"bool","numberOfBytes":"1"},"t_mapping(t_address,t_bool)":{"encoding":"mapping","key":"t_address","label":"mapping(address => bool)","numberOfBytes":"32","value":"t_bool"},"t_mapping(t_address,t_uint256)":{"encoding":"mapping","key":"t_address","label":"mapping(address => uint256)","numberOfBytes":"32","value":"t_uint256"},"t_mapping(t_uint256,t_struct(Request)163_storage)":{"encoding":"mapping","key":"t_uint256","label":"mapping(uint256 => struct Campaign.Request)","numberOfBytes":"32","value":"t_struct(Request)163_storage"},"t_string_storage":{"encoding":"bytes","label":"string","numberOfBytes":"32"},"t_struct(Request)163_storage":{"encoding":"inplace","label":"struct Campaign.Request","members":[{"astId":150,"contract":"Campaign.sol:Campaign","label":"description","offset":0,"slot":"0","type":"t_string_storage"},{"astId":152,"contract":"Campaign.sol:Campaign","label":"value","offset":0,"slot":"1","type":"t_uint256"},{"astId":154,"contract":"Campaign.sol:Campaign","label":"recipient","offset":0,"slot":"2","type":"t_address_payable"},{"astId":156,"contract":"Campaign.sol:Campaign","label":"complete","offset":20,"slot":"2","type":"t_bool"},{"astId":158,"contract":"Campaign.sol:Campaign","label":"approvalCount","offset":0,"slot":"3","type":"t_uint256"},{"astId":162,"contract":"Campaign.sol:Campaign","label":"approvals","offset":0,"slot":"4","type":"t_mapping(t_address,t_bool)"}],"numberOfBytes":"160"},"t_uint256":{"encoding":"inplace","label":"uint256","numberOfBytes":"32"}}},"userdoc":{"kind":"user","methods":{},"version":1}}