{"abi":[{"inputs":[{"internalType":"uint256","name":"minimum","type":"uint256"},{"internalType":"address","name":"creator","type":"address"},{"internalType":"string","name":"pName","type":"string"},{"internalType":"string","name":"pAim","type":"string"},{"internalType":"string","name":"imagePath","type":"string"},{"internalType":"uint256","name":"financialGoal","type":"uint256"}],"stateMutability":"nonpayable","type":"constructor"},{"inputs":[{"internalType":"uint256","name":"index","type":"uint256"}],"name":"approveRequest","outputs":[],"stateMutability":"nonpayable","type":"function"},{"inputs":[],"name":"contribute","outputs":[],"stateMutability":"payable","type":"function"},{"inputs":[{"internalType":"string","name":"description","type":"string"},{"internalType":"uint256","name":"value","type":"uint256"},{"internalType":"address payable","name":"recipient","type":"address"}],"name":"createRequest","outputs":[],"stateMutability":"nonpayable","type":"function"},{"inputs":[],"name":"deleteCampaign","outputs":[],"stateMutability":"payable","type":"function"},{"inputs":[{"internalType":"uint256","name":"index","type":"uint256"}],"name":"deleteRequest","outputs":[],"stateMutability":"nonpayable","type":"function"},{"inputs":[{"internalType":"uint256","name":"index","type":"uint256"}],"name":"finalizeRequest","outputs":[],"stateMutability":"nonpayable","type":"function"},{"inputs":[],"name":"financialAim","outputs":[{"internalType":"uint256","name":"","type":"uint256"}],"stateMutability":"view","type":"function"},{"inputs":[],"name":"getSummary","outputs":[{"internalType":"uint256","name":"","type":"uint256"},{"internalType":"uint256","name":"","type":"uint256"},{"internalType":"uint256","name":"","type":"uint256"},{"internalType":"uint256","name":"","type":"uint256"},{"internalType":"address","name":"","type":"address"},{"internalType":"string","name":"","type":"string"},{"internalType":"string","name":"","type":"string"},{"internalType":"uint256","name":"","type":"uint256"},{"internalType":"string","name":"","type":"string"},{"internalType":"uint256","name":"","type":"uint256"}],"stateMutability":"view","type":"function"},{"inputs":[],"name":"imageURL","outputs":[{"internalType":"string","name":"","type":"string"}],"stateMutability":"view","type":"function"},{"inputs":[{"internalType":"address","name":"account","type":"address"},{"internalType":"uint256","name":"index","type":"uint256"}],"name":"isApproved","outputs":[{"internalType":"bool","name":"","type":"bool"}],"stateMutability":"view","type":"function"},{"inputs":[],"name":"manager","outputs":[{"internalType":"address","name":"","type":"address"}],"stateMutability":"view","type":"function"},{"inputs":[],"name":"minimumContribution","outputs":[{"internalType":"uint256","name":"","type":"uint256"}],"stateMutability":"view","type":"function"},{"inputs":[],"name":"numRequests","outputs":[{"internalType":"uint256","name":"","type":"uint256"}],"stateMutability":"view","type":"function"},{"inputs":[],"name":"projectAim","outputs":[{"internalType":"string","name":"","type":"string"}],"stateMutability":"view","type":"function"},{"inputs":[],"name":"projectName","outputs":[{"internalType":"string","name":"","type":"string"}],"stateMutability":"view","type":"function"},{"inputs":[{"internalType":"uint256","name":"","type":"uint256"}],"name":"requests","outputs":[{"internalType":"string","name":"description","type":"string"},{"internalType":"string","name":"status","type":"string"},{"internalType":"uint256","name":"value","type":"uint256"},{"internalType":"address payable","name":"recipient","type":"address"},{"internalType":"bool","name":"complete","type":"bool"},{"internalType":"uint256","name":"approvalCount","type":"uint256"}],"stateMutability":"view","type":"function"},{"inputs":[],"name":"requestsBalance","outputs":[{"internalType":"uint256","name":"","type":"uint256"}],"stateMutability":"view","type":"function"},{"inputs":[{"internalType":"address","name":"","type":"address"}],"name":"supporterContributionValues","outputs":[{"internalType":"uint256","name":"","type":"uint256"}],"stateMutability":"view","type":"function"},{"inputs":[{"internalType":"address","name":"","type":"address"}],"name":"supporters","outputs":[{"internalType":"bool","name":"","type":"bool"}],"stateMutability":"view","type":"function"},{"inputs":[{"internalType":"uint256","name":"","type":"uint256"}],"name":"supportersAddresses","outputs":[{"internalType":"address payable","name":"","type":"address"}],"stateMutability":"view","type":"function"},{"inputs":[],"name":"supportersCount","outputs":[{"internalType":"uint256","name":"","type":"uint256"}],"stateMutability":"view","type":"function"}],"devdoc":{"kind":"dev","methods":{},"version":1},"evm":{"assembly":"    /* \"Campaign.sol\":1185:5284  contract Campaign {... */\n  mstore(0x40, 0x80)\n    /* \"Campaign.sol\":1930:2256  constructor(uint minimum, address creator, string memory pName, string memory pAim, string memory imagePath, uint financialGoal) {... */\n  callvalue\n  dup1\n  iszero\n  tag_1\n  jumpi\n  0x00\n  dup1\n  revert\ntag_1:\n  pop\n  mload(0x40)\n  sub(codesize, bytecodeSize)\n  dup1\n  bytecodeSize\n  dup4\n  codecopy\n  dup2\n  dup2\n  add\n  0x40\n  mstore\n  dup2\n  add\n  swap1\n  tag_2\n  swap2\n  swap1\n  tag_3\n  jump\t// in\ntag_2:\n    /* \"Campaign.sol\":2079:2086  creator */\n  dup5\n    /* \"Campaign.sol\":2069:2076  manager */\n  0x00\n  dup1\n    /* \"Campaign.sol\":2069:2086  manager = creator */\n  0x0100\n  exp\n  dup2\n  sload\n  dup2\n  0xffffffffffffffffffffffffffffffffffffffff\n  mul\n  not\n  and\n  swap1\n  dup4\n  0xffffffffffffffffffffffffffffffffffffffff\n  and\n  mul\n  or\n  swap1\n  sstore\n  pop\n    /* \"Campaign.sol\":2118:2125  minimum */\n  dup6\n    /* \"Campaign.sol\":2096:2115  minimumContribution */\n  0x05\n    /* \"Campaign.sol\":2096:2125  minimumContribution = minimum */\n  dup2\n  swap1\n  sstore\n  pop\n    /* \"Campaign.sol\":2149:2154  pName */\n  dup4\n    /* \"Campaign.sol\":2135:2146  projectName */\n  0x01\n    /* \"Campaign.sol\":2135:2154  projectName = pName */\n  swap1\n  dup1\n  mload\n  swap1\n  0x20\n  add\n  swap1\n  tag_6\n  swap3\n  swap2\n  swap1\n  tag_7\n  jump\t// in\ntag_6:\n  pop\n    /* \"Campaign.sol\":2177:2181  pAim */\n  dup3\n    /* \"Campaign.sol\":2164:2174  projectAim */\n  0x02\n    /* \"Campaign.sol\":2164:2181  projectAim = pAim */\n  swap1\n  dup1\n  mload\n  swap1\n  0x20\n  add\n  swap1\n  tag_8\n  swap3\n  swap2\n  swap1\n  tag_7\n  jump\t// in\ntag_8:\n  pop\n    /* \"Campaign.sol\":2206:2219  financialGoal */\n  dup1\n    /* \"Campaign.sol\":2191:2203  financialAim */\n  0x04\n    /* \"Campaign.sol\":2191:2219  financialAim = financialGoal */\n  dup2\n  swap1\n  sstore\n  pop\n    /* \"Campaign.sol\":2240:2249  imagePath */\n  dup2\n    /* \"Campaign.sol\":2229:2237  imageURL */\n  0x03\n    /* \"Campaign.sol\":2229:2249  imageURL = imagePath */\n  swap1\n  dup1\n  mload\n  swap1\n  0x20\n  add\n  swap1\n  tag_9\n  swap3\n  swap2\n  swap1\n  tag_7\n  jump\t// in\ntag_9:\n  pop\n    /* \"Campaign.sol\":1930:2256  constructor(uint minimum, address creator, string memory pName, string memory pAim, string memory imagePath, uint financialGoal) {... */\n  pop\n  pop\n  pop\n  pop\n  pop\n  pop\n    /* \"Campaign.sol\":1185:5284  contract Campaign {... */\n  jump(tag_10)\ntag_7:\n  dup3\n  dup1\n  sload\n  tag_11\n  swap1\n  tag_12\n  jump\t// in\ntag_11:\n  swap1\n  0x00\n  mstore\n  keccak256(0x00, 0x20)\n  swap1\n  0x1f\n  add\n  0x20\n  swap1\n  div\n  dup2\n  add\n  swap3\n  dup3\n  tag_14\n  jumpi\n  0x00\n  dup6\n  sstore\n  jump(tag_13)\ntag_14:\n  dup3\n  0x1f\n  lt\n  tag_15\n  jumpi\n  dup1\n  mload\n  not(0xff)\n  and\n  dup4\n  dup1\n  add\n  or\n  dup6\n  sstore\n  jump(tag_13)\ntag_15:\n  dup3\n  dup1\n  add\n  0x01\n  add\n  dup6\n  sstore\n  dup3\n  iszero\n  tag_13\n  jumpi\n  swap2\n  dup3\n  add\ntag_16:\n  dup3\n  dup2\n  gt\n  iszero\n  tag_17\n  jumpi\n  dup3\n  mload\n  dup3\n  sstore\n  swap2\n  0x20\n  add\n  swap2\n  swap1\n  0x01\n  add\n  swap1\n  jump(tag_16)\ntag_17:\ntag_13:\n  pop\n  swap1\n  pop\n  tag_18\n  swap2\n  swap1\n  tag_19\n  jump\t// in\ntag_18:\n  pop\n  swap1\n  jump\t// out\ntag_19:\ntag_20:\n  dup1\n  dup3\n  gt\n  iszero\n  tag_21\n  jumpi\n  0x00\n  dup2\n  0x00\n  swap1\n  sstore\n  pop\n  0x01\n  add\n  jump(tag_20)\ntag_21:\n  pop\n  swap1\n  jump\t// out\n    /* \"#utility.yul\":7:82   */\ntag_22:\n    /* \"#utility.yul\":40:46   */\n  0x00\n    /* \"#utility.yul\":73:75   */\n  0x40\n    /* \"#utility.yul\":67:76   */\n  mload\n    /* \"#utility.yul\":57:76   */\n  swap1\n  pop\n    /* \"#utility.yul\":7:82   */\n  swap1\n  jump\t// out\n    /* \"#utility.yul\":88:205   */\ntag_23:\n    /* \"#utility.yul\":197:198   */\n  0x00\n    /* \"#utility.yul\":194:195   */\n  dup1\n    /* \"#utility.yul\":187:199   */\n  revert\n    /* \"#utility.yul\":211:328   */\ntag_24:\n    /* \"#utility.yul\":320:321   */\n  0x00\n    /* \"#utility.yul\":317:318   */\n  dup1\n    /* \"#utility.yul\":310:322   */\n  revert\n    /* \"#utility.yul\":334:411   */\ntag_25:\n    /* \"#utility.yul\":371:378   */\n  0x00\n    /* \"#utility.yul\":400:405   */\n  dup2\n    /* \"#utility.yul\":389:405   */\n  swap1\n  pop\n    /* \"#utility.yul\":334:411   */\n  swap2\n  swap1\n  pop\n  jump\t// out\n    /* \"#utility.yul\":417:539   */\ntag_26:\n    /* \"#utility.yul\":490:514   */\n  tag_49\n    /* \"#utility.yul\":508:513   */\n  dup2\n    /* \"#utility.yul\":490:514   */\n  tag_25\n  jump\t// in\ntag_49:\n    /* \"#utility.yul\":483:488   */\n  dup2\n    /* \"#utility.yul\":480:515   */\n  eq\n    /* \"#utility.yul\":470:533   */\n  tag_50\n  jumpi\n    /* \"#utility.yul\":529:530   */\n  0x00\n    /* \"#utility.yul\":526:527   */\n  dup1\n    /* \"#utility.yul\":519:531   */\n  revert\n    /* \"#utility.yul\":470:533   */\ntag_50:\n    /* \"#utility.yul\":417:539   */\n  pop\n  jump\t// out\n    /* \"#utility.yul\":545:688   */\ntag_27:\n    /* \"#utility.yul\":602:607   */\n  0x00\n    /* \"#utility.yul\":633:639   */\n  dup2\n    /* \"#utility.yul\":627:640   */\n  mload\n    /* \"#utility.yul\":618:640   */\n  swap1\n  pop\n    /* \"#utility.yul\":649:682   */\n  tag_52\n    /* \"#utility.yul\":676:681   */\n  dup2\n    /* \"#utility.yul\":649:682   */\n  tag_26\n  jump\t// in\ntag_52:\n    /* \"#utility.yul\":545:688   */\n  swap3\n  swap2\n  pop\n  pop\n  jump\t// out\n    /* \"#utility.yul\":694:820   */\ntag_28:\n    /* \"#utility.yul\":731:738   */\n  0x00\n    /* \"#utility.yul\":771:813   */\n  0xffffffffffffffffffffffffffffffffffffffff\n    /* \"#utility.yul\":764:769   */\n  dup3\n    /* \"#utility.yul\":760:814   */\n  and\n    /* \"#utility.yul\":749:814   */\n  swap1\n  pop\n    /* \"#utility.yul\":694:820   */\n  swap2\n  swap1\n  pop\n  jump\t// out\n    /* \"#utility.yul\":826:922   */\ntag_29:\n    /* \"#utility.yul\":863:870   */\n  0x00\n    /* \"#utility.yul\":892:916   */\n  tag_55\n    /* \"#utility.yul\":910:915   */\n  dup3\n    /* \"#utility.yul\":892:916   */\n  tag_28\n  jump\t// in\ntag_55:\n    /* \"#utility.yul\":881:916   */\n  swap1\n  pop\n    /* \"#utility.yul\":826:922   */\n  swap2\n  swap1\n  pop\n  jump\t// out\n    /* \"#utility.yul\":928:1050   */\ntag_30:\n    /* \"#utility.yul\":1001:1025   */\n  tag_57\n    /* \"#utility.yul\":1019:1024   */\n  dup2\n    /* \"#utility.yul\":1001:1025   */\n  tag_29\n  jump\t// in\ntag_57:\n    /* \"#utility.yul\":994:999   */\n  dup2\n    /* \"#utility.yul\":991:1026   */\n  eq\n    /* \"#utility.yul\":981:1044   */\n  tag_58\n  jumpi\n    /* \"#utility.yul\":1040:1041   */\n  0x00\n    /* \"#utility.yul\":1037:1038   */\n  dup1\n    /* \"#utility.yul\":1030:1042   */\n  revert\n    /* \"#utility.yul\":981:1044   */\ntag_58:\n    /* \"#utility.yul\":928:1050   */\n  pop\n  jump\t// out\n    /* \"#utility.yul\":1056:1199   */\ntag_31:\n    /* \"#utility.yul\":1113:1118   */\n  0x00\n    /* \"#utility.yul\":1144:1150   */\n  dup2\n    /* \"#utility.yul\":1138:1151   */\n  mload\n    /* \"#utility.yul\":1129:1151   */\n  swap1\n  pop\n    /* \"#utility.yul\":1160:1193   */\n  tag_60\n    /* \"#utility.yul\":1187:1192   */\n  dup2\n    /* \"#utility.yul\":1160:1193   */\n  tag_30\n  jump\t// in\ntag_60:\n    /* \"#utility.yul\":1056:1199   */\n  swap3\n  swap2\n  pop\n  pop\n  jump\t// out\n    /* \"#utility.yul\":1205:1322   */\ntag_32:\n    /* \"#utility.yul\":1314:1315   */\n  0x00\n    /* \"#utility.yul\":1311:1312   */\n  dup1\n    /* \"#utility.yul\":1304:1316   */\n  revert\n    /* \"#utility.yul\":1328:1445   */\ntag_33:\n    /* \"#utility.yul\":1437:1438   */\n  0x00\n    /* \"#utility.yul\":1434:1435   */\n  dup1\n    /* \"#utility.yul\":1427:1439   */\n  revert\n    /* \"#utility.yul\":1451:1553   */\ntag_34:\n    /* \"#utility.yul\":1492:1498   */\n  0x00\n    /* \"#utility.yul\":1543:1545   */\n  0x1f\n    /* \"#utility.yul\":1539:1546   */\n  not\n    /* \"#utility.yul\":1534:1536   */\n  0x1f\n    /* \"#utility.yul\":1527:1532   */\n  dup4\n    /* \"#utility.yul\":1523:1537   */\n  add\n    /* \"#utility.yul\":1519:1547   */\n  and\n    /* \"#utility.yul\":1509:1547   */\n  swap1\n  pop\n    /* \"#utility.yul\":1451:1553   */\n  swap2\n  swap1\n  pop\n  jump\t// out\n    /* \"#utility.yul\":1559:1739   */\ntag_35:\n    /* \"#utility.yul\":1607:1684   */\n  0x4e487b7100000000000000000000000000000000000000000000000000000000\n    /* \"#utility.yul\":1604:1605   */\n  0x00\n    /* \"#utility.yul\":1597:1685   */\n  mstore\n    /* \"#utility.yul\":1704:1708   */\n  0x41\n    /* \"#utility.yul\":1701:1702   */\n  0x04\n    /* \"#utility.yul\":1694:1709   */\n  mstore\n    /* \"#utility.yul\":1728:1732   */\n  0x24\n    /* \"#utility.yul\":1725:1726   */\n  0x00\n    /* \"#utility.yul\":1718:1733   */\n  revert\n    /* \"#utility.yul\":1745:2026   */\ntag_36:\n    /* \"#utility.yul\":1828:1855   */\n  tag_66\n    /* \"#utility.yul\":1850:1854   */\n  dup3\n    /* \"#utility.yul\":1828:1855   */\n  tag_34\n  jump\t// in\ntag_66:\n    /* \"#utility.yul\":1820:1826   */\n  dup2\n    /* \"#utility.yul\":1816:1856   */\n  add\n    /* \"#utility.yul\":1958:1964   */\n  dup2\n    /* \"#utility.yul\":1946:1956   */\n  dup2\n    /* \"#utility.yul\":1943:1965   */\n  lt\n    /* \"#utility.yul\":1922:1940   */\n  0xffffffffffffffff\n    /* \"#utility.yul\":1910:1920   */\n  dup3\n    /* \"#utility.yul\":1907:1941   */\n  gt\n    /* \"#utility.yul\":1904:1966   */\n  or\n    /* \"#utility.yul\":1901:1989   */\n  iszero\n  tag_67\n  jumpi\n    /* \"#utility.yul\":1969:1987   */\n  tag_68\n  tag_35\n  jump\t// in\ntag_68:\n    /* \"#utility.yul\":1901:1989   */\ntag_67:\n    /* \"#utility.yul\":2009:2019   */\n  dup1\n    /* \"#utility.yul\":2005:2007   */\n  0x40\n    /* \"#utility.yul\":1998:2020   */\n  mstore\n    /* \"#utility.yul\":1788:2026   */\n  pop\n    /* \"#utility.yul\":1745:2026   */\n  pop\n  pop\n  jump\t// out\n    /* \"#utility.yul\":2032:2161   */\ntag_37:\n    /* \"#utility.yul\":2066:2072   */\n  0x00\n    /* \"#utility.yul\":2093:2113   */\n  tag_70\n  tag_22\n  jump\t// in\ntag_70:\n    /* \"#utility.yul\":2083:2113   */\n  swap1\n  pop\n    /* \"#utility.yul\":2122:2155   */\n  tag_71\n    /* \"#utility.yul\":2150:2154   */\n  dup3\n    /* \"#utility.yul\":2142:2148   */\n  dup3\n    /* \"#utility.yul\":2122:2155   */\n  tag_36\n  jump\t// in\ntag_71:\n    /* \"#utility.yul\":2032:2161   */\n  swap2\n  swap1\n  pop\n  jump\t// out\n    /* \"#utility.yul\":2167:2475   */\ntag_38:\n    /* \"#utility.yul\":2229:2233   */\n  0x00\n    /* \"#utility.yul\":2319:2337   */\n  0xffffffffffffffff\n    /* \"#utility.yul\":2311:2317   */\n  dup3\n    /* \"#utility.yul\":2308:2338   */\n  gt\n    /* \"#utility.yul\":2305:2361   */\n  iszero\n  tag_73\n  jumpi\n    /* \"#utility.yul\":2341:2359   */\n  tag_74\n  tag_35\n  jump\t// in\ntag_74:\n    /* \"#utility.yul\":2305:2361   */\ntag_73:\n    /* \"#utility.yul\":2379:2408   */\n  tag_75\n    /* \"#utility.yul\":2401:2407   */\n  dup3\n    /* \"#utility.yul\":2379:2408   */\n  tag_34\n  jump\t// in\ntag_75:\n    /* \"#utility.yul\":2371:2408   */\n  swap1\n  pop\n    /* \"#utility.yul\":2463:2467   */\n  0x20\n    /* \"#utility.yul\":2457:2461   */\n  dup2\n    /* \"#utility.yul\":2453:2468   */\n  add\n    /* \"#utility.yul\":2445:2468   */\n  swap1\n  pop\n    /* \"#utility.yul\":2167:2475   */\n  swap2\n  swap1\n  pop\n  jump\t// out\n    /* \"#utility.yul\":2481:2788   */\ntag_39:\n    /* \"#utility.yul\":2549:2550   */\n  0x00\n    /* \"#utility.yul\":2559:2672   */\ntag_77:\n    /* \"#utility.yul\":2573:2579   */\n  dup4\n    /* \"#utility.yul\":2570:2571   */\n  dup2\n    /* \"#utility.yul\":2567:2580   */\n  lt\n    /* \"#utility.yul\":2559:2672   */\n  iszero\n  tag_79\n  jumpi\n    /* \"#utility.yul\":2658:2659   */\n  dup1\n    /* \"#utility.yul\":2653:2656   */\n  dup3\n    /* \"#utility.yul\":2649:2660   */\n  add\n    /* \"#utility.yul\":2643:2661   */\n  mload\n    /* \"#utility.yul\":2639:2640   */\n  dup2\n    /* \"#utility.yul\":2634:2637   */\n  dup5\n    /* \"#utility.yul\":2630:2641   */\n  add\n    /* \"#utility.yul\":2623:2662   */\n  mstore\n    /* \"#utility.yul\":2595:2597   */\n  0x20\n    /* \"#utility.yul\":2592:2593   */\n  dup2\n    /* \"#utility.yul\":2588:2598   */\n  add\n    /* \"#utility.yul\":2583:2598   */\n  swap1\n  pop\n    /* \"#utility.yul\":2559:2672   */\n  jump(tag_77)\ntag_79:\n    /* \"#utility.yul\":2690:2696   */\n  dup4\n    /* \"#utility.yul\":2687:2688   */\n  dup2\n    /* \"#utility.yul\":2684:2697   */\n  gt\n    /* \"#utility.yul\":2681:2782   */\n  iszero\n  tag_80\n  jumpi\n    /* \"#utility.yul\":2770:2771   */\n  0x00\n    /* \"#utility.yul\":2761:2767   */\n  dup5\n    /* \"#utility.yul\":2756:2759   */\n  dup5\n    /* \"#utility.yul\":2752:2768   */\n  add\n    /* \"#utility.yul\":2745:2772   */\n  mstore\n    /* \"#utility.yul\":2681:2782   */\ntag_80:\n    /* \"#utility.yul\":2530:2788   */\n  pop\n    /* \"#utility.yul\":2481:2788   */\n  pop\n  pop\n  pop\n  jump\t// out\n    /* \"#utility.yul\":2794:3215   */\ntag_40:\n    /* \"#utility.yul\":2883:2888   */\n  0x00\n    /* \"#utility.yul\":2908:2974   */\n  tag_82\n    /* \"#utility.yul\":2924:2973   */\n  tag_83\n    /* \"#utility.yul\":2966:2972   */\n  dup5\n    /* \"#utility.yul\":2924:2973   */\n  tag_38\n  jump\t// in\ntag_83:\n    /* \"#utility.yul\":2908:2974   */\n  tag_37\n  jump\t// in\ntag_82:\n    /* \"#utility.yul\":2899:2974   */\n  swap1\n  pop\n    /* \"#utility.yul\":2997:3003   */\n  dup3\n    /* \"#utility.yul\":2990:2995   */\n  dup2\n    /* \"#utility.yul\":2983:3004   */\n  mstore\n    /* \"#utility.yul\":3035:3039   */\n  0x20\n    /* \"#utility.yul\":3028:3033   */\n  dup2\n    /* \"#utility.yul\":3024:3040   */\n  add\n    /* \"#utility.yul\":3073:3076   */\n  dup5\n    /* \"#utility.yul\":3064:3070   */\n  dup5\n    /* \"#utility.yul\":3059:3062   */\n  dup5\n    /* \"#utility.yul\":3055:3071   */\n  add\n    /* \"#utility.yul\":3052:3077   */\n  gt\n    /* \"#utility.yul\":3049:3161   */\n  iszero\n  tag_84\n  jumpi\n    /* \"#utility.yul\":3080:3159   */\n  tag_85\n  tag_33\n  jump\t// in\ntag_85:\n    /* \"#utility.yul\":3049:3161   */\ntag_84:\n    /* \"#utility.yul\":3170:3209   */\n  tag_86\n    /* \"#utility.yul\":3202:3208   */\n  dup5\n    /* \"#utility.yul\":3197:3200   */\n  dup3\n    /* \"#utility.yul\":3192:3195   */\n  dup6\n    /* \"#utility.yul\":3170:3209   */\n  tag_39\n  jump\t// in\ntag_86:\n    /* \"#utility.yul\":2889:3215   */\n  pop\n    /* \"#utility.yul\":2794:3215   */\n  swap4\n  swap3\n  pop\n  pop\n  pop\n  jump\t// out\n    /* \"#utility.yul\":3235:3590   */\ntag_41:\n    /* \"#utility.yul\":3302:3307   */\n  0x00\n    /* \"#utility.yul\":3351:3354   */\n  dup3\n    /* \"#utility.yul\":3344:3348   */\n  0x1f\n    /* \"#utility.yul\":3336:3342   */\n  dup4\n    /* \"#utility.yul\":3332:3349   */\n  add\n    /* \"#utility.yul\":3328:3355   */\n  slt\n    /* \"#utility.yul\":3318:3440   */\n  tag_88\n  jumpi\n    /* \"#utility.yul\":3359:3438   */\n  tag_89\n  tag_32\n  jump\t// in\ntag_89:\n    /* \"#utility.yul\":3318:3440   */\ntag_88:\n    /* \"#utility.yul\":3469:3475   */\n  dup2\n    /* \"#utility.yul\":3463:3476   */\n  mload\n    /* \"#utility.yul\":3494:3584   */\n  tag_90\n    /* \"#utility.yul\":3580:3583   */\n  dup5\n    /* \"#utility.yul\":3572:3578   */\n  dup3\n    /* \"#utility.yul\":3565:3569   */\n  0x20\n    /* \"#utility.yul\":3557:3563   */\n  dup7\n    /* \"#utility.yul\":3553:3570   */\n  add\n    /* \"#utility.yul\":3494:3584   */\n  tag_40\n  jump\t// in\ntag_90:\n    /* \"#utility.yul\":3485:3584   */\n  swap2\n  pop\n    /* \"#utility.yul\":3308:3590   */\n  pop\n    /* \"#utility.yul\":3235:3590   */\n  swap3\n  swap2\n  pop\n  pop\n  jump\t// out\n    /* \"#utility.yul\":3596:5249   */\ntag_3:\n    /* \"#utility.yul\":3741:3747   */\n  0x00\n    /* \"#utility.yul\":3749:3755   */\n  dup1\n    /* \"#utility.yul\":3757:3763   */\n  0x00\n    /* \"#utility.yul\":3765:3771   */\n  dup1\n    /* \"#utility.yul\":3773:3779   */\n  0x00\n    /* \"#utility.yul\":3781:3787   */\n  dup1\n    /* \"#utility.yul\":3830:3833   */\n  0xc0\n    /* \"#utility.yul\":3818:3827   */\n  dup8\n    /* \"#utility.yul\":3809:3816   */\n  dup10\n    /* \"#utility.yul\":3805:3828   */\n  sub\n    /* \"#utility.yul\":3801:3834   */\n  slt\n    /* \"#utility.yul\":3798:3918   */\n  iszero\n  tag_92\n  jumpi\n    /* \"#utility.yul\":3837:3916   */\n  tag_93\n  tag_23\n  jump\t// in\ntag_93:\n    /* \"#utility.yul\":3798:3918   */\ntag_92:\n    /* \"#utility.yul\":3957:3958   */\n  0x00\n    /* \"#utility.yul\":3982:4046   */\n  tag_94\n    /* \"#utility.yul\":4038:4045   */\n  dup10\n    /* \"#utility.yul\":4029:4035   */\n  dup3\n    /* \"#utility.yul\":4018:4027   */\n  dup11\n    /* \"#utility.yul\":4014:4036   */\n  add\n    /* \"#utility.yul\":3982:4046   */\n  tag_27\n  jump\t// in\ntag_94:\n    /* \"#utility.yul\":3972:4046   */\n  swap7\n  pop\n    /* \"#utility.yul\":3928:4056   */\n  pop\n    /* \"#utility.yul\":4095:4097   */\n  0x20\n    /* \"#utility.yul\":4121:4185   */\n  tag_95\n    /* \"#utility.yul\":4177:4184   */\n  dup10\n    /* \"#utility.yul\":4168:4174   */\n  dup3\n    /* \"#utility.yul\":4157:4166   */\n  dup11\n    /* \"#utility.yul\":4153:4175   */\n  add\n    /* \"#utility.yul\":4121:4185   */\n  tag_31\n  jump\t// in\ntag_95:\n    /* \"#utility.yul\":4111:4185   */\n  swap6\n  pop\n    /* \"#utility.yul\":4066:4195   */\n  pop\n    /* \"#utility.yul\":4255:4257   */\n  0x40\n    /* \"#utility.yul\":4244:4253   */\n  dup8\n    /* \"#utility.yul\":4240:4258   */\n  add\n    /* \"#utility.yul\":4234:4259   */\n  mload\n    /* \"#utility.yul\":4286:4304   */\n  0xffffffffffffffff\n    /* \"#utility.yul\":4278:4284   */\n  dup2\n    /* \"#utility.yul\":4275:4305   */\n  gt\n    /* \"#utility.yul\":4272:4389   */\n  iszero\n  tag_96\n  jumpi\n    /* \"#utility.yul\":4308:4387   */\n  tag_97\n  tag_24\n  jump\t// in\ntag_97:\n    /* \"#utility.yul\":4272:4389   */\ntag_96:\n    /* \"#utility.yul\":4413:4487   */\n  tag_98\n    /* \"#utility.yul\":4479:4486   */\n  dup10\n    /* \"#utility.yul\":4470:4476   */\n  dup3\n    /* \"#utility.yul\":4459:4468   */\n  dup11\n    /* \"#utility.yul\":4455:4477   */\n  add\n    /* \"#utility.yul\":4413:4487   */\n  tag_41\n  jump\t// in\ntag_98:\n    /* \"#utility.yul\":4403:4487   */\n  swap5\n  pop\n    /* \"#utility.yul\":4205:4497   */\n  pop\n    /* \"#utility.yul\":4557:4559   */\n  0x60\n    /* \"#utility.yul\":4546:4555   */\n  dup8\n    /* \"#utility.yul\":4542:4560   */\n  add\n    /* \"#utility.yul\":4536:4561   */\n  mload\n    /* \"#utility.yul\":4588:4606   */\n  0xffffffffffffffff\n    /* \"#utility.yul\":4580:4586   */\n  dup2\n    /* \"#utility.yul\":4577:4607   */\n  gt\n    /* \"#utility.yul\":4574:4691   */\n  iszero\n  tag_99\n  jumpi\n    /* \"#utility.yul\":4610:4689   */\n  tag_100\n  tag_24\n  jump\t// in\ntag_100:\n    /* \"#utility.yul\":4574:4691   */\ntag_99:\n    /* \"#utility.yul\":4715:4789   */\n  tag_101\n    /* \"#utility.yul\":4781:4788   */\n  dup10\n    /* \"#utility.yul\":4772:4778   */\n  dup3\n    /* \"#utility.yul\":4761:4770   */\n  dup11\n    /* \"#utility.yul\":4757:4779   */\n  add\n    /* \"#utility.yul\":4715:4789   */\n  tag_41\n  jump\t// in\ntag_101:\n    /* \"#utility.yul\":4705:4789   */\n  swap4\n  pop\n    /* \"#utility.yul\":4507:4799   */\n  pop\n    /* \"#utility.yul\":4859:4862   */\n  0x80\n    /* \"#utility.yul\":4848:4857   */\n  dup8\n    /* \"#utility.yul\":4844:4863   */\n  add\n    /* \"#utility.yul\":4838:4864   */\n  mload\n    /* \"#utility.yul\":4891:4909   */\n  0xffffffffffffffff\n    /* \"#utility.yul\":4883:4889   */\n  dup2\n    /* \"#utility.yul\":4880:4910   */\n  gt\n    /* \"#utility.yul\":4877:4994   */\n  iszero\n  tag_102\n  jumpi\n    /* \"#utility.yul\":4913:4992   */\n  tag_103\n  tag_24\n  jump\t// in\ntag_103:\n    /* \"#utility.yul\":4877:4994   */\ntag_102:\n    /* \"#utility.yul\":5018:5092   */\n  tag_104\n    /* \"#utility.yul\":5084:5091   */\n  dup10\n    /* \"#utility.yul\":5075:5081   */\n  dup3\n    /* \"#utility.yul\":5064:5073   */\n  dup11\n    /* \"#utility.yul\":5060:5082   */\n  add\n    /* \"#utility.yul\":5018:5092   */\n  tag_41\n  jump\t// in\ntag_104:\n    /* \"#utility.yul\":5008:5092   */\n  swap3\n  pop\n    /* \"#utility.yul\":4809:5102   */\n  pop\n    /* \"#utility.yul\":5141:5144   */\n  0xa0\n    /* \"#utility.yul\":5168:5232   */\n  tag_105\n    /* \"#utility.yul\":5224:5231   */\n  dup10\n    /* \"#utility.yul\":5215:5221   */\n  dup3\n    /* \"#utility.yul\":5204:5213   */\n  dup11\n    /* \"#utility.yul\":5200:5222   */\n  add\n    /* \"#utility.yul\":5168:5232   */\n  tag_27\n  jump\t// in\ntag_105:\n    /* \"#utility.yul\":5158:5232   */\n  swap2\n  pop\n    /* \"#utility.yul\":5112:5242   */\n  pop\n    /* \"#utility.yul\":3596:5249   */\n  swap3\n  swap6\n  pop\n  swap3\n  swap6\n  pop\n  swap3\n  swap6\n  jump\t// out\n    /* \"#utility.yul\":5255:5435   */\ntag_42:\n    /* \"#utility.yul\":5303:5380   */\n  0x4e487b7100000000000000000000000000000000000000000000000000000000\n    /* \"#utility.yul\":5300:5301   */\n  0x00\n    /* \"#utility.yul\":5293:5381   */\n  mstore\n    /* \"#utility.yul\":5400:5404   */\n  0x22\n    /* \"#utility.yul\":5397:5398   */\n  0x04\n    /* \"#utility.yul\":5390:5405   */\n  mstore\n    /* \"#utility.yul\":5424:5428   */\n  0x24\n    /* \"#utility.yul\":5421:5422   */\n  0x00\n    /* \"#utility.yul\":5414:5429   */\n  revert\n    /* \"#utility.yul\":5441:5761   */\ntag_12:\n    /* \"#utility.yul\":5485:5491   */\n  0x00\n    /* \"#utility.yul\":5522:5523   */\n  0x02\n    /* \"#utility.yul\":5516:5520   */\n  dup3\n    /* \"#utility.yul\":5512:5524   */\n  div\n    /* \"#utility.yul\":5502:5524   */\n  swap1\n  pop\n    /* \"#utility.yul\":5569:5570   */\n  0x01\n    /* \"#utility.yul\":5563:5567   */\n  dup3\n    /* \"#utility.yul\":5559:5571   */\n  and\n    /* \"#utility.yul\":5590:5608   */\n  dup1\n    /* \"#utility.yul\":5580:5661   */\n  tag_108\n  jumpi\n    /* \"#utility.yul\":5646:5650   */\n  0x7f\n    /* \"#utility.yul\":5638:5644   */\n  dup3\n    /* \"#utility.yul\":5634:5651   */\n  and\n    /* \"#utility.yul\":5624:5651   */\n  swap2\n  pop\n    /* \"#utility.yul\":5580:5661   */\ntag_108:\n    /* \"#utility.yul\":5708:5710   */\n  0x20\n    /* \"#utility.yul\":5700:5706   */\n  dup3\n    /* \"#utility.yul\":5697:5711   */\n  lt\n    /* \"#utility.yul\":5677:5695   */\n  dup2\n    /* \"#utility.yul\":5674:5712   */\n  eq\n    /* \"#utility.yul\":5671:5755   */\n  iszero\n  tag_109\n  jumpi\n    /* \"#utility.yul\":5727:5745   */\n  tag_110\n  tag_42\n  jump\t// in\ntag_110:\n    /* \"#utility.yul\":5671:5755   */\ntag_109:\n    /* \"#utility.yul\":5492:5761   */\n  pop\n    /* \"#utility.yul\":5441:5761   */\n  swap2\n  swap1\n  pop\n  jump\t// out\n    /* \"Campaign.sol\":1185:5284  contract Campaign {... */\ntag_10:\n  dataSize(sub_0)\n  dup1\n  dataOffset(sub_0)\n  0x00\n  codecopy\n  0x00\n  return\nstop\n\nsub_0: assembly {\n        /* \"Campaign.sol\":1185:5284  contract Campaign {... */\n      mstore(0x40, 0x80)\n      jumpi(tag_1, lt(calldatasize, 0x04))\n      shr(0xe0, calldataload(0x00))\n      dup1\n      0x8a9cfd55\n      gt\n      tag_23\n      jumpi\n      dup1\n      0xd3087b57\n      gt\n      tag_24\n      jumpi\n      dup1\n      0xd3087b57\n      eq\n      tag_17\n      jumpi\n      dup1\n      0xd7bb99ba\n      eq\n      tag_18\n      jumpi\n      dup1\n      0xd7d1bbdb\n      eq\n      tag_19\n      jumpi\n      dup1\n      0xe9a21bcd\n      eq\n      tag_20\n      jumpi\n      dup1\n      0xeb7b1312\n      eq\n      tag_21\n      jumpi\n      dup1\n      0xecd1eecf\n      eq\n      tag_22\n      jumpi\n      jump(tag_1)\n    tag_24:\n      dup1\n      0x8a9cfd55\n      eq\n      tag_12\n      jumpi\n      dup1\n      0x937e09b1\n      eq\n      tag_13\n      jumpi\n      dup1\n      0x9a33e300\n      eq\n      tag_14\n      jumpi\n      dup1\n      0x9fb42b1f\n      eq\n      tag_15\n      jumpi\n      dup1\n      0xb90497e0\n      eq\n      tag_16\n      jumpi\n      jump(tag_1)\n    tag_23:\n      dup1\n      0x481c6a75\n      gt\n      tag_25\n      jumpi\n      dup1\n      0x481c6a75\n      eq\n      tag_7\n      jumpi\n      dup1\n      0x4d80e709\n      eq\n      tag_8\n      jumpi\n      dup1\n      0x647c75e2\n      eq\n      tag_9\n      jumpi\n      dup1\n      0x70035047\n      eq\n      tag_10\n      jumpi\n      dup1\n      0x81d12c58\n      eq\n      tag_11\n      jumpi\n      jump(tag_1)\n    tag_25:\n      dup1\n      0x03441006\n      eq\n      tag_2\n      jumpi\n      dup1\n      0x244c3c2c\n      eq\n      tag_3\n      jumpi\n      dup1\n      0x2a16cca4\n      eq\n      tag_4\n      jumpi\n      dup1\n      0x2c5cac63\n      eq\n      tag_5\n      jumpi\n      dup1\n      0x4051ddac\n      eq\n      tag_6\n      jumpi\n    tag_1:\n      0x00\n      dup1\n      revert\n        /* \"Campaign.sol\":4269:4678  function finalizeRequest(uint index) public restricted {... */\n    tag_2:\n      callvalue\n      dup1\n      iszero\n      tag_26\n      jumpi\n      0x00\n      dup1\n      revert\n    tag_26:\n      pop\n      tag_27\n      0x04\n      dup1\n      calldatasize\n      sub\n      dup2\n      add\n      swap1\n      tag_28\n      swap2\n      swap1\n      tag_29\n      jump\t// in\n    tag_28:\n      tag_30\n      jump\t// in\n    tag_27:\n      stop\n        /* \"Campaign.sol\":2830:3122  function deleteCampaign() public payable  {... */\n    tag_3:\n      tag_31\n      tag_32\n      jump\t// in\n    tag_31:\n      stop\n        /* \"Campaign.sol\":4078:4254  function isApproved(address account, uint index) public view returns(bool) {... */\n    tag_4:\n      callvalue\n      dup1\n      iszero\n      tag_33\n      jumpi\n      0x00\n      dup1\n      revert\n    tag_33:\n      pop\n      tag_34\n      0x04\n      dup1\n      calldatasize\n      sub\n      dup2\n      add\n      swap1\n      tag_35\n      swap2\n      swap1\n      tag_36\n      jump\t// in\n    tag_35:\n      tag_37\n      jump\t// in\n    tag_34:\n      mload(0x40)\n      tag_38\n      swap2\n      swap1\n      tag_39\n      jump\t// in\n    tag_38:\n      mload(0x40)\n      dup1\n      swap2\n      sub\n      swap1\n      return\n        /* \"Campaign.sol\":1525:1584  mapping(address => uint) public supporterContributionValues */\n    tag_5:\n      callvalue\n      dup1\n      iszero\n      tag_40\n      jumpi\n      0x00\n      dup1\n      revert\n    tag_40:\n      pop\n      tag_41\n      0x04\n      dup1\n      calldatasize\n      sub\n      dup2\n      add\n      swap1\n      tag_42\n      swap2\n      swap1\n      tag_43\n      jump\t// in\n    tag_42:\n      tag_44\n      jump\t// in\n    tag_41:\n      mload(0x40)\n      tag_45\n      swap2\n      swap1\n      tag_46\n      jump\t// in\n    tag_45:\n      mload(0x40)\n      dup1\n      swap2\n      sub\n      swap1\n      return\n        /* \"Campaign.sol\":4845:5277  function getSummary() public view returns (... */\n    tag_6:\n      callvalue\n      dup1\n      iszero\n      tag_47\n      jumpi\n      0x00\n      dup1\n      revert\n    tag_47:\n      pop\n      tag_48\n      tag_49\n      jump\t// in\n    tag_48:\n      mload(0x40)\n      tag_50\n      swap11\n      swap10\n      swap9\n      swap8\n      swap7\n      swap6\n      swap5\n      swap4\n      swap3\n      swap2\n      swap1\n      tag_51\n      jump\t// in\n    tag_50:\n      mload(0x40)\n      dup1\n      swap2\n      sub\n      swap1\n      return\n        /* \"Campaign.sol\":1209:1231  address public manager */\n    tag_7:\n      callvalue\n      dup1\n      iszero\n      tag_52\n      jumpi\n      0x00\n      dup1\n      revert\n    tag_52:\n      pop\n      tag_53\n      tag_54\n      jump\t// in\n    tag_53:\n      mload(0x40)\n      tag_55\n      swap2\n      swap1\n      tag_56\n      jump\t// in\n    tag_55:\n      mload(0x40)\n      dup1\n      swap2\n      sub\n      swap1\n      return\n        /* \"Campaign.sol\":1474:1519  address payable[] public  supportersAddresses */\n    tag_8:\n      callvalue\n      dup1\n      iszero\n      tag_57\n      jumpi\n      0x00\n      dup1\n      revert\n    tag_57:\n      pop\n      tag_58\n      0x04\n      dup1\n      calldatasize\n      sub\n      dup2\n      add\n      swap1\n      tag_59\n      swap2\n      swap1\n      tag_29\n      jump\t// in\n    tag_59:\n      tag_60\n      jump\t// in\n    tag_58:\n      mload(0x40)\n      tag_61\n      swap2\n      swap1\n      tag_62\n      jump\t// in\n    tag_61:\n      mload(0x40)\n      dup1\n      swap2\n      sub\n      swap1\n      return\n        /* \"Campaign.sol\":1426:1468  mapping(address => bool) public supporters */\n    tag_9:\n      callvalue\n      dup1\n      iszero\n      tag_63\n      jumpi\n      0x00\n      dup1\n      revert\n    tag_63:\n      pop\n      tag_64\n      0x04\n      dup1\n      calldatasize\n      sub\n      dup2\n      add\n      swap1\n      tag_65\n      swap2\n      swap1\n      tag_43\n      jump\t// in\n    tag_65:\n      tag_66\n      jump\t// in\n    tag_64:\n      mload(0x40)\n      tag_67\n      swap2\n      swap1\n      tag_39\n      jump\t// in\n    tag_67:\n      mload(0x40)\n      dup1\n      swap2\n      sub\n      swap1\n      return\n        /* \"Campaign.sol\":1326:1350  uint public financialAim */\n    tag_10:\n      callvalue\n      dup1\n      iszero\n      tag_68\n      jumpi\n      0x00\n      dup1\n      revert\n    tag_68:\n      pop\n      tag_69\n      tag_70\n      jump\t// in\n    tag_69:\n      mload(0x40)\n      tag_71\n      swap2\n      swap1\n      tag_46\n      jump\t// in\n    tag_71:\n      mload(0x40)\n      dup1\n      swap2\n      sub\n      swap1\n      return\n        /* \"Campaign.sol\":1880:1921  mapping (uint => Request) public requests */\n    tag_11:\n      callvalue\n      dup1\n      iszero\n      tag_72\n      jumpi\n      0x00\n      dup1\n      revert\n    tag_72:\n      pop\n      tag_73\n      0x04\n      dup1\n      calldatasize\n      sub\n      dup2\n      add\n      swap1\n      tag_74\n      swap2\n      swap1\n      tag_29\n      jump\t// in\n    tag_74:\n      tag_75\n      jump\t// in\n    tag_73:\n      mload(0x40)\n      tag_76\n      swap7\n      swap6\n      swap5\n      swap4\n      swap3\n      swap2\n      swap1\n      tag_77\n      jump\t// in\n    tag_76:\n      mload(0x40)\n      dup1\n      swap2\n      sub\n      swap1\n      return\n        /* \"Campaign.sol\":3137:3663  function createRequest(string memory description, uint value, address payable recipient)... */\n    tag_12:\n      callvalue\n      dup1\n      iszero\n      tag_78\n      jumpi\n      0x00\n      dup1\n      revert\n    tag_78:\n      pop\n      tag_79\n      0x04\n      dup1\n      calldatasize\n      sub\n      dup2\n      add\n      swap1\n      tag_80\n      swap2\n      swap1\n      tag_81\n      jump\t// in\n    tag_80:\n      tag_82\n      jump\t// in\n    tag_79:\n      stop\n        /* \"Campaign.sol\":1356:1387  uint public minimumContribution */\n    tag_13:\n      callvalue\n      dup1\n      iszero\n      tag_83\n      jumpi\n      0x00\n      dup1\n      revert\n    tag_83:\n      pop\n      tag_84\n      tag_85\n      jump\t// in\n    tag_84:\n      mload(0x40)\n      tag_86\n      swap2\n      swap1\n      tag_46\n      jump\t// in\n    tag_86:\n      mload(0x40)\n      dup1\n      swap2\n      sub\n      swap1\n      return\n        /* \"Campaign.sol\":1237:1262  string public projectName */\n    tag_14:\n      callvalue\n      dup1\n      iszero\n      tag_87\n      jumpi\n      0x00\n      dup1\n      revert\n    tag_87:\n      pop\n      tag_88\n      tag_89\n      jump\t// in\n    tag_88:\n      mload(0x40)\n      tag_90\n      swap2\n      swap1\n      tag_91\n      jump\t// in\n    tag_90:\n      mload(0x40)\n      dup1\n      swap2\n      sub\n      swap1\n      return\n        /* \"Campaign.sol\":1851:1874  uint public numRequests */\n    tag_15:\n      callvalue\n      dup1\n      iszero\n      tag_92\n      jumpi\n      0x00\n      dup1\n      revert\n    tag_92:\n      pop\n      tag_93\n      tag_94\n      jump\t// in\n    tag_93:\n      mload(0x40)\n      tag_95\n      swap2\n      swap1\n      tag_46\n      jump\t// in\n    tag_95:\n      mload(0x40)\n      dup1\n      swap2\n      sub\n      swap1\n      return\n        /* \"Campaign.sol\":1298:1320  string public imageURL */\n    tag_16:\n      callvalue\n      dup1\n      iszero\n      tag_96\n      jumpi\n      0x00\n      dup1\n      revert\n    tag_96:\n      pop\n      tag_97\n      tag_98\n      jump\t// in\n    tag_97:\n      mload(0x40)\n      tag_99\n      swap2\n      swap1\n      tag_91\n      jump\t// in\n    tag_99:\n      mload(0x40)\n      dup1\n      swap2\n      sub\n      swap1\n      return\n        /* \"Campaign.sol\":1268:1292  string public projectAim */\n    tag_17:\n      callvalue\n      dup1\n      iszero\n      tag_100\n      jumpi\n      0x00\n      dup1\n      revert\n    tag_100:\n      pop\n      tag_101\n      tag_102\n      jump\t// in\n    tag_101:\n      mload(0x40)\n      tag_103\n      swap2\n      swap1\n      tag_91\n      jump\t// in\n    tag_103:\n      mload(0x40)\n      dup1\n      swap2\n      sub\n      swap1\n      return\n        /* \"Campaign.sol\":2394:2820  function contribute() public payable {... */\n    tag_18:\n      tag_104\n      tag_105\n      jump\t// in\n    tag_104:\n      stop\n        /* \"Campaign.sol\":3673:4068  function approveRequest(uint index) public {... */\n    tag_19:\n      callvalue\n      dup1\n      iszero\n      tag_106\n      jumpi\n      0x00\n      dup1\n      revert\n    tag_106:\n      pop\n      tag_107\n      0x04\n      dup1\n      calldatasize\n      sub\n      dup2\n      add\n      swap1\n      tag_108\n      swap2\n      swap1\n      tag_29\n      jump\t// in\n    tag_108:\n      tag_109\n      jump\t// in\n    tag_107:\n      stop\n        /* \"Campaign.sol\":4691:4838  function deleteRequest(uint index) public restricted {... */\n    tag_20:\n      callvalue\n      dup1\n      iszero\n      tag_110\n      jumpi\n      0x00\n      dup1\n      revert\n    tag_110:\n      pop\n      tag_111\n      0x04\n      dup1\n      calldatasize\n      sub\n      dup2\n      add\n      swap1\n      tag_112\n      swap2\n      swap1\n      tag_29\n      jump\t// in\n    tag_112:\n      tag_113\n      jump\t// in\n    tag_111:\n      stop\n        /* \"Campaign.sol\":1590:1617  uint public supportersCount */\n    tag_21:\n      callvalue\n      dup1\n      iszero\n      tag_114\n      jumpi\n      0x00\n      dup1\n      revert\n    tag_114:\n      pop\n      tag_115\n      tag_116\n      jump\t// in\n    tag_115:\n      mload(0x40)\n      tag_117\n      swap2\n      swap1\n      tag_46\n      jump\t// in\n    tag_117:\n      mload(0x40)\n      dup1\n      swap2\n      sub\n      swap1\n      return\n        /* \"Campaign.sol\":1393:1420  uint public requestsBalance */\n    tag_22:\n      callvalue\n      dup1\n      iszero\n      tag_118\n      jumpi\n      0x00\n      dup1\n      revert\n    tag_118:\n      pop\n      tag_119\n      tag_120\n      jump\t// in\n    tag_119:\n      mload(0x40)\n      tag_121\n      swap2\n      swap1\n      tag_46\n      jump\t// in\n    tag_121:\n      mload(0x40)\n      dup1\n      swap2\n      sub\n      swap1\n      return\n        /* \"Campaign.sol\":4269:4678  function finalizeRequest(uint index) public restricted {... */\n    tag_30:\n        /* \"Campaign.sol\":2320:2327  manager */\n      0x00\n      dup1\n      sload\n      swap1\n      0x0100\n      exp\n      swap1\n      div\n      0xffffffffffffffffffffffffffffffffffffffff\n      and\n        /* \"Campaign.sol\":2306:2327  msg.sender == manager */\n      0xffffffffffffffffffffffffffffffffffffffff\n      and\n        /* \"Campaign.sol\":2306:2316  msg.sender */\n      caller\n        /* \"Campaign.sol\":2306:2327  msg.sender == manager */\n      0xffffffffffffffffffffffffffffffffffffffff\n      and\n      eq\n        /* \"Campaign.sol\":2298:2366  require(msg.sender == manager, \"Only manager can take this action.\") */\n      tag_123\n      jumpi\n      mload(0x40)\n      0x08c379a000000000000000000000000000000000000000000000000000000000\n      dup2\n      mstore\n      0x04\n      add\n      tag_124\n      swap1\n      tag_125\n      jump\t// in\n    tag_124:\n      mload(0x40)\n      dup1\n      swap2\n      sub\n      swap1\n      revert\n    tag_123:\n        /* \"Campaign.sol\":4334:4357  Request storage request */\n      0x00\n        /* \"Campaign.sol\":4360:4368  requests */\n      0x0c\n        /* \"Campaign.sol\":4360:4375  requests[index] */\n      0x00\n        /* \"Campaign.sol\":4369:4374  index */\n      dup4\n        /* \"Campaign.sol\":4360:4375  requests[index] */\n      dup2\n      mstore\n      0x20\n      add\n      swap1\n      dup2\n      mstore\n      0x20\n      add\n      0x00\n      keccak256\n        /* \"Campaign.sol\":4334:4375  Request storage request = requests[index] */\n      swap1\n      pop\n        /* \"Campaign.sol\":4434:4435  2 */\n      0x02\n        /* \"Campaign.sol\":4418:4433  supportersCount */\n      sload(0x0a)\n        /* \"Campaign.sol\":4418:4435  supportersCount/2 */\n      tag_127\n      swap2\n      swap1\n      tag_128\n      jump\t// in\n    tag_127:\n        /* \"Campaign.sol\":4393:4400  request */\n      dup2\n        /* \"Campaign.sol\":4393:4414  request.approvalCount */\n      0x04\n      add\n      sload\n        /* \"Campaign.sol\":4393:4436  request.approvalCount > (supportersCount/2) */\n      gt\n        /* \"Campaign.sol\":4385:4467  require(request.approvalCount > (supportersCount/2), \"Not enough approval ratio.\") */\n      tag_129\n      jumpi\n      mload(0x40)\n      0x08c379a000000000000000000000000000000000000000000000000000000000\n      dup2\n      mstore\n      0x04\n      add\n      tag_130\n      swap1\n      tag_131\n      jump\t// in\n    tag_130:\n      mload(0x40)\n      dup1\n      swap2\n      sub\n      swap1\n      revert\n    tag_129:\n        /* \"Campaign.sol\":4486:4493  request */\n      dup1\n        /* \"Campaign.sol\":4486:4502  request.complete */\n      0x03\n      add\n      0x14\n      swap1\n      sload\n      swap1\n      0x0100\n      exp\n      swap1\n      div\n      0xff\n      and\n        /* \"Campaign.sol\":4485:4502  !request.complete */\n      iszero\n        /* \"Campaign.sol\":4477:4540  require(!request.complete, \"The request is already finalized.\") */\n      tag_132\n      jumpi\n      mload(0x40)\n      0x08c379a000000000000000000000000000000000000000000000000000000000\n      dup2\n      mstore\n      0x04\n      add\n      tag_133\n      swap1\n      tag_134\n      jump\t// in\n    tag_133:\n      mload(0x40)\n      dup1\n      swap2\n      sub\n      swap1\n      revert\n    tag_132:\n        /* \"Campaign.sol\":4559:4566  request */\n      dup1\n        /* \"Campaign.sol\":4559:4576  request.recipient */\n      0x03\n      add\n      0x00\n      swap1\n      sload\n      swap1\n      0x0100\n      exp\n      swap1\n      div\n      0xffffffffffffffffffffffffffffffffffffffff\n      and\n        /* \"Campaign.sol\":4559:4585  request.recipient.transfer */\n      0xffffffffffffffffffffffffffffffffffffffff\n      and\n        /* \"Campaign.sol\":4559:4600  request.recipient.transfer(request.value) */\n      0x08fc\n        /* \"Campaign.sol\":4586:4593  request */\n      dup3\n        /* \"Campaign.sol\":4586:4599  request.value */\n      0x02\n      add\n      sload\n        /* \"Campaign.sol\":4559:4600  request.recipient.transfer(request.value) */\n      swap1\n      dup2\n      iszero\n      mul\n      swap1\n      mload(0x40)\n      0x00\n      mload(0x40)\n      dup1\n      dup4\n      sub\n      dup2\n      dup6\n      dup9\n      dup9\n      call\n      swap4\n      pop\n      pop\n      pop\n      pop\n      iszero\n      dup1\n      iszero\n      tag_136\n      jumpi\n      returndatasize\n      0x00\n      dup1\n      returndatacopy\n      revert(0x00, returndatasize)\n    tag_136:\n      pop\n        /* \"Campaign.sol\":4629:4633  true */\n      0x01\n        /* \"Campaign.sol\":4610:4617  request */\n      dup2\n        /* \"Campaign.sol\":4610:4626  request.complete */\n      0x03\n      add\n      0x14\n        /* \"Campaign.sol\":4610:4633  request.complete = true */\n      0x0100\n      exp\n      dup2\n      sload\n      dup2\n      0xff\n      mul\n      not\n      and\n      swap1\n      dup4\n      iszero\n      iszero\n      mul\n      or\n      swap1\n      sstore\n      pop\n        /* \"Campaign.sol\":4643:4671  request.status = \"finalized\" */\n      mload(0x40)\n      dup1\n      0x40\n      add\n      0x40\n      mstore\n      dup1\n      0x09\n      dup2\n      mstore\n      0x20\n      add\n      0x66696e616c697a65640000000000000000000000000000000000000000000000\n      dup2\n      mstore\n      pop\n        /* \"Campaign.sol\":4643:4650  request */\n      dup2\n        /* \"Campaign.sol\":4643:4657  request.status */\n      0x01\n      add\n        /* \"Campaign.sol\":4643:4671  request.status = \"finalized\" */\n      swap1\n      dup1\n      mload\n      swap1\n      0x20\n      add\n      swap1\n      tag_137\n      swap3\n      swap2\n      swap1\n      tag_138\n      jump\t// in\n    tag_137:\n      pop\n        /* \"Campaign.sol\":4324:4678  {... */\n      pop\n        /* \"Campaign.sol\":4269:4678  function finalizeRequest(uint index) public restricted {... */\n      pop\n      jump\t// out\n        /* \"Campaign.sol\":2830:3122  function deleteCampaign() public payable  {... */\n    tag_32:\n        /* \"Campaign.sol\":2887:2893  uint i */\n      0x00\n        /* \"Campaign.sol\":2882:3041  for (uint i=0; i<supportersAddresses.length; i++) {... */\n    tag_140:\n        /* \"Campaign.sol\":2899:2918  supportersAddresses */\n      0x08\n        /* \"Campaign.sol\":2899:2925  supportersAddresses.length */\n      dup1\n      sload\n      swap1\n      pop\n        /* \"Campaign.sol\":2897:2898  i */\n      dup2\n        /* \"Campaign.sol\":2897:2925  i<supportersAddresses.length */\n      lt\n        /* \"Campaign.sol\":2882:3041  for (uint i=0; i<supportersAddresses.length; i++) {... */\n      iszero\n      tag_141\n      jumpi\n        /* \"Campaign.sol\":2946:2965  supportersAddresses */\n      0x08\n        /* \"Campaign.sol\":2966:2967  i */\n      dup2\n        /* \"Campaign.sol\":2946:2968  supportersAddresses[i] */\n      dup2\n      sload\n      dup2\n      lt\n      tag_143\n      jumpi\n      tag_144\n      tag_145\n      jump\t// in\n    tag_144:\n    tag_143:\n      swap1\n      0x00\n      mstore\n      keccak256(0x00, 0x20)\n      add\n      0x00\n      swap1\n      sload\n      swap1\n      0x0100\n      exp\n      swap1\n      div\n      0xffffffffffffffffffffffffffffffffffffffff\n      and\n        /* \"Campaign.sol\":2946:2977  supportersAddresses[i].transfer */\n      0xffffffffffffffffffffffffffffffffffffffff\n      and\n        /* \"Campaign.sol\":2946:3030  supportersAddresses[i].transfer(supporterContributionValues[supportersAddresses[i]]) */\n      0x08fc\n        /* \"Campaign.sol\":2978:3005  supporterContributionValues */\n      0x09\n        /* \"Campaign.sol\":2978:3029  supporterContributionValues[supportersAddresses[i]] */\n      0x00\n        /* \"Campaign.sol\":3006:3025  supportersAddresses */\n      0x08\n        /* \"Campaign.sol\":3026:3027  i */\n      dup6\n        /* \"Campaign.sol\":3006:3028  supportersAddresses[i] */\n      dup2\n      sload\n      dup2\n      lt\n      tag_147\n      jumpi\n      tag_148\n      tag_145\n      jump\t// in\n    tag_148:\n    tag_147:\n      swap1\n      0x00\n      mstore\n      keccak256(0x00, 0x20)\n      add\n      0x00\n      swap1\n      sload\n      swap1\n      0x0100\n      exp\n      swap1\n      div\n      0xffffffffffffffffffffffffffffffffffffffff\n      and\n        /* \"Campaign.sol\":2978:3029  supporterContributionValues[supportersAddresses[i]] */\n      0xffffffffffffffffffffffffffffffffffffffff\n      and\n      0xffffffffffffffffffffffffffffffffffffffff\n      and\n      dup2\n      mstore\n      0x20\n      add\n      swap1\n      dup2\n      mstore\n      0x20\n      add\n      0x00\n      keccak256\n      sload\n        /* \"Campaign.sol\":2946:3030  supportersAddresses[i].transfer(supporterContributionValues[supportersAddresses[i]]) */\n      swap1\n      dup2\n      iszero\n      mul\n      swap1\n      mload(0x40)\n      0x00\n      mload(0x40)\n      dup1\n      dup4\n      sub\n      dup2\n      dup6\n      dup9\n      dup9\n      call\n      swap4\n      pop\n      pop\n      pop\n      pop\n      iszero\n      dup1\n      iszero\n      tag_151\n      jumpi\n      returndatasize\n      0x00\n      dup1\n      returndatacopy\n      revert(0x00, returndatasize)\n    tag_151:\n      pop\n        /* \"Campaign.sol\":2927:2930  i++ */\n      dup1\n      dup1\n      tag_152\n      swap1\n      tag_153\n      jump\t// in\n    tag_152:\n      swap2\n      pop\n      pop\n        /* \"Campaign.sol\":2882:3041  for (uint i=0; i<supportersAddresses.length; i++) {... */\n      jump(tag_140)\n    tag_141:\n      pop\n        /* \"Campaign.sol\":3071:3113  0x35b2E2b694A6A4c28F6631A905fB87eca330469d */\n      0x35b2e2b694a6a4c28f6631a905fb87eca330469d\n        /* \"Campaign.sol\":3050:3115  selfdestruct(payable(0x35b2E2b694A6A4c28F6631A905fB87eca330469d)) */\n      0xffffffffffffffffffffffffffffffffffffffff\n      and\n      selfdestruct\n        /* \"Campaign.sol\":4078:4254  function isApproved(address account, uint index) public view returns(bool) {... */\n    tag_37:\n        /* \"Campaign.sol\":4147:4151  bool */\n      0x00\n        /* \"Campaign.sol\":4163:4186  Request storage request */\n      dup1\n        /* \"Campaign.sol\":4189:4197  requests */\n      0x0c\n        /* \"Campaign.sol\":4189:4204  requests[index] */\n      0x00\n        /* \"Campaign.sol\":4198:4203  index */\n      dup5\n        /* \"Campaign.sol\":4189:4204  requests[index] */\n      dup2\n      mstore\n      0x20\n      add\n      swap1\n      dup2\n      mstore\n      0x20\n      add\n      0x00\n      keccak256\n        /* \"Campaign.sol\":4163:4204  Request storage request = requests[index] */\n      swap1\n      pop\n        /* \"Campaign.sol\":4221:4228  request */\n      dup1\n        /* \"Campaign.sol\":4221:4238  request.approvals */\n      0x05\n      add\n        /* \"Campaign.sol\":4221:4247  request.approvals[account] */\n      0x00\n        /* \"Campaign.sol\":4239:4246  account */\n      dup6\n        /* \"Campaign.sol\":4221:4247  request.approvals[account] */\n      0xffffffffffffffffffffffffffffffffffffffff\n      and\n      0xffffffffffffffffffffffffffffffffffffffff\n      and\n      dup2\n      mstore\n      0x20\n      add\n      swap1\n      dup2\n      mstore\n      0x20\n      add\n      0x00\n      keccak256\n      0x00\n      swap1\n      sload\n      swap1\n      0x0100\n      exp\n      swap1\n      div\n      0xff\n      and\n        /* \"Campaign.sol\":4214:4247  return request.approvals[account] */\n      swap2\n      pop\n      pop\n        /* \"Campaign.sol\":4078:4254  function isApproved(address account, uint index) public view returns(bool) {... */\n      swap3\n      swap2\n      pop\n      pop\n      jump\t// out\n        /* \"Campaign.sol\":1525:1584  mapping(address => uint) public supporterContributionValues */\n    tag_44:\n      mstore(0x20, 0x09)\n      dup1\n      0x00\n      mstore\n      keccak256(0x00, 0x40)\n      0x00\n      swap2\n      pop\n      swap1\n      pop\n      sload\n      dup2\n      jump\t// out\n        /* \"Campaign.sol\":4845:5277  function getSummary() public view returns (... */\n    tag_49:\n        /* \"Campaign.sol\":4895:4899  uint */\n      0x00\n        /* \"Campaign.sol\":4901:4905  uint */\n      dup1\n        /* \"Campaign.sol\":4907:4911  uint */\n      0x00\n        /* \"Campaign.sol\":4913:4917  uint */\n      dup1\n        /* \"Campaign.sol\":4919:4926  address */\n      0x00\n        /* \"Campaign.sol\":4929:4942  string memory */\n      0x60\n        /* \"Campaign.sol\":4945:4958  string memory */\n      dup1\n        /* \"Campaign.sol\":4960:4964  uint */\n      0x00\n        /* \"Campaign.sol\":4966:4979  string memory */\n      0x60\n        /* \"Campaign.sol\":4981:4985  uint */\n      0x00\n        /* \"Campaign.sol\":5023:5042  minimumContribution */\n      sload(0x05)\n        /* \"Campaign.sol\":5054:5075  address(this).balance */\n      selfbalance\n        /* \"Campaign.sol\":5087:5098  numRequests */\n      sload(0x0b)\n        /* \"Campaign.sol\":5110:5125  supportersCount */\n      sload(0x0a)\n        /* \"Campaign.sol\":5137:5144  manager */\n      0x00\n      dup1\n      sload\n      swap1\n      0x0100\n      exp\n      swap1\n      div\n      0xffffffffffffffffffffffffffffffffffffffff\n      and\n        /* \"Campaign.sol\":5156:5167  projectName */\n      0x01\n        /* \"Campaign.sol\":5179:5189  projectAim */\n      0x02\n        /* \"Campaign.sol\":5201:5213  financialAim */\n      sload(0x04)\n        /* \"Campaign.sol\":5225:5233  imageURL */\n      0x03\n        /* \"Campaign.sol\":5245:5260  requestsBalance */\n      sload(0x06)\n        /* \"Campaign.sol\":5004:5270  return (... */\n      dup5\n      dup1\n      sload\n      tag_156\n      swap1\n      tag_157\n      jump\t// in\n    tag_156:\n      dup1\n      0x1f\n      add\n      0x20\n      dup1\n      swap2\n      div\n      mul\n      0x20\n      add\n      mload(0x40)\n      swap1\n      dup2\n      add\n      0x40\n      mstore\n      dup1\n      swap3\n      swap2\n      swap1\n      dup2\n      dup2\n      mstore\n      0x20\n      add\n      dup3\n      dup1\n      sload\n      tag_158\n      swap1\n      tag_157\n      jump\t// in\n    tag_158:\n      dup1\n      iszero\n      tag_159\n      jumpi\n      dup1\n      0x1f\n      lt\n      tag_160\n      jumpi\n      0x0100\n      dup1\n      dup4\n      sload\n      div\n      mul\n      dup4\n      mstore\n      swap2\n      0x20\n      add\n      swap2\n      jump(tag_159)\n    tag_160:\n      dup3\n      add\n      swap2\n      swap1\n      0x00\n      mstore\n      keccak256(0x00, 0x20)\n      swap1\n    tag_161:\n      dup2\n      sload\n      dup2\n      mstore\n      swap1\n      0x01\n      add\n      swap1\n      0x20\n      add\n      dup1\n      dup4\n      gt\n      tag_161\n      jumpi\n      dup3\n      swap1\n      sub\n      0x1f\n      and\n      dup3\n      add\n      swap2\n    tag_159:\n      pop\n      pop\n      pop\n      pop\n      pop\n      swap5\n      pop\n      dup4\n      dup1\n      sload\n      tag_162\n      swap1\n      tag_157\n      jump\t// in\n    tag_162:\n      dup1\n      0x1f\n      add\n      0x20\n      dup1\n      swap2\n      div\n      mul\n      0x20\n      add\n      mload(0x40)\n      swap1\n      dup2\n      add\n      0x40\n      mstore\n      dup1\n      swap3\n      swap2\n      swap1\n      dup2\n      dup2\n      mstore\n      0x20\n      add\n      dup3\n      dup1\n      sload\n      tag_163\n      swap1\n      tag_157\n      jump\t// in\n    tag_163:\n      dup1\n      iszero\n      tag_164\n      jumpi\n      dup1\n      0x1f\n      lt\n      tag_165\n      jumpi\n      0x0100\n      dup1\n      dup4\n      sload\n      div\n      mul\n      dup4\n      mstore\n      swap2\n      0x20\n      add\n      swap2\n      jump(tag_164)\n    tag_165:\n      dup3\n      add\n      swap2\n      swap1\n      0x00\n      mstore\n      keccak256(0x00, 0x20)\n      swap1\n    tag_166:\n      dup2\n      sload\n      dup2\n      mstore\n      swap1\n      0x01\n      add\n      swap1\n      0x20\n      add\n      dup1\n      dup4\n      gt\n      tag_166\n      jumpi\n      dup3\n      swap1\n      sub\n      0x1f\n      and\n      dup3\n      add\n      swap2\n    tag_164:\n      pop\n      pop\n      pop\n      pop\n      pop\n      swap4\n      pop\n      dup2\n      dup1\n      sload\n      tag_167\n      swap1\n      tag_157\n      jump\t// in\n    tag_167:\n      dup1\n      0x1f\n      add\n      0x20\n      dup1\n      swap2\n      div\n      mul\n      0x20\n      add\n      mload(0x40)\n      swap1\n      dup2\n      add\n      0x40\n      mstore\n      dup1\n      swap3\n      swap2\n      swap1\n      dup2\n      dup2\n      mstore\n      0x20\n      add\n      dup3\n      dup1\n      sload\n      tag_168\n      swap1\n      tag_157\n      jump\t// in\n    tag_168:\n      dup1\n      iszero\n      tag_169\n      jumpi\n      dup1\n      0x1f\n      lt\n      tag_170\n      jumpi\n      0x0100\n      dup1\n      dup4\n      sload\n      div\n      mul\n      dup4\n      mstore\n      swap2\n      0x20\n      add\n      swap2\n      jump(tag_169)\n    tag_170:\n      dup3\n      add\n      swap2\n      swap1\n      0x00\n      mstore\n      keccak256(0x00, 0x20)\n      swap1\n    tag_171:\n      dup2\n      sload\n      dup2\n      mstore\n      swap1\n      0x01\n      add\n      swap1\n      0x20\n      add\n      dup1\n      dup4\n      gt\n      tag_171\n      jumpi\n      dup3\n      swap1\n      sub\n      0x1f\n      and\n      dup3\n      add\n      swap2\n    tag_169:\n      pop\n      pop\n      pop\n      pop\n      pop\n      swap2\n      pop\n      swap10\n      pop\n      swap10\n      pop\n      swap10\n      pop\n      swap10\n      pop\n      swap10\n      pop\n      swap10\n      pop\n      swap10\n      pop\n      swap10\n      pop\n      swap10\n      pop\n      swap10\n      pop\n        /* \"Campaign.sol\":4845:5277  function getSummary() public view returns (... */\n      swap1\n      swap2\n      swap3\n      swap4\n      swap5\n      swap6\n      swap7\n      swap8\n      swap9\n      swap10\n      jump\t// out\n        /* \"Campaign.sol\":1209:1231  address public manager */\n    tag_54:\n      0x00\n      dup1\n      sload\n      swap1\n      0x0100\n      exp\n      swap1\n      div\n      0xffffffffffffffffffffffffffffffffffffffff\n      and\n      dup2\n      jump\t// out\n        /* \"Campaign.sol\":1474:1519  address payable[] public  supportersAddresses */\n    tag_60:\n      0x08\n      dup2\n      dup2\n      sload\n      dup2\n      lt\n      tag_172\n      jumpi\n      0x00\n      dup1\n      revert\n    tag_172:\n      swap1\n      0x00\n      mstore\n      keccak256(0x00, 0x20)\n      add\n      0x00\n      swap2\n      pop\n      sload\n      swap1\n      0x0100\n      exp\n      swap1\n      div\n      0xffffffffffffffffffffffffffffffffffffffff\n      and\n      dup2\n      jump\t// out\n        /* \"Campaign.sol\":1426:1468  mapping(address => bool) public supporters */\n    tag_66:\n      mstore(0x20, 0x07)\n      dup1\n      0x00\n      mstore\n      keccak256(0x00, 0x40)\n      0x00\n      swap2\n      pop\n      sload\n      swap1\n      0x0100\n      exp\n      swap1\n      div\n      0xff\n      and\n      dup2\n      jump\t// out\n        /* \"Campaign.sol\":1326:1350  uint public financialAim */\n    tag_70:\n      sload(0x04)\n      dup2\n      jump\t// out\n        /* \"Campaign.sol\":1880:1921  mapping (uint => Request) public requests */\n    tag_75:\n      mstore(0x20, 0x0c)\n      dup1\n      0x00\n      mstore\n      keccak256(0x00, 0x40)\n      0x00\n      swap2\n      pop\n      swap1\n      pop\n      dup1\n      0x00\n      add\n      dup1\n      sload\n      tag_174\n      swap1\n      tag_157\n      jump\t// in\n    tag_174:\n      dup1\n      0x1f\n      add\n      0x20\n      dup1\n      swap2\n      div\n      mul\n      0x20\n      add\n      mload(0x40)\n      swap1\n      dup2\n      add\n      0x40\n      mstore\n      dup1\n      swap3\n      swap2\n      swap1\n      dup2\n      dup2\n      mstore\n      0x20\n      add\n      dup3\n      dup1\n      sload\n      tag_175\n      swap1\n      tag_157\n      jump\t// in\n    tag_175:\n      dup1\n      iszero\n      tag_176\n      jumpi\n      dup1\n      0x1f\n      lt\n      tag_177\n      jumpi\n      0x0100\n      dup1\n      dup4\n      sload\n      div\n      mul\n      dup4\n      mstore\n      swap2\n      0x20\n      add\n      swap2\n      jump(tag_176)\n    tag_177:\n      dup3\n      add\n      swap2\n      swap1\n      0x00\n      mstore\n      keccak256(0x00, 0x20)\n      swap1\n    tag_178:\n      dup2\n      sload\n      dup2\n      mstore\n      swap1\n      0x01\n      add\n      swap1\n      0x20\n      add\n      dup1\n      dup4\n      gt\n      tag_178\n      jumpi\n      dup3\n      swap1\n      sub\n      0x1f\n      and\n      dup3\n      add\n      swap2\n    tag_176:\n      pop\n      pop\n      pop\n      pop\n      pop\n      swap1\n      dup1\n      0x01\n      add\n      dup1\n      sload\n      tag_179\n      swap1\n      tag_157\n      jump\t// in\n    tag_179:\n      dup1\n      0x1f\n      add\n      0x20\n      dup1\n      swap2\n      div\n      mul\n      0x20\n      add\n      mload(0x40)\n      swap1\n      dup2\n      add\n      0x40\n      mstore\n      dup1\n      swap3\n      swap2\n      swap1\n      dup2\n      dup2\n      mstore\n      0x20\n      add\n      dup3\n      dup1\n      sload\n      tag_180\n      swap1\n      tag_157\n      jump\t// in\n    tag_180:\n      dup1\n      iszero\n      tag_181\n      jumpi\n      dup1\n      0x1f\n      lt\n      tag_182\n      jumpi\n      0x0100\n      dup1\n      dup4\n      sload\n      div\n      mul\n      dup4\n      mstore\n      swap2\n      0x20\n      add\n      swap2\n      jump(tag_181)\n    tag_182:\n      dup3\n      add\n      swap2\n      swap1\n      0x00\n      mstore\n      keccak256(0x00, 0x20)\n      swap1\n    tag_183:\n      dup2\n      sload\n      dup2\n      mstore\n      swap1\n      0x01\n      add\n      swap1\n      0x20\n      add\n      dup1\n      dup4\n      gt\n      tag_183\n      jumpi\n      dup3\n      swap1\n      sub\n      0x1f\n      and\n      dup3\n      add\n      swap2\n    tag_181:\n      pop\n      pop\n      pop\n      pop\n      pop\n      swap1\n      dup1\n      0x02\n      add\n      sload\n      swap1\n      dup1\n      0x03\n      add\n      0x00\n      swap1\n      sload\n      swap1\n      0x0100\n      exp\n      swap1\n      div\n      0xffffffffffffffffffffffffffffffffffffffff\n      and\n      swap1\n      dup1\n      0x03\n      add\n      0x14\n      swap1\n      sload\n      swap1\n      0x0100\n      exp\n      swap1\n      div\n      0xff\n      and\n      swap1\n      dup1\n      0x04\n      add\n      sload\n      swap1\n      pop\n      dup7\n      jump\t// out\n        /* \"Campaign.sol\":3137:3663  function createRequest(string memory description, uint value, address payable recipient)... */\n    tag_82:\n        /* \"Campaign.sol\":2320:2327  manager */\n      0x00\n      dup1\n      sload\n      swap1\n      0x0100\n      exp\n      swap1\n      div\n      0xffffffffffffffffffffffffffffffffffffffff\n      and\n        /* \"Campaign.sol\":2306:2327  msg.sender == manager */\n      0xffffffffffffffffffffffffffffffffffffffff\n      and\n        /* \"Campaign.sol\":2306:2316  msg.sender */\n      caller\n        /* \"Campaign.sol\":2306:2327  msg.sender == manager */\n      0xffffffffffffffffffffffffffffffffffffffff\n      and\n      eq\n        /* \"Campaign.sol\":2298:2366  require(msg.sender == manager, \"Only manager can take this action.\") */\n      tag_185\n      jumpi\n      mload(0x40)\n      0x08c379a000000000000000000000000000000000000000000000000000000000\n      dup2\n      mstore\n      0x04\n      add\n      tag_186\n      swap1\n      tag_125\n      jump\t// in\n    tag_186:\n      mload(0x40)\n      dup1\n      swap2\n      sub\n      swap1\n      revert\n    tag_185:\n        /* \"Campaign.sol\":3294:3315  address(this).balance */\n      selfbalance\n        /* \"Campaign.sol\":3285:3290  value */\n      dup3\n        /* \"Campaign.sol\":3267:3282  requestsBalance */\n      sload(0x06)\n        /* \"Campaign.sol\":3267:3290  requestsBalance + value */\n      tag_188\n      swap2\n      swap1\n      tag_189\n      jump\t// in\n    tag_188:\n        /* \"Campaign.sol\":3267:3315  requestsBalance + value <= address(this).balance */\n      gt\n      iszero\n        /* \"Campaign.sol\":3259:3368  require(requestsBalance + value <= address(this).balance, \"You can't request ether more than your balance.\" ) */\n      tag_190\n      jumpi\n      mload(0x40)\n      0x08c379a000000000000000000000000000000000000000000000000000000000\n      dup2\n      mstore\n      0x04\n      add\n      tag_191\n      swap1\n      tag_192\n      jump\t// in\n    tag_191:\n      mload(0x40)\n      dup1\n      swap2\n      sub\n      swap1\n      revert\n    tag_190:\n        /* \"Campaign.sol\":3415:3420  value */\n      dup2\n        /* \"Campaign.sol\":3397:3412  requestsBalance */\n      sload(0x06)\n        /* \"Campaign.sol\":3397:3420  requestsBalance + value */\n      tag_193\n      swap2\n      swap1\n      tag_189\n      jump\t// in\n    tag_193:\n        /* \"Campaign.sol\":3379:3394  requestsBalance */\n      0x06\n        /* \"Campaign.sol\":3379:3420  requestsBalance = requestsBalance + value */\n      dup2\n      swap1\n      sstore\n      pop\n        /* \"Campaign.sol\":3430:3447  Request storage r */\n      0x00\n        /* \"Campaign.sol\":3450:3458  requests */\n      0x0c\n        /* \"Campaign.sol\":3450:3473  requests[numRequests++] */\n      0x00\n        /* \"Campaign.sol\":3459:3470  numRequests */\n      0x0b\n      0x00\n        /* \"Campaign.sol\":3459:3472  numRequests++ */\n      dup2\n      sload\n      dup1\n      swap3\n      swap2\n      swap1\n      tag_194\n      swap1\n      tag_153\n      jump\t// in\n    tag_194:\n      swap2\n      swap1\n      pop\n      sstore\n        /* \"Campaign.sol\":3450:3473  requests[numRequests++] */\n      dup2\n      mstore\n      0x20\n      add\n      swap1\n      dup2\n      mstore\n      0x20\n      add\n      0x00\n      keccak256\n        /* \"Campaign.sol\":3430:3473  Request storage r = requests[numRequests++] */\n      swap1\n      pop\n        /* \"Campaign.sol\":3499:3510  description */\n      dup4\n        /* \"Campaign.sol\":3483:3484  r */\n      dup2\n        /* \"Campaign.sol\":3483:3496  r.description */\n      0x00\n      add\n        /* \"Campaign.sol\":3483:3510  r.description = description */\n      swap1\n      dup1\n      mload\n      swap1\n      0x20\n      add\n      swap1\n      tag_195\n      swap3\n      swap2\n      swap1\n      tag_138\n      jump\t// in\n    tag_195:\n      pop\n        /* \"Campaign.sol\":3530:3535  value */\n      dup3\n        /* \"Campaign.sol\":3520:3521  r */\n      dup2\n        /* \"Campaign.sol\":3520:3527  r.value */\n      0x02\n      add\n        /* \"Campaign.sol\":3520:3535  r.value = value */\n      dup2\n      swap1\n      sstore\n      pop\n        /* \"Campaign.sol\":3559:3568  recipient */\n      dup2\n        /* \"Campaign.sol\":3545:3546  r */\n      dup2\n        /* \"Campaign.sol\":3545:3556  r.recipient */\n      0x03\n      add\n      0x00\n        /* \"Campaign.sol\":3545:3568  r.recipient = recipient */\n      0x0100\n      exp\n      dup2\n      sload\n      dup2\n      0xffffffffffffffffffffffffffffffffffffffff\n      mul\n      not\n      and\n      swap1\n      dup4\n      0xffffffffffffffffffffffffffffffffffffffff\n      and\n      mul\n      or\n      swap1\n      sstore\n      pop\n        /* \"Campaign.sol\":3591:3596  false */\n      0x00\n        /* \"Campaign.sol\":3578:3579  r */\n      dup2\n        /* \"Campaign.sol\":3578:3588  r.complete */\n      0x03\n      add\n      0x14\n        /* \"Campaign.sol\":3578:3596  r.complete = false */\n      0x0100\n      exp\n      dup2\n      sload\n      dup2\n      0xff\n      mul\n      not\n      and\n      swap1\n      dup4\n      iszero\n      iszero\n      mul\n      or\n      swap1\n      sstore\n      pop\n        /* \"Campaign.sol\":3624:3625  0 */\n      0x00\n        /* \"Campaign.sol\":3606:3607  r */\n      dup2\n        /* \"Campaign.sol\":3606:3621  r.approvalCount */\n      0x04\n      add\n        /* \"Campaign.sol\":3606:3625  r.approvalCount = 0 */\n      dup2\n      swap1\n      sstore\n      pop\n        /* \"Campaign.sol\":3635:3655  r.status = \"pending\" */\n      mload(0x40)\n      dup1\n      0x40\n      add\n      0x40\n      mstore\n      dup1\n      0x07\n      dup2\n      mstore\n      0x20\n      add\n      0x70656e64696e6700000000000000000000000000000000000000000000000000\n      dup2\n      mstore\n      pop\n        /* \"Campaign.sol\":3635:3636  r */\n      dup2\n        /* \"Campaign.sol\":3635:3643  r.status */\n      0x01\n      add\n        /* \"Campaign.sol\":3635:3655  r.status = \"pending\" */\n      swap1\n      dup1\n      mload\n      swap1\n      0x20\n      add\n      swap1\n      tag_196\n      swap3\n      swap2\n      swap1\n      tag_138\n      jump\t// in\n    tag_196:\n      pop\n        /* \"Campaign.sol\":3249:3663  {... */\n      pop\n        /* \"Campaign.sol\":3137:3663  function createRequest(string memory description, uint value, address payable recipient)... */\n      pop\n      pop\n      pop\n      jump\t// out\n        /* \"Campaign.sol\":1356:1387  uint public minimumContribution */\n    tag_85:\n      sload(0x05)\n      dup2\n      jump\t// out\n        /* \"Campaign.sol\":1237:1262  string public projectName */\n    tag_89:\n      0x01\n      dup1\n      sload\n      tag_197\n      swap1\n      tag_157\n      jump\t// in\n    tag_197:\n      dup1\n      0x1f\n      add\n      0x20\n      dup1\n      swap2\n      div\n      mul\n      0x20\n      add\n      mload(0x40)\n      swap1\n      dup2\n      add\n      0x40\n      mstore\n      dup1\n      swap3\n      swap2\n      swap1\n      dup2\n      dup2\n      mstore\n      0x20\n      add\n      dup3\n      dup1\n      sload\n      tag_198\n      swap1\n      tag_157\n      jump\t// in\n    tag_198:\n      dup1\n      iszero\n      tag_199\n      jumpi\n      dup1\n      0x1f\n      lt\n      tag_200\n      jumpi\n      0x0100\n      dup1\n      dup4\n      sload\n      div\n      mul\n      dup4\n      mstore\n      swap2\n      0x20\n      add\n      swap2\n      jump(tag_199)\n    tag_200:\n      dup3\n      add\n      swap2\n      swap1\n      0x00\n      mstore\n      keccak256(0x00, 0x20)\n      swap1\n    tag_201:\n      dup2\n      sload\n      dup2\n      mstore\n      swap1\n      0x01\n      add\n      swap1\n      0x20\n      add\n      dup1\n      dup4\n      gt\n      tag_201\n      jumpi\n      dup3\n      swap1\n      sub\n      0x1f\n      and\n      dup3\n      add\n      swap2\n    tag_199:\n      pop\n      pop\n      pop\n      pop\n      pop\n      dup2\n      jump\t// out\n        /* \"Campaign.sol\":1851:1874  uint public numRequests */\n    tag_94:\n      sload(0x0b)\n      dup2\n      jump\t// out\n        /* \"Campaign.sol\":1298:1320  string public imageURL */\n    tag_98:\n      0x03\n      dup1\n      sload\n      tag_202\n      swap1\n      tag_157\n      jump\t// in\n    tag_202:\n      dup1\n      0x1f\n      add\n      0x20\n      dup1\n      swap2\n      div\n      mul\n      0x20\n      add\n      mload(0x40)\n      swap1\n      dup2\n      add\n      0x40\n      mstore\n      dup1\n      swap3\n      swap2\n      swap1\n      dup2\n      dup2\n      mstore\n      0x20\n      add\n      dup3\n      dup1\n      sload\n      tag_203\n      swap1\n      tag_157\n      jump\t// in\n    tag_203:\n      dup1\n      iszero\n      tag_204\n      jumpi\n      dup1\n      0x1f\n      lt\n      tag_205\n      jumpi\n      0x0100\n      dup1\n      dup4\n      sload\n      div\n      mul\n      dup4\n      mstore\n      swap2\n      0x20\n      add\n      swap2\n      jump(tag_204)\n    tag_205:\n      dup3\n      add\n      swap2\n      swap1\n      0x00\n      mstore\n      keccak256(0x00, 0x20)\n      swap1\n    tag_206:\n      dup2\n      sload\n      dup2\n      mstore\n      swap1\n      0x01\n      add\n      swap1\n      0x20\n      add\n      dup1\n      dup4\n      gt\n      tag_206\n      jumpi\n      dup3\n      swap1\n      sub\n      0x1f\n      and\n      dup3\n      add\n      swap2\n    tag_204:\n      pop\n      pop\n      pop\n      pop\n      pop\n      dup2\n      jump\t// out\n        /* \"Campaign.sol\":1268:1292  string public projectAim */\n    tag_102:\n      0x02\n      dup1\n      sload\n      tag_207\n      swap1\n      tag_157\n      jump\t// in\n    tag_207:\n      dup1\n      0x1f\n      add\n      0x20\n      dup1\n      swap2\n      div\n      mul\n      0x20\n      add\n      mload(0x40)\n      swap1\n      dup2\n      add\n      0x40\n      mstore\n      dup1\n      swap3\n      swap2\n      swap1\n      dup2\n      dup2\n      mstore\n      0x20\n      add\n      dup3\n      dup1\n      sload\n      tag_208\n      swap1\n      tag_157\n      jump\t// in\n    tag_208:\n      dup1\n      iszero\n      tag_209\n      jumpi\n      dup1\n      0x1f\n      lt\n      tag_210\n      jumpi\n      0x0100\n      dup1\n      dup4\n      sload\n      div\n      mul\n      dup4\n      mstore\n      swap2\n      0x20\n      add\n      swap2\n      jump(tag_209)\n    tag_210:\n      dup3\n      add\n      swap2\n      swap1\n      0x00\n      mstore\n      keccak256(0x00, 0x20)\n      swap1\n    tag_211:\n      dup2\n      sload\n      dup2\n      mstore\n      swap1\n      0x01\n      add\n      swap1\n      0x20\n      add\n      dup1\n      dup4\n      gt\n      tag_211\n      jumpi\n      dup3\n      swap1\n      sub\n      0x1f\n      and\n      dup3\n      add\n      swap2\n    tag_209:\n      pop\n      pop\n      pop\n      pop\n      pop\n      dup2\n      jump\t// out\n        /* \"Campaign.sol\":2394:2820  function contribute() public payable {... */\n    tag_105:\n        /* \"Campaign.sol\":2461:2480  minimumContribution */\n      sload(0x05)\n        /* \"Campaign.sol\":2449:2458  msg.value */\n      callvalue\n        /* \"Campaign.sol\":2449:2480  msg.value > minimumContribution */\n      gt\n        /* \"Campaign.sol\":2441:2532  require(msg.value > minimumContribution, \"You should contribute more than minimum amount.\") */\n      tag_213\n      jumpi\n      mload(0x40)\n      0x08c379a000000000000000000000000000000000000000000000000000000000\n      dup2\n      mstore\n      0x04\n      add\n      tag_214\n      swap1\n      tag_215\n      jump\t// in\n    tag_214:\n      mload(0x40)\n      dup1\n      swap2\n      sub\n      swap1\n      revert\n    tag_213:\n        /* \"Campaign.sol\":2576:2581  false */\n      0x00\n        /* \"Campaign.sol\":2550:2581  supporters[msg.sender] == false */\n      iszero\n      iszero\n        /* \"Campaign.sol\":2550:2560  supporters */\n      0x07\n        /* \"Campaign.sol\":2550:2572  supporters[msg.sender] */\n      0x00\n        /* \"Campaign.sol\":2561:2571  msg.sender */\n      caller\n        /* \"Campaign.sol\":2550:2572  supporters[msg.sender] */\n      0xffffffffffffffffffffffffffffffffffffffff\n      and\n      0xffffffffffffffffffffffffffffffffffffffff\n      and\n      dup2\n      mstore\n      0x20\n      add\n      swap1\n      dup2\n      mstore\n      0x20\n      add\n      0x00\n      keccak256\n      0x00\n      swap1\n      sload\n      swap1\n      0x0100\n      exp\n      swap1\n      div\n      0xff\n      and\n        /* \"Campaign.sol\":2550:2581  supporters[msg.sender] == false */\n      iszero\n      iszero\n      eq\n        /* \"Campaign.sol\":2542:2631  require(supporters[msg.sender] == false, \"You are already contributed to this campaing.\") */\n      tag_216\n      jumpi\n      mload(0x40)\n      0x08c379a000000000000000000000000000000000000000000000000000000000\n      dup2\n      mstore\n      0x04\n      add\n      tag_217\n      swap1\n      tag_218\n      jump\t// in\n    tag_217:\n      mload(0x40)\n      dup1\n      swap2\n      sub\n      swap1\n      revert\n    tag_216:\n        /* \"Campaign.sol\":2666:2670  true */\n      0x01\n        /* \"Campaign.sol\":2641:2651  supporters */\n      0x07\n        /* \"Campaign.sol\":2641:2663  supporters[msg.sender] */\n      0x00\n        /* \"Campaign.sol\":2652:2662  msg.sender */\n      caller\n        /* \"Campaign.sol\":2641:2663  supporters[msg.sender] */\n      0xffffffffffffffffffffffffffffffffffffffff\n      and\n      0xffffffffffffffffffffffffffffffffffffffff\n      and\n      dup2\n      mstore\n      0x20\n      add\n      swap1\n      dup2\n      mstore\n      0x20\n      add\n      0x00\n      keccak256\n      0x00\n        /* \"Campaign.sol\":2641:2670  supporters[msg.sender] = true */\n      0x0100\n      exp\n      dup2\n      sload\n      dup2\n      0xff\n      mul\n      not\n      and\n      swap1\n      dup4\n      iszero\n      iszero\n      mul\n      or\n      swap1\n      sstore\n      pop\n        /* \"Campaign.sol\":2680:2695  supportersCount */\n      0x0a\n      0x00\n        /* \"Campaign.sol\":2680:2697  supportersCount++ */\n      dup2\n      sload\n      dup1\n      swap3\n      swap2\n      swap1\n      tag_219\n      swap1\n      tag_153\n      jump\t// in\n    tag_219:\n      swap2\n      swap1\n      pop\n      sstore\n      pop\n        /* \"Campaign.sol\":2749:2758  msg.value */\n      callvalue\n        /* \"Campaign.sol\":2707:2734  supporterContributionValues */\n      0x09\n        /* \"Campaign.sol\":2707:2746  supporterContributionValues[msg.sender] */\n      0x00\n        /* \"Campaign.sol\":2735:2745  msg.sender */\n      caller\n        /* \"Campaign.sol\":2707:2746  supporterContributionValues[msg.sender] */\n      0xffffffffffffffffffffffffffffffffffffffff\n      and\n      0xffffffffffffffffffffffffffffffffffffffff\n      and\n      dup2\n      mstore\n      0x20\n      add\n      swap1\n      dup2\n      mstore\n      0x20\n      add\n      0x00\n      keccak256\n        /* \"Campaign.sol\":2707:2758  supporterContributionValues[msg.sender] = msg.value */\n      dup2\n      swap1\n      sstore\n      pop\n        /* \"Campaign.sol\":2768:2787  supportersAddresses */\n      0x08\n        /* \"Campaign.sol\":2801:2811  msg.sender */\n      caller\n        /* \"Campaign.sol\":2768:2813  supportersAddresses.push(payable(msg.sender)) */\n      swap1\n      dup1\n      0x01\n      dup2\n      sload\n      add\n      dup1\n      dup3\n      sstore\n      dup1\n      swap2\n      pop\n      pop\n      0x01\n      swap1\n      sub\n      swap1\n      0x00\n      mstore\n      keccak256(0x00, 0x20)\n      add\n      0x00\n      swap1\n      swap2\n      swap1\n      swap2\n      swap1\n      swap2\n      0x0100\n      exp\n      dup2\n      sload\n      dup2\n      0xffffffffffffffffffffffffffffffffffffffff\n      mul\n      not\n      and\n      swap1\n      dup4\n      0xffffffffffffffffffffffffffffffffffffffff\n      and\n      mul\n      or\n      swap1\n      sstore\n      pop\n        /* \"Campaign.sol\":2394:2820  function contribute() public payable {... */\n      jump\t// out\n        /* \"Campaign.sol\":3673:4068  function approveRequest(uint index) public {... */\n    tag_109:\n        /* \"Campaign.sol\":3726:3749  Request storage request */\n      0x00\n        /* \"Campaign.sol\":3752:3760  requests */\n      0x0c\n        /* \"Campaign.sol\":3752:3767  requests[index] */\n      0x00\n        /* \"Campaign.sol\":3761:3766  index */\n      dup4\n        /* \"Campaign.sol\":3752:3767  requests[index] */\n      dup2\n      mstore\n      0x20\n      add\n      swap1\n      dup2\n      mstore\n      0x20\n      add\n      0x00\n      keccak256\n        /* \"Campaign.sol\":3726:3767  Request storage request = requests[index] */\n      swap1\n      pop\n        /* \"Campaign.sol\":3794:3804  supporters */\n      0x07\n        /* \"Campaign.sol\":3794:3816  supporters[msg.sender] */\n      0x00\n        /* \"Campaign.sol\":3805:3815  msg.sender */\n      caller\n        /* \"Campaign.sol\":3794:3816  supporters[msg.sender] */\n      0xffffffffffffffffffffffffffffffffffffffff\n      and\n      0xffffffffffffffffffffffffffffffffffffffff\n      and\n      dup2\n      mstore\n      0x20\n      add\n      swap1\n      dup2\n      mstore\n      0x20\n      add\n      0x00\n      keccak256\n      0x00\n      swap1\n      sload\n      swap1\n      0x0100\n      exp\n      swap1\n      div\n      0xff\n      and\n        /* \"Campaign.sol\":3786:3888  require(supporters[msg.sender], \"You should be a contributor of this campaign to vote for a request.\") */\n      tag_222\n      jumpi\n      mload(0x40)\n      0x08c379a000000000000000000000000000000000000000000000000000000000\n      dup2\n      mstore\n      0x04\n      add\n      tag_223\n      swap1\n      tag_224\n      jump\t// in\n    tag_223:\n      mload(0x40)\n      dup1\n      swap2\n      sub\n      swap1\n      revert\n    tag_222:\n        /* \"Campaign.sol\":3907:3914  request */\n      dup1\n        /* \"Campaign.sol\":3907:3924  request.approvals */\n      0x05\n      add\n        /* \"Campaign.sol\":3907:3936  request.approvals[msg.sender] */\n      0x00\n        /* \"Campaign.sol\":3925:3935  msg.sender */\n      caller\n        /* \"Campaign.sol\":3907:3936  request.approvals[msg.sender] */\n      0xffffffffffffffffffffffffffffffffffffffff\n      and\n      0xffffffffffffffffffffffffffffffffffffffff\n      and\n      dup2\n      mstore\n      0x20\n      add\n      swap1\n      dup2\n      mstore\n      0x20\n      add\n      0x00\n      keccak256\n      0x00\n      swap1\n      sload\n      swap1\n      0x0100\n      exp\n      swap1\n      div\n      0xff\n      and\n        /* \"Campaign.sol\":3906:3936  !request.approvals[msg.sender] */\n      iszero\n        /* \"Campaign.sol\":3898:3964  require(!request.approvals[msg.sender], \"You can vote only once.\") */\n      tag_225\n      jumpi\n      mload(0x40)\n      0x08c379a000000000000000000000000000000000000000000000000000000000\n      dup2\n      mstore\n      0x04\n      add\n      tag_226\n      swap1\n      tag_227\n      jump\t// in\n    tag_226:\n      mload(0x40)\n      dup1\n      swap2\n      sub\n      swap1\n      revert\n    tag_225:\n        /* \"Campaign.sol\":4015:4019  true */\n      0x01\n        /* \"Campaign.sol\":3983:3990  request */\n      dup2\n        /* \"Campaign.sol\":3983:4000  request.approvals */\n      0x05\n      add\n        /* \"Campaign.sol\":3983:4012  request.approvals[msg.sender] */\n      0x00\n        /* \"Campaign.sol\":4001:4011  msg.sender */\n      caller\n        /* \"Campaign.sol\":3983:4012  request.approvals[msg.sender] */\n      0xffffffffffffffffffffffffffffffffffffffff\n      and\n      0xffffffffffffffffffffffffffffffffffffffff\n      and\n      dup2\n      mstore\n      0x20\n      add\n      swap1\n      dup2\n      mstore\n      0x20\n      add\n      0x00\n      keccak256\n      0x00\n        /* \"Campaign.sol\":3983:4019  request.approvals[msg.sender] = true */\n      0x0100\n      exp\n      dup2\n      sload\n      dup2\n      0xff\n      mul\n      not\n      and\n      swap1\n      dup4\n      iszero\n      iszero\n      mul\n      or\n      swap1\n      sstore\n      pop\n        /* \"Campaign.sol\":4029:4036  request */\n      dup1\n        /* \"Campaign.sol\":4029:4050  request.approvalCount */\n      0x04\n      add\n      0x00\n        /* \"Campaign.sol\":4029:4052  request.approvalCount++ */\n      dup2\n      sload\n      dup1\n      swap3\n      swap2\n      swap1\n      tag_228\n      swap1\n      tag_153\n      jump\t// in\n    tag_228:\n      swap2\n      swap1\n      pop\n      sstore\n      pop\n        /* \"Campaign.sol\":3716:4068  {... */\n      pop\n        /* \"Campaign.sol\":3673:4068  function approveRequest(uint index) public {... */\n      pop\n      jump\t// out\n        /* \"Campaign.sol\":4691:4838  function deleteRequest(uint index) public restricted {... */\n    tag_113:\n        /* \"Campaign.sol\":2320:2327  manager */\n      0x00\n      dup1\n      sload\n      swap1\n      0x0100\n      exp\n      swap1\n      div\n      0xffffffffffffffffffffffffffffffffffffffff\n      and\n        /* \"Campaign.sol\":2306:2327  msg.sender == manager */\n      0xffffffffffffffffffffffffffffffffffffffff\n      and\n        /* \"Campaign.sol\":2306:2316  msg.sender */\n      caller\n        /* \"Campaign.sol\":2306:2327  msg.sender == manager */\n      0xffffffffffffffffffffffffffffffffffffffff\n      and\n      eq\n        /* \"Campaign.sol\":2298:2366  require(msg.sender == manager, \"Only manager can take this action.\") */\n      tag_230\n      jumpi\n      mload(0x40)\n      0x08c379a000000000000000000000000000000000000000000000000000000000\n      dup2\n      mstore\n      0x04\n      add\n      tag_231\n      swap1\n      tag_125\n      jump\t// in\n    tag_231:\n      mload(0x40)\n      dup1\n      swap2\n      sub\n      swap1\n      revert\n    tag_230:\n        /* \"Campaign.sol\":4754:4777  Request storage request */\n      0x00\n        /* \"Campaign.sol\":4780:4788  requests */\n      0x0c\n        /* \"Campaign.sol\":4780:4795  requests[index] */\n      0x00\n        /* \"Campaign.sol\":4789:4794  index */\n      dup4\n        /* \"Campaign.sol\":4780:4795  requests[index] */\n      dup2\n      mstore\n      0x20\n      add\n      swap1\n      dup2\n      mstore\n      0x20\n      add\n      0x00\n      keccak256\n        /* \"Campaign.sol\":4754:4795  Request storage request = requests[index] */\n      swap1\n      pop\n        /* \"Campaign.sol\":4805:4831  request.status = \"deleted\" */\n      mload(0x40)\n      dup1\n      0x40\n      add\n      0x40\n      mstore\n      dup1\n      0x07\n      dup2\n      mstore\n      0x20\n      add\n      0x64656c6574656400000000000000000000000000000000000000000000000000\n      dup2\n      mstore\n      pop\n        /* \"Campaign.sol\":4805:4812  request */\n      dup2\n        /* \"Campaign.sol\":4805:4819  request.status */\n      0x01\n      add\n        /* \"Campaign.sol\":4805:4831  request.status = \"deleted\" */\n      swap1\n      dup1\n      mload\n      swap1\n      0x20\n      add\n      swap1\n      tag_233\n      swap3\n      swap2\n      swap1\n      tag_138\n      jump\t// in\n    tag_233:\n      pop\n        /* \"Campaign.sol\":4744:4838  {... */\n      pop\n        /* \"Campaign.sol\":4691:4838  function deleteRequest(uint index) public restricted {... */\n      pop\n      jump\t// out\n        /* \"Campaign.sol\":1590:1617  uint public supportersCount */\n    tag_116:\n      sload(0x0a)\n      dup2\n      jump\t// out\n        /* \"Campaign.sol\":1393:1420  uint public requestsBalance */\n    tag_120:\n      sload(0x06)\n      dup2\n      jump\t// out\n    tag_138:\n      dup3\n      dup1\n      sload\n      tag_234\n      swap1\n      tag_157\n      jump\t// in\n    tag_234:\n      swap1\n      0x00\n      mstore\n      keccak256(0x00, 0x20)\n      swap1\n      0x1f\n      add\n      0x20\n      swap1\n      div\n      dup2\n      add\n      swap3\n      dup3\n      tag_236\n      jumpi\n      0x00\n      dup6\n      sstore\n      jump(tag_235)\n    tag_236:\n      dup3\n      0x1f\n      lt\n      tag_237\n      jumpi\n      dup1\n      mload\n      not(0xff)\n      and\n      dup4\n      dup1\n      add\n      or\n      dup6\n      sstore\n      jump(tag_235)\n    tag_237:\n      dup3\n      dup1\n      add\n      0x01\n      add\n      dup6\n      sstore\n      dup3\n      iszero\n      tag_235\n      jumpi\n      swap2\n      dup3\n      add\n    tag_238:\n      dup3\n      dup2\n      gt\n      iszero\n      tag_239\n      jumpi\n      dup3\n      mload\n      dup3\n      sstore\n      swap2\n      0x20\n      add\n      swap2\n      swap1\n      0x01\n      add\n      swap1\n      jump(tag_238)\n    tag_239:\n    tag_235:\n      pop\n      swap1\n      pop\n      tag_240\n      swap2\n      swap1\n      tag_241\n      jump\t// in\n    tag_240:\n      pop\n      swap1\n      jump\t// out\n    tag_241:\n    tag_242:\n      dup1\n      dup3\n      gt\n      iszero\n      tag_243\n      jumpi\n      0x00\n      dup2\n      0x00\n      swap1\n      sstore\n      pop\n      0x01\n      add\n      jump(tag_242)\n    tag_243:\n      pop\n      swap1\n      jump\t// out\n        /* \"#utility.yul\":7:82   */\n    tag_244:\n        /* \"#utility.yul\":40:46   */\n      0x00\n        /* \"#utility.yul\":73:75   */\n      0x40\n        /* \"#utility.yul\":67:76   */\n      mload\n        /* \"#utility.yul\":57:76   */\n      swap1\n      pop\n        /* \"#utility.yul\":7:82   */\n      swap1\n      jump\t// out\n        /* \"#utility.yul\":88:205   */\n    tag_245:\n        /* \"#utility.yul\":197:198   */\n      0x00\n        /* \"#utility.yul\":194:195   */\n      dup1\n        /* \"#utility.yul\":187:199   */\n      revert\n        /* \"#utility.yul\":211:328   */\n    tag_246:\n        /* \"#utility.yul\":320:321   */\n      0x00\n        /* \"#utility.yul\":317:318   */\n      dup1\n        /* \"#utility.yul\":310:322   */\n      revert\n        /* \"#utility.yul\":334:411   */\n    tag_247:\n        /* \"#utility.yul\":371:378   */\n      0x00\n        /* \"#utility.yul\":400:405   */\n      dup2\n        /* \"#utility.yul\":389:405   */\n      swap1\n      pop\n        /* \"#utility.yul\":334:411   */\n      swap2\n      swap1\n      pop\n      jump\t// out\n        /* \"#utility.yul\":417:539   */\n    tag_248:\n        /* \"#utility.yul\":490:514   */\n      tag_301\n        /* \"#utility.yul\":508:513   */\n      dup2\n        /* \"#utility.yul\":490:514   */\n      tag_247\n      jump\t// in\n    tag_301:\n        /* \"#utility.yul\":483:488   */\n      dup2\n        /* \"#utility.yul\":480:515   */\n      eq\n        /* \"#utility.yul\":470:533   */\n      tag_302\n      jumpi\n        /* \"#utility.yul\":529:530   */\n      0x00\n        /* \"#utility.yul\":526:527   */\n      dup1\n        /* \"#utility.yul\":519:531   */\n      revert\n        /* \"#utility.yul\":470:533   */\n    tag_302:\n        /* \"#utility.yul\":417:539   */\n      pop\n      jump\t// out\n        /* \"#utility.yul\":545:684   */\n    tag_249:\n        /* \"#utility.yul\":591:596   */\n      0x00\n        /* \"#utility.yul\":629:635   */\n      dup2\n        /* \"#utility.yul\":616:636   */\n      calldataload\n        /* \"#utility.yul\":607:636   */\n      swap1\n      pop\n        /* \"#utility.yul\":645:678   */\n      tag_304\n        /* \"#utility.yul\":672:677   */\n      dup2\n        /* \"#utility.yul\":645:678   */\n      tag_248\n      jump\t// in\n    tag_304:\n        /* \"#utility.yul\":545:684   */\n      swap3\n      swap2\n      pop\n      pop\n      jump\t// out\n        /* \"#utility.yul\":690:1019   */\n    tag_29:\n        /* \"#utility.yul\":749:755   */\n      0x00\n        /* \"#utility.yul\":798:800   */\n      0x20\n        /* \"#utility.yul\":786:795   */\n      dup3\n        /* \"#utility.yul\":777:784   */\n      dup5\n        /* \"#utility.yul\":773:796   */\n      sub\n        /* \"#utility.yul\":769:801   */\n      slt\n        /* \"#utility.yul\":766:885   */\n      iszero\n      tag_306\n      jumpi\n        /* \"#utility.yul\":804:883   */\n      tag_307\n      tag_245\n      jump\t// in\n    tag_307:\n        /* \"#utility.yul\":766:885   */\n    tag_306:\n        /* \"#utility.yul\":924:925   */\n      0x00\n        /* \"#utility.yul\":949:1002   */\n      tag_308\n        /* \"#utility.yul\":994:1001   */\n      dup5\n        /* \"#utility.yul\":985:991   */\n      dup3\n        /* \"#utility.yul\":974:983   */\n      dup6\n        /* \"#utility.yul\":970:992   */\n      add\n        /* \"#utility.yul\":949:1002   */\n      tag_249\n      jump\t// in\n    tag_308:\n        /* \"#utility.yul\":939:1002   */\n      swap2\n      pop\n        /* \"#utility.yul\":895:1012   */\n      pop\n        /* \"#utility.yul\":690:1019   */\n      swap3\n      swap2\n      pop\n      pop\n      jump\t// out\n        /* \"#utility.yul\":1025:1151   */\n    tag_250:\n        /* \"#utility.yul\":1062:1069   */\n      0x00\n        /* \"#utility.yul\":1102:1144   */\n      0xffffffffffffffffffffffffffffffffffffffff\n        /* \"#utility.yul\":1095:1100   */\n      dup3\n        /* \"#utility.yul\":1091:1145   */\n      and\n        /* \"#utility.yul\":1080:1145   */\n      swap1\n      pop\n        /* \"#utility.yul\":1025:1151   */\n      swap2\n      swap1\n      pop\n      jump\t// out\n        /* \"#utility.yul\":1157:1253   */\n    tag_251:\n        /* \"#utility.yul\":1194:1201   */\n      0x00\n        /* \"#utility.yul\":1223:1247   */\n      tag_311\n        /* \"#utility.yul\":1241:1246   */\n      dup3\n        /* \"#utility.yul\":1223:1247   */\n      tag_250\n      jump\t// in\n    tag_311:\n        /* \"#utility.yul\":1212:1247   */\n      swap1\n      pop\n        /* \"#utility.yul\":1157:1253   */\n      swap2\n      swap1\n      pop\n      jump\t// out\n        /* \"#utility.yul\":1259:1381   */\n    tag_252:\n        /* \"#utility.yul\":1332:1356   */\n      tag_313\n        /* \"#utility.yul\":1350:1355   */\n      dup2\n        /* \"#utility.yul\":1332:1356   */\n      tag_251\n      jump\t// in\n    tag_313:\n        /* \"#utility.yul\":1325:1330   */\n      dup2\n        /* \"#utility.yul\":1322:1357   */\n      eq\n        /* \"#utility.yul\":1312:1375   */\n      tag_314\n      jumpi\n        /* \"#utility.yul\":1371:1372   */\n      0x00\n        /* \"#utility.yul\":1368:1369   */\n      dup1\n        /* \"#utility.yul\":1361:1373   */\n      revert\n        /* \"#utility.yul\":1312:1375   */\n    tag_314:\n        /* \"#utility.yul\":1259:1381   */\n      pop\n      jump\t// out\n        /* \"#utility.yul\":1387:1526   */\n    tag_253:\n        /* \"#utility.yul\":1433:1438   */\n      0x00\n        /* \"#utility.yul\":1471:1477   */\n      dup2\n        /* \"#utility.yul\":1458:1478   */\n      calldataload\n        /* \"#utility.yul\":1449:1478   */\n      swap1\n      pop\n        /* \"#utility.yul\":1487:1520   */\n      tag_316\n        /* \"#utility.yul\":1514:1519   */\n      dup2\n        /* \"#utility.yul\":1487:1520   */\n      tag_252\n      jump\t// in\n    tag_316:\n        /* \"#utility.yul\":1387:1526   */\n      swap3\n      swap2\n      pop\n      pop\n      jump\t// out\n        /* \"#utility.yul\":1532:2006   */\n    tag_36:\n        /* \"#utility.yul\":1600:1606   */\n      0x00\n        /* \"#utility.yul\":1608:1614   */\n      dup1\n        /* \"#utility.yul\":1657:1659   */\n      0x40\n        /* \"#utility.yul\":1645:1654   */\n      dup4\n        /* \"#utility.yul\":1636:1643   */\n      dup6\n        /* \"#utility.yul\":1632:1655   */\n      sub\n        /* \"#utility.yul\":1628:1660   */\n      slt\n        /* \"#utility.yul\":1625:1744   */\n      iszero\n      tag_318\n      jumpi\n        /* \"#utility.yul\":1663:1742   */\n      tag_319\n      tag_245\n      jump\t// in\n    tag_319:\n        /* \"#utility.yul\":1625:1744   */\n    tag_318:\n        /* \"#utility.yul\":1783:1784   */\n      0x00\n        /* \"#utility.yul\":1808:1861   */\n      tag_320\n        /* \"#utility.yul\":1853:1860   */\n      dup6\n        /* \"#utility.yul\":1844:1850   */\n      dup3\n        /* \"#utility.yul\":1833:1842   */\n      dup7\n        /* \"#utility.yul\":1829:1851   */\n      add\n        /* \"#utility.yul\":1808:1861   */\n      tag_253\n      jump\t// in\n    tag_320:\n        /* \"#utility.yul\":1798:1861   */\n      swap3\n      pop\n        /* \"#utility.yul\":1754:1871   */\n      pop\n        /* \"#utility.yul\":1910:1912   */\n      0x20\n        /* \"#utility.yul\":1936:1989   */\n      tag_321\n        /* \"#utility.yul\":1981:1988   */\n      dup6\n        /* \"#utility.yul\":1972:1978   */\n      dup3\n        /* \"#utility.yul\":1961:1970   */\n      dup7\n        /* \"#utility.yul\":1957:1979   */\n      add\n        /* \"#utility.yul\":1936:1989   */\n      tag_249\n      jump\t// in\n    tag_321:\n        /* \"#utility.yul\":1926:1989   */\n      swap2\n      pop\n        /* \"#utility.yul\":1881:1999   */\n      pop\n        /* \"#utility.yul\":1532:2006   */\n      swap3\n      pop\n      swap3\n      swap1\n      pop\n      jump\t// out\n        /* \"#utility.yul\":2012:2102   */\n    tag_254:\n        /* \"#utility.yul\":2046:2053   */\n      0x00\n        /* \"#utility.yul\":2089:2094   */\n      dup2\n        /* \"#utility.yul\":2082:2095   */\n      iszero\n        /* \"#utility.yul\":2075:2096   */\n      iszero\n        /* \"#utility.yul\":2064:2096   */\n      swap1\n      pop\n        /* \"#utility.yul\":2012:2102   */\n      swap2\n      swap1\n      pop\n      jump\t// out\n        /* \"#utility.yul\":2108:2217   */\n    tag_255:\n        /* \"#utility.yul\":2189:2210   */\n      tag_324\n        /* \"#utility.yul\":2204:2209   */\n      dup2\n        /* \"#utility.yul\":2189:2210   */\n      tag_254\n      jump\t// in\n    tag_324:\n        /* \"#utility.yul\":2184:2187   */\n      dup3\n        /* \"#utility.yul\":2177:2211   */\n      mstore\n        /* \"#utility.yul\":2108:2217   */\n      pop\n      pop\n      jump\t// out\n        /* \"#utility.yul\":2223:2433   */\n    tag_39:\n        /* \"#utility.yul\":2310:2314   */\n      0x00\n        /* \"#utility.yul\":2348:2350   */\n      0x20\n        /* \"#utility.yul\":2337:2346   */\n      dup3\n        /* \"#utility.yul\":2333:2351   */\n      add\n        /* \"#utility.yul\":2325:2351   */\n      swap1\n      pop\n        /* \"#utility.yul\":2361:2426   */\n      tag_326\n        /* \"#utility.yul\":2423:2424   */\n      0x00\n        /* \"#utility.yul\":2412:2421   */\n      dup4\n        /* \"#utility.yul\":2408:2425   */\n      add\n        /* \"#utility.yul\":2399:2405   */\n      dup5\n        /* \"#utility.yul\":2361:2426   */\n      tag_255\n      jump\t// in\n    tag_326:\n        /* \"#utility.yul\":2223:2433   */\n      swap3\n      swap2\n      pop\n      pop\n      jump\t// out\n        /* \"#utility.yul\":2439:2768   */\n    tag_43:\n        /* \"#utility.yul\":2498:2504   */\n      0x00\n        /* \"#utility.yul\":2547:2549   */\n      0x20\n        /* \"#utility.yul\":2535:2544   */\n      dup3\n        /* \"#utility.yul\":2526:2533   */\n      dup5\n        /* \"#utility.yul\":2522:2545   */\n      sub\n        /* \"#utility.yul\":2518:2550   */\n      slt\n        /* \"#utility.yul\":2515:2634   */\n      iszero\n      tag_328\n      jumpi\n        /* \"#utility.yul\":2553:2632   */\n      tag_329\n      tag_245\n      jump\t// in\n    tag_329:\n        /* \"#utility.yul\":2515:2634   */\n    tag_328:\n        /* \"#utility.yul\":2673:2674   */\n      0x00\n        /* \"#utility.yul\":2698:2751   */\n      tag_330\n        /* \"#utility.yul\":2743:2750   */\n      dup5\n        /* \"#utility.yul\":2734:2740   */\n      dup3\n        /* \"#utility.yul\":2723:2732   */\n      dup6\n        /* \"#utility.yul\":2719:2741   */\n      add\n        /* \"#utility.yul\":2698:2751   */\n      tag_253\n      jump\t// in\n    tag_330:\n        /* \"#utility.yul\":2688:2751   */\n      swap2\n      pop\n        /* \"#utility.yul\":2644:2761   */\n      pop\n        /* \"#utility.yul\":2439:2768   */\n      swap3\n      swap2\n      pop\n      pop\n      jump\t// out\n        /* \"#utility.yul\":2774:2892   */\n    tag_256:\n        /* \"#utility.yul\":2861:2885   */\n      tag_332\n        /* \"#utility.yul\":2879:2884   */\n      dup2\n        /* \"#utility.yul\":2861:2885   */\n      tag_247\n      jump\t// in\n    tag_332:\n        /* \"#utility.yul\":2856:2859   */\n      dup3\n        /* \"#utility.yul\":2849:2886   */\n      mstore\n        /* \"#utility.yul\":2774:2892   */\n      pop\n      pop\n      jump\t// out\n        /* \"#utility.yul\":2898:3120   */\n    tag_46:\n        /* \"#utility.yul\":2991:2995   */\n      0x00\n        /* \"#utility.yul\":3029:3031   */\n      0x20\n        /* \"#utility.yul\":3018:3027   */\n      dup3\n        /* \"#utility.yul\":3014:3032   */\n      add\n        /* \"#utility.yul\":3006:3032   */\n      swap1\n      pop\n        /* \"#utility.yul\":3042:3113   */\n      tag_334\n        /* \"#utility.yul\":3110:3111   */\n      0x00\n        /* \"#utility.yul\":3099:3108   */\n      dup4\n        /* \"#utility.yul\":3095:3112   */\n      add\n        /* \"#utility.yul\":3086:3092   */\n      dup5\n        /* \"#utility.yul\":3042:3113   */\n      tag_256\n      jump\t// in\n    tag_334:\n        /* \"#utility.yul\":2898:3120   */\n      swap3\n      swap2\n      pop\n      pop\n      jump\t// out\n        /* \"#utility.yul\":3126:3244   */\n    tag_257:\n        /* \"#utility.yul\":3213:3237   */\n      tag_336\n        /* \"#utility.yul\":3231:3236   */\n      dup2\n        /* \"#utility.yul\":3213:3237   */\n      tag_251\n      jump\t// in\n    tag_336:\n        /* \"#utility.yul\":3208:3211   */\n      dup3\n        /* \"#utility.yul\":3201:3238   */\n      mstore\n        /* \"#utility.yul\":3126:3244   */\n      pop\n      pop\n      jump\t// out\n        /* \"#utility.yul\":3250:3349   */\n    tag_258:\n        /* \"#utility.yul\":3302:3308   */\n      0x00\n        /* \"#utility.yul\":3336:3341   */\n      dup2\n        /* \"#utility.yul\":3330:3342   */\n      mload\n        /* \"#utility.yul\":3320:3342   */\n      swap1\n      pop\n        /* \"#utility.yul\":3250:3349   */\n      swap2\n      swap1\n      pop\n      jump\t// out\n        /* \"#utility.yul\":3355:3524   */\n    tag_259:\n        /* \"#utility.yul\":3439:3450   */\n      0x00\n        /* \"#utility.yul\":3473:3479   */\n      dup3\n        /* \"#utility.yul\":3468:3471   */\n      dup3\n        /* \"#utility.yul\":3461:3480   */\n      mstore\n        /* \"#utility.yul\":3513:3517   */\n      0x20\n        /* \"#utility.yul\":3508:3511   */\n      dup3\n        /* \"#utility.yul\":3504:3518   */\n      add\n        /* \"#utility.yul\":3489:3518   */\n      swap1\n      pop\n        /* \"#utility.yul\":3355:3524   */\n      swap3\n      swap2\n      pop\n      pop\n      jump\t// out\n        /* \"#utility.yul\":3530:3837   */\n    tag_260:\n        /* \"#utility.yul\":3598:3599   */\n      0x00\n        /* \"#utility.yul\":3608:3721   */\n    tag_340:\n        /* \"#utility.yul\":3622:3628   */\n      dup4\n        /* \"#utility.yul\":3619:3620   */\n      dup2\n        /* \"#utility.yul\":3616:3629   */\n      lt\n        /* \"#utility.yul\":3608:3721   */\n      iszero\n      tag_342\n      jumpi\n        /* \"#utility.yul\":3707:3708   */\n      dup1\n        /* \"#utility.yul\":3702:3705   */\n      dup3\n        /* \"#utility.yul\":3698:3709   */\n      add\n        /* \"#utility.yul\":3692:3710   */\n      mload\n        /* \"#utility.yul\":3688:3689   */\n      dup2\n        /* \"#utility.yul\":3683:3686   */\n      dup5\n        /* \"#utility.yul\":3679:3690   */\n      add\n        /* \"#utility.yul\":3672:3711   */\n      mstore\n        /* \"#utility.yul\":3644:3646   */\n      0x20\n        /* \"#utility.yul\":3641:3642   */\n      dup2\n        /* \"#utility.yul\":3637:3647   */\n      add\n        /* \"#utility.yul\":3632:3647   */\n      swap1\n      pop\n        /* \"#utility.yul\":3608:3721   */\n      jump(tag_340)\n    tag_342:\n        /* \"#utility.yul\":3739:3745   */\n      dup4\n        /* \"#utility.yul\":3736:3737   */\n      dup2\n        /* \"#utility.yul\":3733:3746   */\n      gt\n        /* \"#utility.yul\":3730:3831   */\n      iszero\n      tag_343\n      jumpi\n        /* \"#utility.yul\":3819:3820   */\n      0x00\n        /* \"#utility.yul\":3810:3816   */\n      dup5\n        /* \"#utility.yul\":3805:3808   */\n      dup5\n        /* \"#utility.yul\":3801:3817   */\n      add\n        /* \"#utility.yul\":3794:3821   */\n      mstore\n        /* \"#utility.yul\":3730:3831   */\n    tag_343:\n        /* \"#utility.yul\":3579:3837   */\n      pop\n        /* \"#utility.yul\":3530:3837   */\n      pop\n      pop\n      pop\n      jump\t// out\n        /* \"#utility.yul\":3843:3945   */\n    tag_261:\n        /* \"#utility.yul\":3884:3890   */\n      0x00\n        /* \"#utility.yul\":3935:3937   */\n      0x1f\n        /* \"#utility.yul\":3931:3938   */\n      not\n        /* \"#utility.yul\":3926:3928   */\n      0x1f\n        /* \"#utility.yul\":3919:3924   */\n      dup4\n        /* \"#utility.yul\":3915:3929   */\n      add\n        /* \"#utility.yul\":3911:3939   */\n      and\n        /* \"#utility.yul\":3901:3939   */\n      swap1\n      pop\n        /* \"#utility.yul\":3843:3945   */\n      swap2\n      swap1\n      pop\n      jump\t// out\n        /* \"#utility.yul\":3951:4315   */\n    tag_262:\n        /* \"#utility.yul\":4039:4042   */\n      0x00\n        /* \"#utility.yul\":4067:4106   */\n      tag_346\n        /* \"#utility.yul\":4100:4105   */\n      dup3\n        /* \"#utility.yul\":4067:4106   */\n      tag_258\n      jump\t// in\n    tag_346:\n        /* \"#utility.yul\":4122:4193   */\n      tag_347\n        /* \"#utility.yul\":4186:4192   */\n      dup2\n        /* \"#utility.yul\":4181:4184   */\n      dup6\n        /* \"#utility.yul\":4122:4193   */\n      tag_259\n      jump\t// in\n    tag_347:\n        /* \"#utility.yul\":4115:4193   */\n      swap4\n      pop\n        /* \"#utility.yul\":4202:4254   */\n      tag_348\n        /* \"#utility.yul\":4247:4253   */\n      dup2\n        /* \"#utility.yul\":4242:4245   */\n      dup6\n        /* \"#utility.yul\":4235:4239   */\n      0x20\n        /* \"#utility.yul\":4228:4233   */\n      dup7\n        /* \"#utility.yul\":4224:4240   */\n      add\n        /* \"#utility.yul\":4202:4254   */\n      tag_260\n      jump\t// in\n    tag_348:\n        /* \"#utility.yul\":4279:4308   */\n      tag_349\n        /* \"#utility.yul\":4301:4307   */\n      dup2\n        /* \"#utility.yul\":4279:4308   */\n      tag_261\n      jump\t// in\n    tag_349:\n        /* \"#utility.yul\":4274:4277   */\n      dup5\n        /* \"#utility.yul\":4270:4309   */\n      add\n        /* \"#utility.yul\":4263:4309   */\n      swap2\n      pop\n        /* \"#utility.yul\":4043:4315   */\n      pop\n        /* \"#utility.yul\":3951:4315   */\n      swap3\n      swap2\n      pop\n      pop\n      jump\t// out\n        /* \"#utility.yul\":4321:5813   */\n    tag_51:\n        /* \"#utility.yul\":4726:4730   */\n      0x00\n        /* \"#utility.yul\":4764:4767   */\n      0x0140\n        /* \"#utility.yul\":4753:4762   */\n      dup3\n        /* \"#utility.yul\":4749:4768   */\n      add\n        /* \"#utility.yul\":4741:4768   */\n      swap1\n      pop\n        /* \"#utility.yul\":4778:4849   */\n      tag_351\n        /* \"#utility.yul\":4846:4847   */\n      0x00\n        /* \"#utility.yul\":4835:4844   */\n      dup4\n        /* \"#utility.yul\":4831:4848   */\n      add\n        /* \"#utility.yul\":4822:4828   */\n      dup14\n        /* \"#utility.yul\":4778:4849   */\n      tag_256\n      jump\t// in\n    tag_351:\n        /* \"#utility.yul\":4859:4931   */\n      tag_352\n        /* \"#utility.yul\":4927:4929   */\n      0x20\n        /* \"#utility.yul\":4916:4925   */\n      dup4\n        /* \"#utility.yul\":4912:4930   */\n      add\n        /* \"#utility.yul\":4903:4909   */\n      dup13\n        /* \"#utility.yul\":4859:4931   */\n      tag_256\n      jump\t// in\n    tag_352:\n        /* \"#utility.yul\":4941:5013   */\n      tag_353\n        /* \"#utility.yul\":5009:5011   */\n      0x40\n        /* \"#utility.yul\":4998:5007   */\n      dup4\n        /* \"#utility.yul\":4994:5012   */\n      add\n        /* \"#utility.yul\":4985:4991   */\n      dup12\n        /* \"#utility.yul\":4941:5013   */\n      tag_256\n      jump\t// in\n    tag_353:\n        /* \"#utility.yul\":5023:5095   */\n      tag_354\n        /* \"#utility.yul\":5091:5093   */\n      0x60\n        /* \"#utility.yul\":5080:5089   */\n      dup4\n        /* \"#utility.yul\":5076:5094   */\n      add\n        /* \"#utility.yul\":5067:5073   */\n      dup11\n        /* \"#utility.yul\":5023:5095   */\n      tag_256\n      jump\t// in\n    tag_354:\n        /* \"#utility.yul\":5105:5178   */\n      tag_355\n        /* \"#utility.yul\":5173:5176   */\n      0x80\n        /* \"#utility.yul\":5162:5171   */\n      dup4\n        /* \"#utility.yul\":5158:5177   */\n      add\n        /* \"#utility.yul\":5149:5155   */\n      dup10\n        /* \"#utility.yul\":5105:5178   */\n      tag_257\n      jump\t// in\n    tag_355:\n        /* \"#utility.yul\":5226:5235   */\n      dup2\n        /* \"#utility.yul\":5220:5224   */\n      dup2\n        /* \"#utility.yul\":5216:5236   */\n      sub\n        /* \"#utility.yul\":5210:5213   */\n      0xa0\n        /* \"#utility.yul\":5199:5208   */\n      dup4\n        /* \"#utility.yul\":5195:5214   */\n      add\n        /* \"#utility.yul\":5188:5237   */\n      mstore\n        /* \"#utility.yul\":5254:5332   */\n      tag_356\n        /* \"#utility.yul\":5327:5331   */\n      dup2\n        /* \"#utility.yul\":5318:5324   */\n      dup9\n        /* \"#utility.yul\":5254:5332   */\n      tag_262\n      jump\t// in\n    tag_356:\n        /* \"#utility.yul\":5246:5332   */\n      swap1\n      pop\n        /* \"#utility.yul\":5380:5389   */\n      dup2\n        /* \"#utility.yul\":5374:5378   */\n      dup2\n        /* \"#utility.yul\":5370:5390   */\n      sub\n        /* \"#utility.yul\":5364:5367   */\n      0xc0\n        /* \"#utility.yul\":5353:5362   */\n      dup4\n        /* \"#utility.yul\":5349:5368   */\n      add\n        /* \"#utility.yul\":5342:5391   */\n      mstore\n        /* \"#utility.yul\":5408:5486   */\n      tag_357\n        /* \"#utility.yul\":5481:5485   */\n      dup2\n        /* \"#utility.yul\":5472:5478   */\n      dup8\n        /* \"#utility.yul\":5408:5486   */\n      tag_262\n      jump\t// in\n    tag_357:\n        /* \"#utility.yul\":5400:5486   */\n      swap1\n      pop\n        /* \"#utility.yul\":5496:5569   */\n      tag_358\n        /* \"#utility.yul\":5564:5567   */\n      0xe0\n        /* \"#utility.yul\":5553:5562   */\n      dup4\n        /* \"#utility.yul\":5549:5568   */\n      add\n        /* \"#utility.yul\":5540:5546   */\n      dup7\n        /* \"#utility.yul\":5496:5569   */\n      tag_256\n      jump\t// in\n    tag_358:\n        /* \"#utility.yul\":5617:5626   */\n      dup2\n        /* \"#utility.yul\":5611:5615   */\n      dup2\n        /* \"#utility.yul\":5607:5627   */\n      sub\n        /* \"#utility.yul\":5601:5604   */\n      0x0100\n        /* \"#utility.yul\":5590:5599   */\n      dup4\n        /* \"#utility.yul\":5586:5605   */\n      add\n        /* \"#utility.yul\":5579:5628   */\n      mstore\n        /* \"#utility.yul\":5645:5723   */\n      tag_359\n        /* \"#utility.yul\":5718:5722   */\n      dup2\n        /* \"#utility.yul\":5709:5715   */\n      dup6\n        /* \"#utility.yul\":5645:5723   */\n      tag_262\n      jump\t// in\n    tag_359:\n        /* \"#utility.yul\":5637:5723   */\n      swap1\n      pop\n        /* \"#utility.yul\":5733:5806   */\n      tag_360\n        /* \"#utility.yul\":5801:5804   */\n      0x0120\n        /* \"#utility.yul\":5790:5799   */\n      dup4\n        /* \"#utility.yul\":5786:5805   */\n      add\n        /* \"#utility.yul\":5777:5783   */\n      dup5\n        /* \"#utility.yul\":5733:5806   */\n      tag_256\n      jump\t// in\n    tag_360:\n        /* \"#utility.yul\":4321:5813   */\n      swap12\n      swap11\n      pop\n      pop\n      pop\n      pop\n      pop\n      pop\n      pop\n      pop\n      pop\n      pop\n      pop\n      jump\t// out\n        /* \"#utility.yul\":5819:6041   */\n    tag_56:\n        /* \"#utility.yul\":5912:5916   */\n      0x00\n        /* \"#utility.yul\":5950:5952   */\n      0x20\n        /* \"#utility.yul\":5939:5948   */\n      dup3\n        /* \"#utility.yul\":5935:5953   */\n      add\n        /* \"#utility.yul\":5927:5953   */\n      swap1\n      pop\n        /* \"#utility.yul\":5963:6034   */\n      tag_362\n        /* \"#utility.yul\":6031:6032   */\n      0x00\n        /* \"#utility.yul\":6020:6029   */\n      dup4\n        /* \"#utility.yul\":6016:6033   */\n      add\n        /* \"#utility.yul\":6007:6013   */\n      dup5\n        /* \"#utility.yul\":5963:6034   */\n      tag_257\n      jump\t// in\n    tag_362:\n        /* \"#utility.yul\":5819:6041   */\n      swap3\n      swap2\n      pop\n      pop\n      jump\t// out\n        /* \"#utility.yul\":6047:6151   */\n    tag_263:\n        /* \"#utility.yul\":6092:6099   */\n      0x00\n        /* \"#utility.yul\":6121:6145   */\n      tag_364\n        /* \"#utility.yul\":6139:6144   */\n      dup3\n        /* \"#utility.yul\":6121:6145   */\n      tag_250\n      jump\t// in\n    tag_364:\n        /* \"#utility.yul\":6110:6145   */\n      swap1\n      pop\n        /* \"#utility.yul\":6047:6151   */\n      swap2\n      swap1\n      pop\n      jump\t// out\n        /* \"#utility.yul\":6157:6299   */\n    tag_264:\n        /* \"#utility.yul\":6260:6292   */\n      tag_366\n        /* \"#utility.yul\":6286:6291   */\n      dup2\n        /* \"#utility.yul\":6260:6292   */\n      tag_263\n      jump\t// in\n    tag_366:\n        /* \"#utility.yul\":6255:6258   */\n      dup3\n        /* \"#utility.yul\":6248:6293   */\n      mstore\n        /* \"#utility.yul\":6157:6299   */\n      pop\n      pop\n      jump\t// out\n        /* \"#utility.yul\":6305:6559   */\n    tag_62:\n        /* \"#utility.yul\":6414:6418   */\n      0x00\n        /* \"#utility.yul\":6452:6454   */\n      0x20\n        /* \"#utility.yul\":6441:6450   */\n      dup3\n        /* \"#utility.yul\":6437:6455   */\n      add\n        /* \"#utility.yul\":6429:6455   */\n      swap1\n      pop\n        /* \"#utility.yul\":6465:6552   */\n      tag_368\n        /* \"#utility.yul\":6549:6550   */\n      0x00\n        /* \"#utility.yul\":6538:6547   */\n      dup4\n        /* \"#utility.yul\":6534:6551   */\n      add\n        /* \"#utility.yul\":6525:6531   */\n      dup5\n        /* \"#utility.yul\":6465:6552   */\n      tag_264\n      jump\t// in\n    tag_368:\n        /* \"#utility.yul\":6305:6559   */\n      swap3\n      swap2\n      pop\n      pop\n      jump\t// out\n        /* \"#utility.yul\":6565:7542   */\n    tag_77:\n        /* \"#utility.yul\":6848:6852   */\n      0x00\n        /* \"#utility.yul\":6886:6889   */\n      0xc0\n        /* \"#utility.yul\":6875:6884   */\n      dup3\n        /* \"#utility.yul\":6871:6890   */\n      add\n        /* \"#utility.yul\":6863:6890   */\n      swap1\n      pop\n        /* \"#utility.yul\":6936:6945   */\n      dup2\n        /* \"#utility.yul\":6930:6934   */\n      dup2\n        /* \"#utility.yul\":6926:6946   */\n      sub\n        /* \"#utility.yul\":6922:6923   */\n      0x00\n        /* \"#utility.yul\":6911:6920   */\n      dup4\n        /* \"#utility.yul\":6907:6924   */\n      add\n        /* \"#utility.yul\":6900:6947   */\n      mstore\n        /* \"#utility.yul\":6964:7042   */\n      tag_370\n        /* \"#utility.yul\":7037:7041   */\n      dup2\n        /* \"#utility.yul\":7028:7034   */\n      dup10\n        /* \"#utility.yul\":6964:7042   */\n      tag_262\n      jump\t// in\n    tag_370:\n        /* \"#utility.yul\":6956:7042   */\n      swap1\n      pop\n        /* \"#utility.yul\":7089:7098   */\n      dup2\n        /* \"#utility.yul\":7083:7087   */\n      dup2\n        /* \"#utility.yul\":7079:7099   */\n      sub\n        /* \"#utility.yul\":7074:7076   */\n      0x20\n        /* \"#utility.yul\":7063:7072   */\n      dup4\n        /* \"#utility.yul\":7059:7077   */\n      add\n        /* \"#utility.yul\":7052:7100   */\n      mstore\n        /* \"#utility.yul\":7117:7195   */\n      tag_371\n        /* \"#utility.yul\":7190:7194   */\n      dup2\n        /* \"#utility.yul\":7181:7187   */\n      dup9\n        /* \"#utility.yul\":7117:7195   */\n      tag_262\n      jump\t// in\n    tag_371:\n        /* \"#utility.yul\":7109:7195   */\n      swap1\n      pop\n        /* \"#utility.yul\":7205:7277   */\n      tag_372\n        /* \"#utility.yul\":7273:7275   */\n      0x40\n        /* \"#utility.yul\":7262:7271   */\n      dup4\n        /* \"#utility.yul\":7258:7276   */\n      add\n        /* \"#utility.yul\":7249:7255   */\n      dup8\n        /* \"#utility.yul\":7205:7277   */\n      tag_256\n      jump\t// in\n    tag_372:\n        /* \"#utility.yul\":7287:7375   */\n      tag_373\n        /* \"#utility.yul\":7371:7373   */\n      0x60\n        /* \"#utility.yul\":7360:7369   */\n      dup4\n        /* \"#utility.yul\":7356:7374   */\n      add\n        /* \"#utility.yul\":7347:7353   */\n      dup7\n        /* \"#utility.yul\":7287:7375   */\n      tag_264\n      jump\t// in\n    tag_373:\n        /* \"#utility.yul\":7385:7452   */\n      tag_374\n        /* \"#utility.yul\":7447:7450   */\n      0x80\n        /* \"#utility.yul\":7436:7445   */\n      dup4\n        /* \"#utility.yul\":7432:7451   */\n      add\n        /* \"#utility.yul\":7423:7429   */\n      dup6\n        /* \"#utility.yul\":7385:7452   */\n      tag_255\n      jump\t// in\n    tag_374:\n        /* \"#utility.yul\":7462:7535   */\n      tag_375\n        /* \"#utility.yul\":7530:7533   */\n      0xa0\n        /* \"#utility.yul\":7519:7528   */\n      dup4\n        /* \"#utility.yul\":7515:7534   */\n      add\n        /* \"#utility.yul\":7506:7512   */\n      dup5\n        /* \"#utility.yul\":7462:7535   */\n      tag_256\n      jump\t// in\n    tag_375:\n        /* \"#utility.yul\":6565:7542   */\n      swap8\n      swap7\n      pop\n      pop\n      pop\n      pop\n      pop\n      pop\n      pop\n      jump\t// out\n        /* \"#utility.yul\":7548:7665   */\n    tag_265:\n        /* \"#utility.yul\":7657:7658   */\n      0x00\n        /* \"#utility.yul\":7654:7655   */\n      dup1\n        /* \"#utility.yul\":7647:7659   */\n      revert\n        /* \"#utility.yul\":7671:7788   */\n    tag_266:\n        /* \"#utility.yul\":7780:7781   */\n      0x00\n        /* \"#utility.yul\":7777:7778   */\n      dup1\n        /* \"#utility.yul\":7770:7782   */\n      revert\n        /* \"#utility.yul\":7794:7974   */\n    tag_267:\n        /* \"#utility.yul\":7842:7919   */\n      0x4e487b7100000000000000000000000000000000000000000000000000000000\n        /* \"#utility.yul\":7839:7840   */\n      0x00\n        /* \"#utility.yul\":7832:7920   */\n      mstore\n        /* \"#utility.yul\":7939:7943   */\n      0x41\n        /* \"#utility.yul\":7936:7937   */\n      0x04\n        /* \"#utility.yul\":7929:7944   */\n      mstore\n        /* \"#utility.yul\":7963:7967   */\n      0x24\n        /* \"#utility.yul\":7960:7961   */\n      0x00\n        /* \"#utility.yul\":7953:7968   */\n      revert\n        /* \"#utility.yul\":7980:8261   */\n    tag_268:\n        /* \"#utility.yul\":8063:8090   */\n      tag_380\n        /* \"#utility.yul\":8085:8089   */\n      dup3\n        /* \"#utility.yul\":8063:8090   */\n      tag_261\n      jump\t// in\n    tag_380:\n        /* \"#utility.yul\":8055:8061   */\n      dup2\n        /* \"#utility.yul\":8051:8091   */\n      add\n        /* \"#utility.yul\":8193:8199   */\n      dup2\n        /* \"#utility.yul\":8181:8191   */\n      dup2\n        /* \"#utility.yul\":8178:8200   */\n      lt\n        /* \"#utility.yul\":8157:8175   */\n      0xffffffffffffffff\n        /* \"#utility.yul\":8145:8155   */\n      dup3\n        /* \"#utility.yul\":8142:8176   */\n      gt\n        /* \"#utility.yul\":8139:8201   */\n      or\n        /* \"#utility.yul\":8136:8224   */\n      iszero\n      tag_381\n      jumpi\n        /* \"#utility.yul\":8204:8222   */\n      tag_382\n      tag_267\n      jump\t// in\n    tag_382:\n        /* \"#utility.yul\":8136:8224   */\n    tag_381:\n        /* \"#utility.yul\":8244:8254   */\n      dup1\n        /* \"#utility.yul\":8240:8242   */\n      0x40\n        /* \"#utility.yul\":8233:8255   */\n      mstore\n        /* \"#utility.yul\":8023:8261   */\n      pop\n        /* \"#utility.yul\":7980:8261   */\n      pop\n      pop\n      jump\t// out\n        /* \"#utility.yul\":8267:8396   */\n    tag_269:\n        /* \"#utility.yul\":8301:8307   */\n      0x00\n        /* \"#utility.yul\":8328:8348   */\n      tag_384\n      tag_244\n      jump\t// in\n    tag_384:\n        /* \"#utility.yul\":8318:8348   */\n      swap1\n      pop\n        /* \"#utility.yul\":8357:8390   */\n      tag_385\n        /* \"#utility.yul\":8385:8389   */\n      dup3\n        /* \"#utility.yul\":8377:8383   */\n      dup3\n        /* \"#utility.yul\":8357:8390   */\n      tag_268\n      jump\t// in\n    tag_385:\n        /* \"#utility.yul\":8267:8396   */\n      swap2\n      swap1\n      pop\n      jump\t// out\n        /* \"#utility.yul\":8402:8710   */\n    tag_270:\n        /* \"#utility.yul\":8464:8468   */\n      0x00\n        /* \"#utility.yul\":8554:8572   */\n      0xffffffffffffffff\n        /* \"#utility.yul\":8546:8552   */\n      dup3\n        /* \"#utility.yul\":8543:8573   */\n      gt\n        /* \"#utility.yul\":8540:8596   */\n      iszero\n      tag_387\n      jumpi\n        /* \"#utility.yul\":8576:8594   */\n      tag_388\n      tag_267\n      jump\t// in\n    tag_388:\n        /* \"#utility.yul\":8540:8596   */\n    tag_387:\n        /* \"#utility.yul\":8614:8643   */\n      tag_389\n        /* \"#utility.yul\":8636:8642   */\n      dup3\n        /* \"#utility.yul\":8614:8643   */\n      tag_261\n      jump\t// in\n    tag_389:\n        /* \"#utility.yul\":8606:8643   */\n      swap1\n      pop\n        /* \"#utility.yul\":8698:8702   */\n      0x20\n        /* \"#utility.yul\":8692:8696   */\n      dup2\n        /* \"#utility.yul\":8688:8703   */\n      add\n        /* \"#utility.yul\":8680:8703   */\n      swap1\n      pop\n        /* \"#utility.yul\":8402:8710   */\n      swap2\n      swap1\n      pop\n      jump\t// out\n        /* \"#utility.yul\":8716:8870   */\n    tag_271:\n        /* \"#utility.yul\":8800:8806   */\n      dup3\n        /* \"#utility.yul\":8795:8798   */\n      dup2\n        /* \"#utility.yul\":8790:8793   */\n      dup4\n        /* \"#utility.yul\":8777:8807   */\n      calldatacopy\n        /* \"#utility.yul\":8862:8863   */\n      0x00\n        /* \"#utility.yul\":8853:8859   */\n      dup4\n        /* \"#utility.yul\":8848:8851   */\n      dup4\n        /* \"#utility.yul\":8844:8860   */\n      add\n        /* \"#utility.yul\":8837:8864   */\n      mstore\n        /* \"#utility.yul\":8716:8870   */\n      pop\n      pop\n      pop\n      jump\t// out\n        /* \"#utility.yul\":8876:9288   */\n    tag_272:\n        /* \"#utility.yul\":8954:8959   */\n      0x00\n        /* \"#utility.yul\":8979:9045   */\n      tag_392\n        /* \"#utility.yul\":8995:9044   */\n      tag_393\n        /* \"#utility.yul\":9037:9043   */\n      dup5\n        /* \"#utility.yul\":8995:9044   */\n      tag_270\n      jump\t// in\n    tag_393:\n        /* \"#utility.yul\":8979:9045   */\n      tag_269\n      jump\t// in\n    tag_392:\n        /* \"#utility.yul\":8970:9045   */\n      swap1\n      pop\n        /* \"#utility.yul\":9068:9074   */\n      dup3\n        /* \"#utility.yul\":9061:9066   */\n      dup2\n        /* \"#utility.yul\":9054:9075   */\n      mstore\n        /* \"#utility.yul\":9106:9110   */\n      0x20\n        /* \"#utility.yul\":9099:9104   */\n      dup2\n        /* \"#utility.yul\":9095:9111   */\n      add\n        /* \"#utility.yul\":9144:9147   */\n      dup5\n        /* \"#utility.yul\":9135:9141   */\n      dup5\n        /* \"#utility.yul\":9130:9133   */\n      dup5\n        /* \"#utility.yul\":9126:9142   */\n      add\n        /* \"#utility.yul\":9123:9148   */\n      gt\n        /* \"#utility.yul\":9120:9232   */\n      iszero\n      tag_394\n      jumpi\n        /* \"#utility.yul\":9151:9230   */\n      tag_395\n      tag_266\n      jump\t// in\n    tag_395:\n        /* \"#utility.yul\":9120:9232   */\n    tag_394:\n        /* \"#utility.yul\":9241:9282   */\n      tag_396\n        /* \"#utility.yul\":9275:9281   */\n      dup5\n        /* \"#utility.yul\":9270:9273   */\n      dup3\n        /* \"#utility.yul\":9265:9268   */\n      dup6\n        /* \"#utility.yul\":9241:9282   */\n      tag_271\n      jump\t// in\n    tag_396:\n        /* \"#utility.yul\":8960:9288   */\n      pop\n        /* \"#utility.yul\":8876:9288   */\n      swap4\n      swap3\n      pop\n      pop\n      pop\n      jump\t// out\n        /* \"#utility.yul\":9308:9648   */\n    tag_273:\n        /* \"#utility.yul\":9364:9369   */\n      0x00\n        /* \"#utility.yul\":9413:9416   */\n      dup3\n        /* \"#utility.yul\":9406:9410   */\n      0x1f\n        /* \"#utility.yul\":9398:9404   */\n      dup4\n        /* \"#utility.yul\":9394:9411   */\n      add\n        /* \"#utility.yul\":9390:9417   */\n      slt\n        /* \"#utility.yul\":9380:9502   */\n      tag_398\n      jumpi\n        /* \"#utility.yul\":9421:9500   */\n      tag_399\n      tag_265\n      jump\t// in\n    tag_399:\n        /* \"#utility.yul\":9380:9502   */\n    tag_398:\n        /* \"#utility.yul\":9538:9544   */\n      dup2\n        /* \"#utility.yul\":9525:9545   */\n      calldataload\n        /* \"#utility.yul\":9563:9642   */\n      tag_400\n        /* \"#utility.yul\":9638:9641   */\n      dup5\n        /* \"#utility.yul\":9630:9636   */\n      dup3\n        /* \"#utility.yul\":9623:9627   */\n      0x20\n        /* \"#utility.yul\":9615:9621   */\n      dup7\n        /* \"#utility.yul\":9611:9628   */\n      add\n        /* \"#utility.yul\":9563:9642   */\n      tag_272\n      jump\t// in\n    tag_400:\n        /* \"#utility.yul\":9554:9642   */\n      swap2\n      pop\n        /* \"#utility.yul\":9370:9648   */\n      pop\n        /* \"#utility.yul\":9308:9648   */\n      swap3\n      swap2\n      pop\n      pop\n      jump\t// out\n        /* \"#utility.yul\":9654:9792   */\n    tag_274:\n        /* \"#utility.yul\":9735:9767   */\n      tag_402\n        /* \"#utility.yul\":9761:9766   */\n      dup2\n        /* \"#utility.yul\":9735:9767   */\n      tag_263\n      jump\t// in\n    tag_402:\n        /* \"#utility.yul\":9728:9733   */\n      dup2\n        /* \"#utility.yul\":9725:9768   */\n      eq\n        /* \"#utility.yul\":9715:9786   */\n      tag_403\n      jumpi\n        /* \"#utility.yul\":9782:9783   */\n      0x00\n        /* \"#utility.yul\":9779:9780   */\n      dup1\n        /* \"#utility.yul\":9772:9784   */\n      revert\n        /* \"#utility.yul\":9715:9786   */\n    tag_403:\n        /* \"#utility.yul\":9654:9792   */\n      pop\n      jump\t// out\n        /* \"#utility.yul\":9798:9953   */\n    tag_275:\n        /* \"#utility.yul\":9852:9857   */\n      0x00\n        /* \"#utility.yul\":9890:9896   */\n      dup2\n        /* \"#utility.yul\":9877:9897   */\n      calldataload\n        /* \"#utility.yul\":9868:9897   */\n      swap1\n      pop\n        /* \"#utility.yul\":9906:9947   */\n      tag_405\n        /* \"#utility.yul\":9941:9946   */\n      dup2\n        /* \"#utility.yul\":9906:9947   */\n      tag_274\n      jump\t// in\n    tag_405:\n        /* \"#utility.yul\":9798:9953   */\n      swap3\n      swap2\n      pop\n      pop\n      jump\t// out\n        /* \"#utility.yul\":9959:10774   */\n    tag_81:\n        /* \"#utility.yul\":10054:10060   */\n      0x00\n        /* \"#utility.yul\":10062:10068   */\n      dup1\n        /* \"#utility.yul\":10070:10076   */\n      0x00\n        /* \"#utility.yul\":10119:10121   */\n      0x60\n        /* \"#utility.yul\":10107:10116   */\n      dup5\n        /* \"#utility.yul\":10098:10105   */\n      dup7\n        /* \"#utility.yul\":10094:10117   */\n      sub\n        /* \"#utility.yul\":10090:10122   */\n      slt\n        /* \"#utility.yul\":10087:10206   */\n      iszero\n      tag_407\n      jumpi\n        /* \"#utility.yul\":10125:10204   */\n      tag_408\n      tag_245\n      jump\t// in\n    tag_408:\n        /* \"#utility.yul\":10087:10206   */\n    tag_407:\n        /* \"#utility.yul\":10273:10274   */\n      0x00\n        /* \"#utility.yul\":10262:10271   */\n      dup5\n        /* \"#utility.yul\":10258:10275   */\n      add\n        /* \"#utility.yul\":10245:10276   */\n      calldataload\n        /* \"#utility.yul\":10303:10321   */\n      0xffffffffffffffff\n        /* \"#utility.yul\":10295:10301   */\n      dup2\n        /* \"#utility.yul\":10292:10322   */\n      gt\n        /* \"#utility.yul\":10289:10406   */\n      iszero\n      tag_409\n      jumpi\n        /* \"#utility.yul\":10325:10404   */\n      tag_410\n      tag_246\n      jump\t// in\n    tag_410:\n        /* \"#utility.yul\":10289:10406   */\n    tag_409:\n        /* \"#utility.yul\":10430:10493   */\n      tag_411\n        /* \"#utility.yul\":10485:10492   */\n      dup7\n        /* \"#utility.yul\":10476:10482   */\n      dup3\n        /* \"#utility.yul\":10465:10474   */\n      dup8\n        /* \"#utility.yul\":10461:10483   */\n      add\n        /* \"#utility.yul\":10430:10493   */\n      tag_273\n      jump\t// in\n    tag_411:\n        /* \"#utility.yul\":10420:10493   */\n      swap4\n      pop\n        /* \"#utility.yul\":10216:10503   */\n      pop\n        /* \"#utility.yul\":10542:10544   */\n      0x20\n        /* \"#utility.yul\":10568:10621   */\n      tag_412\n        /* \"#utility.yul\":10613:10620   */\n      dup7\n        /* \"#utility.yul\":10604:10610   */\n      dup3\n        /* \"#utility.yul\":10593:10602   */\n      dup8\n        /* \"#utility.yul\":10589:10611   */\n      add\n        /* \"#utility.yul\":10568:10621   */\n      tag_249\n      jump\t// in\n    tag_412:\n        /* \"#utility.yul\":10558:10621   */\n      swap3\n      pop\n        /* \"#utility.yul\":10513:10631   */\n      pop\n        /* \"#utility.yul\":10670:10672   */\n      0x40\n        /* \"#utility.yul\":10696:10757   */\n      tag_413\n        /* \"#utility.yul\":10749:10756   */\n      dup7\n        /* \"#utility.yul\":10740:10746   */\n      dup3\n        /* \"#utility.yul\":10729:10738   */\n      dup8\n        /* \"#utility.yul\":10725:10747   */\n      add\n        /* \"#utility.yul\":10696:10757   */\n      tag_275\n      jump\t// in\n    tag_413:\n        /* \"#utility.yul\":10686:10757   */\n      swap2\n      pop\n        /* \"#utility.yul\":10641:10767   */\n      pop\n        /* \"#utility.yul\":9959:10774   */\n      swap3\n      pop\n      swap3\n      pop\n      swap3\n      jump\t// out\n        /* \"#utility.yul\":10780:11093   */\n    tag_91:\n        /* \"#utility.yul\":10893:10897   */\n      0x00\n        /* \"#utility.yul\":10931:10933   */\n      0x20\n        /* \"#utility.yul\":10920:10929   */\n      dup3\n        /* \"#utility.yul\":10916:10934   */\n      add\n        /* \"#utility.yul\":10908:10934   */\n      swap1\n      pop\n        /* \"#utility.yul\":10980:10989   */\n      dup2\n        /* \"#utility.yul\":10974:10978   */\n      dup2\n        /* \"#utility.yul\":10970:10990   */\n      sub\n        /* \"#utility.yul\":10966:10967   */\n      0x00\n        /* \"#utility.yul\":10955:10964   */\n      dup4\n        /* \"#utility.yul\":10951:10968   */\n      add\n        /* \"#utility.yul\":10944:10991   */\n      mstore\n        /* \"#utility.yul\":11008:11086   */\n      tag_415\n        /* \"#utility.yul\":11081:11085   */\n      dup2\n        /* \"#utility.yul\":11072:11078   */\n      dup5\n        /* \"#utility.yul\":11008:11086   */\n      tag_262\n      jump\t// in\n    tag_415:\n        /* \"#utility.yul\":11000:11086   */\n      swap1\n      pop\n        /* \"#utility.yul\":10780:11093   */\n      swap3\n      swap2\n      pop\n      pop\n      jump\t// out\n        /* \"#utility.yul\":11099:11320   */\n    tag_276:\n        /* \"#utility.yul\":11239:11273   */\n      0x4f6e6c79206d616e616765722063616e2074616b65207468697320616374696f\n        /* \"#utility.yul\":11235:11236   */\n      0x00\n        /* \"#utility.yul\":11227:11233   */\n      dup3\n        /* \"#utility.yul\":11223:11237   */\n      add\n        /* \"#utility.yul\":11216:11274   */\n      mstore\n        /* \"#utility.yul\":11308:11312   */\n      0x6e2e000000000000000000000000000000000000000000000000000000000000\n        /* \"#utility.yul\":11303:11305   */\n      0x20\n        /* \"#utility.yul\":11295:11301   */\n      dup3\n        /* \"#utility.yul\":11291:11306   */\n      add\n        /* \"#utility.yul\":11284:11313   */\n      mstore\n        /* \"#utility.yul\":11099:11320   */\n      pop\n      jump\t// out\n        /* \"#utility.yul\":11326:11692   */\n    tag_277:\n        /* \"#utility.yul\":11468:11471   */\n      0x00\n        /* \"#utility.yul\":11489:11556   */\n      tag_418\n        /* \"#utility.yul\":11553:11555   */\n      0x22\n        /* \"#utility.yul\":11548:11551   */\n      dup4\n        /* \"#utility.yul\":11489:11556   */\n      tag_259\n      jump\t// in\n    tag_418:\n        /* \"#utility.yul\":11482:11556   */\n      swap2\n      pop\n        /* \"#utility.yul\":11565:11658   */\n      tag_419\n        /* \"#utility.yul\":11654:11657   */\n      dup3\n        /* \"#utility.yul\":11565:11658   */\n      tag_276\n      jump\t// in\n    tag_419:\n        /* \"#utility.yul\":11683:11685   */\n      0x40\n        /* \"#utility.yul\":11678:11681   */\n      dup3\n        /* \"#utility.yul\":11674:11686   */\n      add\n        /* \"#utility.yul\":11667:11686   */\n      swap1\n      pop\n        /* \"#utility.yul\":11326:11692   */\n      swap2\n      swap1\n      pop\n      jump\t// out\n        /* \"#utility.yul\":11698:12117   */\n    tag_125:\n        /* \"#utility.yul\":11864:11868   */\n      0x00\n        /* \"#utility.yul\":11902:11904   */\n      0x20\n        /* \"#utility.yul\":11891:11900   */\n      dup3\n        /* \"#utility.yul\":11887:11905   */\n      add\n        /* \"#utility.yul\":11879:11905   */\n      swap1\n      pop\n        /* \"#utility.yul\":11951:11960   */\n      dup2\n        /* \"#utility.yul\":11945:11949   */\n      dup2\n        /* \"#utility.yul\":11941:11961   */\n      sub\n        /* \"#utility.yul\":11937:11938   */\n      0x00\n        /* \"#utility.yul\":11926:11935   */\n      dup4\n        /* \"#utility.yul\":11922:11939   */\n      add\n        /* \"#utility.yul\":11915:11962   */\n      mstore\n        /* \"#utility.yul\":11979:12110   */\n      tag_421\n        /* \"#utility.yul\":12105:12109   */\n      dup2\n        /* \"#utility.yul\":11979:12110   */\n      tag_277\n      jump\t// in\n    tag_421:\n        /* \"#utility.yul\":11971:12110   */\n      swap1\n      pop\n        /* \"#utility.yul\":11698:12117   */\n      swap2\n      swap1\n      pop\n      jump\t// out\n        /* \"#utility.yul\":12123:12303   */\n    tag_278:\n        /* \"#utility.yul\":12171:12248   */\n      0x4e487b7100000000000000000000000000000000000000000000000000000000\n        /* \"#utility.yul\":12168:12169   */\n      0x00\n        /* \"#utility.yul\":12161:12249   */\n      mstore\n        /* \"#utility.yul\":12268:12272   */\n      0x12\n        /* \"#utility.yul\":12265:12266   */\n      0x04\n        /* \"#utility.yul\":12258:12273   */\n      mstore\n        /* \"#utility.yul\":12292:12296   */\n      0x24\n        /* \"#utility.yul\":12289:12290   */\n      0x00\n        /* \"#utility.yul\":12282:12297   */\n      revert\n        /* \"#utility.yul\":12309:12489   */\n    tag_279:\n        /* \"#utility.yul\":12357:12434   */\n      0x4e487b7100000000000000000000000000000000000000000000000000000000\n        /* \"#utility.yul\":12354:12355   */\n      0x00\n        /* \"#utility.yul\":12347:12435   */\n      mstore\n        /* \"#utility.yul\":12454:12458   */\n      0x11\n        /* \"#utility.yul\":12451:12452   */\n      0x04\n        /* \"#utility.yul\":12444:12459   */\n      mstore\n        /* \"#utility.yul\":12478:12482   */\n      0x24\n        /* \"#utility.yul\":12475:12476   */\n      0x00\n        /* \"#utility.yul\":12468:12483   */\n      revert\n        /* \"#utility.yul\":12495:12680   */\n    tag_128:\n        /* \"#utility.yul\":12535:12536   */\n      0x00\n        /* \"#utility.yul\":12552:12572   */\n      tag_425\n        /* \"#utility.yul\":12570:12571   */\n      dup3\n        /* \"#utility.yul\":12552:12572   */\n      tag_247\n      jump\t// in\n    tag_425:\n        /* \"#utility.yul\":12547:12572   */\n      swap2\n      pop\n        /* \"#utility.yul\":12586:12606   */\n      tag_426\n        /* \"#utility.yul\":12604:12605   */\n      dup4\n        /* \"#utility.yul\":12586:12606   */\n      tag_247\n      jump\t// in\n    tag_426:\n        /* \"#utility.yul\":12581:12606   */\n      swap3\n      pop\n        /* \"#utility.yul\":12625:12626   */\n      dup3\n        /* \"#utility.yul\":12615:12650   */\n      tag_427\n      jumpi\n        /* \"#utility.yul\":12630:12648   */\n      tag_428\n      tag_278\n      jump\t// in\n    tag_428:\n        /* \"#utility.yul\":12615:12650   */\n    tag_427:\n        /* \"#utility.yul\":12672:12673   */\n      dup3\n        /* \"#utility.yul\":12669:12670   */\n      dup3\n        /* \"#utility.yul\":12665:12674   */\n      div\n        /* \"#utility.yul\":12660:12674   */\n      swap1\n      pop\n        /* \"#utility.yul\":12495:12680   */\n      swap3\n      swap2\n      pop\n      pop\n      jump\t// out\n        /* \"#utility.yul\":12686:12862   */\n    tag_280:\n        /* \"#utility.yul\":12826:12854   */\n      0x4e6f7420656e6f75676820617070726f76616c20726174696f2e000000000000\n        /* \"#utility.yul\":12822:12823   */\n      0x00\n        /* \"#utility.yul\":12814:12820   */\n      dup3\n        /* \"#utility.yul\":12810:12824   */\n      add\n        /* \"#utility.yul\":12803:12855   */\n      mstore\n        /* \"#utility.yul\":12686:12862   */\n      pop\n      jump\t// out\n        /* \"#utility.yul\":12868:13234   */\n    tag_281:\n        /* \"#utility.yul\":13010:13013   */\n      0x00\n        /* \"#utility.yul\":13031:13098   */\n      tag_431\n        /* \"#utility.yul\":13095:13097   */\n      0x1a\n        /* \"#utility.yul\":13090:13093   */\n      dup4\n        /* \"#utility.yul\":13031:13098   */\n      tag_259\n      jump\t// in\n    tag_431:\n        /* \"#utility.yul\":13024:13098   */\n      swap2\n      pop\n        /* \"#utility.yul\":13107:13200   */\n      tag_432\n        /* \"#utility.yul\":13196:13199   */\n      dup3\n        /* \"#utility.yul\":13107:13200   */\n      tag_280\n      jump\t// in\n    tag_432:\n        /* \"#utility.yul\":13225:13227   */\n      0x20\n        /* \"#utility.yul\":13220:13223   */\n      dup3\n        /* \"#utility.yul\":13216:13228   */\n      add\n        /* \"#utility.yul\":13209:13228   */\n      swap1\n      pop\n        /* \"#utility.yul\":12868:13234   */\n      swap2\n      swap1\n      pop\n      jump\t// out\n        /* \"#utility.yul\":13240:13659   */\n    tag_131:\n        /* \"#utility.yul\":13406:13410   */\n      0x00\n        /* \"#utility.yul\":13444:13446   */\n      0x20\n        /* \"#utility.yul\":13433:13442   */\n      dup3\n        /* \"#utility.yul\":13429:13447   */\n      add\n        /* \"#utility.yul\":13421:13447   */\n      swap1\n      pop\n        /* \"#utility.yul\":13493:13502   */\n      dup2\n        /* \"#utility.yul\":13487:13491   */\n      dup2\n        /* \"#utility.yul\":13483:13503   */\n      sub\n        /* \"#utility.yul\":13479:13480   */\n      0x00\n        /* \"#utility.yul\":13468:13477   */\n      dup4\n        /* \"#utility.yul\":13464:13481   */\n      add\n        /* \"#utility.yul\":13457:13504   */\n      mstore\n        /* \"#utility.yul\":13521:13652   */\n      tag_434\n        /* \"#utility.yul\":13647:13651   */\n      dup2\n        /* \"#utility.yul\":13521:13652   */\n      tag_281\n      jump\t// in\n    tag_434:\n        /* \"#utility.yul\":13513:13652   */\n      swap1\n      pop\n        /* \"#utility.yul\":13240:13659   */\n      swap2\n      swap1\n      pop\n      jump\t// out\n        /* \"#utility.yul\":13665:13885   */\n    tag_282:\n        /* \"#utility.yul\":13805:13839   */\n      0x546865207265717565737420697320616c72656164792066696e616c697a6564\n        /* \"#utility.yul\":13801:13802   */\n      0x00\n        /* \"#utility.yul\":13793:13799   */\n      dup3\n        /* \"#utility.yul\":13789:13803   */\n      add\n        /* \"#utility.yul\":13782:13840   */\n      mstore\n        /* \"#utility.yul\":13874:13877   */\n      0x2e00000000000000000000000000000000000000000000000000000000000000\n        /* \"#utility.yul\":13869:13871   */\n      0x20\n        /* \"#utility.yul\":13861:13867   */\n      dup3\n        /* \"#utility.yul\":13857:13872   */\n      add\n        /* \"#utility.yul\":13850:13878   */\n      mstore\n        /* \"#utility.yul\":13665:13885   */\n      pop\n      jump\t// out\n        /* \"#utility.yul\":13891:14257   */\n    tag_283:\n        /* \"#utility.yul\":14033:14036   */\n      0x00\n        /* \"#utility.yul\":14054:14121   */\n      tag_437\n        /* \"#utility.yul\":14118:14120   */\n      0x21\n        /* \"#utility.yul\":14113:14116   */\n      dup4\n        /* \"#utility.yul\":14054:14121   */\n      tag_259\n      jump\t// in\n    tag_437:\n        /* \"#utility.yul\":14047:14121   */\n      swap2\n      pop\n        /* \"#utility.yul\":14130:14223   */\n      tag_438\n        /* \"#utility.yul\":14219:14222   */\n      dup3\n        /* \"#utility.yul\":14130:14223   */\n      tag_282\n      jump\t// in\n    tag_438:\n        /* \"#utility.yul\":14248:14250   */\n      0x40\n        /* \"#utility.yul\":14243:14246   */\n      dup3\n        /* \"#utility.yul\":14239:14251   */\n      add\n        /* \"#utility.yul\":14232:14251   */\n      swap1\n      pop\n        /* \"#utility.yul\":13891:14257   */\n      swap2\n      swap1\n      pop\n      jump\t// out\n        /* \"#utility.yul\":14263:14682   */\n    tag_134:\n        /* \"#utility.yul\":14429:14433   */\n      0x00\n        /* \"#utility.yul\":14467:14469   */\n      0x20\n        /* \"#utility.yul\":14456:14465   */\n      dup3\n        /* \"#utility.yul\":14452:14470   */\n      add\n        /* \"#utility.yul\":14444:14470   */\n      swap1\n      pop\n        /* \"#utility.yul\":14516:14525   */\n      dup2\n        /* \"#utility.yul\":14510:14514   */\n      dup2\n        /* \"#utility.yul\":14506:14526   */\n      sub\n        /* \"#utility.yul\":14502:14503   */\n      0x00\n        /* \"#utility.yul\":14491:14500   */\n      dup4\n        /* \"#utility.yul\":14487:14504   */\n      add\n        /* \"#utility.yul\":14480:14527   */\n      mstore\n        /* \"#utility.yul\":14544:14675   */\n      tag_440\n        /* \"#utility.yul\":14670:14674   */\n      dup2\n        /* \"#utility.yul\":14544:14675   */\n      tag_283\n      jump\t// in\n    tag_440:\n        /* \"#utility.yul\":14536:14675   */\n      swap1\n      pop\n        /* \"#utility.yul\":14263:14682   */\n      swap2\n      swap1\n      pop\n      jump\t// out\n        /* \"#utility.yul\":14688:14868   */\n    tag_145:\n        /* \"#utility.yul\":14736:14813   */\n      0x4e487b7100000000000000000000000000000000000000000000000000000000\n        /* \"#utility.yul\":14733:14734   */\n      0x00\n        /* \"#utility.yul\":14726:14814   */\n      mstore\n        /* \"#utility.yul\":14833:14837   */\n      0x32\n        /* \"#utility.yul\":14830:14831   */\n      0x04\n        /* \"#utility.yul\":14823:14838   */\n      mstore\n        /* \"#utility.yul\":14857:14861   */\n      0x24\n        /* \"#utility.yul\":14854:14855   */\n      0x00\n        /* \"#utility.yul\":14847:14862   */\n      revert\n        /* \"#utility.yul\":14874:15107   */\n    tag_153:\n        /* \"#utility.yul\":14913:14916   */\n      0x00\n        /* \"#utility.yul\":14936:14960   */\n      tag_443\n        /* \"#utility.yul\":14954:14959   */\n      dup3\n        /* \"#utility.yul\":14936:14960   */\n      tag_247\n      jump\t// in\n    tag_443:\n        /* \"#utility.yul\":14927:14960   */\n      swap2\n      pop\n        /* \"#utility.yul\":14982:15048   */\n      0xffffffffffffffffffffffffffffffffffffffffffffffffffffffffffffffff\n        /* \"#utility.yul\":14975:14980   */\n      dup3\n        /* \"#utility.yul\":14972:15049   */\n      eq\n        /* \"#utility.yul\":14969:15072   */\n      iszero\n      tag_444\n      jumpi\n        /* \"#utility.yul\":15052:15070   */\n      tag_445\n      tag_279\n      jump\t// in\n    tag_445:\n        /* \"#utility.yul\":14969:15072   */\n    tag_444:\n        /* \"#utility.yul\":15099:15100   */\n      0x01\n        /* \"#utility.yul\":15092:15097   */\n      dup3\n        /* \"#utility.yul\":15088:15101   */\n      add\n        /* \"#utility.yul\":15081:15101   */\n      swap1\n      pop\n        /* \"#utility.yul\":14874:15107   */\n      swap2\n      swap1\n      pop\n      jump\t// out\n        /* \"#utility.yul\":15113:15293   */\n    tag_284:\n        /* \"#utility.yul\":15161:15238   */\n      0x4e487b7100000000000000000000000000000000000000000000000000000000\n        /* \"#utility.yul\":15158:15159   */\n      0x00\n        /* \"#utility.yul\":15151:15239   */\n      mstore\n        /* \"#utility.yul\":15258:15262   */\n      0x22\n        /* \"#utility.yul\":15255:15256   */\n      0x04\n        /* \"#utility.yul\":15248:15263   */\n      mstore\n        /* \"#utility.yul\":15282:15286   */\n      0x24\n        /* \"#utility.yul\":15279:15280   */\n      0x00\n        /* \"#utility.yul\":15272:15287   */\n      revert\n        /* \"#utility.yul\":15299:15619   */\n    tag_157:\n        /* \"#utility.yul\":15343:15349   */\n      0x00\n        /* \"#utility.yul\":15380:15381   */\n      0x02\n        /* \"#utility.yul\":15374:15378   */\n      dup3\n        /* \"#utility.yul\":15370:15382   */\n      div\n        /* \"#utility.yul\":15360:15382   */\n      swap1\n      pop\n        /* \"#utility.yul\":15427:15428   */\n      0x01\n        /* \"#utility.yul\":15421:15425   */\n      dup3\n        /* \"#utility.yul\":15417:15429   */\n      and\n        /* \"#utility.yul\":15448:15466   */\n      dup1\n        /* \"#utility.yul\":15438:15519   */\n      tag_448\n      jumpi\n        /* \"#utility.yul\":15504:15508   */\n      0x7f\n        /* \"#utility.yul\":15496:15502   */\n      dup3\n        /* \"#utility.yul\":15492:15509   */\n      and\n        /* \"#utility.yul\":15482:15509   */\n      swap2\n      pop\n        /* \"#utility.yul\":15438:15519   */\n    tag_448:\n        /* \"#utility.yul\":15566:15568   */\n      0x20\n        /* \"#utility.yul\":15558:15564   */\n      dup3\n        /* \"#utility.yul\":15555:15569   */\n      lt\n        /* \"#utility.yul\":15535:15553   */\n      dup2\n        /* \"#utility.yul\":15532:15570   */\n      eq\n        /* \"#utility.yul\":15529:15613   */\n      iszero\n      tag_449\n      jumpi\n        /* \"#utility.yul\":15585:15603   */\n      tag_450\n      tag_284\n      jump\t// in\n    tag_450:\n        /* \"#utility.yul\":15529:15613   */\n    tag_449:\n        /* \"#utility.yul\":15350:15619   */\n      pop\n        /* \"#utility.yul\":15299:15619   */\n      swap2\n      swap1\n      pop\n      jump\t// out\n        /* \"#utility.yul\":15625:15930   */\n    tag_189:\n        /* \"#utility.yul\":15665:15668   */\n      0x00\n        /* \"#utility.yul\":15684:15704   */\n      tag_452\n        /* \"#utility.yul\":15702:15703   */\n      dup3\n        /* \"#utility.yul\":15684:15704   */\n      tag_247\n      jump\t// in\n    tag_452:\n        /* \"#utility.yul\":15679:15704   */\n      swap2\n      pop\n        /* \"#utility.yul\":15718:15738   */\n      tag_453\n        /* \"#utility.yul\":15736:15737   */\n      dup4\n        /* \"#utility.yul\":15718:15738   */\n      tag_247\n      jump\t// in\n    tag_453:\n        /* \"#utility.yul\":15713:15738   */\n      swap3\n      pop\n        /* \"#utility.yul\":15872:15873   */\n      dup3\n        /* \"#utility.yul\":15804:15870   */\n      0xffffffffffffffffffffffffffffffffffffffffffffffffffffffffffffffff\n        /* \"#utility.yul\":15800:15874   */\n      sub\n        /* \"#utility.yul\":15797:15798   */\n      dup3\n        /* \"#utility.yul\":15794:15875   */\n      gt\n        /* \"#utility.yul\":15791:15898   */\n      iszero\n      tag_454\n      jumpi\n        /* \"#utility.yul\":15878:15896   */\n      tag_455\n      tag_279\n      jump\t// in\n    tag_455:\n        /* \"#utility.yul\":15791:15898   */\n    tag_454:\n        /* \"#utility.yul\":15922:15923   */\n      dup3\n        /* \"#utility.yul\":15919:15920   */\n      dup3\n        /* \"#utility.yul\":15915:15924   */\n      add\n        /* \"#utility.yul\":15908:15924   */\n      swap1\n      pop\n        /* \"#utility.yul\":15625:15930   */\n      swap3\n      swap2\n      pop\n      pop\n      jump\t// out\n        /* \"#utility.yul\":15936:16170   */\n    tag_285:\n        /* \"#utility.yul\":16076:16110   */\n      0x596f752063616e27742072657175657374206574686572206d6f726520746861\n        /* \"#utility.yul\":16072:16073   */\n      0x00\n        /* \"#utility.yul\":16064:16070   */\n      dup3\n        /* \"#utility.yul\":16060:16074   */\n      add\n        /* \"#utility.yul\":16053:16111   */\n      mstore\n        /* \"#utility.yul\":16145:16162   */\n      0x6e20796f75722062616c616e63652e0000000000000000000000000000000000\n        /* \"#utility.yul\":16140:16142   */\n      0x20\n        /* \"#utility.yul\":16132:16138   */\n      dup3\n        /* \"#utility.yul\":16128:16143   */\n      add\n        /* \"#utility.yul\":16121:16163   */\n      mstore\n        /* \"#utility.yul\":15936:16170   */\n      pop\n      jump\t// out\n        /* \"#utility.yul\":16176:16542   */\n    tag_286:\n        /* \"#utility.yul\":16318:16321   */\n      0x00\n        /* \"#utility.yul\":16339:16406   */\n      tag_458\n        /* \"#utility.yul\":16403:16405   */\n      0x2f\n        /* \"#utility.yul\":16398:16401   */\n      dup4\n        /* \"#utility.yul\":16339:16406   */\n      tag_259\n      jump\t// in\n    tag_458:\n        /* \"#utility.yul\":16332:16406   */\n      swap2\n      pop\n        /* \"#utility.yul\":16415:16508   */\n      tag_459\n        /* \"#utility.yul\":16504:16507   */\n      dup3\n        /* \"#utility.yul\":16415:16508   */\n      tag_285\n      jump\t// in\n    tag_459:\n        /* \"#utility.yul\":16533:16535   */\n      0x40\n        /* \"#utility.yul\":16528:16531   */\n      dup3\n        /* \"#utility.yul\":16524:16536   */\n      add\n        /* \"#utility.yul\":16517:16536   */\n      swap1\n      pop\n        /* \"#utility.yul\":16176:16542   */\n      swap2\n      swap1\n      pop\n      jump\t// out\n        /* \"#utility.yul\":16548:16967   */\n    tag_192:\n        /* \"#utility.yul\":16714:16718   */\n      0x00\n        /* \"#utility.yul\":16752:16754   */\n      0x20\n        /* \"#utility.yul\":16741:16750   */\n      dup3\n        /* \"#utility.yul\":16737:16755   */\n      add\n        /* \"#utility.yul\":16729:16755   */\n      swap1\n      pop\n        /* \"#utility.yul\":16801:16810   */\n      dup2\n        /* \"#utility.yul\":16795:16799   */\n      dup2\n        /* \"#utility.yul\":16791:16811   */\n      sub\n        /* \"#utility.yul\":16787:16788   */\n      0x00\n        /* \"#utility.yul\":16776:16785   */\n      dup4\n        /* \"#utility.yul\":16772:16789   */\n      add\n        /* \"#utility.yul\":16765:16812   */\n      mstore\n        /* \"#utility.yul\":16829:16960   */\n      tag_461\n        /* \"#utility.yul\":16955:16959   */\n      dup2\n        /* \"#utility.yul\":16829:16960   */\n      tag_286\n      jump\t// in\n    tag_461:\n        /* \"#utility.yul\":16821:16960   */\n      swap1\n      pop\n        /* \"#utility.yul\":16548:16967   */\n      swap2\n      swap1\n      pop\n      jump\t// out\n        /* \"#utility.yul\":16973:17207   */\n    tag_287:\n        /* \"#utility.yul\":17113:17147   */\n      0x596f752073686f756c6420636f6e74726962757465206d6f7265207468616e20\n        /* \"#utility.yul\":17109:17110   */\n      0x00\n        /* \"#utility.yul\":17101:17107   */\n      dup3\n        /* \"#utility.yul\":17097:17111   */\n      add\n        /* \"#utility.yul\":17090:17148   */\n      mstore\n        /* \"#utility.yul\":17182:17199   */\n      0x6d696e696d756d20616d6f756e742e0000000000000000000000000000000000\n        /* \"#utility.yul\":17177:17179   */\n      0x20\n        /* \"#utility.yul\":17169:17175   */\n      dup3\n        /* \"#utility.yul\":17165:17180   */\n      add\n        /* \"#utility.yul\":17158:17200   */\n      mstore\n        /* \"#utility.yul\":16973:17207   */\n      pop\n      jump\t// out\n        /* \"#utility.yul\":17213:17579   */\n    tag_288:\n        /* \"#utility.yul\":17355:17358   */\n      0x00\n        /* \"#utility.yul\":17376:17443   */\n      tag_464\n        /* \"#utility.yul\":17440:17442   */\n      0x2f\n        /* \"#utility.yul\":17435:17438   */\n      dup4\n        /* \"#utility.yul\":17376:17443   */\n      tag_259\n      jump\t// in\n    tag_464:\n        /* \"#utility.yul\":17369:17443   */\n      swap2\n      pop\n        /* \"#utility.yul\":17452:17545   */\n      tag_465\n        /* \"#utility.yul\":17541:17544   */\n      dup3\n        /* \"#utility.yul\":17452:17545   */\n      tag_287\n      jump\t// in\n    tag_465:\n        /* \"#utility.yul\":17570:17572   */\n      0x40\n        /* \"#utility.yul\":17565:17568   */\n      dup3\n        /* \"#utility.yul\":17561:17573   */\n      add\n        /* \"#utility.yul\":17554:17573   */\n      swap1\n      pop\n        /* \"#utility.yul\":17213:17579   */\n      swap2\n      swap1\n      pop\n      jump\t// out\n        /* \"#utility.yul\":17585:18004   */\n    tag_215:\n        /* \"#utility.yul\":17751:17755   */\n      0x00\n        /* \"#utility.yul\":17789:17791   */\n      0x20\n        /* \"#utility.yul\":17778:17787   */\n      dup3\n        /* \"#utility.yul\":17774:17792   */\n      add\n        /* \"#utility.yul\":17766:17792   */\n      swap1\n      pop\n        /* \"#utility.yul\":17838:17847   */\n      dup2\n        /* \"#utility.yul\":17832:17836   */\n      dup2\n        /* \"#utility.yul\":17828:17848   */\n      sub\n        /* \"#utility.yul\":17824:17825   */\n      0x00\n        /* \"#utility.yul\":17813:17822   */\n      dup4\n        /* \"#utility.yul\":17809:17826   */\n      add\n        /* \"#utility.yul\":17802:17849   */\n      mstore\n        /* \"#utility.yul\":17866:17997   */\n      tag_467\n        /* \"#utility.yul\":17992:17996   */\n      dup2\n        /* \"#utility.yul\":17866:17997   */\n      tag_288\n      jump\t// in\n    tag_467:\n        /* \"#utility.yul\":17858:17997   */\n      swap1\n      pop\n        /* \"#utility.yul\":17585:18004   */\n      swap2\n      swap1\n      pop\n      jump\t// out\n        /* \"#utility.yul\":18010:18242   */\n    tag_289:\n        /* \"#utility.yul\":18150:18184   */\n      0x596f752061726520616c726561647920636f6e747269627574656420746f2074\n        /* \"#utility.yul\":18146:18147   */\n      0x00\n        /* \"#utility.yul\":18138:18144   */\n      dup3\n        /* \"#utility.yul\":18134:18148   */\n      add\n        /* \"#utility.yul\":18127:18185   */\n      mstore\n        /* \"#utility.yul\":18219:18234   */\n      0x6869732063616d7061696e672e00000000000000000000000000000000000000\n        /* \"#utility.yul\":18214:18216   */\n      0x20\n        /* \"#utility.yul\":18206:18212   */\n      dup3\n        /* \"#utility.yul\":18202:18217   */\n      add\n        /* \"#utility.yul\":18195:18235   */\n      mstore\n        /* \"#utility.yul\":18010:18242   */\n      pop\n      jump\t// out\n        /* \"#utility.yul\":18248:18614   */\n    tag_290:\n        /* \"#utility.yul\":18390:18393   */\n      0x00\n        /* \"#utility.yul\":18411:18478   */\n      tag_470\n        /* \"#utility.yul\":18475:18477   */\n      0x2d\n        /* \"#utility.yul\":18470:18473   */\n      dup4\n        /* \"#utility.yul\":18411:18478   */\n      tag_259\n      jump\t// in\n    tag_470:\n        /* \"#utility.yul\":18404:18478   */\n      swap2\n      pop\n        /* \"#utility.yul\":18487:18580   */\n      tag_471\n        /* \"#utility.yul\":18576:18579   */\n      dup3\n        /* \"#utility.yul\":18487:18580   */\n      tag_289\n      jump\t// in\n    tag_471:\n        /* \"#utility.yul\":18605:18607   */\n      0x40\n        /* \"#utility.yul\":18600:18603   */\n      dup3\n        /* \"#utility.yul\":18596:18608   */\n      add\n        /* \"#utility.yul\":18589:18608   */\n      swap1\n      pop\n        /* \"#utility.yul\":18248:18614   */\n      swap2\n      swap1\n      pop\n      jump\t// out\n        /* \"#utility.yul\":18620:19039   */\n    tag_218:\n        /* \"#utility.yul\":18786:18790   */\n      0x00\n        /* \"#utility.yul\":18824:18826   */\n      0x20\n        /* \"#utility.yul\":18813:18822   */\n      dup3\n        /* \"#utility.yul\":18809:18827   */\n      add\n        /* \"#utility.yul\":18801:18827   */\n      swap1\n      pop\n        /* \"#utility.yul\":18873:18882   */\n      dup2\n        /* \"#utility.yul\":18867:18871   */\n      dup2\n        /* \"#utility.yul\":18863:18883   */\n      sub\n        /* \"#utility.yul\":18859:18860   */\n      0x00\n        /* \"#utility.yul\":18848:18857   */\n      dup4\n        /* \"#utility.yul\":18844:18861   */\n      add\n        /* \"#utility.yul\":18837:18884   */\n      mstore\n        /* \"#utility.yul\":18901:19032   */\n      tag_473\n        /* \"#utility.yul\":19027:19031   */\n      dup2\n        /* \"#utility.yul\":18901:19032   */\n      tag_290\n      jump\t// in\n    tag_473:\n        /* \"#utility.yul\":18893:19032   */\n      swap1\n      pop\n        /* \"#utility.yul\":18620:19039   */\n      swap2\n      swap1\n      pop\n      jump\t// out\n        /* \"#utility.yul\":19045:19336   */\n    tag_291:\n        /* \"#utility.yul\":19185:19219   */\n      0x596f752073686f756c64206265206120636f6e7472696275746f72206f662074\n        /* \"#utility.yul\":19181:19182   */\n      0x00\n        /* \"#utility.yul\":19173:19179   */\n      dup3\n        /* \"#utility.yul\":19169:19183   */\n      add\n        /* \"#utility.yul\":19162:19220   */\n      mstore\n        /* \"#utility.yul\":19254:19288   */\n      0x6869732063616d706169676e20746f20766f746520666f722061207265717565\n        /* \"#utility.yul\":19249:19251   */\n      0x20\n        /* \"#utility.yul\":19241:19247   */\n      dup3\n        /* \"#utility.yul\":19237:19252   */\n      add\n        /* \"#utility.yul\":19230:19289   */\n      mstore\n        /* \"#utility.yul\":19323:19328   */\n      0x73742e0000000000000000000000000000000000000000000000000000000000\n        /* \"#utility.yul\":19318:19320   */\n      0x40\n        /* \"#utility.yul\":19310:19316   */\n      dup3\n        /* \"#utility.yul\":19306:19321   */\n      add\n        /* \"#utility.yul\":19299:19329   */\n      mstore\n        /* \"#utility.yul\":19045:19336   */\n      pop\n      jump\t// out\n        /* \"#utility.yul\":19342:19708   */\n    tag_292:\n        /* \"#utility.yul\":19484:19487   */\n      0x00\n        /* \"#utility.yul\":19505:19572   */\n      tag_476\n        /* \"#utility.yul\":19569:19571   */\n      0x43\n        /* \"#utility.yul\":19564:19567   */\n      dup4\n        /* \"#utility.yul\":19505:19572   */\n      tag_259\n      jump\t// in\n    tag_476:\n        /* \"#utility.yul\":19498:19572   */\n      swap2\n      pop\n        /* \"#utility.yul\":19581:19674   */\n      tag_477\n        /* \"#utility.yul\":19670:19673   */\n      dup3\n        /* \"#utility.yul\":19581:19674   */\n      tag_291\n      jump\t// in\n    tag_477:\n        /* \"#utility.yul\":19699:19701   */\n      0x60\n        /* \"#utility.yul\":19694:19697   */\n      dup3\n        /* \"#utility.yul\":19690:19702   */\n      add\n        /* \"#utility.yul\":19683:19702   */\n      swap1\n      pop\n        /* \"#utility.yul\":19342:19708   */\n      swap2\n      swap1\n      pop\n      jump\t// out\n        /* \"#utility.yul\":19714:20133   */\n    tag_224:\n        /* \"#utility.yul\":19880:19884   */\n      0x00\n        /* \"#utility.yul\":19918:19920   */\n      0x20\n        /* \"#utility.yul\":19907:19916   */\n      dup3\n        /* \"#utility.yul\":19903:19921   */\n      add\n        /* \"#utility.yul\":19895:19921   */\n      swap1\n      pop\n        /* \"#utility.yul\":19967:19976   */\n      dup2\n        /* \"#utility.yul\":19961:19965   */\n      dup2\n        /* \"#utility.yul\":19957:19977   */\n      sub\n        /* \"#utility.yul\":19953:19954   */\n      0x00\n        /* \"#utility.yul\":19942:19951   */\n      dup4\n        /* \"#utility.yul\":19938:19955   */\n      add\n        /* \"#utility.yul\":19931:19978   */\n      mstore\n        /* \"#utility.yul\":19995:20126   */\n      tag_479\n        /* \"#utility.yul\":20121:20125   */\n      dup2\n        /* \"#utility.yul\":19995:20126   */\n      tag_292\n      jump\t// in\n    tag_479:\n        /* \"#utility.yul\":19987:20126   */\n      swap1\n      pop\n        /* \"#utility.yul\":19714:20133   */\n      swap2\n      swap1\n      pop\n      jump\t// out\n        /* \"#utility.yul\":20139:20312   */\n    tag_293:\n        /* \"#utility.yul\":20279:20304   */\n      0x596f752063616e20766f7465206f6e6c79206f6e63652e000000000000000000\n        /* \"#utility.yul\":20275:20276   */\n      0x00\n        /* \"#utility.yul\":20267:20273   */\n      dup3\n        /* \"#utility.yul\":20263:20277   */\n      add\n        /* \"#utility.yul\":20256:20305   */\n      mstore\n        /* \"#utility.yul\":20139:20312   */\n      pop\n      jump\t// out\n        /* \"#utility.yul\":20318:20684   */\n    tag_294:\n        /* \"#utility.yul\":20460:20463   */\n      0x00\n        /* \"#utility.yul\":20481:20548   */\n      tag_482\n        /* \"#utility.yul\":20545:20547   */\n      0x17\n        /* \"#utility.yul\":20540:20543   */\n      dup4\n        /* \"#utility.yul\":20481:20548   */\n      tag_259\n      jump\t// in\n    tag_482:\n        /* \"#utility.yul\":20474:20548   */\n      swap2\n      pop\n        /* \"#utility.yul\":20557:20650   */\n      tag_483\n        /* \"#utility.yul\":20646:20649   */\n      dup3\n        /* \"#utility.yul\":20557:20650   */\n      tag_293\n      jump\t// in\n    tag_483:\n        /* \"#utility.yul\":20675:20677   */\n      0x20\n        /* \"#utility.yul\":20670:20673   */\n      dup3\n        /* \"#utility.yul\":20666:20678   */\n      add\n        /* \"#utility.yul\":20659:20678   */\n      swap1\n      pop\n        /* \"#utility.yul\":20318:20684   */\n      swap2\n      swap1\n      pop\n      jump\t// out\n        /* \"#utility.yul\":20690:21109   */\n    tag_227:\n        /* \"#utility.yul\":20856:20860   */\n      0x00\n        /* \"#utility.yul\":20894:20896   */\n      0x20\n        /* \"#utility.yul\":20883:20892   */\n      dup3\n        /* \"#utility.yul\":20879:20897   */\n      add\n        /* \"#utility.yul\":20871:20897   */\n      swap1\n      pop\n        /* \"#utility.yul\":20943:20952   */\n      dup2\n        /* \"#utility.yul\":20937:20941   */\n      dup2\n        /* \"#utility.yul\":20933:20953   */\n      sub\n        /* \"#utility.yul\":20929:20930   */\n      0x00\n        /* \"#utility.yul\":20918:20927   */\n      dup4\n        /* \"#utility.yul\":20914:20931   */\n      add\n        /* \"#utility.yul\":20907:20954   */\n      mstore\n        /* \"#utility.yul\":20971:21102   */\n      tag_485\n        /* \"#utility.yul\":21097:21101   */\n      dup2\n        /* \"#utility.yul\":20971:21102   */\n      tag_294\n      jump\t// in\n    tag_485:\n        /* \"#utility.yul\":20963:21102   */\n      swap1\n      pop\n        /* \"#utility.yul\":20690:21109   */\n      swap2\n      swap1\n      pop\n      jump\t// out\n\n    auxdata: 0xa2646970667358221220ef134f22f383e12edb7c4f28dea97c5bdbf5b3fdc5e777c9b06a745d5446b59f64736f6c63430008090033\n}\n","bytecode":{"linkReferences":{},"object":"60806040523480156200001157600080fd5b5060405162002723380380620027238339818101604052810190620000379190620003c9565b846000806101000a81548173ffffffffffffffffffffffffffffffffffffffff021916908373ffffffffffffffffffffffffffffffffffffffff16021790555085600581905550836001908051906020019062000096929190620000dc565b508260029080519060200190620000af929190620000dc565b50806004819055508160039080519060200190620000cf929190620000dc565b5050505050505062000527565b828054620000ea90620004f1565b90600052602060002090601f0160209004810192826200010e57600085556200015a565b82601f106200012957805160ff19168380011785556200015a565b828001600101855582156200015a579182015b82811115620001595782518255916020019190600101906200013c565b5b5090506200016991906200016d565b5090565b5b80821115620001885760008160009055506001016200016e565b5090565b6000604051905090565b600080fd5b600080fd5b6000819050919050565b620001b581620001a0565b8114620001c157600080fd5b50565b600081519050620001d581620001aa565b92915050565b600073ffffffffffffffffffffffffffffffffffffffff82169050919050565b60006200020882620001db565b9050919050565b6200021a81620001fb565b81146200022657600080fd5b50565b6000815190506200023a816200020f565b92915050565b600080fd5b600080fd5b6000601f19601f8301169050919050565b7f4e487b7100000000000000000000000000000000000000000000000000000000600052604160045260246000fd5b62000295826200024a565b810181811067ffffffffffffffff82111715620002b757620002b66200025b565b5b80604052505050565b6000620002cc6200018c565b9050620002da82826200028a565b919050565b600067ffffffffffffffff821115620002fd57620002fc6200025b565b5b62000308826200024a565b9050602081019050919050565b60005b838110156200033557808201518184015260208101905062000318565b8381111562000345576000848401525b50505050565b6000620003626200035c84620002df565b620002c0565b90508281526020810184848401111562000381576200038062000245565b5b6200038e84828562000315565b509392505050565b600082601f830112620003ae57620003ad62000240565b5b8151620003c08482602086016200034b565b91505092915050565b60008060008060008060c08789031215620003e957620003e862000196565b5b6000620003f989828a01620001c4565b96505060206200040c89828a0162000229565b955050604087015167ffffffffffffffff81111562000430576200042f6200019b565b5b6200043e89828a0162000396565b945050606087015167ffffffffffffffff8111156200046257620004616200019b565b5b6200047089828a0162000396565b935050608087015167ffffffffffffffff8111156200049457620004936200019b565b5b620004a289828a0162000396565b92505060a0620004b589828a01620001c4565b9150509295509295509295565b7f4e487b7100000000000000000000000000000000000000000000000000000000600052602260045260246000fd5b600060028204905060018216806200050a57607f821691505b60208210811415620005215762000520620004c2565b5b50919050565b6121ec80620005376000396000f3fe60806040526004361061012a5760003560e01c80638a9cfd55116100ab578063d3087b571161006f578063d3087b57146103f7578063d7bb99ba14610422578063d7d1bbdb1461042c578063e9a21bcd14610455578063eb7b13121461047e578063ecd1eecf146104a95761012a565b80638a9cfd5514610322578063937e09b11461034b5780639a33e300146103765780639fb42b1f146103a1578063b90497e0146103cc5761012a565b8063481c6a75116100f2578063481c6a75146102105780634d80e7091461023b578063647c75e21461027857806370035047146102b557806381d12c58146102e05761012a565b8063034410061461012f578063244c3c2c146101585780632a16cca4146101625780632c5cac631461019f5780634051ddac146101dc575b600080fd5b34801561013b57600080fd5b5061015660048036038101906101519190611625565b6104d4565b005b6101606106fd565b005b34801561016e57600080fd5b50610189600480360381019061018491906116b0565b610850565b604051610196919061170b565b60405180910390f35b3480156101ab57600080fd5b506101c660048036038101906101c19190611726565b6108c0565b6040516101d39190611762565b60405180910390f35b3480156101e857600080fd5b506101f16108d8565b6040516102079a99989796959493929190611825565b60405180910390f35b34801561021c57600080fd5b50610225610ae4565b60405161023291906118d6565b60405180910390f35b34801561024757600080fd5b50610262600480360381019061025d9190611625565b610b08565b60405161026f9190611912565b60405180910390f35b34801561028457600080fd5b5061029f600480360381019061029a9190611726565b610b47565b6040516102ac919061170b565b60405180910390f35b3480156102c157600080fd5b506102ca610b67565b6040516102d79190611762565b60405180910390f35b3480156102ec57600080fd5b5061030760048036038101906103029190611625565b610b6d565b6040516103199695949392919061192d565b60405180910390f35b34801561032e57600080fd5b5061034960048036038101906103449190611afd565b610ce6565b005b34801561035757600080fd5b50610360610ee5565b60405161036d9190611762565b60405180910390f35b34801561038257600080fd5b5061038b610eeb565b6040516103989190611b6c565b60405180910390f35b3480156103ad57600080fd5b506103b6610f79565b6040516103c39190611762565b60405180910390f35b3480156103d857600080fd5b506103e1610f7f565b6040516103ee9190611b6c565b60405180910390f35b34801561040357600080fd5b5061040c61100d565b6040516104199190611b6c565b60405180910390f35b61042a61109b565b005b34801561043857600080fd5b50610453600480360381019061044e9190611625565b61128b565b005b34801561046157600080fd5b5061047c60048036038101906104779190611625565b611435565b005b34801561048a57600080fd5b5061049361152c565b6040516104a09190611762565b60405180910390f35b3480156104b557600080fd5b506104be611532565b6040516104cb9190611762565b60405180910390f35b60008054906101000a900473ffffffffffffffffffffffffffffffffffffffff1673ffffffffffffffffffffffffffffffffffffffff163373ffffffffffffffffffffffffffffffffffffffff1614610562576040517f08c379a000000000000000000000000000000000000000000000000000000000815260040161055990611c00565b60405180910390fd5b6000600c600083815260200190815260200160002090506002600a546105889190611c7e565b8160040154116105cd576040517f08c379a00000000000000000000000000000000000000000000000000000000081526004016105c490611cfb565b60405180910390fd5b8060030160149054906101000a900460ff161561061f576040517f08c379a000000000000000000000000000000000000000000000000000000000815260040161061690611d8d565b60405180910390fd5b8060030160009054906101000a900473ffffffffffffffffffffffffffffffffffffffff1673ffffffffffffffffffffffffffffffffffffffff166108fc82600201549081150290604051600060405180830381858888f1935050505015801561068d573d6000803e3d6000fd5b5060018160030160146101000a81548160ff0219169083151502179055506040518060400160405280600981526020017f66696e616c697a656400000000000000000000000000000000000000000000008152508160010190805190602001906106f8929190611538565b505050565b60005b600880549050811015610822576008818154811061072157610720611dad565b5b9060005260206000200160009054906101000a900473ffffffffffffffffffffffffffffffffffffffff1673ffffffffffffffffffffffffffffffffffffffff166108fc600960006008858154811061077d5761077c611dad565b5b9060005260206000200160009054906101000a900473ffffffffffffffffffffffffffffffffffffffff1673ffffffffffffffffffffffffffffffffffffffff1673ffffffffffffffffffffffffffffffffffffffff168152602001908152602001600020549081150290604051600060405180830381858888f1935050505015801561080e573d6000803e3d6000fd5b50808061081a90611ddc565b915050610700565b507335b2e2b694a6a4c28f6631a905fb87eca330469d73ffffffffffffffffffffffffffffffffffffffff16ff5b600080600c600084815260200190815260200160002090508060050160008573ffffffffffffffffffffffffffffffffffffffff1673ffffffffffffffffffffffffffffffffffffffff16815260200190815260200160002060009054906101000a900460ff1691505092915050565b60096020528060005260406000206000915090505481565b600080600080600060608060006060600060055447600b54600a5460008054906101000a900473ffffffffffffffffffffffffffffffffffffffff1660016002600454600360065484805461092c90611e54565b80601f016020809104026020016040519081016040528092919081815260200182805461095890611e54565b80156109a55780601f1061097a576101008083540402835291602001916109a5565b820191906000526020600020905b81548152906001019060200180831161098857829003601f168201915b505050505094508380546109b890611e54565b80601f01602080910402602001604051908101604052809291908181526020018280546109e490611e54565b8015610a315780601f10610a0657610100808354040283529160200191610a31565b820191906000526020600020905b815481529060010190602001808311610a1457829003601f168201915b50505050509350818054610a4490611e54565b80601f0160208091040260200160405190810160405280929190818152602001828054610a7090611e54565b8015610abd5780601f10610a9257610100808354040283529160200191610abd565b820191906000526020600020905b815481529060010190602001808311610aa057829003601f168201915b50505050509150995099509950995099509950995099509950995090919293949596979899565b60008054906101000a900473ffffffffffffffffffffffffffffffffffffffff1681565b60088181548110610b1857600080fd5b906000526020600020016000915054906101000a900473ffffffffffffffffffffffffffffffffffffffff1681565b60076020528060005260406000206000915054906101000a900460ff1681565b60045481565b600c602052806000526040600020600091509050806000018054610b9090611e54565b80601f0160208091040260200160405190810160405280929190818152602001828054610bbc90611e54565b8015610c095780601f10610bde57610100808354040283529160200191610c09565b820191906000526020600020905b815481529060010190602001808311610bec57829003601f168201915b505050505090806001018054610c1e90611e54565b80601f0160208091040260200160405190810160405280929190818152602001828054610c4a90611e54565b8015610c975780601f10610c6c57610100808354040283529160200191610c97565b820191906000526020600020905b815481529060010190602001808311610c7a57829003601f168201915b5050505050908060020154908060030160009054906101000a900473ffffffffffffffffffffffffffffffffffffffff16908060030160149054906101000a900460ff16908060040154905086565b60008054906101000a900473ffffffffffffffffffffffffffffffffffffffff1673ffffffffffffffffffffffffffffffffffffffff163373ffffffffffffffffffffffffffffffffffffffff1614610d74576040517f08c379a0000000000000000000000000000000000000000000000000000000008152600401610d6b90611c00565b60405180910390fd5b4782600654610d839190611e86565b1115610dc4576040517f08c379a0000000000000000000000000000000000000000000000000000000008152600401610dbb90611f4e565b60405180910390fd5b81600654610dd29190611e86565b6006819055506000600c6000600b6000815480929190610df190611ddc565b919050558152602001908152602001600020905083816000019080519060200190610e1d929190611538565b50828160020181905550818160030160006101000a81548173ffffffffffffffffffffffffffffffffffffffff021916908373ffffffffffffffffffffffffffffffffffffffff16021790555060008160030160146101000a81548160ff021916908315150217905550600081600401819055506040518060400160405280600781526020017f70656e64696e6700000000000000000000000000000000000000000000000000815250816001019080519060200190610ede929190611538565b5050505050565b60055481565b60018054610ef890611e54565b80601f0160208091040260200160405190810160405280929190818152602001828054610f2490611e54565b8015610f715780601f10610f4657610100808354040283529160200191610f71565b820191906000526020600020905b815481529060010190602001808311610f5457829003601f168201915b505050505081565b600b5481565b60038054610f8c90611e54565b80601f0160208091040260200160405190810160405280929190818152602001828054610fb890611e54565b80156110055780601f10610fda57610100808354040283529160200191611005565b820191906000526020600020905b815481529060010190602001808311610fe857829003601f168201915b505050505081565b6002805461101a90611e54565b80601f016020809104026020016040519081016040528092919081815260200182805461104690611e54565b80156110935780601f1061106857610100808354040283529160200191611093565b820191906000526020600020905b81548152906001019060200180831161107657829003601f168201915b505050505081565b60055434116110df576040517f08c379a00000000000000000000000000000000000000000000000000000000081526004016110d690611fe0565b60405180910390fd5b60001515600760003373ffffffffffffffffffffffffffffffffffffffff1673ffffffffffffffffffffffffffffffffffffffff16815260200190815260200160002060009054906101000a900460ff16151514611172576040517f08c379a000000000000000000000000000000000000000000000000000000000815260040161116990612072565b60405180910390fd5b6001600760003373ffffffffffffffffffffffffffffffffffffffff1673ffffffffffffffffffffffffffffffffffffffff16815260200190815260200160002060006101000a81548160ff021916908315150217905550600a60008154809291906111dd90611ddc565b919050555034600960003373ffffffffffffffffffffffffffffffffffffffff1673ffffffffffffffffffffffffffffffffffffffff168152602001908152602001600020819055506008339080600181540180825580915050600190039060005260206000200160009091909190916101000a81548173ffffffffffffffffffffffffffffffffffffffff021916908373ffffffffffffffffffffffffffffffffffffffff160217905550565b6000600c60008381526020019081526020016000209050600760003373ffffffffffffffffffffffffffffffffffffffff1673ffffffffffffffffffffffffffffffffffffffff16815260200190815260200160002060009054906101000a900460ff1661132e576040517f08c379a00000000000000000000000000000000000000000000000000000000081526004016113259061212a565b60405180910390fd5b8060050160003373ffffffffffffffffffffffffffffffffffffffff1673ffffffffffffffffffffffffffffffffffffffff16815260200190815260200160002060009054906101000a900460ff16156113bd576040517f08c379a00000000000000000000000000000000000000000000000000000000081526004016113b490612196565b60405180910390fd5b60018160050160003373ffffffffffffffffffffffffffffffffffffffff1673ffffffffffffffffffffffffffffffffffffffff16815260200190815260200160002060006101000a81548160ff02191690831515021790555080600401600081548092919061142c90611ddc565b91905055505050565b60008054906101000a900473ffffffffffffffffffffffffffffffffffffffff1673ffffffffffffffffffffffffffffffffffffffff163373ffffffffffffffffffffffffffffffffffffffff16146114c3576040517f08c379a00000000000000000000000000000000000000000000000000000000081526004016114ba90611c00565b60405180910390fd5b6000600c600083815260200190815260200160002090506040518060400160405280600781526020017f64656c6574656400000000000000000000000000000000000000000000000000815250816001019080519060200190611527929190611538565b505050565b600a5481565b60065481565b82805461154490611e54565b90600052602060002090601f01602090048101928261156657600085556115ad565b82601f1061157f57805160ff19168380011785556115ad565b828001600101855582156115ad579182015b828111156115ac578251825591602001919060010190611591565b5b5090506115ba91906115be565b5090565b5b808211156115d75760008160009055506001016115bf565b5090565b6000604051905090565b600080fd5b600080fd5b6000819050919050565b611602816115ef565b811461160d57600080fd5b50565b60008135905061161f816115f9565b92915050565b60006020828403121561163b5761163a6115e5565b5b600061164984828501611610565b91505092915050565b600073ffffffffffffffffffffffffffffffffffffffff82169050919050565b600061167d82611652565b9050919050565b61168d81611672565b811461169857600080fd5b50565b6000813590506116aa81611684565b92915050565b600080604083850312156116c7576116c66115e5565b5b60006116d58582860161169b565b92505060206116e685828601611610565b9150509250929050565b60008115159050919050565b611705816116f0565b82525050565b600060208201905061172060008301846116fc565b92915050565b60006020828403121561173c5761173b6115e5565b5b600061174a8482850161169b565b91505092915050565b61175c816115ef565b82525050565b60006020820190506117776000830184611753565b92915050565b61178681611672565b82525050565b600081519050919050565b600082825260208201905092915050565b60005b838110156117c65780820151818401526020810190506117ab565b838111156117d5576000848401525b50505050565b6000601f19601f8301169050919050565b60006117f78261178c565b6118018185611797565b93506118118185602086016117a8565b61181a816117db565b840191505092915050565b60006101408201905061183b600083018d611753565b611848602083018c611753565b611855604083018b611753565b611862606083018a611753565b61186f608083018961177d565b81810360a083015261188181886117ec565b905081810360c083015261189581876117ec565b90506118a460e0830186611753565b8181036101008301526118b781856117ec565b90506118c7610120830184611753565b9b9a5050505050505050505050565b60006020820190506118eb600083018461177d565b92915050565b60006118fc82611652565b9050919050565b61190c816118f1565b82525050565b60006020820190506119276000830184611903565b92915050565b600060c082019050818103600083015261194781896117ec565b9050818103602083015261195b81886117ec565b905061196a6040830187611753565b6119776060830186611903565b61198460808301856116fc565b61199160a0830184611753565b979650505050505050565b600080fd5b600080fd5b7f4e487b7100000000000000000000000000000000000000000000000000000000600052604160045260246000fd5b6119de826117db565b810181811067ffffffffffffffff821117156119fd576119fc6119a6565b5b80604052505050565b6000611a106115db565b9050611a1c82826119d5565b919050565b600067ffffffffffffffff821115611a3c57611a3b6119a6565b5b611a45826117db565b9050602081019050919050565b82818337600083830152505050565b6000611a74611a6f84611a21565b611a06565b905082815260208101848484011115611a9057611a8f6119a1565b5b611a9b848285611a52565b509392505050565b600082601f830112611ab857611ab761199c565b5b8135611ac8848260208601611a61565b91505092915050565b611ada816118f1565b8114611ae557600080fd5b50565b600081359050611af781611ad1565b92915050565b600080600060608486031215611b1657611b156115e5565b5b600084013567ffffffffffffffff811115611b3457611b336115ea565b5b611b4086828701611aa3565b9350506020611b5186828701611610565b9250506040611b6286828701611ae8565b9150509250925092565b60006020820190508181036000830152611b8681846117ec565b905092915050565b7f4f6e6c79206d616e616765722063616e2074616b65207468697320616374696f60008201527f6e2e000000000000000000000000000000000000000000000000000000000000602082015250565b6000611bea602283611797565b9150611bf582611b8e565b604082019050919050565b60006020820190508181036000830152611c1981611bdd565b9050919050565b7f4e487b7100000000000000000000000000000000000000000000000000000000600052601260045260246000fd5b7f4e487b7100000000000000000000000000000000000000000000000000000000600052601160045260246000fd5b6000611c89826115ef565b9150611c94836115ef565b925082611ca457611ca3611c20565b5b828204905092915050565b7f4e6f7420656e6f75676820617070726f76616c20726174696f2e000000000000600082015250565b6000611ce5601a83611797565b9150611cf082611caf565b602082019050919050565b60006020820190508181036000830152611d1481611cd8565b9050919050565b7f546865207265717565737420697320616c72656164792066696e616c697a656460008201527f2e00000000000000000000000000000000000000000000000000000000000000602082015250565b6000611d77602183611797565b9150611d8282611d1b565b604082019050919050565b60006020820190508181036000830152611da681611d6a565b9050919050565b7f4e487b7100000000000000000000000000000000000000000000000000000000600052603260045260246000fd5b6000611de7826115ef565b91507fffffffffffffffffffffffffffffffffffffffffffffffffffffffffffffffff821415611e1a57611e19611c4f565b5b600182019050919050565b7f4e487b7100000000000000000000000000000000000000000000000000000000600052602260045260246000fd5b60006002820490506001821680611e6c57607f821691505b60208210811415611e8057611e7f611e25565b5b50919050565b6000611e91826115ef565b9150611e9c836115ef565b9250827fffffffffffffffffffffffffffffffffffffffffffffffffffffffffffffffff03821115611ed157611ed0611c4f565b5b828201905092915050565b7f596f752063616e27742072657175657374206574686572206d6f72652074686160008201527f6e20796f75722062616c616e63652e0000000000000000000000000000000000602082015250565b6000611f38602f83611797565b9150611f4382611edc565b604082019050919050565b60006020820190508181036000830152611f6781611f2b565b9050919050565b7f596f752073686f756c6420636f6e74726962757465206d6f7265207468616e2060008201527f6d696e696d756d20616d6f756e742e0000000000000000000000000000000000602082015250565b6000611fca602f83611797565b9150611fd582611f6e565b604082019050919050565b60006020820190508181036000830152611ff981611fbd565b9050919050565b7f596f752061726520616c726561647920636f6e747269627574656420746f207460008201527f6869732063616d7061696e672e00000000000000000000000000000000000000602082015250565b600061205c602d83611797565b915061206782612000565b604082019050919050565b6000602082019050818103600083015261208b8161204f565b9050919050565b7f596f752073686f756c64206265206120636f6e7472696275746f72206f66207460008201527f6869732063616d706169676e20746f20766f746520666f72206120726571756560208201527f73742e0000000000000000000000000000000000000000000000000000000000604082015250565b6000612114604383611797565b915061211f82612092565b606082019050919050565b6000602082019050818103600083015261214381612107565b9050919050565b7f596f752063616e20766f7465206f6e6c79206f6e63652e000000000000000000600082015250565b6000612180601783611797565b915061218b8261214a565b602082019050919050565b600060208201905081810360008301526121af81612173565b905091905056fea2646970667358221220ef134f22f383e12edb7c4f28dea97c5bdbf5b3fdc5e777c9b06a745d5446b59f64736f6c63430008090033","opcodes":"PUSH1 0x80 PUSH1 0x40 MSTORE CALLVALUE DUP1 ISZERO PUSH3 0x11 JUMPI PUSH1 0x0 DUP1 REVERT JUMPDEST POP PUSH1 0x40 MLOAD PUSH3 0x2723 CODESIZE SUB DUP1 PUSH3 0x2723 DUP4 CODECOPY DUP2 DUP2 ADD PUSH1 0x40 MSTORE DUP2 ADD SWAP1 PUSH3 0x37 SWAP2 SWAP1 PUSH3 0x3C9 JUMP JUMPDEST DUP5 PUSH1 0x0 DUP1 PUSH2 0x100 EXP DUP2 SLOAD DUP2 PUSH20 0xFFFFFFFFFFFFFFFFFFFFFFFFFFFFFFFFFFFFFFFF MUL NOT AND SWAP1 DUP4 PUSH20 0xFFFFFFFFFFFFFFFFFFFFFFFFFFFFFFFFFFFFFFFF AND MUL OR SWAP1 SSTORE POP DUP6 PUSH1 0x5 DUP2 SWAP1 SSTORE POP DUP4 PUSH1 0x1 SWAP1 DUP1 MLOAD SWAP1 PUSH1 0x20 ADD SWAP1 PUSH3 0x96 SWAP3 SWAP2 SWAP1 PUSH3 0xDC JUMP JUMPDEST POP DUP3 PUSH1 0x2 SWAP1 DUP1 MLOAD SWAP1 PUSH1 0x20 ADD SWAP1 PUSH3 0xAF SWAP3 SWAP2 SWAP1 PUSH3 0xDC JUMP JUMPDEST POP DUP1 PUSH1 0x4 DUP2 SWAP1 SSTORE POP DUP2 PUSH1 0x3 SWAP1 DUP1 MLOAD SWAP1 PUSH1 0x20 ADD SWAP1 PUSH3 0xCF SWAP3 SWAP2 SWAP1 PUSH3 0xDC JUMP JUMPDEST POP POP POP POP POP POP POP PUSH3 0x527 JUMP JUMPDEST DUP3 DUP1 SLOAD PUSH3 0xEA SWAP1 PUSH3 0x4F1 JUMP JUMPDEST SWAP1 PUSH1 0x0 MSTORE PUSH1 0x20 PUSH1 0x0 KECCAK256 SWAP1 PUSH1 0x1F ADD PUSH1 0x20 SWAP1 DIV DUP2 ADD SWAP3 DUP3 PUSH3 0x10E JUMPI PUSH1 0x0 DUP6 SSTORE PUSH3 0x15A JUMP JUMPDEST DUP3 PUSH1 0x1F LT PUSH3 0x129 JUMPI DUP1 MLOAD PUSH1 0xFF NOT AND DUP4 DUP1 ADD OR DUP6 SSTORE PUSH3 0x15A JUMP JUMPDEST DUP3 DUP1 ADD PUSH1 0x1 ADD DUP6 SSTORE DUP3 ISZERO PUSH3 0x15A JUMPI SWAP2 DUP3 ADD JUMPDEST DUP3 DUP2 GT ISZERO PUSH3 0x159 JUMPI DUP3 MLOAD DUP3 SSTORE SWAP2 PUSH1 0x20 ADD SWAP2 SWAP1 PUSH1 0x1 ADD SWAP1 PUSH3 0x13C JUMP JUMPDEST JUMPDEST POP SWAP1 POP PUSH3 0x169 SWAP2 SWAP1 PUSH3 0x16D JUMP JUMPDEST POP SWAP1 JUMP JUMPDEST JUMPDEST DUP1 DUP3 GT ISZERO PUSH3 0x188 JUMPI PUSH1 0x0 DUP2 PUSH1 0x0 SWAP1 SSTORE POP PUSH1 0x1 ADD PUSH3 0x16E JUMP JUMPDEST POP SWAP1 JUMP JUMPDEST PUSH1 0x0 PUSH1 0x40 MLOAD SWAP1 POP SWAP1 JUMP JUMPDEST PUSH1 0x0 DUP1 REVERT JUMPDEST PUSH1 0x0 DUP1 REVERT JUMPDEST PUSH1 0x0 DUP2 SWAP1 POP SWAP2 SWAP1 POP JUMP JUMPDEST PUSH3 0x1B5 DUP2 PUSH3 0x1A0 JUMP JUMPDEST DUP2 EQ PUSH3 0x1C1 JUMPI PUSH1 0x0 DUP1 REVERT JUMPDEST POP JUMP JUMPDEST PUSH1 0x0 DUP2 MLOAD SWAP1 POP PUSH3 0x1D5 DUP2 PUSH3 0x1AA JUMP JUMPDEST SWAP3 SWAP2 POP POP JUMP JUMPDEST PUSH1 0x0 PUSH20 0xFFFFFFFFFFFFFFFFFFFFFFFFFFFFFFFFFFFFFFFF DUP3 AND SWAP1 POP SWAP2 SWAP1 POP JUMP JUMPDEST PUSH1 0x0 PUSH3 0x208 DUP3 PUSH3 0x1DB JUMP JUMPDEST SWAP1 POP SWAP2 SWAP1 POP JUMP JUMPDEST PUSH3 0x21A DUP2 PUSH3 0x1FB JUMP JUMPDEST DUP2 EQ PUSH3 0x226 JUMPI PUSH1 0x0 DUP1 REVERT JUMPDEST POP JUMP JUMPDEST PUSH1 0x0 DUP2 MLOAD SWAP1 POP PUSH3 0x23A DUP2 PUSH3 0x20F JUMP JUMPDEST SWAP3 SWAP2 POP POP JUMP JUMPDEST PUSH1 0x0 DUP1 REVERT JUMPDEST PUSH1 0x0 DUP1 REVERT JUMPDEST PUSH1 0x0 PUSH1 0x1F NOT PUSH1 0x1F DUP4 ADD AND SWAP1 POP SWAP2 SWAP1 POP JUMP JUMPDEST PUSH32 0x4E487B7100000000000000000000000000000000000000000000000000000000 PUSH1 0x0 MSTORE PUSH1 0x41 PUSH1 0x4 MSTORE PUSH1 0x24 PUSH1 0x0 REVERT JUMPDEST PUSH3 0x295 DUP3 PUSH3 0x24A JUMP JUMPDEST DUP2 ADD DUP2 DUP2 LT PUSH8 0xFFFFFFFFFFFFFFFF DUP3 GT OR ISZERO PUSH3 0x2B7 JUMPI PUSH3 0x2B6 PUSH3 0x25B JUMP JUMPDEST JUMPDEST DUP1 PUSH1 0x40 MSTORE POP POP POP JUMP JUMPDEST PUSH1 0x0 PUSH3 0x2CC PUSH3 0x18C JUMP JUMPDEST SWAP1 POP PUSH3 0x2DA DUP3 DUP3 PUSH3 0x28A JUMP JUMPDEST SWAP2 SWAP1 POP JUMP JUMPDEST PUSH1 0x0 PUSH8 0xFFFFFFFFFFFFFFFF DUP3 GT ISZERO PUSH3 0x2FD JUMPI PUSH3 0x2FC PUSH3 0x25B JUMP JUMPDEST JUMPDEST PUSH3 0x308 DUP3 PUSH3 0x24A JUMP JUMPDEST SWAP1 POP PUSH1 0x20 DUP2 ADD SWAP1 POP SWAP2 SWAP1 POP JUMP JUMPDEST PUSH1 0x0 JUMPDEST DUP4 DUP2 LT ISZERO PUSH3 0x335 JUMPI DUP1 DUP3 ADD MLOAD DUP2 DUP5 ADD MSTORE PUSH1 0x20 DUP2 ADD SWAP1 POP PUSH3 0x318 JUMP JUMPDEST DUP4 DUP2 GT ISZERO PUSH3 0x345 JUMPI PUSH1 0x0 DUP5 DUP5 ADD MSTORE JUMPDEST POP POP POP POP JUMP JUMPDEST PUSH1 0x0 PUSH3 0x362 PUSH3 0x35C DUP5 PUSH3 0x2DF JUMP JUMPDEST PUSH3 0x2C0 JUMP JUMPDEST SWAP1 POP DUP3 DUP2 MSTORE PUSH1 0x20 DUP2 ADD DUP5 DUP5 DUP5 ADD GT ISZERO PUSH3 0x381 JUMPI PUSH3 0x380 PUSH3 0x245 JUMP JUMPDEST JUMPDEST PUSH3 0x38E DUP5 DUP3 DUP6 PUSH3 0x315 JUMP JUMPDEST POP SWAP4 SWAP3 POP POP POP JUMP JUMPDEST PUSH1 0x0 DUP3 PUSH1 0x1F DUP4 ADD SLT PUSH3 0x3AE JUMPI PUSH3 0x3AD PUSH3 0x240 JUMP JUMPDEST JUMPDEST DUP2 MLOAD PUSH3 0x3C0 DUP5 DUP3 PUSH1 0x20 DUP7 ADD PUSH3 0x34B JUMP JUMPDEST SWAP2 POP POP SWAP3 SWAP2 POP POP JUMP JUMPDEST PUSH1 0x0 DUP1 PUSH1 0x0 DUP1 PUSH1 0x0 DUP1 PUSH1 0xC0 DUP8 DUP10 SUB SLT ISZERO PUSH3 0x3E9 JUMPI PUSH3 0x3E8 PUSH3 0x196 JUMP JUMPDEST JUMPDEST PUSH1 0x0 PUSH3 0x3F9 DUP10 DUP3 DUP11 ADD PUSH3 0x1C4 JUMP JUMPDEST SWAP7 POP POP PUSH1 0x20 PUSH3 0x40C DUP10 DUP3 DUP11 ADD PUSH3 0x229 JUMP JUMPDEST SWAP6 POP POP PUSH1 0x40 DUP8 ADD MLOAD PUSH8 0xFFFFFFFFFFFFFFFF DUP2 GT ISZERO PUSH3 0x430 JUMPI PUSH3 0x42F PUSH3 0x19B JUMP JUMPDEST JUMPDEST PUSH3 0x43E DUP10 DUP3 DUP11 ADD PUSH3 0x396 JUMP JUMPDEST SWAP5 POP POP PUSH1 0x60 DUP8 ADD MLOAD PUSH8 0xFFFFFFFFFFFFFFFF DUP2 GT ISZERO PUSH3 0x462 JUMPI PUSH3 0x461 PUSH3 0x19B JUMP JUMPDEST JUMPDEST PUSH3 0x470 DUP10 DUP3 DUP11 ADD PUSH3 0x396 JUMP JUMPDEST SWAP4 POP POP PUSH1 0x80 DUP8 ADD MLOAD PUSH8 0xFFFFFFFFFFFFFFFF DUP2 GT ISZERO PUSH3 0x494 JUMPI PUSH3 0x493 PUSH3 0x19B JUMP JUMPDEST JUMPDEST PUSH3 0x4A2 DUP10 DUP3 DUP11 ADD PUSH3 0x396 JUMP JUMPDEST SWAP3 POP POP PUSH1 0xA0 PUSH3 0x4B5 DUP10 DUP3 DUP11 ADD PUSH3 0x1C4 JUMP JUMPDEST SWAP2 POP POP SWAP3 SWAP6 POP SWAP3 SWAP6 POP SWAP3 SWAP6 JUMP JUMPDEST PUSH32 0x4E487B7100000000000000000000000000000000000000000000000000000000 PUSH1 0x0 MSTORE PUSH1 0x22 PUSH1 0x4 MSTORE PUSH1 0x24 PUSH1 0x0 REVERT JUMPDEST PUSH1 0x0 PUSH1 0x2 DUP3 DIV SWAP1 POP PUSH1 0x1 DUP3 AND DUP1 PUSH3 0x50A JUMPI PUSH1 0x7F DUP3 AND SWAP2 POP JUMPDEST PUSH1 0x20 DUP3 LT DUP2 EQ ISZERO PUSH3 0x521 JUMPI PUSH3 0x520 PUSH3 0x4C2 JUMP JUMPDEST JUMPDEST POP SWAP2 SWAP1 POP JUMP JUMPDEST PUSH2 0x21EC DUP1 PUSH3 0x537 PUSH1 0x0 CODECOPY PUSH1 0x0 RETURN INVALID PUSH1 0x80 PUSH1 0x40 MSTORE PUSH1 0x4 CALLDATASIZE LT PUSH2 0x12A JUMPI PUSH1 0x0 CALLDATALOAD PUSH1 0xE0 SHR DUP1 PUSH4 0x8A9CFD55 GT PUSH2 0xAB JUMPI DUP1 PUSH4 0xD3087B57 GT PUSH2 0x6F JUMPI DUP1 PUSH4 0xD3087B57 EQ PUSH2 0x3F7 JUMPI DUP1 PUSH4 0xD7BB99BA EQ PUSH2 0x422 JUMPI DUP1 PUSH4 0xD7D1BBDB EQ PUSH2 0x42C JUMPI DUP1 PUSH4 0xE9A21BCD EQ PUSH2 0x455 JUMPI DUP1 PUSH4 0xEB7B1312 EQ PUSH2 0x47E JUMPI DUP1 PUSH4 0xECD1EECF EQ PUSH2 0x4A9 JUMPI PUSH2 0x12A JUMP JUMPDEST DUP1 PUSH4 0x8A9CFD55 EQ PUSH2 0x322 JUMPI DUP1 PUSH4 0x937E09B1 EQ PUSH2 0x34B JUMPI DUP1 PUSH4 0x9A33E300 EQ PUSH2 0x376 JUMPI DUP1 PUSH4 0x9FB42B1F EQ PUSH2 0x3A1 JUMPI DUP1 PUSH4 0xB90497E0 EQ PUSH2 0x3CC JUMPI PUSH2 0x12A JUMP JUMPDEST DUP1 PUSH4 0x481C6A75 GT PUSH2 0xF2 JUMPI DUP1 PUSH4 0x481C6A75 EQ PUSH2 0x210 JUMPI DUP1 PUSH4 0x4D80E709 EQ PUSH2 0x23B JUMPI DUP1 PUSH4 0x647C75E2 EQ PUSH2 0x278 JUMPI DUP1 PUSH4 0x70035047 EQ PUSH2 0x2B5 JUMPI DUP1 PUSH4 0x81D12C58 EQ PUSH2 0x2E0 JUMPI PUSH2 0x12A JUMP JUMPDEST DUP1 PUSH4 0x3441006 EQ PUSH2 0x12F JUMPI DUP1 PUSH4 0x244C3C2C EQ PUSH2 0x158 JUMPI DUP1 PUSH4 0x2A16CCA4 EQ PUSH2 0x162 JUMPI DUP1 PUSH4 0x2C5CAC63 EQ PUSH2 0x19F JUMPI DUP1 PUSH4 0x4051DDAC EQ PUSH2 0x1DC JUMPI JUMPDEST PUSH1 0x0 DUP1 REVERT JUMPDEST CALLVALUE DUP1 ISZERO PUSH2 0x13B JUMPI PUSH1 0x0 DUP1 REVERT JUMPDEST POP PUSH2 0x156 PUSH1 0x4 DUP1 CALLDATASIZE SUB DUP2 ADD SWAP1 PUSH2 0x151 SWAP2 SWAP1 PUSH2 0x1625 JUMP JUMPDEST PUSH2 0x4D4 JUMP JUMPDEST STOP JUMPDEST PUSH2 0x160 PUSH2 0x6FD JUMP JUMPDEST STOP JUMPDEST CALLVALUE DUP1 ISZERO PUSH2 0x16E JUMPI PUSH1 0x0 DUP1 REVERT JUMPDEST POP PUSH2 0x189 PUSH1 0x4 DUP1 CALLDATASIZE SUB DUP2 ADD SWAP1 PUSH2 0x184 SWAP2 SWAP1 PUSH2 0x16B0 JUMP JUMPDEST PUSH2 0x850 JUMP JUMPDEST PUSH1 0x40 MLOAD PUSH2 0x196 SWAP2 SWAP1 PUSH2 0x170B JUMP JUMPDEST PUSH1 0x40 MLOAD DUP1 SWAP2 SUB SWAP1 RETURN JUMPDEST CALLVALUE DUP1 ISZERO PUSH2 0x1AB JUMPI PUSH1 0x0 DUP1 REVERT JUMPDEST POP PUSH2 0x1C6 PUSH1 0x4 DUP1 CALLDATASIZE SUB DUP2 ADD SWAP1 PUSH2 0x1C1 SWAP2 SWAP1 PUSH2 0x1726 JUMP JUMPDEST PUSH2 0x8C0 JUMP JUMPDEST PUSH1 0x40 MLOAD PUSH2 0x1D3 SWAP2 SWAP1 PUSH2 0x1762 JUMP JUMPDEST PUSH1 0x40 MLOAD DUP1 SWAP2 SUB SWAP1 RETURN JUMPDEST CALLVALUE DUP1 ISZERO PUSH2 0x1E8 JUMPI PUSH1 0x0 DUP1 REVERT JUMPDEST POP PUSH2 0x1F1 PUSH2 0x8D8 JUMP JUMPDEST PUSH1 0x40 MLOAD PUSH2 0x207 SWAP11 SWAP10 SWAP9 SWAP8 SWAP7 SWAP6 SWAP5 SWAP4 SWAP3 SWAP2 SWAP1 PUSH2 0x1825 JUMP JUMPDEST PUSH1 0x40 MLOAD DUP1 SWAP2 SUB SWAP1 RETURN JUMPDEST CALLVALUE DUP1 ISZERO PUSH2 0x21C JUMPI PUSH1 0x0 DUP1 REVERT JUMPDEST POP PUSH2 0x225 PUSH2 0xAE4 JUMP JUMPDEST PUSH1 0x40 MLOAD PUSH2 0x232 SWAP2 SWAP1 PUSH2 0x18D6 JUMP JUMPDEST PUSH1 0x40 MLOAD DUP1 SWAP2 SUB SWAP1 RETURN JUMPDEST CALLVALUE DUP1 ISZERO PUSH2 0x247 JUMPI PUSH1 0x0 DUP1 REVERT JUMPDEST POP PUSH2 0x262 PUSH1 0x4 DUP1 CALLDATASIZE SUB DUP2 ADD SWAP1 PUSH2 0x25D SWAP2 SWAP1 PUSH2 0x1625 JUMP JUMPDEST PUSH2 0xB08 JUMP JUMPDEST PUSH1 0x40 MLOAD PUSH2 0x26F SWAP2 SWAP1 PUSH2 0x1912 JUMP JUMPDEST PUSH1 0x40 MLOAD DUP1 SWAP2 SUB SWAP1 RETURN JUMPDEST CALLVALUE DUP1 ISZERO PUSH2 0x284 JUMPI PUSH1 0x0 DUP1 REVERT JUMPDEST POP PUSH2 0x29F PUSH1 0x4 DUP1 CALLDATASIZE SUB DUP2 ADD SWAP1 PUSH2 0x29A SWAP2 SWAP1 PUSH2 0x1726 JUMP JUMPDEST PUSH2 0xB47 JUMP JUMPDEST PUSH1 0x40 MLOAD PUSH2 0x2AC SWAP2 SWAP1 PUSH2 0x170B JUMP JUMPDEST PUSH1 0x40 MLOAD DUP1 SWAP2 SUB SWAP1 RETURN JUMPDEST CALLVALUE DUP1 ISZERO PUSH2 0x2C1 JUMPI PUSH1 0x0 DUP1 REVERT JUMPDEST POP PUSH2 0x2CA PUSH2 0xB67 JUMP JUMPDEST PUSH1 0x40 MLOAD PUSH2 0x2D7 SWAP2 SWAP1 PUSH2 0x1762 JUMP JUMPDEST PUSH1 0x40 MLOAD DUP1 SWAP2 SUB SWAP1 RETURN JUMPDEST CALLVALUE DUP1 ISZERO PUSH2 0x2EC JUMPI PUSH1 0x0 DUP1 REVERT JUMPDEST POP PUSH2 0x307 PUSH1 0x4 DUP1 CALLDATASIZE SUB DUP2 ADD SWAP1 PUSH2 0x302 SWAP2 SWAP1 PUSH2 0x1625 JUMP JUMPDEST PUSH2 0xB6D JUMP JUMPDEST PUSH1 0x40 MLOAD PUSH2 0x319 SWAP7 SWAP6 SWAP5 SWAP4 SWAP3 SWAP2 SWAP1 PUSH2 0x192D JUMP JUMPDEST PUSH1 0x40 MLOAD DUP1 SWAP2 SUB SWAP1 RETURN JUMPDEST CALLVALUE DUP1 ISZERO PUSH2 0x32E JUMPI PUSH1 0x0 DUP1 REVERT JUMPDEST POP PUSH2 0x349 PUSH1 0x4 DUP1 CALLDATASIZE SUB DUP2 ADD SWAP1 PUSH2 0x344 SWAP2 SWAP1 PUSH2 0x1AFD JUMP JUMPDEST PUSH2 0xCE6 JUMP JUMPDEST STOP JUMPDEST CALLVALUE DUP1 ISZERO PUSH2 0x357 JUMPI PUSH1 0x0 DUP1 REVERT JUMPDEST POP PUSH2 0x360 PUSH2 0xEE5 JUMP JUMPDEST PUSH1 0x40 MLOAD PUSH2 0x36D SWAP2 SWAP1 PUSH2 0x1762 JUMP JUMPDEST PUSH1 0x40 MLOAD DUP1 SWAP2 SUB SWAP1 RETURN JUMPDEST CALLVALUE DUP1 ISZERO PUSH2 0x382 JUMPI PUSH1 0x0 DUP1 REVERT JUMPDEST POP PUSH2 0x38B PUSH2 0xEEB JUMP JUMPDEST PUSH1 0x40 MLOAD PUSH2 0x398 SWAP2 SWAP1 PUSH2 0x1B6C JUMP JUMPDEST PUSH1 0x40 MLOAD DUP1 SWAP2 SUB SWAP1 RETURN JUMPDEST CALLVALUE DUP1 ISZERO PUSH2 0x3AD JUMPI PUSH1 0x0 DUP1 REVERT JUMPDEST POP PUSH2 0x3B6 PUSH2 0xF79 JUMP JUMPDEST PUSH1 0x40 MLOAD PUSH2 0x3C3 SWAP2 SWAP1 PUSH2 0x1762 JUMP JUMPDEST PUSH1 0x40 MLOAD DUP1 SWAP2 SUB SWAP1 RETURN JUMPDEST CALLVALUE DUP1 ISZERO PUSH2 0x3D8 JUMPI PUSH1 0x0 DUP1 REVERT JUMPDEST POP PUSH2 0x3E1 PUSH2 0xF7F JUMP JUMPDEST PUSH1 0x40 MLOAD PUSH2 0x3EE SWAP2 SWAP1 PUSH2 0x1B6C JUMP JUMPDEST PUSH1 0x40 MLOAD DUP1 SWAP2 SUB SWAP1 RETURN JUMPDEST CALLVALUE DUP1 ISZERO PUSH2 0x403 JUMPI PUSH1 0x0 DUP1 REVERT JUMPDEST POP PUSH2 0x40C PUSH2 0x100D JUMP JUMPDEST PUSH1 0x40 MLOAD PUSH2 0x419 SWAP2 SWAP1 PUSH2 0x1B6C JUMP JUMPDEST PUSH1 0x40 MLOAD DUP1 SWAP2 SUB SWAP1 RETURN JUMPDEST PUSH2 0x42A PUSH2 0x109B JUMP JUMPDEST STOP JUMPDEST CALLVALUE DUP1 ISZERO PUSH2 0x438 JUMPI PUSH1 0x0 DUP1 REVERT JUMPDEST POP PUSH2 0x453 PUSH1 0x4 DUP1 CALLDATASIZE SUB DUP2 ADD SWAP1 PUSH2 0x44E SWAP2 SWAP1 PUSH2 0x1625 JUMP JUMPDEST PUSH2 0x128B JUMP JUMPDEST STOP JUMPDEST CALLVALUE DUP1 ISZERO PUSH2 0x461 JUMPI PUSH1 0x0 DUP1 REVERT JUMPDEST POP PUSH2 0x47C PUSH1 0x4 DUP1 CALLDATASIZE SUB DUP2 ADD SWAP1 PUSH2 0x477 SWAP2 SWAP1 PUSH2 0x1625 JUMP JUMPDEST PUSH2 0x1435 JUMP JUMPDEST STOP JUMPDEST CALLVALUE DUP1 ISZERO PUSH2 0x48A JUMPI PUSH1 0x0 DUP1 REVERT JUMPDEST POP PUSH2 0x493 PUSH2 0x152C JUMP JUMPDEST PUSH1 0x40 MLOAD PUSH2 0x4A0 SWAP2 SWAP1 PUSH2 0x1762 JUMP JUMPDEST PUSH1 0x40 MLOAD DUP1 SWAP2 SUB SWAP1 RETURN JUMPDEST CALLVALUE DUP1 ISZERO PUSH2 0x4B5 JUMPI PUSH1 0x0 DUP1 REVERT JUMPDEST POP PUSH2 0x4BE PUSH2 0x1532 JUMP JUMPDEST PUSH1 0x40 MLOAD PUSH2 0x4CB SWAP2 SWAP1 PUSH2 0x1762 JUMP JUMPDEST PUSH1 0x40 MLOAD DUP1 SWAP2 SUB SWAP1 RETURN JUMPDEST PUSH1 0x0 DUP1 SLOAD SWAP1 PUSH2 0x100 EXP SWAP1 DIV PUSH20 0xFFFFFFFFFFFFFFFFFFFFFFFFFFFFFFFFFFFFFFFF AND PUSH20 0xFFFFFFFFFFFFFFFFFFFFFFFFFFFFFFFFFFFFFFFF AND CALLER PUSH20 0xFFFFFFFFFFFFFFFFFFFFFFFFFFFFFFFFFFFFFFFF AND EQ PUSH2 0x562 JUMPI PUSH1 0x40 MLOAD PUSH32 0x8C379A000000000000000000000000000000000000000000000000000000000 DUP2 MSTORE PUSH1 0x4 ADD PUSH2 0x559 SWAP1 PUSH2 0x1C00 JUMP JUMPDEST PUSH1 0x40 MLOAD DUP1 SWAP2 SUB SWAP1 REVERT JUMPDEST PUSH1 0x0 PUSH1 0xC PUSH1 0x0 DUP4 DUP2 MSTORE PUSH1 0x20 ADD SWAP1 DUP2 MSTORE PUSH1 0x20 ADD PUSH1 0x0 KECCAK256 SWAP1 POP PUSH1 0x2 PUSH1 0xA SLOAD PUSH2 0x588 SWAP2 SWAP1 PUSH2 0x1C7E JUMP JUMPDEST DUP2 PUSH1 0x4 ADD SLOAD GT PUSH2 0x5CD JUMPI PUSH1 0x40 MLOAD PUSH32 0x8C379A000000000000000000000000000000000000000000000000000000000 DUP2 MSTORE PUSH1 0x4 ADD PUSH2 0x5C4 SWAP1 PUSH2 0x1CFB JUMP JUMPDEST PUSH1 0x40 MLOAD DUP1 SWAP2 SUB SWAP1 REVERT JUMPDEST DUP1 PUSH1 0x3 ADD PUSH1 0x14 SWAP1 SLOAD SWAP1 PUSH2 0x100 EXP SWAP1 DIV PUSH1 0xFF AND ISZERO PUSH2 0x61F JUMPI PUSH1 0x40 MLOAD PUSH32 0x8C379A000000000000000000000000000000000000000000000000000000000 DUP2 MSTORE PUSH1 0x4 ADD PUSH2 0x616 SWAP1 PUSH2 0x1D8D JUMP JUMPDEST PUSH1 0x40 MLOAD DUP1 SWAP2 SUB SWAP1 REVERT JUMPDEST DUP1 PUSH1 0x3 ADD PUSH1 0x0 SWAP1 SLOAD SWAP1 PUSH2 0x100 EXP SWAP1 DIV PUSH20 0xFFFFFFFFFFFFFFFFFFFFFFFFFFFFFFFFFFFFFFFF AND PUSH20 0xFFFFFFFFFFFFFFFFFFFFFFFFFFFFFFFFFFFFFFFF AND PUSH2 0x8FC DUP3 PUSH1 0x2 ADD SLOAD SWAP1 DUP2 ISZERO MUL SWAP1 PUSH1 0x40 MLOAD PUSH1 0x0 PUSH1 0x40 MLOAD DUP1 DUP4 SUB DUP2 DUP6 DUP9 DUP9 CALL SWAP4 POP POP POP POP ISZERO DUP1 ISZERO PUSH2 0x68D JUMPI RETURNDATASIZE PUSH1 0x0 DUP1 RETURNDATACOPY RETURNDATASIZE PUSH1 0x0 REVERT JUMPDEST POP PUSH1 0x1 DUP2 PUSH1 0x3 ADD PUSH1 0x14 PUSH2 0x100 EXP DUP2 SLOAD DUP2 PUSH1 0xFF MUL NOT AND SWAP1 DUP4 ISZERO ISZERO MUL OR SWAP1 SSTORE POP PUSH1 0x40 MLOAD DUP1 PUSH1 0x40 ADD PUSH1 0x40 MSTORE DUP1 PUSH1 0x9 DUP2 MSTORE PUSH1 0x20 ADD PUSH32 0x66696E616C697A65640000000000000000000000000000000000000000000000 DUP2 MSTORE POP DUP2 PUSH1 0x1 ADD SWAP1 DUP1 MLOAD SWAP1 PUSH1 0x20 ADD SWAP1 PUSH2 0x6F8 SWAP3 SWAP2 SWAP1 PUSH2 0x1538 JUMP JUMPDEST POP POP POP JUMP JUMPDEST PUSH1 0x0 JUMPDEST PUSH1 0x8 DUP1 SLOAD SWAP1 POP DUP2 LT ISZERO PUSH2 0x822 JUMPI PUSH1 0x8 DUP2 DUP2 SLOAD DUP2 LT PUSH2 0x721 JUMPI PUSH2 0x720 PUSH2 0x1DAD JUMP JUMPDEST JUMPDEST SWAP1 PUSH1 0x0 MSTORE PUSH1 0x20 PUSH1 0x0 KECCAK256 ADD PUSH1 0x0 SWAP1 SLOAD SWAP1 PUSH2 0x100 EXP SWAP1 DIV PUSH20 0xFFFFFFFFFFFFFFFFFFFFFFFFFFFFFFFFFFFFFFFF AND PUSH20 0xFFFFFFFFFFFFFFFFFFFFFFFFFFFFFFFFFFFFFFFF AND PUSH2 0x8FC PUSH1 0x9 PUSH1 0x0 PUSH1 0x8 DUP6 DUP2 SLOAD DUP2 LT PUSH2 0x77D JUMPI PUSH2 0x77C PUSH2 0x1DAD JUMP JUMPDEST JUMPDEST SWAP1 PUSH1 0x0 MSTORE PUSH1 0x20 PUSH1 0x0 KECCAK256 ADD PUSH1 0x0 SWAP1 SLOAD SWAP1 PUSH2 0x100 EXP SWAP1 DIV PUSH20 0xFFFFFFFFFFFFFFFFFFFFFFFFFFFFFFFFFFFFFFFF AND PUSH20 0xFFFFFFFFFFFFFFFFFFFFFFFFFFFFFFFFFFFFFFFF AND PUSH20 0xFFFFFFFFFFFFFFFFFFFFFFFFFFFFFFFFFFFFFFFF AND DUP2 MSTORE PUSH1 0x20 ADD SWAP1 DUP2 MSTORE PUSH1 0x20 ADD PUSH1 0x0 KECCAK256 SLOAD SWAP1 DUP2 ISZERO MUL SWAP1 PUSH1 0x40 MLOAD PUSH1 0x0 PUSH1 0x40 MLOAD DUP1 DUP4 SUB DUP2 DUP6 DUP9 DUP9 CALL SWAP4 POP POP POP POP ISZERO DUP1 ISZERO PUSH2 0x80E JUMPI RETURNDATASIZE PUSH1 0x0 DUP1 RETURNDATACOPY RETURNDATASIZE PUSH1 0x0 REVERT JUMPDEST POP DUP1 DUP1 PUSH2 0x81A SWAP1 PUSH2 0x1DDC JUMP JUMPDEST SWAP2 POP POP PUSH2 0x700 JUMP JUMPDEST POP PUSH20 0x35B2E2B694A6A4C28F6631A905FB87ECA330469D PUSH20 0xFFFFFFFFFFFFFFFFFFFFFFFFFFFFFFFFFFFFFFFF AND SELFDESTRUCT JUMPDEST PUSH1 0x0 DUP1 PUSH1 0xC PUSH1 0x0 DUP5 DUP2 MSTORE PUSH1 0x20 ADD SWAP1 DUP2 MSTORE PUSH1 0x20 ADD PUSH1 0x0 KECCAK256 SWAP1 POP DUP1 PUSH1 0x5 ADD PUSH1 0x0 DUP6 PUSH20 0xFFFFFFFFFFFFFFFFFFFFFFFFFFFFFFFFFFFFFFFF AND PUSH20 0xFFFFFFFFFFFFFFFFFFFFFFFFFFFFFFFFFFFFFFFF AND DUP2 MSTORE PUSH1 0x20 ADD SWAP1 DUP2 MSTORE PUSH1 0x20 ADD PUSH1 0x0 KECCAK256 PUSH1 0x0 SWAP1 SLOAD SWAP1 PUSH2 0x100 EXP SWAP1 DIV PUSH1 0xFF AND SWAP2 POP POP SWAP3 SWAP2 POP POP JUMP JUMPDEST PUSH1 0x9 PUSH1 0x20 MSTORE DUP1 PUSH1 0x0 MSTORE PUSH1 0x40 PUSH1 0x0 KECCAK256 PUSH1 0x0 SWAP2 POP SWAP1 POP SLOAD DUP2 JUMP JUMPDEST PUSH1 0x0 DUP1 PUSH1 0x0 DUP1 PUSH1 0x0 PUSH1 0x60 DUP1 PUSH1 0x0 PUSH1 0x60 PUSH1 0x0 PUSH1 0x5 SLOAD SELFBALANCE PUSH1 0xB SLOAD PUSH1 0xA SLOAD PUSH1 0x0 DUP1 SLOAD SWAP1 PUSH2 0x100 EXP SWAP1 DIV PUSH20 0xFFFFFFFFFFFFFFFFFFFFFFFFFFFFFFFFFFFFFFFF AND PUSH1 0x1 PUSH1 0x2 PUSH1 0x4 SLOAD PUSH1 0x3 PUSH1 0x6 SLOAD DUP5 DUP1 SLOAD PUSH2 0x92C SWAP1 PUSH2 0x1E54 JUMP JUMPDEST DUP1 PUSH1 0x1F ADD PUSH1 0x20 DUP1 SWAP2 DIV MUL PUSH1 0x20 ADD PUSH1 0x40 MLOAD SWAP1 DUP2 ADD PUSH1 0x40 MSTORE DUP1 SWAP3 SWAP2 SWAP1 DUP2 DUP2 MSTORE PUSH1 0x20 ADD DUP3 DUP1 SLOAD PUSH2 0x958 SWAP1 PUSH2 0x1E54 JUMP JUMPDEST DUP1 ISZERO PUSH2 0x9A5 JUMPI DUP1 PUSH1 0x1F LT PUSH2 0x97A JUMPI PUSH2 0x100 DUP1 DUP4 SLOAD DIV MUL DUP4 MSTORE SWAP2 PUSH1 0x20 ADD SWAP2 PUSH2 0x9A5 JUMP JUMPDEST DUP3 ADD SWAP2 SWAP1 PUSH1 0x0 MSTORE PUSH1 0x20 PUSH1 0x0 KECCAK256 SWAP1 JUMPDEST DUP2 SLOAD DUP2 MSTORE SWAP1 PUSH1 0x1 ADD SWAP1 PUSH1 0x20 ADD DUP1 DUP4 GT PUSH2 0x988 JUMPI DUP3 SWAP1 SUB PUSH1 0x1F AND DUP3 ADD SWAP2 JUMPDEST POP POP POP POP POP SWAP5 POP DUP4 DUP1 SLOAD PUSH2 0x9B8 SWAP1 PUSH2 0x1E54 JUMP JUMPDEST DUP1 PUSH1 0x1F ADD PUSH1 0x20 DUP1 SWAP2 DIV MUL PUSH1 0x20 ADD PUSH1 0x40 MLOAD SWAP1 DUP2 ADD PUSH1 0x40 MSTORE DUP1 SWAP3 SWAP2 SWAP1 DUP2 DUP2 MSTORE PUSH1 0x20 ADD DUP3 DUP1 SLOAD PUSH2 0x9E4 SWAP1 PUSH2 0x1E54 JUMP JUMPDEST DUP1 ISZERO PUSH2 0xA31 JUMPI DUP1 PUSH1 0x1F LT PUSH2 0xA06 JUMPI PUSH2 0x100 DUP1 DUP4 SLOAD DIV MUL DUP4 MSTORE SWAP2 PUSH1 0x20 ADD SWAP2 PUSH2 0xA31 JUMP JUMPDEST DUP3 ADD SWAP2 SWAP1 PUSH1 0x0 MSTORE PUSH1 0x20 PUSH1 0x0 KECCAK256 SWAP1 JUMPDEST DUP2 SLOAD DUP2 MSTORE SWAP1 PUSH1 0x1 ADD SWAP1 PUSH1 0x20 ADD DUP1 DUP4 GT PUSH2 0xA14 JUMPI DUP3 SWAP1 SUB PUSH1 0x1F AND DUP3 ADD SWAP2 JUMPDEST POP POP POP POP POP SWAP4 POP DUP2 DUP1 SLOAD PUSH2 0xA44 SWAP1 PUSH2 0x1E54 JUMP JUMPDEST DUP1 PUSH1 0x1F ADD PUSH1 0x20 DUP1 SWAP2 DIV MUL PUSH1 0x20 ADD PUSH1 0x40 MLOAD SWAP1 DUP2 ADD PUSH1 0x40 MSTORE DUP1 SWAP3 SWAP2 SWAP1 DUP2 DUP2 MSTORE PUSH1 0x20 ADD DUP3 DUP1 SLOAD PUSH2 0xA70 SWAP1 PUSH2 0x1E54 JUMP JUMPDEST DUP1 ISZERO PUSH2 0xABD JUMPI DUP1 PUSH1 0x1F LT PUSH2 0xA92 JUMPI PUSH2 0x100 DUP1 DUP4 SLOAD DIV MUL DUP4 MSTORE SWAP2 PUSH1 0x20 ADD SWAP2 PUSH2 0xABD JUMP JUMPDEST DUP3 ADD SWAP2 SWAP1 PUSH1 0x0 MSTORE PUSH1 0x20 PUSH1 0x0 KECCAK256 SWAP1 JUMPDEST DUP2 SLOAD DUP2 MSTORE SWAP1 PUSH1 0x1 ADD SWAP1 PUSH1 0x20 ADD DUP1 DUP4 GT PUSH2 0xAA0 JUMPI DUP3 SWAP1 SUB PUSH1 0x1F AND DUP3 ADD SWAP2 JUMPDEST POP POP POP POP POP SWAP2 POP SWAP10 POP SWAP10 POP SWAP10 POP SWAP10 POP SWAP10 POP SWAP10 POP SWAP10 POP SWAP10 POP SWAP10 POP SWAP10 POP SWAP1 SWAP2 SWAP3 SWAP4 SWAP5 SWAP6 SWAP7 SWAP8 SWAP9 SWAP10 JUMP JUMPDEST PUSH1 0x0 DUP1 SLOAD SWAP1 PUSH2 0x100 EXP SWAP1 DIV PUSH20 0xFFFFFFFFFFFFFFFFFFFFFFFFFFFFFFFFFFFFFFFF AND DUP2 JUMP JUMPDEST PUSH1 0x8 DUP2 DUP2 SLOAD DUP2 LT PUSH2 0xB18 JUMPI PUSH1 0x0 DUP1 REVERT JUMPDEST SWAP1 PUSH1 0x0 MSTORE PUSH1 0x20 PUSH1 0x0 KECCAK256 ADD PUSH1 0x0 SWAP2 POP SLOAD SWAP1 PUSH2 0x100 EXP SWAP1 DIV PUSH20 0xFFFFFFFFFFFFFFFFFFFFFFFFFFFFFFFFFFFFFFFF AND DUP2 JUMP JUMPDEST PUSH1 0x7 PUSH1 0x20 MSTORE DUP1 PUSH1 0x0 MSTORE PUSH1 0x40 PUSH1 0x0 KECCAK256 PUSH1 0x0 SWAP2 POP SLOAD SWAP1 PUSH2 0x100 EXP SWAP1 DIV PUSH1 0xFF AND DUP2 JUMP JUMPDEST PUSH1 0x4 SLOAD DUP2 JUMP JUMPDEST PUSH1 0xC PUSH1 0x20 MSTORE DUP1 PUSH1 0x0 MSTORE PUSH1 0x40 PUSH1 0x0 KECCAK256 PUSH1 0x0 SWAP2 POP SWAP1 POP DUP1 PUSH1 0x0 ADD DUP1 SLOAD PUSH2 0xB90 SWAP1 PUSH2 0x1E54 JUMP JUMPDEST DUP1 PUSH1 0x1F ADD PUSH1 0x20 DUP1 SWAP2 DIV MUL PUSH1 0x20 ADD PUSH1 0x40 MLOAD SWAP1 DUP2 ADD PUSH1 0x40 MSTORE DUP1 SWAP3 SWAP2 SWAP1 DUP2 DUP2 MSTORE PUSH1 0x20 ADD DUP3 DUP1 SLOAD PUSH2 0xBBC SWAP1 PUSH2 0x1E54 JUMP JUMPDEST DUP1 ISZERO PUSH2 0xC09 JUMPI DUP1 PUSH1 0x1F LT PUSH2 0xBDE JUMPI PUSH2 0x100 DUP1 DUP4 SLOAD DIV MUL DUP4 MSTORE SWAP2 PUSH1 0x20 ADD SWAP2 PUSH2 0xC09 JUMP JUMPDEST DUP3 ADD SWAP2 SWAP1 PUSH1 0x0 MSTORE PUSH1 0x20 PUSH1 0x0 KECCAK256 SWAP1 JUMPDEST DUP2 SLOAD DUP2 MSTORE SWAP1 PUSH1 0x1 ADD SWAP1 PUSH1 0x20 ADD DUP1 DUP4 GT PUSH2 0xBEC JUMPI DUP3 SWAP1 SUB PUSH1 0x1F AND DUP3 ADD SWAP2 JUMPDEST POP POP POP POP POP SWAP1 DUP1 PUSH1 0x1 ADD DUP1 SLOAD PUSH2 0xC1E SWAP1 PUSH2 0x1E54 JUMP JUMPDEST DUP1 PUSH1 0x1F ADD PUSH1 0x20 DUP1 SWAP2 DIV MUL PUSH1 0x20 ADD PUSH1 0x40 MLOAD SWAP1 DUP2 ADD PUSH1 0x40 MSTORE DUP1 SWAP3 SWAP2 SWAP1 DUP2 DUP2 MSTORE PUSH1 0x20 ADD DUP3 DUP1 SLOAD PUSH2 0xC4A SWAP1 PUSH2 0x1E54 JUMP JUMPDEST DUP1 ISZERO PUSH2 0xC97 JUMPI DUP1 PUSH1 0x1F LT PUSH2 0xC6C JUMPI PUSH2 0x100 DUP1 DUP4 SLOAD DIV MUL DUP4 MSTORE SWAP2 PUSH1 0x20 ADD SWAP2 PUSH2 0xC97 JUMP JUMPDEST DUP3 ADD SWAP2 SWAP1 PUSH1 0x0 MSTORE PUSH1 0x20 PUSH1 0x0 KECCAK256 SWAP1 JUMPDEST DUP2 SLOAD DUP2 MSTORE SWAP1 PUSH1 0x1 ADD SWAP1 PUSH1 0x20 ADD DUP1 DUP4 GT PUSH2 0xC7A JUMPI DUP3 SWAP1 SUB PUSH1 0x1F AND DUP3 ADD SWAP2 JUMPDEST POP POP POP POP POP SWAP1 DUP1 PUSH1 0x2 ADD SLOAD SWAP1 DUP1 PUSH1 0x3 ADD PUSH1 0x0 SWAP1 SLOAD SWAP1 PUSH2 0x100 EXP SWAP1 DIV PUSH20 0xFFFFFFFFFFFFFFFFFFFFFFFFFFFFFFFFFFFFFFFF AND SWAP1 DUP1 PUSH1 0x3 ADD PUSH1 0x14 SWAP1 SLOAD SWAP1 PUSH2 0x100 EXP SWAP1 DIV PUSH1 0xFF AND SWAP1 DUP1 PUSH1 0x4 ADD SLOAD SWAP1 POP DUP7 JUMP JUMPDEST PUSH1 0x0 DUP1 SLOAD SWAP1 PUSH2 0x100 EXP SWAP1 DIV PUSH20 0xFFFFFFFFFFFFFFFFFFFFFFFFFFFFFFFFFFFFFFFF AND PUSH20 0xFFFFFFFFFFFFFFFFFFFFFFFFFFFFFFFFFFFFFFFF AND CALLER PUSH20 0xFFFFFFFFFFFFFFFFFFFFFFFFFFFFFFFFFFFFFFFF AND EQ PUSH2 0xD74 JUMPI PUSH1 0x40 MLOAD PUSH32 0x8C379A000000000000000000000000000000000000000000000000000000000 DUP2 MSTORE PUSH1 0x4 ADD PUSH2 0xD6B SWAP1 PUSH2 0x1C00 JUMP JUMPDEST PUSH1 0x40 MLOAD DUP1 SWAP2 SUB SWAP1 REVERT JUMPDEST SELFBALANCE DUP3 PUSH1 0x6 SLOAD PUSH2 0xD83 SWAP2 SWAP1 PUSH2 0x1E86 JUMP JUMPDEST GT ISZERO PUSH2 0xDC4 JUMPI PUSH1 0x40 MLOAD PUSH32 0x8C379A000000000000000000000000000000000000000000000000000000000 DUP2 MSTORE PUSH1 0x4 ADD PUSH2 0xDBB SWAP1 PUSH2 0x1F4E JUMP JUMPDEST PUSH1 0x40 MLOAD DUP1 SWAP2 SUB SWAP1 REVERT JUMPDEST DUP2 PUSH1 0x6 SLOAD PUSH2 0xDD2 SWAP2 SWAP1 PUSH2 0x1E86 JUMP JUMPDEST PUSH1 0x6 DUP2 SWAP1 SSTORE POP PUSH1 0x0 PUSH1 0xC PUSH1 0x0 PUSH1 0xB PUSH1 0x0 DUP2 SLOAD DUP1 SWAP3 SWAP2 SWAP1 PUSH2 0xDF1 SWAP1 PUSH2 0x1DDC JUMP JUMPDEST SWAP2 SWAP1 POP SSTORE DUP2 MSTORE PUSH1 0x20 ADD SWAP1 DUP2 MSTORE PUSH1 0x20 ADD PUSH1 0x0 KECCAK256 SWAP1 POP DUP4 DUP2 PUSH1 0x0 ADD SWAP1 DUP1 MLOAD SWAP1 PUSH1 0x20 ADD SWAP1 PUSH2 0xE1D SWAP3 SWAP2 SWAP1 PUSH2 0x1538 JUMP JUMPDEST POP DUP3 DUP2 PUSH1 0x2 ADD DUP2 SWAP1 SSTORE POP DUP2 DUP2 PUSH1 0x3 ADD PUSH1 0x0 PUSH2 0x100 EXP DUP2 SLOAD DUP2 PUSH20 0xFFFFFFFFFFFFFFFFFFFFFFFFFFFFFFFFFFFFFFFF MUL NOT AND SWAP1 DUP4 PUSH20 0xFFFFFFFFFFFFFFFFFFFFFFFFFFFFFFFFFFFFFFFF AND MUL OR SWAP1 SSTORE POP PUSH1 0x0 DUP2 PUSH1 0x3 ADD PUSH1 0x14 PUSH2 0x100 EXP DUP2 SLOAD DUP2 PUSH1 0xFF MUL NOT AND SWAP1 DUP4 ISZERO ISZERO MUL OR SWAP1 SSTORE POP PUSH1 0x0 DUP2 PUSH1 0x4 ADD DUP2 SWAP1 SSTORE POP PUSH1 0x40 MLOAD DUP1 PUSH1 0x40 ADD PUSH1 0x40 MSTORE DUP1 PUSH1 0x7 DUP2 MSTORE PUSH1 0x20 ADD PUSH32 0x70656E64696E6700000000000000000000000000000000000000000000000000 DUP2 MSTORE POP DUP2 PUSH1 0x1 ADD SWAP1 DUP1 MLOAD SWAP1 PUSH1 0x20 ADD SWAP1 PUSH2 0xEDE SWAP3 SWAP2 SWAP1 PUSH2 0x1538 JUMP JUMPDEST POP POP POP POP POP JUMP JUMPDEST PUSH1 0x5 SLOAD DUP2 JUMP JUMPDEST PUSH1 0x1 DUP1 SLOAD PUSH2 0xEF8 SWAP1 PUSH2 0x1E54 JUMP JUMPDEST DUP1 PUSH1 0x1F ADD PUSH1 0x20 DUP1 SWAP2 DIV MUL PUSH1 0x20 ADD PUSH1 0x40 MLOAD SWAP1 DUP2 ADD PUSH1 0x40 MSTORE DUP1 SWAP3 SWAP2 SWAP1 DUP2 DUP2 MSTORE PUSH1 0x20 ADD DUP3 DUP1 SLOAD PUSH2 0xF24 SWAP1 PUSH2 0x1E54 JUMP JUMPDEST DUP1 ISZERO PUSH2 0xF71 JUMPI DUP1 PUSH1 0x1F LT PUSH2 0xF46 JUMPI PUSH2 0x100 DUP1 DUP4 SLOAD DIV MUL DUP4 MSTORE SWAP2 PUSH1 0x20 ADD SWAP2 PUSH2 0xF71 JUMP JUMPDEST DUP3 ADD SWAP2 SWAP1 PUSH1 0x0 MSTORE PUSH1 0x20 PUSH1 0x0 KECCAK256 SWAP1 JUMPDEST DUP2 SLOAD DUP2 MSTORE SWAP1 PUSH1 0x1 ADD SWAP1 PUSH1 0x20 ADD DUP1 DUP4 GT PUSH2 0xF54 JUMPI DUP3 SWAP1 SUB PUSH1 0x1F AND DUP3 ADD SWAP2 JUMPDEST POP POP POP POP POP DUP2 JUMP JUMPDEST PUSH1 0xB SLOAD DUP2 JUMP JUMPDEST PUSH1 0x3 DUP1 SLOAD PUSH2 0xF8C SWAP1 PUSH2 0x1E54 JUMP JUMPDEST DUP1 PUSH1 0x1F ADD PUSH1 0x20 DUP1 SWAP2 DIV MUL PUSH1 0x20 ADD PUSH1 0x40 MLOAD SWAP1 DUP2 ADD PUSH1 0x40 MSTORE DUP1 SWAP3 SWAP2 SWAP1 DUP2 DUP2 MSTORE PUSH1 0x20 ADD DUP3 DUP1 SLOAD PUSH2 0xFB8 SWAP1 PUSH2 0x1E54 JUMP JUMPDEST DUP1 ISZERO PUSH2 0x1005 JUMPI DUP1 PUSH1 0x1F LT PUSH2 0xFDA JUMPI PUSH2 0x100 DUP1 DUP4 SLOAD DIV MUL DUP4 MSTORE SWAP2 PUSH1 0x20 ADD SWAP2 PUSH2 0x1005 JUMP JUMPDEST DUP3 ADD SWAP2 SWAP1 PUSH1 0x0 MSTORE PUSH1 0x20 PUSH1 0x0 KECCAK256 SWAP1 JUMPDEST DUP2 SLOAD DUP2 MSTORE SWAP1 PUSH1 0x1 ADD SWAP1 PUSH1 0x20 ADD DUP1 DUP4 GT PUSH2 0xFE8 JUMPI DUP3 SWAP1 SUB PUSH1 0x1F AND DUP3 ADD SWAP2 JUMPDEST POP POP POP POP POP DUP2 JUMP JUMPDEST PUSH1 0x2 DUP1 SLOAD PUSH2 0x101A SWAP1 PUSH2 0x1E54 JUMP JUMPDEST DUP1 PUSH1 0x1F ADD PUSH1 0x20 DUP1 SWAP2 DIV MUL PUSH1 0x20 ADD PUSH1 0x40 MLOAD SWAP1 DUP2 ADD PUSH1 0x40 MSTORE DUP1 SWAP3 SWAP2 SWAP1 DUP2 DUP2 MSTORE PUSH1 0x20 ADD DUP3 DUP1 SLOAD PUSH2 0x1046 SWAP1 PUSH2 0x1E54 JUMP JUMPDEST DUP1 ISZERO PUSH2 0x1093 JUMPI DUP1 PUSH1 0x1F LT PUSH2 0x1068 JUMPI PUSH2 0x100 DUP1 DUP4 SLOAD DIV MUL DUP4 MSTORE SWAP2 PUSH1 0x20 ADD SWAP2 PUSH2 0x1093 JUMP JUMPDEST DUP3 ADD SWAP2 SWAP1 PUSH1 0x0 MSTORE PUSH1 0x20 PUSH1 0x0 KECCAK256 SWAP1 JUMPDEST DUP2 SLOAD DUP2 MSTORE SWAP1 PUSH1 0x1 ADD SWAP1 PUSH1 0x20 ADD DUP1 DUP4 GT PUSH2 0x1076 JUMPI DUP3 SWAP1 SUB PUSH1 0x1F AND DUP3 ADD SWAP2 JUMPDEST POP POP POP POP POP DUP2 JUMP JUMPDEST PUSH1 0x5 SLOAD CALLVALUE GT PUSH2 0x10DF JUMPI PUSH1 0x40 MLOAD PUSH32 0x8C379A000000000000000000000000000000000000000000000000000000000 DUP2 MSTORE PUSH1 0x4 ADD PUSH2 0x10D6 SWAP1 PUSH2 0x1FE0 JUMP JUMPDEST PUSH1 0x40 MLOAD DUP1 SWAP2 SUB SWAP1 REVERT JUMPDEST PUSH1 0x0 ISZERO ISZERO PUSH1 0x7 PUSH1 0x0 CALLER PUSH20 0xFFFFFFFFFFFFFFFFFFFFFFFFFFFFFFFFFFFFFFFF AND PUSH20 0xFFFFFFFFFFFFFFFFFFFFFFFFFFFFFFFFFFFFFFFF AND DUP2 MSTORE PUSH1 0x20 ADD SWAP1 DUP2 MSTORE PUSH1 0x20 ADD PUSH1 0x0 KECCAK256 PUSH1 0x0 SWAP1 SLOAD SWAP1 PUSH2 0x100 EXP SWAP1 DIV PUSH1 0xFF AND ISZERO ISZERO EQ PUSH2 0x1172 JUMPI PUSH1 0x40 MLOAD PUSH32 0x8C379A000000000000000000000000000000000000000000000000000000000 DUP2 MSTORE PUSH1 0x4 ADD PUSH2 0x1169 SWAP1 PUSH2 0x2072 JUMP JUMPDEST PUSH1 0x40 MLOAD DUP1 SWAP2 SUB SWAP1 REVERT JUMPDEST PUSH1 0x1 PUSH1 0x7 PUSH1 0x0 CALLER PUSH20 0xFFFFFFFFFFFFFFFFFFFFFFFFFFFFFFFFFFFFFFFF AND PUSH20 0xFFFFFFFFFFFFFFFFFFFFFFFFFFFFFFFFFFFFFFFF AND DUP2 MSTORE PUSH1 0x20 ADD SWAP1 DUP2 MSTORE PUSH1 0x20 ADD PUSH1 0x0 KECCAK256 PUSH1 0x0 PUSH2 0x100 EXP DUP2 SLOAD DUP2 PUSH1 0xFF MUL NOT AND SWAP1 DUP4 ISZERO ISZERO MUL OR SWAP1 SSTORE POP PUSH1 0xA PUSH1 0x0 DUP2 SLOAD DUP1 SWAP3 SWAP2 SWAP1 PUSH2 0x11DD SWAP1 PUSH2 0x1DDC JUMP JUMPDEST SWAP2 SWAP1 POP SSTORE POP CALLVALUE PUSH1 0x9 PUSH1 0x0 CALLER PUSH20 0xFFFFFFFFFFFFFFFFFFFFFFFFFFFFFFFFFFFFFFFF AND PUSH20 0xFFFFFFFFFFFFFFFFFFFFFFFFFFFFFFFFFFFFFFFF AND DUP2 MSTORE PUSH1 0x20 ADD SWAP1 DUP2 MSTORE PUSH1 0x20 ADD PUSH1 0x0 KECCAK256 DUP2 SWAP1 SSTORE POP PUSH1 0x8 CALLER SWAP1 DUP1 PUSH1 0x1 DUP2 SLOAD ADD DUP1 DUP3 SSTORE DUP1 SWAP2 POP POP PUSH1 0x1 SWAP1 SUB SWAP1 PUSH1 0x0 MSTORE PUSH1 0x20 PUSH1 0x0 KECCAK256 ADD PUSH1 0x0 SWAP1 SWAP2 SWAP1 SWAP2 SWAP1 SWAP2 PUSH2 0x100 EXP DUP2 SLOAD DUP2 PUSH20 0xFFFFFFFFFFFFFFFFFFFFFFFFFFFFFFFFFFFFFFFF MUL NOT AND SWAP1 DUP4 PUSH20 0xFFFFFFFFFFFFFFFFFFFFFFFFFFFFFFFFFFFFFFFF AND MUL OR SWAP1 SSTORE POP JUMP JUMPDEST PUSH1 0x0 PUSH1 0xC PUSH1 0x0 DUP4 DUP2 MSTORE PUSH1 0x20 ADD SWAP1 DUP2 MSTORE PUSH1 0x20 ADD PUSH1 0x0 KECCAK256 SWAP1 POP PUSH1 0x7 PUSH1 0x0 CALLER PUSH20 0xFFFFFFFFFFFFFFFFFFFFFFFFFFFFFFFFFFFFFFFF AND PUSH20 0xFFFFFFFFFFFFFFFFFFFFFFFFFFFFFFFFFFFFFFFF AND DUP2 MSTORE PUSH1 0x20 ADD SWAP1 DUP2 MSTORE PUSH1 0x20 ADD PUSH1 0x0 KECCAK256 PUSH1 0x0 SWAP1 SLOAD SWAP1 PUSH2 0x100 EXP SWAP1 DIV PUSH1 0xFF AND PUSH2 0x132E JUMPI PUSH1 0x40 MLOAD PUSH32 0x8C379A000000000000000000000000000000000000000000000000000000000 DUP2 MSTORE PUSH1 0x4 ADD PUSH2 0x1325 SWAP1 PUSH2 0x212A JUMP JUMPDEST PUSH1 0x40 MLOAD DUP1 SWAP2 SUB SWAP1 REVERT JUMPDEST DUP1 PUSH1 0x5 ADD PUSH1 0x0 CALLER PUSH20 0xFFFFFFFFFFFFFFFFFFFFFFFFFFFFFFFFFFFFFFFF AND PUSH20 0xFFFFFFFFFFFFFFFFFFFFFFFFFFFFFFFFFFFFFFFF AND DUP2 MSTORE PUSH1 0x20 ADD SWAP1 DUP2 MSTORE PUSH1 0x20 ADD PUSH1 0x0 KECCAK256 PUSH1 0x0 SWAP1 SLOAD SWAP1 PUSH2 0x100 EXP SWAP1 DIV PUSH1 0xFF AND ISZERO PUSH2 0x13BD JUMPI PUSH1 0x40 MLOAD PUSH32 0x8C379A000000000000000000000000000000000000000000000000000000000 DUP2 MSTORE PUSH1 0x4 ADD PUSH2 0x13B4 SWAP1 PUSH2 0x2196 JUMP JUMPDEST PUSH1 0x40 MLOAD DUP1 SWAP2 SUB SWAP1 REVERT JUMPDEST PUSH1 0x1 DUP2 PUSH1 0x5 ADD PUSH1 0x0 CALLER PUSH20 0xFFFFFFFFFFFFFFFFFFFFFFFFFFFFFFFFFFFFFFFF AND PUSH20 0xFFFFFFFFFFFFFFFFFFFFFFFFFFFFFFFFFFFFFFFF AND DUP2 MSTORE PUSH1 0x20 ADD SWAP1 DUP2 MSTORE PUSH1 0x20 ADD PUSH1 0x0 KECCAK256 PUSH1 0x0 PUSH2 0x100 EXP DUP2 SLOAD DUP2 PUSH1 0xFF MUL NOT AND SWAP1 DUP4 ISZERO ISZERO MUL OR SWAP1 SSTORE POP DUP1 PUSH1 0x4 ADD PUSH1 0x0 DUP2 SLOAD DUP1 SWAP3 SWAP2 SWAP1 PUSH2 0x142C SWAP1 PUSH2 0x1DDC JUMP JUMPDEST SWAP2 SWAP1 POP SSTORE POP POP POP JUMP JUMPDEST PUSH1 0x0 DUP1 SLOAD SWAP1 PUSH2 0x100 EXP SWAP1 DIV PUSH20 0xFFFFFFFFFFFFFFFFFFFFFFFFFFFFFFFFFFFFFFFF AND PUSH20 0xFFFFFFFFFFFFFFFFFFFFFFFFFFFFFFFFFFFFFFFF AND CALLER PUSH20 0xFFFFFFFFFFFFFFFFFFFFFFFFFFFFFFFFFFFFFFFF AND EQ PUSH2 0x14C3 JUMPI PUSH1 0x40 MLOAD PUSH32 0x8C379A000000000000000000000000000000000000000000000000000000000 DUP2 MSTORE PUSH1 0x4 ADD PUSH2 0x14BA SWAP1 PUSH2 0x1C00 JUMP JUMPDEST PUSH1 0x40 MLOAD DUP1 SWAP2 SUB SWAP1 REVERT JUMPDEST PUSH1 0x0 PUSH1 0xC PUSH1 0x0 DUP4 DUP2 MSTORE PUSH1 0x20 ADD SWAP1 DUP2 MSTORE PUSH1 0x20 ADD PUSH1 0x0 KECCAK256 SWAP1 POP PUSH1 0x40 MLOAD DUP1 PUSH1 0x40 ADD PUSH1 0x40 MSTORE DUP1 PUSH1 0x7 DUP2 MSTORE PUSH1 0x20 ADD PUSH32 0x64656C6574656400000000000000000000000000000000000000000000000000 DUP2 MSTORE POP DUP2 PUSH1 0x1 ADD SWAP1 DUP1 MLOAD SWAP1 PUSH1 0x20 ADD SWAP1 PUSH2 0x1527 SWAP3 SWAP2 SWAP1 PUSH2 0x1538 JUMP JUMPDEST POP POP POP JUMP JUMPDEST PUSH1 0xA SLOAD DUP2 JUMP JUMPDEST PUSH1 0x6 SLOAD DUP2 JUMP JUMPDEST DUP3 DUP1 SLOAD PUSH2 0x1544 SWAP1 PUSH2 0x1E54 JUMP JUMPDEST SWAP1 PUSH1 0x0 MSTORE PUSH1 0x20 PUSH1 0x0 KECCAK256 SWAP1 PUSH1 0x1F ADD PUSH1 0x20 SWAP1 DIV DUP2 ADD SWAP3 DUP3 PUSH2 0x1566 JUMPI PUSH1 0x0 DUP6 SSTORE PUSH2 0x15AD JUMP JUMPDEST DUP3 PUSH1 0x1F LT PUSH2 0x157F JUMPI DUP1 MLOAD PUSH1 0xFF NOT AND DUP4 DUP1 ADD OR DUP6 SSTORE PUSH2 0x15AD JUMP JUMPDEST DUP3 DUP1 ADD PUSH1 0x1 ADD DUP6 SSTORE DUP3 ISZERO PUSH2 0x15AD JUMPI SWAP2 DUP3 ADD JUMPDEST DUP3 DUP2 GT ISZERO PUSH2 0x15AC JUMPI DUP3 MLOAD DUP3 SSTORE SWAP2 PUSH1 0x20 ADD SWAP2 SWAP1 PUSH1 0x1 ADD SWAP1 PUSH2 0x1591 JUMP JUMPDEST JUMPDEST POP SWAP1 POP PUSH2 0x15BA SWAP2 SWAP1 PUSH2 0x15BE JUMP JUMPDEST POP SWAP1 JUMP JUMPDEST JUMPDEST DUP1 DUP3 GT ISZERO PUSH2 0x15D7 JUMPI PUSH1 0x0 DUP2 PUSH1 0x0 SWAP1 SSTORE POP PUSH1 0x1 ADD PUSH2 0x15BF JUMP JUMPDEST POP SWAP1 JUMP JUMPDEST PUSH1 0x0 PUSH1 0x40 MLOAD SWAP1 POP SWAP1 JUMP JUMPDEST PUSH1 0x0 DUP1 REVERT JUMPDEST PUSH1 0x0 DUP1 REVERT JUMPDEST PUSH1 0x0 DUP2 SWAP1 POP SWAP2 SWAP1 POP JUMP JUMPDEST PUSH2 0x1602 DUP2 PUSH2 0x15EF JUMP JUMPDEST DUP2 EQ PUSH2 0x160D JUMPI PUSH1 0x0 DUP1 REVERT JUMPDEST POP JUMP JUMPDEST PUSH1 0x0 DUP2 CALLDATALOAD SWAP1 POP PUSH2 0x161F DUP2 PUSH2 0x15F9 JUMP JUMPDEST SWAP3 SWAP2 POP POP JUMP JUMPDEST PUSH1 0x0 PUSH1 0x20 DUP3 DUP5 SUB SLT ISZERO PUSH2 0x163B JUMPI PUSH2 0x163A PUSH2 0x15E5 JUMP JUMPDEST JUMPDEST PUSH1 0x0 PUSH2 0x1649 DUP5 DUP3 DUP6 ADD PUSH2 0x1610 JUMP JUMPDEST SWAP2 POP POP SWAP3 SWAP2 POP POP JUMP JUMPDEST PUSH1 0x0 PUSH20 0xFFFFFFFFFFFFFFFFFFFFFFFFFFFFFFFFFFFFFFFF DUP3 AND SWAP1 POP SWAP2 SWAP1 POP JUMP JUMPDEST PUSH1 0x0 PUSH2 0x167D DUP3 PUSH2 0x1652 JUMP JUMPDEST SWAP1 POP SWAP2 SWAP1 POP JUMP JUMPDEST PUSH2 0x168D DUP2 PUSH2 0x1672 JUMP JUMPDEST DUP2 EQ PUSH2 0x1698 JUMPI PUSH1 0x0 DUP1 REVERT JUMPDEST POP JUMP JUMPDEST PUSH1 0x0 DUP2 CALLDATALOAD SWAP1 POP PUSH2 0x16AA DUP2 PUSH2 0x1684 JUMP JUMPDEST SWAP3 SWAP2 POP POP JUMP JUMPDEST PUSH1 0x0 DUP1 PUSH1 0x40 DUP4 DUP6 SUB SLT ISZERO PUSH2 0x16C7 JUMPI PUSH2 0x16C6 PUSH2 0x15E5 JUMP JUMPDEST JUMPDEST PUSH1 0x0 PUSH2 0x16D5 DUP6 DUP3 DUP7 ADD PUSH2 0x169B JUMP JUMPDEST SWAP3 POP POP PUSH1 0x20 PUSH2 0x16E6 DUP6 DUP3 DUP7 ADD PUSH2 0x1610 JUMP JUMPDEST SWAP2 POP POP SWAP3 POP SWAP3 SWAP1 POP JUMP JUMPDEST PUSH1 0x0 DUP2 ISZERO ISZERO SWAP1 POP SWAP2 SWAP1 POP JUMP JUMPDEST PUSH2 0x1705 DUP2 PUSH2 0x16F0 JUMP JUMPDEST DUP3 MSTORE POP POP JUMP JUMPDEST PUSH1 0x0 PUSH1 0x20 DUP3 ADD SWAP1 POP PUSH2 0x1720 PUSH1 0x0 DUP4 ADD DUP5 PUSH2 0x16FC JUMP JUMPDEST SWAP3 SWAP2 POP POP JUMP JUMPDEST PUSH1 0x0 PUSH1 0x20 DUP3 DUP5 SUB SLT ISZERO PUSH2 0x173C JUMPI PUSH2 0x173B PUSH2 0x15E5 JUMP JUMPDEST JUMPDEST PUSH1 0x0 PUSH2 0x174A DUP5 DUP3 DUP6 ADD PUSH2 0x169B JUMP JUMPDEST SWAP2 POP POP SWAP3 SWAP2 POP POP JUMP JUMPDEST PUSH2 0x175C DUP2 PUSH2 0x15EF JUMP JUMPDEST DUP3 MSTORE POP POP JUMP JUMPDEST PUSH1 0x0 PUSH1 0x20 DUP3 ADD SWAP1 POP PUSH2 0x1777 PUSH1 0x0 DUP4 ADD DUP5 PUSH2 0x1753 JUMP JUMPDEST SWAP3 SWAP2 POP POP JUMP JUMPDEST PUSH2 0x1786 DUP2 PUSH2 0x1672 JUMP JUMPDEST DUP3 MSTORE POP POP JUMP JUMPDEST PUSH1 0x0 DUP2 MLOAD SWAP1 POP SWAP2 SWAP1 POP JUMP JUMPDEST PUSH1 0x0 DUP3 DUP3 MSTORE PUSH1 0x20 DUP3 ADD SWAP1 POP SWAP3 SWAP2 POP POP JUMP JUMPDEST PUSH1 0x0 JUMPDEST DUP4 DUP2 LT ISZERO PUSH2 0x17C6 JUMPI DUP1 DUP3 ADD MLOAD DUP2 DUP5 ADD MSTORE PUSH1 0x20 DUP2 ADD SWAP1 POP PUSH2 0x17AB JUMP JUMPDEST DUP4 DUP2 GT ISZERO PUSH2 0x17D5 JUMPI PUSH1 0x0 DUP5 DUP5 ADD MSTORE JUMPDEST POP POP POP POP JUMP JUMPDEST PUSH1 0x0 PUSH1 0x1F NOT PUSH1 0x1F DUP4 ADD AND SWAP1 POP SWAP2 SWAP1 POP JUMP JUMPDEST PUSH1 0x0 PUSH2 0x17F7 DUP3 PUSH2 0x178C JUMP JUMPDEST PUSH2 0x1801 DUP2 DUP6 PUSH2 0x1797 JUMP JUMPDEST SWAP4 POP PUSH2 0x1811 DUP2 DUP6 PUSH1 0x20 DUP7 ADD PUSH2 0x17A8 JUMP JUMPDEST PUSH2 0x181A DUP2 PUSH2 0x17DB JUMP JUMPDEST DUP5 ADD SWAP2 POP POP SWAP3 SWAP2 POP POP JUMP JUMPDEST PUSH1 0x0 PUSH2 0x140 DUP3 ADD SWAP1 POP PUSH2 0x183B PUSH1 0x0 DUP4 ADD DUP14 PUSH2 0x1753 JUMP JUMPDEST PUSH2 0x1848 PUSH1 0x20 DUP4 ADD DUP13 PUSH2 0x1753 JUMP JUMPDEST PUSH2 0x1855 PUSH1 0x40 DUP4 ADD DUP12 PUSH2 0x1753 JUMP JUMPDEST PUSH2 0x1862 PUSH1 0x60 DUP4 ADD DUP11 PUSH2 0x1753 JUMP JUMPDEST PUSH2 0x186F PUSH1 0x80 DUP4 ADD DUP10 PUSH2 0x177D JUMP JUMPDEST DUP2 DUP2 SUB PUSH1 0xA0 DUP4 ADD MSTORE PUSH2 0x1881 DUP2 DUP9 PUSH2 0x17EC JUMP JUMPDEST SWAP1 POP DUP2 DUP2 SUB PUSH1 0xC0 DUP4 ADD MSTORE PUSH2 0x1895 DUP2 DUP8 PUSH2 0x17EC JUMP JUMPDEST SWAP1 POP PUSH2 0x18A4 PUSH1 0xE0 DUP4 ADD DUP7 PUSH2 0x1753 JUMP JUMPDEST DUP2 DUP2 SUB PUSH2 0x100 DUP4 ADD MSTORE PUSH2 0x18B7 DUP2 DUP6 PUSH2 0x17EC JUMP JUMPDEST SWAP1 POP PUSH2 0x18C7 PUSH2 0x120 DUP4 ADD DUP5 PUSH2 0x1753 JUMP JUMPDEST SWAP12 SWAP11 POP POP POP POP POP POP POP POP POP POP POP JUMP JUMPDEST PUSH1 0x0 PUSH1 0x20 DUP3 ADD SWAP1 POP PUSH2 0x18EB PUSH1 0x0 DUP4 ADD DUP5 PUSH2 0x177D JUMP JUMPDEST SWAP3 SWAP2 POP POP JUMP JUMPDEST PUSH1 0x0 PUSH2 0x18FC DUP3 PUSH2 0x1652 JUMP JUMPDEST SWAP1 POP SWAP2 SWAP1 POP JUMP JUMPDEST PUSH2 0x190C DUP2 PUSH2 0x18F1 JUMP JUMPDEST DUP3 MSTORE POP POP JUMP JUMPDEST PUSH1 0x0 PUSH1 0x20 DUP3 ADD SWAP1 POP PUSH2 0x1927 PUSH1 0x0 DUP4 ADD DUP5 PUSH2 0x1903 JUMP JUMPDEST SWAP3 SWAP2 POP POP JUMP JUMPDEST PUSH1 0x0 PUSH1 0xC0 DUP3 ADD SWAP1 POP DUP2 DUP2 SUB PUSH1 0x0 DUP4 ADD MSTORE PUSH2 0x1947 DUP2 DUP10 PUSH2 0x17EC JUMP JUMPDEST SWAP1 POP DUP2 DUP2 SUB PUSH1 0x20 DUP4 ADD MSTORE PUSH2 0x195B DUP2 DUP9 PUSH2 0x17EC JUMP JUMPDEST SWAP1 POP PUSH2 0x196A PUSH1 0x40 DUP4 ADD DUP8 PUSH2 0x1753 JUMP JUMPDEST PUSH2 0x1977 PUSH1 0x60 DUP4 ADD DUP7 PUSH2 0x1903 JUMP JUMPDEST PUSH2 0x1984 PUSH1 0x80 DUP4 ADD DUP6 PUSH2 0x16FC JUMP JUMPDEST PUSH2 0x1991 PUSH1 0xA0 DUP4 ADD DUP5 PUSH2 0x1753 JUMP JUMPDEST SWAP8 SWAP7 POP POP POP POP POP POP POP JUMP JUMPDEST PUSH1 0x0 DUP1 REVERT JUMPDEST PUSH1 0x0 DUP1 REVERT JUMPDEST PUSH32 0x4E487B7100000000000000000000000000000000000000000000000000000000 PUSH1 0x0 MSTORE PUSH1 0x41 PUSH1 0x4 MSTORE PUSH1 0x24 PUSH1 0x0 REVERT JUMPDEST PUSH2 0x19DE DUP3 PUSH2 0x17DB JUMP JUMPDEST DUP2 ADD DUP2 DUP2 LT PUSH8 0xFFFFFFFFFFFFFFFF DUP3 GT OR ISZERO PUSH2 0x19FD JUMPI PUSH2 0x19FC PUSH2 0x19A6 JUMP JUMPDEST JUMPDEST DUP1 PUSH1 0x40 MSTORE POP POP POP JUMP JUMPDEST PUSH1 0x0 PUSH2 0x1A10 PUSH2 0x15DB JUMP JUMPDEST SWAP1 POP PUSH2 0x1A1C DUP3 DUP3 PUSH2 0x19D5 JUMP JUMPDEST SWAP2 SWAP1 POP JUMP JUMPDEST PUSH1 0x0 PUSH8 0xFFFFFFFFFFFFFFFF DUP3 GT ISZERO PUSH2 0x1A3C JUMPI PUSH2 0x1A3B PUSH2 0x19A6 JUMP JUMPDEST JUMPDEST PUSH2 0x1A45 DUP3 PUSH2 0x17DB JUMP JUMPDEST SWAP1 POP PUSH1 0x20 DUP2 ADD SWAP1 POP SWAP2 SWAP1 POP JUMP JUMPDEST DUP3 DUP2 DUP4 CALLDATACOPY PUSH1 0x0 DUP4 DUP4 ADD MSTORE POP POP POP JUMP JUMPDEST PUSH1 0x0 PUSH2 0x1A74 PUSH2 0x1A6F DUP5 PUSH2 0x1A21 JUMP JUMPDEST PUSH2 0x1A06 JUMP JUMPDEST SWAP1 POP DUP3 DUP2 MSTORE PUSH1 0x20 DUP2 ADD DUP5 DUP5 DUP5 ADD GT ISZERO PUSH2 0x1A90 JUMPI PUSH2 0x1A8F PUSH2 0x19A1 JUMP JUMPDEST JUMPDEST PUSH2 0x1A9B DUP5 DUP3 DUP6 PUSH2 0x1A52 JUMP JUMPDEST POP SWAP4 SWAP3 POP POP POP JUMP JUMPDEST PUSH1 0x0 DUP3 PUSH1 0x1F DUP4 ADD SLT PUSH2 0x1AB8 JUMPI PUSH2 0x1AB7 PUSH2 0x199C JUMP JUMPDEST JUMPDEST DUP2 CALLDATALOAD PUSH2 0x1AC8 DUP5 DUP3 PUSH1 0x20 DUP7 ADD PUSH2 0x1A61 JUMP JUMPDEST SWAP2 POP POP SWAP3 SWAP2 POP POP JUMP JUMPDEST PUSH2 0x1ADA DUP2 PUSH2 0x18F1 JUMP JUMPDEST DUP2 EQ PUSH2 0x1AE5 JUMPI PUSH1 0x0 DUP1 REVERT JUMPDEST POP JUMP JUMPDEST PUSH1 0x0 DUP2 CALLDATALOAD SWAP1 POP PUSH2 0x1AF7 DUP2 PUSH2 0x1AD1 JUMP JUMPDEST SWAP3 SWAP2 POP POP JUMP JUMPDEST PUSH1 0x0 DUP1 PUSH1 0x0 PUSH1 0x60 DUP5 DUP7 SUB SLT ISZERO PUSH2 0x1B16 JUMPI PUSH2 0x1B15 PUSH2 0x15E5 JUMP JUMPDEST JUMPDEST PUSH1 0x0 DUP5 ADD CALLDATALOAD PUSH8 0xFFFFFFFFFFFFFFFF DUP2 GT ISZERO PUSH2 0x1B34 JUMPI PUSH2 0x1B33 PUSH2 0x15EA JUMP JUMPDEST JUMPDEST PUSH2 0x1B40 DUP7 DUP3 DUP8 ADD PUSH2 0x1AA3 JUMP JUMPDEST SWAP4 POP POP PUSH1 0x20 PUSH2 0x1B51 DUP7 DUP3 DUP8 ADD PUSH2 0x1610 JUMP JUMPDEST SWAP3 POP POP PUSH1 0x40 PUSH2 0x1B62 DUP7 DUP3 DUP8 ADD PUSH2 0x1AE8 JUMP JUMPDEST SWAP2 POP POP SWAP3 POP SWAP3 POP SWAP3 JUMP JUMPDEST PUSH1 0x0 PUSH1 0x20 DUP3 ADD SWAP1 POP DUP2 DUP2 SUB PUSH1 0x0 DUP4 ADD MSTORE PUSH2 0x1B86 DUP2 DUP5 PUSH2 0x17EC JUMP JUMPDEST SWAP1 POP SWAP3 SWAP2 POP POP JUMP JUMPDEST PUSH32 0x4F6E6C79206D616E616765722063616E2074616B65207468697320616374696F PUSH1 0x0 DUP3 ADD MSTORE PUSH32 0x6E2E000000000000000000000000000000000000000000000000000000000000 PUSH1 0x20 DUP3 ADD MSTORE POP JUMP JUMPDEST PUSH1 0x0 PUSH2 0x1BEA PUSH1 0x22 DUP4 PUSH2 0x1797 JUMP JUMPDEST SWAP2 POP PUSH2 0x1BF5 DUP3 PUSH2 0x1B8E JUMP JUMPDEST PUSH1 0x40 DUP3 ADD SWAP1 POP SWAP2 SWAP1 POP JUMP JUMPDEST PUSH1 0x0 PUSH1 0x20 DUP3 ADD SWAP1 POP DUP2 DUP2 SUB PUSH1 0x0 DUP4 ADD MSTORE PUSH2 0x1C19 DUP2 PUSH2 0x1BDD JUMP JUMPDEST SWAP1 POP SWAP2 SWAP1 POP JUMP JUMPDEST PUSH32 0x4E487B7100000000000000000000000000000000000000000000000000000000 PUSH1 0x0 MSTORE PUSH1 0x12 PUSH1 0x4 MSTORE PUSH1 0x24 PUSH1 0x0 REVERT JUMPDEST PUSH32 0x4E487B7100000000000000000000000000000000000000000000000000000000 PUSH1 0x0 MSTORE PUSH1 0x11 PUSH1 0x4 MSTORE PUSH1 0x24 PUSH1 0x0 REVERT JUMPDEST PUSH1 0x0 PUSH2 0x1C89 DUP3 PUSH2 0x15EF JUMP JUMPDEST SWAP2 POP PUSH2 0x1C94 DUP4 PUSH2 0x15EF JUMP JUMPDEST SWAP3 POP DUP3 PUSH2 0x1CA4 JUMPI PUSH2 0x1CA3 PUSH2 0x1C20 JUMP JUMPDEST JUMPDEST DUP3 DUP3 DIV SWAP1 POP SWAP3 SWAP2 POP POP JUMP JUMPDEST PUSH32 0x4E6F7420656E6F75676820617070726F76616C20726174696F2E000000000000 PUSH1 0x0 DUP3 ADD MSTORE POP JUMP JUMPDEST PUSH1 0x0 PUSH2 0x1CE5 PUSH1 0x1A DUP4 PUSH2 0x1797 JUMP JUMPDEST SWAP2 POP PUSH2 0x1CF0 DUP3 PUSH2 0x1CAF JUMP JUMPDEST PUSH1 0x20 DUP3 ADD SWAP1 POP SWAP2 SWAP1 POP JUMP JUMPDEST PUSH1 0x0 PUSH1 0x20 DUP3 ADD SWAP1 POP DUP2 DUP2 SUB PUSH1 0x0 DUP4 ADD MSTORE PUSH2 0x1D14 DUP2 PUSH2 0x1CD8 JUMP JUMPDEST SWAP1 POP SWAP2 SWAP1 POP JUMP JUMPDEST PUSH32 0x546865207265717565737420697320616C72656164792066696E616C697A6564 PUSH1 0x0 DUP3 ADD MSTORE PUSH32 0x2E00000000000000000000000000000000000000000000000000000000000000 PUSH1 0x20 DUP3 ADD MSTORE POP JUMP JUMPDEST PUSH1 0x0 PUSH2 0x1D77 PUSH1 0x21 DUP4 PUSH2 0x1797 JUMP JUMPDEST SWAP2 POP PUSH2 0x1D82 DUP3 PUSH2 0x1D1B JUMP JUMPDEST PUSH1 0x40 DUP3 ADD SWAP1 POP SWAP2 SWAP1 POP JUMP JUMPDEST PUSH1 0x0 PUSH1 0x20 DUP3 ADD SWAP1 POP DUP2 DUP2 SUB PUSH1 0x0 DUP4 ADD MSTORE PUSH2 0x1DA6 DUP2 PUSH2 0x1D6A JUMP JUMPDEST SWAP1 POP SWAP2 SWAP1 POP JUMP JUMPDEST PUSH32 0x4E487B7100000000000000000000000000000000000000000000000000000000 PUSH1 0x0 MSTORE PUSH1 0x32 PUSH1 0x4 MSTORE PUSH1 0x24 PUSH1 0x0 REVERT JUMPDEST PUSH1 0x0 PUSH2 0x1DE7 DUP3 PUSH2 0x15EF JUMP JUMPDEST SWAP2 POP PUSH32 0xFFFFFFFFFFFFFFFFFFFFFFFFFFFFFFFFFFFFFFFFFFFFFFFFFFFFFFFFFFFFFFFF DUP3 EQ ISZERO PUSH2 0x1E1A JUMPI PUSH2 0x1E19 PUSH2 0x1C4F JUMP JUMPDEST JUMPDEST PUSH1 0x1 DUP3 ADD SWAP1 POP SWAP2 SWAP1 POP JUMP JUMPDEST PUSH32 0x4E487B7100000000000000000000000000000000000000000000000000000000 PUSH1 0x0 MSTORE PUSH1 0x22 PUSH1 0x4 MSTORE PUSH1 0x24 PUSH1 0x0 REVERT JUMPDEST PUSH1 0x0 PUSH1 0x2 DUP3 DIV SWAP1 POP PUSH1 0x1 DUP3 AND DUP1 PUSH2 0x1E6C JUMPI PUSH1 0x7F DUP3 AND SWAP2 POP JUMPDEST PUSH1 0x20 DUP3 LT DUP2 EQ ISZERO PUSH2 0x1E80 JUMPI PUSH2 0x1E7F PUSH2 0x1E25 JUMP JUMPDEST JUMPDEST POP SWAP2 SWAP1 POP JUMP JUMPDEST PUSH1 0x0 PUSH2 0x1E91 DUP3 PUSH2 0x15EF JUMP JUMPDEST SWAP2 POP PUSH2 0x1E9C DUP4 PUSH2 0x15EF JUMP JUMPDEST SWAP3 POP DUP3 PUSH32 0xFFFFFFFFFFFFFFFFFFFFFFFFFFFFFFFFFFFFFFFFFFFFFFFFFFFFFFFFFFFFFFFF SUB DUP3 GT ISZERO PUSH2 0x1ED1 JUMPI PUSH2 0x1ED0 PUSH2 0x1C4F JUMP JUMPDEST JUMPDEST DUP3 DUP3 ADD SWAP1 POP SWAP3 SWAP2 POP POP JUMP JUMPDEST PUSH32 0x596F752063616E27742072657175657374206574686572206D6F726520746861 PUSH1 0x0 DUP3 ADD MSTORE PUSH32 0x6E20796F75722062616C616E63652E0000000000000000000000000000000000 PUSH1 0x20 DUP3 ADD MSTORE POP JUMP JUMPDEST PUSH1 0x0 PUSH2 0x1F38 PUSH1 0x2F DUP4 PUSH2 0x1797 JUMP JUMPDEST SWAP2 POP PUSH2 0x1F43 DUP3 PUSH2 0x1EDC JUMP JUMPDEST PUSH1 0x40 DUP3 ADD SWAP1 POP SWAP2 SWAP1 POP JUMP JUMPDEST PUSH1 0x0 PUSH1 0x20 DUP3 ADD SWAP1 POP DUP2 DUP2 SUB PUSH1 0x0 DUP4 ADD MSTORE PUSH2 0x1F67 DUP2 PUSH2 0x1F2B JUMP JUMPDEST SWAP1 POP SWAP2 SWAP1 POP JUMP JUMPDEST PUSH32 0x596F752073686F756C6420636F6E74726962757465206D6F7265207468616E20 PUSH1 0x0 DUP3 ADD MSTORE PUSH32 0x6D696E696D756D20616D6F756E742E0000000000000000000000000000000000 PUSH1 0x20 DUP3 ADD MSTORE POP JUMP JUMPDEST PUSH1 0x0 PUSH2 0x1FCA PUSH1 0x2F DUP4 PUSH2 0x1797 JUMP JUMPDEST SWAP2 POP PUSH2 0x1FD5 DUP3 PUSH2 0x1F6E JUMP JUMPDEST PUSH1 0x40 DUP3 ADD SWAP1 POP SWAP2 SWAP1 POP JUMP JUMPDEST PUSH1 0x0 PUSH1 0x20 DUP3 ADD SWAP1 POP DUP2 DUP2 SUB PUSH1 0x0 DUP4 ADD MSTORE PUSH2 0x1FF9 DUP2 PUSH2 0x1FBD JUMP JUMPDEST SWAP1 POP SWAP2 SWAP1 POP JUMP JUMPDEST PUSH32 0x596F752061726520616C726561647920636F6E747269627574656420746F2074 PUSH1 0x0 DUP3 ADD MSTORE PUSH32 0x6869732063616D7061696E672E00000000000000000000000000000000000000 PUSH1 0x20 DUP3 ADD MSTORE POP JUMP JUMPDEST PUSH1 0x0 PUSH2 0x205C PUSH1 0x2D DUP4 PUSH2 0x1797 JUMP JUMPDEST SWAP2 POP PUSH2 0x2067 DUP3 PUSH2 0x2000 JUMP JUMPDEST PUSH1 0x40 DUP3 ADD SWAP1 POP SWAP2 SWAP1 POP JUMP JUMPDEST PUSH1 0x0 PUSH1 0x20 DUP3 ADD SWAP1 POP DUP2 DUP2 SUB PUSH1 0x0 DUP4 ADD MSTORE PUSH2 0x208B DUP2 PUSH2 0x204F JUMP JUMPDEST SWAP1 POP SWAP2 SWAP1 POP JUMP JUMPDEST PUSH32 0x596F752073686F756C64206265206120636F6E7472696275746F72206F662074 PUSH1 0x0 DUP3 ADD MSTORE PUSH32 0x6869732063616D706169676E20746F20766F746520666F722061207265717565 PUSH1 0x20 DUP3 ADD MSTORE PUSH32 0x73742E0000000000000000000000000000000000000000000000000000000000 PUSH1 0x40 DUP3 ADD MSTORE POP JUMP JUMPDEST PUSH1 0x0 PUSH2 0x2114 PUSH1 0x43 DUP4 PUSH2 0x1797 JUMP JUMPDEST SWAP2 POP PUSH2 0x211F DUP3 PUSH2 0x2092 JUMP JUMPDEST PUSH1 0x60 DUP3 ADD SWAP1 POP SWAP2 SWAP1 POP JUMP JUMPDEST PUSH1 0x0 PUSH1 0x20 DUP3 ADD SWAP1 POP DUP2 DUP2 SUB PUSH1 0x0 DUP4 ADD MSTORE PUSH2 0x2143 DUP2 PUSH2 0x2107 JUMP JUMPDEST SWAP1 POP SWAP2 SWAP1 POP JUMP JUMPDEST PUSH32 0x596F752063616E20766F7465206F6E6C79206F6E63652E000000000000000000 PUSH1 0x0 DUP3 ADD MSTORE POP JUMP JUMPDEST PUSH1 0x0 PUSH2 0x2180 PUSH1 0x17 DUP4 PUSH2 0x1797 JUMP JUMPDEST SWAP2 POP PUSH2 0x218B DUP3 PUSH2 0x214A JUMP JUMPDEST PUSH1 0x20 DUP3 ADD SWAP1 POP SWAP2 SWAP1 POP JUMP JUMPDEST PUSH1 0x0 PUSH1 0x20 DUP3 ADD SWAP1 POP DUP2 DUP2 SUB PUSH1 0x0 DUP4 ADD MSTORE PUSH2 0x21AF DUP2 PUSH2 0x2173 JUMP JUMPDEST SWAP1 POP SWAP2 SWAP1 POP JUMP INVALID LOG2 PUSH5 0x6970667358 0x22 SLT KECCAK256 0xEF SGT 0x4F 0x22 RETURN DUP4 0xE1 0x2E 0xDB PUSH29 0x4F28DEA97C5BDBF5B3FDC5E777C9B06A745D5446B59F64736F6C634300 ADDMOD MULMOD STOP CALLER "},"gasEstimates":{"creation":{"codeDepositCost":"1736800","executionCost":"infinite","totalCost":"infinite"},"external":{"approveRequest(uint256)":"infinite","contribute()":"124042","createRequest(string,uint256,address)":"infinite","deleteCampaign()":"infinite","deleteRequest(uint256)":"infinite","finalizeRequest(uint256)":"infinite","financialAim()":"2518","getSummary()":"infinite","imageURL()":"infinite","isApproved(address,uint256)":"3221","manager()":"2534","minimumContribution()":"2474","numRequests()":"2518","projectAim()":"infinite","projectName()":"infinite","requests(uint256)":"infinite","requestsBalance()":"2561","supporterContributionValues(address)":"2904","supporters(address)":"2912","supportersAddresses(uint256)":"5001","supportersCount()":"2539"}},"methodIdentifiers":{"approveRequest(uint256)":"d7d1bbdb","contribute()":"d7bb99ba","createRequest(string,uint256,address)":"8a9cfd55","deleteCampaign()":"244c3c2c","deleteRequest(uint256)":"e9a21bcd","finalizeRequest(uint256)":"03441006","financialAim()":"70035047","getSummary()":"4051ddac","imageURL()":"b90497e0","isApproved(address,uint256)":"2a16cca4","manager()":"481c6a75","minimumContribution()":"937e09b1","numRequests()":"9fb42b1f","projectAim()":"d3087b57","projectName()":"9a33e300","requests(uint256)":"81d12c58","requestsBalance()":"ecd1eecf","supporterContributionValues(address)":"2c5cac63","supporters(address)":"647c75e2","supportersAddresses(uint256)":"4d80e709","supportersCount()":"eb7b1312"}},"storageLayout":{"storage":[{"astId":139,"contract":"Campaign.sol:Campaign","label":"manager","offset":0,"slot":"0","type":"t_address"},{"astId":141,"contract":"Campaign.sol:Campaign","label":"projectName","offset":0,"slot":"1","type":"t_string_storage"},{"astId":143,"contract":"Campaign.sol:Campaign","label":"projectAim","offset":0,"slot":"2","type":"t_string_storage"},{"astId":145,"contract":"Campaign.sol:Campaign","label":"imageURL","offset":0,"slot":"3","type":"t_string_storage"},{"astId":147,"contract":"Campaign.sol:Campaign","label":"financialAim","offset":0,"slot":"4","type":"t_uint256"},{"astId":149,"contract":"Campaign.sol:Campaign","label":"minimumContribution","offset":0,"slot":"5","type":"t_uint256"},{"astId":151,"contract":"Campaign.sol:Campaign","label":"requestsBalance","offset":0,"slot":"6","type":"t_uint256"},{"astId":155,"contract":"Campaign.sol:Campaign","label":"supporters","offset":0,"slot":"7","type":"t_mapping(t_address,t_bool)"},{"astId":158,"contract":"Campaign.sol:Campaign","label":"supportersAddresses","offset":0,"slot":"8","type":"t_array(t_address_payable)dyn_storage"},{"astId":162,"contract":"Campaign.sol:Campaign","label":"supporterContributionValues","offset":0,"slot":"9","type":"t_mapping(t_address,t_uint256)"},{"astId":164,"contract":"Campaign.sol:Campaign","label":"supportersCount","offset":0,"slot":"10","type":"t_uint256"},{"astId":183,"contract":"Campaign.sol:Campaign","label":"numRequests","offset":0,"slot":"11","type":"t_uint256"},{"astId":188,"contract":"Campaign.sol:Campaign","label":"requests","offset":0,"slot":"12","type":"t_mapping(t_uint256,t_struct(Request)181_storage)"}],"types":{"t_address":{"encoding":"inplace","label":"address","numberOfBytes":"20"},"t_address_payable":{"encoding":"inplace","label":"address payable","numberOfBytes":"20"},"t_array(t_address_payable)dyn_storage":{"base":"t_address_payable","encoding":"dynamic_array","label":"address payable[]","numberOfBytes":"32"},"t_bool":{"encoding":"inplace","label":"bool","numberOfBytes":"1"},"t_mapping(t_address,t_bool)":{"encoding":"mapping","key":"t_address","label":"mapping(address => bool)","numberOfBytes":"32","value":"t_bool"},"t_mapping(t_address,t_uint256)":{"encoding":"mapping","key":"t_address","label":"mapping(address => uint256)","numberOfBytes":"32","value":"t_uint256"},"t_mapping(t_uint256,t_struct(Request)181_storage)":{"encoding":"mapping","key":"t_uint256","label":"mapping(uint256 => struct Campaign.Request)","numberOfBytes":"32","value":"t_struct(Request)181_storage"},"t_string_storage":{"encoding":"bytes","label":"string","numberOfBytes":"32"},"t_struct(Request)181_storage":{"encoding":"inplace","label":"struct Campaign.Request","members":[{"astId":166,"contract":"Campaign.sol:Campaign","label":"description","offset":0,"slot":"0","type":"t_string_storage"},{"astId":168,"contract":"Campaign.sol:Campaign","label":"status","offset":0,"slot":"1","type":"t_string_storage"},{"astId":170,"contract":"Campaign.sol:Campaign","label":"value","offset":0,"slot":"2","type":"t_uint256"},{"astId":172,"contract":"Campaign.sol:Campaign","label":"recipient","offset":0,"slot":"3","type":"t_address_payable"},{"astId":174,"contract":"Campaign.sol:Campaign","label":"complete","offset":20,"slot":"3","type":"t_bool"},{"astId":176,"contract":"Campaign.sol:Campaign","label":"approvalCount","offset":0,"slot":"4","type":"t_uint256"},{"astId":180,"contract":"Campaign.sol:Campaign","label":"approvals","offset":0,"slot":"5","type":"t_mapping(t_address,t_bool)"}],"numberOfBytes":"192"},"t_uint256":{"encoding":"inplace","label":"uint256","numberOfBytes":"32"}}},"userdoc":{"kind":"user","methods":{},"version":1}}